:1007070075FFDE75FFAD1206D312069B12001EAEF3
:1007170002AF01900088EEF0A3EFF0900088E0FEB2
:10072700A3E0FFAA06A9077B017D307C001204A97C
:0307370080FE221F
:03001B0002000AD6
:01000A0032C3
:03002B00020025AB
:0100250032A8
:03003B000200269A
:0100260032A7
:0300430002002791
:0100270032A6
:03004B0002002888
:0100280032A5
:1004A90090006FEBF0A3EAF0A3E9F0900072ECF092
:1004B900A3EDF090004E7401F090004FE4F090002D
:1004C9006FE0FBA3E0FAA3E0F9AE02AF019000539D
:1004D900EEF0A3EFF0900072E0FEA3E0FF90005071
:1004E900EEF0A3EFF0900051E0FF90004DEFF075B2
:1004F9009A07759DFF75F80143A60243E30143E698
:0405090001D2AF224A
:030033000202FACC
:1002FA00C0E0C083C082C0D075D01830FF79C2AFC9
:10030A00900052E59BF0900052E0FFEF64336009E1
:10031A00900052E0FFEFB4343590004DE4F09000C5
:10032A0052E0FFEFB43312900053E0FEA3E0FF90D7
:10033A00004BEEF0A3EFF08015900052E0FFEFB40F
:10034A00340C7E007F4E90004BEEF0A3EFF090004D
:10035A004DE0FF90004BE0FCA3E0FD8D828C83E52D
:10036A00822FF582E43583F583E0FF8F9B90004D61
:10037A00E004F0C2FFD2AF30FE02C2FE30FD02C27C
:0F038A00FD30FC02C2FCD0D0D082D083D0E03254
:0D000E00C0D075D00890004DE0FFD0D0228A
:10080900C2CAC2C9C2C875CA6675CBFC75CCFF75A8
:05081900CDFFD2CA2250
:1007F100C28C900061E4F0A3E4F0438901758AFFA3
:08080100758CDBD2A9D28C2218
:03000B0002079554
:10079500C0E0C083C082C28D900062E004F07006A4
:1007A500900061E004F0758AFF758CDBD082D08300
:0307B500D0E0325F
:1006D30075B16790008AE4F0A3E4F090008AE0FE2D
:1006E300A3E0FFC3EE64809481501090008BE0047C
:1006F300F0700690008AE004F080E0E5B130E7FB9B
:0307030075B28844
:0107060022D0
:08076C00900057EEF0A3EFF03E
:100774007B017A007959900057E0FCA3E0FD120652
:10078400197B017A0079591205C3EFB401F37F0193
:010794002242
:10061900900074EBF0A3EAF0A3E9F0900077ECF016
:10062900A3EDF01207B8900074E0FBA3E0FAA3E091
:10063900F9EE8FF01201D7900077E0FEA3E0FF906A
:100649000074E0FBA3E0FAA3E0F975820275830068
:09065900EE8FF01201F67F012280
:0B05C300900079EBF0A3EAF0A3E9F050
:1005CE001207B890007CEEF0A3EFF0900079E0FBFC
:1005DE00A3E0FAA3E0F9120174FFAEF090007CE004
:1005EE00FCA3E0FD12050D900079E0FBA3E0FAA359
:1005FE00E0F975820275830012019FFDACF0C3EF26
:0A060E009DEE9C50037FFF227F0148
:0106180022BF
:070003007B017A00795D2208
:1007B800C2A9900061E0FEA3E0FF90008CEEF0A3D8
:0C07C800EFF0D2A990008CE0FEA3E0FF4F
:0107D4002202
:10050D0090007EEEF0A3EFF0900080ECF0A3EDF004
:10051D0090007EE0FEA3E0FF900080E0FCA3E0FDF4
:10052D00D3ED9FEC9E401890007EE0FEA3E0FF907F
:10053D000080E0FCA3E0FDC3ED9FFFEC9EFE22904A
:10054D00007EE0FEA3E0FFC3E49FFFE49EFE90006B
:0D055D0080E0FCA3E0FDEF2DFFEE3CFE2250
:1007D5005800022425262728292A2B2C2D2E2F3494
:0B07E50035363738393A3B3C3D3E3F8B
:10069B0075BC6075F10F75F20075F30F75F4009072
:1006AB00001AE4F075BB2475D1007E007F307D000D
:1006BB007B017A00791B12022343E80C12080943D1
:0806CB00E88043E702D2AF22F0
:03007B0002024F2F
:10024F00C0E0C0F0C083C082C0D075D00853E7FDB6
:10025F00C2ED12000EEEA2E713FEEF13FF90001A8D
:10026F00E0FD7C00EF6D7002EE6C606EAFBF7E0044
:10027F0090001AE0FDED25E0241BF582E43400F533
:10028F0083EEF0A3EFF090001AE0FFEF25E0241BC0
:10029F00F582E43400F583C083C082E0FEA3E0FF63
:1002AF00EF7F00FED082D083EEF0A3EFF090001A24
:1002BF00E0FFEF25E0241BF582E43400F583C083D3
:1002CF00C082E0FEA3E0FFADBE7C00EE4CFEEF4D22
:1002DF00FFD082D083EEF0A3EFF012004E43E7027F
:0B02EF00D0D0D082D083D0F0D0E0321D
:05073A00900082EFF0C9
:10073F0053E7FD900082E0FFEF25E0241BF582E4F4
:10074F003400F583E0FEA3E0FF900083EEF0A3EF0B
:0C075F00F043E702900083E0FEA3E0FFFF
:01076B00226B
:0A066200C0D075D018900085EFF0AD
:10066C0053E7FD900085E0FFEF25E0241BF582E4C5
:10067C003400F583E0FEA3E0FF900086EEF0A3EFDC
:0C068C00F043E702900086E0FEA3E0FFD0
:03069800D0D0229D
:10042500900063EFF0900064ECF0A3EDF0900066AF
:10043500EBF0A3EAF0A3E9F053E7FD900063E0FFDA
:100445007E00900064E0FCA3E0FDC3ED9FFFEC9E01
:10045500FEEF2401FFEE3400FEEF25E0FFEE33FE54
:10046500C006C007900063E0FF7E02EF8EF0A4FF98
:10047500AEF0741B2FF974003EFA7B01C003C00275
:10048500C001900066E0FBA3E0FAA3E0F9A801AC87
:1004950002AD03D001D002D003D007D00612014E21
:0404A50043E7022205
:10004E00C0D075D00890001AE004FFF0EFB4180588
:10005E0090001AE4F090001AE0FF74022FF582E48B
:0B006E003400F583E0FF8FBBD0D022F0
:07001E007B017A00791B222F
:08056A00900069EEF0A3EFF030
:10057200900069E0FEA3E0FF900000EEF0A3EFF030
:10058200900000E0FF90006BEFF0900001E0FF9020
:10059200006CEFF090006CE0FF900000EFF0900034
:1005A2006BE0FF900001EFF0900000E0FEA3E0FF9F
:1005B20090006DEEF0A3EFF090006DE0FEA3E0FF7F
:0105C2002216
:030000000203995F
:0C039900787FE4F6D8FD75811F0203E0B8
:10007E00E709F608DFFA8046E709F208DFFA803E64
:10008E0088828C83E709F0A3DFFA8032E309F60851
:10009E00DFFA8078E309F208DFFA807088828C83B9
:1000AE00E309F0A3DFFA806489828A83E0A3F6086D
:1000BE00DFFA805889828A83E0A3F208DFFA804C47
:1000CE0080D280FA80C680D4806980F2803380101E
:1000DE0080A680EA809A80A880DA80E280CA803387
:1000EE0089828A83ECFAE493A3C8C582C8CCC583FF
:1000FE00CCF0A3C8C582C8CCC583CCDFE9DEE780CF
:10010E000D89828A83E493A3F608DFF9ECFAA9F04D
:10011E00EDFB2289828A83ECFAE0A3C8C582C8CCA3
:10012E00C583CCF0A3C8C582C8CCC583CCDFEADEBC
:10013E00E880DB89828A83E493A3F208DFF980CC1E
:10014E0088F0EF60010E4E60C388F0ED2402B40417
:10015E000050B9F582EB2402B4040050AF232345BE
:06016E0082239000CE7315
:10017400BB010A89828A83E0F5F0A3E02250068756
:10018400F009E71922BBFE07E3F5F009E319228918
:0B019400828A83E493F5F0740193224B
:10019F00BB0110E58229F582E5833AF583E0F5F09E
:1001AF00A3E0225009E92582F886F008E622BBFE7B
:1001BF000AE92582F8E2F5F008E222E5832AF583C1
:0801CF00E993F5F0A3E9932286
:1001D700BB010A89828A83F0E5F0A3F0225006F773
:0F01E70009A7F01922BBFE06F3E5F009F3192270
:1001F600F8BB0111E58229F582E5833AF583E8F03B
:10020600E5F0A3F0225009E92582C8F608A6F022F7
:0D021600BBFE09E92582C8F2E5F008F222DE
:10022300EF4E6012EF60010EEDBB010B89828A83F2
:10023300F0A3DFFCDEFA2289F05007F709DFFCA9FF
:0C024300F022BBFEFCF309DFFCA9F02256
:1003A500020707E493A3F8E493A34003F68001F260
:1003B50008DFF48029E493A3F85407240CC8C33359
:1003C500C4540F4420C8834004F456800146F6DF28
:1003D500E4800B01020408102040809007D5E47EDC
:1003E500019360BCA3FF543F30E509541FFEE4931D
:1003F500A360010ECF54C025E060A840B8E493A3E4
:10040500FAE493A3F8E493A3C8C582C8CAC583CA0E
:10041500F0A3C8C582C8CAC583CADFE9DEE780BEC6
:0107F0000008
:00000001FF
