:09AB3800000102030405060708F0
:10A1DC0075840075BA0075BC18900D94E4F075BBCD
:10A1EC000075D1077E007F127D007B017A0D799579
:10A1FC00121A3175E80C12A6A543E88043E702D287
:02A20C00AF227F
:03007B00027BC342
:107BC300C0E0C0F0C083C082C0D075D00853E7FDC9
:107BD300C2EDAFBF7E00900D94E0FDED25E024954E
:107BE300F582E4340DF583EEF0A3EFF0900D94E00D
:107BF300FFEF25E02495F582E4340DF583C083C0BF
:107C030082E0FEA3E0FFEF7F00FED082D083EEF0A0
:107C1300A3EFF0900D94E0FFEF25E02495F582E4C7
:107C2300340DF583C083C082E0FEA3E0FFADBE7CCC
:107C330000EE4CFEEF4DFFD082D083EEF0A3EFF0C9
:107C430012A4D743E702D0D0D082D083D0F0D0E0C3
:017C530032FE
:10823A00900F38EFF0900F39EDF0900F3AEBF0A372
:10824A00EAF0A3E9F053E7FD900F38E0FF7E0090D3
:10825A000F39E0FD7C00C3ED9FFFEC9EFEEF240189
:10826A00FFEE3400FEEF25E0FFEE33FEC006C00746
:10827A00900F38E0FF7E02EF8EF0A4FFAEF0749507
:10828A002FF9740D3EFA7B01C003C002C001900FA2
:10829A003AE0FBA3E0FAA3E0F9A801AC02AD03D0EF
:1082AA0001D002D003D007D0061214DB43E7022222
:10A4D700C0D075D008900D94E004FFF0EFB40905E3
:10A4E700900D94E4F0900D94E0FFEF90AB3893FF5C
:05A4F7008FBBD0D02254
:086EBA00450BF1000402060182
:10A4FC00C200C201758400759A4075F809759DFFFC
:10A50C0075840F43A60743E10243E34043F601433E
:03A51C00E6012233
:1086F600900E88EEF0A3EFF0900E8AEBF0A3EAF06E
:10870600A3E9F075840053E6FE900E8AE0FBA3E031
:10871600FAA3E0F9AE02AF01900B8BEEF0A3EFF0F7
:10872600900E88E0FEA3E0FF900B8AEFF0900E8D8E
:10873600E0FBA3E0FAA3E0F9900B87EBF0A3EAF0E5
:10874600A3E9F0900B86E4F0900B86E0FF04F0744A
:108756008D2FF582E4340BF583E0FF8F9B43E60112
:038766007F00226F
:03003300025DF873
:105DF800C0E0C0F0C083C082C0D075D01820FF03B7
:105E0800025EA7C2FF30010375A0FD900B86E0FF7C
:105E18007E00EF24FFFFEE34FFFE900B8BE0FCA327
:105E2800E0FD8D828C83E5822FF582E5833EF58344
:105E3800E59BF0900B8AE0FF900B86E0FEEEC39F97
:105E4800503730011B900BF6E4F0900BF6E0FFEFB3
:105E5800C394145008900BF6E004F080ED75A0F898
:105E6800900B86E0FF04F0748D2FF582E4340BF577
:105E780083E0FF8F9B807D8026900B8AE0FF900B4C
:105E880086E0FEEEB51F18900B87E0FBA3E0FAA3AF
:105E9800E0F989828A837F007E00121A2F805530AC
:105EA800FE1AC2FE900B87E0FBA3E0FAA3E0F98993
:105EB800828A837F027E00121A2F803830FD1AC230
:105EC800FD900B87E0FBA3E0FAA3E0F989828A83BF
:105ED8007F037E00121A2F801B30FC18C2FC900B27
:105EE80087E0FBA3E0FAA3E0F989828A837F047E36
:0F5EF80000121A2FD0D0D082D083D0F0D0E03259
:0BAB19003000037F0122D2007F0022E9
:03000600C2002213
:10A26E0090106FEFF0901070EDF0901070E0FFEF27
:10A27E00B4011790106FE0FF74F12FF582E4340BE8
:0EA28E00F583E0FFEF44F8F5A02275A0FD2255
:07AB86007B017A0B798D229F
:10A955009010A3EFF09010A3E0FFEF24FF920122E7
:109E4E00A2AF9204C2AF75840043911043910F7577
:109E5E00985012A7DCC299C298D2ACD2BCA204927E
:109E6E00AF75840F43E10443E340900000E4F090AB
:0F9E7E000101E4F0900102E4F090010374FFF0A1
:019E8D0022B2
:10A10D0053E7BF7584017598105398FC43F74012BF
:10A11D00A82775840F43E30443E3409001A7E4F0BF
:10A12D009002A8E4F09002A9E4F09002AA74FFF066
:04A13D0043E7402292
:03002300027CE577
:0D7CE500C0E0C0F0C083C082C0D075D010D8
:107CF200C2ACE59130E70353917FE59130E603533F
:107D020091BF309816C2989010A4E599F07B017A41
:107D12000179049010A4E0FD125CE6309946C29904
:107D2200900102E0FF900101E0FEEE6F60319001F0
:107D320002E0FF74012FF582E43400F583E0FF8F47
:107D420099900102E0FF7E00EF2401FFEE3400FE75
:107D52007E00900102EFF0900103E004F0800590B4
:067D62000000E4F0D2ACC9
:0B7D6800D0D0D082D083D0F0D0E03229
:0300A3000283399C
:10833900C0E0C0F0C083C082C0D075D01053E7BF81
:10834900E59830E00E5398FE7B017A0279ABAD993E
:10835900125CE6E59830E1475398FD9002A9E0FFE9
:108369009002A8E0FEEE6F60319002A9E0FF74A8C8
:108379002FF582E43401F583E0FF8F999002A9E09B
:10838900FF7E00EF2401FFEE3400FE7E009002A97B
:10839900EFF09002AAE004F080059001A7E4F04311
:0D83A900E740D0D0D082D083D0F0D0E032B9
:109C2C00900F3DEBF0A3EAF0A3E9F0900F40EDF0BC
:109C3C00900F41E0FFEF7014900F3DE0FBA3E0FAB2
:109C4C00A3E0F9900F40E0FD1242E922900F41E0B1
:109C5C00FFEFB40113900F3DE0FBA3E0FAA3E0F992
:099C6C00900F40E0FD1244C022FB
:1042E900900E49EBF0A3EAF0A3E9F0900E4CEDF043
:1042F9007B017A007900900E4FEBF0A3EAF0A3E975
:10430900F0758400900E4FE0FBA3E0FAA3E0F97585
:10431900820375830112151AFF900E4CE0FEEFC35C
:104329009E50037F0122900E4DE4F0900E4CE0FF69
:10433900900E4DE0FEEEC39F4003024400A2ACE4A0
:1043490033FF900E4EEFF0C2AC900E49E0FBA3E0B4
:10435900FAA3E0F9900E4DE0FF8F827583001215E4
:104369001AFF900E4FE0FBA3E0FAA3E0F975820172
:1043790075830112151AFEEEFD7C00900E4FE0FBCD
:10438900A3E0FAA3E0F9E92401F9EA3400FAE92DF6
:10439900F9EA3CFAEF12159C900E4FE0FBA3E0FA04
:1043A900A3E0F975820175830112151AFF7E00EFEA
:1043B9002401FFEE3400FE7E00900E4FE0FBA3E0E7
:1043C900FAA3E0F9758201758301EF1215AE900E1B
:1043D9004FE0FBA3E0FAA3E0F9758203758301744A
:1043E900FF121569900E4EE0FFEF24FF92AC900E7C
:1043F9004DE004F0024334A2ACE433FF900E4EEFDB
:10440900F0C2AC900E4FE0FBA3E0FAA3E0F912155D
:1044190001FFEF60030244B3900E4FE0FBA3E0FA03
:10442900A3E0F9740112159C900E4FE0FBA3E0FA8A
:10443900A3E0F975820275830112151AFF7E0090B7
:104449000E4FE0FBA3E0FAA3E0F9E92401F9EA340D
:1044590000FAE92FF9EA3EFA121501FF8F99900E39
:104469004FE0FBA3E0FAA3E0F9758202758301121C
:10447900151AFF7E00EF2401FFEE3400FE7E009046
:104489000E4FE0FBA3E0FAA3E0F975820275830100
:10449900EF1215AE900E4FE0FBA3E0FAA3E0F97519
:1044A90082037583017401121569900E4EE0FFEFC6
:0644B90024FF92AC7F001D
:0144BF0022DA
:1044C000900E52EBF0A3EAF0A3E9F0900E55EDF058
:1044D0007B017A0179A7900E58EBF0A3EAF0A3E9EB
:1044E000F0758401900E58E0FBA3E0FAA3E0F975A3
:1044F000820375830112151AFF900E55E0FEEFC37B
:104500009E50037F0122900E56E4F0900E55E0FF7E
:10451000900E56E0FEEEC39F40030245D6E5E754F9
:1045200040FF900E57EFF053E7BF900E52E0FBA311
:10453000E0FAA3E0F9900E56E0FF8F827583001237
:10454000151AFF900E58E0FBA3E0FAA3E0F975827C
:104550000175830112151AFEEEFD7C00900E58E0E5
:10456000FBA3E0FAA3E0F9E92401F9EA3400FAE94F
:104570002DF9EA3CFAEF12159C900E58E0FBA3E0EF
:10458000FAA3E0F975820175830112151AFF7E0006
:10459000EF2401FFEE3400FE7E00900E58E0FBA3F6
:1045A000E0FAA3E0F9758201758301EF1215AE9070
:1045B0000E58E0FBA3E0FAA3E0F9758203758301CE
:1045C00074FF121569900E57E0FFEF42E7900E5608
:1045D000E004F002450BE5E75440FF900E57EFF082
:1045E00053E7BF900E58E0FBA3E0FAA3E0F91215E1
:1045F00001FFEF600302468A900E58E0FBA3E0FA49
:10460000A3E0F9740112159C900E58E0FBA3E0FAA8
:10461000A3E0F975820275830112151AFF7E0090DE
:104620000E58E0FBA3E0FAA3E0F9E92401F9EA342B
:1046300000FAE92FF9EA3EFA121501FF8F99900E60
:1046400058E0FBA3E0FAA3E0F9758202758301123A
:10465000151AFF7E00EF2401FFEE3400FE7E00906D
:104660000E58E0FBA3E0FAA3E0F97582027583011E
:10467000EF1215AE900E58E0FBA3E0FAA3E0F97537
:1046800082037583017401121569900E57E0FFEFE4
:0446900042E77F007E
:014694002203
:10A687009010A5EFF09010A5E0FF7E007C017DA75C
:0EA697001215D074042FF974013EFA7B0122D3
:10A91F00A2ACE433FF9010A6EFF0C2AC9010A6E00B
:01A92F00FF28
:01A930002204
:10A8F900E5E75440FF9010A7EFF053E7BF9010A78A
:02A90900E0FF6D
:01A90B002229
:10A93100A2ACE433FF9010A8EFF0D2AC9010A8E0E5
:01A94100FF16
:01A9420022F2
:10A90C00E5E75440FF9010A9EFF043E7409010A901
:02A91C00E0FF5A
:01A91E002216
:0CAAE9009005FAE4F09005FB74FFF022E9
:0B89A000900F88EBF0A3EAF0A3E9F0D1
:1089AB009005FAE0FFEFC3944C40037FFF22900544
:1089BB00FAE0FF900F8BEFF0900F88E0FBA3E0FA4B
:1089CB00A3E0F9900F8BE0FF75F009EFA4244EF5AF
:1089DB0082E5F03403F583EBF0A3EAF0A3E9F09022
:1089EB000F8BE0FF75F009EFA42452F582E5F0340C
:1089FB0003F583E4F09005FAE004F0900F8BE0FFB1
:018A0B002248
:109F4C00901071EFF0901072EDF0901071E0FF75C1
:109F5C00F009EFA42452F582E5F03403F583740282
:109F6C00F0901072E0FF901071E0FE75F009EEA415
:0D9F7C002451F582E5F03403F583EFF02267
:109F89009010AAEFF09010AAE0FFEFB4FF17900528
:109F9900FBE0FF75F009EFA42452F582E5F03403E4
:109FA900F583E4F0229010AAE0FF75F009EFA424EC
:0C9FB90052F582E5F03403F583E4F02259
:109FC5009010ABEFF09010ABE0FF9005FBE0FE7555
:109FD500F009EEA42451F582E5F03403F583EFF0A2
:109FE5009005FBE0FF75F009EFA42452F582E5F03A
:089FF5003403F5837402F0222D
:10712700901018EFF0901019ECF0A3EDF0901018F4
:10713700E0FFEF64FF70529005FBE0FF75F009EF89
:10714700A42452F582E5F03403F5837403F0900527
:10715700FBE0FF7E09EF8EF0A4FFAEF074532FF92A
:1071670074033EFA7B01C003C002C001901019E00E
:10717700FEA3E0FF7C007D0A1215E2AC06AD07D046
:1071870001D002D003129C7522901018E0FF75F011
:1071970009EFA42452F582E5F03403F5837403F074
:1071A700901018E0FF7E09EF8EF0A4FFAEF0745345
:1071B7002FF974033EFA7B01C003C002C00190108F
:1071C70019E0FEA3E0FF7C007D0A1215E2AC06ADD4
:0B71D70007D001D002D003129C7522EB
:10563F009010ACE4F09005FAE0FF9010ACE0FEEEB5
:10564F00C39F400302576A9005FAE0FF9005FBE005
:10565F0004FEF0EEB507059005FBE4F09005FBE0C6
:10566F00FF75F009EFA42452F582E5F03403F583BA
:10567F00E0FFEF640270519005FBE0FF75F009EF5A
:10568F00A42452F582E5F03403F5837401F09005FC
:10569F00FBE0FF75F009EFA42451F582E5F0340328
:1056AF00F583E0FF9005FBE0FE75F009EEA4244EB4
:1056BF00F582E5F03403F583E0FBA3E0FAA3E0F90C
:1056CF0089828A83121A2F229005FBE0FF75F00959
:1056DF00EFA42452F582E5F03403F583E0FFEF6485
:1056EF0003706F9005FBE0FF7E09EF8EF0A4FFAE15
:1056FF00F074532FF974033EFA7B01129734EF6065
:10570F00519005FBE0FF75F009EFA42452F582E5F7
:10571F00F03403F5837401F09005FBE0FF75F00999
:10572F00EFA42451F582E5F03403F583E0FF9005F3
:10573F00FBE0FE75F009EEA4244EF582E5F034038C
:10574F00F583E0FBA3E0FAA3E0F989828A83121ABA
:0B575F002F229010ACE004F002564432
:01576A00221C
:10A739009010ADEFF09010ADE0FF75F009EFA42493
:0CA7490052F582E5F03403F583E0FF22B6
:1074BE0090101BEBF0A3EAF0A3E9F090101BE0FB99
:1074CE00A3E0FAA3E0F97582037583007495121593
:1074DE00AE90101BE0FBA3E0FAA3E0F975820175F4
:1074EE008300E41215AE90101BE0FBA3E0FAA3E0BC
:1074FE00F9758202758300E41215AE90101BE0FB45
:10750E00A3E0FAA3E0F9758205758300E41215AEC7
:10751E0090101BE0FBA3E0FAA3E0F97582047583DB
:10752E0000E41215AE90101BE0FBA3E0FAA3E0F905
:10753E00E412159C90101BE0FBA3E0FAA3E0F97592
:10754E00820A758300E41215AE90101BE0FBA3E0D7
:0F755E00FAA3E0F975820B758300E41215AE22D3
:105CE600C0D075D010900F8CEBF0A3EAF0A3E9F0CA
:105CF600900F8FEDF0900F8CE0FBA3E0FAA3E0F994
:105D060075820275830012151AFF900F8CE0FBA3B3
:105D1600E0FAA3E0F975820175830012151AFEEE0A
:105D2600B5171D900F8CE0FBA3E0FAA3E0F975828E
:105D36000575830012151AFFEF60057F03025DF5F6
:105D4600900F8FE0FF900F8CE0FBA3E0FAA3E0F941
:105D560075820175830012151AFEEEFD7C00900F08
:105D66008CE0FBA3E0FAA3E0F9E9240DF9EA34009C
:105D7600FAE92DF9EA3CFAEF12159C900F8CE0FB3C
:105D8600A3E0FAA3E0F975820375830012151AFFE2
:105D9600900F8CE0FBA3E0FAA3E0F975820175830E
:105DA6000012151AFEEEC39F5018900F8CE0FBA34D
:105DB600E0FAA3E0F9758201758300740112156992
:105DC6008015900F8CE0FBA3E0FAA3E0F975820141
:105DD600758300E41215AE900F8CE0FBA3E0FAA3E6
:105DE600E0F975820575830074011215697F01D08B
:025DF600D022B9
:0B5BD300900E90EBF0A3EAF0A3E9F0C5
:105BDE00900E90E0FBA3E0FAA3E0F97582057583C1
:105BEE000012151AFFEF70067F0322025CE3900E7F
:105BFE0096E0FFEF700A12A91F900E97EFF0800843
:105C0E0012A8F9900E97EFF0900E90E0FBA3E0FA39
:105C1E00A3E0F975820275830012151AFF7E0090BB
:105C2E000E90E0FBA3E0FAA3E0F9E9240DF9EA34C3
:105C3E0000FAE92FF9EA3EFA121501FF900E93E0F1
:105C4E00FBA3E0FAA3E0F9EF12159C900E90E0FB97
:105C5E00A3E0FAA3E0F975820375830012151AFF0B
:105C6E00900E90E0FBA3E0FAA3E0F9758202758333
:105C7E000012151AFEEEC39F5018900E90E0FBA373
:105C8E00E0FAA3E0F97582027583007401121569BA
:105C9E008015900E90E0FBA3E0FAA3E0F975820266
:105CAE00758300E41215AE900E90E0FBA3E0FAA30C
:105CBE00E0F975820575830074FF121569900E97D1
:105CCE00E0FFEF6010900E96E0FFEF700512A93125
:075CDE00800312A90C7F01F5
:015CE500229C
:1089300090101EEBF0A3EAF0A3E9F090101EE0FB0C
:10894000A3E0FAA3E0F9758203758300740212159F
:10895000AE90101EE0FBA3E0FAA3E0F97582027569
:108960008300E41215AE90101EE0FBA3E0FAA3E032
:10897000F9758201758300E41215AE90101EE0FBBC
:10898000A3E0FAA3E0F9758204758300E41215AE42
:1089900090101EE0FBA3E0FAA3E0F9E412159C227C
:1096DE00901021EBF0A3EAF0A3E9F0901021E0FB4B
:1096EE00A3E0FAA3E0F975820375830012151AFF41
:1096FE00901021E0FBA3E0FAA3E0F97582047583D4
:10970E000012151AFEEEB507057EFF7FFF229010A0
:10971E0021E0FBA3E0FAA3E0F97582027583001243
:06972E00151AFF7E002267
:107F1600900F42EBF0A3EAF0A3E9F0900F45ECF0E6
:107F2600A3EDF0900F42E0FBA3E0FAA3E0F975821F
:107F36000375830012151AFF7E00EF24FFFFEE344F
:107F4600FFFE900F45E0FCA3E0FDD3ED9FEE6480BD
:107F5600F8EC6480985010900F45E0FEA3E0FFC354
:107F6600EE6480948050077B007A00790022900F9F
:107F760042E0FBA3E0FAA3E0F9E92406F9EA3400BB
:107F8600FA900F45E0FEA3E0FF7C007D461215D077
:077F9600E92FF9EA3EFA228F
:10852100901024EBF0A3EAF0A3E9F0901024E0FB13
:10853100A3E0FAA3E0F975820375830012151AFF0F
:10854100901024E0FBA3E0FAA3E0F97582027583A1
:10855100007401121569FEEEB50715901024E0FBB9
:10856100A3E0FAA3E0F9758202758300E41215AE67
:10857100901024E0FBA3E0FAA3E0F9E412159C902B
:108581001024E0FBA3E0FAA3E0F9758204758300EF
:06859100740112156922BD
:109E8E00901027EBF0A3EAF0A3E9F0901027E0FB87
:109E9E00A3E0FAA3E0F975820475830012151AFF88
:109EAE00EF70057EFF7FFF22901027E0FBA3E0FA04
:109EBE00A3E0F975820175830012151AFF7E002248
:1082BA0090102AEBF0A3EAF0A3E9F090102AE0FB71
:1082CA00A3E0FAA3E0F975820475830012151AFF78
:1082DA00EF605B90102AE0FBA3E0FAA3E0F9758255
:1082EA000375830012151AFF90102AE0FBA3E0FA27
:1082FA00A3E0F97582017583007401121569FEEE17
:10830A00B5071590102AE0FBA3E0FAA3E0F97582FD
:10831A0001758300E41215AE90102AE0FBA3E0FA7F
:0F832A00A3E0F975820475830074FF12156922B0
:107C5400900EF6EBF0A3EAF0A3E9F0900EF9ECF045
:107C6400A3EDF0900EF6E0FBA3E0FAA3E0F9121501
:107C740001FFEFC394465068900EFBE0FFC00790ED
:107C84000EF6E0FBA3E0FAA3E0F9E92406F9EA34EE
:107C940000FA900EF9E0FEA3E0FF7C007D46121589
:107CA400D0E92FF9EA3EFAC003C002C001900EF6F3
:107CB400E0FBA3E0FAA3E0F9121501FF7E00D00176
:107CC400D002D003E92FF9EA3EFAD007EF12159C4F
:107CD400900EF6E0FBA3E0FAA3E0F9740112154755
:017CE400227D
:1098DF009005FC7497F09005FD7497F07F0012A629
:1098EF0087AE02AF019007C2EEF0A3EFF07F011237
:1098FF00A687AE02AF01900856EEF0A3EFF09007E7
:10990F00C2E0FEA3E0FFAA06A9077B011274BE9076
:10991F000856E0FEA3E0FFAA06A9077B011274BE5A
:01992F002215
:102B5700900DA7EBF0A3EAF0A3E9F0900DAAECF033
:032B6700A3EDF0EB
:102B6A00900DB3E4F0900DB0E0FFEF701F7E057F8B
:102B7A00FE900DB5EEF0A3EFF07B017A0579FC909B
:102B8A000DB7EBF0A3EAF0A3E9F0801D7E077F29D9
:102B9A00900DB5EEF0A3EFF07B017A0579FD900D6B
:102BAA00B7EBF0A3EAF0A3E9F0900DAFE0FFEF6016
:102BBA000C900DAEE0FF900DB4EFF08014900DB7BD
:102BCA00E0FBA3E0FAA3E0F9121501FF900DB4EFC0
:102BDA00F0900DAAE0FEA3E0FFD3EF9446EE940036
:102BEA0040037F0122900DB5E0FEA3E0FF8F828EA5
:102BFA00837455F0900DB5E0FEA3E0FF8F828E83BB
:102C0A00A37433F0900DB17406F0900DADE0FF900F
:102C1A000DB1E0FE04F0900DB5E0FCA3E0FD8D825D
:102C2A008C83E5822EF582E43583F583EFF0900DEF
:102C3A00ADE0FFEFB45520900DB1E0FF04F0900D28
:102C4A00B5E0FCA3E0FD8D828C83E5822FF582E45A
:102C5A003583F58374AAF0900DACE0FF900DB1E0D6
:102C6A00FE04F0900DB5E0FCA3E0FD8D828C83E5B7
:102C7A00822EF582E43583F583EFF0900DACE0FF08
:102C8A00EFB45520900DB1E0FF04F0900DB5E0FCD3
:102C9A00A3E0FD8D828C83E5822FF582E43583F5EE
:102CAA008374AAF0900DB4E0FF900DB1E0FE04F039
:102CBA00900DB5E0FCA3E0FD8D828C83E5822EF5B4
:102CCA0082E43583F583EFF0900DB4E0FFEFB4555D
:102CDA0020900DB1E0FF04F0900DB5E0FCA3E0FDFB
:102CEA008D828C83E5822FF582E43583F58374AA7D
:102CFA00F0900DAFE0FFEF7024900DB7E0FBA3E07A
:102D0A00FAA3E0F97401121547FFEF7010900DB79E
:102D1A00E0FBA3E0FAA3E0F9749712159C900DB2B8
:102D2A00E4F0900DB2E0FF7E00900DAAE0FCA3E073
:102D3A00FDC3EF9DEE9C4003022DC3900DA7E0FB5F
:102D4A00A3E0FAA3E0F9900DB2E0FF8F8275830049
:102D5A0012151AFF900DB1E0FE04F0900DB5E0FCDB
:102D6A00A3E0FD8D828C83E5822EF582E43583F51E
:102D7A0083EFF0900DA7E0FBA3E0FAA3E0F9900D32
:102D8A00B2E0FF8F8275830012151AFFEFB4552047
:102D9A00900DB1E0FF04F0900DB5E0FCA3E0FD8DCD
:102DAA00828C83E5822FF582E43583F58374AAF059
:102DBA00900DB2E004F0022D2C900DB1E0FFEF244B
:102DCA00FAFFEF54FFFF900DB5E0FCA3E0FD8D8202
:102DDA008C83A3A3EFF0900DB5E0FEA3E0FF8F82F2
:102DEA008E83A3A3A3E4F0900DB1E0FF7E00EF244D
:102DFA00FAFFEE34FFFE7F00EEFF7E00900DB5E095
:102E0A00FCA3E0FD8D828C83E5822404F582E583B0
:102E1A003400F583EFF0900DB5E0FEA3E0FF8F825A
:102E2A008E83E5822405F582E5833400F583E4F098
:102E3A00900DB27406F0900DB1E0FF900DB2E0FE75
:102E4A00EEC39F502B900DB2E0FF900DB5E0FCA3AE
:102E5A00E0FD8D828C83E5822FF582E43583F5834C
:102E6A00E0FF900DB3E02FF0900DB2E004F080C6C1
:102E7A00900DB3E0FF900DB1E0FE04F0900DB5E0C7
:102E8A00FCA3E0FD8D828C83E5822EF582E43583F6
:102E9A00F583EFF0900DB5E0FEA3E0FFAA06A907BF
:102EAA007B01900DB1E0FD900DB0E0FFEF70047F63
:102EBA000080027F01900F41EFF0129C2CEF60031B
:052ECA007F02227F00E1
:012ECF0022E0
:0571E200901073EFF0B6
:1071E7007B017A0679971296DEEF64FF7003EE64EF
:1071F700FF60439007C2E0FEA3E0FFAA06A9077B52
:1072070001C003C002C0017B017A107974900E930C
:10721700EBF0A3EAF0A3E9F0900E96E4F0D001D0EA
:1072270002D003125BD3EFB4010C901074E0FF7D22
:1072370000121B1180BD7B017A0779C41296DEEF1D
:1072470064FF7003EE64FF6044900856E0FEA3E01D
:10725700FFAA06A9077B01C003C002C0017B017A10
:10726700107974900E93EBF0A3EAF0A3E9F0900E77
:10727700967401F0D001D002D003125BD3EFB401B2
:107287000C901074E0FF7D01121B1180BC901073ED
:05729700E0FF129FC59D
:01729C0022CF
:0A1B1100900E17EFF0900E18EDF0A3
:101B1B00900E18E0FFEF701E9007C2E0FEA3E0FFEF
:101B2B00900E1DEEF0A3EFF07E067F97900E1FEE4A
:101B3B00F0A3EFF0801C900856E0FEA3E0FF900EA0
:101B4B001DEEF0A3EFF07E077FC4900E1FEEF0A307
:101B5B00EFF0900E1FE0FEA3E0FFAA06A9077B01A2
:101B6B001296DE900E19EEF0A3EFF0900E19E0FE38
:101B7B00A3E0FFEF64FF7003EE64FF70030222D853
:101B8B00900E1FE0FEA3E0FFAA06A9077B01900EB3
:101B9B0019E0FCA3E0FD127F16AE02AF01900E1B05
:101BAB00EEF0A3EFF0900E1BE0FEA3E0FFEF4E7004
:101BBB00030222D8900E1DE0FEA3E0FF8F828E83DE
:101BCB00E5822404F582E5833400F583E0FFEF1210
:101BDB001A051BF9001C22011C62021D04031DD3F4
:101BEB00041F680821410A20780B000022D8900EB0
:101BFB0017E0FFEF645560030222D8900E1DE0FE44
:101C0B00A3E0FF8F828E83E5822404F582E5833483
:101C1B0000F5837401F022900E17E0FFEFB4331C34
:101C2B00900E1DE0FEA3E0FF8F828E83E5822404DD
:101C3B00F582E5833400F5837402F022900E1DE0EB
:101C4B00FEA3E0FF8F828E83E5822404F582E58379
:101C5B003400F583E4F022900E17E0FF900E1DE0A8
:101C6B00FCA3E0FD8D828C83E5822407F582E5835E
:101C7B003400F583EFF0900E17E0FFEFB455047FBF
:101C8B000180027F00900E1DE0FCA3E0FD8D828C95
:101C9B0083E582240CF582E5833400F583EFF09025
:101CAB000E1DE0FEA3E0FF8F828E83E5822404F5F8
:101CBB0082E5833400F5837403F0900E1DE0FEA3E0
:101CCB00E0FF8F828E83E5822406F582E583340064
:101CDB00F5837404F0900E1FE0FEA3E0FFAA06A9A3
:101CEB00077B01900E19E0FCA3E0FD900E17E0FFBF
:101CFB00900EFBEFF0127C5422900E17E0FFEF706A
:101D0B0035900E1DE0FEA3E0FF8F828E83E58224CB
:101D1B0006F582E5833400F583E0FF900E1DE0FCB1
:101D2B00A3E0FD8D828C83E5822404F582E5833468
:101D3B0000F583EFF022900E1DE0FEA3E0FF8F82F3
:101D4B008E83E582240CF582E5833400F583E0FF76
:101D5B00EF6040900E17E0FFEFB4331C900E1DE0C8
:101D6B00FEA3E0FF8F828E83E5822404F582E58358
:101D7B003400F5837402F022900E1DE0FEA3E0FF09
:101D8B008F828E83E5822404F582E5833400F5830C
:101D9B00E4F022900E1DE0FEA3E0FF8F828E83E520
:101DAB00822404F582E5833400F583E4F0900E1D64
:101DBB00E0FEA3E0FF8F828E83E582240CF582E5A3
:101DCB00833400F583E4F022900E17E0FFEFB45557
:101DDB00047F0180027F00900E1DE0FCA3E0FD8DCF
:101DEB00828C83E582240CF582E5833400F583EF46
:101DFB00F0900E1DE0FEA3E0FF8F828E83E5822420
:101E0B0007F582E5833400F583E0FF900E17E0FEC3
:101E1B007E00EE4FFF900E1DE0FCA3E0FD8D828C4B
:101E2B0083E5822407F582E5833400F583EFF09098
:101E3B000E1FE0FEA3E0FFAA06A9077B01900E1977
:101E4B00E0FCA3E0FD900E17E0FF900EFBEFF0120D
:101E5B007C54900E1DE0FEA3E0FF8F828E83E58203
:101E6B002407F582E5833400F583E0FFEFD394007C
:101E7B005003021F28900E1DE0FEA3E0FF8F828E01
:101E8B0083E5822407F582E5833400F583E0FFEFD9
:101E9B00D394464003021F28900E1DE0FEA3E0FFE3
:101EAB008F828E83E5822408F582E5833400F583E7
:101EBB00E4F0900E1DE0FEA3E0FF8F828E83E5829F
:101ECB002409F582E5833400F583E4F0900E1DE0E0
:101EDB00FEA3E0FF8F828E83E582240AF582E583E1
:101EEB003400F583E4F0900E1DE0FEA3E0FF8F823B
:101EFB008E83E5822406F582E5833400F58374082E
:101F0B00F0900E1DE0FEA3E0FF8F828E83E582240E
:101F1B0004F582E5833400F5837403F022900E17E9
:101F2B00E0FFEFB4551C900E1DE0FEA3E0FF8F8287
:101F3B008E83E5822404F582E5833400F5837401F6
:101F4B00F022900E1DE0FEA3E0FF8F828E83E582D0
:101F5B002404F582E5833400F583E4F022900E1718
:101F6B00E0FFEFB45536900E1DE0FEA3E0FF8F822D
:101F7B008E83E5822404F582E5833400F583740AAD
:101F8B00F0900E1DE0FEA3E0FF8F828E83E582248E
:101F9B0006F582E5833400F5837408F0900E1FE09C
:101FAB00FEA3E0FFAA06A9077B01900E19E0FCA394
:101FBB00E0FD900E17E0FF900EFBEFF0127C5490BB
:101FCB000E17E0FF900E1DE0FCA3E0FD8D828C83CD
:101FDB00E582240AF582E5833400F583E02FF09047
:101FEB000E1DE0FEA3E0FF8F828E83E5822409F5B0
:101FFB0082E5833400F583E004F0900E1DE0FEA330
:10200B00E0FF8F828E83E5822408F582E58334001E
:10201B00F583E004F0900E1DE0FEA3E0FF8F828EAF
:10202B0083E5822407F582E5833400F583E0FF9096
:10203B000E1DE0FCA3E0FD8D828C83E5822408F568
:10204B0082E5833400F583E0FEEEC39F500302224A
:10205B00D8900E1DE0FEA3E0FF8F828E83E58224D5
:10206B0004F582E5833400F583740BF022900E1D8A
:10207B00E0FEA3E0FF8F828E83E582240AF582E5E2
:10208B00833400F583E0FFEF54FFFF900E17E0FE63
:10209B00EF6E601D900E1DE0FEA3E0FF8F828E831E
:1020AB00E582240BF582E5833400F583E004F080B0
:1020BB006A900E1DE0FEA3E0FF8F828E83E58224E3
:1020CB0009F582E5833400F583E0FF900E1BE0FCFD
:1020DB00A3E0FD8D828C83EFF0900E1DE0FEA3E05C
:1020EB00FF8F828E83E5822409F582E5833400F528
:1020FB0083E0FF7E007F00EEFF7E00900E1BE0FC76
:10210B00A3E0FD8D828C83A3EFF0900E1FE0FEA366
:10211B00E0FFAA06A9077B01128521900E1DE0FEA8
:10212B00A3E0FF8F828E83E5822404F582E583345E
:10213B0000F583E4F022900E17E0FFEF64AA600332
:10214B00022289900E1DE0FEA3E0FF8F828E83E5B5
:10215B00822408F582E5833400F583E0FF7E00EFEF
:10216B002401FFEE3400FE900E1DE0FCA3E0FD8D7C
:10217B00828C83E5822407F582E5833400F583E0C6
:10218B00FD7C00C3EF9DEC6480F8EE648098401DED
:10219B00900E1DE0FEA3E0FF8F828E83E582240468
:1021AB00F582E5833400F583740BF08034900E1DBB
:1021BB00E0FEA3E0FF8F828E83E5822406F582E5A5
:1021CB00833400F583E0FF900E1DE0FCA3E0FD8D52
:1021DB00828C83E5822404F582E5833400F583EF5A
:1021EB00F0900E1DE0FEA3E0FF8F828E83E582242C
:1021FB0006F582E5833400F583E0FFEF6408604168
:10220B00900E1DE0FEA3E0FF8F828E83E5822406F5
:10221B00F582E5833400F583E0FFEF6406602290DE
:10222B000E1DE0FEA3E0FF8F828E83E5822406F570
:10223B0082E5833400F583E0FFEF6407600302223D
:10224B00C9900E1DE0FEA3E0FF8F828E83E58224F2
:10225B0008F582E5833400F583E004F0900E17E077
:10226B00FF900E1DE0FCA3E0FD8D828C83E58224A4
:10227B000AF582E5833400F583E02FF08040900E61
:10228B0017E0FFEFB4331D900E1DE0FEA3E0FF8FB0
:10229B00828E83E5822404F582E5833400F5837412
:1022AB0002F0801A900E1DE0FEA3E0FF8F828E835A
:1022BB00E5822404F582E5833400F583E4F0900E87
:0D22CB001DE0FEA3E0FF8F828E83E004F093
:0122D80022E3
:10A78D009010AEEFF09010AEE0FFEF70077B017A06
:0BA79D00067997227B017A0779C4221D
:1099D0007E007F627D007B017A0B79FC121A317E5A
:1099E000007F037D007B017A0B79F8121A317E0B20
:1099F0007FFD900C60EEF0A3EFF0900BF8E0FFEF2E
:109A000004FF7E00900C5EEEF0A3EFF0900BFBE401
:0D9A1000F0900C62E4F075840043D1012257
:107068009010AFEFF0900C62E0FFEFC3940A40215C
:10707800900C62E0FFEFC3941450169010AFE0FF3D
:10708800EFB4020D9010AFE4F0900C62741EF08023
:1070980011900C62E0FFEFC3940A5006900C62E076
:1070A80004F09010AFE0FFEF121A0570F2007104BF
:1070B8000170C30270D50300007121127960EF706E
:1070C800067F03129FC5227F02129FC522129ECE01
:1070D800EF6404600F7F02129FC57DBE7C007FFFB6
:1070E800127127227F03129FC5221280ABEF700610
:1070F8007F01129FC5227F00129FC522129ECEEFEC
:107108006404600F7F02129FC57DBE7C007FFF1262
:0F7118007127227F01129FC5227F02129FC5227D
:1079600012AB19EFB401037F0222900BF77404F0FD
:1079700012AB86AE02AF0190102DEEF0A3EFF090A7
:10798000102DE0FEA3E0FF8F828E837433F0901001
:107990002F7401F090102FE0FFEFD394305025901A
:1079A000102FE0FF90102DE0FCA3E0FD8D828C8372
:1079B000E5822FF582E43583F583E4F090102FE023
:1079C00004F080D07F0112A9557D017F0012A26EC4
:1079D00012A377C003C002C0017BFF7AA5791F9074
:1079E0000E8DEBF0A3EAF0A3E9F0D001D002D003B2
:0979F0007F317E001286F67F0053
:0179F900226B
:1080AB0012AB19EFB401037F0222900BF77404F0AB
:1080BB0012AB86AE02AF01901075EEF0A3EFF0900D
:1080CB001075E0FEA3E0FF8F828E837434F0901066
:1080DB0075E0FEA3E0FF8F828E83A3E4F090107512
:1080EB00E0FEA3E0FF8F828E83A3A3E4F07F011257
:1080FB00A9557D017F0012A26E7B017A0B79F8C026
:10810B0003C002C0017BFF7AA5791F900E8DEBF0A7
:10811B00A3EAF0A3E9F0D001D002D0037F037E00E5
:05812B001286F67F0042
:01813000222C
:10A51F00C0D075D0189010B0EFF09010B0E0FFEFF2
:10A52F007008900BF77401F08006900BF77402F02F
:03A53F00D0D02257
:109ECE00900BF7E0FFEFB404037F04227D007F00C8
:109EDE0012A26E7F0012A955900BFBE0FFEF75F0FA
:109EEE0031A424FDF582E4340BF583AF82AE83906A
:109EFE000C60EEF0A3EFF0120006900BF7E0FF22DD
:059D8B00901030EFF024
:109D900053E6FE900C60E0FEA3E0FF8F828E83C04E
:109DA00083C082901030E0FFD082D08375F002EF44
:109DB0001219F9E0FEA3E0FF901031EEF0A3EFF0EE
:0B9DC00043E601901031E0FEA3E0FF3D
:019DCB002275
:107E8C00900F47EFF0900F48EDF0900F49EBF0A3F7
:107E9C00EAF0A3E9F053E6FE900F47E0FF7E009076
:107EAC000F48E0FD7C00C3ED9FFFEC9EFEEF24012C
:107EBC00FFEE3400FEEF25E0FFEE33FEC006C007F8
:107ECC00900F47E0FF7E02EF8EF0A4FFAEF0900C17
:107EDC0060E0FCA3E0FDEF2DFFEE3CFEAA06A90737
:107EEC007B01C003C002C001900F49E0FBA3E0FA84
:107EFC00A3E0F9A801AC02AD03D001D002D003D0AD
:0A7F0C0007D0061214DB43E6012241
:10A14100900EFCEBF0A3EAF0A3E9F0900BF9E0FF2D
:10A15100900EFCE0FBA3E0FAA3E0F9EF12159C904E
:10A161000BFAE0FF900EFFE0FBA3E0FAA3E0F9EFAA
:04A1710012159C2205
:10A37700900BFBE0FFC374019FFF900BFBEFF09086
:10A387000BFBE0FF7E31EF8EF0A4FFAEF074FC2FE5
:08A39700F9740B3EFA7B012270
:0B868200900EB0EBF0A3EAF0A3E9F0CB
:10868D00900EB0E0FBA3E0FAA3E0F9900EB3EBF08F
:10869D00A3EAF0A3E9F0900EB3E0FBA3E0FAA3E0A8
:1086AD00F975820175830012151AFF900EB6EFF061
:1086BD00900EB3E0FBA3E0FAA3E0F9121501FF90D1
:1086CD000EB3E0FBA3E0FAA3E0F975820175830018
:1086DD00EF1215AE900EB6E0FF900EB3E0FBA3E0E7
:0886ED00FAA3E0F9EF12159C5D
:0186F5002262
:0B6F9600900EB7EBF0A3EAF0A3E9F0C7
:106FA100900EB7E0FBA3E0FAA3E0F9900EBAEBF084
:106FB100A3EAF0A3E9F0900EBAE0FBA3E0FAA3E0A4
:106FC100F975820375830012151AFF900EBDEFF05B
:106FD100900EBAE0FBA3E0FAA3E0F9121501FF90CD
:106FE1000EBAE0FBA3E0FAA3E0F975820375830012
:106FF100EF1215AE900EBDE0FF900EBAE0FBA3E0DC
:10700100FAA3E0F9EF12159C900EBAE0FBA3E0FAA7
:10701100A3E0F975820275830012151AFF900EBD67
:10702100EFF0900EBAE0FBA3E0FAA3E0F97582015C
:1070310075830012151AFF900EBAE0FBA3E0FAA3C4
:10704100E0F9758202758300EF1215AE900EBDE076
:10705100FF900EBAE0FBA3E0FAA3E0F97582017597
:067061008300EF1215AEE2
:017067002206
:0B6B2000900DE7EBF0A3EAF0A3E9F012
:106B2B00900DED74FF75F0FF12164DAFF0FEEF4EAA
:106B3B007003026C08900DEDE0FEA3E0FFEF25E083
:106B4B00FFEE33FE900DE7E0FBA3E0FAA3E0F98F35
:106B5B00828E8312168EFDACF0900DEDE0FEA3E05D
:106B6B00FFEF25E0FFEE33FE900DEAE0FBA3E0FA2A
:106B7B00A3E0F98F828E83EC8DF0121732900DED1E
:106B8B00E0FEA3E0FFEF25E0FFEE33FE900DEAE021
:106B9B00FBA3E0FAA3E0F9E92FF9EA3EFA900DEF37
:106BAB00EBF0A3EAF0A3E9F0900DEFE0FBA3E0FA22
:106BBB00A3E0F975820175830012151AFF900DF28F
:106BCB00EFF0900DEFE0FBA3E0FAA3E0F912150153
:106BDB00FF900DEFE0FBA3E0FAA3E0F975820175DE
:106BEB008300EF1215AE900DF2E0FF900DEFE0FB7E
:0D6BFB00A3E0FAA3E0F9EF12159C026B2B4A
:016C08002269
:0B523000900DF3EBF0A3EAF0A3E9F00F
:10523B00900DF974FF75F0FF12164DAFF0FEEF4EA7
:10524B00700302538C900DF9E0FEA3E0FFEF7802A0
:10525B00C333CE33CED8F9FF900DF3E0FBA3E0FAC6
:10526B00A3E0F98F828E831218C0C004C005C0065C
:10527B00C007900DF9E0FEA3E0FFEF7802C333CE39
:10528B0033CED8F9FF900DF6E0FBA3E0FAA3E0F9DB
:10529B008F828E83D007D006D005D00412190A90C6
:1052AB000DF9E0FEA3E0FFEF7802C333CE33CED887
:1052BB00F9FF900DF6E0FBA3E0FAA3E0F9E92FF973
:1052CB00EA3EFA900DFBEBF0A3EAF0A3E9F0900DA8
:1052DB00FBE0FBA3E0FAA3E0F975820375830012F0
:1052EB00151AFF900DFEEFF0900DFBE0FBA3E0FA1B
:1052FB00A3E0F9121501FF900DFBE0FBA3E0FAA36D
:10530B00E0F9758203758300EF1215AE900DFEE088
:10531B00FF900DFBE0FBA3E0FAA3E0F9EF12159C65
:10532B00900DFBE0FBA3E0FAA3E0F9758202758315
:10533B000012151AFF900DFEEFF0900DFBE0FBA392
:10534B00E0FAA3E0F975820175830012151AFF903C
:10535B000DFBE0FBA3E0FAA3E0F975820275830075
:10536B00EF1215AE900DFEE0FF900DFBE0FBA3E0FE
:10537B00FAA3E0F9758201758300EF1215AE0252A4
:01538B003BE6
:01538C0022FE
:10A6A500758400C2CAC2C953C8FE75CAFF75CBDB23
:0EA6B50053C9E775CCFF75CDFFC2ADD2CA22E6
:10A29C00758400C28C900E29E4F0A3E4F0900E219A
:10A2AC00E4F0A3E4F0900E27E4F0A3E4F04389017A
:0EA2BC00758AFF758CDB538EF4D2A9D28C22EA
:03000B00028B4025
:108B4000C0E0C083C082C0D075D008C28D900E2A0C
:108B5000E004F07006900E29E004F0900E28E00486
:108B6000F07006900E27E004F0900E27E0FEA3E0E0
:108B7000FFC3EF9464EE94004016900E27E4F0A338
:108B8000E4F0900E22E004F07006900E21E004F074
:0F8B9000758AFF758CDBD0D0D082D083D0E032D5
:10A827007584004389205389EF758DD0538EEF537C
:08A837008EF4D28E438840220A
:10A7DC0075840253C8FB75C90853C8FD53E7FB7554
:09A7EC00CBFF75CAB843C8042272
:109DCC0075840F758C67901077E4F0A3E4F0901015
:109DDC0077E0FEA3E0FFC3EE6480948150109010F6
:109DEC0078E004F07006901077E004F080E0439780
:109DFC0001538A7F43A54043E34043E280758400CE
:019E0C002233
:08A43F00900F02EEF0A3EFF014
:10A447007B017A0F7904900F02E0FCA3E0FD129CD8
:0DA45700757B017A0F7904129734EF60F4E1
:01A4640022D5
:109C7500900F4CEBF0A3EAF0A3E9F0900F4FECF056
:109C8500A3EDF012A6FF900F4CE0FBA3E0FAA3E0D2
:109C9500F9EE8FF0121713900F4FE0FEA3E0FF903F
:109CA5000F4CE0FBA3E0FAA3E0F97582027583008F
:079CB500EE8FF012173222BE
:109CBC00900F51EBF0A3EAF0A3E9F0900F54ECF005
:109CCC00A3EDF012A71C900F51E0FBA3E0FAA3E068
:109CDC00F9EE8FF0121713900F54E0FEA3E0FF90F3
:109CEC000F51E0FBA3E0FAA3E0F975820275830043
:079CFC00EE8FF01217322277
:0B973400900F56EBF0A3EAF0A3E9F061
:10973F0012A6FF900F59EEF0A3EFF0900F56E0FB3B
:10974F00A3E0FAA3E0F9121663FFAEF0900F59E011
:10975F00FCA3E0FD128C5D900F56E0FBA3E0FAA393
:10976F00E0F975820275830012168EFDACF0C3EF1F
:0A977F009DEE9C50037F00227F0145
:0197890022BD
:0B978A00900F5BEBF0A3EAF0A3E9F006
:1097950012A71C900F5EEEF0A3EFF0900F5BE0FBBD
:1097A500A3E0FAA3E0F9121663FFAEF0900F5EE0B6
:1097B500FCA3E0FD128C5D900F5BE0FBA3E0FAA338
:1097C500E0F975820275830012168EFDACF0C3EFC9
:0A97D5009DEE9C50037F00227F01EF
:0197DF002267
:10A6FF00C2A9900E29E0FEA3E0FF901079EEF0A31F
:0CA70F00EFF0D2A9901079E0FEA3E0FF6B
:01A71B00221B
:10A71C00C2A9900E21E0FEA3E0FF90107BEEF0A307
:0CA72C00EFF0D2A990107BE0FEA3E0FF4C
:01A7380022FE
:108C5D00900F90EEF0A3EFF0900F92ECF0A3EDF0EB
:108C6D00900F90E0FEA3E0FF900F92E0FCA3E0FDDB
:108C7D00D3ED9FEC9E4018900F90E0FEA3E0FF9087
:108C8D000F92E0FCA3E0FDC3ED9FFFEC9EFE229052
:108C9D000F90E0FEA3E0FFC3E49FFFE49EFE900F64
:0D8CAD0092E0FCA3E0FDEF2DFFEE3CFE2267
:10756D0075FFDE75FFAD129DCC129E4E12A10D1250
:10757D00A29C12A7F512A80E12AAF512AB0112AA1F
:10758D00E912A5651299D012A1DC12AACF12AADCBC
:10759D0012A4FC1298DF12322A12A39F12A75512C1
:1075AD00761B12A86D12813112A6E1123E9512883A
:1075BD004D125ABC12AB94D2AF7BFF7A7079681220
:1075CD0089A0901033EFF07BFF7A7179E21289A0D8
:1075DD00901034EFF07BFF7A6979421289A09010F8
:1075ED0035EFF0901033E0FF7D00129F4C9010347A
:1075FD00E0FF7D00129F4C901035E0FF7D00129F43
:0D760D004C7D017F1412538D12563F80FBFF
:01761A00224D
:0CAAF500C2A875840F43E34043E2042232
:0CAB0100C2AA75840F43E34043E2102217
:03000300020009EF
:0100090032C4
:0300130002000ADE
:01000A0032C3
:06AB8D009010B1E004F09D
:01AB9300229F
:03001B0002A965D2
:10A96500C0E0C083C08212AB8DD082D083D0E032EC
:03002B0002A975B2
:10A97500C0E0C083C08212AB8DD082D083D0E032DC
:0300430002A9858A
:10A98500C0E0C083C08212AB8DD082D083D0E032CC
:03004B0002A99572
:10A99500C0E0C083C08212AB8DD082D083D0E032BC
:0300530002A9A55A
:10A9A500C0E0C083C08212AB8DD082D083D0E032AC
:03005B0002A9B542
:10A9B500C0E0C083C08212AB8DD082D083D0E0329C
:0300630002A9C52A
:10A9C500C0E0C083C08212AB8DD082D083D0E0328C
:03006B0002A9D512
:10A9D500C0E0C083C08212AB8DD082D083D0E0327C
:0300830002A9E5EA
:10A9E500C0E0C083C08212AB8DD082D083D0E0326C
:03008B0002A9F5D2
:10A9F500C0E0C083C08212AB8DD082D083D0E0325C
:0300930002AA05B9
:10AA0500C0E0C083C08212AB8DD082D083D0E0324B
:03009B0002AA15A1
:10AA1500C0E0C083C08212AB8DD082D083D0E0323B
:0300AB0002AA2581
:10AA2500C0E0C083C08212AB8DD082D083D0E0322B
:10322A007F0012A78DAE02AF01900B83EEF0A3EFE1
:10323A00F07F0112A78DAE02AF01900AFEEEF0A355
:10324A00EFF0900B83E0FEA3E0FFAA06A9077B013B
:10325A00128930900AFEE0FEA3E0FFAA06A9077BC6
:10326A00011289307BFF7A9979811289A0900B82A9
:10327A00EFF07BFF7A9979301289A0900B85EFF0F5
:10328A00900B85E0FF7D00129F4C7BFF7A72799D3F
:10329A001289A0900B27EFF07BFF7A737954128979
:1032AA00A0900AEAEFF0900B27E0FF7D00129F4CF6
:1032BA00900AEAE0FF7D00129F4C7BFF7A8D791716
:1032CA001289A0900AD8EFF0900B19E4F0900B1233
:1032DA00E4F0900B37E4F0A3E4F0900B66E4F0A37B
:1032EA00E4F0900B237407F0A37408F07BFF7A785C
:1032FA0079BF1289A0900B42EFF07BFF7A8D79CBD0
:10330A001289A0900B63EFF07BFF7A8E79251289E0
:10331A00A0900AE9EFF07BFF7A8E797F1289A0905C
:10332A000B4CEFF07BFF7A8D79711289A0900AF726
:10333A00EFF07BFF7A9479791289A0900AF5EFF081
:10334A007BFF7A7A79931289A0900B7BEFF07BFF4F
:10335A007A9479D11289A0900B3EEFF07BFF7A8E96
:10336A0079D91289A0900AE4EFF07BFF7A8F79333A
:10337A001289A0900B76EFF07BFF7A7979FA12899D
:10338A00A0900B11EFF07BFF7A8779691289A090E0
:10339A000AECEFF07BFF7A8F798D1289A0900AF2FE
:1033AA00EFF07BFF7A8F79E71289A0900ADBEFF0C2
:1033BA007BFF7A9579D91289A0900B04EFF07BFFF5
:1033CA007A9579291289A0900B5FEFF07BFF7A7FBB
:1033DA00799D1289A0900B6EEFF07BFF7A9079416C
:1033EA001289A0900B07EFF07BFF7A90799B1289E4
:1033FA00A0900B22EFF07BFF7A7D79731289A0905F
:10340A000B32EFF07BFF7A7D79731289A0900B3231
:10341A00EFF07BFF7A9079F51289A0900B00EFF01C
:10342A007BFF7A91794F1289A0900B16EFF07BFF00
:10343A007A8379B61289A0900B29EFF07BFF7A8AFA
:10344A0079DD1289A0900B2CEFF07BFF7A66794F19
:10345A001289A0900B7CEFF07BFF7A9179A91289EF
:10346A00A0900B46EFF07BFF7A9679301289A090F4
:10347A000AFBEFF07BFF7A9679871289A0900AEB14
:10348A00EFF07BFF7A7779731289A0900B01EFF046
:10349A007BFF7A86790D1289A0900B5EEFF07BFF95
:1034AA007A9279031289A0900AF8EFF07BFF7A9258
:1034BA00795D1289A0900B49EFF07BFF7A7B792B1B
:1034CA001289A0900B28EFF07BFF7A807924128969
:1034DA00A0900AEFEFF07BFF7A8A79781289A090A0
:1034EA000B3DEFF07BFF7A6079161289A0900B2FC3
:1034FA00EFF07BFF7A9279B71289A0900B45EFF033
:10350A007BFF7A8B799F1289A0900B62EFF07BFF89
:10351A007A9579811289A0900B51EFF07BFF7A930B
:10352A0079111289A0900B75EFF07BFF7A9379C518
:10353A001289A0900B15EFF07BFF7A93796B1289B1
:10354A00A0900B0EEFF07BFF7A68794A1289A0905F
:10355A000AF6EFF0900AF6E0FF7D00129F4C7BFF1F
:0D356A007A94791F1289A0900B3FEFF02298
:05694200900F60EFF072
:10694700900B83E0FEA3E0FFAA06A9077B01129E36
:106957008E900F61EEF0A3EFF0900F61E0FEA3E0E1
:10696700FFEF64FF7003EE64FF6047900B83E0FE68
:10697700A3E0FFAA06A9077B01900F61E0FCA3E053
:10698700FD127F16AE02AF01900F63EEF0A3EFF09A
:10699700900F63E0FEA3E0FFAA06A9077B011200A0
:1069A700AE900B83E0FEA3E0FFAA06A9077B0112C6
:1069B70082BA900AFEE0FEA3E0FFAA06A9077B01C0
:1069C700129E8E900F61EEF0A3EFF0900F61E0FE44
:1069D700A3E0FFEF64FF7003EE64FF6047900AFED9
:1069E700E0FEA3E0FFAA06A9077B01900F61E0FC88
:1069F700A3E0FD127F16AE02AF01900F63EEF0A386
:106A0700EFF0900F63E0FEA3E0FFAA06A9077B0162
:106A1700124DA2900AFEE0FEA3E0FFAA06A9077B9B
:0C6A2700011282BA900F60E0FF129FC5C0
:016A33002240
:10644600900EBEEBF0A3EAF0A3E9F0900EC1EDF0DA
:10645600900EBEE0FBA3E0FAA3E0F9121501FF7E61
:1064660000900EC2EEF0A3EFF0900EC2E0FCA3E0A7
:10647600FD900EBEE0FBA3E0FAA3E0F9758201757C
:10648600830012151AFF7E00EF7F00FEEC4EFEED34
:106496004FFF900EC2EEF0A3EFF0900EC1E0FFEFBB
:1064A600B404047F0180027F00900EC4EFF0900ECA
:1064B600BEE0FBA3E0FAA3E0F9E92405F9EA34001B
:1064C600FAC003C002C001900EC2E0FEA3E0FFEFD7
:1064D60024FDFDEE34FFFC900EBEE0FBA3E0FAA324
:1064E600E0F975820375830012151AFF900DACEF63
:1064F600F0900EBEE0FBA3E0FAA3E0F97582027508
:10650600830012151AFF900DADEFF0900EBEE0FB62
:10651600A3E0FAA3E0F975820475830012151AFF49
:10652600900DAEEFF0900DAF7401F0900EC4E0FF49
:10653600900DB0EFF0D001D002D003122B57EF60D0
:04654600030264B434
:01654A00222E
:0B00AE00900E2BEBF0A3EAF0A3E9F0AA
:1000B900900E2BE0FBA3E0FAA3E0F97582027583A9
:1000C9000012151AFF900E30EFF0900E2BE0FBA3F3
:1000D900E0FAA3E0F975820375830012151AFF90FF
:1000E9000E31EFF0900E2BE0FBA3E0FAA3E0F975D7
:1000F900820575830012151AFF900E2EEFF0900EEF
:100109002BE0FBA3E0FAA3E0F975820475830012E2
:10011900151AFF900E2FEFF0900E31E0FFEFB404A7
:1001290014900E2BE0FBA3E0FAA3E0F9900E31E066
:10013900FD12644622900B127401F07B017A0A7950
:10014900E57D707C17129C75900E2EE0FFEF121A58
:100159000501E80109926409E1650AC7660973673F
:1001690004BD6803F16A044F6B049E6C06C46D07F5
:10017900136E08946F08F170095471020776034CE5
:1001890077030E7804FB7C054A7D06A57E036B7F09
:10019900038F8003B3810B24840C738804DC8A0CDD
:1001A900C48B032D8D0E788E0EE48F0B62900BF9A4
:1001B900910B439208B3930D159508D2960D8F971D
:1001C9000265980AE6990F03A10821A20F22A3103C
:1001D90007A40B05A50845A603D2FA000010AD90A7
:1001E9000E30E0FF900AF3EFF0900E2FE0FF900A37
:0E01F900F4EFF0900B82E0FF7D00129F4C228D
:10020700900E2BE0FBA3E0FAA3E0F9E92406F9EA54
:100217003400FAAE02AF01900E32EEF0A3EFF09089
:100227000E30E0FF900B80EFF0900E2FE0FF900B69
:1002370081EFF0900E32E0FEA3E0FF8F828E83E025
:10024700FF900E32E0FCA3E0FD8D828C83A3E0FDDE
:0E02570012538D900B63E0FF7D00129F4C222E
:10026500900E2BE0FBA3E0FAA3E0F9E92406F9EAF6
:100275003400FAAE02AF01900E32EEF0A3EFF0902B
:100285000E30E0FF900B17EFF0900E2FE0FF900B74
:1002950018EFF0900E32E0FEA3E0FFAA06A9077B57
:1002A50001128682900E32E0FEA3E0FFEF2402FFEA
:1002B500EE3400FEAA06A9077B01128682900E3253
:1002C500E0FEA3E0FF8F828E83E0FEA3E0FF900EA9
:1002D50032E0FCA3E0FD8D828C83A3A3E0FCA3E0C8
:1002E500FD900E32E0FAA3E0FB8B828A83E582243F
:1002F50004F582E5833400F583E0FB1287DB900A81
:09030500F7E0FF7D00129F4C227D
:10030E00900E30E0FF900B13EFF0900E2FE0FF9069
:10031E000B14EFF0900AF5E0FF7D00129F4C229037
:10032E000E30E0FF900AEDEFF0900E2FE0FF900AF6
:10033E00EEEFF0900B7BE0FF7D00129F4C22900EB3
:10034E0030E0FF900B64EFF0900E2FE0FF900B6506
:10035E00EFF0900B3EE0FF7D00129F4C22900E308E
:10036E00E0FF900B02EFF0900E2FE0FF900B03EFEB
:10037E00F07F01128CBA900AE4E0FF7D00129F4CD0
:10038E0022900E30E0FF900ADEEFF0900E2FE0FF8D
:10039E00900ADFEFF07F00128CBA900B76E0FF7DB3
:1003AE0000129F4C22900E30E0FF900B35EFF09034
:1003BE000E2FE0FF900B36EFF0900B11E0FF7D005B
:1003CE00129F4C22900E30E0FF900B0AEFF0900E31
:1003DE002FE0FF900B0BEFF0900AECE0FF7D001288
:0303EE009F4C22FF
:1003F100900E2BE0FBA3E0FAA3E0F9E92406F9EA69
:100401003400FAAE02AF01900E32EEF0A3EFF0909D
:100411000E30E0FF900B0FEFF0900E2FE0FF900BEE
:1004210010EFF0900E32E0FEA3E0FF8F828E83E0AA
:10043100FF900E32E0FCA3E0FD8D828C83A3E0FDF2
:0E04410012A60B900AF2E0FF7D00129F4C22E3
:10044F00900E2BE0FBA3E0FAA3E0F9E92406F9EA0A
:10045F003400FAAE02AF01900E32EEF0A3EFF0903F
:10046F000E30E0FF900AFCEFF0900E2FE0FF900AA5
:10047F00FDEFF0900E32E0FEA3E0FF8F828E83E05F
:0F048F00FF12A3C7900ADBE0FF7D00129F4C22F3
:10049E00900E30E0FF900B30EFF0900E2FE0FF90BB
:1004AE000B31EFF0900B04E0FF7D00129F4C229079
:1004BE000E30E0FF900B79EFF0900E2FE0FF900BD7
:1004CE007AEFF0900B5FE0FF7D00129F4C22900EB2
:1004DE0030E0FF900AD9EFF0900E2FE0FF900ADA8D
:0D04EE00EFF0900B6EE0FF7D00129F4C229E
:1004FB00900E2BE0FBA3E0FAA3E0F9E92406F9EA5E
:10050B003400FAAE02AF01900E32EEF0A3EFF09092
:10051B000E30E0FF900B33EFF0900E2FE0FF900BBF
:10052B0034EFF0900E32E0FEA3E0FF8F828E83E07B
:0F053B00FF12A4B1900B07E0FF7D00129F4C222E
:10054A00900E2BE0FBA3E0FAA3E0F9E92406F9EA0E
:10055A003400FAAE02AF01900E32EEF0A3EFF09043
:10056A000E30E0FF900B40EFF0900E2FE0FF900B63
:10057A0041EFF0900E32E0FEA3E0FFEF2406FFEE1B
:10058A003400FEAA06A9077B01C003C002C001907D
:10059A000E32E0FEA3E0FFEF2406FFEE3400FEAACF
:1005AA0006A9077B01900DEAEBF0A3EAF0A3E9F0B4
:1005BA00900DEDE4F0A3740FF0D001D002D0031235
:1005CA006B20900E32E0FEA3E0FFEF240CFFEE3426
:1005DA0000FEAA06A9077B01C003C002C001900E53
:1005EA0032E0FEA3E0FFEF2418FFEE3400FEAA0675
:1005FA00A9077B01900DDBEBF0A3EAF0A3E9F090E9
:10060A000E32E0FEA3E0FF8F828E83E5822406F598
:10061A0082E5833400F583E0FEA3E0FF900DDEEE71
:10062A00F0A3EFF0900E32E0FEA3E0FF8F828E83FC
:10063A00E5822408F582E5833400F583E0FEA3E031
:10064A00FF900DE0EEF0A3EFF0900E32E0FEA3E093
:10065A00FF8F828E83E582240AF582E5833400F5D2
:10066A0083E0FEA3E0FF900DE2EEF0A3EFF0900E20
:10067A0032E0FEA3E0FFAA06A9077B01900DE4EB96
:10068A00F0A3EAF0A3E9F0D001D002D0031259A4F2
:0B069A00900B22E0FF7D00129F4C221D
:1006A500900E30E0FF900B5CEFF0900E2FE0FF9086
:0F06B5000B5DEFF0900B32E0FF7D00129F4C22A7
:1006C400900E2BE0FBA3E0FAA3E0F9E92406F9EA93
:1006D4003400FAAE02AF01900E32EEF0A3EFF090C8
:1006E4000E30E0FF900B2AEFF0900E2FE0FF900BFE
:1006F4002BEFF0900E32E0FEA3E0FF8F828E83E0BA
:0F070400FF12A175900B00E0FF7D00129F4C22A9
:10071300900E2BE0FBA3E0FAA3E0F9E92406F9EA43
:100723003400FAAE02AF01900E32EEF0A3EFF09078
:100733000E30E0FF900B3BEFF0900E2FE0FF900B9D
:100743003CEFF0900E32E0FEA3E0FFAA06A9077B80
:1007530001128682900E32E0FEA3E0FFEF2402FF37
:10076300EE3400FEAA06A9077B01128682900E32A0
:10077300E0FEA3E0FFEF2406FFEE3400FEAA06A985
:10078300077B01128682900E32E0FEA3E0FF8F8288
:100793008E83E0FEA3E0FFC006C007900E32E0FEAA
:1007A300A3E0FF8F828E83A3A3E0FCA3E0FD900E62
:1007B30032E0FEA3E0FF8F828E83E5822404F5827C
:1007C300E5833400F583E0FB900E32E0FEA3E0FF07
:1007D3008F828E83E5822405F582E5833400F583D9
:1007E300E0FF900F31EFF0D007D006129BE2900E9E
:1007F30032E0FEA3E0FF8F828E83E5822406F5823A
:10080300E5833400F583E0FEA3E0FF900B23EEF0D5
:0E081300A3EFF0900B16E0FF7D00129F4C2229
:10082100900E30E0FF900B05EFF0900E2FE0FF905F
:100831000B06EFF07F0012AA75900AE9E0FF7D0038
:04084100129F4C2294
:10084500900E2BE0FBA3E0FAA3E0F9E92406F9EA10
:100855003400FAAE02AF01900E32EEF0A3EFF09045
:100865000E32E0FEA3E0FF8F828E83E0FF12AA35F1
:10087500900E30E0FF900B71EFF0900E2FE0FF909F
:0F0885000B72EFF0900B4CE0FF7D00129F4C22A6
:10089400900E30E0FF900B47EFF0900E2FE0FF90AA
:1008A4000B48EFF0900B29E0FF7D00129F4C229043
:1008B4000E30E0FF900B4AEFF0900E2FE0FF900B0C
:1008C4004BEFF0900B2CE0FF7D00129F4C22900E1A
:1008D40030E0FF900AF0EFF0900E2FE0FF900AF165
:0D08E400EFF0900B7CE0FF7D00129F4C2296
:1008F100900E2BE0FBA3E0FAA3E0F9E92406F9EA64
:100901003400FAAE02AF01900E32EEF0A3EFF09098
:100911000E30E0FF900B6CEFF0900E2FE0FF900B8C
:100921006DEFF0900E32E0FEA3E0FFAA06A9077B6F
:1009310001128682900E32E0FEA3E0FF8F828E8349
:10094100E0FEA3E0FF129FFD900B46E0FF7D001249
:030951009F4C2296
:10095400900E30E0FF900B25EFF0900E2FE0FF900B
:100964000B26EFF0900AFBE0FF7D00129F4C2290D3
:100974000E30E0FF900B08EFF0900E2FE0FF900B8D
:0E09840009EFF0900AEBE0FF7D00129F4C227D
:10099200900E2BE0FBA3E0FAA3E0F9E92406F9EAC2
:1009A2003400FAAE02AF01900E32EEF0A3EFF090F7
:1009B2000E32E0FEA3E0FF8F828E83E0FF129B4C9B
:1009C200900E30E0FF900B1EEFF0900E2FE0FF90A4
:0F09D2000B1FEFF0900AF8E0FF7D00129F4C2200
:1009E100900E2BE0FBA3E0FAA3E0F9E92406F9EA73
:1009F1003400FAAE02AF01900E32EEF0A3EFF090A8
:100A01000E32E0FEA3E0FFAA06A9077B011286824F
:100A1100900E32E0FEA3E0FFEF2403FFEE3400FE70
:100A2100AA06A9077B01128682900E32E0FEA3E09E
:100A3100FFEF2405FFEE3400FEAA06A9077B011291
:100A41008682900E32E0FEA3E0FF8F828E83E0FE6D
:100A5100A3E0FFC006C007900E32E0FEA3E0FF8FC7
:100A6100828E83A3A3E0FD900E32E0FEA3E0FF8F10
:100A7100828E83A3A3A3E0FAA3E0FB900E32E0FEF3
:100A8100A3E0FF8F828E83E5822405F582E583341E
:100A910000F583E0FEA3E0FF900EDFEEF0A3EFF0A0
:100AA100D007D006125F07900E30E0FF900B6FEF7A
:100AB100F0900E2FE0FF900B70EFF0900B49E0FFEC
:060AC1007D00129F4C2293
:100AC700900E30E0FF900B43EFF0900E2FE0FF9079
:100AD7000B44EFF0900B28E0FF7D00129F4C229013
:100AE7000E30E0FF900B0CEFF0900E2FE0FF900B15
:100AF7000DEFF0900AEFE0FF7D00129F4C22900E61
:100B070030E0FF900B60EFF0900E2FE0FF900B614D
:100B1700EFF0900B3DE0FF7D00129F4C22900E30CE
:100B2700E0FF900B2DEFF0900E2FE0FF900B2EEFD4
:100B3700F0900B01E0FF7D00129F4C22900E30E0F9
:100B4700FF900B77EFF0900E2FE0FF900B78EFF010
:0B0B5700900B5EE0FF7D00129F4C221F
:100B6200900E2BE0FBA3E0FAA3E0F9E92406F9EAF0
:100B72003400FAAE02AF01900E32EEF0A3EFF09025
:100B82000E34E4F0900E30E0FF900B52EFF0900E36
:100B92002FE0FF900B53EFF0900E32E0FEA3E0FF48
:100BA2008F828E83E0FF900B54EFF0900E32E0FEC6
:100BB200A3E0FF8F828E83A3E0FF900B55EFF090AE
:100BC2000B567401F0900B2FE0FF12A739900E34F0
:100BD200EFF0900E34E0FFEF640270030210AD906C
:100BE2000E34E0FFEF640370030210AD900B2FE0B0
:070BF200FF7D00129F4C2261
:100BF900900E2BE0FBA3E0FAA3E0F9E92406F9EA59
:100C09003400FAAE02AF01900E32EEF0A3EFF0908D
:100C19000E30E0FF900B6AEFF0900E2FE0FF900B83
:100C29006BEFF0900E32E0FEA3E0FFEF2401FFEE40
:100C39003400FEAA06A9077B01128682900E32E0D3
:100C4900FEA3E0FF8F828E83E0FF900E32E0FCA3CB
:100C5900E0FD8D828C83A3E0FCA3E0FD12A0D79078
:0A0C69000B45E0FF7D00129F4C22B6
:100C7300900E3274C8F0900E337488F0900E34E402
:100C8300F07B017A0E7932900E30E0FF900DACEFDD
:100C9300F0900DAD7403F0900E2FE0FF900DAEEFCA
:100CA300F0900DAF7401F0900DB0E4F07D037C0083
:100CB300122B57EF70CB7F0F7E0012A43F75EF020C
:010CC300220E
:100CC400900E2BE0FBA3E0FAA3E0F9E92406F9EA8D
:100CD4003400FAAE02AF01900E32EEF0A3EFF090C2
:100CE4000E30E0FF900AF9EFF0900E2FE0FF900A2B
:100CF400FAEFF0900E32E0FEA3E0FF8F828E83E0E5
:100D0400FF900B19EFF0900AD8E0FF7D00129F4C82
:010D140022BC
:100D1500900E2BE0FBA3E0FAA3E0F9E92406F9EA3B
:100D25003400FAAE02AF01900E32EEF0A3EFF09070
:100D35000E30E0FF900ADCEFF0900E2FE0FF900AF6
:100D4500DDEFF0900E32E0FEA3E0FFEF2401FFEEB1
:100D55003400FEAA06A9077B01128682900E32E0B6
:100D6500FEA3E0FF8F828E83E0FF900E32E0FCA3AE
:100D7500E0FD8D828C83A3E0FCA3E0FD12A2F89038
:0A0D85000B75E0FF7D00129F4C2269
:100D8F00900E2BE0FBA3E0FAA3E0F9E92406F9EAC1
:100D9F003400FAAE02AF01900E32EEF0A3EFF090F6
:100DAF000E30E0FF900B39EFF0900E2FE0FF900B1D
:100DBF003AEFF0900E32E0FEA3E0FFEF2401FFEEDA
:100DCF003400FEAA06A9077B01128682900E32E03C
:100DDF00FEA3E0FFEF2403FFEE3400FEAA06A907EF
:100DEF007B01128682900E32E0FEA3E0FFEF240516
:100DFF00FFEE3400FEAA06A9077B01128682900E31
:100E0F0032E0FEA3E0FF8F828E83E0FFC007900EDB
:100E1F0032E0FEA3E0FF8F828E83A3E0FCA3E0FD10
:100E2F00900E32E0FEA3E0FF8F828E83A3A3A3E098
:100E3F00FAA3E0FB900E32E0FEA3E0FF8F828E83D9
:100E4F00E5822405F582E5833400F583E0FEA3E017
:100E5F00FF900ED8EEF0A3EFF0D00712740A900BAC
:090E6F0015E0FF7D00129F4C22EA
:100E7800900E2BE0FBA3E0FAA3E0F9E92406F9EAD7
:100E88003400FAAE02AF01900E32EEF0A3EFF0900C
:100E98000E34E4F0900E30E0FF900B7DEFF0900EF2
:100EA8002FE0FF900B7EEFF0900E32E0FEA3E0FF04
:100EB800AA06A9077B01126A34900E34EFF0900E4F
:100EC80034E0FFEF60047F0080027F01900B7FEF2A
:0C0ED800F0900B62E0FF7D00129F4C22A6
:100EE400900E30E0FF900B73EFF0900E2FE0FF9028
:100EF4000B74EFF0900B51E0FF7D00129F4C229099
:100F04000E30E0FF900B68EFF0900E2FE0FF900B97
:0E0F140069EFF0900B42E0FF7D00129F4C222F
:100F2200900E2BE0FBA3E0FAA3E0F9E92406F9EA2C
:100F32003400FAAE02AF01900E32EEF0A3EFF09061
:100F42000E32E0FEA3E0FFEF2403FFEE3400FEAA20
:100F520006A9077B01128682900E32E0FEA3E0FF13
:100F6200EF2405FFEE3400FEAA06A9077B011286D4
:100F720082900E30E0FF900B20EFF0900E2FE0FFFA
:100F8200900B21EFF0900E32E0FEA3E0FF8F828EF5
:100F920083E0FFC007900E32E0FEA3E0FF8F828E57
:100FA20083A3E0FD900E32E0FEA3E0FF8F828E83EA
:100FB200A3A3E0FB900E32E0FEA3E0FF8F828E83BC
:100FC200A3A3A3E0FEA3E0FF900E82EEF0A3EFF056
:100FD200900E32E0FEA3E0FF8F828E83E58224052D
:100FE200F582E5833400F583E0FEA3E0FF900E84F2
:100FF200EEF0A3EFF0D007126DDA900B0EE0FF7D5A
:0510020000129F4C22CA
:10100700900E2BE0FBA3E0FAA3E0F9E92406F9EA46
:101017003400FAAE02AF01900E32EEF0A3EFF0907B
:101027000E30E0FF900B4DEFF0900E2FE0FF900B8E
:101037004EEFF0900E32E0FEA3E0FF8F828E83E04A
:10104700FF900B4FEFF0900E32E0FEA3E0FF8F8290
:101057008E83A3E0FF900B50EFF0900B50E0FFEF73
:10106700121A05107701108302108F03000010A3D6
:10107700900B4FE0FD7F0A12538D8020900B4FE0BD
:10108700FD7F0D12538D8014900B4FE0FD7F0A12E8
:10109700538D900B4FE0FD7F0D12538D900B3FE06A
:0610A700FF7D00129F4CCA
:0110AD002220
:0B4DA200900E5BEBF0A3EAF0A3E9F039
:104DAD00900E5BE0FBA3E0FAA3E0F9758202758338
:104DBD000012151AFF900E60EFF0900E5BE0FBA352
:104DCD00E0FAA3E0F975820375830012151AFF90BE
:104DDD000E61EFF0900E5BE0FBA3E0FAA3E0F97536
:104DED00820575830012151AFF900E5EEFF0900E7E
:104DFD005BE0FBA3E0FAA3E0F97582047583001272
:104E0D00151AFF900E5FEFF0900E61E0FFEFB40109
:104E1D0014900E5BE0FBA3E0FAA3E0F9900E61E0C5
:104E2D00FD12644622900E5EE0FFEF121A054E9BB6
:0B4E3D00CA4EE6CC4E48D800004F558E
:104E4800900E5BE0FBA3E0FAA3E0F9E92406F9EA97
:104E58003400FAAE02AF01900E62EEF0A3EFF090CC
:104E68000E62E0FEA3E0FFEF2401FFEE3400FEAA8D
:104E780006A9077B01128682900E62E0FEA3E0FF7E
:104E88008F828E83A3E0FEA3E0FF900B37EEF0A3A2
:034E9800EFF02216
:104E9B00900E5BE0FBA3E0FAA3E0F9E92406F9EA44
:104EAB003400FAAE02AF01900E62EEF0A3EFF09079
:104EBB000E62E0FEA3E0FF8F828E83E0FF900E6216
:104ECB00E0FCA3E0FD8D828C83E5822404F582E572
:0B4EDB00833400F583E0FD12A62A22BC
:104EE600900E5BE0FBA3E0FAA3E0F9E92406F9EAF9
:104EF6003400FAAE02AF01900E62EEF0A3EFF0902E
:104F06000E62E0FEA3E0FFAA06A9077B01C003C06C
:104F160002C001900E62E0FEA3E0FFAA06A9077B8D
:104F260001900DEAEBF0A3EAF0A3E9F0900DEDE4B1
:104F3600F0A37406F0D001D002D003126B20900EBD
:0F4F460062E0FEA3E0FFAA06A9077B011297E035
:014F55002239
:0599810090107DEFF0E5
:1099860090107E7401F07B017A10797E900AF3E0E4
:10999600FF900DACEFF0900DAD7403F0900AF4E07B
:1099A600FF900DAEEFF0900DAF7401F0900DB0E4A6
:1099B600F07D017C00122B57EF70067FFF129F8906
:0999C6002290107DE0FF129FC504
:0199CF002275
:058D1700900F94EFF045
:108D1C00900F9574C8F0900F96748BF0900F97E4A9
:108D2C00F07B017A0F7995900AF9E0FF900DACEF8A
:108D3C00F0900DAD7403F0900AFAE0FF900DAEEFD9
:108D4C00F0900DAF7401F0900DB0E4F07D037C0059
:108D5C00122B57EF70067FFF129F8922900F94E021
:048D6C00FF129FC58E
:018D700022E0
:058D7100900F98EFF0E7
:108D7600900F9974C8F0900F9A7498F0900F9BE436
:108D8600F07B017A0F7999900B17E0FF900DACEF0D
:108D9600F0900DAD7403F0900B18E0FF900DAEEF60
:108DA600F0900DAF7401F0900DB0E4F07D037C00FF
:108DB600122B57EF70067FFF129F8922900F98E0C3
:048DC600FF129FC534
:018DCA002286
:058DCB00900F9CEFF089
:108DD000900F9D74C8F0900F9E7476F0900F9FE4F2
:108DE000F07B017A0F799D900B80E0FF900DACEF46
:108DF000F0900DAD7403F0900B81E0FF900DAEEF9D
:108E0000F0900DAF7401F0900DB0E4F07D037C00A4
:108E1000122B57EF70067FFF129F8922900F9CE064
:048E2000FF129FC5D9
:018E2400222B
:058E2500900FA0EFF02A
:108E2A00900FA174C8F0900FA274A2F0900FA3E45F
:108E3A00F07B017A0F79A1900B05E0FF900DACEF62
:108E4A00F0900DAD7403F0900B06E0FF900DAEEFBD
:108E5A00F0900DAF7401F0900DB0E4F07D037C004A
:108E6A00122B57EF70067FFF129F8922900FA0E006
:048E7A00FF129FC57F
:018E7E0022D1
:058E7F00900FA4EFF0CC
:108E8400900FA574C8F0900FA674A6F0900FA7E4F5
:108E9400F07B017A0F79A5900B71E0FF900DACEF98
:108EA400F0900DAD7403F0900B72E0FF900DAEEFF7
:108EB400F0900DAF7401F0900DB0E4F07D037C00F0
:108EC400122B57EF70067FFF129F8922900FA4E0A8
:048ED400FF129FC525
:018ED8002277
:05947900900F65EFF00B
:10947E00900F6674DAF07B017A0F79671262317B96
:10948E00017A0F7966900B13E0FF900DACEFF09020
:10949E000DAD7403F0900B14E0FF900DAEEFF09055
:1094AE000DAF7401F0900DB0E4F07D047C00122B32
:1094BE0057EF70067FFF129F8922900F65E0FF1213
:0294CE009FC538
:0194D0002279
:057A9300900CC5EFF0AE
:107A9800900CC674EFF07B017A0C79C77D087F00E3
:107AA80012823A7B017A0C79D77D177F00127E8C7F
:107AB8007B017A0C79C7C003C002C0017B017A0C34
:107AC80079C7900DEAEBF0A3EAF0A3E9F0900DED89
:107AD800E4F0A37420F0D001D002D003126B207B15
:107AE800017A0C79C6900AEDE0FF900DACEFF090AA
:107AF8000DAD7403F0900AEEE0FF900DAEEFF0903C
:107B08000DAF7401F0900DB0E4F07D417C00122BB4
:107B180057EF70067FFF129F8922900CC5E0FF1275
:027B28009FC5F7
:017B2A002238
:0594D100900E98EFF081
:1094D600900E9974D9F07B017A0E799A12A06B7B63
:1094E600017A0E7999900B64E0FF900DACEFF09045
:1094F6000DAD7403F0900B65E0FF900DAEEFF090AC
:109506000DAF7401F0900DB0E4F07D077C00122BD6
:1095160057EF70067FFF129F8922900E98E0FF1288
:029526009FC5DF
:019528002220
:058ED900900FA8EFF06E
:108EDE00900FA974C8F0900FAA747FF0900FABE4B6
:108EEE00F07B017A0F79A9900B02E0FF900DACEFA9
:108EFE00F0900DAD7403F0900B03E0FF900DAEEF0C
:108F0E00F0900DAF7401F0900DB0E4F07D037C0095
:108F1E00122B57EF70067FFF129F8922900FA8E049
:048F2E00FF129FC5CA
:018F3200221C
:058F3300900FACEFF00F
:108F3800900FAD74C8F0900FAE7480F0900FAFE44E
:108F4800F07B017A0F79AD900ADEE0FF900DACEF6F
:108F5800F0900DAD7403F0900ADFE0FF900DAEEFD6
:108F6800F0900DAF7401F0900DB0E4F07D037C003B
:108F7800122B57EF70067FFF129F8922900FACE0EB
:048F8800FF129FC570
:018F8C0022C2
:0579FA00900E64EFF0A7
:1079FF00900E6674DFF0900E65E4F0900E65E0FF78
:107A0F00EFC39403503A900E65E0FF12A856900E04
:107A1F0065E0FE74672EF582E4340EF583EFF09087
:107A2F000E65E0FF12A83F900E65E0FE746A2EF51A
:107A3F0082E4340EF583EFF0900E65E004F080BB26
:107A4F007B017A0E7966900B35E0FF900DACEFF06D
:107A5F00900DAD7403F0900B36E0FF900DAEEFF08C
:107A6F00900DAF7401F0900DB0E4F07D077C001223
:107A7F002B57EF70067FFF129F8922900E64E0FF55
:037A8F00129FC57E
:017A920022D1
:05876900900F08EFF085
:10876E00900F09E4F0900F0A74FBF07F06124BEBAA
:10877E00900F0BEFF07F07124BEB900F0CEFF07F8B
:10878E0005124BEB900F0DEFF07B017A0F790A90EB
:10879E000B0AE0FF900DACEFF0900DAD7403F0906E
:1087AE000B0BE0FF900DAEEFF0900DAF7401F0905B
:1087BE000DB0E4F07D047C00122B57EF70067FFFA6
:0C87CE00129F8922900F08E0FF129FC547
:0187DA00227C
:058F8D00900FB0EFF0B1
:108F9200900FB174C8F0900FB2746AF0900FB3E4FE
:108FA200F07B017A0F79B1900B0FE0FF900DACEFDF
:108FB200F0900DAD7403F0900B10E0FF900DAEEF4A
:108FC200F0900DAF7401F0900DB0E4F07D037C00E1
:108FD200122B57EF70067FFF129F8922900FB0E08D
:048FE200FF129FC516
:018FE6002268
:058FE700900FB4EFF053
:108FEC00900FB574C8F0900FB6746BF0900FB7E497
:108FFC00F07B017A0F79B5900AFCE0FF900DACEF95
:10900C00F0900DAD7403F0900AFDE0FF900DAEEF03
:10901C00F0900DAF7401F0900DB0E4F07D037C0086
:10902C00122B57EF70067FFF129F8922900FB4E02E
:04903C00FF129FC5BB
:01904000220D
:0595D900901036EFF0D8
:1095DE0090103774CFF012ABAD901038EFF07B01D6
:1095EE007A107937900B30E0FF900DACEFF0900DC4
:1095FE00AD7403F0900B31E0FF900DAEEFF0900DD7
:10960E00AF7401F0900DB0E4F07D027C00122B5788
:10961E00EF70067FFF129F8922901036E0FF129F97
:01962E00C576
:01962F002218
:05952900900DFFEFF0C2
:10952E00900E0074EBF07B017A0E7901129AB67BE5
:10953E00017A0E7900900B79E0FF900DACEFF09070
:10954E000DAD7403F0900B7AE0FF900DAEEFF0903E
:10955E000DAF7401F0900DB0E4F07D0B7C00122B7A
:10956E0057EF70067FFF129F8922900DFFE0FF12CA
:02957E009FC587
:0195800022C8
:057F9D00900D07EFF05C
:107FA200900D0874ECF07B017A0D79091254E67B8E
:107FB200017A0D7909C003C002C0017B017A0D79F3
:107FC20009900DF6EBF0A3EAF0A3E9F0900DF9E4C5
:107FD200F0A3740AF0D001D002D0031252307B0118
:107FE2007A0D7908900AD9E0FF900DACEFF0900D70
:107FF200AD7403F0900ADAE0FF900DAEEFF0900D51
:10800200AF7401F0900DB0E4F07D297C00122B5783
:10801200EF70067FFF129F8922900D07E0FF129FEB
:01802200C598
:01802300223A
:05904100900FB8EFF0F4
:10904600900FB974C8F0900FBA747CF0900FBBE41F
:10905600F07B017A0F79B9900B33E0FF900DACEFFE
:10906600F0900DAD7403F0900B34E0FF900DAEEF71
:10907600F0900DAF7401F0900DB0E4F07D037C002C
:10908600122B57EF70067FFF129F8922900FB8E0D0
:04909600FF129FC561
:01909A0022B3
:05909B00900FBCEFF096
:1090A000900FBD74C8F0900FBE747DF0900FBFE4B8
:1090B000F07B017A0F79BD900B40E0FF900DACEF93
:1090C000F0900DAD7403F0900B41E0FF900DAEEF0A
:1090D000F0900DAF7401F0900DB0E4F07D037C00D2
:1090E000122B57EF70067FFF129F8922900FBCE072
:0490F000FF129FC507
:0190F4002259
:057D7300900DBAEFF0D5
:107D7800900DBB74DDF012ABB9900DBCEFF07B0138
:107D88007A0D79BD129835782876007828E6FFEFC5
:107D9800C39406501F7828E6FF7E02EF8EF0A4FFFA
:107DA800AEF074BD2FF9740D3EFA7B01128682780D
:107DB800280680D77B017A0D79BB900B5CE0FF9099
:107DC8000DACEFF0900DAD7403F0900B5DE0FF90FB
:107DD8000DAEEFF0900DAF7401F0900DB0E4F07DB2
:107DE8000E7C00122B57EF70067FFF129F8922909E
:077DF8000DBAE0FF129FC568
:017DFF002261
:0590F500900FC0EFF038
:1090FA00900FC174C8F0900FC2746DF0900FC3E462
:10910A00F07B017A0F79C1900B2AE0FF900DACEF4A
:10911A00F0900DAD7403F0900B2BE0FF900DAEEFC5
:10912A00F0900DAF7401F0900DB0E4F07D037C0077
:10913A00122B57EF70067FFF129F8922900FC0E013
:04914A00FF129FC5AC
:01914E0022FE
:05914F00900FC4EFF0D9
:10915400900FC574C8F0900FC6746EF0900FC7E4FA
:10916400F07B017A0F79C5900B3BE0FF900DACEFDB
:10917400F0900DAD7403F0900B3CE0FF900DAEEF5A
:10918400F0900DAF7401F0900DB0E4F07D037C001D
:10919400122B57EF70067FFF129F8922900FC4E0B5
:0491A400FF129FC552
:0191A80022A4
:0583B600900F0EEFF036
:1083BB00900F13E4F0900F0F74D0F012ABA1900F4D
:1083CB0010EFF012A465900F11EFF012A5AA900F09
:1083DB0012EFF0900F12E0FFEF6006900F13E00426
:1083EB00F07B017A0F790F900B47E0FF900DACEF0C
:1083FB00F0900DAD7403F0900B48E0FF900DAEEFD5
:10840B00F0900DAF7401F0900DB0E4F07D047C00A2
:10841B00122B57EF70067FFF129F8922900F0EE0F1
:04842B00FF129FC5D8
:01842F00222A
:058ADD00900FC8EFF04E
:108AE200900FC974F2F012AA85900FCAEEF0A3EFAC
:108AF200F07B017A0F79CA1286827B017A0F79C9DB
:108B0200900B4AE0FF900DACEFF0900DAD7403F0C6
:108B1200900B4BE0FF900DAEEFF0900DAF7401F0B3
:108B2200900DB0E4F07D037C00122B57EF70067FAE
:0D8B3200FF129F8922900FC8E0FF129FC51F
:018B3F002213
:05664F00900D66EFF064
:10665400900D6774F4F012AA85900D68EEF0A3EF24
:10666400F07B017A0D796812868212AA94900D6AE1
:10667400EEF0A3EFF07B017A0D796A12868212ABF9
:1066840041900D6CEEF0A3EFF07B017A0D796C1262
:10669400868212AB4A900D6EEEF0A3EFF07B017A86
:1066A4000D796E12868212AB53900D70EEF0A3EF4B
:1066B400F07B017A0D797012868212AB5C900D72B8
:1066C400EEF0A3EFF07B017A0D797212868212AAA2
:1066D400A3900D7412197E7B017A0D7974126F9652
:1066E40012AAB2900D7812197E7B017A0D79781274
:1066F4006F9612AB65900D7CEEF0A3EFF07B017A00
:106704000D797C1286827B017A0D7967900AF0E01C
:10671400FF900DACEFF0900DAD7403F0900AF1E032
:10672400FF900DAEEFF0900DAF7401F0900DB0E45A
:10673400F07D177C00122B57EF70067FFF129F89A4
:0967440022900D66E0FF129FC5D2
:01674D002229
:0591A900900FCCEFF077
:1091AE00900FCD74C8F0900FCE7470F0900FCFE486
:1091BE00F07B017A0F79CD900B6CE0FF900DACEF48
:1091CE00F0900DAD7403F0900B6DE0FF900DAEEFCF
:1091DE00F0900DAF7401F0900DB0E4F07D037C00C3
:1091EE00122B57EF70067FFF129F8922900FCCE053
:0491FE00FF129FC5F8
:019202002249
:05963000901039EFF07D
:1096350090103A74D3F012ABB390103BEFF07B016E
:109645007A10793A900B25E0FF900DACEFF0900D74
:10965500AD7403F0900B26E0FF900DAEEFF0900D8A
:10966500AF7401F0900DB0E4F07D027C00122B5731
:10967500EF70067FFF129F8922901039E0FF129F3D
:01968500C51F
:0196860022C1
:0596870090103CEFF023
:10968C0090103D74E8F012ABCB90103EEFF07B01E4
:10969C007A10793D900B08E0FF900DACEFF0900D37
:1096AC00AD7403F0900B09E0FF900DAEEFF0900D50
:1096BC00AF7401F0900DB0E4F07D027C00122B57DA
:1096CC00EF70067FFF129F892290103CE0FF129FE3
:0196DC00C5C8
:0196DD00226A
:05777300900EA0EFF0F4
:10777800900EA174E5F0900EA2741EF0900EA37402
:107788001DF07D007F0A128BFEEF5401FF900EA4BE
:10779800EFF07D007F0A128BFEEF7803CEC313CE85
:1077A80013D8F9FF900EA5EFF07D017F0A128BFE2A
:1077B800EF5401FF900EA6EFF07D017F0A128BFEB9
:1077C800EF7803CEC313CE13D8F9FF900EA7EFF0CE
:1077D8007B017A0E79A1900B2DE0FF900DACEFF0B4
:1077E800900DAD7403F0900B2EE0FF900DAEEFF00E
:1077F800900DAF7401F0900DB0E4F07D077C00129D
:107808002B57EF70067FFF129F8922900EA0E0FF92
:03781800129FC5F7
:01781B00224A
:05860D00900FD0EFF01A
:10861200900FD174F1F07B017A0F79D2C003C002BE
:10862200C0017B017A0F79D3900EFFEBF0A3EAF041
:10863200A3E9F0D001D002D00312A1417B017A0F4D
:1086420079D1900B77E0FF900DACEFF0900DAD7407
:1086520003F0900B78E0FF900DAEEFF0900DAF7449
:1086620001F0900DB0E4F07D037C00122B57EF7007
:0F867200067FFF129F8922900FD0E0FF129FC555
:0186810022D6
:05920300900FD4EFF014
:10920800900FD574C8F0900FD67464F0900FD7E41F
:10921800F07B017A0F79D5900B1EE0FF900DACEF33
:10922800F0900DAD7403F0900B1FE0FF900DAEEFC2
:10923800F0900DAF7401F0900DB0E4F07D037C0068
:10924800122B57EF70067FFF129F8922900FD4E0F0
:04925800FF129FC59D
:01925C0022EF
:05925D00900FD8EFF0B6
:10926200900FD974C8F0900FDA7465F0900FDBE4B8
:10927200F07B017A0F79D9900B6FE0FF900DACEF84
:10928200F0900DAD7403F0900B70E0FF900DAEEF17
:10929200F0900DAF7401F0900DB0E4F07D037C000E
:1092A200122B57EF70067FFF129F8922900FD8E092
:0492B200FF129FC543
:0192B6002295
:057B2B00900EC5EFF013
:107B30007B017A0E79C7C003C002C0017B017A0EB7
:107B400079C9900E79EBF0A3EAF0A3E9F07B017A12
:107B50000E79CB900E7CEBF0A3EAF0A3E9F0D00114
:107B6000D002D00312988A900EC674C9F07B017AB5
:107B70000E79C71286827B017A0E79C91286827BC2
:107B8000017A0E79C6900B43E0FF900DACEFF090B8
:107B90000DAD7403F0900B44E0FF900DAEEFF0904C
:107BA0000DAF7401F0900DB0E4F07D067C00122B57
:107BB00057EF70067FFF129F8922900EC5E0FF12DB
:027BC0009FC55F
:017BC20022A0
:05802400900F14EFF0C5
:108029007B017A0F7916C003C002C0017B017A0F68
:108039007918900F23EBF0A3EAF0A3E9F0D001D06F
:1080490002D003129F0E900F1574F5F07B017A0F81
:1080590079161286827B017A0F79181286827B0142
:108069007A0F7915900B0CE0FF900DACEFF0900DA5
:10807900AD7403F0900B0DE0FF900DAEEFF0900D95
:10808900AF7401F0900DB0E4F07D057C00122B5720
:10809900EF70067FFF129F8922900F14E0FF129F55
:0180A900C511
:0180AA0022B3
:058A7800900FDCEFF09F
:108A7D00900FDD74FCF07F14129D8B900FDEEEF0E5
:108A8D00A3EFF07B017A0F79DE1286827B017A0FDC
:108A9D0079DD900B60E0FF900DACEFF0900DAD74B3
:108AAD0003F0900B61E0FF900DAEEFF0900DAF7401
:108ABD0001F0900DB0E4F07D037C00122B57EF70A8
:0F8ACD00067FFF129F8922900FDCE0FF129FC5EA
:018ADC002277
:05601600900FE0EFF027
:10601B00900FE0E0FFEF121A05603400607401602E
:10602B00A70260C8030000611E900B56E0FFEFB49F
:10603B000112900B577401F0900B56E4F07D007F2A
:10604B001012538D900B54E0FFEF6017900B55E03F
:10605B00FF128430EF70067F01129FC5227F001262
:10606B009FC5227F03129FC52212A771EFB40306AF
:10607B007F01129FC522900B57E0FFEF600B7F0350
:10608B00129FC5900B57E4F0227B017A0B79587D58
:10609B00647C00129C757F02129FC5227B017A0BD8
:1060AB007958129734EF7009900B56E0FFEFB4015B
:0D60BB00067F00129FC5227F02129FC522A2
:1060C800900B54E0FD7F1012538D900FE174C8F0CF
:1060D800900FE27490F0900FE3E4F07B017A0F796F
:1060E800E1900B52E0FF900DACEFF0900DAD740312
:1060F800F0900B53E0FF900DAEEFF0900DAF7401F0
:10610800F0900DB0E4F07D037C00122B57EF600B8C
:066118007F03129FC52267
:05611E007F00129FC587
:016123002259
:05729D009010B2EFF0BB
:1072A2009010B2E0FFEF121A0572B50072E201000F
:1072B2000073537F19129D03EF70087F1A129D030A
:1072C200EF60177B017A0B791A900B23E0FCA3E0A5
:1072D200FD129CBC7F01129FC5227F00129FC52216
:1072E2007F19129D03EF70087F1A129D03EF605CF5
:1072F200900B66E0FEA3E0FF900B37E0FCA3E0FDFD
:10730200ED6F7002EC6E702E7B017A0B791A129778
:107312008AEF601C7D007F1A12538D7D007F191247
:10732200538D7F0112AA7512AB767F00129FC52280
:107332007F01129FC522900B37E0FEA3E0FF900B66
:1073420066EEF0A3EFF07F00129FC5227F00129F2E
:01735200C575
:017353002217
:0573540090103FEFF076
:1073590090103FE0FFEF121A05736F00738B0173F2
:10736900F202000074097F19129D03EF70087F1A59
:10737900129D03EF60067F01129FC5227F00129FB5
:10738900C5227F19129D03EF70087F1A129D03EF22
:1073990060519010407499F09010417480F07B0115
:1073A9007A107940900DAC7404F0900DAD7403F02F
:1073B900900DAEE4F0900DAFE4F0900DB07401F0D3
:1073C9007D027C00122B57EF70137B017A0A79E05A
:1073D9007D647C00129C757F02129FC5227F011279
:1073E9009FC5227F00129FC5227B017A0A79E0128C
:1073F9009734EF60067F00129FC5227F02129FC556
:017409002260
:0592B700900FE4EFF050
:1092BC00900FE574C8F0900FE67491F0900FE7E40E
:1092CC00F07B017A0F79E5900B6AE0FF900DACEF23
:1092DC00F0900DAD7403F0900B6BE0FF900DAEEFC2
:1092EC00F0900DAF7401F0900DB0E4F07D037C00B4
:1092FC00122B57EF70067FFF129F8922900FE4E02C
:04930C00FF129FC5E8
:01931000223A
:058B9F00900FE8EFF06B
:108BA400900FE974C8F0900FEA748EF0900B7FE098
:108BB400FF900FEBEFF07B017A0F79E9900B7DE0EA
:108BC400FF900DACEFF0900DAD7403F0900B7EE0D0
:108BD400FF900DAEEFF0900DAF7401F0900DB0E486
:108BE400F07D037C00122B57EF70067FFF129F89E4
:098BF40022900FE8E0FF129FC57A
:018BFD002255
:05958100900F1AEFF04D
:10958600900F1B74F0F07B017A0F791C129B017B04
:10959600017A0F791B900B73E0FF900DACEFF09002
:1095A6000DAD7403F0900B74E0FF900DAEEFF090EC
:1095B6000DAF7401F0900DB0E4F07D057C00122B28
:1095C60057EF70067FFF129F8922900F1AE0FF1255
:0295D6009FC52F
:0195D8002270
:05931100900FECEFF0ED
:10931600900FED74C8F0900FEE7495F0900FEFE497
:10932600F07B017A0F79ED900ADCE0FF900DACEF4F
:10933600F0900DAD7403F0900ADDE0FF900DAEEFF6
:10934600F0900DAF7401F0900DB0E4F07D037C0059
:10935600122B57EF70067FFF129F8922900FECE0C9
:04936600FF129FC58E
:01936A0022E0
:05936B00900FF0EFF08F
:10937000900FF174C8F0900FF274A3F0900FF3E423
:10938000F07B017A0F79F1900B20E0FF900DACEFAC
:10939000F0900DAD7403F0900B21E0FF900DAEEF57
:1093A000F0900DAF7401F0900DB0E4F07D037C00FF
:1093B000122B57EF70067FFF129F8922900FF0E06B
:0493C000FF129FC534
:0193C4002286
:0593C500900FF4EFF031
:1093CA00900FF574C8F0900FF67497F0900FF7E4C9
:1093DA00F07B017A0F79F5900B39E0FF900DACEF35
:1093EA00F0900DAD7403F0900B3AE0FF900DAEEFE4
:1093FA00F0900DAF7401F0900DB0E4F07D037C00A5
:10940A00122B57EF70067FFF129F8922900FF4E00C
:04941A00FF129FC5D9
:01941E00222B
:05941F00900FF8EFF0D2
:10942400900FF974C8F0900FFA74A4F0900FFBE455
:10943400F07B017A0F79F9900B4DE0FF900DACEFC2
:10944400F0900DAD7403F0900B4EE0FF900DAEEF75
:10945400F0900DAF7401F0900DB0E4F07D037C004A
:10946400122B57EF70067FFF129F8922900FF8E0AE
:04947400FF129FC57F
:0194780022D1
:109930009010B3EFF09010B3E4F07F00129FC57D5C
:10994000F47C017FFF127127900B19E0FFEF70305C
:10995000900B12E0FFEF7001227B017A0A79E51289
:109960009734EF601B7D007F1A12538D7D007F19A5
:1099700012538D7F0012A1757F0012A4B112AB7635
:0199800022C4
:0578BF00900D4CEFF0FC
:1078C400900D4D74F7F07B017A0D794E7D037F00A6
:1078D40012823A7B017A0D79567D001261247B0174
:1078E4007A0D795E7D011261247B017A0D794EC097
:1078F40003C002C0017B017A0D794E900DEAEBF0D2
:10790400A3EAF0A3E9F0900DEDE4F0A3740CF0D039
:1079140001D002D003126B207B017A0D794D900BBC
:1079240068E0FF900DACEFF0900DAD7403F0900B98
:1079340069E0FF900DAEEFF0900DAF7401F0900D83
:10794400B0E4F07D197C00122B57EF70067FFF1214
:0B7954009F8922900D4CE0FF129FC5A0
:01795F002205
:10A7F5007584015388FC4388015388F343880443D7
:09A80500888075840F43E1802274
:10A80E007584025388FC4388015388F343880443BC
:09A81E00888075840F43E20122D9
