:10873200900C70EBF0A3EAF0A3E9F0900C70E0FB70
:10874200A3E0FAA3E0F9758205758300121C86FF87
:018752002204
:10579000900C73EBF0A3EAF0A3E9F0900C73E0FB3C
:1057A000A3E0FAA3E0F9758203758300743B121D30
:1057B0001A900C73E0FBA3E0FAA3E0F9758201757F
:1057C0008300E4121D1A900C73E0FBA3E0FAA3E03F
:1057D000F9758202758300E4121D1A900C73E0FBC8
:1057E000A3E0FAA3E0F9758205758300E4121D1A9F
:1057F000900C73E0FBA3E0FAA3E0F97582047583D3
:1058000000E4121D1A900C73E0FBA3E0FAA3E0F988
:10581000E4121D08900C73E0FBA3E0FAA3E0F97515
:10582000820A758300E4121D1A900C73E0FBA3E05A
:0F583000FAA3E0F975820B758300E4121D1A22AA
:10454400C0D075D010900C76EBF0A3EAF0A3E9F09C
:10455400900C76E0FBA3E0FAA3E0F9758202758380
:1045640000121C86FF900C76E0FBA3E0FAA3E0F9AE
:10457400758201758300121C86FEEEB5171D900C22
:1045840076E0FBA3E0FAA3E0F975820575830012D7
:104594001C86FFEF60057F03024648900C76E0FB23
:1045A400A3E0FAA3E0F9758201758300121C86FF6B
:1045B4007E00900C76E0FBA3E0FAA3E0F9E9240D79
:1045C400F9EA3400FAE92FF9EA3EFAE599121D08EE
:1045D400900C76E0FBA3E0FAA3E0F97582037583FF
:1045E40000121C86FF900C76E0FBA3E0FAA3E0F92E
:1045F400758201758300121C86FEEEC39F501890CD
:104604000C76E0FBA3E0FAA3E0F975820175830060
:104614007401121CD58015900C76E0FBA3E0FAA37C
:10462400E0F9758201758300E4121D1A900C76E09E
:10463400FBA3E0FAA3E0F975820575830074011207
:074644001CD57F01D0D0223C
:0B473A00900AF5EBF0A3EAF0A3E9F011
:10474500900AF5E0FBA3E0FAA3E0F975820575830D
:1047550000121C86FFEF70067F0322024822A2ACDE
:104765009204C2AC900AF5E0FBA3E0FAA3E0F97568
:104775008202758300121C86FF7E00900AF5E0FB1D
:10478500A3E0FAA3E0F9E9240DF9EA3400FAE92FE8
:10479500F9EA3EFA121C6DFF900AF8E0FBA3E0FA75
:1047A500A3E0F9EF121D08900AF5E0FBA3E0FAA3D8
:1047B500E0F9758203758300121C86FF900AF5E007
:1047C500FBA3E0FAA3E0F9758202758300121C864B
:1047D500FEEEC39F5018900AF5E0FBA3E0FAA3E0B4
:1047E500F97582027583007401121CD58015900A33
:1047F500F5E0FBA3E0FAA3E0F9758202758300E416
:10480500121D1A900AF5E0FBA3E0FAA3E0F9758200
:0F4815000575830074FF121CD5A20492AC7F01BD
:014824002271
:106D1B00900C79EBF0A3EAF0A3E9F0900C79E0FB8F
:106D2B00A3E0FAA3E0F97582037583007403121DC7
:106D3B001A900C79E0FBA3E0FAA3E0F975820275D7
:106D4B008300E4121D1A900C79E0FBA3E0FAA3E098
:106D5B00F9758201758300E4121D1A900C79E0FB22
:106D6B00A3E0FAA3E0F9758204758300E4121D1AFF
:106D7B00900C79E0FBA3E0FAA3E0F9E4121D0822E2
:10740D00900C7CEBF0A3EAF0A3E9F0900C7CE0FB90
:10741D00A3E0FAA3E0F9758203758300121C86FFC1
:10742D00900C7CE0FBA3E0FAA3E0F9758204758370
:10743D0000121C86FEEEB507057EFF7FFF22900C25
:10744D007CE0FBA3E0FAA3E0F975820275830012DC
:06745D001C86FF7E0022E8
:10625800900B25EBF0A3EAF0A3E9F0900B28ECF003
:10626800A3EDF0900B25E0FBA3E0FAA3E0F975821B
:1062780003758300121C86FF7E00EF24FFFFEE34B7
:10628800FFFE900B28E0FCA3E0FDD3ED9FEE6480B9
:10629800F8EC6480985010900B28E0FEA3E0FFC350
:1062A800EE6480948050077B007A00790022900B7E
:1062B80025E0FBA3E0FAA3E0F9E92406F9EA3400B3
:1062C800FA900B28E0FEA3E0FF7C007D3C121D3C09
:0762D800E92FF9EA3EFA226A
:106B4900900C7FEBF0A3EAF0A3E9F0900C7FE0FB57
:106B5900A3E0FAA3E0F9758203758300121C86FF8E
:106B6900900C7FE0FBA3E0FAA3E0F975820275833C
:106B7900007401121CD5FEEEB50715900C7FE0FBE1
:106B8900A3E0FAA3E0F9758202758300E4121D1AE5
:106B9900900C7FE0FBA3E0FAA3E0F9E4121D089052
:106BA9000C7FE0FBA3E0FAA3E0F97582047583008A
:066BB9007401121CD5223C
:10857000900C82EBF0A3EAF0A3E9F0900C82E0FB10
:10858000A3E0FAA3E0F9758204758300121C86FF4C
:038590007E002248
:107D6800900C85EBF0A3EAF0A3E9F0900C85E0FB1A
:107D7800A3E0FAA3E0F9758204758300121C86FF5C
:107D8800EF70057EFF7FFF22900C85E0FBA3E0FAF1
:107D9800A3E0F9758201758300121C86FF7E00221C
:1066F700900C88EBF0A3EAF0A3E9F0900C88E0FB9C
:10670700A3E0FAA3E0F9758204758300121C86FFE3
:10671700EF605B900C88E0FBA3E0FAA3E0F97582D9
:1067270003758300121C86FF900C88E0FBA3E0FA38
:10673700A3E0F97582017583007401121CD5FEEE82
:10674700B50715900C88E0FBA3E0FAA3E0F9758282
:1067570001758300E4121D1A900C88E0FBA3E0FA90
:0F676700A3E0F975820475830074FF121CD5221C
:105DE500900AFBEBF0A3EAF0A3E9F0900AFEECF0D1
:105DF500A3EDF0900AFBE0FBA3E0FAA3E0F9121C87
:105E05006DFFEFC3943C5068900B00E0FFC0079016
:105E15000AFBE0FBA3E0FAA3E0F9E92406F9EA347A
:105E250000FA900AFEE0FEA3E0FF7C007D3C121D17
:105E35003CE92FF9EA3EFAC003C002C001900AFB13
:105E4500E0FBA3E0FAA3E0F9121C6DFF7E00D00190
:105E5500D002D003E92FF9EA3EFAD007EF121D0868
:105E6500900AFBE0FBA3E0FAA3E0F97401121CB36E
:015E7500220A
:05000600C201C200224E
:057DA800900BE8EFF074
:107DAD00900BE97409F0900BE8E0FFEF600D900B7C
:107DBD00EAE4F0A37402F0D200800C900BEAE4F038
:107DCD00A3E4F0C200C2017B017A0B79E9124F1ACC
:097DDD00EFB402037F02227F00D3
:017DE600227A
:057C2100900BECEFF0F8
:107C2600900BED7409F0900BECE0FFEF6010900BF9
:107C3600EEE4F0A37403F0300010D201800C900B38
:107C4600EEE4F0A3E4F0C201C2007B017A0B79ED09
:0C7C5600124F1AEFB402037F02227F00DD
:017C620022FF
:0880C400900B2AEEF0A3EFF08F
:1080CC00900B2C740AF0900B2AE0FEA3E0FF900BAF
:1080DC002DEEF0A3EFF07B017A0B792C124F1AEFF7
:0880EC00B402037F02227F00B1
:0180F4002269
:068A1100A201E433FF2284
:0E8950007F41126140EF70037F00227F022200
:0E895E001287D4EF640360037F00227F0122A2
:0B7EDC00900B2FEBF0A3EAF0A3E9F0FD
:107EE7007B017A0B7932127135EF6403601E900BB8
:107EF70032E0FEA3E0FF7E00900B2FE0FBA3E0FA49
:0E7F0700A3E0F9EE8FF0121E327F00227F0100
:017F15002249
:0C8995009003EDE4F09003EE74FFF0227C
:0B6ED600900BF0EBF0A3EAF0A3E9F052
:106EE1009003EDE0FFEFC3943740037FFF2290034F
:106EF100EDE0FF900BF3EFF0900BF0E0FBA3E0FA75
:106F0100A3E0F9900BF3E0FF75F009EFA424FEF57F
:106F110082E5F03401F583EBF0A3EAF0A3E9F09008
:106F21000BF3E0FF75F009EFA42402F582E5F034DC
:106F310002F583E4F09003EDE004F0900BF3E0FF41
:016F4100222D
:107E2600900CD6EFF0900CD7EDF0900CD6E0FF75E5
:107E3600F009EFA42402F582E5F03402F58374021A
:107E4600F0900CD7E0FF900CD6E0FE75F009EEA49A
:0D7E56002401F582E5F03402F583EFF022FF
:107EA000900CF4EFF0900CF4E0FFEFB4FF179003A8
:107EB000EEE0FF75F009EFA42402F582E5F034024C
:107EC000F583E4F022900CF4E0FF75F009EFA424B0
:0C7ED00002F582E5F03402F583E4F022B4
:107F8900900CF5EFF0900CF5E0FF9003EEE0FE7534
:107F9900F009EEA42401F582E5F03402F583EFF04F
:107FA9009003EEE0FF75F009EFA42402F582E5F0F5
:087FB9003402F5837402F0228A
:10556C00900C8BEFF0900C8CECF0A3EDF0900C8B7E
:10557C00E0FFEF64FF70529003EEE0FF75F009EF6F
:10558C00A42402F582E5F03402F5837403F0900351
:10559C00EEE0FF7E09EF8EF0A4FFAEF074032FF95E
:1055AC0074023EFA7B01C003C002C001900C8CE077
:1055BC00FEA3E0FF7C007D0A121D4EAC06AD07D0A9
:1055CC0001D002D0031279F622900C8BE0FF75F01B
:1055DC0009EFA42402F582E5F03402F5837403F09C
:1055EC00900C8BE0FF7E09EF8EF0A4FFAEF07403FD
:1055FC002FF974023EFA7B01C003C002C001900C6B
:10560C008CE0FEA3E0FF7C007D0A121D4EAC06ADC3
:0B561C0007D001D002D0031279F62263
:1042FE00900CF6E4F09003EDE0FF900CF6E0FEEE8D
:10430E00C39F400302442B9003EDE0FF9003EEE0C9
:10431E0004FEF0EEB507059003EEE4F09003EEE038
:10432E00FF75F009EFA42402F582E5F03402F5835F
:10433E00E0FFEF640270519003EEE0FF75F009EFBD
:10434E00A42402F582E5F03402F5837401F09003A3
:10435E00EEE0FF75F009EFA42401F582E5F03402DA
:10436E00F583E0FF9003EEE0FE75F009EEA424FE67
:10437E00F582E5F03401F583E0FBA3E0FAA3E0F962
:10438E0089828A83122025229003EEE0FF75F009C0
:10439E00EFA42402F582E5F03402F583E0FFEF642A
:1043AE000370719003EEE0FF7E09EF8EF0A4FFAE76
:1043BE00F074032FF974023EFA7B01127463EF64FA
:1043CE000170519003EEE0FF75F009EFA42402F5A1
:1043DE0082E5F03402F5837401F09003EEE0FF7590
:1043EE00F009EFA42401F582E5F03402F583E0FF35
:1043FE009003EEE0FE75F009EEA424FEF582E5F0E2
:10440E003401F583E0FBA3E0FAA3E0F989828A8305
:0D441E0012202522900CF6E004F00243036A
:01442B00226E
:10881000900CF7EFF0900CF7E0FF75F009EFA4244F
:0C88200002F582E5F03402F583E0FF224F
:10882C00900CF8EFF0900CF8E0FF75F009EFA42431
:0C883C0001F582E5F03402F583E0FF2234
:0B6C3500900ACBEBF0A3EAF0A3E9F01B
:106C4000900ACBE0FBA3E0FAA3E0F9900ACEEBF0C8
:106C5000A3EAF0A3E9F0900ACEE0FBA3E0FAA3E0F8
:106C6000F9758201758300121C86FF900AD1EFF03E
:106C7000900ACEE0FBA3E0FAA3E0F9121C6DFF90AE
:106C80000ACEE0FBA3E0FAA3E0F975820175830068
:106C9000EF121D1A900AD1E0FF900ACEE0FBA3E0AC
:086CA000FAA3E0F9EF121D0850
:016CA80022C9
:10886300900C8EEBF0A3EAF0A3E9F0900C8EE0FB02
:0A887300A3E0FAA3E0F9126C35222D
:0B519400900AD2EBF0A3EAF0A3E9F0D0
:10519F00900AD2E0FBA3E0FAA3E0F9900AD5EBF076
:1051AF00A3EAF0A3E9F0900AD5E0FBA3E0FAA3E0AD
:1051BF00F9758203758300121C86FF900AD8EFF0F1
:1051CF00900AD5E0FBA3E0FAA3E0F9121C6DFF9063
:1051DF000AD5E0FBA3E0FAA3E0F97582037583001B
:1051EF00EF121D1A900AD8E0FF900AD5E0FBA3E05A
:1051FF00FAA3E0F9EF121D08900AD5E0FBA3E0FA3D
:10520F00A3E0F9758202758300121C86FF900AD8FD
:10521F00EFF0900AD5E0FBA3E0FAA3E0F975820165
:10522F00758300121C86FF900AD5E0FBA3E0FAA35A
:10523F00E0F9758202758300EF121D1A900AD8E00B
:10524F00FF900AD5E0FBA3E0FAA3E0F975820175A0
:06525F008300EF121D1A8E
:015265002226
:10887D00900C91EBF0A3EAF0A3E9F0900C91E0FBE2
:0A888D00A3E0FAA3E0F912519422CF
:0B482500900A19EBF0A3EAF0A3E9F001
:10483000900A1F74FF75F0FF121DB9AFF0FEEF4E26
:10484000700302490D900A1FE0FEA3E0FFEF25E090
:10485000FFEE33FE900A19E0FBA3E0FAA3E0F98F24
:10486000828E83121DFAFDACF0900A1FE0FEA3E0D9
:10487000FFEF25E0FFEE33FE900A1CE0FBA3E0FA19
:10488000A3E0F98F828E83EC8DF0121E51900A1FE7
:10489000E0FEA3E0FFEF25E0FFEE33FE900A1CE010
:1048A000FBA3E0FAA3E0F9E92FF9EA3EFA900A2126
:1048B000EBF0A3EAF0A3E9F0900A21E0FBA3E0FA11
:1048C000A3E0F9758201758300121C86FF900A240B
:1048D000EFF0900A21E0FBA3E0FAA3E0F9121C6DCF
:1048E000FF900A21E0FBA3E0FAA3E0F975820175CD
:1048F0008300EF121D1A900A24E0FF900A21E0FBCA
:0D490000A3E0FAA3E0F9EF121D0802483011
:01490D002287
:1078CA00900AA3EBF0A3EAF0A3E9F0900AA3E0FB85
:1078DA00A3E0FAA3E0F9C003C002C001900AA6E03F
:1078EA00FBA3E0FAA3E0F9900A1CEBF0A3EAF0A3E9
:1078FA00E9F0900AA9E0FEA3E0FF900A1FEEF0A3C8
:0C790A00EFF0D001D002D003124825227B
:0B3F2700900A25EBF0A3EAF0A3E9F0FC
:103F3200900A2B74FF75F0FF121DB9AFF0FEEF4E21
:103F42007003024083900A2BE0FEA3E0FFEF7802A9
:103F5200C333CE33CED8F9FF900A25E0FBA3E0FAB3
:103F6200A3E0F98F828E83121F9BC004C005C00696
:103F7200C007900A2BE0FEA3E0FFEF7802C333CE26
:103F820033CED8F9FF900A28E0FBA3E0FAA3E0F9C8
:103F92008F828E83D007D006D005D004121FCB901B
:103FA2000A2BE0FEA3E0FFEF7802C333CE33CED874
:103FB200F9FF900A28E0FBA3E0FAA3E0F9E92FF960
:103FC200EA3EFA900A2DEBF0A3EAF0A3E9F0900A98
:103FD2002DE0FBA3E0FAA3E0F975820375830012DA
:103FE2001C86FF900A30EFF0900A2DE0FBA3E0FA66
:103FF200A3E0F9121C6DFF900A2DE0FBA3E0FAA3E7
:10400200E0F9758203758300EF121D1A900A30E001
:10401200FF900A2DE0FBA3E0FAA3E0F9EF121D08DE
:10402200900A2DE0FBA3E0FAA3E0F9758202758302
:1040320000121C86FF900A30EFF0900A2DE0FBA3DD
:10404200E0FAA3E0F9758201758300121C86FF90E5
:104052000A2DE0FBA3E0FAA3E0F975820275830062
:10406200EF121D1A900A30E0FF900A2DE0FBA3E048
:10407200FAA3E0F9758201758300EF121D1A023F5F
:01408200320B
:01408300221A
:10791600900AABEBF0A3EAF0A3E9F0900AABE0FB28
:10792600A3E0FAA3E0F9C003C002C001900AAEE0EA
:10793600FBA3E0FAA3E0F9900A28EBF0A3EAF0A390
:10794600E9F0900AB1E0FEA3E0FF900A2BEEF0A367
:0C795600EFF0D001D002D003123F272236
:0789D900900B017402F02273
:05614000900C94EFF04B
:1061450012896CEFB401037F0222900B017403F0F6
:106155007D017F121271F0C2961289EEAE02AF0177
:10616500900C95EEF0A3EFF0900C94E0FF900C9559
:10617500E0FCA3E0FD8D828C83EFF0900C95E0FEB2
:10618500A3E0FF8F828E83A3E4F0900C95E0FEA33D
:10619500E0FF8F828E83A3A3E4F07B017A0B790263
:1061A500C003C002C0017BFF7A857993900AB8EBE2
:1061B500F0A3EAF0A3E9F0D001D002D0037F037E7B
:0661C50000126D8B7F004B
:0161CB0022B1
:0B4F1A00900B34EBF0A3EAF0A3E9F0E9
:104F250012896CEFB401037F0222900B017403F028
:104F35007D017F121271F0D2961289EEAE02AF0199
:104F4500900B37EEF0A3EFF0900B34E0FBA3E0FA03
:104F5500A3E0F9121C6DFF900B37E0FCA3E0FD8D7B
:104F6500828C83EFF0900B34E0FBA3E0FAA3E0F929
:104F7500758201758300121DFAFFAEF07F00EEFF0A
:104F85007E00900B37E0FCA3E0FD8D828C83A3EFC0
:104F9500F0900B34E0FBA3E0FAA3E0F9758201750C
:104FA5008300121DFAFFAEF0EF54FFFF900B37E0C0
:104FB500FCA3E0FD8D828C83A3A3EFF07B017A0B2C
:104FC5007902C003C002C0017BFF7A857993900AFC
:104FD500B8EBF0A3EAF0A3E9F0D001D002D0037F4B
:084FE500037E00126D8B7F00BA
:014FED0022A1
:10859300C0D075D018900CF9EFF0900CF9E0FFEF14
:1085A3007008900B017401F08006900B017402F0C7
:0385B300D0D02203
:10713500900C97EBF0A3EAF0A3E9F0900B01E0FFC8
:10714500EFB403037F0322900B01E0FFEFB4012EA0
:10715500900B04E0FF900C97E0FBA3E0FAA3E0F9A5
:10716500758201758300EF121D1A900B03E0FF90E5
:107175000C97E0FBA3E0FAA3E0F9EF121D087D00F0
:0E7185007F121271F012000E900B01E0FF223B
:1087D400900B01E0FFEFB403037F03227D007F12BF
:0E87E4001271F0C29612000E900B01E0FF22FF
:104FEE0075FFDE75FFAD127E63127CA51288481226
:104FFE0089AD12899512894112760312827D12852E
:10500E00D91289A11289D9128A03120006127A3D89
:10501E001286421284B5122F9F12843ED2AF1253C3
:10502E002F1260B2127FF7122CDB7BFF7A5379F0CE
:10503E00126ED6900B39EFF07BFF7A7979AE126E45
:10504E00D6900B3CEFF07BFF7A6579F7126ED69017
:10505E000B3DEFF07BFF7A737905126ED6900B3A0B
:10506E00EFF07BFF7A32791A126ED6900B3BEFF08F
:10507E00900B3AE0FF900B3BE0FD1287B5128A2FA2
:10508E007D00127E26900B39E0FF7D00127E269069
:10509E000B3AE0FF7D00127E26900B3CE0FF7D0078
:1050AE00127E26900B3DE0FF7D00127E261242FE00
:0250BE0080FB75
:0150C00022CD
:107FF700900CD874E0F0E5EF30E1047F0080027F59
:1080070001900CD9EFF07B017A0C79D8900A36747D
:1080170001F0900A37E4F0900A38E4F07D037C0021
:03802700123450C0
:01802A002233
:03001B00020011CF
:0100110032BC
:03002B00020012BE
:0100120032BB
:03003B00020019A7
:0100190032B4
:0300430002001A9E
:01001A0032B3
:03004B000200218F
:0100210032AC
:10889700C2CAC2C9C2C875CAFF75CBDB538EDF75A2
:0A88A700CCFF75CDFFC2ADD2CA228E
:10884800C28C900B11E4F0A3E4F0438901758AFF10
:0B885800758CDB538EF7D2A9D28C2266
:03000B000285B6B5
:1085B600C0E0C083C082C28D900B12E004F070064A
:1085C600900B11E004F0758AFF758CDBD082D083A6
:0385D600D0E032C0
:1088F80053C9FB53C9FD43C901538EBF53E7FB431B
:03890800C904227D
:03008300028528CB
:10852800C0E0C0F0C083C082C0D075D00853C9FB7A
:1085380053C97F12724D43C904D0D0D082D083D0A2
:04854800F0D0E0325D
:107E630075B167900CDAE4F0A3E4F0900CDAE0FE6D
:107E7300A3E0FFC3EE648094815010900CDBE00418
:107E8300F07006900CDAE004F080E0E5B130E7FB37
:0C7E930075B28843A50443E34043E2803D
:017E9F0022C0
:08848E00900B07EEF0A3EFF0E4
:108496007B017A0B7909900B07E0FCA3E0FD1279CA
:0E84A600F67B017A0B7909127463EFB401F3CF
:0184B40022A5
:1079F600900B3EEBF0A3EAF0A3E9F0900B41ECF01C
:107A0600A3EDF0120086900B3EE0FBA3E0FAA3E0A4
:107A1600F9EE8FF0121E32900B41E0FEA3E0FF90CC
:107A26000B3EE0FBA3E0FAA3E0F975820275830042
:077A3600EE8FF0121E512239
:0B746300900B43EBF0A3EAF0A3E9F06C
:10746E00120086900B46EEF0A3EFF0900B43E0FB7C
:10747E00A3E0FAA3E0F9121DCFFFAEF0900B46E0A9
:10748E00FCA3E0FD127193900B43E0FBA3E0FAA383
:10749E00E0F9758202758300121DFAFDACF0C3EFA0
:0A74AE009DEE9C50037FFF227F013A
:0174B80022B1
:0789E0007B017A0B790D22E7
:10008600C2A9900B11E0FEA3E0FF900CDCEEF0A3FA
:0C009600EFF0D2A9900CDCE0FEA3E0FF2C
:0100A200223B
:10719300900BF4EEF0A3EFF0900BF6ECF0A3EDF010
:1071A300900BF4E0FEA3E0FF900BF6E0FCA3E0FD00
:1071B300D3ED9FEC9E4018900BF4E0FEA3E0FF900C
:1071C3000BF6E0FCA3E0FDC3ED9FFFEC9EFE2290D7
:1071D3000BF4E0FEA3E0FFC3E49FFFE49EFE900BED
:0D71E300F6E0FCA3E0FDEF2DFFEE3CFE22E8
:107CA500A2AF9206C2AF759850438920758DB8432F
:107CB5008E10D28EC299C298D29CD2AC43884043D2
:107CC5008780D2BCA20692AF43E10443E340C208D9
:107CD500900655E4F09006BAE4F09006547463F00B
:017CE500227C
:0D89880053E7BF53F1EF43E30443E3402204
:03002300026AD29C
:106AD200C0E0C0F0C083C082C0D075D010C2AC305C
:106AE200980BC2987B017A06790B12454430994A79
:106AF200C2999006BAE0FF900655E0FEEE6F60384C
:106B02009006BAE0FF74562FF582E43406F583E06E
:106B1200FF8F999006BAE0FF7E00EF2401FFEE346A
:106B220000FE7C007D64121D4EAF159006BAEFF098
:106B3200900654E004F08002C208D2ACD0D0D082D9
:076B4200D083D0F0D0E03257
:0300A30002002236
:0100220032AB
:104AD200900B48EBF0A3EAF0A3E9F0900B4BEDF05A
:104AE200900B4BE0FF900654E0FEEEC39F50037F15
:104AF2000122A2AC9207C2AC900B4CE4F0900B4B9B
:104B0200E0FF900B4CE0FEEEC39F504F900B48E04D
:104B1200FBA3E0FAA3E0F9900B4CE0FF8F827583D0
:104B220000121C86FF900655E0FE74562EF582E4B4
:104B32003406F583EFF0900655E0FF7E00EF240186
:104B4200FFEE3400FE7C007D64121D4EAF05900620
:104B520055EFF0900B4CE004F080A2900654E0FF79
:104B6200900B4BE0FEC3EF9EFF900654EFF020083F
:104B720038D2089006BAE0FF74562FF582E4340664
:104B8200F583E0FF8F999006BAE0FF7E00EF2401E3
:104B9200FFEE3400FE7C007D64121D4EAF059006D0
:0F4BA200BAEFF0900654E004F0A20792AC7F0047
:014BB10022E1
:0789E7007B017A06790B22E7
:107010005306BC000000000000000000000000005B
:107020000000008080805306CF08090A0B0C0D0E6B
:0C7030000F000102030405060700010226
:1085D900C202C203759A07759DFF75F80343A5800A
:1085E90043A60F43A54043E10243E34043F6014359
:0385F900E6012276
:106D8B00900AB3EEF0A3EFF0900AB5EBF0A3EAF0A4
:106D9B00A3E9F053E6FE900AB5E0FBA3E0FAA3E00B
:106DAB00F9AE02AF019006E6EEF0A3EFF0900AB356
:106DBB00E0FEA3E0FF9006E5EFF0900AB8E0FBA33E
:106DCB00E0FAA3E0F99006E2EBF0A3EAF0A3E9F016
:106DDB009006BBE4F09006BBE0FF04F074E82FF5DF
:106DEB0082E43406F583E0FF8F9B43E6017F0022AC
:030033000241CDBA
:1041CD00C0E0C0F0C083C082C0D075D01820FF03FE
:1041DD0002429EC2FF300314E590547FFFEF4480EE
:1041ED00F590E5A054F0FFEF4403F5A09006BBE079
:1041FD00FF7E00EF24FFFFEE34FFFE9006E6E0FCAD
:10420D00A3E0FD8D828C83E5822FF582E5833EF55B
:10421D0083E59BF09006E5E0FF9006BBE0FEEEC364
:10422D009F504830032C90074CE4F090074CE0FF72
:10423D00EFC39414500890074CE004F080EDE59026
:10424D00547FFFEF4480F590E5A054F0FFEF44015B
:10425D00F5A09006BBE0FF04F074E82FF582E4347E
:10426D0006F583E0FF8F9B807D80269006E5E0FFBD
:10427D009006BBE0FEEEB51F189006E2E0FBA3E052
:10428D00FAA3E0F989828A837F007E0012202580BF
:10429D005530FE1AC2FE9006E2E0FBA3E0FAA3E061
:1042AD00F989828A837F027E00122025803830FDB5
:1042BD001AC2FD9006E2E0FBA3E0FAA3E0F98982C1
:1042CD008A837F037E00122025801B30FC18C2FCE0
:1042DD009006E2E0FBA3E0FAA3E0F989828A837FEE
:1042ED00047E00122025D0D0D082D083D0F0D0E033
:0142FD00328E
:0E896C0020020330FB037F0122D2027F002293
:03000E00C2022209
:1071F000900CDEEFF0900CDFEDF0900CDFE0FFEF95
:10720000B40135900CDEE0FF74BC2FF582E4340647
:10721000F583E0FFE590547FFEEE4FF590900CDE95
:10722000E0FF74CF2FF582E43406F583E0FFE5A09C
:1072300054F0FEEE4FF5A022E590547FFFEF44801E
:0D724000F590E5A054F0FFEF4403F5A02207
:0789EE007B017A0679E82203
:10893100900CFAEFF0900CFAE0FFEF24FF92032283
:0C703C0049095200010203040506070880
:10827D0075BA0075BC3890095BE4F075BB0075D11B
:10828D00077E007F127D007B017A09795C12202721
:0F829D0075E80C12889743E88043E702D2AF22BE
:03007B00025E76AC
:105E7600C0E0C0F0C083C082C0D075D00853E7FD33
:105E8600C2EDAFBF7E0090095BE0FDED25E0245C2E
:105E9600F582E43409F583EEF0A3EFF090095BE0B8
:105EA600FFEF25E0245CF582E43409F583C083C066
:105EB60082E0FEA3E0FFEF7F00FED082D083EEF00B
:105EC600A3EFF090095BE0FFEF25E0245CF582E4A8
:105ED6003409F583C083C082E0FEA3E0FFADBE7C3B
:105EE60000EE4CFEEF4DFFD082D083EEF0A3EFF034
:105EF6001283EB43E702D0D0D082D083D0F0D0E03B
:015F06003268
:05809200900C9AEFF0D4
:1080970053E7FD900C9AE0FFEF25E0245CF582E4BE
:1080A7003409F583E0FEA3E0FF900C9BEEF0A3EF0D
:0C80B700F043E702900C9BE0FEA3E0FF0A
:0180C300229A
:10657700900B4DEFF0900B4EEDF0900B4FEBF0A31F
:10658700EAF0A3E9F053E7FD900B4DE0FF7E0090A2
:106597000B4EE0FD7C00C3ED9FFFEC9EFEEF240158
:1065A700FFEE3400FEEF25E0FFEE33FEC006C00726
:1065B700900B4DE0FF7E02EF8EF0A4FFAEF0745C0F
:1065C7002FF974093EFA7B01C003C002C001900B8A
:1065D7004FE0FBA3E0FAA3E0F9A801AC02AD03D0BA
:1065E70001D002D003D007D006121C4743E702228E
:1083EB00C0D075D00890095BE004FFF0EFB409052D
:1083FB0090095BE4F090095BE0FF74522FF582E487
:0B840B003409F583E0FF8FBBD0D022C6
:0789F5007B017A09795C2285
:107603007E007F627D007B017A0779DC1220277E72
:10761300007F037D007B017A0779D81220277E073C
:107623007FDD900840EEF0A3EFF09007D8E0FFEF86
:1076330004FF7E0090083EEEF0A3EFF09007DBE43A
:0F764300F0900842E4F043D1019007D6E4F02222
:1053F000900CFBEFF0900842E0FFEFC3940A4021CD
:10540000900842E0FFEFC394145016900CFBE0FFAD
:10541000EFB4020D900CFBE4F0900842741EF08093
:1054200011900842E0FFEFC3940A5006900842E052
:1054300004F0900CFBE0FFEF121FFB547A00548C39
:1054400001544B02545D03000054A9125B7FEF70BE
:10545000067F03127F89227F02127F8922127A84BB
:10546000EF6404600F7F02127F897DBE7C007FFFA6
:1054700012556C227F03127F89221262DFEF7006C1
:105480007F01127F89227F00127F8922127A84EFA6
:105490006404600F7F02127F897DBE7C007FFF1253
:0F54A000556C227F01127F89227F02127F8922A1
:105B7F0012896CEFB401037F02229007D77404F0EF
:105B8F001289EEAE02AF01900C9DEEF0A3EFF090F4
:105B9F000C9DE0FEA3E0FF8F828E837433F0900C98
:105BAF009F7401F0900C9FE0FFEFD394305025903D
:105BBF000C9FE0FF900C9DE0FCA3E0FD8D828C8399
:105BCF00E5822FF582E43583F583E4F0900C9FE0B6
:105BDF0004F080D07F011289317D017F111271F0A5
:105BEF00128416C003C002C0017BFF7A8579FC9036
:105BFF000AB8EBF0A3EAF0A3E9F0D001D002D0038A
:095C0F007F317E00126D8B7F00D5
:015C18002269
:1062DF0012896CEFB401037F02229007D77404F088
:1062EF001289EEAE02AF01900CE0EEF0A3EFF0904A
:1062FF000CE0E0FEA3E0FF8F828E837434F0900CED
:10630F00E0E0FEA3E0FF8F828E83A3E4F0900CE029
:10631F00E0FEA3E0FF8F828E83A3A3E4F07F011240
:10632F0089317D017F111271F07B017A0779D8C015
:10633F0003C002C0017BFF7A8579FC900AB8EBF0AD
:10634F00A3EAF0A3E9F0D001D002D0037F037E00CF
:05635F00126D8B7F00B0
:016364002216
:1085FC00C0D075D018900CFCEFF0900CFCE0FFEFA5
:10860C0070089007D77401F080069007D77402F0B9
:03861C00D0D02299
:107A84009007D7E0FFEFB404037F04227D007F1149
:107A94001271F07F001289319007DBE0FFEF75F07F
:107AA40031A424DDF582E43407F583AF82AE8390FC
:107AB4000840EEF0A3EFF09007D67401F012000E28
:067AC4009007D7E0FF224D
:057CE600900CA0EFF07E
:107CEB0053E6FE900840E0FEA3E0FF8F828E83C038
:107CFB0083C082900CA0E0FFD082D08375F002EF9E
:107D0B00121FEFE0FEA3E0FF900CA1EEF0A3EFF04B
:0B7D1B0043E601900CA1E0FEA3E0FF96
:017D2600223A
:105F9600900B13EFF0900B14ECF0A3EDF0900B16B2
:105FA600EBF0A3EAF0A3E9F053E6FE900B13E0FF53
:105FB6007E00900B14E0FCA3E0FDC3ED9FFFEC9E7A
:105FC600FEEF2401FFEE3400FEEF25E0FFEE33FE88
:105FD600C006C007900B13E0FF7E02EF8EF0A4FF11
:105FE600AEF0900840E0FCA3E0FDEF2DFFEE3CFE96
:105FF600AA06A9077B01C003C002C001900B16E0E8
:10600600FBA3E0FAA3E0F9A801AC02AD03D001D0EE
:0E60160002D003D007D006121C4743E6012239
:10802B00900B19EBF0A3EAF0A3E9F09007D9E0FF6E
:10803B00900B19E0FBA3E0FAA3E0F9EF121D0890F7
:10804B0007DAE0FF900B1CE0FBA3E0FAA3E0F9EFEB
:04805B00121D0822C8
:108416009007DBE0FFC374019FFF9007DBEFF0904E
:1084260007DBE0FF7E31EF8EF0A4FFAEF074DC2FA9
:08843600F974073EFA7B0122F4
:068A17009007D6E0FF22EB
:0A70480042000000004200020008B0
:10843E0090003F7437F090003FE0FFEF24FEFF9076
:10844E000041EFF07BFF7A29792A126ED690000454
:08845E00EFF0900043E4F0226E
:102CDB007F0A7E0012848E900A3DE4F0900A3DE05C
:102CEB00FFEFC394084003022F67900A3DE0FF906B
:102CFB00003FE0FB7D007C0012442CEF70EC900A4F
:102D0B003DE0FF7E37EF8EF0A4FFAEF074452FF958
:102D1B0074003EFA7B01900A3DE0FF90003FE0FE1D
:102D2B00900B92EEF0126470EF640460D1900A3D48
:102D3B00E0FF7E37EF8EF0A4FFAEF074452FF974F1
:102D4B00003EFA7B01900041E0FD126FAC900A440B
:102D5B00EEF0A3EFF0900A3DE0FF75F037EFA424FF
:102D6B007AF582E5F03400F583E0FEA3E0FF900AEC
:102D7B0044E0FCA3E0FDEDB50713ECB5060F900A9C
:102D8B0044E0FEA3E0FFEF4E6003022F40900A3DAC
:102D9B00E0FF90003FE0FB7D007C0112442CEF70C4
:102DAB00EC900A3DE0FF7E37EF8EF0A4FFAEF0749F
:102DBB00452FF974003EFA7B01900A3DE0FF90002D
:102DCB003FE0FE900B92EEF0126470EF640460D162
:102DDB00900A3DE0FF7E37EF8EF0A4FFAEF0744516
:102DEB002FF974003EFA7B01900041E0FD126FACAD
:102DFB00900A44EEF0A3EFF0900A3DE0FF75F03738
:102E0B00EFA4247AF582E5F03400F583E0FEA3E02D
:102E1B00FF900A44E0FCA3E0FDED6F7002EC6E60E6
:102E2B0003022F5E900A44E0FEA3E0FFEF4E700317
:102E3B00022F5E90003FE0FF900A3EEFF0900A40B9
:102E4B00E4F0A3E4F0900A3DE0FF75F037EFA42423
:102E5B0045F582E5F03400F583AF82AE83900A42EC
:102E6B00EEF0A3EFF0900A3EE0FFEFD39400500397
:102E7B00022F20900A3DE0FF126CA9EF70F5900035
:102E8B0007E0FF128308EF640460F3900A40E0FE52
:102E9B00A3E0FF7E00EF540FFFC374109FFF900A57
:102EAB003FEFF0900A3DE0FF900A40E0FCA3E0FD0D
:102EBB00900A42E0FAA3E0FBA9037B01900A3FE0F2
:102ECB00FE900A12EEF0123C1FEF70D7900007E055
:102EDB00FF128308EF640460F3900A3EE0FF900A50
:102EEB003FE0FEC3EF9EFF900A3EEFF0900A3FE0FB
:102EFB00FF7E00900A41E02FF0900A40E03EF090F8
:102F0B000A3FE0FF7E00900A43E02FF0900A42E078
:102F1B003EF0022E70900043E0FF900A3DE0FE74FD
:102F2B0001A806088002C333D8FCFEEF4EFF9000C9
:102F3B0043EFF0801E900043E0FF900A3DE0FE74EB
:102F4B0001A806088002C333D8FCFEEF4EFF9000A9
:102F5B0043EFF0900A3DE004F0022CE7900043E0D1
:062F6B00FFEF64FF602D82
:102F7100900A4674E5F0900043E0FF900A47EFF0B5
:102F81007B017A0A7946900A367401F0900A37E497
:0D2F9100F0900A38E4F07D027C001234500C
:012F9E002210
:1069E200900B52EEF0A3EFF0900B54EBF0A3EAF011
:1069F200A3E9F090003FE0FF7E00C006C007900BC5
:106A020052E0FEA3E0FF7C007D37121D3C74452F4F
:106A1200F974003EFA7B01C003C002C001900B541E
:106A2200E0FBA3E0FAA3E0F9A801AC02AD03D001B8
:106A3200D002D003D007D006121C47900B52E0FEC2
:106A4200A3E0FF7401A807088002C333D8FCFF90BB
:086A52000043E0FEEF5EFF22AD
:105F0700900B1FEFF0900B20EDF0900B21EBF09032
:105F17000B1FE0FF900005EFF0900B20E0FF9000D3
:105F270006EFF0900B21E0FF900007EFF0900041A3
:105F3700E0FF7E00900B22E0FBA3E0FAA3E0F9C0AC
:105F470003C002C0017B017A007908A801AC02AD49
:105F570003D001D002D003121C47900B22E0FBA311
:105F6700E0FAA3E0F9900041E0FD126FAC90003D2C
:105F7700EEF0A3EFF09001FDE4F0900042E4F09022
:0F5F87000040E4F090003FE0FF900044EFF02274
:05292A009008A9EFF088
:10292F009008A9E0FFEF121FFB295A002971012916
:10293F008A0229EE032AA3042AC3052B32062B523F
:10294F00072C30082C8A0900002CD5900007E0FFD7
:10295F00126CA9EF70067F01127F89227F00127F10
:10296F008922900007E0FF128308EF640460067F5E
:10297F0002127F89227F01127F8922900044E0FF9B
:10298F00EFD39410401A900000E0FEA3E0FF7E000A
:10299F00EF540FFFC374109FFF9008AAEFF0800A47
:1029AF00900044E0FF9008AAEFF0900007E0FF903E
:1029BF000000E0FCA3E0FD900002E0FAA3E0FBA919
:1029CF00037B019008AAE0FE900A12EEF0123C1F62
:1029DF00EF70067F03127F89227F02127F89229078
:1029EF000007E0FF128308EF64047003022A9D7F43
:1029FF000A7E0012848E9008AAE0FF7E00900001EC
:102A0F00E02FF0900000E03EF0900044E0FF9008CF
:102A1F00AAE0FEC3EF9EFF900044EFF09008AAE0FB
:102A2F00FF7E00900003E02FF0900002E03EF09058
:102A3F000044E0FFEFD3940040067F00127F89220D
:102A4F0090003FE0FF7E00900000E0FCA3E0FDC39C
:102A5F00ED9FFFEC9EFEEF4E70109000007401F0A2
:102A6F00A3E4F07F00127F89800D900000E4F0A3B3
:102A7F00E4F07F04127F8990003FE0FF900044EF65
:102A8F00F07E007F08900002EEF0A3EFF0227F03AC
:102A9F00127F8922900007E0FF90003FE0FB7D004E
:102AAF007C0012442CEF70067F05127F89227F0471
:102ABF00127F8922900007E0FF7B017A0879AB90A3
:102ACF00003FE0FE900B92EEF0126470EF64046032
:102ADF004C7B017A0879AB900041E0FD126FAC900E
:102AEF0008E0E0FCA3E0FDEFB5050AEEB504067FB4
:102AFF0006127F89229001FDE0FFEF6014900040E5
:102B0F00E0FFEF4401FF900040EFF07F06127F8956
:102B1F00229001FD7401F07F00127F89227F051240
:102B2F007F8922900007E0FF90003FE0FB7D007C53
:102B3F000112442CEF70067F07127F89227F061245
:102B4F007F8922900007E0FF7B017A0879AB900024
:102B5F003FE0FE900B92EEF0126470EF640470038E
:102B6F00022C2A7B017A0879AB900041E0FD126FAD
:102B7F00AC9008E0E0FCA3E0FDEF6D7002EE6C702E
:102B8F006990003FE0FF7E00C006C0077B017A001E
:102B9F007908C003C002C001900007E0FF7E37EF45
:102BAF008EF0A4FFAEF074452FF974003EFA7B014E
:102BBF00A801AC02AD03D001D002D003D007D006DC
:102BCF00121C479008E0E0FEA3E0FF900007E0FD35
:102BDF0075F037EDA4247AF582E5F03400F583EE35
:102BEF00F0A3EFF07F08127F8922900042E0FFEF01
:102BFF006014900040E0FFEF4402FF900040EFF0C0
:102C0F007F08127F89229000007401F0A3E4F090F6
:102C1F0000427401F07F00127F89227F07127F89A3
:012C2F002282
:102C30009008E274C8F09008E37488F09008E4E427
:102C4000F07B017A0879E2900005E0FF900A36EF08
:102C5000F0900006E0FF900A37EFF0900A38740118
:102C6000F07D037C00123450EF7019900040E0FFBB
:102C7000EF700B7F00127F897FFF127EA0227F09F9
:0A2C8000127F89227F08127F89224B
:102C8A009008E274E6F0900007E0FF9008E3EFF0A6
:102C9A00900040E0FF9008E4EFF07B017A0879E2C7
:102CAA00900A367401F0900A37E4F0900A38E4F09A
:102CBA007D037C00123450EF700B7F00127F897FF6
:0B2CCA00FF127EA0227F09127F8922EA
:052CD5007F00127F8961
:012CDA0022D7
:068A1D00900004E0FF22BE
:10532F0090076FE4F09007D5E4F090076DE4F090EC
:10533F000770E4F0A3E4F0900769E4F0A3E4F090C1
:10534F00074DE4F0A37496F090076BE4F0A3749606
:10535F00F01289FC9007D4E4F0900767E4F090070F
:10536F00D3E4F0900CFDE4F0900CFDE0FFEFC3945C
:10537F000C5050900CFDE0FFEF75F006A4248CF557
:10538F0082E43407F583E4F0A3E4F0900CFDE0FF32
:10539F00EF75F006A4248AF582E43407F583E4F070
:1053AF00A3E4F0900CFDE0FFEF75F006A4248EF55A
:1053BF0082E43407F583E4F0A3E4F0900CFDE004FD
:1053CF00F080A57E007F187D007B017A077972122D
:1053DF0020277BFF7A607924126ED6900768EFF052
:0153EF00229B
:107B1000900CA3EFF0900CA4ECF0A3EDF0900CA36C
:107B2000E0FF90076FEFF0900CA3E0FFEFB40106C9
:107B300090076D7401F0900CA4E0FEA3E0FF9007A5
:107B400070EEF0A3EFF09007D57401F0900769E4B0
:057B5000F0A3E4F022A7
:1082AC00900CA6EFF0900CA7ECF0A3EDF0900CA7BF
:1082BC00E0FEA3E0FF900CA6E0FDED75F006A42413
:0E82CC008EF582E43407F583EEF0A3EFF02286
:105C1900900A48EFF0900A49EDF0900A4AEBF0A398
:055C2900EAF0A3E9F020
:105C2E00900A48E0FF900A51EFF0900A52E4F0908B
:105C3E000A49E0FF900A51E0FEEEC39F5046900ADB
:105C4E004AE0FBA3E0FAA3E0F9900A52E0FF75F0F8
:105C5E0002EFA4F58285F083121DFAFFAEF0900AD2
:105C6E0051E0FDED75F006A4248EF582E43407F5BF
:105C7E0083EEF0A3EFF0900A51E004F0900A52E0A8
:105C8E0004F080AB900A4DE0FEA3E0FF90076BEEB0
:105C9E00F0A3EFF0900A4FE0FEA3E0FF90074DEE69
:045CAE00F0A3EFF080
:015CB20022CF
:0B70D600900BF8EBF0A3EAF0A3E9F048
:1070E100123671900BFBE4F0900BFBE0FFEFC394C1
:1070F1000C5040900BFBE0FFEF75F006A4248CF5DB
:1071010082E43407F583E0FEA3E0FF900BF8E0FB97
:10711100A3E0FAA3E0F9900BFBE0FD75F002EDA40A
:10712100F58285F083EE8FF0121E51900BFBE00487
:03713100F080B536
:017134002238
:106A5A00900AD9EFF0900ADAEDF0900ADBEBF0A396
:056A6A00EAF0A3E9F0D1
:106A6F00900AD9E0FF900ADEEFF0900ADFE4F09091
:106A7F000ADAE0FF900ADEE0FEEEC39F5044900A70
:106A8F00DBE0FBA3E0FAA3E0F9900ADFE0FF75F08B
:106A9F0002EFA4F58285F083121DFAFFAEF0900A83
:106AAF00DEE0FDED25E02472F582E43407F583EE98
:106ABF00F0A3EFF0900ADEE004F0900ADFE004F0BC
:026ACF0080AD98
:016AD10022A2
:107FC100900CA9EBF0A3EAF0A3E9F07B017A077921
:107FD10072C003C002C001900CA9E0FBA3E0FAA3A8
:107FE100E0F9A801AC02AD03D001D002D0037E00BC
:067FF1007F18121C47225C
:1087B500900CE2EFF0900CE3EDF0900CE2E0FF900E
:0F87C50007D2EFF0900CE3E0FF90076EEFF02289
:10730500900CFEEFF0900CFEE0FFEF121FFB731ADE
:10731500000000735890076FE0FFEF70179007D5D6
:10732500E0FFEFB4010E1289FC9007D5E4F07F0071
:10733500127F892290076FE0FFEFB401107FFF12E3
:107345007EA090076EE0FF7D01127E26227F00124F
:097355007F89227F00127F89224A
:05321A00900CACEFF088
:10321F00900CADE4F0900CACE0FFEF121FFB3237D7
:10322F0001343A020000344A123671900CAEE4F0C9
:10323F00900CAEE0FFEFC39408400302330B900CE9
:10324F00AEE0FF74017E00A807088005C333CE33BC
:10325F00CED8F9FF900770E0FCA3E0FDEE5CFEEF27
:10326F005DFFEF4E7003023302900CAEE0FFEF757F
:10327F00F006A4248EF582E43407F583E0FEA3E084
:10328F00FFEF4E6064900CAEE0FFEF75F006A424E4
:10329F008CF582E43407F583E0FEA3E0FF900CAEDB
:1032AF00E0FDED75F006A4248EF582E43407F58376
:1032BF00E0FCA3E0FDC3ED9FEC9E502D900CAEE023
:1032CF00FFEF75F006A4248CF582E43407F583E054
:1032DF00FEA3E0FFC3EF94D2EE940F500C900CAE10
:1032EF00E0FF7D011263EB800A900CAEE0FF7D00E2
:1032FF001263EB900CAEE004F002323F7D007F08CA
:10330F001263EB7D007F091263EB7D007F0A12636E
:10331F00EB7D007F0B1263EB900CAE7408F0900CFA
:10332F00AEE0FFEFD3940B40030233ED900CAEE011
:10333F00FF74017E00A807088005C333CE33CED8B3
:10334F00F9FF900770E0FCA3E0FDEE5CFEEF5DFF80
:10335F00EF4E70030233E4900CAEE0FFEF75F00612
:10336F00A4248EF582E43407F583E0FEA3E0FFEF9B
:10337F004E6062900CAEE0FFEF75F006A4248CF562
:10338F0082E43407F583E0FEA3E0FF900CAEE0FD8E
:10339F00ED75F006A4248EF582E43407F583E0FC86
:1033AF00A3E0FDC3ED9FEC9E502B900CAEE0FFEF22
:1033BF0075F006A4248CF582E43407F583E0FEA3B0
:1033CF00E0FFC3EF94D2EE940F500A900CAEE0FFE3
:1033DF007D011263EB900CAEE004F002332D9007E9
:1033EF006DE0FFEF602E900769E0FEA3E0FFEE5463
:1033FF000FFE7F00EFB4001CEEB40F18900769E0CA
:10340F00FEA3E0FFEE540FFE7F00900769EEF0A3DE
:10341F00EFF0800590076DE4F012805F7F02127F5E
:10342F00897DAA7C007FFF12556C227FFF127EA040
:10343F009007D2E0FF7D00127E26227F01127F8946
:01344F00225A
:10367100900987E4F0900988E4F0900989E4F01258
:103681008A17EF70030238787B017A09796E7D0B16
:103691007C007F00125F96900767E0FFEFC3940400
:1036A100500C900767E004F09009887401F09007CE
:1036B100D3E0FFEFC39428500C9007D3E004F090BF
:1036C10009897401F0900986E4F0900986E0FFEF22
:1036D100C3940C4003023836900986E0FFEF75F081
:1036E10006A4248CF582E43407F583E0FEA3E0FF11
:1036F100900986E0FDED25E0246EF582E43409F5BC
:1037010083E0FCA3E0FDC3ED9FFFEC9EFE1289B9AF
:10371100D3EF9400EE648094904003D38001C350B2
:10372100030237DC900988E0FFEF7044900986E0DE
:10373100FFEF75F006A4248AF582E43407F583C00F
:1037410083C082E0FEA3E0FF900986E0FDED75F005
:1037510006A4248CF582E43407F583E0FCA3E0FDA4
:10376100C3EF9DFFEE9CFED082D083EEF0A3EFF07D
:10377100900986E0FFEF25E0246EF582E43409F537
:1037810083E0FEA3E0FF900986E0FDED75F006A45D
:10379100248AF582E43407F583EE8FF0121DA3909D
:1037A1000767E0FFEFFD7C00900986E0FFEF75F011
:1037B10006A4248AF582E43407F583E0FEA3E0FF42
:1037C100121D4E900986E0FDED75F006A4248CF5DE
:1037D10082E43407F583EEF0A3EFF0900986E0FF71
:1037E100EF75F006A4248CF582E43407F583E0FE3E
:1037F100A3E0FF900986E0FDED25E0246EF582E46B
:103801003409F583E0FCA3E0FDC3ED9FFFEC9EFED0
:103811001289B9D3EF9464EE64809480400E9009CC
:1038210089E0FFEF70069009877401F0900986E046
:1038310004F00236CB900987E0FFEF603A90076809
:10384100E0FF128810EF702F7B017A09796EC003B7
:10385100C002C0017B017A07794FA801AC02AD0318
:10386100D001D002D0037E007F18121C4790076858
:07387100E0FF7D00127E263E
:01387800222D
:0A63EB00900BFCEFF0900BFDEDF0BD
:1063F500900BFEE4F0A37401F0900BFDE0FFEF605D
:1064050032900769E0FCA3E0FD900BFEE0FEA3E0FF
:10641500FF900BFCE0FBEFA803088005C333CE33E8
:10642500CED8F9FFEC4EFEED4FFF900769EEF0A3D5
:10643500EFF022900769E0FCA3E0FD900BFEE0FE83
:10644500A3E0FF900BFCE0FBEFA803088005C33336
:10645500CE33CED8F9FFEFF4FFEEF4FEEC5EFEEDA1
:0A6465005FFF900769EEF0A3EFF06F
:01646F00220A
:10805F00900769E0FEA3E0FFEF54FFF5B0900769CA
:10806F00E0FEA3E0FFEE540FFE7F00EEC4F854F0E5
:10807F00C868FEEFC4540F48FFE5A0540FFEEE4F43
:03808F00F5A02237
:0789FC0075B00053A00F222B
:0B3DA600900A5EEBF0A3EAF0A3E9F046
:103DB100123671900A67E4F0900A67E0FFEFC3944E
:103DC1000C4003023F24900A67E0FF74017E00A8C3
:103DD10007088005C333CE33CED8F9FF900770E0D2
:103DE100FCA3E0FDEE5CFEEF5DFFEF4E7003023FD2
:103DF1001B900A67E0FFEF75F006A4248EF582E4BC
:103E01003407F583E0FEA3E0FF90074DE0FCA3E05B
:103E1100FDC3EF9DFFEE9CFE900A67E0FDED75F09E
:103E210006A4248CF582E43407F583E0FCA3E0FDCD
:103E3100C3ED9FEC9E4048900A67E0FFEF75F006E6
:103E4100A4248EF582E43407F583E0FEA3E0FF901D
:103E5100076BE0FCA3E0FDEF2DFFEE3CFE900A674F
:103E6100E0FDED75F006A4248CF582E43407F583BA
:103E7100E0FCA3E0FDD3ED9FEC9E5003023F1B90BD
:103E81000A67E0FF900A5EE0FBA3E0FAA3E0F9EF26
:103E9100121D08900A67E0FFEF75F006A4248CF567
:103EA10082E43407F583E0FEA3E0FF900A61E0FBC2
:103EB100A3E0FAA3E0F9EE8FF0121E32900A67E058
:103EC100FFEF75F006A4248EF582E43407F583E054
:103ED100FEA3E0FF90074DE0FCA3E0FDC3EF9DFFD3
:103EE100EE9CFE900A67E0FDED75F006A4248CF5CA
:103EF10082E43407F583E0FCA3E0FDC3ED9FEC9E73
:103F010050047F0180027F02900A64E0FBA3E0FA83
:103F1100A3E0F9EF121D087F0022900A67E004F088
:053F2100023DB97F0123
:013F26002278
:0560240090098AEFF075
:1060290090098B74E8F07B017A07794FC003C002AD
:10603900C0017B017A09798CA801AC02AD03D001BA
:10604900D002D0037E007F18121C477B017A0979A0
:106059008CC003C002C0017B017A09798C900A1CAB
:10606900EBF0A3EAF0A3E9F0900A1FE4F0A3740CA3
:10607900F0D001D002D0031248257B017A09798B2F
:10608900900A367401F0900A37E4F0900A38E4F087
:106099007D197C00123450EF70067FFF127EA0221A
:0860A90090098AE0FF127F89D3
:0160B10022CC
:0B7052004809E42021222324252627E2
:1060B2009009DBE4F0A3E4F09009D8E4F09009E35E
:1060C200E4F0128688EF70FA12854CEF70FA1286AD
:1060D200EEEF70FA12854CEF70FA900CAF7404F088
:1060E200900CB0E4F0A3E4F07B017A0C79AF124F8C
:1060F2001AEF70F41287D4EFB401F9900CAF7470F8
:10610200F0900CB0E4F0A3E4F07B017A0C79AF12CA
:106112004F1AEF70F41287D4EFB401F9900CAF74F8
:106122000EF0900CB0E4F0A3E4F07B017A0C79AFAE
:0D613200124F1AEF70F41287D4EFB401F988
:01613F00223D
:10868800900CB27410F0900CB3E4F0A37401F07B7A
:10869800017A0C79B2124F1AEFB402037F02227FDB
:0186A80000D1
:0186A90022AE
:1086AA00900CB57411F0900CB6E4F0A37401F07B51
:1086BA00017A0C79B5124F1AEFB402037F02227FB6
:0186CA0000AF
:0186CB00228C
:0880F500900B57EEF0A3EFF031
:1080FD00900B597401F0900B57E0FEA3E0FF900B2D
:10810D005AEEF0A3EFF07B017A0B7959124F1AEF6B
:08811D00B402037F02227F007F
:018125002237
:08812600900B5CEEF0A3EFF0FA
:10812E00900B5E7402F0900B5CE0FEA3E0FF900BF0
:10813E005FEEF0A3EFF07B017A0B795E124F1AEF30
:08814E00B402037F02227F004E
:018156002206
:08815700900B61EEF0A3EFF0C4
:10815F00900B637440F0900B61E0FEA3E0FF900B77
:10816F0064EEF0A3EFF07B017A0B7963124F1AEFF5
:08817F00B402037F02227F001D
:0181870022D5
:0E897A007F01126140EF70037F00227F022216
:1086CC00900CB87403F0900CB9E4F0A37401F07B37
:1086DC00017A0C79B8124F1AEFB402037F02227F91
:0186EC00008D
:0186ED00226A
:10875300900CBB7403F0900CBCE4F0A3E4F07B0139
:108763007A0C79BB124F1AEFB402037F02227F0007
:0187730022E3
:05004E00900C00EFF032
:10005300900C017405F0900C00E0FF7E00900C0200
:10006300EEF0A3EFF07B017A0C7901124F1AEFB493
:0700730002037F02227F005F
:01007A002263
:1086EE00900CBE7407F0900CBFE4F0A374FFF07B07
:1086FE00017A0C79BE124F1AEFB402037F02227F69
:01870E00006A
:01870F002247
:0A707300900B66EFF0900B67EDF054
:10707D00900B687408F0900B67E0FF7E00900B6931
:10708D00EEF0A3EFF0900B69E0FEA3E0FFEF7F00C1
:10709D00FE900B69EEF0A3EFF0900B69E0FEA3E01C
:1070AD00FF900B66E0FD7C00EE4CFEEF4DFF900B6C
:1070BD0069EEF0A3EFF07B017A0B7968124F1AEFAE
:0870CD00B402037F02227F00E0
:0170D5002298
:05836400900C04EFF095
:10836900900C057475F0900C04E0FF7E00900C06EB
:10837900EEF0A3EFF07B017A0C7905124F1AEFB4F6
:0783890002037F02227F00C6
:0183900022CA
:08818800900B6BEEF0A3EFF089
:10819000900B6D7404F0900B6BE0FEA3E0FF900B6E
:1081A0006EEEF0A3EFF07B017A0B796D124F1AEFB0
:0881B000B402037F02227F00EC
:0181B80022A4
:05839100900C08EFF064
:10839600900C097470F0900C08E0FF7E00900C0AB7
:1083A600EEF0A3EFF07B017A0C7909124F1AEFB4C5
:0783B60002037F02227F0099
:0183BD00229D
:0583BE00900C0CEFF033
:1083C300900C0D740EF0900C0CE0FF7E00900C0EE0
:1083D300EEF0A3EFF07B017A0C790D124F1AEFB494
:0783E30002037F02227F006C
:0183EA002270
:0A7C6300900B70EFF0900B71EDF044
:107C6D00900B70E0FF74E42FF582E43409F583E0A6
:107C7D00FF900B72EFF0900B71E0FF7E00900B7395
:107C8D00EEF0A3EFF07B017A0B7972124F1AEFB47D
:077C9D0002037F02227F00B9
:017CA40022BD
:0881B900900B75EEF0A3EFF04E
:1081C100900B77740BF0900B75E0FEA3E0FF900B22
:1081D10078EEF0A3EFF07B017A0B7977124F1AEF6B
:0881E100B402037F02227F00BB
:0181E9002273
:0881EA00900B7AEEF0A3EFF018
:1081F200900B7C740CF0900B7AE0FEA3E0FF900BE6
:108202007DEEF0A3EFF07B017A0B797C124F1AEF2F
:08821200B402037F02227F0089
:01821A002241
:0100260022B7
:08821B00900B7FEEF0A3EFF0E1
:10822300900B817450F0900B7FE0FEA3E0FF900B66
:1082330082EEF0A3EFF07B017A0B7981124F1AEFF4
:08824300B402037F02227F0058
:01824B002210
:08824C00900B84EEF0A3EFF0AB
:10825400900B867451F0900B84E0FEA3E0FF900B2A
:1082640087EEF0A3EFF07B017A0B7986124F1AEFB9
:08827400B402037F02227F0027
:01827C0022DF
:10854C001287D4900CFFEFF0900CFFE0FFEF640368
:10855C00600F900CFFE0FFEFB401037F00227F025D
:03856C00227F016A
:01856F0022E9
:0B7F1600900B89EBF0A3EAF0A3E9F068
:107F21007B017A0B798C127135EF6403601E900B23
:107F31008CE0FEA3E0FF7E00900B89E0FBA3E0FA5A
:0E7F4100A3E0F9EE8FF0121E327F00227F01C6
:017F4F00220F
:106E6900900A68EEF0A3EFF0900A6AECF0A3EDF057
:106E7900900A6CEAF0A3EBF0900A68E0FEA3E0FF49
:106E89009009D9EEF0A3EFF0900A6AE0FEA3E0FFC3
:106E99009009DBEEF0A3EFF0900A6CE0FEA3E0FFAF
:106EA9009009DDEEF0A3EFF0900A6EE0FEA3E0FF9B
:106EB9009009DFEEF0A3EFF0900A70E0FF9009E18E
:0D6EC900EFF0900A71E0FF9009E2EFF02277
:0520AB00900A53EFF064
:1020B000900A53E0FFEF121FFB210B002158012172
:1020C0006A0221960321A80421D40521FA06220DD3
:1020D00007225C08226F09229D0A22B00B22DE0C27
:1020E00022F10D23190E232C0F233E1023771123E9
:1020F000891223B51323DB14240815241C1624612C
:0B2100001724731824A519000024EF19
:10210B00900A5B74C8F0900A5C7484F0900A5DE4EA
:10211B00F07B017A0A795B9009E1E0FF900A36EFD8
:10212B00F09009E2E0FF900A37EFF0900A38740163
:10213B00F07D037C00123450EF700C9009E37401B6
:0D214B00F07F01127F89227F00127F892220
:10215800128688EF70067F02127F89227F01127F24
:10216800892212854C900A54EFF0900A54E0FFEF50
:1021780064016014900A54E0FFEF70067F03127F39
:1021880089227F01127F89227F02127F892212878A
:1021980053EF70067F04127F89227F03127F892202
:1021A80012854C900A54EFF0900A54E0FFEF640156
:1021B8006014900A54E0FFEF70067F05127F8922B1
:1021C8007F03127F89227F04127F8922900A567426
:1021D80004F0900A57E4F0A3E4F07B017A0A7956F8
:1021E800124F1AEF70067F06127F89227F05127F31
:1021F80089221287D4EFB401067F0B127F89227FD0
:1022080006127F8922900A567435F09009D9E0FEAB
:10221800A3E0FFE4FCFD7B107A0079007800121E31
:102228007EA804A905AA06AB077F557EA07DFC7C85
:1022380001127BDD900A57EEF0A3EFF07B017A0ADA
:102248007956124F1AEF70067F08127F89227F078E
:10225800127F89221287D4EFB401067F09127F8981
:10226800227F08127F8922900A567431F09009DD86
:10227800E0FEA3E0FF900A57EEF0A3EFF07B017AAF
:102288000A7956124F1AEF70067F0A127F89227F49
:1022980009127F89221287D4EFB401067F0D127FBD
:1022A80089227F0A127F8922900A567436F0900993
:1022B800DFE0FEA3E0FF900A57EEF0A3EFF07B010A
:1022C8007A0A7956124F1AEF70067F0C127F89220C
:1022D8007F0B127F89221287D4EFB401067F071281
:1022E8007F89227F0C127F8922900A567404F0900D
:1022F8000A577403F0A3743BF07B017A0A795612EB
:102308004F1AEF70067F0E127F89227F0D127F8988
:10231800221287D4EFB401067F0F127F89227F0E25
:10232800127F89221286CCEF70067F10127F8922D5
:102338007F0F127F892212854C900A54EFF0900A81
:1023480054E0FFEF64016021900A54E0FFEF70133E
:102358007F11127F899009DBE0FCA3E0FD7FFF126B
:10236800556C227F0F127F89227F10127F892212DB
:102378008753EF70067F12127F89227F11127F899F
:102388002212854C900A54EFF0900A54E0FFEF6453
:10239800016014900A54E0FFEF70067F13127F89E2
:1023A800227F11127F89227F12127F8922900A567A
:1023B8007404F0900A57E4F0A3E4F07B017A0A79F8
:1023C80056124F1AEF70067F14127F89227F13125C
:1023D8007F89221287D4900A55EFF0900A55E0FFC2
:1023E800EF64036015900A55E0FFEFB401067F150E
:1023F800127F89227F13127F89227F14127F8922FC
:102408007F04126140EF70067F16127F89227F15C4
:10241800127F89227B017A0A7959127135900A55FF
:10242800EFF0900A55E0FFEF64036027900A55E04B
:10243800FFEFB40118900A59E0FEA3E0FFEF4E70D9
:10244800067F17127F89227F13127F89227F151238
:102458007F89227F16127F8922128688EF70067F75
:1024680018127F89227F17127F892212854C900AC1
:1024780054EFF0900A54E0FFEF6401601A900A5498
:10248800E0FFEF700C9009D8E004F07F19127F8903
:0D249800227F17127F89227F18127F892270
:1024A500900A5B74E4F09009D8E0FF900A5CEFF0C5
:1024B5007B017A0A795B9009E1E0FF900A36EFF03B
:1024C500900A37E4F0900A38E4F07D027C0012347B
:1024D50050EF70109009E3E4F07F00127F897FFFD1
:0A24E500127EA0227F19127F8922C7
:0524EF007F00127F894F
:0124F40022C5
:068A23009009E3E0FF22D0
:068A29009009D8E0FF22D5
:10879500900CE4EFF0900CE5EDF0900CE4E0FF9028
:1087A5000CE5E0FD126365EF70037F00227F022276
:0582DA00900CE6EFF03E
:1082DF00900CE6E0FF128466900CE7EFF0900CE74D
:1082EF00E0FFEF6403600F900CE7E0FFEFB40103D2
:0882FF007F00227F02227F01B3
:018307002253
:1087F200900CC1EBF0A3EAF0A3E9F0900CC1E0FB0E
:0E880200A3E0FAA3E0F97D077F00126577225C
:057F5000900C10EFF0A1
:107F5500900C117476F0900C10E0FFEF600A900C15
:107F650012E4F0A3E4F08009900C12E4F0A374038A
:107F7500F07B017A0C7911124F1AEFB402037F02DC
:037F8500227F0058
:017F880022D6
:0A89C50053D4F853D4E743D48022C2
:1084DC00900CE8EEF0A3EFF0900CE8E0FEA3E0FFC8
:1084EC00EF54FFF5D2900CE8E0FEA3E0FF7F00EE26
:0684FC00FF7E008FD32279
:0A89CF0053D7F853D7E743D78022AF
:10850200900CEAEEF0A3EFF0900CEAE0FEA3E0FF9D
:10851200EF54FFF5D5900CEAE0FEA3E0FF7F00EEFA
:06852200FF7E008FD6224F
:0C89A1009008437402F0900844E4F022B7
:0D4E4500900ABBEFF0900ABCECF0A3EDF07A
:104E520012896CEFB401037F02229008437404F0BC
:104E6200900ABCE0FEA3E0FF900AC0EFF0900ABCFB
:104E7200E0FEA3E0FFEE5401FE7F00EF7803C333B0
:104E8200CE33CED8F9FF900ABFEFF0900ABFE0FF11
:104E9200EF4403FF900ABEEFF01289EEAE02AF01BB
:104EA200900AC1EEF0A3EFF0900ABEE0FF900AC1B3
:104EB200E0FCA3E0FD8D828C83EFF0900AC0E0FF5E
:104EC200900AC1E0FCA3E0FD8D828C83A3EFF090F9
:104ED2000AC1E0FEA3E0FF8F828E83A3A3E4F0C2A7
:104EE20096900ABBE0FF7D011271F07B017A08798E
:104EF20045C003C002C0017BFF7A86791F900AB8C1
:104F0200EBF0A3EAF0A3E9F0D001D002D0037F03D3
:074F12007E00126D8B7F0091
:014F19002275
:10442C00900A72EFF0900A73ECF0A3EDF0900A751D
:02443C00EBF0A3
:10443E0012896CEFB401037F02229008437404F0DA
:10444E00900A73E0FEA3E0FF900A78EFF0900A73F3
:10445E00E0FEA3E0FFEE5401FE7F00EF7803C333CE
:10446E00CE33CED8F9FF900A77EFF0900A77E0FFBF
:10447E00EF4403FF900A76EFF01289EEAE02AF0121
:10448E00900A7AEEF0A3EFF0900A76E0FF900A7AA7
:10449E00E0FCA3E0FD8D828C83EFF0900A78E0FFC4
:1044AE00900A7AE0FCA3E0FD8D828C83A3EFF0905E
:1044BE000A79E4F0900A75E0FF900A79E0FEEEC307
:1044CE009F502F900A79E0FF7E00EF2402FFEE341A
:1044DE0000FE900A7AE0FCA3E0FD8D828C83E582DB
:1044EE002FF582E5833EF583E4F0900A79E004F03F
:1044FE0080C2C296900A72E0FF7D011271F0900A9E
:10450E0075E0FF7E00EF2402FFEE3400FE7B017AA1
:10451E00087945C003C002C0017BFF7A86791F90DF
:10452E000AB8EBF0A3EAF0A3E9F0D001D002D00371
:05453E00126D8B7F00EF
:014543002255
:10490E00900A9AEFF0900A9BECF0A3EDF0900A9DBE
:02491E00EBF0BC
:10492000900A9AE0FF7D001271F09008437404F041
:10493000900A9BE0FEA3E0FF900AA0EFF0900A9B94
:10494000E0FEA3E0FFEE5401FE7F00EF7803C333E7
:10495000CE33CED8F9FF900A9FEFF0900A9FE0FF88
:10496000EF4402FF900A9EEFF01289EEAE02AF0113
:10497000900AA1EEF0A3EFF0900A9EE0FF900AA14A
:10498000E0FCA3E0FD8D828C83EFF0900AA0E0FFB5
:10499000900AA1E0FCA3E0FD8D828C83A3EFF09050
:1049A0000A9DE0FF900AA1E0FCA3E0FD8D828C83CC
:1049B000A3A3EFF0900844E4F0900A9AE0FF7D0191
:1049C0001271F07B017A087945C003C002C0017BF7
:1049D000FF7A86791F900AB8EBF0A3EAF0A3E9F01A
:0F49E000D001D002D0037F037E00126D8B7F00C9
:0149EF0022A5
:103C1F00900A0CEFF0900A0DECF0A3EDF0900A0F64
:083C2F00EBF0A3EAF0A3E9F0B9
:103C3700900A0CE0FF7D001271F09008437404F0C5
:103C4700900A12E0FF7E00900A0DE0FCA3E0FDEF72
:103C57002DFFEE3CFEEF24FFFFEE34FFFEEEC4F82F
:103C670054F0C868FCEFC4540F48FD900A0DE0FEFD
:103C7700A3E0FFEEC4F854F0C868FEEFC4540F4841
:103C8700FFD3ED9FEC9E40037F0322900A0DE0FED9
:103C9700A3E0FF900A15EFF0900A0DE0FEA3E0FF06
:103CA700EE5401FE7F00EF7803C333CE33CED8F94D
:103CB700FF900A14EFF0900A14E0FFEF4402FF9020
:103CC7000A13EFF01289EEAE02AF01900A17EEF079
:103CD700A3EFF0900A13E0FF900A17E0FCA3E0FDC2
:103CE7008D828C83EFF0900A15E0FF900A17E0FCB5
:103CF700A3E0FD8D828C83A3EFF0900A16E4F09089
:103D07000A12E0FF900A16E0FEEEC39F504A900A9F
:103D17000FE0FBA3E0FAA3E0F9900A16E0FF8F8219
:103D2700758300121C86FF900A16E0FEEEFD7C00EC
:103D3700ED2402FDEC3400FC900A17E0FAA3E0FB47
:103D47008B828A83E5822DF582E5833CF583EFF04C
:103D5700900A16E004F080A7900844E4F0900A0C5B
:103D6700E0FF7D011271F0900A12E0FF7E00EF2460
:103D770002FFEE3400FE7B017A087945C003C002DA
:103D8700C0017BFF7A86791F900AB8EBF0A3EAF0AF
:0E3D9700A3E9F0D001D002D003126D8B7F00A3
:013DA50022FB
:056CA900900CC4EFF0A7
:106CAE0012896CEFB401037F02229008437404F042
:106CBE00D2969008447401F01289EEAE02AF0190A4
:106CCE000CC5EEF0A3EFF0900CC5E0FEA3E0FF8F35
:106CDE00828E837406F0900CC4E0FF7D011271F079
:106CEE007B017A087945C003C002C0017BFF7A861A
:106CFE00791F900AB8EBF0A3EAF0A3E9F0D001D027
:0C6D0E0002D0037F017E00126D8B7F001D
:016D1A002256
:10861F00C0D075D018900D00EFF0900D00E0FFEF77
:10862F0070089008437401F080069008437402F0BC
:03863F00D0D02276
:10647000900B8EEFF0900B8FEBF0A3EAF0A3E9F016
:10648000900843E0FFEFB404037F0422900843E048
:10649000FFEF6401704C900B92E0FFEFB401169097
:1064A0000847E0FF900B8FE0FBA3E0FAA3E0F9EFD1
:1064B000121D08802D900B92E0FF7E007B017A0870
:1064C0007947C003C002C001900B8FE0FBA3E0FA44
:1064D000A3E0F9A801AC02AD03D001D002D00312B1
:1064E0001C47900B8EE0FF7D001271F012000E90A1
:0564F0000843E0FF225B
:10830800900D01EFF0900843E0FFEFB404037F0401
:1083180022900D01E0FF7D001271F0900844E0FF0B
:0E832800EF7005C29612000E900843E0FF228F
:106FAC00900AE0EBF0A3EAF0A3E9F0900AE3EDF02D
:106FBC00900AE5E4F0A3E4F0900AE4E4F0900AE32C
:106FCC00E0FF900AE4E0FEEEC39F502F900AE0E051
:106FDC00FBA3E0FAA3E0F9900AE4E0FF8F8275834B
:106FEC0000121C86FF7E00900AE6E02FF0900AE566
:106FFC00E03EF0900AE4E004F080C2900AE5E0FE86
:03700C00A3E0FFFF
:01700F00225E
:0F8941007BFF7A7279AA126ED6900C1BEFF02290
:0572AA00900C14EFF050
:1072AF00900C14E0FFEF121FFB72C20072E8010096
:0372BF0000730455
:1072C200900C157406F0900C16E4F0A3E4F07B0128
:1072D2007A0C7915124F1AEF70067F01127F8922FC
:0672E2007F00127F8922EB
:1072E8001287D4EF6403600F7F00127F897DF47CDE
:0C72F800017FFF12556C227F01127F897C
:017304002266
:068A2F00900C1BE0FF2289
:108642007BFF7A877974126ED6900C19EFF07BFF5C
:108652007A7B7955126ED6900C18EFF0900C1A7442
:0386620001F02202
:1088E300900C1AE0FFEF600C900C19E0FF7D607CA8
:0588F300EA12556C22A1
:10877400900D02EFF01289FC7DFF7CFF7F00127BDD
:1087840010900C18E0FF7D00127E267FFF127EA061
:0187940022C2
:10833600900D03EFF0900D03E0FFEF6013900C1A21
:108346007401F0900C19E0FF7D607CEA12556C22F6
:0E835600900C1AE4F0900C19E0FF127EA022A9
:057B5500900D04EFF0AB
:107B5A00900D04E0FFEF121FFB7B6D007B8101009B
:107B6A00007B937F00127C21EF70067F01127F89D0
:107B7A00227F00127F892212895EEF70067FFF1230
:0E7B8A007EA0227F01127F89227F00127F8958
:017B980022CA
:10890B00539EFC439E01539EF3439E04439E804320
:03891B00E18022D6
:10891E00539FFC439F01539FF3439F04439F804308
:03892E00E2012241
:107A3D001289C51289CF12890B12891ED288D28A5A
:107A4D0043E20443E2107BFF7A4C7992126ED6909A
:107A5D000ACAEFF0900AC3E4F0900AC4E4F0900A69
:107A6D00C5E4F0A3E4F0900AC77401F0900AC8E4ED
:077A7D00F0900AC9E4F022B9
:107ACA00900B93EEF0A3EFF0900B95ECF0A3EDF092
:107ADA00900B97EBF0900B93E0FEA3E0FF1284DC8F
:107AEA00900B93E0FEA3E0FF128502900B95E0FE57
:107AFA00A3E0FF900AC5EEF0A3EFF0900B97E0FF2A
:067B0A00900AC7EFF02213
:107DE700900D05EFF0900D05E0FFEF6026900AC3B8
:107DF700E4F0900AC4E4F0900AC8E4F0900AC9E4F9
:107E0700F0C289C28B12001E900ACAE0FF7D0012E1
:0F7E17007E2622120016900ACAE0FF127EA022D9
:054C9200900CC7EFF0DB
:104C9700900CC7E0FFEF121FFB4CAA004D28010044
:104CA700004D67900CC8E4F0120016900AC3E0FFAD
:104CB700EF7008900AC4E0FFEF604E900AC3E0FF70
:104CC700EF601F900AC3E4F0900AC7E0FF900AC89C
:104CD700E0FEEEC39F400B900AC8E4F0900CC87446
:104CE70001F0900AC4E0FFEF601F900AC4E4F0905F
:104CF7000AC7E0FF900AC9E0FEEEC39F400B900A87
:104D0700C9E4F0900CC87401F012001E900CC8E0C2
:104D1700FFEF60077F01127F8980067F00127F897E
:014D27002269
:104D2800900CC974E7F07B017A0C79C9900A367443
:104D380001F0900A37E4F0900A38E4F07D017C0035
:104D4800123450EF70137F00127F89900AC5E0FC7F
:0F4D5800A3E0FD7FFF12556C227F01127F89229D
:054D67007F00127F89AE
:014D6C002224
:030003000288B1BF
:1088B100C0E0C083C082900AC37401F0900AC8E08E
:0988C10004F0D082D083D0E03233
:030013000288CA96
:1088CA00C0E0C083C082900AC47401F0900AC9E073
:0988DA0004F0D082D083D0E0321A
:03001600C2A8225B
:03001E00D2A82243
:0C705D0041053800410591004105340058
:102F9F00128A0AAE02AF019005E1EEF0A3EFF090B6
:102FAF0005E1E0FEA3E0FFAA06A9077B01126D1B56
:102FBF007BFF7A667977126ED69005CBEFF07BFFA9
:102FCF007A5C79B3126ED69005D4EFF07BFF7A5A04
:102FDF007940126ED6900545EFF07BFF7A4B79B2B0
:102FEF00126ED690057BEFF07BFF7A527966126EE8
:102FFF00D690056DEFF07BFF7A407984126ED690F4
:10300F0005B5EFF07BFF7A6479F5126ED690055017
:10301F00EFF07BFF7A5079C1126ED69005B4EFF0C6
:10302F007BFF7A5D794C126ED69005ECEFF07BFF4B
:10303F007A5479AF126ED690053EEFF07BFF7A246B
:10304F0079F5126ED6900586EFF07BFF7A38797995
:10305F00126ED69005C9EFF07BFF7A46794B126E50
:10306F00D690059AEFF07BFF7A58793F126ED69083
:10307F000585EFF07BFF7A677976126ED69005B3F0
:10308F00EFF07BFF7A767952126ED69005A5EFF0AE
:10309F007BFF7A6779F2126ED690059BEFF07BFF7C
:1030AF007A7679A1126ED69005CAEFF07BFF7A7609
:1030BF0079F0126ED6900535EFF07BFF7A77793F76
:1030CF00126ED690058FEFF07BFF7A68796E126ED5
:1030DF00D6900587EFF07BFF7A797962126ED690E2
:1030EF00058AEFF07BFF7A7479B9126ED69005E7F7
:1030FF00EFF07BFF7A73795E126ED69005B8EFF022
:10310F007BFF7A77798E126ED69005D0EFF07BFF2A
:10311F007A5879EA126ED6900584EFF07BFF7A59D0
:10312F007995126ED69005B2EFF07BFF7A3A795C03
:10313F00126ED6900576EFF07BFF7A2079AB126E88
:10314F00D6900540EFF07BFF7A757963126ED690BB
:10315F000592EFF07BFF7A6F7942126ED69005D50C
:10316F00EFF07BFF7A5A79E2126ED6900578EFF086
:10317F007BFF7A7B7999126ED6900553EFF07BFF28
:10318F007A4979F0126ED69005AFEFF07BFF7A682F
:10319F0079EA126ED69005A4EFF07BFF7A69796613
:1031AF00126ED69005D3EFF07BFF7A4D796D126ECC
:1031BF00D69005E0EFF07BFF7A7779DD126ED6902F
:1031CF000577EFF07BFF7A75790F126ED690057E3B
:1031DF00EFF07BFF7A78792C126ED690053FEFF0E7
:1031EF007BFF7A7579B3126ED690053DEFF07BFFBA
:1031FF007A78797B126ED6900590EFF07BFF7A5636
:0B320F0079E0126ED69005EBEFF02284
:0565F700900B98EFF08D
:1065FC009005E1E0FEA3E0FFAA06A9077B01127D4E
:10660C0068900B99EEF0A3EFF0900B99E0FEA3E0ED
:10661C00FFEF64FF7003EE64FF60479005E1E0FE5E
:10662C00A3E0FFAA06A9077B01900B99E0FCA3E06D
:10663C00FD126258AE02AF01900B9BEEF0A3EFF08F
:10664C00900B9BE0FEA3E0FFAA06A9077B011200BA
:10665C00A69005E1E0FEA3E0FFAA06A9077B0112C4
:0A666C0066F7900B98E0FF127F899B
:016676002201
:0B00A600900A7CEBF0A3EAF0A3E9F065
:1000B100900A7CE0FBA3E0FAA3E0F9121C6DFF902B
:1000C1000A81EFF0900A7CE0FBA3E0FAA3E0F97566
:1000D1008201758300121C86FF900A82EFF0900A5C
:1000E1007CE0FBA3E0FAA3E0F975820375830012BB
:1000F1001C86FF900A7FEFF0900A7CE0FBA3E0FAF8
:10010100A3E0F9758202758300121C86FF900A80B4
:10011100EFF0900A81E0FFEFB401031288E3900A47
:100121007FE0FFEF121FFB01B30101D26402E06522
:1001310002FF66031E6703B06803CF6903EE6A041A
:100141007C6B049B6C04BA6D04D96E052A6F058A19
:100151007005A971065272069873079B7407BA75E8
:1001610008C87608E77709067809257C09637D09BF
:10017100828009FC810A4B820A6A830A89840B9472
:10018100850BFF860C1E870C3D880DFA890E4B8A64
:100191000EA98B0EC88C0F238D09448F0F749010FC
:1001A10039970FC598119C99109E9A11289B0000B0
:1001B1001241900A81E0FF90057CEFF0900A80E007
:1001C100FF90057DEFF0900553E0FF7D00127E2644
:0101D100220B
:1001D200900A7CE0FBA3E0FAA3E0F9E92404F9EA3F
:1001E2003400FAAE02AF01900A83EEF0A3EFF09072
:1001F2000A83E0FEA3E0FFAA06A9077B01C003C0B1
:1002020002C001900A83E0FEA3E0FFAA06A9077BD1
:1002120001900A1CEBF0A3EAF0A3E9F0900A1FE4B4
:10022200F0A3740CF0D001D002D003124825900A3A
:1002320083E0FEA3E0FFEF241AFFEE3400FEAA06DD
:10024200A9077B01126C35900A83E0FEA3E0FFEF61
:100252002418FFEE3400FEAA06A9077B01126C35B2
:10026200900A83E0FEA3E0FFAA06A9077B01900A99
:1002720083E0FEA3E0FF8F828E83E5822418F5825D
:10028200E5833400F583E0FEA3E0FF900A4DEEF033
:10029200A3EFF0900A83E0FEA3E0FF8F828E83E556
:1002A20082241AF582E5833400F583E0FEA3E0FFA1
:1002B200900A4FEEF0A3EFF07D0C7F00125C1990D4
:1002C2000A81E0FF90055BEFF0900A80E0FF900565
:0E02D2005CEFF0900535E0FF7D00127E2622E5
:1002E000900A81E0FF9005E5EFF0900A80E0FF9032
:1002F00005E6EFF09005B3E0FF7D00127E26229028
:100300000A81E0FF90053BEFF0900A80E0FF900546
:0E0310003CEFF09005CBE0FF7D00127E262230
:10031E00900A7CE0FBA3E0FAA3E0F9E92404F9EAF1
:10032E003400FAAE02AF01900A83EEF0A3EFF09024
:10033E000A83E0FEA3E0FFAA06A9077B01C003C063
:10034E0002C001900A83E0FEA3E0FFAA06A9077B84
:10035E0001900A1CEBF0A3EAF0A3E9F0900A1FE467
:10036E00F0A3740CF0D001D002D003124825900AED
:10037E0083E0FEA3E0FFAA06A9077B017D0C7F00A8
:10038E00126A5A900A81E0FF9005CEEFF0900A8033
:10039E00E0FF9005CFEFF09005A5E0FF7D00127E07
:0203AE00262205
:1003B000900A81E0FF9005B6EFF0900A80E0FF9090
:1003C00005B7EFF090059BE0FF7D00127E2622909E
:1003D0000A81E0FF9005A2EFF0900A80E0FF90050F
:0E03E000A3EFF0900587E0FF7D00127E26223D
:1003EE00900A7CE0FBA3E0FAA3E0F9E92404F9EA21
:1003FE003400FAAE02AF01900A83EEF0A3EFF09054
:10040E000A83E0FEA3E0FFAA06A9077B01C003C092
:10041E0002C001900A83E0FEA3E0FFAA06A9077BB3
:10042E0001900A1CEBF0A3EAF0A3E9F0900A1FE496
:10043E00F0A37402F0D001D002D003124825900A26
:10044E0083E0FEA3E0FFAA06A9077B011273B69014
:10045E000A81E0FF900541EFF0900A80E0FF9005E1
:0E046E0042EFF09005D0E0FF7D00127E2622C6
:10047C00900A81E0FF9005D1EFF0900A80E0FF90A8
:10048C0005D2EFF090058AE0FF7D00127E262290C7
:10049C000A81E0FF900551EFF0900A80E0FF900593
:1004AC0052EFF09005E7E0FF7D00127E2622900AC5
:1004BC0081E0FF900536EFF0900A80E0FF90053761
:0D04CC00EFF09005B8E0FF7D00127E2622C3
:1004D900900A7CE0FBA3E0FAA3E0F9E92404F9EA35
:1004E9003400FAAE02AF01900A83EEF0A3EFF09068
:1004F9000A81E0FF9005E8EFF0900A80E0FF90059F
:10050900E9EFF0900A83E0FEA3E0FF8F828E83E09B
:10051900FF9005EAEFF09005B4E0FF7D00127E261A
:0105290022AF
:10052A00900A7CE0FBA3E0FAA3E0F9E92404F9EAE3
:10053A003400FAAE02AF01900A83EEF0A3EFF09016
:10054A000A81E0FF900557EFF0900A80E0FF9005DE
:10055A0058EFF0900A83E0FEA3E0FF8F828E83E0DB
:10056A00FEA3E0FF900559EEF0A3EFF07B017A05B8
:10057A007959126C359005ECE0FF7D00127E262237
:10058A00900A81E0FF900570EFF0900A80E0FF90FA
:0F059A000571EFF090053EE0FF7D00127E2622F6
:1005A900900A7CE0FBA3E0FAA3E0F9E92404F9EA64
:1005B9003400FAAE02AF01900A83EEF0A3EFF09097
:1005C9000A81E0FF900539EFF0900A80E0FF90057D
:1005D9003AEFF0900A83E0FEA3E0FFAA06A9077BA1
:1005E90001126C35900A83E0FEA3E0FFEF2402FFBD
:1005F900EE3400FEAA06A9077B01126C35900A8326
:10060900E0FEA3E0FF8F828E83E0FEA3E0FF900A65
:1006190083E0FCA3E0FD8D828C83A3A3E0FCA3E02F
:10062900FD900A83E0FAA3E0FB8B828A83E58224AA
:1006390004F582E5833400F583E0FB127ACA90055C
:09064900CAE0FF7D00127E2622AA
:10065200900A8374C8F0900A847472F0900A85E458
:10066200F07B017A0A7983900A81E0FF900A36EFE3
:10067200F0900A80E0FF900A37EFF0900A38740198
:10068200F07D037C00123450EF70D67F0F7E001293
:06069200848E75EF0222C8
:10069800900A7CE0FBA3E0FAA3E0F9E92404F9EA74
:1006A8003400FAAE02AF01900A83EEF0A3EFF090A7
:1006B8000A81E0FF9005B9EFF0900A80E0FF90050D
:1006C800BAEFF0900A83E0FEA3E0FF8F828E83E00A
:1006D800FF9005BBEFF0900A83E0FEA3E0FF8F8256
:1006E8008E83A3E0FF9005BCEFF0900A83E0FEA3A1
:1006F800E0FF8F828E83A3A3E0FF9005BDEFF0900B
:100708000A83E0FEA3E0FF8F828E83A3A3A3E0FF0A
:100718009005BEEFF0900A83E0FEA3E0FF8F828E83
:1007280083E5822404F582E5833400F583E0FF90B5
:1007380005BFEFF0900A83E0FEA3E0FF8F828E836F
:10074800E5822405F582E5833400F583E0FF900512
:10075800C0EFF0900A83E0FEA3E0FFEF2406FFEE6F
:100768003400FEAA06A9077B01C003C002C0017BB2
:10077800017A0579C1A801AC02AD03D001D002D03D
:10078800037E007F08121C47900586E0FF7D00125B
:030798007E262298
:10079B00900A81E0FF90059EEFF0900A80E0FF90B9
:0F07AB00059FEFF0900584E0FF7D00127E26226F
:1007BA00900A7CE0FBA3E0FAA3E0F9E92404F9EA51
:1007CA003400FAAE02AF01900A83EEF0A3EFF09084
:1007DA000A81E0FF900561EFF0900A80E0FF900542
:1007EA0062EFF0900A83E0FEA3E0FF8F828E83E03F
:1007FA00FEA3E0FF900563EEF0A3EFF07B017A051C
:10080A007963126C35900A83E0FEA3E0FF8F828E33
:10081A0083A3A3E0FEA3E0FF900565EEF0A3EFF04B
:10082A007B017A057965126C35900A83E0FEA3E0B4
:10083A00FF8F828E83E5822404F582E5833400F5F6
:10084A0083E0FEA3E0FF900567EEF0A3EFF07B01E3
:10085A007A057967126C35900A83E0FEA3E0FF8F70
:10086A00828E83E5822406F582E5833400F583E0EF
:10087A00FEA3E0FF900569EEF0A3EFF07B017A0595
:10088A007969126C35900A83E0FEA3E0FF8F828EAD
:10089A0083E5822408F582E5833400F583E0FEA32C
:1008AA00E0FF90056BEEF0A3EFF07B017A05796B20
:0E08BA00126C359005C9E0FF7D00127E2622EB
:1008C800900A81E0FF9005B0EFF0900A80E0FF9079
:1008D80005B1EFF090059AE0FF7D00127E26229088
:1008E8000A81E0FF9005A0EFF0900A80E0FF9005F4
:1008F800A1EFF0900585E0FF7D00127E2622900A88
:1009080081E0FF900579EFF0900A80E0FF90057A8A
:10091800EFF0900550E0FF7D00127E2622900A81BC
:10092800E0FF9005AAEFF0900A80E0FF9005ABEF9A
:10093800F0900592E0FF7D00127E2622900A81E069
:10094800FF90054BEFF0900A80E0FF90054CEFF028
:100958009005D5E0FF7D00127E2622900A81E0FFF7
:1009680090058DEFF0900A80E0FF90058EEFF090F3
:0A0978000578E0FF7D00127E2622C4
:10098200900A7CE0FBA3E0FAA3E0F9E92404F9EA87
:100992003400FAAE02AF01900A83EEF0A3EFF090BA
:1009A2000A83E0FEA3E0FFEF2401FFEE3400FEAA7B
:1009B20006A9077B01126C35900A83E0FEA3E0FFD3
:1009C2008F828E83E0FF900A83E0FCA3E0FD8D829C
:1009D2008C83A3E0FCA3E0FD127B10900A81E0FF70
:1009E2009005A6EFF0900A80E0FF9005A7EFF09047
:0A09F200058FE0FF7D00127E262233
:1009FC00900A7CE0FBA3E0FAA3E0F9E92404F9EA0D
:100A0C003400FAAE02AF01900A83EEF0A3EFF0903F
:100A1C000A83E0FEA3E0FF8F828E83E0FF127DE766
:100A2C00900A81E0FF9005A8EFF0900A80E0FF901B
:0F0A3C0005A9EFF0900590E0FF7D00127E2622C5
:100A4B00900A81E0FF9005E3EFF0900A80E0FF90C1
:100A5B0005E4EFF09005B2E0FF7D00127E262290B8
:100A6B000A81E0FF900588EFF0900A80E0FF900587
:0E0A7B0089EFF0900576E0FF7D00127E2622C6
:100A8900900A7CE0FBA3E0FAA3E0F9E92404F9EA7F
:100A99003400FAAE02AF01900A83EEF0A3EFF090B2
:100AA9000A83E0FEA3E0FFAA06A9077B01126C35C1
:100AB900900A83E0FEA3E0FFEF2402FFEE3400FE7C
:100AC900AA06A9077B01126C35900A83E0FEA3E010
:100AD900FFEF2404FFEE3400FEAA06A9077B0112EA
:100AE9006C35900A83E0FEA3E0FFEF2406FFEE34A5
:100AF90000FEAA06A9077B01126C35900A83E0FE65
:100B0900A3E0FF8F828E83E0FEA3E0FFC006C0074B
:100B1900900A83E0FEA3E0FF8F828E83A3A3E0FC0B
:100B2900A3E0FD900A83E0FEA3E0FF8F828E83E5B8
:100B3900822404F582E5833400F583E0FAA3E0FB1F
:100B4900900A83E0FEA3E0FF8F828E83E58224066C
:100B5900F582E5833400F583E0FEA3E0FF900A6E99
:100B6900EEF0A3EFF0900A81E0FF900A70EFF090A9
:100B79000A80E0FF900A71EFF0D007D006126E6983
:0B0B8900900540E0FF7D00127E262258
:100B9400900A7CE0FBA3E0FAA3E0F9E92404F9EA73
:100BA4003400FAAE02AF01900A83EEF0A3EFF090A6
:100BB4000A81E0FF9005D6EFF0900A80E0FF9005EF
:100BC400D7EFF0900A83E0FEA3E0FFAA06A9077B13
:100BD40001C003C002C0017B017A0579D8A801AC29
:100BE40002AD03D001D002D0037E007F08121C475F
:0B0BF4009005AFE0FF7D00127E26227E
:100BFF00900A81E0FF9005CCEFF0900A80E0FF9023
:100C0F0005CDEFF09005A4E0FF7D00127E26229027
:100C1F000A81E0FF900543EFF0900A80E0FF900516
:0E0C2F0044EFF09005D3E0FF7D00127E2622F8
:100C3D00900A7CE0FBA3E0FAA3E0F9E92404F9EAC9
:100C4D003400FAAE02AF01900A83EEF0A3EFF0127A
:100C5D008A1D128810EF6003020DDB900A83E0FEFF
:100C6D00A3E0FFEF2401FFEE3400FEAA06A9077BE7
:100C7D0001126C35900A83E0FEA3E0FFEF2403FF21
:100C8D00EE3400FEAA06A9077B01126C35900A838B
:100C9D00E0FEA3E0FFEF2405FFEE3400FEAA06A957
:100CAD00077B01125194900A83E0FEA3E0FFEF242D
:100CBD0009FFEE3400FEAA06A9077B01125194909C
:100CCD000A83E0FEA3E0FFEF240DFFEE3400FEAA41
:100CDD0006A9077B01125194900A83E0FEA3E0FF61
:100CED00EF2411FFEE3400FEAA06A9077B01125175
:100CFD0094900A83E0FEA3E0FFEF2415FFEE34008D
:100D0D00FEAA06A9077B01125194900A83E0FEA367
:100D1D00E0FFEF2419FFEE3400FEAA06A9077B01C0
:100D2D00125194900A83E0FEA3E0FFEF241DFFEE25
:100D3D003400FEAA06A9077B01125194900A83E0A4
:100D4D00FEA3E0FFEF2421FFEE3400FEAA06A90763
:100D5D007B01125194900A83E0FEA3E0FFEF24255E
:100D6D00FFEE3400FEAA06A9077B01125194900AEA
:100D7D0083E0FEA3E0FFEF2429FFEE3400FEAA0678
:100D8D00A9077B01125194900A81E0FF900A80E03F
:100D9D00FD900A83E0FAA3E0FB8B828A83E0FBC01F
:100DAD0003900A83E0FAA3E0FBEB2401FBEA340095
:100DBD00FAA9037B01900B22EBF0A3EAF0A3E9F073
:100DCD00D003125F07128A1D7D00127E2622900A23
:100DDD0081E0FF90056EEFF0900A80E0FF90056FC7
:0D0DED00EFF090053DE0FF7D00127E262214
:100DFA00900A7CE0FBA3E0FAA3E0F9E92404F9EA0B
:100E0A003400FAAE02AF01900A83EEF0A3EFF0903D
:100E1A000A81E0FF90054DEFF0900A80E0FF90050F
:100E2A004EEFF0900A83E0FEA3E0FF8F828E83E00C
:100E3A00FF90054FEFF09005E0E0FF7D00127E265F
:010E4A002285
:100E4B00900A7CE0FBA3E0FAA3E0F9E92404F9EAB9
:100E5B003400FAAE02AF01900A83EEF0A3EFF090EC
:100E6B000A83E0FEA3E0FF8F828E83E0FF900A836C
:100E7B00E0FCA3E0FD8D828C83A3E0FD125627904E
:100E8B000A81E0FF90058BEFF0900A80E0FF900560
:0E0E9B008CEFF0900577E0FF7D00127E26229E
:100EA900900A81E0FF90059CEFF0900A80E0FF90A6
:0F0EB900059DEFF090057EE0FF7D00127E262262
:100EC800900A7CE0FBA3E0FAA3E0F9E92404F9EA3C
:100ED8003400FAAE02AF01900A83EEF0A3EFF0906F
:100EE8000A81E0FF900574EFF0900A80E0FF90051A
:100EF80075EFF0900A83E0FEA3E0FF8F828E83E017
:100F0800FFEF70077F0112833680057F001283365A
:0B0F180090053FE0FF7D00127E2622C6
:100F2300900A7CE0FBA3E0FAA3E0F9E92404F9EAE0
:100F33003400FAAE02AF01900A83EEF0A3EFF09013
:100F43000A83E0FEA3E0FF8F828E83E0FF900556C5
:100F5300EFF0900A81E0FF900554EFF0900A80E0F3
:100F6300FF900555EFF09005EBE0FF7D00127E2624
:010F7300225B
:100F7400900A7CE0FBA3E0FAA3E0F9E92404F9EA8F
:100F84003400FAAE02AF01900A83EEF0A3EFF090C2
:100F94000A83E0FEA3E0FF8F828E83E0FF9005AE1C
:100FA400EFF0900A81E0FF9005ACEFF0900A80E04A
:100FB400FF9005ADEFF0900599E0FF7D00127E26CD
:010FC400220A
:100FC500900A7CE0FBA3E0FAA3E0F9E92404F9EA3E
:100FD5003400FAAE02AF01900A83EEF0A3EFF09071
:100FE5000A81E0FF900549EFF0900A80E0FF900547
:100FF5004AEFF0900A83E0FEA3E0FF8F828E83E044
:10100500FF900546EFF0900A83E0FEA3E0FF8F8294
:101015008E83A3E0FEA3E0FF900547EEF0A3EFF07B
:101025007B017A057947126C359005D4E0FF7D0088
:04103500127E2622DF
:10103900900A7CE0FBA3E0FAA3E0F9E92404F9EAC9
:101049003400FAAE02AF01900A83EEF0A3EFF090FC
:101059000A81E0FF90055DEFF0900A80E0FF9005BE
:101069005EEFF0900A83E0FEA3E0FF8F828E83E0BB
:10107900FF90055FEFF0900A83E0FEA3E0FF8F8207
:101089008E83A3E0FF900560EFF0900545E0FF7DBA
:0510990000127E26227A
:10109E00900A7CE0FBA3E0FAA3E0F9E92404F9EA64
:1010AE003400FAAE02AF01900A83EEF0A3EFF09097
:1010BE000A81E0FF900593EFF0900A80E0FF900523
:1010CE0094EFF0900A83E0FEA3E0FF8F828E83E020
:1010DE00FF900595EFF0900A83E0FEA3E0FF8F826C
:1010EE008E83A3E0FEA3E0FF900596EEF0A3EFF053
:1010FE007B017A057996126C35900A83E0FEA3E0A7
:10110E00FF8F828E83A3A3A3E0FF900598EFF0904C
:0A111E00057BE0FF7D00127E262213
:10112800900A7CE0FBA3E0FAA3E0F9E92404F9EAD9
:101138003400FAAE02AF01900A83EEF0A3EFF0900C
:101148000A81E0FF90057FEFF0900A80E0FF9005AC
:1011580080EFF0900A83E0FEA3E0FF8F828E83E0A9
:10116800FF900581EFF0900A83E0FEA3E0FF8F82F5
:101178008E83A3E0FEA3E0FF900582EEF0A3EFF0DC
:101188007B017A057982126C3590056DE0FF7D0050
:04119800127E26227B
