:09AC8B000001020304050607089C
:10A2610075840075BA0075BC18901083E4F075BB55
:10A271000075D1077E007F127D007B017A10798401
:10A28100121A2175E80C12A76A43E88043E702D24B
:02A29100AF22FA
:03007B00027B51B4
:107B5100C0E0C0F0C083C082C0D075D00853E7FD3B
:107B6100C2EDAFBF7E00901083E0FDED25E02484DF
:107B7100F582E43410F583EEF0A3EFF0901083E08A
:107B8100FFEF25E02484F582E43410F583C083C03F
:107B910082E0FEA3E0FFEF7F00FED082D083EEF013
:107BA100A3EFF0901083E0FFEF25E02484F582E459
:107BB1003410F583C083C082E0FEA3E0FFADBE7C3C
:107BC10000EE4CFEEF4DFFD082D083EEF0A3EFF03C
:107BD10012A59A43E702D0D0D082D083D0F0D0E072
:017BE1003271
:1081CF00901249EFF090124AEDF090124BEBF0A3A2
:1081DF00EAF0A3E9F053E7FD901249E0FF7E00902B
:1081EF00124AE0FD7C00C3ED9FFFEC9EFEEF2401E1
:1081FF00FFEE3400FEEF25E0FFEE33FEC006C007B2
:10820F00901249E0FF7E02EF8EF0A4FFAEF074846F
:10821F002FF974103EFA7B01C003C002C001901207
:10822F004BE0FBA3E0FAA3E0F9A801AC02AD03D049
:10823F0001D002D003D007D0061214ED43E702227B
:10A59A00C0D075D008901083E004FFF0EFB409052D
:10A5AA00901083E4F0901083E0FFEF90AC8B93FF60
:05A5BA008FBBD0D02290
:08633900450F260004020601D5
:10A5E400C200C201758400759A4075F809759DFF13
:10A5F40075840F43A60743E10243E34043F6014356
:03A60400E601224A
:1086150090119FEEF0A3EFF09011A1EBF0A3EAF01B
:10862500A3E9F075840053E6FE9011A1E0FBA3E0F9
:10863500FAA3E0F9AE02AF01900EC0EEF0A3EFF0A1
:1086450090119FE0FEA3E0FF900EBFEFF09011A404
:10865500E0FBA3E0FAA3E0F9900EBCEBF0A3EAF08F
:10866500A3E9F0900EBBE4F0900EBBE0FF04F074BC
:10867500C22FF582E4340EF583E0FF8F9B43E601BC
:038685007F002251
:03003300025DF378
:105DF300C0E0C0F0C083C082C0D075D01820FF03BC
:105E0300025EA2C2FF30010375A0FD900EBBE0FF4E
:105E13007E00EF24FFFFEE34FFFE900EC0E0FCA3F4
:105E2300E0FD8D828C83E5822FF582E5833EF58349
:105E3300E59BF0900EBFE0FF900EBBE0FEEEC39F2C
:105E4300503730011B900F2BE4F0900F2BE0FFEF46
:105E5300C394145008900F2BE004F080ED75A0F864
:105E6300900EBBE0FF04F074C22FF582E4340EF50C
:105E730083E0FF8F9B807D8026900EBFE0FF900E16
:105E8300BBE0FEEEB51F18900EBCE0FBA3E0FAA347
:105E9300E0F989828A837F007E001219F2805530EF
:105EA300FE1AC2FE900EBCE0FBA3E0FAA3E0F98960
:105EB300828A837F027E001219F2803830FD1AC273
:105EC300FD900EBCE0FBA3E0FAA3E0F989828A838C
:105ED3007F037E001219F2801B30FC18C2FC900E67
:105EE300BCE0FBA3E0FAA3E0F989828A837F047E06
:0F5EF300001219F2D0D0D082D083D0F0D0E0329C
:0BAC6C003000037F0122D2007F002295
:03000600C2002213
:10A35600901386EFF0901387EDF0901387E0FFEFF0
:10A36600B40117901386E0FF74262FF582E4340FAC
:0EA37600F583E0FFEF44F8F5A02275A0FD226C
:07ACDA007B017A0E79C22212
:10AAA1009013BCEFF09013BCE0FFEF24FF92012262
:109E5C00A2AF9204C2AF75840043911043910F7569
:109E6C00985012A885C299C298D2ACD2BCA20492C6
:109E7C00AF75840F43E10443E340900000E4F0909D
:0F9E8C000101E4F0900102E4F090010374FFF093
:019E9B0022A4
:10A1920053E7BF7584017598105398FC43F740123A
:10A1A200A8D075840F43E30443E3409001A7E4F091
:10A1B2009002A8E4F09002A9E4F09002AA74FFF0E1
:04A1C20043E740220D
:03002300027C73E9
:0D7C7300C0E0C0F0C083C082C0D075D0104A
:107C8000C2ACE59130E70353917FE59130E60353B1
:107C900091BF309816C2989013BDE599F07B017A98
:107CA0000179049013BDE0FD125CE1309946C29960
:107CB000900102E0FF900101E0FEEE6F6031900163
:107CC00002E0FF74012FF582E43400F583E0FF8FBA
:107CD00099900102E0FF7E00EF2401FFEE3400FEE8
:107CE0007E00900102EFF0900103E004F080059027
:067CF0000000E4F0D2AC3C
:0B7CF600D0D0D082D083D0F0D0E0329C
:0300A3000282CE08
:1082CE00C0E0C0F0C083C082C0D075D01053E7BFED
:1082DE00E59830E00E5398FE7B017A0279ABAD99AA
:1082EE00125CE1E59830E1475398FD9002A9E0FF5A
:1082FE009002A8E0FEEE6F60319002A9E0FF74A834
:10830E002FF582E43401F583E0FF8F999002A9E006
:10831E00FF7E00EF2401FFEE3400FE7E009002A9E6
:10832E00EFF09002AAE004F080059001A7E4F0437C
:0D833E00E740D0D0D082D083D0F0D0E03224
:109BA90090124EEBF0A3EAF0A3E9F0901251EDF018
:109BB900901252E0FFEF701490124EE0FBA3E0FA0E
:109BC900A3E0F9901251E0FD1245BA22901252E039
:109BD900FFEFB4011390124EE0FBA3E0FAA3E0F902
:099BE900901251E0FD1247912297
:1045BA00901169EBF0A3EAF0A3E9F090116CEDF029
:1045CA007B017A00790090116FEBF0A3EAF0A3E97E
:1045DA00F075840090116FE0FBA3E0FAA3E0F9758F
:1045EA00820375830112152CFF90116CE0FEEFC354
:1045FA009E50037F012290116DE4F090116CE0FF50
:10460A0090116DE0FEEEC39F40030246D1A2ACE4D6
:10461A0033FF90116EEFF0C2AC901169E0FBA3E09A
:10462A00FAA3E0F990116DE0FF8F827583001215ED
:10463A002CFF90116FE0FBA3E0FAA3E0F975820169
:10464A0075830112152CFEEEFD7C0090116FE0FBC4
:10465A00A3E0FAA3E0F9E92401F9EA3400FAE92D22
:10466A00F9EA3CFAEF1215AE90116FE0FBA3E0FAFB
:10467A00A3E0F975820175830112152CFF7E00EF04
:10468A002401FFEE3400FE7E0090116FE0FBA3E0F0
:10469A00FAA3E0F9758201758301EF1215C0901132
:1046AA006FE0FBA3E0FAA3E0F97582037583017456
:1046BA00FF12157B90116EE0FFEF24FF92AC901170
:1046CA006DE004F0024605A2ACE433FF90116EEFF0
:1046DA00F0C2AC90116FE0FBA3E0FAA3E0F9121567
:1046EA0013FFEF600302478490116FE0FBA3E0FA27
:1046FA00A3E0F974011215AE90116FE0FBA3E0FA82
:10470A00A3E0F975820275830112152CFF7E0090D1
:10471A00116FE0FBA3E0FAA3E0F9E92401F9EA3416
:10472A0000FAE92FF9EA3EFA121513FF8F99901150
:10473A006FE0FBA3E0FAA3E0F97582027583011228
:10474A00152CFF7E00EF2401FFEE3400FE7E009060
:10475A00116FE0FBA3E0FAA3E0F975820275830109
:10476A00EF1215C090116FE0FBA3E0FAA3E0F97510
:10477A008203758301740112157B90116EE0FFEFBD
:06478A0024FF92AC7F0049
:014790002206
:10479100901172EBF0A3EAF0A3E9F0901175EDF03E
:1047A1007B017A0179A7901178EBF0A3EAF0A3E9F4
:1047B100F0758401901178E0FBA3E0FAA3E0F975AC
:1047C100820375830112152CFF901175E0FEEFC372
:1047D1009E50037F0122901176E4F0901175E0FF65
:1047E100901176E0FEEEC39F40030248A7E5E7542F
:1047F10040FF901177EFF053E7BF901172E0FBA3F8
:10480100E0FAA3E0F9901176E0FF8F827583001240
:10481100152CFF901178E0FBA3E0FAA3E0F9758273
:104821000175830112152CFEEEFD7C00901178E0DC
:10483100FBA3E0FAA3E0F9E92401F9EA3400FAE97B
:104841002DF9EA3CFAEF1215AE901178E0FBA3E0E6
:10485100FAA3E0F975820175830112152CFF7E0020
:10486100EF2401FFEE3400FE7E00901178E0FBA3FF
:10487100E0FAA3E0F9758201758301EF1215C0908A
:104881001178E0FBA3E0FAA3E0F9758203758301D7
:1048910074FF12157B901177E0FFEF42E7901176DC
:1048A100E004F00247DCE5E75440FF901177EFF0B8
:1048B10053E7BF901178E0FBA3E0FAA3E0F91215EA
:1048C10013FFEF600302495B901178E0FBA3E0FA6C
:1048D100A3E0F974011215AE901178E0FBA3E0FAA0
:1048E100A3E0F975820275830112152CFF7E0090F9
:1048F1001178E0FBA3E0FAA3E0F9E92401F9EA3435
:1049010000FAE92FF9EA3EFA121513FF8F99901177
:1049110078E0FBA3E0FAA3E0F97582027583011246
:10492100152CFF7E00EF2401FFEE3400FE7E009087
:104931001178E0FBA3E0FAA3E0F975820275830127
:10494100EF1215C0901178E0FBA3E0FAA3E0F9752E
:104951008203758301740112157B901177E0FFEFDB
:0449610042E77F00AA
:01496500222F
:10A74C009013BEEFF09013BEE0FF7E007C017DA75E
:0EA75C001215E274042FF974013EFA7B0122FB
:10AA6B00A2ACE433FF9013BFEFF0C2AC9013BFE086
:01AA7B00FFDB
:01AA7C0022B7
:10AA4500E5E75440FF9013C0EFF053E7BF9013C004
:02AA5500E0FF20
:01AA570022DC
:10AA7D00A2ACE433FF9013C1EFF0D2AC9013C1E060
:01AA8D00FFC9
:01AA8E0022A5
:10AA5800E5E75440FF9013C2EFF043E7409013C27C
:02AA6800E0FF0D
:01AA6A0022C9
:0CAC480090064BE4F090064C74FFF022E4
:0B88BF009012A3EBF0A3EAF0A3E9F095
:1088CA0090064BE0FFEFC3945540037FFF229006CA
:1088DA004BE0FF9012A6EFF09012A3E0FBA3E0FAA0
:1088EA00A3E0F99012A6E0FF75F009EFA4244EF573
:1088FA0082E5F03403F583EBF0A3EAF0A3E9F09004
:10890A0012A6E0FF75F009EFA42452F582E5F034CF
:10891A0003F583E4F090064BE004F09012A6E0FF22
:01892A00222A
:109F9A00901388EFF0901389EDF0901388E0FF7525
:109FAA00F009EFA42452F582E5F03403F583740234
:109FBA00F0901389E0FF901388E0FE75F009EEA493
:0D9FCA002451F582E5F03403F583EFF02219
:109FD7009013C3EFF09013C3E0FFEFB4FF179006A1
:109FE7004CE0FF75F009EFA42452F582E5F0340345
:109FF700F583E4F0229013C3E0FF75F009EFA42482
:0CA0070052F582E5F03403F583E4F0220A
:10A04C009013C4EFF09013C4E0FF90064CE0FE7543
:10A05C00F009EEA42451F582E5F03403F583EFF01A
:10A06C0090064CE0FF75F009EFA42452F582E5F060
:08A07C003403F5837402F022A5
:1070DF0090132FEFF0901330ECF0A3EDF090132FEF
:1070EF00E0FFEF64FF705290064CE0FF75F009EF80
:1070FF00A42452F582E5F03403F5837403F090066F
:10710F004CE0FF7E09EF8EF0A4FFAEF074532FF921
:10711F0074033EFA7B01C003C002C001901330E03C
:10712F00FEA3E0FF7C007D0A1215F4AC06AD07D07C
:10713F0001D002D003129BF22290132FE0FF75F0C3
:10714F0009EFA42452F582E5F03403F5837403F0BC
:10715F0090132FE0FF7E09EF8EF0A4FFAEF0745373
:10716F002FF974033EFA7B01C003C002C0019013D4
:10717F0030E0FEA3E0FF7C007D0A1215F4AC06ADF3
:0B718F0007D001D002D003129BF222B7
:105752009013C5E4F090064BE0FF9013C5E0FEEE17
:10576200C39F400302587D90064BE0FF90064CE039
:1057720004FEF0EEB5070590064CE4F090064CE00E
:10578200FF75F009EFA42452F582E5F03403F583A6
:10579200E0FFEF6402705190064CE0FF75F009EFF4
:1057A200A42452F582E5F03403F5837401F09006E7
:1057B2004CE0FF75F009EFA42451F582E5F03403C3
:1057C200F583E0FF90064CE0FE75F009EEA4244E4E
:1057D200F582E5F03403F583E0FBA3E0FAA3E0F9F8
:1057E20089828A831219F22290064CE0FF75F00931
:1057F200EFA42452F582E5F03403F583E0FFEF6471
:1058020003706F90064CE0FF7E09EF8EF0A4FFAEAE
:10581200F074532FF974033EFA7B01129657EF602E
:105822005190064CE0FF75F009EFA42452F582E591
:10583200F03403F5837401F090064CE0FF75F00933
:10584200EFA42451F582E5F03403F583E0FF9006DE
:105852004CE0FE75F009EEA4244EF582E5F0340327
:10586200F583E0FBA3E0FAA3E0F989828A831219A7
:0B587200F2229013C5E004F00257572B
:01587D002208
:10A7E0009013C6EFF09013C6E0FF75F009EFA424B4
:0CA7F00052F582E5F03403F583E0FF220F
:10746F00901332EBF0A3EAF0A3E9F0901332E0FBB4
:10747F00A3E0FAA3E0F975820375830074951215E2
:10748F00C0901332E0FBA3E0FAA3E0F97582017517
:10749F008300E41215C0901332E0FBA3E0FAA3E0DF
:1074AF00F9758202758300E41215C0901332E0FB68
:1074BF00A3E0FAA3E0F9758205758300E41215C005
:1074CF00901332E0FBA3E0FAA3E0F9758204758311
:1074DF0000E41215C0901332E0FBA3E0FAA3E0F929
:1074EF00E41215AE901332E0FBA3E0FAA3E0F975B6
:1074FF00820A758300E41215C0901332E0FBA3E0FB
:0F750F00FAA3E0F975820B758300E41215C02210
:105CE100C0D075D0109012A7EBF0A3EAF0A3E9F0B1
:105CF1009012AAEDF09012A7E0FBA3E0FAA3E0F95D
:105D010075820275830012152CFF9012A7E0FBA388
:105D1100E0FAA3E0F975820175830012152CFEEEFD
:105D2100B5171D9012A7E0FBA3E0FAA3E0F9758275
:105D31000575830012152CFFEF60057F03025DF0EE
:105D41009012AAE0FF9012A7E0FBA3E0FAA3E0F90A
:105D510075820175830012152CFEEEFD7C009012F8
:105D6100A7E0FBA3E0FAA3E0F9E9240DF9EA340086
:105D7100FAE92DF9EA3CFAEF1215AE9012A7E0FB11
:105D8100A3E0FAA3E0F975820375830012152CFFD5
:105D91009012A7E0FBA3E0FAA3E0F97582017583F5
:105DA1000012152CFEEEC39F50189012A7E0FBA322
:105DB100E0FAA3E0F9758201758300740112157B85
:105DC10080159012A7E0FBA3E0FAA3E0F975820128
:105DD100758300E41215C09012A7E0FBA3E0FAA3BB
:105DE100E0F9758205758300740112157B7F01D07E
:025DF100D022BE
:0B5BCE009011A7EBF0A3EAF0A3E9F0B0
:105BD9009011A7E0FBA3E0FAA3E0F97582057583AC
:105BE9000012152CFFEF70067F0322025CDE901174
:105BF900ADE0FFEF700A12AA6B9011AEEFF08008CA
:105C090012AA459011AEEFF09011A7E0FBA3E0FABC
:105C1900A3E0F975820275830012152CFF7E0090AE
:105C290011A7E0FBA3E0FAA3E0F9E9240DF9EA34AE
:105C390000FAE92FF9EA3EFA121513FF9011AAE0CA
:105C4900FBA3E0FAA3E0F9EF1215AE9011A7E0FB70
:105C5900A3E0FAA3E0F975820375830012152CFFFE
:105C69009011A7E0FBA3E0FAA3E0F975820275831E
:105C79000012152CFEEEC39F50189011A7E0FBA34C
:105C8900E0FAA3E0F9758202758300740112157BAD
:105C990080159011A7E0FBA3E0FAA3E0F975820251
:105CA900758300E41215C09011A7E0FBA3E0FAA3E5
:105CB900E0F975820575830074FF12157B9011AEAA
:105CC900E0FFEF60109011ADE0FFEF700512AA7DC3
:075CD900800312AA587F01AD
:015CE00022A1
:10884F00901335EBF0A3EAF0A3E9F0901335E0FBBA
:10885F00A3E0FAA3E0F97582037583007402121581
:10886F00C0901335E0FBA3E0FAA3E0F9758202751F
:10887F008300E41215C0901335E0FBA3E0FAA3E0E8
:10888F00F9758201758300E41215C0901335E0FB72
:10889F00A3E0FAA3E0F9758204758300E41215C012
:1088AF00901335E0FBA3E0FAA3E0F9E41215AE2232
:10960100901338EBF0A3EAF0A3E9F0901338E0FBF4
:10961100A3E0FAA3E0F975820375830012152CFF0C
:10962100901338E0FBA3E0FAA3E0F9758204758397
:109631000012152CFEEEB507057EFF7FFF22901369
:1096410038E0FBA3E0FAA3E0F9758202758300120A
:06965100152CFF7E002233
:107F2D00901253EBF0A3EAF0A3E9F0901256ECF0A7
:107F3D00A3EDF0901253E0FBA3E0FAA3E0F97582F4
:107F4D000375830012152CFF7E00EF24FFFFEE3426
:107F5D00FFFE901256E0FCA3E0FDD3ED9FEE648092
:107F6D00F8EC6480985010901256E0FEA3E0FFC329
:107F7D00EE6480948050077B007A00790022901285
:107F8D0053E0FBA3E0FAA3E0F9E92406F9EA340093
:107F9D00FA901256E0FEA3E0FF7C007D461215E23A
:077FAD00E92FF9EA3EFA2278
:1084B60090133BEBF0A3EAF0A3E9F090133BE0FB4B
:1084C600A3E0FAA3E0F975820375830012152CFF69
:1084D60090133BE0FBA3E0FAA3E0F97582027583F3
:1084E60000740112157BFEEEB5071590133BE0FBF9
:1084F600A3E0FAA3E0F9758202758300E41215C0C1
:1085060090133BE0FBA3E0FAA3E0F9E41215AE906A
:10851600133BE0FBA3E0FAA3E0F975820475830040
:06852600740112157B2216
:109E9C0090133EEBF0A3EAF0A3E9F090133EE0FB45
:109EAC00A3E0FAA3E0F975820475830012152CFF68
:109EBC00EF70057EFF7FFF2290133EE0FBA3E0FADC
:109ECC00A3E0F975820175830012152CFF7E002228
:10824F00901341EBF0A3EAF0A3E9F0901341E0FBA8
:10825F00A3E0FAA3E0F975820475830012152CFFD1
:10826F00EF605B901341E0FBA3E0FAA3E0F97582A6
:10827F000375830012152CFF901341E0FBA3E0FA66
:10828F00A3E0F9758201758300740112157BFEEE70
:10829F00B50715901341E0FBA3E0FAA3E0F975824F
:1082AF0001758300E41215C0901341E0FBA3E0FABF
:0F82BF00A3E0F975820475830074FF12157B220A
:107BE20090120DEBF0A3EAF0A3E9F0901210ECF082
:107BF200A3EDF090120DE0FBA3E0FAA3E0F9121559
:107C020013FFEFC394465068901212E0FFC0079032
:107C1200120DE0FBA3E0FAA3E0F9E92406F9EA3445
:107C220000FA901210E0FEA3E0FF7C007D461215E0
:107C3200E2E92FF9EA3EFAC003C002C00190120D38
:107C4200E0FBA3E0FAA3E0F9121513FF7E00D001D6
:107C5200D002D003E92FF9EA3EFAD007EF1215AEAF
:107C620090120DE0FBA3E0FAA3E0F974011215599A
:017C720022EF
:109857009008E77497F09008E87497F07F0012A7D4
:109867004CAE02AF01900AADEEF0A3EFF07F01120C
:10987700A74CAE02AF01900B41EEF0A3EFF0900AB8
:10988700ADE0FEA3E0FFAA06A9077B0112746F9063
:109897000B41E0FEA3E0FFAA06A9077B0112746F44
:0198A700229E
:1027C500901096EBF0A3EAF0A3E9F0901099ECF0E5
:0327D500A3EDF081
:1027D8009010A2E4F090109BE0FFEFB4010B900D75
:1027E8004DE0FFEF60037F002290109FE0FFEF7045
:1027F8001F7E087FE99010A4EEF0A3EFF07B017A2A
:102808000879E79010A6EBF0A3EAF0A3E9F0801DA1
:102818007E0A7F149010A4EEF0A3EFF07B017A08F3
:1028280079E89010A6EBF0A3EAF0A3E9F090109EE7
:10283800E0FFEF600C90109DE0FF9010A3EFF08098
:10284800149010A6E0FBA3E0FAA3E0F9121513FF19
:102858009010A3EFF0901099E0FEA3E0FFD3EF945F
:1028680046EE940040037F01229010A4E0FEA3E00E
:10287800FF8F828E837455F09010A4E0FEA3E0FFD2
:102888008F828E83A37433F09010A07406F090109A
:102898009CE0FF9010A0E0FE04F09010A4E0FCA3E0
:1028A800E0FD8D828C83E5822EF582E43583F58305
:1028B800EFF090109CE0FFEFB455209010A0E0FFDF
:1028C80004F09010A4E0FCA3E0FD8D828C83E582E7
:1028D8002FF582E43583F58374AAF090109BE0FF0E
:1028E8009010A0E0FE04F09010A4E0FCA3E0FD8DA1
:1028F800828C83E5822EF582E43583F583EFF090B0
:10290800109BE0FFEFB455209010A0E0FF04F0907A
:1029180010A4E0FCA3E0FD8D828C83E5822FF58274
:10292800E43583F58374AAF09010A3E0FF9010A01B
:10293800E0FE04F09010A4E0FCA3E0FD8D828C83FF
:10294800E5822EF582E43583F583EFF09010A3E05D
:10295800FFEFB455209010A0E0FF04F09010A4E021
:10296800FCA3E0FD8D828C83E5822FF582E435831C
:10297800F58374AAF090109EE0FFEF70249010A6E3
:10298800E0FBA3E0FAA3E0F97401121559FFEF7018
:10299800109010A6E0FBA3E0FAA3E0F974971215D3
:1029A800AE9010A1E4F09010A1E0FF7E0090109985
:1029B800E0FCA3E0FDC3EF9DEE9C4003022A459096
:1029C8001096E0FBA3E0FAA3E0F99010A1E0FF8FD6
:1029D8008275830012152CFF9010A0E0FE04F09081
:1029E80010A4E0FCA3E0FD8D828C83E5822EF582A5
:1029F800E43583F583EFF0901096E0FBA3E0FAA3AB
:102A0800E0F99010A1E0FF8F8275830012152CFF6A
:102A1800EFB455209010A0E0FF04F09010A4E0FC63
:102A2800A3E0FD8D828C83E5822FF582E43583F562
:102A38008374AAF09010A1E004F00229AE9010A0CF
:102A4800E0FFEF24FAFFEF54FFFF9010A4E0FCA38F
:102A5800E0FD8D828C83A3A3EFF09010A4E0FEA389
:102A6800E0FF8F828E83A3A3A3E4F09010A0E0FF81
:102A78007E00EF24FAFFEE34FFFE7F00EEFF7E00BB
:102A88009010A4E0FCA3E0FD8D828C83E5822404F1
:102A9800F582E5833400F583EFF09010A4E0FEA3FF
:102AA800E0FF8F828E83E5822405F582E58334007A
:102AB800F583E4F09010A17406F09010A0E0FF9068
:102AC80010A1E0FEEEC39F502B9010A1E0FF9010E4
:102AD800A4E0FCA3E0FD8D828C83E5822FF582E4DF
:102AE8003583F583E0FF9010A2E02FF09010A1E06D
:102AF80004F080C69010A2E0FF9010A0E0FE04F061
:102B08009010A4E0FCA3E0FD8D828C83E5822EF575
:102B180082E43583F583EFF09010A4E0FEA3E0FF94
:102B2800AA06A9077B019010A0E0FD90109FE0FF86
:102B3800EF70047F0080027F01901252EFF0129B29
:092B4800A9EF60037F02227F0067
:012B51002261
:05719A0090138AEFF0E4
:10719F007B017A097982129601EF64FF7003EE6426
:1071AF00FF6043900AADE0FEA3E0FFAA06A9077BAC
:1071BF0001C003C002C0017B017A13798B9011AA21
:1071CF00EBF0A3EAF0A3E9F09011ADE4F0D001D019
:1071DF0002D003125BCEEFB4010C90138BE0FF7D56
:1071EF0000121B0180BD7B017A0A79AF129601EF65
:1071FF0064FF7003EE64FF6044900B41E0FEA3E078
:10720F00FFAA06A9077B01C003C002C0017B017A58
:10721F0013798B9011AAEBF0A3EAF0A3E9F0901188
:10722F00AD7401F0D001D002D003125BCEEFB401E8
:10723F000C90138BE0FF7D01121B0180BC90138A11
:05724F00E0FF12A04C5D
:017254002217
:0A1B010090112DEFF090112EEDF081
:101B0B0090112EE0FFEF701E900AADE0FEA3E0FFF8
:101B1B00901133EEF0A3EFF07E097F82901135EE3A
:101B2B00F0A3EFF0801C900B41E0FEA3E0FF9011BF
:101B3B0033EEF0A3EFF07E0A7FAF901135EEF0A3FA
:101B4B00EFF0901135E0FEA3E0FFAA06A9077B0199
:101B5B0012960190112FEEF0A3EFF090112FE0FEF3
:101B6B00A3E0FFEF64FF7003EE64FF70030222C873
:101B7B00901135E0FEA3E0FFAA06A9077B019011A7
:101B8B002FE0FCA3E0FD127F2DAE02AF01901131CF
:101B9B00EEF0A3EFF0901131E0FEA3E0FFEF4E70FB
:101BAB00030222C8901133E0FEA3E0FF8F828E83E5
:101BBB00E5822404F582E5833400F583E0FFEF1220
:101BCB0019C81BE9001C12011C52021CF4031DC393
:101BDB00041F580821310A20680B000022C89011FD
:101BEB002DE0FFEF645560030222C8901133E0FE35
:101BFB00A3E0FF8F828E83E5822404F582E5833494
:101C0B0000F5837401F02290112DE0FFEFB4331C2B
:101C1B00901133E0FEA3E0FF8F828E83E5822404D4
:101C2B00F582E5833400F5837402F022901133E0E2
:101C3B00FEA3E0FF8F828E83E5822404F582E58389
:101C4B003400F583E4F02290112DE0FF901133E086
:101C5B00FCA3E0FD8D828C83E5822407F582E5836E
:101C6B003400F583EFF090112DE0FFEFB455047FB6
:101C7B000180027F00901133E0FCA3E0FD8D828C8C
:101C8B0083E582240CF582E5833400F583EFF09035
:101C9B001133E0FEA3E0FF8F828E83E5822404F5EF
:101CAB0082E5833400F5837403F0901133E0FEA3D7
:101CBB00E0FF8F828E83E5822406F582E583340074
:101CCB00F5837404F0901135E0FEA3E0FFAA06A99A
:101CDB00077B0190112FE0FCA3E0FD90112DE0FF9D
:101CEB00901212EFF0127BE22290112DE0FFEF70B9
:101CFB0035901133E0FEA3E0FF8F828E83E58224C3
:101D0B0006F582E5833400F583E0FF901133E0FCA8
:101D1B00A3E0FD8D828C83E5822404F582E5833478
:101D2B0000F583EFF022901133E0FEA3E0FF8F82EA
:101D3B008E83E582240CF582E5833400F583E0FF86
:101D4B00EF604090112DE0FFEFB4331C901133E0A6
:101D5B00FEA3E0FF8F828E83E5822404F582E58368
:101D6B003400F5837402F022901133E0FEA3E0FF00
:101D7B008F828E83E5822404F582E5833400F5831C
:101D8B00E4F022901133E0FEA3E0FF8F828E83E517
:101D9B00822404F582E5833400F583E4F09011335B
:101DAB00E0FEA3E0FF8F828E83E582240CF582E5B3
:101DBB00833400F583E4F02290112DE0FFEFB4554E
:101DCB00047F0180027F00901133E0FCA3E0FD8DC6
:101DDB00828C83E582240CF582E5833400F583EF56
:101DEB00F0901133E0FEA3E0FF8F828E83E5822417
:101DFB0007F582E5833400F583E0FF90112DE0FEBB
:101E0B007E00EE4FFF901133E0FCA3E0FD8D828C42
:101E1B0083E5822407F582E5833400F583EFF090A8
:101E2B001135E0FEA3E0FFAA06A9077B0190112F55
:101E3B00E0FCA3E0FD90112DE0FF901212EFF012E9
:101E4B007BE2901133E0FEA3E0FF8F828E83E5826D
:101E5B002407F582E5833400F583E0FFEFD394008C
:101E6B005003021F18901133E0FEA3E0FF8F828E08
:101E7B0083E5822407F582E5833400F583E0FFEFE9
:101E8B00D394464003021F18901133E0FEA3E0FFEA
:101E9B008F828E83E5822408F582E5833400F583F7
:101EAB00E4F0901133E0FEA3E0FF8F828E83E58296
:101EBB002409F582E5833400F583E4F0901133E0D7
:101ECB00FEA3E0FF8F828E83E582240AF582E583F1
:101EDB003400F583E4F0901133E0FEA3E0FF8F8232
:101EEB008E83E5822406F582E5833400F58374083E
:101EFB00F0901133E0FEA3E0FF8F828E83E5822406
:101F0B0004F582E5833400F5837403F02290112DE0
:101F1B00E0FFEFB4551C901133E0FEA3E0FF8F827E
:101F2B008E83E5822404F582E5833400F583740106
:101F3B00F022901133E0FEA3E0FF8F828E83E582C7
:101F4B002404F582E5833400F583E4F02290112D0F
:101F5B00E0FFEFB45536901133E0FEA3E0FF8F8224
:101F6B008E83E5822404F582E5833400F583740ABD
:101F7B00F0901133E0FEA3E0FF8F828E83E5822485
:101F8B0006F582E5833400F5837408F0901135E093
:101F9B00FEA3E0FFAA06A9077B0190112FE0FCA38B
:101FAB00E0FD90112DE0FF901212EFF0127BE2900A
:101FBB00112DE0FF901133E0FCA3E0FD8D828C83AB
:101FCB00E582240AF582E5833400F583E02FF09057
:101FDB001133E0FEA3E0FF8F828E83E5822409F5A7
:101FEB0082E5833400F583E004F0901133E0FEA327
:101FFB00E0FF8F828E83E5822408F582E58334002F
:10200B00F583E004F0901133E0FEA3E0FF8F828EA6
:10201B0083E5822407F582E5833400F583E0FF90A6
:10202B001133E0FCA3E0FD8D828C83E5822408F55F
:10203B0082E5833400F583E0FEEEC39F500302225A
:10204B00C8901133E0FEA3E0FF8F828E83E58224DC
:10205B0004F582E5833400F583740BF02290113381
:10206B00E0FEA3E0FF8F828E83E582240AF582E5F2
:10207B00833400F583E0FFEF54FFFF90112DE0FE5A
:10208B00EF6E601D901133E0FEA3E0FF8F828E8315
:10209B00E582240BF582E5833400F583E004F080C0
:1020AB006A901133E0FEA3E0FF8F828E83E58224DA
:1020BB0009F582E5833400F583E0FF901131E0FCF4
:1020CB00A3E0FD8D828C83EFF0901133E0FEA3E053
:1020DB00FF8F828E83E5822409F582E5833400F538
:1020EB0083E0FF7E007F00EEFF7E00901131E0FC6D
:1020FB00A3E0FD8D828C83A3EFF0901135E0FEA35E
:10210B00E0FFAA06A9077B011284B6901133E0FE0B
:10211B00A3E0FF8F828E83E5822404F582E583346E
:10212B0000F583E4F02290112DE0FFEF64AA600329
:10213B00022279901133E0FEA3E0FF8F828E83E5BC
:10214B00822408F582E5833400F583E0FF7E00EFFF
:10215B002401FFEE3400FE901133E0FCA3E0FD8D73
:10216B00828C83E5822407F582E5833400F583E0D6
:10217B00FD7C00C3EF9DEC6480F8EE648098401DFD
:10218B00901133E0FEA3E0FF8F828E83E58224045F
:10219B00F582E5833400F583740BF08034901133B2
:1021AB00E0FEA3E0FF8F828E83E5822406F582E5B5
:1021BB00833400F583E0FF901133E0FCA3E0FD8D49
:1021CB00828C83E5822404F582E5833400F583EF6A
:1021DB00F0901133E0FEA3E0FF8F828E83E5822423
:1021EB0006F582E5833400F583E0FFEF6408604178
:1021FB00901133E0FEA3E0FF8F828E83E5822406ED
:10220B00F582E5833400F583E0FFEF6406602290EE
:10221B001133E0FEA3E0FF8F828E83E5822406F567
:10222B0082E5833400F583E0FFEF6407600302224D
:10223B00B9901133E0FEA3E0FF8F828E83E58224F9
:10224B0008F582E5833400F583E004F090112DE06E
:10225B00FF901133E0FCA3E0FD8D828C83E582249B
:10226B000AF582E5833400F583E02FF0804090116E
:10227B002DE0FFEFB4331D901133E0FEA3E0FF8F91
:10228B00828E83E5822404F582E5833400F5837422
:10229B0002F0801A901133E0FEA3E0FF8F828E8351
:1022AB00E5822404F582E5833400F583E4F0901194
:0D22BB0033E0FEA3E0FF8F828E83E004F08D
:0122C80022F3
:10A850009013C7EFF09013C7E0FFEF70077B017A0A
:0BA86000097982227B017A0A79AF227D
:109996007E007F627D007B017A0F7931121A217E6B
:1099A600007F037D007B017A0F792D121A217E0F2D
:1099B6007F32900F95EEF0A3EFF0900F2DE0FFEFC2
:1099C60004FF7E00900F93EEF0A3EFF0900F30E4CB
:0D99D600F0900F97E4F075840043D101225A
:106F63009013C8EFF0900F97E0FFEFC3940A40210E
:106F7300900F97E0FFEFC3941450169013C8E0FFEF
:106F8300EFB4020D9013C8E4F0900F97741EF080D5
:106F930011900F97E0FFEFC3940A5006900F97E00C
:106FA30004F09013C8E0FFEF1219C86FED006FFFF4
:106FB300016FBE026FD0030000701C127856EF7091
:106FC300067F0312A04C227F0212A04C22129EDCE9
:106FD300EF6404600F7F0212A04C7DBE7C007FFF34
:106FE3001270DF227F0312A04C22128149EF700638
:106FF3007F0112A04C227F0012A04C22129EDCEFD4
:107003006404600F7F0212A04C7DBE7C007FFF12E0
:0F70130070DF227F0112A04C227F0212A04C22BC
:1078560012AC6CEFB401037F0222900F2C7404F07B
:1078660012ACDAAE02AF01901344EEF0A3EFF09043
:107876001344E0FEA3E0FF8F828E837433F09013EF
:10788600467401F0901346E0FFEFD39430502590F4
:107896001346E0FF901344E0FCA3E0FD8D828C8349
:1078A600E5822FF582E43583F583E4F0901346E014
:1078B60004F080D07F0112AAA17D017F0012A35699
:1078C60012A488C003C002C0017BFF7AA679079084
:1078D60011A4EBF0A3EAF0A3E9F0D001D002D003A3
:0978E6007F317E001286157F003F
:0178EF002276
:1081490012AC6CEFB401037F0222900F2C7404F07F
:1081590012ACDAAE02AF0190138CEEF0A3EFF090FF
:10816900138CE0FEA3E0FF8F828E837434F09013AA
:108179008CE0FEA3E0FF8F828E83A3E4F090138C42
:10818900E0FEA3E0FF8F828E83A3A3E4F07F0112B8
:10819900AAA17D017F0012A3567B017A0F792DC018
:1081A90003C002C0017BFF7AA679079011A4EBF006
:1081B900A3EAF0A3E9F0D001D002D0037F037E0047
:0581C9001286157F0085
:0181CE00228E
:10A60700C0D075D0189013C9EFF09013C9E0FFEFD1
:10A617007008900F2C7401F08006900F2C7402F0D4
:03A62700D0D0226E
:109EDC00900F2CE0FFEFB404037F04227D007F0081
:109EEC0012A3567F0012AAA1900F30E0FFEF75F07D
:109EFC0031A42432F582E4340FF583AF82AE839023
:109F0C000F95EEF0A3EFF0120006900F2CE0FF225D
:059DDA00901347EFF0BB
:109DDF0053E6FE900F95E0FEA3E0FF8F828E83C0C7
:109DEF0083C082901347E0FFD082D08375F002EFDB
:109DFF001219BCE0FEA3E0FF901348EEF0A3EFF0C2
:0B9E0F0043E601901348E0FEA3E0FFD3
:019E1A002225
:107E1A00901258EFF0901259EDF090125AEBF0A32D
:107E2A00EAF0A3E9F053E6FE901258E0FF7E0090D4
:107E3A001259E0FD7C00C3ED9FFFEC9EFEEF24018A
:107E4A00FFEE3400FEEF25E0FFEE33FEC006C0076A
:107E5A00901258E0FF7E02EF8EF0A4FFAEF0900F72
:107E6A0095E0FCA3E0FDEF2DFFEE3CFEAA06A90774
:107E7A007B01C003C002C00190125AE0FBA3E0FAE2
:107E8A00A3E0F9A801AC02AD03D001D002D003D01F
:0A7E9A0007D0061214ED43E60122A2
:10A1C600901213EBF0A3EAF0A3E9F0900F2EE0FF54
:10A1D600901213E0FBA3E0FAA3E0F9EF1215AE909C
:10A1E6000F2FE0FF901216E0FBA3E0FAA3E0F9EFD1
:04A1F6001215AE226E
:10A48800900F30E0FFC374019FFF900F30EFF09002
:10A498000F30E0FF7E31EF8EF0A4FFAEF074312F65
:08A4A800F9740F3EFA7B01225A
:0B85A1009011C7EBF0A3EAF0A3E9F093
:1085AC009011C7E0FBA3E0FAA3E0F99011CAEBF03D
:1085BC00A3EAF0A3E9F09011CAE0FBA3E0FAA3E070
:1085CC00F975820175830012152CFF9011CDEFF017
:1085DC009011CAE0FBA3E0FAA3E0F9121513FF9087
:1085EC0011CAE0FBA3E0FAA3E0F9758201758300E0
:1085FC00EF1215C09011CDE0FF9011CAE0FBA3E083
:08860C00FAA3E0F9EF1215AE2C
:018614002243
:0B6DCF009011CEEBF0A3EAF0A3E9F076
:106DDA009011CEE0FBA3E0FAA3E0F99011D1EBF019
:106DEA00A3EAF0A3E9F09011D1E0FBA3E0FAA3E053
:106DFA00F975820375830012152CFF9011D4EFF0F8
:106E0A009011D1E0FBA3E0FAA3E0F9121513FF9069
:106E1A0011D1E0FBA3E0FAA3E0F9758203758300C0
:106E2A00EF1215C09011D4E0FF9011D1E0FBA3E05E
:106E3A00FAA3E0F9EF1215AE9011D1E0FBA3E0FA44
:106E4A00A3E0F975820275830012152CFF9011D404
:106E5A00EFF09011D1E0FBA3E0FAA3E0F97582010B
:106E6A0075830012152CFF9011D1E0FBA3E0FAA361
:106E7A00E0F9758202758300EF1215C09011D4E013
:106E8A00FF9011D1E0FBA3E0FAA3E0F97582017546
:066E9A008300EF1215C099
:016EA00022CF
:0B6C06009010FEEBF0A3EAF0A3E9F011
:106C110090110474FF75F0FF12165FAFF0FEEF4E96
:106C21007003026CEE901104E0FEA3E0FFEF25E09B
:106C3100FFEE33FE9010FEE0FBA3E0FAA3E0F98F34
:106C4100828E831216A0FDACF0901104E0FEA3E049
:106C5100FFEF25E0FFEE33FE901101E0FBA3E0FA28
:106C6100A3E0F98F828E83EC8DF01217449011040A
:106C7100E0FEA3E0FFEF25E0FFEE33FE901101E01F
:106C8100FBA3E0FAA3E0F9E92FF9EA3EFA90110635
:106C9100EBF0A3EAF0A3E9F0901106E0FBA3E0FA20
:106CA100A3E0F975820175830012152CFF9011097B
:106CB100EFF0901106E0FBA3E0FAA3E0F91215133F
:106CC100FF901106E0FBA3E0FAA3E0F975820175DC
:106CD1008300EF1215C0901109E0FF901106E0FB4F
:0D6CE100A3E0FAA3E0F9EF1215AE026C116A
:016CEE002283
:0B549B0090110AEBF0A3EAF0A3E9F087
:1054A60090111074FF75F0FF12165FAFF0FEEF4E0D
:1054B60070030255F7901110E0FEA3E0FFEF7802AB
:1054C600C333CE33CED8F9FF90110AE0FBA3E0FA3E
:1054D600A3E0F98F828E83121883C004C005C0062C
:1054E600C007901110E0FEA3E0FFEF7802C333CEB1
:1054F60033CED8F9FF90110DE0FBA3E0FAA3E0F953
:105506008F828E83D007D006D005D0041218CD9096
:105516001110E0FEA3E0FFEF7802C333CE33CED8FE
:10552600F9FF90110DE0FBA3E0FAA3E0F9E92FF9EA
:10553600EA3EFA901112EBF0A3EAF0A3E9F090111B
:1055460012E0FBA3E0FAA3E0F9758203758300126B
:10555600152CFF901115EFF0901112E0FBA3E0FA65
:10556600A3E0F9121513FF901112E0FBA3E0FAA3D2
:10557600E0F9758203758300EF1215C0901115E0EE
:10558600FF901112E0FBA3E0FAA3E0F9EF1215AECB
:10559600901112E0FBA3E0FAA3E0F975820275838D
:1055A6000012152CFF901115EFF0901112E0FBA3DD
:1055B600E0FAA3E0F975820175830012152CFF90BD
:1055C6001112E0FBA3E0FAA3E0F9758202758300ED
:1055D600EF1215C0901115E0FF901112E0FBA3E049
:1055E600FAA3E0F9758201758300EF1215C0025423
:0155F600A60E
:0155F7002291
:10A76A00758400C2CAC2C953C8FE75CAFF75CBDB5D
:0EA77A0053C9E775CCFF75CDFFC2ADD2CA2220
:10A38400758400C28C90113FE4F0A3E4F09011377F
:10A39400E4F0A3E4F090113DE4F0A3E4F043890178
:0EA3A400758AFF758CDB538EF4D2A9D28C2201
:03000B00028AC2A4
:108AC200C0E0C083C082C0D075D008C28D90114072
:108AD200E004F0700690113FE004F090113EE004D3
:108AE200F0700690113DE004F090113DE0FEA3E02D
:108AF200FFC3EF9464EE9400401690113DE4F0A39E
:108B0200E4F0901138E004F07006901137E004F0C0
:0F8B1200758AFF758CDBD0D0D082D083D0E03253
:10A8D0007584004389205389EF758DD0538EEF53D3
:08A8E0008EF4D28E4388402261
:10A8850075840253C8FB75C90853C8FD53E7FB75AA
:09A89500CBFF75CAB843C80422C8
:109E1B0075840F758C6790138EE4F0A3E4F09013A8
:109E2B008EE0FEA3E0FFC3EE64809481501090138C
:109E3B008FE004F0700690138EE004F080E04397FF
:109E4B0001538A7F43A54043E34043E2807584007E
:019E5B0022E4
:08A52800901219EEF0A3EFF010
:10A530007B017A12791B901219E0FCA3E0FD129BBB
:0DA54000F27B017A12791B129657EF60F43E
:01A54D0022EB
:109BF20090125DEBF0A3EAF0A3E9F0901260ECF0B2
:109C0200A3EDF012A7A690125DE0FBA3E0FAA3E099
:109C1200F9EE8FF0121725901260E0FEA3E0FF909C
:109C2200125DE0FBA3E0FAA3E0F9758202758300FE
:079C3200EE8FF0121744222F
:109C3900901262EBF0A3EAF0A3E9F0901265ECF060
:109C4900A3EDF012A7C3901262E0FBA3E0FAA3E030
:109C5900F9EE8FF0121725901265E0FEA3E0FF9050
:109C69001262E0FBA3E0FAA3E0F9758202758300B2
:079C7900EE8FF012174422E8
:0B965700901267EBF0A3EAF0A3E9F02B
:1096620012A7A690126AEEF0A3EFF0901267E0FB49
:10967200A3E0FAA3E0F9121675FFAEF090126AE0C9
:10968200FCA3E0FD128B80901267E0FBA3E0FAA33B
:10969200E0F97582027583001216A0FDACF0C3EFEB
:0A96A2009DEE9C50037F00227F0123
:0196AC00229B
:0B96AD0090126CEBF0A3EAF0A3E9F0D0
:1096B80012A7C390126FEEF0A3EFF090126CE0FBCC
:1096C800A3E0FAA3E0F9121675FFAEF090126FE06E
:1096D800FCA3E0FD128B8090126CE0FBA3E0FAA3E0
:1096E800E0F97582027583001216A0FDACF0C3EF95
:0A96F8009DEE9C50037F00227F01CD
:019702002244
:10A7A600C2A990113FE0FEA3E0FF901390EEF0A344
:0CA7B600EFF0D2A9901390E0FEA3E0FFAA
:01A7C2002274
:10A7C300C2A9901137E0FEA3E0FF901392EEF0A32D
:0CA7D300EFF0D2A9901392E0FEA3E0FF8B
:01A7DF002257
:108B80009012ABEEF0A3EFF09012ADECF0A3EDF08D
:108B90009012ABE0FEA3E0FF9012ADE0FCA3E0FD7D
:108BA000D3ED9FEC9E40189012ABE0FEA3E0FF9047
:108BB00012ADE0FCA3E0FDC3ED9FFFEC9EFE229012
:108BC00012ABE0FEA3E0FFC3E49FFFE49EFE901221
:0D8BD000ADE0FCA3E0FDEF2DFFEE3CFE222A
:1073BE0075FFDE75FFAD129E1B129E5C12A192121E
:1073CE00A38412A89E12A8B712AC5412AC6012ACD1
:1073DE004812ACEF12A91612999612A26112006E03
:1073EE0012AC3B12A5E4129857122ECD12A4B01275
:1073FE00A7FC12751E12A92D127EA412A788123B8D
:10740E001112876C125AB712ACE8D2AF7BFF7A6FAB
:10741E0079631288BF90134AEFF07BFF7A71799AE5
:10742E001288BF90134BEFF07BFF7A69793B12887D
:10743E00BF90134CEFF090134AE0FF7D00129F9A1D
:10744E0090134BE0FF7D00129F9A90134CE0FF7D4E
:10745E0000129F9A7D017F14124EAF12575280FB7D
:01746E0022FB
:0CAC5400C2A875840F43E34043E20422D1
:0CAC6000C2AA75840F43E34043E21022B7
:03000300020009EF
:0100090032C4
:0300130002000ADE
:01000A0032C3
:06ACE1009013CAE004F02C
:01ACE700224A
:03001B0002AAB185
:10AAB100C0E0C083C08212ACE1D082D083D0E0324A
:03002B0002AAC165
:10AAC100C0E0C083C08212ACE1D082D083D0E0323A
:0300430002AAD13D
:10AAD100C0E0C083C08212ACE1D082D083D0E0322A
:03004B0002AAE125
:10AAE100C0E0C083C08212ACE1D082D083D0E0321A
:0300530002AAF10D
:10AAF100C0E0C083C08212ACE1D082D083D0E0320A
:03005B0002AB01F4
:10AB0100C0E0C083C08212ACE1D082D083D0E032F9
:0300630002AB11DC
:10AB1100C0E0C083C08212ACE1D082D083D0E032E9
:03006B0002AB21C4
:10AB2100C0E0C083C08212ACE1D082D083D0E032D9
:0300830002AB319C
:10AB3100C0E0C083C08212ACE1D082D083D0E032C9
:03008B0002AB4184
:10AB4100C0E0C083C08212ACE1D082D083D0E032B9
:0300930002AB516C
:10AB5100C0E0C083C08212ACE1D082D083D0E032A9
:03009B0002AB6154
:10AB6100C0E0C083C08212ACE1D082D083D0E03299
:0300AB0002AB7134
:10AB7100C0E0C083C08212ACE1D082D083D0E03289
:102ECD007F0012A850AE02AF01900D93EEF0A3EF6C
:102EDD00F07F0112A850AE02AF01900D09EEF0A3E4
:102EED00EFF0900D93E0FEA3E0FFAA06A9077B018A
:102EFD0012884F900D09E0FEA3E0FFAA06A9077BFB
:102F0D000112884F7BFF7A9879F91288BF900D9244
:102F1D00EFF07BFF7A8A795F1288BF900D95EFF005
:102F2D00900D95E0FF7D00129F9A7BFF7A6E79A13F
:102F3D001288BF900D36EFF07BFF7A7279551288AB
:102F4D00BF900CF5EFF0900D36E0FF7D00129F9ACB
:102F5D00900CF5E0FF7D00129F9A7BFF7A8C793AF9
:102F6D001288BF900CE3EFF0900D28E4F0900D2146
:102F7D00E4F0900D4D7401F0900D46E4F0A3E4F0F3
:102F8D00900D76E4F0A3E4F0900D327407F0A37485
:102F9D0008F07BFF7A7779161288BF900D52EFF00B
:102FAD007BFF7A8C79EE1288BF900D73EFF07BFF6B
:102FBD007A8D79481288BF900CF4EFF07BFF7A8DF3
:102FCD0079A21288BF900D5CEFF07BFF7A8C79941B
:102FDD001288BF900D02EFF07BFF7A93799C1288D7
:102FED00BF900D00EFF07BFF7A7979891288BF9041
:102FFD000D8BEFF07BFF7A9379F41288BF900D4E15
:10300D00EFF07BFF7A8D79FC1288BF900CEFEFF01B
:10301D007BFF7A8E79561288BF900D86EFF07BFF7D
:10302D007A7879F01288BF900D20EFF07BFF7A86C9
:10303D0079881288BF900CF7EFF07BFF7A8E79B00C
:10304D001288BF900CFDEFF07BFF7A8F790A128802
:10305D00BF900CE6EFF07BFF7A9479FC1288BF905D
:10306D000D13EFF07BFF7A94794C1288BF900D6FA2
:10307D00EFF07BFF7A7F79B41288BF900D7EEFF071
:10308D007BFF7A8F79641288BF900D16EFF07BFF6E
:10309D007A8F79BE1288BF900D31EFF07BFF7A7D6C
:1030AD0079011288BF900D41EFF07BFF7A7D790198
:1030BD001288BF900D41EFF07BFF7A90791812883E
:1030CD00BF900D0BEFF07BFF7A9079721288BF9055
:1030DD000D25EFF07BFF7A83794B1288BF900D3869
:1030ED00EFF07BFF7A8979FC1288BF900D3BEFF0F2
:1030FD007BFF7A6679481288BF900D8CEFF07BFFCD
:10310D007A9079CC1288BF900D56EFF07BFF7A95AF
:10311D0079531288BF900D06EFF07BFF7A9579AA4F
:10312D001288BF900CF6EFF07BFF7A7579CB128881
:10313D00BF900D0CEFF07BFF7A85792C1288BF9034
:10314D000D6EEFF07BFF7A9179261288BF900D03FB
:10315D00EFF07BFF7A9179801288BF900D59EFF0D7
:10316D007BFF7A7A79211288BF900D37EFF07BFFC4
:10317D007A80793B1288BF900CFAEFF07BFF7A8949
:10318D0079971288BF900D4CEFF07BFF7A61792013
:10319D001288BF900D3EEFF07BFF7A9179DA12889D
:1031AD00BF900D55EFF07BFF7A8B79211288BF9080
:1031BD000D72EFF07BFF7A9479A41288BF900D61A8
:1031CD00EFF07BFF7A9279341288BF900D85EFF086
:1031DD007BFF7A9279E81288BF900D24EFF07BFF88
:1031ED007A92798E1288BF900D1DEFF07BFF7A6871
:1031FD0079431288BF900D01EFF0900D01E0FF7D36
:10320D0000129F9A7BFF7A9379421288BF900D4FDF
:03321D00EFF022AD
:05693B00901271EFF065
:10694000900D93E0FEA3E0FFAA06A9077B01129E2B
:106950009C901272EEF0A3EFF0901272E0FEA3E0B2
:10696000FFEF64FF7003EE64FF6047900D93E0FE5D
:10697000A3E0FFAA06A9077B01901272E0FCA3E046
:10698000FD127F2DAE02AF01901274EEF0A3EFF076
:10699000901274E0FEA3E0FFAA06A9077B01120093
:1069A000AE900D93E0FEA3E0FFAA06A9077B0112BB
:1069B000824F900D09E0FEA3E0FFAA06A9077B0124
:1069C000129E9C901272EEF0A3EFF0901272E0FE15
:1069D000A3E0FFEF64FF7003EE64FF6047900D09D2
:1069E000E0FEA3E0FFAA06A9077B01901272E0FC7B
:1069F000A3E0FD127F2DAE02AF01901274EEF0A362
:106A0000EFF0901274E0FEA3E0FFAA06A9077B0155
:106A1000124CFB900D09E0FEA3E0FFAA06A9077B3C
:0C6A20000112824F901271E0FF12A04C96
:016A2C002247
:10643F009011D5EBF0A3EAF0A3E9F09011D8EDF0AD
:10644F009011D5E0FBA3E0FAA3E0F9121513FF7E3C
:10645F00009011D9EEF0A3EFF09011D9E0FCA3E07A
:10646F00FD9011D5E0FBA3E0FAA3E0F97582017569
:10647F00830012152CFF7E00EF7F00FEEC4EFEED29
:10648F004FFF9011D9EEF0A3EFF09011D8E0FFEF8E
:10649F00B404047F0180027F009011DBEFF09011B4
:1064AF00D5E0FBA3E0FAA3E0F9E92405F9EA34000B
:1064BF00FAC003C002C0019011D9E0FEA3E0FFEFC4
:1064CF0024FDFDEE34FFFC9011D5E0FBA3E0FAA311
:1064DF00E0F975820375830012152CFF90109BEF66
:1064EF00F09011D5E0FBA3E0FAA3E0F975820275F5
:1064FF00830012152CFF90109CEFF09011D5E0FB4C
:10650F00A3E0FAA3E0F975820475830012152CFF3E
:10651F0090109DEFF090109E7401F09011DBE0FF52
:10652F0090109FEFF0D001D002D0031227C5EF607B
:04653F00030264AD42
:016543002235
:0B00AE00901141EBF0A3EAF0A3E9F091
:1000B900901141E0FBA3E0FAA3E0F9758202758390
:1000C9000012152CFF901146EFF0901141E0FBA3AF
:1000D900E0FAA3E0F975820375830012152CFF90ED
:1000E9001147EFF0901141E0FBA3E0FAA3E0F975A5
:1000F900820575830012152CFF901144EFF09011C1
:1001090041E0FBA3E0FAA3E0F975820475830012CC
:10011900152CFF901145EFF0901147E0FFEFB40463
:1001290014901141E0FBA3E0FAA3E0F9901147E034
:10013900FD12643F22900D217401F07B017A0C7944
:10014900F07D707C17129BF2900D4DE4F07B017AE3
:100159000D790D7DB87C0B129BF2901144E0FFEFF5
:100169001219C801FA0109A46409F3650AD96609D3
:10017900856704CF6804036A04616B04B06C06D612
:100189006D07256E08A66F09037009667102197655
:10019900035E77032078050D7C055C7D06B77E0339
:1001A9007D7F03A18003C5810B36840C858804EE0D
:1001B9008A0CD68B033F8D0E8A8E0EF68F0B7490A8
:1001C9000C0B910B559208C5930D279508E4960DD4
:1001D900A1970277980AF8990F15A10833A20F344D
:1001E900A31019A40B17A50857A603E4FA000010D9
:1001F900BF901146E0FF900CFEEFF0901145E0FF33
:10020900900CFFEFF0900D92E0FF7D00129F9A2273
:10021900901141E0FBA3E0FAA3E0F9E92406F9EA29
:100229003400FAAE02AF01901148EEF0A3EFF0905E
:100239001146E0FF900D90EFF0901145E0FF900D11
:1002490091EFF0901148E0FEA3E0FF8F828E83E0EA
:10025900FF901148E0FCA3E0FD8D828C83A3E0FDB3
:0E026900124EAF900D73E0FF7D00129F9A229F
:10027700901141E0FBA3E0FAA3E0F9E92406F9EACB
:100287003400FAAE02AF01901148EEF0A3EFF09000
:100297001146E0FF900D26EFF0901145E0FF900D1D
:1002A70027EFF0901148E0FEA3E0FFAA06A9077B1D
:1002B700011285A1901148E0FEA3E0FFEF2402FFA1
:1002C700EE3400FEAA06A9077B011285A19011480A
:1002D700E0FEA3E0FF8F828E83E0FEA3E0FF901194
:1002E70048E0FCA3E0FD8D828C83A3A3E0FCA3E0A0
:1002F700FD901148E0FAA3E0FB8B828A83E5822414
:1003070004F582E5833400F583E0FB1286FA900D4D
:0903170002E0FF7D00129F9A2212
:10032000901146E0FF900D22EFF0901145E0FF9014
:100330000D23EFF0900D00E0FF7D00129F9A2290B8
:100340001146E0FF900CF8EFF0901145E0FF900CA3
:10035000F9EFF0900D8BE0FF7D00129F9A22901133
:1003600046E0FF900D74EFF0901145E0FF900D75A1
:10037000EFF0900D4EE0FF7D00129F9A2290114603
:10038000E0FF900D11EFF0901145E0FF900D12EF9E
:10039000F07F01128BDD900CEFE0FF7D00129F9A41
:1003A00022901146E0FF900CE9EFF0901145E0FF3C
:1003B000900CEAEFF07F00128BDD900D86E0FF7D60
:1003C00000129F9A22901146E0FF900D44EFF090AA
:1003D0001145E0FF900D45EFF0900D20E0FF7D000E
:1003E000129F9A22901146E0FF900D19EFF09011A4
:1003F00045E0FF900D1AEFF0900CF7E0FF7D001242
:030400009F9A229E
:10040300901141E0FBA3E0FAA3E0F9E92406F9EA3D
:100413003400FAAE02AF01901148EEF0A3EFF09072
:100423001146E0FF900D1EEFF0901145E0FF900D97
:100433001FEFF0901148E0FEA3E0FF8F828E83E070
:10044300FF901148E0FCA3E0FD8D828C83A3E0FDC7
:0E04530012A6D0900CFDE0FF7D00129F9A22B1
:10046100901141E0FBA3E0FAA3E0F9E92406F9EADF
:100471003400FAAE02AF01901148EEF0A3EFF09014
:100481001146E0FF900D07EFF0901145E0FF900D50
:1004910008EFF0901148E0FEA3E0FF8F828E83E029
:0F04A100FF12A40C900CE6E0FF7D00129F9A2240
:1004B000901146E0FF900D3FEFF0901145E0FF9066
:1004C0000D40EFF0900D13E0FF7D00129F9A2290F7
:1004D0001146E0FF900D89EFF0901145E0FF900D7F
:1004E0008AEFF0900D6FE0FF7D00129F9A2290112D
:1004F00046E0FF900CE4EFF0901145E0FF900CE532
:0D050000EFF0900D7EE0FF7D00129F9A222B
:10050D00901141E0FBA3E0FAA3E0F9E92406F9EA32
:10051D003400FAAE02AF01901148EEF0A3EFF09067
:10052D001146E0FF900D42EFF0901145E0FF900D68
:10053D0043EFF0901148E0FEA3E0FF8F828E83E041
:0F054D00FF12A574900D16E0FF7D00129F9A22F9
:10055C00901141E0FBA3E0FAA3E0F9E92406F9EAE3
:10056C003400FAAE02AF01901148EEF0A3EFF09018
:10057C001146E0FF900D50EFF0901145E0FF900D0B
:10058C0051EFF0901148E0FEA3E0FFEF240CFFEEDA
:10059C003400FEAA06A9077B01C003C002C001906B
:1005AC001148E0FEA3E0FFEF240CFFEE3400FEAA9E
:1005BC0006A9077B01901101EBF0A3EAF0A3E9F087
:1005CC00901104E4F0A3740FF0D001D002D0031208
:1005DC006C06901148E0FEA3E0FFEF2412FFEE340E
:1005EC0000FEAA06A9077B01C003C002C00190113E
:1005FC0048E0FEA3E0FFEF242AFFEE3400FEAA063B
:10060C00A9077B019010F2EBF0A3EAF0A3E9F090BC
:10061C001148E0FEA3E0FF8F828E83E582240CF567
:10062C0082E5833400F583E0FEA3E0FF9010F5EE45
:10063C00F0A3EFF0901148E0FEA3E0FF8F828E83D1
:10064C00E582240EF582E5833400F583E0FEA3E019
:10065C00FF9010F7EEF0A3EFF0901148E0FEA3E04E
:10066C00FF8F828E83E5822410F582E5833400F5BA
:10067C0083E0FEA3E0FF9010F9EEF0A3EFF09011F1
:10068C0048E0FEA3E0FFAA06A9077B019010FBEB54
:10069C00F0A3EAF0A3E9F0D001D002D00312587E07
:0B06AC00900D31E0FF7D00129F9A22AC
:1006B700901146E0FF900D6CEFF0901145E0FF9030
:0F06C7000D6DEFF0900D41E0FF7D00129F9A2224
:1006D600901141E0FBA3E0FAA3E0F9E92406F9EA68
:1006E6003400FAAE02AF01901148EEF0A3EFF0909D
:1006F6001146E0FF900D39EFF0901145E0FF900DA7
:100706003AEFF0901148E0FEA3E0FF8F828E83E07F
:0F071600FF12A1FA900D0BE0FF7D00129F9A22B7
:10072500901141E0FBA3E0FAA3E0F9E92406F9EA18
:100735003400FAAE02AF01901148EEF0A3EFF0904D
:100745001146E0FF900D4AEFF0901145E0FF900D46
:100755004BEFF0901148E0FEA3E0FFAA06A9077B46
:10076500011285A1901148E0FEA3E0FFEF2402FFEE
:10077500EE3400FEAA06A9077B011285A190114857
:10078500E0FEA3E0FFEF2406FFEE3400FEAA06A973
:10079500077B011285A1901148E0FEA3E0FF8F823F
:1007A5008E83E0FEA3E0FFC006C007901148E0FE7F
:1007B500A3E0FF8F828E83A3A3E0FCA3E0FD90114D
:1007C50048E0FEA3E0FF8F828E83E5822404F58254
:1007D500E5833400F583E0FB901148E0FEA3E0FFDC
:1007E5008F828E83E5822405F582E5833400F583C7
:1007F500E0FF901242EFF0D007D006129B5F9011F8
:1008050048E0FEA3E0FF8F828E83E5822406F58211
:10081500E5833400F583E0FEA3E0FF900D32EEF0B2
:0E082500A3EFF0900D25E0FF7D00129F9A22B8
:10083300901146E0FF900D14EFF0901145E0FF900A
:100843000D15EFF07F0012ABC1900CF4E0FF7D00BB
:04085300129F9A2234
:10085700901141E0FBA3E0FAA3E0F9E92406F9EAE5
:100867003400FAAE02AF01901148EEF0A3EFF0901A
:100877001148E0FEA3E0FF8F828E83E0FF12AB8179
:10088700901146E0FF900D81EFF0901145E0FF9049
:0F0897000D82EFF0900D5CE0FF7D00129F9A2222
:1008A600901146E0FF900D57EFF0901145E0FF9054
:1008B6000D58EFF0900D38E0FF7D00129F9A2290C0
:1008C6001146E0FF900D5AEFF0901145E0FF900DB4
:1008D6005BEFF0900D3BE0FF7D00129F9A22901196
:1008E60046E0FF900CFBEFF0901145E0FF900CFC0A
:0D08F600EFF0900D8CE0FF7D00129F9A2224
:10090300901141E0FBA3E0FAA3E0F9E92406F9EA38
:100913003400FAAE02AF01901148EEF0A3EFF0906D
:100923001146E0FF900D7CEFF0901145E0FF900D34
:100933007DEFF0901148E0FEA3E0FFAA06A9077B34
:10094300011285A1901148E0FEA3E0FF8F828E8300
:10095300E0FEA3E0FF12A013900D56E0FF7D00120E
:030963009F9A2236
:10096600901146E0FF900D34EFF0901145E0FF90B6
:100976000D35EFF0900D06E0FF7D00129F9A229054
:100986001146E0FF900D17EFF0901145E0FF900D36
:0E09960018EFF0900CF6E0FF7D00129F9A2201
:1009A400901141E0FBA3E0FAA3E0F9E92406F9EA97
:1009B4003400FAAE02AF01901148EEF0A3EFF090CC
:1009C4001148E0FEA3E0FF8F828E83E0FF129B14A8
:1009D400901146E0FF900D2DEFF0901145E0FF904F
:0F09E4000D2EEFF0900D03E0FF7D00129F9A2281
:1009F300901141E0FBA3E0FAA3E0F9E92406F9EA48
:100A03003400FAAE02AF01901148EEF0A3EFF0907C
:100A13001148E0FEA3E0FFAA06A9077B011285A106
:100A2300901148E0FEA3E0FFEF2403FFEE3400FE45
:100A3300AA06A9077B011285A1901148E0FEA3E055
:100A4300FFEF2405FFEE3400FEAA06A9077B01127F
:100A530085A1901148E0FEA3E0FF8F828E83E0FE24
:100A6300A3E0FFC006C007901148E0FEA3E0FF8F9C
:100A7300828E83A3A3E0FD901148E0FEA3E0FF8FE5
:100A8300828E83A3A3A3E0FAA3E0FB901148E0FEC8
:100A9300A3E0FF8F828E83E5822405F582E583340C
:100AA30000F583E0FEA3E0FF9011F6EEF0A3EFF074
:100AB300D007D006125F02901146E0FF900D7FEF42
:100AC300F0901145E0FF900D80EFF0900D59E0FF9D
:060AD3007D00129F9A2233
:100AD900901146E0FF900D53EFF0901145E0FF9023
:100AE9000D54EFF0900D37E0FF7D00129F9A229090
:100AF9001146E0FF900D1BEFF0901145E0FF900DBE
:100B09001CEFF0900CFAE0FF7D00129F9A229011E1
:100B190046E0FF900D70EFF0901145E0FF900D71E8
:100B2900EFF0900D4CE0FF7D00129F9A2290114644
:100B3900E0FF900D3CEFF0901145E0FF900D3DEF87
:100B4900F0900D0CE0FF7D00129F9A22901146E073
:100B5900FF900D87EFF0901145E0FF900D88EFF0C1
:0B0B6900900D6EE0FF7D00129F9A22AD
:100B7400901141E0FBA3E0FAA3E0F9E92406F9EAC5
:100B84003400FAAE02AF01901148EEF0A3EFF090FA
:100B9400114AE4F0901146E0FF900D62EFF09011DD
:100BA40045E0FF900D63EFF0901148E0FEA3E0FFF5
:100BB4008F828E83E0FF900D64EFF0901148E0FE89
:100BC400A3E0FF8F828E83A3E0FF900D65EFF0908A
:100BD4000D667401F0900D3EE0FF12A7E090114AFB
:100BE400EFF090114AE0FFEF640270030210BF902F
:100BF400114AE0FFEF640370030210BF900D3EE062
:070C0400FF7D00129F9A2200
:100C0B00901141E0FBA3E0FAA3E0F9E92406F9EA2D
:100C1B003400FAAE02AF01901148EEF0A3EFF09062
:100C2B001146E0FF900D7AEFF0901145E0FF900D2B
:100C3B007BEFF0901148E0FEA3E0FFEF2401FFEE05
:100C4B003400FEAA06A9077B011285A1901148E08A
:100C5B00FEA3E0FF8F828E83E0FF901148E0FCA3A0
:100C6B00E0FD8D828C83A3E0FCA3E0FD12A1279015
:0A0C7B000D55E0FF7D00129F9A2244
:100C850090114874C8F09011497488F090114AE4A5
:100C9500F07B017A117948901146E0FF90109BEFA7
:100CA500F090109C7403F0901145E0FF90109DEFBB
:100CB500F090109E7401F090109FE4F07D037C008D
:100CC5001227C5EF70CB7F0F7E0012A52875EF02A6
:010CD50022FC
:100CD600901141E0FBA3E0FAA3E0F9E92406F9EA62
:100CE6003400FAAE02AF01901148EEF0A3EFF09097
:100CF6001146E0FF900D04EFF0901145E0FF900DD6
:100D060005EFF0901148E0FEA3E0FF8F828E83E0AE
:100D1600FF900D28EFF0900CE3E0FF7D00129F9A04
:010D260022AA
:100D2700901141E0FBA3E0FAA3E0F9E92406F9EA10
:100D37003400FAAE02AF01901148EEF0A3EFF09045
:100D47001146E0FF900CE7EFF0901145E0FF900CA3
:100D5700E8EFF0901148E0FEA3E0FFEF2401FFEE7B
:100D67003400FEAA06A9077B011285A1901148E06D
:100D7700FEA3E0FF8F828E83E0FF901148E0FCA383
:100D8700E0FD8D828C83A3E0FCA3E0FD12A3E0903D
:0A0D97000D85E0FF7D00129F9A22F7
:100DA100901141E0FBA3E0FAA3E0F9E92406F9EA96
:100DB1003400FAAE02AF01901148EEF0A3EFF090CB
:100DC1001146E0FF900D48EFF0901145E0FF900DC6
:100DD10049EFF0901148E0FEA3E0FFEF2401FFEEA0
:100DE1003400FEAA06A9077B011285A1901148E0F3
:100DF100FEA3E0FFEF2403FFEE3400FEAA06A907DD
:100E01007B011285A1901148E0FEA3E0FFEF2405CC
:100E1100FFEE3400FEAA06A9077B011285A19011FD
:100E210048E0FEA3E0FF8F828E83E0FFC0079011B0
:100E310048E0FEA3E0FF8F828E83A3E0FCA3E0FDE8
:100E4100901148E0FEA3E0FF8F828E83A3A3A3E06D
:100E5100FAA3E0FB901148E0FEA3E0FF8F828E83AE
:100E6100E5822405F582E5833400F583E0FEA3E005
:100E7100FF9011EFEEF0A3EFF0D00712730B900D7E
:090E810024E0FF7D00129F9A227B
:100E8A00901141E0FBA3E0FAA3E0F9E92406F9EAAC
:100E9A003400FAAE02AF01901148EEF0A3EFF090E1
:100EAA00114AE4F0901146E0FF900D8DEFF0901199
:100EBA0045E0FF900D8EEFF0901148E0FEA3E0FFB1
:100ECA00AA06A9077B01126A2D90114AEFF0901128
:100EDA004AE0FFEF60047F0080027F01900D8FEFF0
:0C0EEA00F0900D72E0FF7D00129F9A2234
:100EF600901146E0FF900D83EFF0901145E0FF90D2
:100F06000D84EFF0900D61E0FF7D00129F9A229014
:100F16001146E0FF900D78EFF0901145E0FF900D3F
:0E0F260079EFF0900D52E0FF7D00129F9A22AD
:100F3400901141E0FBA3E0FAA3E0F9E92406F9EA01
:100F44003400FAAE02AF01901148EEF0A3EFF09036
:100F54001148E0FEA3E0FFEF2403FFEE3400FEAAF5
:100F640006A9077B011285A1901148E0FEA3E0FFCA
:100F7400EF2405FFEE3400FEAA06A9077B011285C3
:100F8400A1901146E0FF900D2FEFF0901145E0FF86
:100F9400900D30EFF0901148E0FEA3E0FF8F828EB9
:100FA40083E0FFC007901148E0FEA3E0FF8F828E2C
:100FB40083A3E0FD901148E0FEA3E0FF8F828E83BF
:100FC400A3A3E0FB901148E0FEA3E0FF8F828E8391
:100FD400A3A3A3E0FEA3E0FF901199EEF0A3EFF02A
:100FE400901148E0FEA3E0FF8F828E83E582240502
:100FF400F582E5833400F583E0FEA3E0FF90119BC6
:10100400EEF0A3EFF0D007126CEF900D1DE0FF7D22
:0510140000129F9A226A
:10101900901141E0FBA3E0FAA3E0F9E92406F9EA1B
:101029003400FAAE02AF01901148EEF0A3EFF09050
:101039001146E0FF900D5DEFF0901145E0FF900D36
:101049005EEFF0901148E0FEA3E0FF8F828E83E00F
:10105900FF900D5FEFF0901148E0FEA3E0FF8F8253
:101069008E83A3E0FF900D60EFF0900D60E0FFEF3D
:101079001219C810890110950210A103000010B5BA
:10108900900D5FE0FD7F0A124EAF8020900D5FE06A
:10109900FD7F0D124EAF8014900D5FE0FD7F0A12A7
:1010A9004EAF900D5FE0FD7F0D124EAF900D4FE0FA
:0610B900FF7D00129F9A6A
:0110BF00220E
:0B4CFB0090117BEBF0A3EAF0A3E9F0BE
:104D060090117BE0FBA3E0FAA3E0F97582027583BC
:104D16000012152CFF901180EFF090117BE0FBA3A1
:104D2600E0FAA3E0F975820375830012152CFF9053
:104D36001181EFF090117BE0FBA3E0FAA3E0F97597
:104D4600820575830012152CFF90117EEFF09011ED
:104D56007BE0FBA3E0FAA3E0F975820475830012F9
:104D6600152CFF90117FEFF0901181E0FFEFB40159
:104D76001490117BE0FBA3E0FAA3E0F9901181E027
:104D8600FD12643F2290117EE0FFEF1219C84DF428
:0B4D9600CA4E3FCC4DA1D800004EAE2D
:104DA10090117BE0FBA3E0FAA3E0F9E92406F9EA1C
:104DB1003400FAAE02AF01901182EEF0A3EFF09051
:104DC1001182E0FEA3E0FFEF2401FFEE3400FEAA12
:104DD10006A9077B011285A1901182E0FEA3E0FFE5
:104DE1008F828E83A3E0FEA3E0FF900D46EEF0A339
:034DF100EFF022BE
:104DF40090117BE0FBA3E0FAA3E0F9E92406F9EAC9
:104E04003400FAAE02AF01901182EEF0A3EFF090FD
:104E14001182E0FEA3E0FF8F828E83E0FF90118277
:104E2400E0FCA3E0FD8D828C83E5822404F582E519
:0B4E3400833400F583E0FD12A6EF229E
:104E3F0090117BE0FBA3E0FAA3E0F9E92406F9EA7D
:104E4F003400FAAE02AF01901182EEF0A3EFF090B2
:104E5F001182E0FEA3E0FFAA06A9077B01C003C0F1
:104E6F0002C001901182E0FEA3E0FFAA06A9077B12
:104E7F0001901101EBF0A3EAF0A3E9F0901104E423
:104E8F00F0A3740CF0D001D002D003126C06901175
:0F4E9F0082E0FEA3E0FFAA06A9077B011297039A
:014EAE0022E1
:0598F900901394EFF054
:1098FE009013957401F07B017A137995900CFEE02C
:10990E00FF90109BEFF090109C7403F0900CFFE012
:10991E00FF90109DEFF090109E7401F090109FE458
:10992E00F07D017C001227C5EF70067FFF129FD7D6
:09993E0022901394E0FF12A04CEA
:0199470022FD
:058C3A009012AFEFF005
:108C3F009012B074C8F09012B1748BF09012B2E42D
:108C4F00F07B017A1279B0900D04E0FF90109BEF4A
:108C5F00F090109C7403F0900D05E0FF90109DEFC5
:108C6F00F090109E7401F090109FE4F07D037C0053
:108C7F001227C5EF70067FFF129FD7229012AFE029
:048C8F00FF12A04CE4
:018C930022BE
:058C94009012B3EFF0A7
:108C99009012B474C8F09012B57498F09012B6E4BA
:108CA900F07B017A1279B4900D26E0FF90109BEFCA
:108CB900F090109C7403F0900D27E0FF90109DEF49
:108CC900F090109E7401F090109FE4F07D037C00F9
:108CD9001227C5EF70067FFF129FD7229012B3E0CB
:048CE900FF12A04C8A
:018CED002264
:058CEE009012B7EFF049
:108CF3009012B874C8F09012B97476F09012BAE476
:108D0300F07B017A1279B8900D90E0FF90109BEF01
:108D1300F090109C7403F0900D91E0FF90109DEF84
:108D2300F090109E7401F090109FE4F07D037C009E
:108D33001227C5EF70067FFF129FD7229012B7E06C
:048D4300FF12A04C2F
:018D47002209
:058D48009012BBEFF0EA
:108D4D009012BC74C8F09012BD74A2F09012BEE4E3
:108D5D00F07B017A1279BC900D14E0FF90109BEF1F
:108D6D00F090109C7403F0900D15E0FF90109DEFA6
:108D7D00F090109E7401F090109FE4F07D037C0044
:108D8D001227C5EF70067FFF129FD7229012BBE00E
:048D9D00FF12A04CD5
:018DA10022AF
:058DA2009012BFEFF08C
:108DA7009012C074C8F09012C174A6F09012C2E479
:108DB700F07B017A1279C0900D81E0FF90109BEF54
:108DC700F090109C7403F0900D82E0FF90109DEFDF
:108DD700F090109E7401F090109FE4F07D037C00EA
:108DE7001227C5EF70067FFF129FD7229012BFE0B0
:048DF700FF12A04C7B
:018DFB002255
:05939C00901276EFF0D5
:1093A10090127774DAF07B017A12797812622E7B4F
:1093B100017A127977900D22E0FF90109BEFF090E7
:1093C100109C7403F0900D23E0FF90109DEFF0903E
:1093D100109E7401F090109FE4F07D047C00122730
:1093E100C5EF70067FFF129FD722901276E0FF1221
:0293F100A04C8E
:0193F3002257
:05798900900FDEEFF09D
:10798E00900FDF74EFF07B017A0F79E07D087F00B6
:10799E001281CF7B017A0F79F07D177F00127E1A4C
:1079AE007B017A0F79E0C003C002C0017B017A0F20
:1079BE0079E0901101EBF0A3EAF0A3E9F090110445
:1079CE00E4F0A37420F0D001D002D003126C067B39
:1079DE00017A0F79DF900CF8E0FF90109BEFF0909A
:1079EE00109C7403F0900CF9E0FF90109DEFF09056
:1079FE00109E7401F090109FE4F07D417C001227E0
:107A0E00C5EF70067FFF129FD722900FDEE0FF12A8
:027A1E00A04C7A
:017A20002243
:0593F4009011AFEFF045
:1093F9009011B074D9F07B017A1179B112A0BB7BBD
:10940900017A1179B0900D74E0FF90109BEFF09004
:10941900109C7403F0900D75E0FF90109DEFF09093
:10942900109E7401F090109FE4F07D077C001227D4
:10943900C5EF70067FFF129FD7229011AFE0FF1290
:02944900A04C35
:01944B0022FE
:058DFC009012C3EFF02E
:108E01009012C474C8F09012C5747FF09012C6E439
:108E1100F07B017A1279C4900D11E0FF90109BEF65
:108E2100F090109C7403F0900D12E0FF90109DEFF4
:108E3100F090109E7401F090109FE4F07D037C008F
:108E41001227C5EF70067FFF129FD7229012C3E051
:048E5100FF12A04C20
:018E550022FA
:058E56009012C7EFF0CF
:108E5B009012C874C8F09012C97480F09012CAE4D2
:108E6B00F07B017A1279C8900CE9E0FF90109BEF30
:108E7B00F090109C7403F0900CEAE0FF90109DEFC3
:108E8B00F090109E7401F090109FE4F07D037C0035
:108E9B001227C5EF70067FFF129FD7229012C7E0F3
:048EAB00FF12A04CC6
:018EAF0022A0
:0578F00090127BEFF097
:1078F50090127D74DFF090127CE4F090127CE0FF32
:10790500EFC39401503A90127CE0FF12A8FF901249
:107915007CE0FE747E2EF582E43412F583EFF09060
:10792500127CE0FF12A8E890127CE0FE747F2EF531
:1079350082E43412F583EFF090127CE004F080BB12
:107945007B017A12797D900D44E0FF90109BEFF05A
:1079550090109C7403F0900D45E0FF90109DEFF0A2
:1079650090109E7401F090109FE4F07D037C00124E
:1079750027C5EF70067FFF129FD72290127BE0FF8D
:0379850012A04C01
:0179880022DC
:0586880090121FEFF04D
:10868D00901220E4F090122174FBF07F06123FBC93
:10869D00901222EFF07F07123FBC901223EFF07F74
:1086AD0005123FBC901224EFF07B017A12792190D4
:1086BD000D19E0FF90109BEFF090109C7403F0905B
:1086CD000D1AE0FF90109DEFF090109E7401F09048
:1086DD00109FE4F07D047C001227C5EF70067FFF2C
:0C86ED00129FD72290121FE0FF12A04C39
:0186F900225E
:058EB0009012CBEFF071
:108EB5009012CC74C8F09012CD746AF09012CEE482
:108EC500F07B017A1279CC900D1EE0FF90109BEF9C
:108ED500F090109C7403F0900D1FE0FF90109DEF33
:108EE500F090109E7401F090109FE4F07D037C00DB
:108EF5001227C5EF70067FFF129FD7229012CBE095
:048F0500FF12A04C6B
:018F09002245
:058F0A009012CFEFF012
:108F0F009012D074C8F09012D1746BF09012D2E41A
:108F1F00F07B017A1279D0900D07E0FF90109BEF54
:108F2F00F090109C7403F0900D08E0FF90109DEFEF
:108F3F00F090109E7401F090109FE4F07D037C0080
:108F4F001227C5EF70067FFF129FD7229012CFE036
:048F5F00FF12A04C11
:018F630022EB
:0594FC0090134DEFF09C
:1095010090134E74CFF012AD0890134FEFF07B0122
:109511007A13794E900D3FE0FF90109BEFF0901081
:109521009C7403F0900D40E0FF90109DEFF09010BF
:109531009E7401F090109FE4F07D027C001227C51B
:10954100EF70067FFF129FD72290134DE0FF12A00C
:019551004CCD
:0195520022F6
:05944C009010A9EFF0F3
:109451009010AA74EBF07B017A1079AB129A7C7BA5
:10946100017A1079AA900D89E0FF90109BEFF0909E
:10947100109C7403F0900D8AE0FF90109DEFF09026
:10948100109E7401F090109FE4F07D127C00122771
:10949100C5EF70067FFF129FD7229010A9E0FF123F
:0294A100A04CDD
:0194A30022A6
:057FB400900F98EFF0B2
:107FB900900F9974ECF07B017A0F799A1255F87B3E
:107FC900017A0F799AC003C002C0017B017A0F7947
:107FD9009A90110DEBF0A3EAF0A3E9F0901110E4E7
:107FE900F0A37411F0D001D002D00312549B7B018D
:107FF9007A0F7999900CE4E0FF90109BEFF09010C4
:108009009C7403F0900CE5E0FF90109DEFF0901048
:108019009E7401F090109FE4F07D457C001227C505
:10802900EF70067FFF129FD722900F98E0FF12A0F2
:018039004CFA
:01803A002223
:058F64009012D3EFF0B4
:108F69009012D474C8F09012D5747CF09012D6E4A3
:108F7900F07B017A1279D4900D42E0FF90109BEFBB
:108F8900F090109C7403F0900D43E0FF90109DEF5A
:108F9900F090109E7401F090109FE4F07D037C0026
:108FA9001227C5EF70067FFF129FD7229012D3E0D8
:048FB900FF12A04CB7
:018FBD002291
:058FBE009012D7EFF056
:108FC3009012D874C8F09012D9747DF09012DAE43C
:108FD300F07B017A1279D8900D50E0FF90109BEF4F
:108FE300F090109C7403F0900D51E0FF90109DEFF2
:108FF300F090109E7401F090109FE4F07D037C00CC
:109003001227C5EF70067FFF129FD7229012D7E079
:04901300FF12A04C5C
:019017002236
:057D0100901020EFF0DE
:107D060090102174DDF012AD14901022EFF07B017B
:107D16007A107923129759786376007863E6FFEF35
:107D2600C3940C501F7863E6FF7E02EF8EF0A4FF2B
:107D3600AEF074232FF974103EFA7B011285A178F8
:107D4600630680D77B017A107921900D6CE0FF9055
:107D5600109BEFF090109C7403F0900D6DE0FF9077
:107D6600109DEFF090109E7401F090109FE4F07D4E
:107D76001A7C001227C5EF70067FFF129FD722904C
:077D86001020E0FF12A04CE9
:017D8D0022D3
:059018009012DBEFF0F7
:10901D009012DC74C8F09012DD746DF09012DEE4E5
:10902D00F07B017A1279DC900D39E0FF90109BEF07
:10903D00F090109C7403F0900D3AE0FF90109DEFAE
:10904D00F090109E7401F090109FE4F07D037C0071
:10905D001227C5EF70067FFF129FD7229012DBE01B
:04906D00FF12A04C02
:0190710022DC
:059072009012DFEFF099
:109077009012E074C8F09012E1746EF09012E2E47E
:10908700F07B017A1279E0900D4AE0FF90109BEF98
:10909700F090109C7403F0900D4BE0FF90109DEF43
:1090A700F090109E7401F090109FE4F07D037C0017
:1090B7001227C5EF70067FFF129FD7229012DFE0BD
:0490C700FF12A04CA8
:0190CB002282
:05834B00901225EFF087
:1083500090122AE4F090122674D0F012ACFC901225
:1083600027EFF012A54E901228EFF012A66F901290
:1083700029EFF0901229E0FFEF600690122AE00446
:10838000F07B017A127926900D57E0FF90109BEF59
:10839000F090109C7403F0900D58E0FF90109DEF4A
:1083A000F090109E7401F090109FE4F07D047C002A
:1083B0001227C5EF70067FFF129FD722901225E08B
:0483C000FF12A04CBC
:0183C4002296
:0589FC009012E3EFF012
:108A01009012E474F2F012ABF19012E5EEF0A3EFE4
:108A1100F07B017A1279E51285A17B017A1279E462
:108A2100900D5AE0FF90109BEFF090109C7403F0B2
:108A3100900D5BE0FF90109DEFF090109E7401F09F
:108A410090109FE4F07D037C001227C5EF70067F34
:0D8A5100FF129FD7229012E3E0FF12A04C0D
:018A5E0022F5
:05664800901055EFF079
:10664D0090105674F4F012ABF1901057EEF0A3EFDA
:10665D00F07B017A1079571285A112AC0090105978
:10666D00EEF0A3EFF07B017A1079591285A112ACEF
:10667D009490105BEEF0A3EFF07B017A10795B1232
:10668D0085A112AC9D90105DEEF0A3EFF07B017A29
:10669D0010795D1285A112ACA690105FEEF0A3EFFC
:1066AD00F07B017A10795F1285A112ACAF90106169
:1066BD00EEF0A3EFF07B017A1079611285A112AC97
:1066CD000F9010631219417B017A107963126DCF0F
:1066DD0012AC1E9010671219417B017A1079671266
:1066ED006DCF12ACB890106BEEF0A3EFF07B017A8A
:1066FD0010796B1285A17B017A107956900CFBE015
:10670D00FF90109BEFF090109C7403F0900CFCE048
:10671D00FF90109DEFF090109E7401F090109FE48B
:10672D00F07D177C001227C5EF70067FFF129FD7F3
:09673D0022901055E0FF12A04C5F
:016746002230
:0590CC009012E7EFF037
:1090D1009012E874C8F09012E97470F09012EAE40A
:1090E100F07B017A1279E8900D7CE0FF90109BEF04
:1090F100F090109C7403F0900D7DE0FF90109DEFB7
:10910100F090109E7401F090109FE4F07D037C00BC
:109111001227C5EF70067FFF129FD7229012E7E05A
:04912100FF12A04C4D
:019125002227
:05955300901350EFF041
:1095580090135174D3F012AD0E901352EFF07B01BB
:109568007A137951900D34E0FF90109BEFF0901032
:109578009C7403F0900D35E0FF90109DEFF0901073
:109588009E7401F090109FE4F07D027C001227C5C4
:10959800EF70067FFF129FD722901350E0FF12A0B2
:0195A8004C76
:0195A900229F
:0595AA00901353EFF0E7
:1095AF0090135474E8F012AD26901355EFF07B0131
:1095BF007A137954900D17E0FF90109BEFF09010F5
:1095CF009C7403F0900D18E0FF90109DEFF0901039
:1095DF009E7401F090109FE4F07D027C001227C56D
:1095EF00EF70067FFF129FD722901353E0FF12A058
:0195FF004C1F
:019600002247
:0575CB009011B7EFF084
:1075D0009011B874E5F09011B9741FF09011BAE4ED
:1075E000F07D007F0A1299E3EF5401FF9011BBEF89
:1075F000F07D007F0A1299E3EF7803CEC313CE1318
:10760000D8F9FF9011BCEFF07D017F0A1299E3EFEA
:107610005401FF9011BDEFF07D017F0A1299E3EF55
:107620007803CEC313CE13D8F9FF9011BEEFF07BD1
:10763000017A1179B8900D3CE0FF90109BEFF0902B
:10764000109C7403F0900D3DE0FF90109DEFF090C2
:10765000109E7401F090109FE4F07D077C001227CB
:10766000C5EF70067FFF129FD7229011B7E0FF127F
:02767000A04C2C
:0176720022F5
:05852C009012EBEFF0DE
:108531009012EC74F1F07B017A1279EDC003C00264
:10854100C0017B017A1279EE901216EBF0A3EAF0EA
:10855100A3E9F0D001D002D00312A1C67B017A12A7
:1085610079EC900D87E0FF90109BEFF090109C74D8
:1085710003F0900D88E0FF90109DEFF090109E7435
:1085810001F090109FE4F07D037C001227C5EF708D
:0F859100067FFF129FD7229012EBE0FF12A04C43
:0185A00022B8
:059126009012EFEFF0D4
:10912B009012F074C8F09012F17464F09012F2E4A3
:10913B00F07B017A1279F0900D2DE0FF90109BEFF0
:10914B00F090109C7403F0900D2EE0FF90109DEFAB
:10915B00F090109E7401F090109FE4F07D037C0062
:10916B001227C5EF70067FFF129FD7229012EFE0F8
:04917B00FF12A04CF3
:01917F0022CD
:059180009012F3EFF076
:109185009012F474C8F09012F57465F09012F6E43C
:10919500F07B017A1279F4900D7FE0FF90109BEF40
:1091A500F090109C7403F0900D80E0FF90109DEFFF
:1091B500F090109E7401F090109FE4F07D037C0008
:1091C5001227C5EF70067FFF129FD7229012F3E09A
:0491D500FF12A04C99
:0191D9002273
:057A21009011DCEFF004
:107A26007B017A1179DEC003C002C0017B017A11A5
:107A360079E0901190EBF0A3EAF0A3E9F07B017AEC
:107A46001179E2901193EBF0A3EAF0A3E9F0D001EB
:107A5600D002D0031297AF9011DD74C9F07B017A82
:107A66001179DE1285A17B017A1179E01285A17B5D
:107A7600017A1179DD900D53E0FF90109BEFF090A5
:107A8600109C7403F0900D54E0FF90109DEFF09061
:107A9600109E7401F090109FE4F07D067C00122782
:107AA600C5EF70067FFF129FD7229011DCE0FF1210
:027AB600A04CE2
:017AB80022AB
:05803B0090122BEFF094
:108040007B017A12792DC003C002C0017B017A1234
:10805000792F901234EBF0A3EAF0A3E9F0D001D02D
:1080600002D003129F5C90122C74F5F07B017A12FF
:10807000792D1285A17B017A12792F1285A17B01BE
:108080007A12792C900D1BE0FF90109BEFF090106E
:108090009C7403F0900D1CE0FF90109DEFF0901089
:1080A0009E7401F090109FE4F07D057C001227C5BE
:1080B000EF70067FFF129FD72290122BE0FF12A0D5
:0180C0004C73
:0180C100229C
:058997009012F7EFF063
:10899C009012F874FCF07F14129DDA9012F9EEF03C
:1089AC00A3EFF07B017A1279F91285A17B017A127F
:1089BC0079F8900D70E0FF90109BEFF090109C7484
:1089CC0003F0900D71E0FF90109DEFF090109E74ED
:1089DC0001F090109FE4F07D037C001227C5EF702E
:0F89EC00067FFF129FD7229012F7E0FF12A04CD8
:0189FB002259
:056120009012FBEFF0FE
:106125009012FBE0FFEF1219C8613E00617E01612C
:10613500B10261D20300006228900D66E0FFEFB462
:106145000112900D677401F0900D66E4F07D007FFB
:1061550010124EAF900D64E0FFEF6017900D65E0F3
:10616500FF1283C5EF70067F0112A04C227F00123B
:10617500A04C227F0312A04C2212A834EFB40306D0
:106185007F0112A04C22900D67E0FFEF600B7F03AB
:1061950012A04C900D67E4F0227B017A0D79687DA1
:1061A500647C00129BF27F0212A04C227B017A0DC7
:1061B5007968129657EF7009900D66E0FFEFB4010C
:0D61C500067F0012A04C227F0212A04C2287
:1061D200900D64E0FD7F10124EAF9012FC74C8F077
:1061E2009012FD7490F09012FEE4F07B017A127925
:1061F200FC900D62E0FF90109BEFF090109C7403F6
:10620200F0900D63E0FF90109DEFF090109E7401EE
:10621200F090109FE4F07D037C001227C5EF600B25
:066222007F0312A04C22D4
:056228007F0012A04CF4
:01622D00224E
:056EA1009013CBEFF09F
:106EA6009013CBE0FFEF1219C86EB9006EE6010031
:106EB600006F627F19129D52EF70087F1A129D5261
:106EC600EF60177B017A0D7929900D32E0FCA3E083
:106ED600FD129C397F0112A04C227F0012A04C2289
:106EE6007F19129D52EF70087F1A129D52EF60674C
:106EF600900D76E0FEA3E0FF900D46E0FCA3E0FDDA
:106F0600C3ED9FFFEC9EFE12A293C3EF9405EE9491
:106F160000502E7B017A0D79291296ADEF601C7D0B
:106F2600007F1A124EAF7D007F19124EAF7F0112FD
:106F3600ABC112ACD27F0012A04C227F0112A04C32
:106F460022900D46E0FEA3E0FF900D76EEF0A3EF53
:0C6F5600F07F0012A04C227F0012A04C23
:016F6200220C
:05725500901356EFF05C
:10725A00901356E0FFEF1219C8727000728C017217
:10726A00F3020000730A7F19129D52EF70087F1A09
:10727A00129D52EF60067F0112A04C227F0012A0DD
:10728A004C227F19129D52EF70087F1A129D52EFFD
:10729A0060519013577499F09013587480F07B01E1
:1072AA007A13795790109B7404F090109C7403F031
:1072BA0090109DE4F090109EE4F090109F7401F0FD
:1072CA007D027C001227C5EF70137B017A0C79EBE3
:1072DA007D647C00129BF27F0212A04C227F011275
:1072EA00A04C227F0012A04C227B017A0C79EB126F
:1072FA009657EF60067F0012A04C227F0212A04C24
:01730A002260
:0591DA009012FFEFF010
:1091DF0090130074C8F09013017491F0901302E48F
:1091EF00F07B017A137900900D7AE0FF90109BEFDE
:1091FF00F090109C7403F0900D7BE0FF90109DEFAA
:10920F00F090109E7401F090109FE4F07D037C00AD
:10921F001227C5EF70067FFF129FD7229012FFE033
:04922F00FF12A04C3E
:019233002218
:058B2100901303EFF0CA
:108B260090130474C8F0901305748EF0900D8FE0C6
:108B3600FF901306EFF07B017A137904900D8DE018
:108B4600FF90109BEFF090109C7403F0900D8EE058
:108B5600FF90109DEFF090109E7401F090109FE42E
:108B6600F07D037C001227C5EF70067FFF129FD7AA
:098B760022901303E0FF12A04C51
:018B7F0022D3
:0594A40090114BEFF0F8
:1094A90090114C74F0F07B017A11794D129AC87BB6
:1094B900017A11794C900D83E0FF90109BEFF090A9
:1094C900109C7403F0900D84E0FF90109DEFF090D4
:1094D900109E7401F090109FE4F07D097C00122722
:1094E900C5EF70067FFF129FD72290114BE0FF1244
:0294F900A04C85
:0194FB00224E
:05923400901307EFF0AC
:1092390090130874C8F09013097495F090130AE418
:10924900F07B017A137908900CE7E0FF90109BEF0F
:10925900F090109C7403F0900CE8E0FF90109DEFE3
:10926900F090109E7401F090109FE4F07D037C0053
:109279001227C5EF70067FFF129FD722901307E0D0
:04928900FF12A04CE4
:01928D0022BE
:05928E0090130BEFF04E
:1092930090130C74C8F090130D74A3F090130EE4A4
:1092A300F07B017A13790C900D2FE0FF90109BEF68
:1092B300F090109C7403F0900D30E0FF90109DEF40
:1092C300F090109E7401F090109FE4F07D037C00F9
:1092D3001227C5EF70067FFF129FD72290130BE072
:0492E300FF12A04C8A
:0192E7002264
:0592E80090130FEFF0F0
:1092ED0090131074C8F09013117497F0901312E44A
:1092FD00F07B017A137910900D48E0FF90109BEFF1
:10930D00F090109C7403F0900D49E0FF90109DEFCC
:10931D00F090109E7401F090109FE4F07D037C009E
:10932D001227C5EF70067FFF129FD72290130FE013
:04933D00FF12A04C2F
:019341002209
:05934200901313EFF091
:1093470090131474C8F090131574A4F0901316E4D6
:10935700F07B017A137914900D5DE0FF90109BEF7D
:10936700F090109C7403F0900D5EE0FF90109DEF5D
:10937700F090109E7401F090109FE4F07D037C0044
:109387001227C5EF70067FFF129FD722901313E0B5
:04939700FF12A04CD5
:01939B0022AF
:108A5F009013CCEFF09013CCE4F07F0012A04C7D7C
:108A6F00F47C017FFF1270DF900D28E0FFEF704262
:108A7F00900D21E0FFEF7001227B017A0D790D122D
:108A8F009657EF6006900D4D7401F07B017A0C79CB
:108A9F00F0129657EF601B7D007F1A124EAF7D00CC
:108AAF007F19124EAF7F0012A1FA7F0012A5741228
:038ABF00ACD22214
:0577160090103BEFF0B4
:10771B0090103C74F7F07B017A10793D7D037F006C
:10772B001281CF7B017A1079457D001298047B0181
:10773B007A10794D7D011298047B017A10793DC046
:10774B0003C002C0017B017A10793D901101EBF06F
:10775B00A3EAF0A3E9F0901104E4F0A3740CF0D0C9
:10776B0001D002D003126C067B017A10793C900D8C
:10777B0078E0FF90109BEFF090109C7403F0900D4D
:10778B0079E0FF90109DEFF090109E7401F0901037
:10779B009FE4F07D197C001227C5EF70067FFF1266
