:0CFC7600900514E4F090051574FFF022D6
:06DA9400901B18122B7715
:10DA9A00900514E0FFEFC3948240037FFF229005B4
:10DAAA0014E0FF901B1BEFF0901B18122B6E901BBB
:10DABA001BE0FF75F00AEF900000122B62122B7721
:10DACA00901B1BE0FF75F00AEF900004122B62E432
:0CDADA00F0900514E004F0901B1BE0FF2E
:01DAE600221D
:10EBE400901CB4EFF0901CB5EDF0901CB4E0FF75F0
:10EBF400F00AEF900004122B627402F0901CB5E04E
:10EC0400FF901CB4E0FE75F00AEE900003122B6234
:03EC1400EFF022FC
:10EC7D00901CF0EFF0901CF0E0FFEFB4FF12900548
:10EC8D0015E0FF75F00AEF900004122B62E4F022FC
:10EC9D00901CF0E0FF75F00AEF900004122B62E477
:02ECAD00F02253
:10EF8800901CF1EFF0901CF1E0FF900515E0FE7584
:10EF9800F00AEE900003122B62EFF0900515E0FFE7
:0EEFA80075F00AEF900004122B627402F02242
:10A70C00901C24EFF0901C25ECF0A3EDF0901C2491
:10A71C00E0FFEF64FF704D900515E0FF75F00AEF58
:10A72C00900004122B627403F0900515E0FF7E0A72
:10A73C00EF8EF0A4FFAEF074052FF974003EFA7B97
:10A74C0001C003C002C001901C25E0FEA3E0FF7C09
:10A75C00007D0A122718AC06AD07D001D002D00339
:10A76C0012C7E722901C24E0FF75F00AEF9000045A
:10A77C00122B627403F0901C24E0FF7E0AEF8EF023
:10A78C00A4FFAEF074052FF974003EFA7B01C003F0
:10A79C00C002C001901C25E0FEA3E0FF7C007D0AF6
:10A7AC00122718AC06AD07D001D002D00312C7E7B0
:01A7BC00227A
:108C6F00901CF2E4F0900514E0FF901CF2E0FEEE91
:108C7F00C39F4003028D68900514E0FF900515E037
:108C8F0004FEF0EEB50705900515E4F0900515E02C
:108C9F00FF75F00AEF900004122B62E0FFEF640201
:108CAF00703D900515E0FF75F00AEF900004122B50
:108CBF00627401F0900515E0FF75F00AEF90000364
:108CCF00122B62E0FF900515E0FE75F00AEE9000A2
:108CDF0000122B62122B6E89828A83122BD722905D
:108CEF000515E0FF75F00AEF900004122B62E0FF0C
:108CFF00EF6403705B900515E0FF7E0AEF8EF0A422
:108D0F00FFAEF074052FF974003EFA7B0112C71104
:108D1F00EF603D900515E0FF75F00AEF900004122B
:108D2F002B627401F0900515E0FF75F00AEF9000CB
:108D3F0003122B62E0FF900515E0FE75F00AEE902E
:108D4F000000122B62122B6E89828A83122BD7227C
:098D5F00901CF2E004F0028C7497
:018D680022E8
:10F96D00901CF3EFF0901CF3E0FF75F00AEF9000A0
:07F97D0004122B62E0FF22DF
:10F98400901CF4EFF0901CF4E0FF75F00AEF900087
:07F9940003122B62E0FF22C9
:10B88B00901C27122B77901C27122B6E7582037539
:10B89B00830074951226E4901C27122B6E7582017F
:10B8AB00758300E41226E4901C27122B6E7582021E
:10B8BB00758300E41226E4901C27122B6E7582050B
:10B8CB00758300E41226E4901C27122B6E758204FC
:10B8DB00758300E41226E4901C27122B6EE41226CB
:10B8EB00D2901C27122B6E75820A758300E41226E8
:10B8FB00E4901C27122B6E75820B758300E41226C5
:02B90B00E42234
:10991A00C0D075D010901B1C122B77901B1FEDF036
:10992A00901B1C122B6E758202758300122650FF43
:10993A00901B1C122B6E758201758300122650FE35
:10994A00EEB51718901B1C122B6E758205758300D5
:10995A00122650FFEF60057F030299F2901B1FE069
:10996A00FF901B1C122B6E75820175830012265004
:10997A00FEEEFD7C00901B1C122B6EE9240DF9EA09
:10998A003400FAE92DF9EA3CFAEF1226D2901B1CB0
:10999A00122B6E758203758300122650FF901B1CD2
:1099AA00122B6E758201758300122650FEEEC39F3C
:1099BA005013901B1C122B6E758201758300740163
:1099CA0012269F8010901B1C122B6E7582017583C4
:1099DA0000E41226E4901B1C122B6E758205758317
:0B99EA0000740112269F7F01D0D022E4
:0695A70090190C122B7755
:1095AD0090190C122B6E758205758300122650FFD3
:1095BD00EF70037F0322901912E0FFEF700A12FA89
:1095CD00C9901913EFF0800812FA91901913EFF06A
:1095DD0090190C122B6E758202758300122650FFA6
:1095ED007E0090190C122B6EE9240DF9EA3400FA65
:1095FD00E92FF9EA3EFA122637FF90190F122B6E5A
:10960D00EF1226D290190C122B6E75820375830002
:10961D00122650FF90190C122B6E75820275830065
:10962D00122650FEEEC39F501390190C122B6E751F
:10963D008202758300740112269F801090190C12FE
:10964D002B6E758202758300E41226E490190C12BC
:10965D002B6E75820575830074FF12269F9019136A
:10966D00E0FFEF6010901912E0FFEF700512FADBCA
:07967D00800312FAA47F0133
:0196840022C3
:10DAE700901C2A122B77901C2A122B6E75820375B5
:10DAF700830074041226E4901C2A122B6E7582028E
:10DB0700758300E41226E4901C2A122B6E7582019D
:10DB1700758300E41226E4901C2A122B6E7582048A
:10DB2700758300E41226E4901C2A122B6EE4122659
:02DB3700D222F8
:10E77000901C2D122B77901C2D122B6E7582037519
:10E780008300122650FF901C2D122B6E758204758B
:10E790008300122650FEEEB507057EFF7FFF229014
:10E7A0001C2D122B6E758202758300122650FF7E7F
:02E7B000002245
:10BE80009019FB122B779019FEECF0A3EDF09019AE
:10BE9000FB122B6E758203758300122650FF7E0005
:10BEA000EF24FFFFEE34FFFE9019FEE0FCA3E0FD5F
:10BEB000D3ED9FEE6480F8EC64809850109019FEEA
:10BEC000E0FEA3E0FFC3EE6480948050077B007A1D
:10BED000007900229019FB122B6EE92406F9EA344E
:10BEE00000FA9019FEE0FEA3E0FF7C007D461227D9
:08BEF00006E92FF9EA3EFA22EF
:10D5D400901C30122B77901C30122B6E75820375C1
:10D5E4008300122650FF901C30122B6E7582027538
:10D5F4008300740112269FFEEEB50710901C3012B2
:10D604002B6E758202758300E41226E4901C30129E
:10D614002B6EE41226D2901C30122B6E7582047588
:08D624008300740112269F220D
:10ECAF00901C33122B77901C33122B6E75820475C8
:10ECBF008300122650FFEF70057EFF7FFF22901C0E
:10ECCF0033122B6E758201758300122650FF7E0062
:01ECDF002212
:10CBE300901C36122B77901C36122B6E75820475AF
:10CBF3008300122650FFEF6047901C36122B6E7590
:10CC03008203758300122650FF901C36122B6E751B
:10CC13008201758300740112269FFEEEB507109002
:10CC23001C36122B6E758201758300E41226E49084
:10CC33001C36122B6E75820475830074FF12269FB7
:01CC430022CE
:10BEF8009019AD122B779019B0ECF0A3EDF09019D2
:10BF0800AD122B6E122637FFEFC394465059901985
:10BF1800B2E0FFC0079019AD122B6EE92406F9EACA
:10BF28003400FA9019B0E0FEA3E0FF7C007D4612D1
:10BF38002706E92FF9EA3EFAC003C002C0019019AA
:10BF4800AD122B6E122637FF7E00D001D002D0032F
:10BF5800E92FF9EA3EFAD007EF1226D29019AD126E
:08BF68002B6E740112267D22EC
:10DB39009005167497F09005177497F07F0012F707
:10DB4900A8AE02AF01900768EEF0A3EFF07F0112D3
:10DB5900F7A8AE02AF01900888EEF0A3EFF09007A6
:10DB690068E0FEA3E0FFAA06A9077B0112B88B9023
:10DB79000888E0FEA3E0FFAA06A9077B0112B88B7B
:01DB89002279
:10E4FF00901914122B77901917ECF0A3EDF09019D7
:10E50F0014122B6E901917E0FCA3E0FD901919E07F
:10E51F00FF90176DEFF090176E7404F090191AE0DA
:10E52F00FF90176FEFF090191BE0FF901770EFF04F
:09E53F00901771E4F01244E0228F
:0E44E000901768122B7790176BECF0A3EDF09D
:1044EE00901774E4F0901771E0FFEF701A7E057F5D
:1044FE0018901776EEF0A3EFF07B017A05791690FF
:10450E001778122B7780187E067FCF901776EEF0F5
:10451E00A3EFF07B017A057917901778122B77901D
:10452E001770E0FFEF600C90176FE0FF901775EFBC
:10453E00F0800F901778122B6E122637FF9017759A
:10454E00EFF090176BE0FEA3E0FFD3EF9446EE94EE
:10455E000040037F0122901776E0FEA3E0FF8F82DA
:10456E008E837455F0901776E0FEA3E0FF8F828E57
:10457E0083A37433F09017727406F090176EE0FFF9
:10458E00901772E0FE04F0901776E0FCA3E0FD8D2C
:10459E00828C83E5822EF582E43583F583EFF090ED
:1045AE00176EE0FFEFB45520901772E0FF04F09005
:1045BE001776E0FCA3E0FD8D828C83E5822FF582D9
:1045CE00E43583F58374AAF090176DE0FF901772AF
:1045DE00E0FE04F0901776E0FCA3E0FD8D828C8364
:1045EE00E5822EF582E43583F583EFF090176DE0CA
:1045FE00FFEFB45520901772E0FF04F0901776E0AD
:10460E00FCA3E0FD8D828C83E5822FF582E4358359
:10461E00F58374AAF0901775E0FF901772E0FE0410
:10462E00F0901776E0FCA3E0FD8D828C83E5822E60
:10463E00F582E43583F583EFF0901775E0FFEFB464
:10464E005520901772E0FF04F0901776E0FCA3E07F
:10465E00FD8D828C83E5822FF582E43583F583749C
:10466E00AAF0901770E0FFEF701A901778122B6E69
:10467E00740112267DFFEF700B901778122B6E745B
:10468E00971226D2901773E4F0901773E0FF7E0016
:10469E0090176BE0FCA3E0FDC3EF9DEE9C50749071
:1046AE001768122B6E901773E0FF8F8275830012BE
:1046BE002650FF901772E0FE04F0901776E0FCA3F0
:1046CE00E0FD8D828C83E5822EF582E43583F583C1
:1046DE00EFF0901768122B6E901773E0FF8F8275B4
:1046EE008300122650FFEFB45520901772E0FF049E
:1046FE00F0901776E0FCA3E0FD8D828C83E5822F8F
:10470E00F582E43583F58374AAF0901773E004F014
:10471E00024697901772E0FFEF24FAFFEF54FFFF67
:10472E00901776E0FCA3E0FD8D828C83A3A3EFF0BF
:10473E00901776E0FEA3E0FF8F828E83A3A3A3E4FF
:10474E00F0901772E0FF7E00EF24FAFFEE34FFFECA
:10475E007F00EEFF7E00901776E0FCA3E0FD8D82D9
:10476E008C83E5822404F582E5833400F583EFF033
:10477E00901776E0FEA3E0FF8F828E83E5822405FC
:10478E00F582E5833400F583E4F09017737406F038
:10479E00901772E0FF901773E0FEEEC39F502B90C0
:1047AE001773E0FF901776E0FCA3E0FD8D828C83FB
:1047BE00E5822FF582E43583F583E0FF901774E0F0
:1047CE002FF0901773E004F080C6901774E0FF90FE
:1047DE001772E0FE04F0901776E0FCA3E0FD8D82E8
:1047EE008C83E5822EF582E43583F583EFF0901706
:1047FE0076E0FEA3E0FFAA06A9077B01901772E000
:10480E00FD901771E0FFEF70047F0080027F019032
:0F481E001AD6EFF012E9F8EF60037F02227F0055
:01482D002268
:05A7BD00901CB6EFF056
:10A7C2007B017A0579B112E770EF64FF7003EE64E2
:10A7D200FF603E900768E0FEA3E0FFAA06A9077BA0
:10A7E20001C003C002C0017B017A1C79B790190F26
:10A7F200122B77901912E4F0D001D002D0031295F7
:10A80200A7EFB4010C901CB7E0FF7D00122CA180D1
:10A81200C27B017A07796A12E770EF64FF7003EE78
:10A8220064FF603F900888E0FEA3E0FFAA06A90744
:10A832007B01C003C002C0017B017A1C79B7901969
:10A842000F122B779019127401F0D001D002D003AD
:10A852001295A7EFB4010C901CB7E0FF7D01122CFA
:0BA86200A180C1901CB6E0FF12EF883F
:01A86D0022C8
:0A2CA100901873EFF0901874EDF036
:102CAB00901874E0FFEF701E900768E0FEA3E0FF42
:102CBB00901879EEF0A3EFF07E057FB190187BEEC4
:102CCB00F0A3EFF0801C900888E0FEA3E0FF9018C3
:102CDB0079EEF0A3EFF07E077F6A90187BEEF0A3FE
:102CEB00EFF090187BE0FEA3E0FFAA06A9077B019B
:102CFB0012E770901875EEF0A3EFF0901875E0FEE8
:102D0B00A3E0FFEF64FF7003EE64FF70030234680F
:102D1B0090187BE0FEA3E0FFAA06A9077B019018A1
:102D2B0075E0FCA3E0FD12BE80AE02AF01901877F8
:102D3B00EEF0A3EFF0901877E0FEA3E0FFEF4E70FC
:102D4B0003023468901879E0FEA3E0FF8F828E8334
:102D5B00E5822404F582E5833400F583E0FFEF126E
:102D6B002B802D89002DB2012DF2022E94032F639F
:102D7B000430F80832D10A32080B0000346890187E
:102D8B0073E0FFEF64556003023468901879E0FE3E
:102D9B00A3E0FF8F828E83E5822404F582E58334E2
:102DAB0000F5837401F022901873E0FFEFB4331C2D
:102DBB00901879E0FEA3E0FF8F828E83E5822404D6
:102DCB00F582E5833400F5837402F022901879E0E4
:102DDB00FEA3E0FF8F828E83E5822404F582E583D8
:102DEB003400F583E4F022901873E0FF901879E03B
:102DFB00FCA3E0FD8D828C83E5822407F582E583BD
:102E0B003400F583EFF0901873E0FFEFB455047FB7
:102E1B000180027F00901879E0FCA3E0FD8D828C8D
:102E2B0083E582240CF582E5833400F583EFF09083
:102E3B001879E0FEA3E0FF8F828E83E5822404F5F0
:102E4B0082E5833400F5837403F0901879E0FEA3D8
:102E5B00E0FF8F828E83E5822406F582E5833400C2
:102E6B00F5837404F090187BE0FEA3E0FFAA06A99B
:102E7B00077B01901875E0FCA3E0FD901873E0FF51
:102E8B009019B2EFF012BEF822901873E0FFEF70BA
:102E9B0035901879E0FEA3E0FF8F828E83E58224C4
:102EAB0006F582E5833400F583E0FF901879E0FCAA
:102EBB00A3E0FD8D828C83E5822404F582E58334C7
:102ECB0000F583EFF022901879E0FEA3E0FF8F82EC
:102EDB008E83E582240CF582E5833400F583E0FFD5
:102EEB00EF6040901873E0FFEFB4331C901879E05B
:102EFB00FEA3E0FF8F828E83E5822404F582E583B7
:102F0B003400F5837402F022901879E0FEA3E0FF01
:102F1B008F828E83E5822404F582E5833400F5836A
:102F2B00E4F022901879E0FEA3E0FF8F828E83E518
:102F3B00822404F582E5833400F583E4F09018795C
:102F4B00E0FEA3E0FF8F828E83E582240CF582E501
:102F5B00833400F583E4F022901873E0FFEFB4554F
:102F6B00047F0180027F00901879E0FCA3E0FD8DC7
:102F7B00828C83E582240CF582E5833400F583EFA4
:102F8B00F0901879E0FEA3E0FF8F828E83E5822418
:102F9B0007F582E5833400F583E0FF901873E0FEBC
:102FAB007E00EE4FFF901879E0FCA3E0FD8D828C44
:102FBB0083E5822407F582E5833400F583EFF090F7
:102FCB00187BE0FEA3E0FFAA06A9077B019018750A
:102FDB00E0FCA3E0FD901873E0FF9019B2EFF01244
:102FEB00BEF8901879E0FEA3E0FF8F828E83E58216
:102FFB002407F582E5833400F583E0FFEFD39400DB
:10300B0050030230B8901879E0FEA3E0FF8F828E58
:10301B0083E5822407F582E5833400F583E0FFEF37
:10302B00D3944640030230B8901879E0FEA3E0FF3A
:10303B008F828E83E5822408F582E5833400F58345
:10304B00E4F0901879E0FEA3E0FF8F828E83E58297
:10305B002409F582E5833400F583E4F0901879E0D8
:10306B00FEA3E0FF8F828E83E582240AF582E5833F
:10307B003400F583E4F0901879E0FEA3E0FF8F8233
:10308B008E83E5822406F582E5833400F58374088C
:10309B00F0901879E0FEA3E0FF8F828E83E5822407
:1030AB0004F582E5833400F5837403F022901873E2
:1030BB00E0FFEFB4551C901879E0FEA3E0FF8F8280
:1030CB008E83E5822404F582E5833400F583740155
:1030DB00F022901879E0FEA3E0FF8F828E83E582C9
:1030EB002404F582E5833400F583E4F02290187311
:1030FB00E0FFEFB45536901879E0FEA3E0FF8F8226
:10310B008E83E5822404F582E5833400F583740A0B
:10311B00F0901879E0FEA3E0FF8F828E83E5822486
:10312B0006F582E5833400F5837408F090187BE094
:10313B00FEA3E0FFAA06A9077B01901875E0FCA38C
:10314B00E0FD901873E0FF9019B2EFF012BEF8900B
:10315B001873E0FF901879E0FCA3E0FD8D828C835F
:10316B00E582240AF582E5833400F583E02FF090A5
:10317B001879E0FEA3E0FF8F828E83E5822409F5A8
:10318B0082E5833400F583E004F0901879E0FEA328
:10319B00E0FF8F828E83E5822408F582E58334007D
:1031AB00F583E004F0901879E0FEA3E0FF8F828EA8
:1031BB0083E5822407F582E5833400F583E0FF90F5
:1031CB001879E0FCA3E0FD8D828C83E5822408F561
:1031DB0082E5833400F583E0FEEEC39F5003023497
:1031EB0068901879E0FEA3E0FF8F828E83E582243E
:1031FB0004F582E5833400F583740BF02290187983
:10320B00E0FEA3E0FF8F828E83E582240AF582E540
:10321B00833400F583E0FFEF54FFFF901873E0FE5B
:10322B00EF6E601D901879E0FEA3E0FF8F828E8316
:10323B00E582240BF582E5833400F583E004F0800E
:10324B006A901879E0FEA3E0FF8F828E83E58224DB
:10325B0009F582E5833400F583E0FF901877E0FCF5
:10326B00A3E0FD8D828C83EFF0901879E0FEA3E054
:10327B00FF8F828E83E5822409F582E5833400F586
:10328B0083E0FF7E007F00EEFF7E00901877E0FC6E
:10329B00A3E0FD8D828C83A3EFF090187BE0FEA35F
:1032AB00E0FFAA06A9077B0112D5D4901879E0FE9E
:1032BB00A3E0FF8F828E83E5822404F582E58334BD
:1032CB0000F583E4F022901873E0FFEF64AA60032B
:1032DB00023419901879E0FEA3E0FF8F828E83E50C
:1032EB00822408F582E5833400F583E0FF7E00EF4E
:1032FB002401FFEE3400FE901879E0FCA3E0FD8D75
:10330B00828C83E5822407F582E5833400F583E024
:10331B00FD7C00C3EF9DEC6480F8EE648098401D4B
:10332B00901879E0FEA3E0FF8F828E83E582240460
:10333B00F582E5833400F583740BF08034901879B3
:10334B00E0FEA3E0FF8F828E83E5822406F582E503
:10335B00833400F583E0FF901879E0FCA3E0FD8D4A
:10336B00828C83E5822404F582E5833400F583EFB8
:10337B00F0901879E0FEA3E0FF8F828E83E5822424
:10338B0006F582E5833400F583E0FFEF64086041C6
:10339B00901879E0FEA3E0FF8F828E83E5822406EE
:1033AB00F582E5833400F583E0FFEF64066022903D
:1033BB001879E0FEA3E0FF8F828E83E5822406F569
:1033CB0082E5833400F583E0FFEF6407600302348A
:1033DB0059901879E0FEA3E0FF8F828E83E582245B
:1033EB0008F582E5833400F583E004F0901873E070
:1033FB00FF901879E0FCA3E0FD8D828C83E582249D
:10340B000AF582E5833400F583E02FF080409018B5
:10341B0073E0FFEFB4331D901879E0FEA3E0FF8F4C
:10342B00828E83E5822404F582E5833400F5837470
:10343B0002F0801A901879E0FEA3E0FF8F828E8352
:10344B00E5822404F582E5833400F583E4F09018DB
:0D345B0079E0FEA3E0FF8F828E83E004F095
:013468002241
:06FD71007F0112F872226E
:10F87200901CF5EFF0901CF5E0FFEF70077B017A2A
:0BF882000579B1227B017A07796A2228
:06DB8A00901944122B77F4
:10DB9000901944122B6E901947122B779019471247
:10DBA0002B6E758201758300122650FF90194AEF83
:10DBB000F0901947122B6E122637FF901947122B3F
:10DBC0006E758201758300EF1226E490194AE0FF1A
:0ADBD000901947122B6EEF1226D2B7
:01DBDA002228
:06AFA00090194B122B7703
:10AFA60090194B122B6E90194E122B7790194E1248
:10AFB6002B6E758203758300122650FF901951EF90
:10AFC600F090194E122B6E122637FF90194E122B47
:10AFD6006E758203758300EF1226E4901951E0FF27
:10AFE60090194E122B6EEF1226D290194E122B6E1E
:10AFF600758202758300122650FF901951EFF0906A
:10B00600194E122B6E758201758300122650FF9021
:10B01600194E122B6E758202758300EF1226E4908C
:10B026001951E0FF90194E122B6E7582017583003F
:04B03600EF1226E40B
:01B03A0022F3
:06A2B40090180B122B773D
:10A2BA0090181174FF75F0FF122783AFF0FEEF4E6E
:10A2CA00700302A36F901811E0FEA3E0FFEF25E0F0
:10A2DA00FFEE33FE90180B122B6E8F828E8312279D
:10A2EA00C4FDACF0901811E0FEA3E0FFEF25E0FFFB
:10A2FA00EE33FE90180E122B6E8F828E83EC8DF049
:10A30A00122868901811E0FEA3E0FFEF25E0FFEEA7
:10A31A0033FE90180E122B6EE92FF9EA3EFA9018C6
:10A32A0013122B77901813122B6E75820175830006
:10A33A00122650FF901816EFF0901813122B6E1277
:10A34A002637FF901813122B6E758201758300EF62
:10A35A001226E4901816E0FF901813122B6EEF12D3
:05A36A0026D202A2BA98
:01A36F0022CB
:0681CF00901817122B7737
:1081D50090181D74FF75F0FF122783AFF0FEEF4E68
:1081E50070030282EA90181DE0FEA3E0FFEF78021B
:1081F500C333CE33CED8F9FF901817122B6E8F826A
:108205008E83122A11C004C005C006C00790181D30
:10821500E0FEA3E0FFEF7802C333CE33CED8F9FFFB
:1082250090181A122B6E8F828E83D007D006D00538
:10823500D004122A5B90181DE0FEA3E0FFEF780240
:10824500C333CE33CED8F9FF90181A122B6EE92F0F
:10825500F9EA3EFA90181F122B7790181F122B6E11
:10826500758203758300122650FF901822EFF09057
:10827500181F122B6E122637FF90181F122B6E75C2
:108285008203758300EF1226E4901822E0FF901810
:108295001F122B6EEF1226D290181F122B6E7582AD
:1082A50002758300122650FF901822EFF090181FD8
:1082B500122B6E758201758300122650FF90181FD0
:1082C500122B6E758202758300EF1226E490182238
:1082D500E0FF90181F122B6E758201758300EF1257
:0582E50026E40281D532
:0182EA002271
:1086300075FFDE75FFAD12EBB012E4B512E93A1228
:10864000F06E12002A12003112FC8212FC8E12FC13
:108650007612003212E17112001912002212002962
:1086600012FCDC12DB3912482E12F27E12FD55127A
:10867000FD4E12E548125C7012F34712F7C612F86D
:10868000C212F81E12AC7512F9DE12B6FC12F76CAB
:10869000125F0712C40812840612FD63D2AF12A043
:1086A000777BFF7ABB799412DA949019B8EFF07B5C
:1086B000FF7AD5797B12DA949019B6EFF07BFF7AC6
:1086C00061795C12DA949019B7EFF09019B6E0FF77
:1086D0009019B7E0FD12F72F9019B6E0FF7D001258
:1086E000EBE49019B8E0FF7D0012EBE47BFF7AA188
:1086F000793812DA949019B3EFF07BFF7AA779BD3D
:1087000012DA949019B4EFF07BFF7A8D796912DA5E
:10871000949019B5EFF09019B3E0FF7D0012EBE4EF
:108720009019B4E0FF7D0012EBE49019B5E0FF7DF5
:108730000012EBE47D017F1412775E128C6F80FBD8
:018740002216
:0CFC8200C2A875840F43E34043E2042253
:0CFC8E00C2AA75840F43E34043E2102239
:03000300020011E7
:0100110032BC
:03001300020012D6
:0100120032BB
:06FD2B00901CF6E004F05C
:01FD310022AF
:03001B0002FB0FD6
:10FB0F00C0E0C083C08212FD2BD082D083D0E03200
:03002B0002FB1FB6
:10FB1F00C0E0C083C08212FD2BD082D083D0E032F0
:0300430002FB2F8E
:10FB2F00C0E0C083C08212FD2BD082D083D0E032E0
:03004B0002FB3F76
:10FB3F00C0E0C083C08212FD2BD082D083D0E032D0
:0300530002FB4F5E
:10FB4F00C0E0C083C08212FD2BD082D083D0E032C0
:03005B0002FB5F46
:10FB5F00C0E0C083C08212FD2BD082D083D0E032B0
:0300630002FB6F2E
:10FB6F00C0E0C083C08212FD2BD082D083D0E032A0
:03006B0002FB7F16
:10FB7F00C0E0C083C08212FD2BD082D083D0E03290
:0300830002FB8FEE
:10FB8F00C0E0C083C08212FD2BD082D083D0E03280
:03008B0002FB9FD6
:10FB9F00C0E0C083C08212FD2BD082D083D0E03270
:0300930002FBAFBE
:10FBAF00C0E0C083C08212FD2BD082D083D0E03260
:03009B0002FBBFA6
:10FBBF00C0E0C083C08212FD2BD082D083D0E03250
:0300AB0002FBCF86
:10FBCF00C0E0C083C08212FD2BD082D083D0E03240
:10482E007F0012F872AE02AF0190134DEEF0A3EFBF
:10483E00F07F0112F872AE02AF019012C9EEF0A332
:10484E00EFF090134DE0FEA3E0FFAA06A9077B014F
:10485E0012DAE79012C9E0FEA3E0FFAA06A9077BD1
:10486E000112DAE77BFF7ADD79BD12DA9490134CF0
:10487E00EFF07BFF7ADC797D12DA9490134FEFF034
:10488E0090134FE0FF7D0012EBE47BFF7AA579A237
:10489E0012DA949012F3EFF07BFF7ACB791D12DAD5
:1048AE00949012B5EFF09012F3E0FF7D0012EBE45E
:1048BE009012B5E0FF7D0012EBE47BFF7ACE7973A8
:1048CE0012DA949012A1EFF09012E4E4F09012DD5F
:1048DE00E4F0901303E4F0A3E4F0901332E4F0A3B9
:1048EE00E4F09012EF7407F0A37408F07BFF7AAF38
:1048FE00790412DA9490130EEFF07BFF7ACF7927BA
:10490E0012DA9490132FEFF07BFF7ACF798112DABF
:10491E00949012B4EFF07BFF7ACE79CD12DA9490A8
:10492E0012C2EFF07BFF7AD6792C12DA949012C075
:10493E00EFF07BFF7AB2790612DA94901345EFF01E
:10494E007BFF7AD6798412DA9490130AEFF07BFF0C
:10495E007ACF79DB12DA949012AEEFF07BFF7AD039
:10496E00793512DA94901340EFF07BFF7AB0793BF1
:10497E0012DA949012DCEFF07BFF7AC3792412DA0C
:10498E00949012B7EFF07BFF7AD0798F12DA949071
:10499E0012BDEFF07BFF7AD079E912DA949012A46F
:1049AE00EFF07BFF7AD779E412DA949012CFEFF022
:1049BE007BFF7AD679DC12DA9490132BEFF07BFF23
:1049CE007AB9790D12DA9490133AEFF07BFF7AD11F
:1049DE00794312DA949012D2EFF07BFF7AD1799D5F
:1049EE0012DA949012EEEFF07BFF7AB479D312DAEA
:1049FE00949012FEEFF07BFF7AB479D312DA949092
:104A0E0012FEEFF07BFF7AD179F712DA949012CB87
:104A1E00EFF07BFF7AD2795112DA949012E1EFF037
:104A2E007BFF7ABE790612DA949012F5EFF07BFFD7
:104A3E007ACA79BA12DA949012F8EFF07BFF7A8B79
:104A4E00797012DA94901346EFF07BFF7AD279AB3D
:104A5E0012DA94901312EFF07BFF7AD8793B12DAC8
:104A6E00949012C6EFF07BFF7AD8799212DA949076
:104A7E0012B6EFF07BFF7AAB79CC12DA949012CCAF
:104A8E00EFF07BFF7AC479EB12DA9490132AEFF0F1
:104A9E007BFF7AD3790512DA949012C3EFF07BFF85
:104AAE007AD3795F12DA94901315EFF07BFF7AB315
:104ABE00792912DA949012F4EFF07BFF7AB9798F9C
:104ACE0012DA949012BAEFF07BFF7AC9798B12DA70
:104ADE0094901309EFF07BFF7A88795012DA949054
:104AEE0012FBEFF07BFF7AD379B912DA949013119F
:104AFE00EFF07BFF7ACC794412DA9490132EEFF01C
:104B0E007BFF7AD7793412DA9490131CEFF07BFF87
:104B1E007AD4791312DA9490133FEFF07BFF7AD4A4
:104B2E0079C712DA949012E0EFF07BFF7AD4796DA8
:104B3E0012DA949012D9EFF07BFF7A8F794D12DA58
:104B4E00949012C1EFF09012C1E0FF7D0012EBE4E1
:0F4B5E007BFF7AD5792112DA9490130BEFF022B6
:058D6900901A00EFF07C
:108D6E0090134DE0FEA3E0FFAA06A9077B0112ECCB
:108D7E00AF901A01EEF0A3EFF0901A01E0FEA3E01F
:108D8E00FFEF64FF7003EE64FF604790134DE0FE4B
:108D9E00A3E0FFAA06A9077B01901A01E0FCA3E05D
:108DAE00FD12BE80AE02AF01901A03EEF0A3EFF0FB
:108DBE00901A03E0FEA3E0FFAA06A9077B01121298
:108DCE00C990134DE0FEA3E0FFAA06A9077B01128E
:108DDE00CBE39012C9E0FEA3E0FFAA06A9077B0130
:108DEE0012ECAF901A01EEF0A3EFF0901A01E0FE34
:108DFE00A3E0FFEF64FF7003EE64FF60479012C9BB
:108E0E00E0FEA3E0FFAA06A9077B01901A01E0FC91
:108E1E00A3E0FD12BE80AE02AF01901A03EEF0A3E6
:108E2E00EFF0901A03E0FEA3E0FFAA06A9077B016C
:108E3E001271769012C9E0FEA3E0FFAA06A9077B85
:0C8E4E000112CBE3901A00E0FF12EF8845
:018E5A0022F5
:0B8E5B00901952122B77901955EDF082
:108E6600901952122B6E122637FF7E00901956EE7D
:108E7600F0A3EFF0901956E0FCA3E0FD9019521212
:108E86002B6E758201758300122650FF7E00EF7FE0
:108E960000FEEC4EFEED4FFF901956EEF0A3EFF0FC
:108EA600901955E0FFEFB404047F0180027F009023
:108EB6001958EFF0901958E0FFEFB4010A901952D3
:108EC600122B6E1200D622901952122B6EE924052F
:108ED600F9EA3400FAC003C002C001901956E0FE58
:108EE600A3E0FFEF24FDFDEE34FFFC901952122B98
:108EF6006E758203758300122650FF90176DEFF092
:108F0600901952122B6E758202758300122650FF3D
:108F160090176EEFF0901952122B6E7582047583BE
:108F260000122650FF90176FEFF09017707401F043
:108F3600901958E0FF901771EFF0D001D002D003DE
:068F46001244E0EF70810F
:018F4C002202
:0612C90090187D122B7746
:1012CF0090187D122B6E758202758300122650FFC7
:1012DF00901882EFF090187D122B6E758203758334
:1012EF0000122650FF901883EFF090187D122B6E8E
:1012FF00758205758300122650FF901880EFF090CD
:10130F00187D122B6E758204758300122650FF9084
:10131F001881EFF0901883E0FFEFB4040F90187D61
:10132F00122B6E901883E0FD128E5B229012DD74EB
:10133F0001F07B017A1279AF7D707C1712C7E790AD
:10134F001880E0FFEF122B8013E2011B01641B4B8F
:10135F00651C2C661AE26716A36815E16A163A6BCC
:10136F0016846C18916D18DB6E1A086F1A65701A57
:10137F00C371140176153C7714FE7816E17C172B98
:10138F007D18727E155B7F157F8015A3811C898464
:10139F001DCE8816C28A1E188B151D8D1FBD8E205F
:1013AF00248F1CC7901D59911CA8921A27931E6455
:1013BF00951A46961ED997145A981C4B992043A1FB
:1013CF0019E4A22062A32142A41C6AA515C2FA0047
:1013DF000021E3901882E0FF9012BEEFF090188189
:1013EF00E0FF9012BFEFF090134CE0FF7D0012EB87
:0213FF00E422E6
:1014010090187D122B6EE92406F9EA3400FAAE0237
:10141100AF01901884EEF0A3EFF0901882E0FF90F6
:10142100134AEFF0901881E0FF90134BEFF0901802
:1014310084E0FEA3E0FF8F828E83E0FF901884E0BA
:10144100FCA3E0FD8D828C83A3E0FD12775E9013F7
:091451002FE0FF7D0012EBE42204
:10145A0090187D122B6EE92406F9EA3400FAAE02DE
:10146A00AF01901884EEF0A3EFF0901882E0FF909D
:10147A0012E2EFF0901881E0FF9012E3EFF090187B
:10148A0084E0FEA3E0FFAA06A9077B0112DB8A908B
:10149A001884E0FEA3E0FFEF2402FFEE3400FEAA68
:1014AA0006A9077B0112DB8A901884E0FEA3E0FFFD
:1014BA008F828E83E0FEA3E0FF901884E0FCA3E015
:1014CA00FD8D828C83A3A3E0FCA3E0FD901884E049
:1014DA00FAA3E0FB8B828A83E5822404F582E58302
:1014EA003400F583E0FB12C3969012C2E0FF7D0040
:0414FA0012EBE422EB
:1014FE00901882E0FF9012DEEFF0901881E0FF90DE
:10150E0012DFEFF09012C0E0FF7D0012EBE42290AC
:10151E001882E0FF9012B8EFF0901881E0FF901261
:10152E00B9EFF0901345E0FF7D0012EBE422901826
:10153E0082E0FF901330EFF0901881E0FF901331AE
:10154E00EFF090130AE0FF7D0012EBE42290188278
:10155E00E0FF9012CDEFF0901881E0FF9012CEEFE9
:10156E00F07F0112CD019012AEE0FF7D0012EBE490
:10157E0022901882E0FF9012A7EFF0901881E0FF02
:10158E009012A8EFF07F0012CD01901340E0FF7D86
:10159E000012EBE422901882E0FF901301EFF0901E
:1015AE001881E0FF901302EFF09012DCE0FF7D0057
:1015BE0012EBE422901882E0FF9012D5EFF0901813
:1015CE0081E0FF9012D6EFF09012B7E0FF7D00128F
:0315DE00EBE42219
:1015E10090187D122B6EE92406F9EA3400FAAE0256
:1015F100AF01901884EEF0A3EFF0901882E0FF9015
:1016010012DAEFF0901881E0FF9012DBEFF0901802
:1016110084E0FEA3E0FF8F828E83E0FF901884E0D8
:10162100FCA3E0FD8D828C83A3E0FD12F6B3901242
:09163100BDE0FF7D0012EBE42294
:10163A0090187D122B6EE92406F9EA3400FAAE02FC
:10164A00AF01901884EEF0A3EFF0901882E0FF90BB
:10165A0012C7EFF0901881E0FF9012C8EFF09018CF
:10166A0084E0FEA3E0FF8F828E83E0FF12F2A79050
:0A167A0012A4E0FF7D0012EBE42251
:10168400901882E0FF9012FCEFF0901881E0FF9038
:1016940012FDEFF09012CFE0FF7D0012EBE42290F8
:1016A4001882E0FF901343EFF0901881E0FF90134D
:1016B40044EFF090132BE0FF7D0012EBE42290182E
:1016C40082E0FF9012A2EFF0901881E0FF9012A345
:0D16D400EFF090133AE0FF7D0012EBE422EE
:1016E10090187D122B6EE92406F9EA3400FAAE0255
:1016F100AF01901884EEF0A3EFF0901882E0FF9014
:1017010012FFEFF0901881E0FF901300EFF09018B6
:1017110084E0FEA3E0FF8F828E83E0FF12F3BC9092
:0A17210012D2E0FF7D0012EBE4227B
:10172B0090187D122B6EE92406F9EA3400FAAE020A
:10173B00AF01901884EEF0A3EFF0901882E0FF90C9
:10174B00130CEFF0901881E0FF90130DEFF0901851
:10175B0084E0FEA3E0FFEF2406FFEE3400FEAA06B2
:10176B00A9077B01C003C002C001901884E0FEA34F
:10177B00E0FFEF2406FFEE3400FEAA06A9077B016B
:10178B0090180E122B77901811E4F0A3740FF0D071
:10179B0001D002D00312A2B4901884E0FEA3E0FFA4
:1017AB00EF240CFFEE3400FEAA06A9077B01C00351
:1017BB00C002C001901884E0FEA3E0FFEF2418FFE5
:1017CB00EE3400FEAA06A9077B019017AE122B7709
:1017DB00901884E0FEA3E0FF8F828E83E5822406BF
:1017EB00F582E5833400F583E0FEA3E0FF9017B1AB
:1017FB00EEF0A3EFF0901884E0FEA3E0FF8F828E53
:10180B0083E5822408F582E5833400F583E0FEA3AB
:10181B00E0FF9017B3EEF0A3EFF0901884E0FEA377
:10182B00E0FF8F828E83E582240AF582E583340004
:10183B00F583E0FEA3E0FF9017B5EEF0A3EFF09079
:10184B001884E0FEA3E0FFAA06A9077B019017B757
:10185B00122B77D001D002D003128A6C9012EEE0DB
:07186B00FF7D0012EBE422F7
:10187200901882E0FF901328EFF0901881E0FF901B
:0F1882001329EFF09012FEE0FF7D0012EBE4223D
:1018910090187D122B6EE92406F9EA3400FAAE02A3
:1018A100AF01901884EEF0A3EFF0901882E0FF9062
:1018B10012F6EFF0901881E0FF9012F7EFF0901818
:1018C10084E0FEA3E0FF8F828E83E0FF12EB48905D
:0A18D10012CBE0FF7D0012EBE422D1
:1018DB0090187D122B6EE92406F9EA3400FAAE0259
:1018EB00AF01901884EEF0A3EFF0901882E0FF9018
:1018FB001307EFF0901881E0FF901308EFF09018AA
:10190B0084E0FEA3E0FFAA06A9077B0112DB8A9005
:10191B001884E0FEA3E0FFEF2402FFEE3400FEAAE2
:10192B0006A9077B0112DB8A901884E0FEA3E0FF77
:10193B00EF2406FFEE3400FEAA06A9077B0112DB9B
:10194B008A901884E0FEA3E0FF8F828E83E0FEA3D3
:10195B00E0FFC006C007901884E0FEA3E0FF8F8273
:10196B008E83A3A3E0FCA3E0FD901884E0FEA3E02C
:10197B00FF8F828E83E5822404F582E5833400F5A4
:10198B0083E0FB901884E0FEA3E0FF8F828E83E55B
:10199B00822405F582E5833400F583E0FF9019E29C
:1019AB00EFF0D007D00612E46B901884E0FEA3E0B2
:1019BB00FF8F828E83E5822406F582E5833400F562
:1019CB0083E0FEA3E0FF9012EFEEF0A3EFF0901296
:0919DB00E1E0FF7D0012EBE422C3
:1019E400901882E0FF9012D0EFF0901881E0FF9001
:1019F40012D1EFF07F0012FC0F9012B4E0FF7D00D3
:101A040012EBE422901882E0FF901313EFF0901889
:101A140081E0FF901314EFF09012F5E0FF7D0012C7
:101A2400EBE422901882E0FF901316EFF0901881F7
:101A3400E0FF901317EFF09012F8E0FF7D0012EB37
:101A4400E422901882E0FF9012BBEFF0901881E03E
:101A5400FF9012BCEFF0901346E0FF7D0012EBE420
:011A6400225F
:101A650090187D122B6EE92406F9EA3400FAAE02CD
:101A7500AF01901884EEF0A3EFF0901882E0FF908C
:101A85001338EFF0901881E0FF901339EFF09018BC
:101A950084E0FEA3E0FFAA06A9077B0112DB8A907A
:101AA5001884E0FEA3E0FF8F828E83E0FEA3E0FFB3
:0E1AB50012EAA4901312E0FF7D0012EBE4226F
:101AC300901882E0FF9012F1EFF0901881E0FF9000
:101AD30012F2EFF09012C6E0FF7D0012EBE42290C9
:101AE3001882E0FF9012D3EFF0901881E0FF90127C
:0E1AF300D4EFF09012B6E0FF7D0012EBE4227B
:101B010090187D122B6EE92406F9EA3400FAAE0230
:101B1100AF01901884EEF0A3EFF0901884E0FEA3DB
:101B2100E0FF8F828E83E0FF12E420901882E0FFB5
:101B31009012EAEFF0901881E0FF9012EBEFF09035
:0A1B410012C3E0FF7D0012EBE42266
:101B4B0090187D122B6EE92406F9EA3400FAAE02E6
:101B5B00AF01901884EEF0A3EFF0901884E0FEA391
:101B6B00E0FFAA06A9077B0112DB8A901884E0FE2E
:101B7B00A3E0FFEF2403FFEE3400FEAA06A9077BC8
:101B8B000112DB8A901884E0FEA3E0FFEF2405FF2F
:101B9B00EE3400FEAA06A9077B0112DB8A9018849B
:101BAB00E0FEA3E0FF8F828E83E0FEA3E0FFC00682
:101BBB00C007901884E0FEA3E0FF8F828E83A3A35F
:101BCB00E0FD901884E0FEA3E0FF8F828E83A3A339
:101BDB00A3E0FAA3E0FB901884E0FEA3E0FF8F8262
:101BEB008E83E5822405F582E5833400F583E0FEE0
:101BFB00A3E0FF901973EEF0A3EFF0D007D006121D
:101C0B008741901882E0FF90133BEFF0901881E032
:101C1B00FF90133CEFF0901315E0FF7D0012EBE407
:011C2B002296
:101C2C00901882E0FF90130FEFF0901881E0FF9076
:101C3C001310EFF09012F4E0FF7D0012EBE4229011
:101C4C001882E0FF9012D7EFF0901881E0FF90120D
:101C5C00D8EFF09012BAE0FF7D0012EBE42290185E
:101C6C0082E0FF90132CEFF0901881E0FF90132D81
:101C7C00EFF0901309E0FF7D0012EBE42290188244
:101C8C00E0FF9012F9EFF0901881E0FF9012FAEF5C
:101C9C00F09012CCE0FF7D0012EBE422901882E071
:101CAC00FF901341EFF0901881E0FF901342EFF09A
:0B1CBC0090132AE0FF7D0012EBE422F1
:101CC70090187D122B6EE92406F9EA3400FAAE0269
:101CD700AF01901884EEF0A3EFF0901886E4F0902F
:101CE7001882E0FF90131DEFF0901881E0FF90132A
:101CF7001EEFF0901884E0FEA3E0FF8F828E83E052
:101D0700FF90131FEFF0901884E0FEA3E0FF8F828F
:101D17008E83A3E0FF901320EFF09013217401F05E
:101D27009012FBE0FF12F96D901886EFF09018867D
:101D3700E0FFEF640270030221E3901886E0FFEFF3
:101D4700640370030221E39012FBE0FF7D0012EBB6
:021D5700E42284
:101D590090187D122B6EE92406F9EA3400FAAE02D6
:101D6900AF01901884EEF0A3EFF0901882E0FF9095
:101D79001336EFF0901881E0FF901337EFF09018C9
:101D890084E0FEA3E0FFEF2401FFEE3400FEAA0683
:101D9900A9077B0112DB8A901884E0FEA3E0FF8F7C
:101DA900828E83E0FF901884E0FCA3E0FD8D828C95
:101DB90083A3E0FCA3E0FD12F88D901311E0FF7DF1
:051DC9000012EBE42212
:101DCE0090188474C8F09018857488F0901886E482
:101DDE00F07B017A187984901882E0FF90176DEFEE
:101DEE00F090176E7403F0901881E0FF90176FEF6C
:101DFE00F09017707401F0901771E4F07D037C0081
:0A1E0E001244E0EF70CB75EF0222E2
:101E180090187D122B6EE92406F9EA3400FAAE0216
:101E2800AF01901884EEF0A3EFF0901882E0FF90D5
:101E380012C4EFF0901881E0FF9012C5EFF09018EF
:101E480084E0FEA3E0FF8F828E83E0FF9012E4EF30
:0C1E5800F09012A1E0FF7D0012EBE422EC
:101E640090187D122B6EE92406F9EA3400FAAE02CA
:101E7400AF01901884EEF0A3EFF0901882E0FF9089
:101E840012A5EFF0901881E0FF9012A6EFF09018E1
:101E940084E0FEA3E0FFEF2401FFEE3400FEAA0677
:101EA400A9077B0112DB8A901884E0FEA3E0FF8F70
:101EB400828E83E0FF901884E0FCA3E0FD8D828C89
:101EC40083A3E0FCA3E0FD12F1A990133FE0FF7DA2
:051ED4000012EBE42206
:101ED90090187D122B6EE92406F9EA3400FAAE0255
:101EE900AF01901884EEF0A3EFF0901882E0FF9014
:101EF9001305EFF0901881E0FF901306EFF09018AA
:101F090084E0FEA3E0FFEF2401FFEE3400FEAA0601
:101F1900A9077B0112DB8A901884E0FEA3E0FFEF9A
:101F29002403FFEE3400FEAA06A9077B0112DB8A0F
:101F3900901884E0FEA3E0FFEF2405FFEE3400FED5
:101F4900AA06A9077B0112DB8A901884E0FEA3E0A8
:101F5900FF8F828E83E0FFC007901884E0FEA3E024
:101F6900FF8F828E83A3E0FCA3E0FD901884E0FE3E
:101F7900A3E0FF8F828E83A3A3A3E0FAA3E0FB90E3
:101F89001884E0FEA3E0FF8F828E83E5822405F5A5
:101F990082E5833400F583E0FEA3E0FF90196CEE3F
:101FA900F0A3EFF0D00712A6599012E0E0FF7D00F0
:041FB90012EBE42221
:101FBD0090187D122B6EE92406F9EA3400FAAE0270
:101FCD00AF01901884EEF0A3EFF0901886E4F09036
:101FDD001882E0FF901347EFF0901881E0FF901307
:101FED0048EFF0901884E0FEA3E0FFAA06A9077B56
:101FFD0001129BA8901886EFF0901886E0FFEF6015
:10200D00047F0080027F01901349EFF090132EE0C2
:07201D00FF7D0012EBE4223D
:10202400901882E0FF90133DEFF0901881E0FF904C
:10203400133EEFF090131CE0FF7D0012EBE42290BE
:102044001882E0FF901334EFF0901881E0FF9013B2
:0E20540035EFF090130EE0FF7D0012EBE4225A
:1020620090187D122B6EE92406F9EA3400FAAE02CA
:10207200AF01901884EEF0A3EFF0901884E0FEA375
:10208200E0FFEF2403FFEE3400FEAA06A9077B015E
:1020920012DB8A901884E0FEA3E0FFEF2405FFEE36
:1020A2003400FEAA06A9077B0112DB8A901882E09F
:1020B200FF9012ECEFF0901881E0FF9012EDEFF03C
:1020C200901884E0FEA3E0FF8F828E83E0FFC007BA
:1020D200901884E0FEA3E0FF8F828E83A3E0FD9040
:1020E2001884E0FEA3E0FF8F828E83A3A3E0FB901F
:1020F2001884E0FEA3E0FF8F828E83A3A3A3E0FEF9
:10210200A3E0FF901906EEF0A3EFF0901884E0FE32
:10211200A3E0FF8F828E83E5822405F582E5833476
:1021220000F583E0FEA3E0FF901908EEF0A3EFF0C4
:10213200D00712983E9012D9E0FF7D0012EBE42204
:1021420090187D122B6EE92406F9EA3400FAAE02E9
:10215200AF01901884EEF0A3EFF0901882E0FF90A8
:102162001318EFF0901881E0FF901319EFF0901818
:1021720084E0FEA3E0FF8F828E83E0FF90131AEFCC
:10218200F0901884E0FEA3E0FF8F828E83A3E0FF2D
:1021920090131BEFF090131BE0FFEF122B8021AD89
:1021A2000121B90221C503000021D990131AE0FDD3
:1021B2007F0A12775E802090131AE0FD7F0D12775E
:1021C2005E801490131AE0FD7F0A12775E90131A54
:1021D200E0FD7F0D12775E90130BE0FF7D0012EBA6
:0121E200E418
:0121E30022D9
:067176009018CD122B77EA
:10717C009018CD122B6E758202758300122650FF6B
:10718C009018D2EFF09018CD122B6E758203758388
:10719C0000122650FF9018D3EFF09018CD122B6EE2
:1071AC00758205758300122650FF9018D0EFF09071
:1071BC0018CD122B6E758204758300122650FF9029
:1071CC0018D1EFF09018D3E0FFEFB4010F9018CD69
:1071DC00122B6E9018D3E0FD128E5B229018D0E02B
:1071EC00FFEF122B80724DCA7293CC71FED8000047
:0271FC0072F827
:1071FE009018CD122B6EE92406F9EA3400FAAE028D
:10720E00AF019018D4EEF0A3EFF09018D4E0FEA3E7
:10721E00E0FFEF2402FFEE3400FEAA06A9077B0171
:10722E0012DB8A9018D4E0FEA3E0FF8F828E83A338
:0F723E00A3E0FEA3E0FF901303EEF0A3EFF02216
:10724D009018CD122B6EE92406F9EA3400FAAE023D
:10725D00AF019018D4EEF0A3EFF09018D4E0FEA398
:10726D00E0FF8F828E83E0FF9018D4E0FCA3E0FD59
:10727D008D828C83E5822404F582E5833400F583C9
:06728D00E0FD12F6D22222
:107293009018CD122B6EE92406F9EA3400FAAE02F7
:1072A300AF019018D4EEF0A3EFF09018D4E0FEA352
:1072B300E0FFAA06A9077B01C003C002C001901822
:1072C300D4E0FEA3E0FFAA06A9077B0190180E12E3
:1072D3002B77901811E4F0A37406F0D001D002D0FC
:1072E3000312A2B49018D4E0FEA3E0FFAA06A907F4
:0572F3007B0112E38A9B
:0172F8002273
:05DDBD00901CB8EFF01E
:10DDC200901CB97401F07B017A1C79B99012BEE003
:10DDD200FF90176DEFF090176E7403F09012BFE092
:10DDE200FF90176FEFF09017707401F0901771E4C5
:10DDF200F07D017C001244E0EF70067FFF12EC7DA3
:09DE020022901CB8E0FF12EF8829
:01DE0B0022F4
:05CE7300901B20EFF010
:10CE7800901B2174C8F0901B22748BF0901B23E444
:10CE8800F07B017A1B79219012C4E0FF90176DEFB7
:10CE9800F090176E7403F09012C5E0FF90176FEFD3
:10CEA800F09017707401F0901771E4F07D037C0026
:10CEB8001244E0EF70067FFF12EC7D22901B20E009
:04CEC800FF12EF88DE
:01CECC002243
:05CECD00901B24EFF0B2
:10CED200901B2574C8F0901B267498F0901B27E4D1
:10CEE200F07B017A1B79259012E2E0FF90176DEF3B
:10CEF200F090176E7403F09012E3E0FF90176FEF5B
:10CF0200F09017707401F0901771E4F07D037C00CB
:10CF12001244E0EF70067FFF12EC7D22901B24E0AA
:04CF2200FF12EF8883
:01CF260022E8
:05CF2700901B28EFF053
:10CF2C00901B2974C8F0901B2A7476F0901B2BE48C
:10CF3C00F07B017A1B792990134AE0FF90176DEF73
:10CF4C00F090176E7403F090134BE0FF90176FEF97
:10CF5C00F09017707401F0901771E4F07D037C0071
:10CF6C001244E0EF70067FFF12EC7D22901B28E04C
:04CF7C00FF12EF8829
:01CF8000228E
:05CF8100901B2CEFF0F5
:10CF8600901B2D74C8F0901B2E74A2F0901B2FE4FA
:10CF9600F07B017A1B792D9012D0E0FF90176DEF90
:10CFA600F090176E7403F09012D1E0FF90176FEFB8
:10CFB600F09017707401F0901771E4F07D037C0017
:10CFC6001244E0EF70067FFF12EC7D22901B2CE0EE
:04CFD600FF12EF88CF
:01CFDA002234
:05D62C00901A05EFF06B
:10D63100901A0674DAF07B017A1A790712912C7B21
:10D64100017A1A79069012DEE0FF90176DEFF090E3
:10D65100176E7403F09012DFE0FF90176FEFF090F8
:10D6610017707401F0901771E4F07D047C0012448E
:10D67100E0EF70067FFF12EC7D22901A05E0FF12A9
:02D68100EF8830
:01D683002284
:05B2060090153FEFF080
:10B20B0090154074EFF07B017A1579417D087F0032
:10B21B0012AD1D7B017A1579517D177F001259CB29
:10B22B007B017A157941C003C002C0017B017A15FD
:10B23B00794190180E122B77901811E4F0A374201B
:10B24B00F0D001D002D00312A2B47B017A15794061
:10B25B009012B8E0FF90176DEFF090176E7403F03B
:10B26B009012B9E0FF90176FEFF09017707401F028
:10B27B00901771E4F07D417C001244E0EF70067F83
:0DB28B00FF12EC7D2290153FE0FF12EF88CE
:01B298002293
:05D6840090191CEFF0FD
:10D6890090191D74D9F07B017A19791E12F17D7BED
:10D69900017A19791D901330E0FF90176DEFF09022
:10D6A900176E7403F0901331E0FF90176FEFF0904D
:10D6B90017707401F0901771E4F07D077C00124433
:10D6C900E0EF70067FFF12EC7D2290191CE0FF123B
:02D6D900EF88D8
:01D6DB00222C
:05CFDB00901B30EFF097
:10CFE000901B3174C8F0901B32747FF0901B33E4B7
:10CFF000F07B017A1B79319012CDE0FF90176DEF35
:10D00000F090176E7403F09012CEE0FF90176FEF60
:10D01000F09017707401F0901771E4F07D037C00BC
:10D020001244E0EF70067FFF12EC7D22901B30E08F
:04D03000FF12EF8874
:01D0340022D9
:05D03500901B34EFF038
:10D03A00901B3574C8F0901B367480F0901B37E44F
:10D04A00F07B017A1B79359012A7E0FF90176DEFFC
:10D05A00F090176E7403F09012A8E0FF90176FEF2C
:10D06A00F09017707401F0901771E4F07D037C0062
:10D07A001244E0EF70067FFF12EC7D22901B34E031
:04D08A00FF12EF881A
:01D08E00227F
:05B03B009018D6EFF0B3
:10B040009018D874DFF09018D7E4F09018D7E0FF8C
:10B05000EFC39403503A9018D7E0FF12F9B290185A
:10B06000D7E0FE74D92EF582E43418F583EFF09022
:10B0700018D7E0FF12F99B9018D7E0FE74DC2EF58C
:10B0800082E43418F583EFF09018D7E004F080BB29
:10B090007B017A1879D8901301E0FF90176DEFF0DB
:10B0A00090176E7403F0901302E0FF90176FEFF0AB
:10B0B0009017707401F0901771E4F07D077C001216
:10B0C00044E0EF70067FFF12EC7D229018D6E0FF7F
:03B0D00012EF88F4
:01B0D300225A
:05C324009019B9EFF0D3
:10C329009019BAE4F09019BB74FBF07F06126E64A1
:10C339009019BCEFF07F07126E649019BDEFF07F82
:10C3490005126E649019BEEFF07B017A1979BB90E2
:10C3590012D5E0FF90176DEFF090176E7403F0900F
:10C3690012D6E0FF90176FEFF09017707401F090FC
:10C379001771E4F07D047C001244E0EF70067FFF42
:0CC3890012EC7D229019B9E0FF12EF8841
:01C395002285
:05D08F00901B38EFF0DA
:10D09400901B3974C8F0901B3A746AF0901B3BE4FF
:10D0A400F07B017A1B79399012DAE0FF90176DEF6B
:10D0B400F090176E7403F09012DBE0FF90176FEF9F
:10D0C400F09017707401F0901771E4F07D037C0008
:10D0D4001244E0EF70067FFF12EC7D22901B38E0D3
:04D0E400FF12EF88C0
:01D0E8002225
:05D0E900901B3CEFF07C
:10D0EE00901B3D74C8F0901B3E746BF0901B3FE498
:10D0FE00F07B017A1B793D9012C7E0FF90176DEF20
:10D10E00F090176E7403F09012C8E0FF90176FEF57
:10D11E00F09017707401F0901771E4F07D037C00AD
:10D12E001244E0EF70067FFF12EC7D22901B3CE074
:04D13E00FF12EF8865
:01D1420022CA
:05D7E400901C39EFF07C
:10D7E900901C3A74CFF012FD83901C3BEFF07B0143
:10D7F9007A1C793A9012FCE0FF90176DEFF09017C0
:10D809006E7403F09012FDE0FF90176FEFF0901720
:10D81900707401F0901771E4F07D027C001244E00D
:10D82900EF70067FFF12EC7D22901C39E0FF12EFAA
:01D839008866
:01D83A0022CB
:05D6DC00901823EFF09F
:10D6E10090182474EBF07B017A18792512E8367BC7
:10D6F100017A187924901343E0FF90176DEFF090B1
:10D70100176E7403F0901344E0FF90176FEFF090E1
:10D7110017707401F0901771E4F07D0B7C001244D6
:10D72100E0EF70067FFF12EC7D22901823E0FF12DC
:02D73100EF887F
:01D7330022D3
:05B90D0090162AEFF086
:10B9120090162B74ECF07B017A16792C127E3B7B0D
:10B92200017A16792CC003C002C0017B017A167914
:10B932002C90181A122B7790181DE4F0A3740AF0B9
:10B94200D001D002D0031281CF7B017A16792B90DD
:10B9520012A2E0FF90176DEFF090176E7403F09053
:10B9620012A3E0FF90176FEFF09017707401F09040
:10B972001771E4F07D297C001244E0EF70067FFF2E
:0CB9820012EC7D2290162AE0FF12EF88E4
:01B98E002296
:05D14300901B40EFF01D
:10D14800901B4174C8F0901B42747CF0901B43E420
:10D15800F07B017A1B79419012FFE0FF90176DEF89
:10D16800F090176E7403F0901300E0FF90176FEFC4
:10D17800F09017707401F0901771E4F07D037C0053
:10D188001244E0EF70067FFF12EC7D22901B40E016
:04D19800FF12EF880B
:01D19C002270
:05D19D00901B44EFF0BF
:10D1A200901B4574C8F0901B46747DF0901B47E4B9
:10D1B200F07B017A1B794590130CE0FF90176DEF1D
:10D1C200F090176E7403F090130DE0FF90176FEF5D
:10D1D200F09017707401F0901771E4F07D037C00F9
:10D1E2001244E0EF70067FFF12EC7D22901B44E0B8
:04D1F200FF12EF88B1
:01D1F6002216
:05B4D30090178DEFF061
:10B4D80090178E74DDF012FD8F90178FEFF07B01BF
:10B4E8007A17799012E3D5788E7600788EE6FFEF9A
:10B4F800C39406501F788EE6FF7E02EF8EF0A4FFFD
:10B50800AEF074902FF974173EFA7B0112DB8A783B
:10B518008E0680D77B017A17798E901328E0FF90EA
:10B52800176DEFF090176E7403F0901329E0FF90F9
:10B53800176FEFF09017707401F0901771E4F07DB9
:10B548000E7C001244E0EF70067FFF12EC7D229023
:07B55800178DE0FF12EF88E0
:01B55F0022C9
:05D1F700901B48EFF061
:10D1FC00901B4974C8F0901B4A746DF0901B4BE463
:10D20C00F07B017A1B79499012F6E0FF90176DEFD5
:10D21C00F090176E7403F09012F7E0FF90176FEF19
:10D22C00F09017707401F0901771E4F07D037C009E
:10D23C001244E0EF70067FFF12EC7D22901B48E059
:04D24C00FF12EF8856
:01D2500022BB
:05D25100901B4CEFF002
:10D25600901B4D74C8F0901B4E746EF0901B4FE4FB
:10D26600F07B017A1B794D901307E0FF90176DEF65
:10D27600F090176E7403F0901308E0FF90176FEFAD
:10D28600F09017707401F0901771E4F07D037C0044
:10D296001244E0EF70067FFF12EC7D22901B4CE0FB
:04D2A600FF12EF88FC
:01D2AA002261
:05BE06009019BFEFF0F0
:10BE0B009019C4E4F09019C074D0F012FD7790191A
:10BE1B00C1EFF012F3969019C2EFF012F5D0901912
:10BE2B00C3EFF09019C3E0FFEF60069019C4E00474
:10BE3B00F07B017A1979C0901313E0FF90176DEF27
:10BE4B00F090176E7403F0901314E0FF90176FEFE0
:10BE5B00F09017707401F0901771E4F07D047C0082
:10BE6B001244E0EF70067FFF12EC7D229019BFE0C9
:04BE7B00FF12EF883B
:01BE7F0022A0
:05CABA00901B50EFF09D
:10CABF00901B5174F2F012FD32901B52EEF0A3EF67
:10CACF00F07B017A1B795212DB8A7B017A1B795139
:10CADF00901316E0FF90176DEFF090176E7403F040
:10CAEF00901317E0FF90176FEFF09017707401F02D
:10CAFF00901771E4F07D037C001244E0EF70067F25
:0DCB0F00FF12EC7D22901B50E0FF12EF881A
:01CB1C0022F6
:058B700090170FEFF06B
:108B750090171074F4F012FD32901711EEF0A3EF78
:108B8500F07B017A17791112DB8A12FD39901713E0
:108B9500EEF0A3EFF07B017A17791312DB8A12FC52
:108BA500E6901715EEF0A3EFF07B017A1779151211
:108BB500DB8A12FCEF901717EEF0A3EFF07B017A3A
:108BC50017791712DB8A12FCF8901719EEF0A3EF4C
:108BD500F07B017A17791912DB8A12FD0190171BB8
:108BE500EEF0A3EFF07B017A17791B12DB8A12FDF9
:108BF5004090171D122AE77B017A17791D12AFA045
:108C050012FD47901721122AE77B017A1779211265
:108C1500AFA012FD0A901725EEF0A3EFF07B017AC5
:108C250017792512DB8A7B017A1779109012BBE040
:108C3500FF90176DEFF090176E7403F09012BCE083
:108C4500FF90176FEFF09017707401F0901771E4B3
:108C5500F07D177C001244E0EF70067FFF12EC7D7B
:098C65002290170FE0FF12EF88C6
:018C6E0022E3
:05D2AB00901B54EFF0A0
:10D2B000901B5574C8F0901B567470F0901B57E487
:10D2C000F07B017A1B7955901338E0FF90176DEFD2
:10D2D000F090176E7403F0901339E0FF90176FEF22
:10D2E000F09017707401F0901771E4F07D037C00EA
:10D2F0001244E0EF70067FFF12EC7D22901B54E099
:04D30000FF12EF88A1
:01D304002206
:05D83B00901C3CEFF021
:10D84000901C3D74D3F012FD89901C3EEFF07B01DB
:10D850007A1C793D9012F1E0FF90176DEFF0901770
:10D860006E7403F09012F2E0FF90176FEFF09017D4
:10D87000707401F0901771E4F07D027C001244E0B6
:10D88000EF70067FFF12EC7D22901C3CE0FF12EF50
:01D89000880F
:01D891002274
:05D89200901C3FEFF0C7
:10D89700901C4074E8F012FDA1901C41EFF07B0151
:10D8A7007A1C79409012D3E0FF90176DEFF0901734
:10D8B7006E7403F09012D4E0FF90176FEFF090179B
:10D8C700707401F0901771E4F07D027C001244E05F
:10D8D700EF70067FFF12EC7D22901C3FE0FF12EFF6
:01D8E70088B8
:01D8E800221D
:05ABCC00901924EFF0D8
:10ABD10090192574E5F0901926741EF090192774C8
:10ABE1001AF07D007F0A12F693EF5401FF901928A5
:10ABF100EFF07D007F0A12F693EF7803CEC313CEF8
:10AC010013D8F9FF901929EFF07D017F0A12F6930D
:10AC1100EF5401FF90192AEFF07D017F0A12F6939C
:10AC2100EF7803CEC313CE13D8F9FF90192BEFF0B1
:10AC31007B017A1979259012F9E0FF90176DEFF0F9
:10AC410090176E7403F09012FAE0FF90176FEFF017
:10AC51009017707401F0901771E4F07D077C001279
:10AC610044E0EF70067FFF12EC7D22901924E0FF93
:03AC710012EF8857
:01AC740022BD
:05C4EB00901B58EFF06A
:10C4F000901B5974F1F07B017A1B795AC003C0027A
:10C50000C0017B017A1B795B9019F8122B77D0015F
:10C51000D002D00312F42D7B017A1B79599013417C
:10C52000E0FF90176DEFF090176E7403F0901342D8
:10C53000E0FF90176FEFF09017707401F090177193
:10C54000E4F07D037C001244E0EF70067FFF12EC04
:0AC550007D22901B58E0FF12EF88D7
:01C55A0022BE
:05D30500901B5CEFF03D
:10D30A00901B5D74C8F0901B5E7464F0901B5FE420
:10D31A00F07B017A1B795D9012EAE0FF90176DEFBE
:10D32A00F090176E7403F09012EBE0FF90176FEF16
:10D33A00F09017707401F0901771E4F07D037C008F
:10D34A001244E0EF70067FFF12EC7D22901B5CE036
:04D35A00FF12EF8847
:01D35E0022AC
:05D35F00901B60EFF0DF
:10D36400901B6174C8F0901B627465F0901B63E4B9
:10D37400F07B017A1B796190133BE0FF90176DEF0E
:10D38400F090176E7403F090133CE0FF90176FEF6A
:10D39400F09017707401F0901771E4F07D037C0035
:10D3A4001244E0EF70067FFF12EC7D22901B60E0D8
:04D3B400FF12EF88ED
:01D3B8002252
:05B32900901959EFF03E
:10B32E007B017A19795BC003C002C0017B017A19D7
:10B33E00795D9018E2122B777B017A19795F90185C
:10B34E00E5122B77D001D002D00312E8B890195A2B
:10B35E0074C9F07B017A19795B12DB8A7B017A1949
:10B36E00795D12DB8A7B017A19795A90130FE0FF0F
:10B37E0090176DEFF090176E7403F0901310E0FFBE
:10B38E0090176FEFF09017707401F0901771E4F052
:10B39E007D067C001244E0EF70067FFF12EC7D22EA
:08B3AE00901959E0FF12EF882D
:01B3B6002274
:05B98F009019C5EFF066
:10B994007B017A1979C7C003C002C0017B017A19FF
:10B9A40079C99019D4122B77D001D002D00312EFA9
:10B9B400599019C674F5F07B017A1979C712DB8A9C
:10B9C4007B017A1979C912DB8A7B017A1979C690CD
:10B9D40012D7E0FF90176DEFF090176E7403F0909C
:10B9E40012D8E0FF90176FEFF09017707401F09089
:10B9F4001771E4F07D057C001244E0EF70067FFFD0
:0CBA040012EC7D229019C5E0FF12EF88C3
:01BA10002213
:05C98B00901B64EFF0B9
:10C99000901B6574FCF07F14127F82901B66EEF092
:10C9A000A3EFF07B017A1B796612DB8A7B017A1B8D
:10C9B000796590132CE0FF90176DEFF090176E746F
:10C9C00003F090132DE0FF90176FEFF09017707445
:10C9D00001F0901771E4F07D037C001244E0EF70E9
:0FC9E000067FFF12EC7D22901B64E0FF12EF88B0
:01C9EF002225
:05885000901B68EFF031
:10885500901B68E0FFEF122B80886E0088AE0188C0
:10886500E10289020300008958901321E0FFEFB46B
:1088750001129013227401F0901321E4F07D007F22
:108885001012775E90131FE0FFEF6017901320E042
:10889500FF12C2AFEF70067F0112EF88227F001230
:1088A500EF88227F0312EF882212F83AEFB403060D
:1088B5007F0112EF8822901322E0FFEF600B7F0308
:1088C50012EF88901322E4F0227B017A1379237D3D
:1088D500647C0012C7E77F0212EF88227B017A13BE
:1088E500792312C711EF7009901321E0FFEFB4014E
:0D88F500067F0012EF88227F0212EF88221A
:1089020090131FE0FD7F1012775E901B6974C8F010
:10891200901B6A7490F0901B6BE4F07B017A1B79D8
:108922006990131DE0FF90176DEFF090176E7403BE
:10893200F090131EE0FF90176FEFF0901770740124
:10894200F0901771E4F07D037C001244E0EF600BBD
:068952007F0312EF8822F2
:058958007F0012EF8812
:01895D0022F7
:05A5A200901CF7EFF032
:10A5A700901CF7E0FFEF122B80A5BA00A5E701008A
:10A5B70000A6587F1912E660EF70087F1A12E6604E
:10A5C700EF60177B017A1279E59012EFE0FCA3E0C8
:10A5D700FD12C8517F0112EF88227F0012EF8822F7
:10A5E7007F1912E660EF70087F1A12E660EF605C71
:10A5F700901332E0FEA3E0FF901303E0FCA3E0FD1D
:10A60700ED6F7002EC6E702E7B017A1279E512C73E
:10A617007CEF601C7D007F1A12775E7D007F191228
:10A62700775E7F0112FC0F12FD1B7F0012EF88225D
:10A637007F0112EF8822901303E0FEA3E0FF90133F
:10A6470032EEF0A3EFF07F0012EF88227F0012EFC7
:01A65700887A
:01A6580022DF
:05CB1D00901CF8EFF090
:10CB2200901CF8E0FFEF122B80CB3800CB5401CBE6
:10CB320068020000CB7F7F1912E660EF70087F1A4F
:10CB420012E660EF60067F0112EF88227F0012EF8B
:10CB520088227F8012B6757B017A13790312DE0C6C
:10CB62007F0212EF88227B017A1279A912C711EF94
:0DCB720060067F0012EF88227F0212EF881C
:01CB7F002293
:05D3B900901B6CEFF079
:10D3BE00901B6D74C8F0901B6E7491F0901B6FE40F
:10D3CE00F07B017A1B796D901336E0FF90176DEFAD
:10D3DE00F090176E7403F0901337E0FF90176FEF15
:10D3EE00F09017707401F0901771E4F07D037C00DB
:10D3FE001244E0EF70067FFF12EC7D22901B6CE072
:04D40E00FF12EF8892
:01D4120022F7
:05CC4400901B70EFF0F1
:10CC4900901B7174C8F0901B72748EF0901349E0B8
:10CC5900FF901B73EFF07B017A1B7971901347E00A
:10CC6900FF90176DEFF090176E7403F0901348E082
:10CC7900FF90176FEFF09017707401F0901771E43F
:10CC8900F07D037C001244E0EF70067FFF12EC7D1B
:09CC990022901B70E0FF12EF88ED
:01CCA200226F
:05D734009019CBEFF09D
:10D739009019CC74F0F07B017A1979CD12E8777BD6
:10D74900017A1979CC90133DE0FF90176DEFF090B5
:10D75900176E7403F090133EE0FF90176FEFF0908F
:10D7690017707401F0901771E4F07D057C00124484
:10D77900E0EF70067FFF12EC7D229019CBE0FF12DB
:02D78900EF8827
:01D78B00227B
:05D41300901B74EFF016
:10D41800901B7574C8F0901B767495F0901B77E498
:10D42800F07B017A1B79759012A5E0FF90176DEFDC
:10D43800F090176E7403F09012A6E0FF90176FEF4C
:10D44800F09017707401F0901771E4F07D037C0080
:10D458001244E0EF70067FFF12EC7D22901B74E00F
:04D46800FF12EF8838
:01D46C00229D
:05D46D00901B78EFF0B8
:10D47200901B7974C8F0901B7A74A3F0901B7BE424
:10D48200F07B017A1B79799012ECE0FF90176DEF37
:10D49200F090176E7403F09012EDE0FF90176FEFAB
:10D4A200F09017707401F0901771E4F07D037C0026
:10D4B2001244E0EF70067FFF12EC7D22901B78E0B1
:04D4C200FF12EF88DE
:01D4C6002243
:05D4C700901B7CEFF05A
:10D4CC00901B7D74C8F0901B7E7497F0901B7FE4CA
:10D4DC00F07B017A1B797D901305E0FF90176DEFBF
:10D4EC00F090176E7403F0901306E0FF90176FEF37
:10D4FC00F09017707401F0901771E4F07D037C00CC
:10D50C001244E0EF70067FFF12EC7D22901B7CE052
:04D51C00FF12EF8883
:01D5200022E8
:05D52100901B80EFF0FB
:10D52600901B8174C8F0901B8274A4F0901B83E456
:10D53600F07B017A1B7981901318E0FF90176DEF4D
:10D54600F090176E7403F0901319E0FF90176FEFC9
:10D55600F09017707401F0901771E4F07D037C0071
:10D566001244E0EF70067FFF12EC7D22901B80E0F4
:04D57600FF12EF8829
:01D57A00228E
:10DC7D00901CF9EFF0901CF9E4F07F0012EF887D15
:10DC8D00F47C017FFF12A70C9012E4E0FFEF702FE0
:10DC9D009012DDE0FFEF60277B017A1279AF12C79A
:10DCAD0011EF601B7D007F1A12775E7D007F1912C8
:10DCBD00775E7F0012EB487F0012F3BC12FD1B2232
:05AF04009016A7EFF01C
:10AF09009016A874F7F07B017A1679A97D037F0062
:10AF190012AD1D7B017A1679B17D0012A3707B01F8
:10AF29007A1679B97D0112A3707B017A1679A9C0C5
:10AF390003C002C0017B017A1679A990180E122B61
:10AF490077901811E4F0A3740CF0D001D002D0036B
:10AF590012A2B47B017A1679A8901334E0FF9017F6
:10AF69006DEFF090176E7403F0901335E0FF9017B2
:10AF79006FEFF09017707401F0901771E4F07D197C
:10AF89007C001244E0EF70067FFF12EC7D229016E0
:06AF9900A7E0FF12EF88A3
:01AF9F00228F
:10F8C20012E33F7D007F0812775E7BFF7AC4797A6C
:09F8D20012DA949017AAEFF0225B
:0A775E00901B84EFF0901B85EDF006
:10776800901B84E0FF12FAB7901B86EFF0901B8401
:10777800E0FFEF5407FF7401A807088002C333D85D
:10778800FCFF901B87EFF075840F901B84E0FFEFE0
:10779800641A6009901B84E0FFEFB41914901B85EC
:1077A800E0FFEF600C12FD7DEF60067F0112EB48F1
:1077B80022901B86E0FFEFD3940540030278CA901D
:1077C8001B85E0FFEF6025901B86E0FF74A22FF574
:1077D80082E43417F583C083C082E0FF901B87E002
:1077E800FEEF4EFFD082D083EFF08026901B86E01C
:1077F800FF74A22FF582E43417F583C083C082E0BA
:10780800FF901B87E0FEEEF4FEEF5EFFD082D08390
:10781800EFF0901B86E0FFEF122B8078390078524A
:1078280001786B02788403789D0478B405000078A9
:10783800CA901B86E0FF74A22FF582E43417F58303
:10784800E0FD7F2A7E0012F20122901B86E0FF7481
:10785800A22FF582E43417F583E0FD7F2B7E00121A
:10786800F20122901B86E0FF74A22FF582E4341700
:10787800F583E0FD7F2C7E0012F20122901B86E04A
:10788800FF74A22FF582E43417F583E0FD7F2D7E87
:107898000012F20122901B86E0FF74A22FF582E409
:1078A8003417F583E0FD7FA412EA6B22901B86E073
:1078B800FF74A22FF582E43417F583E0FD7FAA1246
:0278C800EA6B69
:0178CA00229B
:05E66000901CBAEFF070
:10E66500901CBAE0FFEF5407FF7401A80708800269
:10E67500C333D8FCFF901CBBEFF0901CBAE0FF122F
:10E68500FAB774A22FF582E43417F583E0FF901CE6
:0EE69500BBE0FEEF5EFFEF60037F01227F001F
:01E6A3002254
:10E33F0075840F7D007F2A7E0012F2017D007F2BF6
:10E34F007E0012F2017D007F2C7E0012F2017D0013
:10E35F007F2D7E0012F201788F7600788FE6FFEF27
:10E36F00C394065015788FE6FF74A22FF582E4341C
:0AE37F0017F583E4F0788F0680E1C3
:01E389002271
:10FAB700901CFAEFF0901CFAE0FFEF131313541F9A
:02FAC700FF221C
:10F17D00901C42122B777B017A1779A2C003C00233
:10F18D00C001901C42122B6EA801AC02AD03D00140
:0CF19D00D002D0037E007F061226112253
:10C39600901A0AEEF0A3EFF0901A0CECF0A3EDF071
:10C3A600901A0EEBF0901A0EE0FFEF701D901A0E29
:10C3B600E0FD7F0212775E901A0EE0FD7F03127792
:10C3C6005E9017AAE0FF12EC7D22901A0AE0FEA307
:10C3D600E0FF9017A0EEF0A3EFF0901A0CE0FEA39A
:10C3E600E0FF90179CEEF0A3EFF0901A0EE0FD7FB1
:10C3F6000212775E9017AAE0FF901A0EE0FD12EB8C
:02C40600E4222E
:10F90D00901C45122B777F08127F82901C45122B7D
:08F91D006EEE8FF01228492262
:10EF59009019D1122B779017A8E0FEA3E0FF901922
:10EF6900D1122B6EEE8FF012284990179EE0FEA366
:0FEF7900E0FF9019D4122B6EEE8FF01228492270
:10C47A00901CFBEFF0901CFBE0FFEF60327B017A2F
:10C48A001779A812F90D901CFBE0FD7F0312775E65
:10C49A00901CFBE0FFEF70047F0180027F0012EF27
:10C4AA00889017A0E0FCA3E0FD7FFF12A70C227B77
:10C4BA00017A17799E12F90D901CFBE0FD7F031299
:10C4CA00775E901CFBE0FFEF70047F0180027F0023
:10C4DA0012EF8890179CE0FCA3E0FD7FFF12A70CE7
:01C4EA00222F
:10EE99000102020202020303030303030303000046
:10EEA90004040404050505058008102040800102BA
:10EEB900040810204080408001020408010204086F
:10F81E0075840F53AD7F53A57F43908053A43F5300
:0CF82E00E37F4380C053A60775A70022AB
:056E6400901B88EFF017
:106E6900901B88E0FFEF90EE9993FF901B8BEFF05A
:106E7900901B8BE0FFEF122B806E98006ED6016F8E
:106E890014026F52036F90046FBF0500006FEC7B13
:106E9900017A1B798A7F1A7E0012F150901B8AE0D1
:106EA900FFEFF4FF901B8AEFF0901B88E0FFEF9053
:106EB900EEB193FF901B8AE0FEEE5FFFEF60047F67
:106EC9000180027F00901B89EFF0026FEC7B017A51
:106ED9001B798A7F1B7E0012F150901B8AE0FFEF1D
:106EE900F4FF901B8AEFF0901B88E0FFEF90EEB162
:106EF90093FF901B8AE0FEEE5FFFEF60047F018045
:106F0900027F00901B89EFF0026FEC7B017A1B79FD
:106F19008A7F1C7E0012F150901B8AE0FFEFF4FF7C
:106F2900901B8AEFF0901B88E0FFEF90EEB193FF82
:106F3900901B8AE0FEEE5FFFEF60047F0180027F15
:106F490000901B89EFF0026FEC7B017A1B798A7F35
:106F59001D7E0012F150901B8AE0FFEF64EFFF9055
:106F69001B8AEFF0901B88E0FFEF90EEB193FF9042
:106F79001B8AE0FEEE5FFFEF60047F0180027F0065
:106F8900901B89EFF0805C7D007F0012F693901BC7
:106F99008AEFF0901B88E0FFEF90EEB193FF901B12
:106FA9008AE0FEEE5FFFEF60047F0180027F0090C0
:106FB9001B89EFF0802D7D017F0012F693901B8ACB
:106FC900EFF0901B88E0FFEF90EEB193FF901B8AE2
:106FD900E0FEEE5FFFEF60047F0180027F00901BFF
:086FE90089EFF0901B89E0FF25
:016FF100227D
:06912C00901A0F122B77D0
:10913200901A12E4F0A37401F0901A0F122B6EE44D
:109142001226D2901A0F122B6E758201758300E4DB
:109152001226E4901A0F122B6E758202758300E4B8
:109162001226E4789076007890E6FFEFC3941840D8
:10917200030292187890E6FF126E64EF60507890C6
:10918200E6FFEF131313541FFF901A0F122B6EE911
:109192002FF9E43AFAC003C002C001122637FD7863
:1091A20090E6FFEF5407FF901A12E0FAA3E0FBEB00
:1091B200AE02A807088005C333CE33CED8F9FFED3F
:1091C2004FFFD001D002D003EF1226D28042789016
:1091D200E6FFEF131313541FFF901A0F122B6EE9C1
:1091E2002FF9E43AFA122637FF901A12E0FCA3E0B4
:1091F200FDAE057890E6FDED5407FDEEA80508806A
:1092020002C333D8FCFEEEF4FEEF5EFFEF1226D26D
:069212007890060291694C
:019218002233
:0C80A900491695FFFBDFFFFBEFFFFBFF1C
:10FA7E0090168F7402F09016907403F09016917495
:03FA8E0004F0225F
:10AC7500901CFCE4F012FA7E901CFCE0FFEFC394FC
:10AC8500035066901CFCE0FF74922FF582E43416A5
:10AC9500F5837401F0901CFCE0FF749E2FF582E4AF
:10ACA5003416F583E4F0901CFCE0FF748C2FF582DC
:10ACB500E43416F583E4F0901CFCE0FFEF75F00337
:10ACC500A42495F582E43416F583122B6E12DA94DA
:10ACD500901CFCE0FE74A42EF582E43416F583EF97
:10ACE500F0901CFCE004F0808F901CFCE4F0901CBC
:10ACF500FCE0FFEFC39403501E901CFCE0FF74A41E
:10AD05002FF582E43416F583E0FF7D0012EBE49025
:07AD15001CFCE004F080D7F4
:01AD1C002214
:08FD13007D017F1112775E22D1
:08FD1B007D007F1112775E22CA
:10E2A700901CBCEFF0901CBDEDF0901CBDE0FF741E
:10E2B700922FF582E43416F583E0FFEF601C901C83
:10E2C700BCE0FF901CBDE0FE749E2EF582E4341680
:10E2D700F583EFF07F0412EF8822901CBCE0FF1259
:0CE2E700EF887D0E7C017FFF12A70C2247
:05BA1100901CBEEFF0E7
:10BA1600901CBEE0FF748F2FF582E43416F583E0A8
:10BA2600FF126E64901CBFEFF0901CBEE0FF74A185
:10BA36002FF582E43416F583E0FFEF700B901CBF00
:10BA4600E0FFEF70037F0022901CBEE0FF74A12F81
:10BA5600F582E43416F583E0FFEF700C901CBFE02E
:10BA6600FFEFB401037F0122901CBEE0FF74A12FFB
:10BA7600F582E43416F583E0FFEFB4010C901CBFA9
:0BBA8600E0FFEFB401037F03227F020A
:01BA91002292
:10F99B00901CFDEFF0901CFDE0FF748C2FF582E4C2
:07F9AB003416F583E0FF2292
:05CD0100901CC0EFF0E2
:10CD0600901CC1E4F0901CC1E0FFEFC394035047B0
:10CD1600901CC1E0FF74922FF582E43416F58374FB
:10CD260001F0901CC0E0FFEF6014901CC1E0FF749E
:10CD3600A12FF582E43416F5837401F08011901C5E
:10CD4600C1E0FF74A12FF582E43416F583E4F09078
:07CD56001CC1E004F080AEF7
:01CD5D0022B3
:10F9B200901CFEEFF0901CFEE0FF74A12FF582E494
:07F9C2003416F583E0FF227B
:0A677B009019D7EFF09019D8EDF057
:106785009019D8E0FF12BA119019D9EFF09019D7E6
:10679500E0FFEF640460169019D7E0FF9019D8E088
:1067A500FE748C2EF582E43416F583EFF09019D73C
:1067B500E0FFEF122B8067CE00681201688D02683A
:1067C5005503689604000069419019D9E0FFEF125E
:1067D5002B8067E70067F20168030267FD0300008D
:1067E50069469019D8E0FD7F0012E2A7229019D8DA
:1067F500E0FD7F0112E2A7227F0112EF88227F00D0
:1068050012EF887D0E7C017FFF12A70C229019D90B
:10681500E0FFEF122B80682B00683601684F026895
:106825004103000069469019D8E0FD7F0012E2A7F8
:10683500229019D8E0FD7F0112E2A72212FD1390E4
:1068450019D8E0FD7F0312E2A7227F0012EF88220C
:106855009019D9E0FFEF122B80686E00686E016811
:106865008702687C030000694612FD1B9019D8E079
:10687500FD7F0112E2A7229019D8E0FD7F0312E205
:10688500A7227F0212EF882212FD1B7F0012EF88DC
:0168950022E0
:106896009019D8E0FF749E2FF582E43416F583E054
:1068A600FF9019D8E0FE748C2EF582E43416F58339
:1068B600EFF09019D8E0FF74922FF582E43416F5C4
:1068C60083E4F09019DA74E0F09019D8E0FF74A12F
:1068D6002FF582E43416F583E0FF9019DBEFF09094
:1068E60019D8E0FF12BA119019DCEFF07B017A1982
:1068F60079DA90176D7401F090176E7403F09017A3
:106906006FE4F0901770E4F0901771E4F07D037C6B
:10691600001244E0EF701E9019D8E0FF749E2FF528
:1069260082E43416F583E0FF12EF887D0E7C017F4A
:0B693600FF12A70C227F0412EF882242
:056941007F0012EF8849
:01694600222E
:10FBDF00901CFFEFF0901CFFE0FF7D0012677B226F
:10FBEF00901D00EFF0901D00E0FF7D0112677B225A
:10FBFF00901D01EFF0901D01E0FF7D0212677B2247
:0AFCC800901295E0FFEF5402FF22B6
:0AFCD200901295E0FFEF5401FF22AD
:108406009012957403F090129DE4F09011F9E4F047
:10841600A37478F090120AE4F0A3743CF090126012
:10842600E4F09011F4E4F0901205E4F090120CE4FC
:10843600F0901214E4F0901200E4F0A3E4F090122D
:1084460003E4F0A3E4F0901202E4F09011FFE4F0EC
:108456007B017A1279167DE87C0312CCA37B017A24
:108466001279227DE87C0312CCA37B017A12792E45
:108476007D057C001297627B017A1279617D057C0D
:1084860000129762901207E4F0A3740AF09011F0BC
:10849600E4F0A3E4F09011F2E4F0A3E4F090129378
:1084A600E4F0A3E4F0901296E4F0A3E4F09011F562
:1084B600122AF3000000009011FB122AF3000000BC
:1084C6000090120DE4F0A3E4F0901206E4F07BFFB6
:1084D6007A4E799D12DA949012A0EFF07BFF7AF82B
:1084E60079A812DA9490129FEFF07BFF7A6C79CB21
:1084F60012DA9490129EEFF09012A0E0FF7D001227
:10850600EBE490129FE0FF7D0012EBE490129EE0F8
:07851600FF7D0012EBE422DF
:10E46B009019DDEEF0A3EFF09019DFECF0A3EDF0D7
:10E47B009019E1EBF09019DDE0FEA3E0FF9011F9AC
:10E48B00EEF0A3EFF09019DFE0FEA3E0FF90120A8D
:10E49B00EEF0A3EFF09019E1E0FF90129DEFF090FA
:0AE4AB0019E2E0FF901295EFF02255
:10EB4800901D02EFF0901D02E0FF901260EFF09030
:10EB58001D02E0FFEF60119011F4E4F090120574CB
:10EB680001F09011FFE4F0229011F47401F090127A
:04EB780005E4F0229E
:10EFB6009012157401F012FCC8EF600B12F5D0EF39
:10EFC6007005901215E4F012FCD2EF600B12F39666
:0EEFD600EF7005901215E4F0901215E0FF2286
:10F5D00090129DE0FFEF60037F012212FCC8EF70E4
:10F5E0000A12FCD2EF600412F39622901214E0FF8C
:01F5F00022F8
:10F3960090129DE0FFEF60037F012212FCD2EF7016
:10F3A6000F12FCC8EF60097BFF7AF579D0AF012216
:06F3B60090120CE0FF22A2
:10EB1200901D03EFF0901200E4F0A3E4F0901203D2
:10EB2200E4F0A3E4F012FCC8EF600A901D03E0FDDC
:10EB32007F1912775E12FCD2EF600A901D03E0FD8E
:06EB42007F1A12775E222B
:054E9D009019E3EFF0A5
:104EA2009019E3E0FFEF122B804EC4004F5E014FDA
:104EB200E602502B0350730450EB05514D060000DF
:104EC2005198901205E0FFEF606F901206E0FFEF3D
:104ED200704A901205E4F07F0112EB127B017A1204
:104EE200790FC003C002C0019011F9E0FEA3E0FFF8
:104EF200E4FCFD7BE87A03790078001228B07B0A93
:104F02007A007900780012293BAD07AC06D001D0B7
:104F120002D00312C7E77F0112EF8822901205E444
:104F2200F09011FF7401F09012027406F0901209D1
:104F32007402F07F0512EF88229011F4E0FFEF6017
:104F4200159011F4E4F07F0012EB12901202E4F0DB
:104F52007F0312EF88227F0012EF88229011F4E083
:104F6200FFEF60109011F4E4F07F0012EB127F0368
:104F720012EF88221282EB12EFB6EF60407B017AC9
:104F8200127998C003C002C00190120AE0FEA3E0A9
:104F9200FFE4FCFD7BE87A03790078001228B07BFD
:104FA2000A7A007900780012293BAD07AC06D001DD
:104FB200D002D00312C7E77F0212EF88227B017A68
:104FC20012790F12C711EF60157F0012EB129012C7
:104FD20002E4F0901209E4F07F0512EF88227F01CB
:104FE20012EF88229011F4E0FFEF60109011F4E4C8
:104FF200F07F0012EB127F0312EF88221282EB1273
:10500200EFB6EF70067F0112EF88227B017A1279E8
:105012009812C711EF600C7F0312EF88901202748E
:0950220004F0227F0212EF882243
:10502B009019E474D1F012EFB69019E5EFF07B0113
:10503B007A1979E490176D7401F090176E7403F080
:10504B0090176FE4F0901770E4F0901771E4F07D17
:10505B00027C001244E0EF7009901202E0FF12EFA5
:08506B0088227F0312EF882266
:105073009011F4E0FFEF60159011F4E4F07F00125B
:10508300EB12901202E4F07F0312EF8822901205D4
:10509300E0FFEF6011901205E4F09012027404F047
:1050A3007F0312EF882212EFB6EF70369011FFE004
:1050B300FFEF702E9011FF7401F0901206E0FFEFE6
:1050C300700E9012027404F09012097401F0800CB7
:1050D3009012027406F09012097402F07F0512EF29
:0850E30088227F0412EF8822ED
:1050EB009019E474D2F012FD779019E5EFF090125D
:1050FB0009E0FF9019E6EFF012F3969019E7EFF045
:10510B0012F5D09019E8EFF07B017A1979E490173A
:10511B006D7401F090176E7403F090176FE4F090BC
:10512B001770E4F0901771E4F07D057C001244E0F9
:10513B00EF7009901202E0FF12EF88227F0512EF49
:02514B008822B8
:10514D00901206E0FFEF602F901205E0FFEF601761
:10515D00901205E4F09012027406F0901209740298
:10516D00F07F0512EF8822901205E4F09011F4E41F
:10517D00F07F0612EF8822901205E4F09011F4E40E
:0B518D00F07F0012EB127F0012EF8891
:0151980022F4
:1082EB00901CC2E4F0901CC3E4F090129DE0FFEFF1
:1082FB00600302840512FCC8EF600A7F09126E64EA
:10830B00901CC3EFF012FCD2EF600A7F0B126E646D
:10831B00901CC2EFF0901CC2E0FFEF6023901200A4
:10832B00E475F00112276DAFF0FEC3EF9404EE6419
:10833B00809480402C901200E4F0A37404F0802110
:10834B0090120074FF75F0FF12276DAFF0FED3EFA4
:10835B009400EE648094805008901200E4F0A3E443
:10836B00F0901CC3E0FFEF6023901203E475F00163
:10837B0012276DAFF0FEC3EF9404EE64809480403F
:10838B002C901203E4F0A37404F080219012037478
:10839B00FF75F0FF12276DAFF0FED3EF9400EE6484
:1083AB008094805008901203E4F0A3E4F090120044
:1083BB00E0FEA3E0FFEF64044E700890120C740112
:1083CB00F08011901200E0FEA3E0FFEF4E700590DD
:1083DB00120CE4F0901203E0FEA3E0FFEF64044EF6
:1083EB0070079012147401F022901203E0FEA3E0C8
:0A83FB00FFEF4E7005901214E4F03D
:018405002254
:06FD7700901260E0FF2283
:10F8A800901D04EFF01282EB901D04E0FF12EF8828
:0AF8B8007D367C017FFF12A70C22B1
:10F40800901CC4EEF0A3EFF0901207E0FEA3E0FF1B
:10F41800901CC4E0FCA3E0FDD3ED9FEC9E40037F6D
:05F4280001227F00221B
:10930200901960EEF0A3EFF0901962ECF0A3EDF08B
:10931200901964122B77901962E0FEA3E0FF901976
:1093220060E0FCA3E0FDD3ED9FEC9E4051901964F8
:10933200122B6E122799FFAEF0901962E0FCA3E0A7
:10934200FD901960E0FAA3E0FBC3EB9DFDEA9CFCF3
:10935200D3ED9FEC9E50030293E4901962E0FEA3CA
:10936200E0FF901960E0FCA3E0FDC3ED9FFFEC9EDF
:10937200FE901964122B6EEE8FF01228492290197A
:1093820060E0FEA3E0FF901962E0FCA3E0FDD3EDF4
:109392009FEC9E404D901964122B6E122799FFAEDE
:1093A200F0901960E0FCA3E0FD901962E0FAA3E0FE
:1093B200FBC3EB9DFDEA9CFCD3ED9FEC9E4023900A
:1093C2001960E0FEA3E0FF901962E0FCA3E0FDC398
:1093D200ED9FFFEC9EFE901964122B6EEE8FF01241
:0393E200284922F5
:056CCB00901A14EFF027
:106CD0007F12127F82901A15EEF0A3EFF07F0F1251
:106CE0007F82901A17EEF0A3EFF07B017A127916EB
:106CF000901A15E0FEA3E0FFE4FCFD127BA17B01EE
:106D00007A127922901A17E0FEA3E0FFE4FCFD124C
:106D10007BA190125EE0FEA3E0FFEF4E702B7B01A3
:106D20007A12792E901A15E0FEA3E0FFE4FCFD1222
:106D300054647B017A127961901A17E0FEA3E0FF98
:106D4000E4FCFD125464026E5B90120DE475F001D8
:106D500012276D901A15E0FEA3E0FF12F408EF6011
:106D600076901A15E0FEA3E0FFC006C0079012520D
:106D7000122A7FAD07AC067B017A127993D007D037
:106D8000061293029011F5122A8B901A15E0FEA3B9
:106D9000E0FFE4FCFD1228959011F5122AE77B0133
:106DA0007A12792E901A15E0FEA3E0FFE4FCFD12A2
:106DB00054649011F0E0FEA3E0FFE4FCFD90125259
:106DC000122A8BD31229DB400E901252122A7F9086
:106DD00011F0EEF0A3EFF0901A17E0FEA3E0FF121F
:106DE000F408EF6076901A17E0FEA3E0FFC006C03B
:106DF00007901285122A7FAD07AC067B017A1279C3
:106E000096D007D0061293029011FB122A8B901A8B
:106E100017E0FEA3E0FFE4FCFD1228959011FB12A1
:106E20002AE77B017A127961901A17E0FEA3E0FF4E
:106E3000E4FCFD1254649011F2E0FEA3E0FFE4FCD8
:106E4000FD901285122A8BD31229DB400E901285F9
:106E5000122A7F9011F2EEF0A3EFF0901A14E0FFE7
:036E600012EF88A6
:016E6300220C
:07FD3200901216122A7F2235
:07FD3900901222122A7F2222
:09FCE6009011F0E0FEA3E0FF2202
:09FCEF009011F2E0FEA3E0FF22F7
:09FCF800901293E0FEA3E0FF224C
:09FD0100901296E0FEA3E0FF223F
:07FD40009011F5122A7F2249
:07FD47009011FB122A7F223C
:09FD0A0090120DE0FEA3E0FF22BF
:10F1A900901C48EFF0901C49ECF0A3EDF0901C483E
:10F1B900E0FFEF70037F01227B017A127916901C20
:0CF1C90049E0FCA3E0FD12CCA37F012272
:10A65900901967EFF0901968ECF0A3EDF090196A82
