:1007290058000238393A3B3C3D3E3F28292A2B2CB8
:0B0739002D2E2F3435363724252627BF
:10060F0075BC6075F10FE4F5F275F30FF5F490001A
:10061F001AF075BB38F5D1FE7F30FD7B017A00797A
:10062F001B12022343E80C12075C43E88043E702E6
:03063F00D2AF2215
:03007B000202DBA3
:1002DB00C0E0C0F0C083C082C0D075D00853E7FD2A
:1002EB00C2ED12000EEFC313FF90001AE06F6058BF
:1002FB00AFBFE025E0241BF582E43400F583E4F086
:10030B00A3EFF090001AE025E0241BF582E4340003
:10031B00F583C083C082E0A3E0D082D083F0A3E456
:10032B00F090001AE025E0241BF582E43400F583FD
:10033B00C083C082E0FEA3E0FFADBEEEEF4DFFD069
:10034B0082D083EEF0A3EFF01206EC43E702D0D09D
:09035B00D082D083D0F0D0E03252
:05004E00900082EFF0BC
:1000530053E7FDE025E0241BF582E43400F583E05B
:10006300FEA3E0FF900083EEF0A3EFF043E70290DE
:070073000083E0FEA3E0FFA3
:01007A002263
:0A05DB00C0D075D018900085EFF035
:1005E50053E7FDE025E0241BF582E43400F583E0C4
:1005F500FEA3E0FF900086EEF0A3EFF043E7029044
:070605000086E0FEA3E0FF08
:03060C00D0D02229
:1003E800900057EFF0A3ECF0A3EDF0A3EBF0A3EA35
:1003F800F0A3E9F053E7FD900057E0FFA3E0FCA36A
:10040800E0C39FFFEC9400FEEF2401FFE43EFEEF03
:1004180025E0FFEE33FEC006C007900057E075F0F8
:1004280002A4241BF9740035F0FA7B01C003C00252
:1004380090005AE0FBA3E0FAA3E0F8AC02AD03D0C9
:0E04480002D003D007D00612014E43E7022275
:1006EC00C0D090001AE004F0B41802E4F090001AA4
:1006FC00E02402F582E43400F583E0F5BBD0D0228F
:070003007B017A00791B224A
:0804FE0090005DEEF0A3EFF0A9
:1005060090005DE0FEA3E0FF900000EEF0A3EFF0A8
:10051600900000E090005FF0900001E0900060F035
:10052600E0900000F090005FE0900001F090000085
:10053600E0FEA3E0FF900061EEF0A3EFF090006113
:05054600E0FEA3E0FF50
:01054B00228D
:1006420075FFDE75FFAD12067112060F120003AFC1
:1006520001900088EAF0A3EFF0900088E0FEA3E0AA
:0F066200AA06F97B017D307C0012045680FE222F
:03001B0002000AD6
:01000A0032C3
:03002B00020025AB
:0100250032A8
:03003B000200269A
:0100260032A7
:0300430002002791
:0100270032A6
:03004B0002002888
:0100280032A5
:10045600900079EBF0A3EAF0A3E9F0A3ECF0A3EDAA
:10046600F090004E7401F0E4A3F0900079E0A3E070
:10047600FAA3E0FF900053EAF0A3EFF090007CE0CF
:10048600FEA3E0FF900050EEF0A3EFF0E090004DE9
:10049600F0759A07759DFF75F80143A60243E301BF
:0604A60043E601D2AF2283
:0300330002036461
:10036400C0E0C083C082C0D075D01830FF5EC2AF79
:10037400900052E59BF0E064336004E0B4342D90C7
:10038400004DE4F0900052E0B43310A3E0FEA3E08B
:10039400FF90004BEEF0A3EFF08011900052E0B418
:1003A400340A90004B7400F0A3744EF090004DE0BA
:1003B400FF90004BE0FCA3E02FF582E43CF583E0E2
:1003C400F59B90004DE004F0C2FFD2AF30FE02C2B4
:1003D400FE30FD02C2FD30FC02C2FCD0D0D082D07F
:0403E40083D0E032B0
:0D000E00C0D075D00890004DE0FFD0D0228A
:10075C00C2CAC2C9C2C875CA6675CBFC75CCFF7556
:05076C00CDFFD2CA22FE
:10074500C28CE490006DF0A3F0438901758AFF75B2
:070755008CDBD2A9D28C223B
:03000B000206C921
:1006C900C0E0C083C082C28D90006EE004F0700665
:1006D90090006DE004F0758AFF758CDBD082D083C1
:0306E900D0E0322C
:1006710075B167E4900079F0A3F0900079E0FEA3F2
:10068100E0C3EE64809481500DE004F070069000A8
:0E06910079E004F080E4E5B130E7FB75B28853
:01069F002238
:0806A000900063EEF0A3EFF0FF
:1006A8007B017A007965900063E0FCA3E0FD120508
:1006B800977B017A0079651204ACEFB401F37F01EE
:0106C800220F
:1005970090006FEBF0A3EAF0A3E9F0A3ECF0A3ED72
:1005A700F012070C90006FE0FBA3E0FAA3E0F9EE6E
:1005B7008FF01201D7900072E0FEA3E0FF90006F6A
:1005C700E0FBA3E0FAA3E0F9900002EE8FF012013E
:0405D700F67F012288
:0B04AC00900074EBF0A3EAF0A3E9F06D
:1004B70012070C900077EEF0A3EFF0900074E0FBCA
:1004C700A3E0FAA3E0F9120174FFAEF0900077E021
:1004D700FCA3E0FD12054C900074E0FBA3E0FAA337
:1004E700E0F990000212019FFDC3EF9DEE95F050D9
:0604F700037FFF227F01DC
:0104FD0022DC
:07001E007B017A00796922E1
:10070C00C2A990006DE0FEA3E0FF90008AEEF0A37A
:0C071C00EFF0D2A990008AE0FEA3E0FFFD
:0107280022AE
:10054C0090007EEEF0A3EFF0A3ECF0A3EDF09000A2
:10055C007EE0FEA3E0FFA3E0FCA3E0D39FEC9E4073
:10056C001090007EE0A3E0A3E0A3E09FFFEC9EFED2
:10057C002290007EE0FEA3E0FFC3E49FFFE49EFE1A
:0B058C00A3E0FCA3E02FFFEE3CFE22EA
:0300000002024FAA
:0C024F00787FE4F6D8FD75811F0202964E
:10007E00E709F608DFFA8046E709F208DFFA803E64
:10008E0088828C83E709F0A3DFFA8032E309F60851
:10009E00DFFA8078E309F208DFFA807088828C83B9
:1000AE00E309F0A3DFFA806489828A83E0A3F6086D
:1000BE00DFFA805889828A83E0A3F208DFFA804C47
:1000CE0080D280FA80C680D4806980F2803380101E
:1000DE0080A680EA809A80A880DA80E280CA803387
:1000EE0089828A83ECFAE493A3C8C582C8CCC583FF
:1000FE00CCF0A3C8C582C8CCC583CCDFE9DEE780CF
:10010E000D89828A83E493A3F608DFF9ECFAA9F04D
:10011E00EDFB2289828A83ECFAE0A3C8C582C8CCA3
:10012E00C583CCF0A3C8C582C8CCC583CCDFEADEBC
:10013E00E880DB89828A83E493A3F208DFF980CC1E
:10014E0088F0EF60010E4E60C388F0ED2402B40417
:10015E000050B9F582EB2402B4040050AF232345BE
:06016E0082239000CE7315
:10017400BB010A89828A83E0F5F0A3E02250068756
:10018400F009E71922BBFE07E3F5F009E319228918
:0B019400828A83E493F5F0740193224B
:10019F00BB0110E58229F582E5833AF583E0F5F09E
:1001AF00A3E0225009E92582F886F008E622BBFE7B
:1001BF000AE92582F8E2F5F008E222E5832AF583C1
:0801CF00E993F5F0A3E9932286
:1001D700BB010A89828A83F0E5F0A3F0225006F773
:0F01E70009A7F01922BBFE06F3E5F009F3192270
:1001F600F8BB0111E58229F582E5833AF583E8F03B
:10020600E5F0A3F0225009E92582C8F608A6F022F7
:0D021600BBFE09E92582C8F2E5F008F222DE
:10022300EF4E6012EF60010EEDBB010B89828A83F2
:10023300F0A3DFFCDEFA2289F05007F709DFFCA9FF
:0C024300F022BBFEFCF309DFFCA9F02256
:10025B00020642E493A3F8E493A34003F68001F271
:10026B0008DFF48029E493A3F85407240CC8C333A4
:10027B00C4540F4420C8834004F456800146F6DF73
:10028B00E4800B0102040810204080900729E47ED3
:10029B00019360BCA3FF543F30E509541FFEE49368
:1002AB00A360010ECF54C025E060A840B8E493A32F
:1002BB00FAE493A3F8E493A3C8C582C8CAC583CA5A
:1002CB00F0A3C8C582C8CAC583CADFE9DEE780BE12
:0107440000B4
:00000001FF
