:10A48200900E8CEBF0A3EAF0A3E9F0900E8CE0FBC7
:10A49200A3E0FAA3E0F97582057583001219AFFFF4
:01A4A2002297
:106FF500900E8FEBF0A3EAF0A3E9F0900E8FE0FB83
:10700500A3E0FAA3E0F9758203758300743B121AB5
:1070150043900E8FE0FBA3E0FAA3E0F975820175BA
:107025008300E4121A43900E8FE0FBA3E0FAA3E07D
:10703500F9758202758300E4121A43900E8FE0FB06
:10704500A3E0FAA3E0F9758205758300E4121A43FB
:10705500900E8FE0FBA3E0FAA3E0F9758204758337
:1070650000E4121A43900E8FE0FBA3E0FAA3E0F9C7
:10707500E4121A31900E8FE0FBA3E0FAA3E0F97554
:10708500820A758300E4121A43900E8FE0FBA3E099
:0F709500FAA3E0F975820B758300E4121A432207
:10585E00C0D075D010900E92EBF0A3EAF0A3E9F051
:10586E00900E92E0FBA3E0FAA3E0F9758202758335
:10587E00001219AFFF900E92E0FBA3E0FAA3E0F93D
:10588E007582017583001219AFFEEEB5171D900ECD
:10589E0092E0FBA3E0FAA3E0F9758205758300128E
:1058AE0019AFFFEF60057F03025962900E92E0FB85
:1058BE00A3E0FAA3E0F97582017583001219AFFF18
:1058CE007E00900E92E0FBA3E0FAA3E0F9E9240D2E
:1058DE00F9EA3400FAE92FF9EA3EFAE599121A319B
:1058EE00900E92E0FBA3E0FAA3E0F97582037583B4
:1058FE00001219AFFF900E92E0FBA3E0FAA3E0F9BD
:10590E007582017583001219AFFEEEC39F50189079
:10591E000E92E0FBA3E0FAA3E0F975820175830015
:10592E0074011219FE8015900E92E0FBA3E0FAA30B
:10593E00E0F9758201758300E4121A43900E92E02D
:10594E00FBA3E0FAA3E0F9758205758300740112DA
:07595E0019FE7F01D0D022E9
:0B5C4D00900D20EBF0A3EAF0A3E9F0BB
:105C5800900D20E0FBA3E0FAA3E0F97582057583B7
:105C6800001219AFFFEF70067F0322025D35A2AC68
:105C78009204C2AC900D20E0FBA3E0FAA3E0F97512
:105C880082027583001219AFFF7E00900D20E0FBA1
:105C9800A3E0FAA3E0F9E9240DF9EA3400FAE92FC0
:105CA800F9EA3EFA121996FF900D23E0FBA3E0FAF9
:105CB800A3E0F9EF121A31900D20E0FBA3E0FAA35C
:105CC800E0F97582037583001219AFFF900D20E08B
:105CD800FBA3E0FAA3E0F97582027583001219AFFD
:105CE800FEEEC39F5018900D20E0FBA3E0FAA3E05E
:105CF800F975820275830074011219FE8015900DE2
:105D080020E0FBA3E0FAA3E0F9758202758300E4C2
:105D1800121A43900D20E0FBA3E0FAA3E0F9758284
:0F5D28000575830074FF1219FEA20492AC7F016F
:015D37002249
:108A2100900E95EBF0A3EAF0A3E9F0900E95E0FB30
:108A3100A3E0FAA3E0F97582037583007403121AA7
:108A410043900E95E0FBA3E0FAA3E0F9758202756D
:108A51008300E4121A43900E95E0FBA3E0FAA3E031
:108A6100F9758201758300E4121A43900E95E0FBBB
:108A7100A3E0FAA3E0F9758204758300E4121A43B6
:108A8100900E95E0FBA3E0FAA3E0F9E4121A31227B
:108ECA00900E98EBF0A3EAF0A3E9F0900E98E0FB7D
:108EDA00A3E0FAA3E0F97582037583001219AFFFC4
:108EEA00900E98E0FBA3E0FAA3E0F975820475837B
:108EFA00001219AFFEEEB507057EFF7FFF22900E26
:108F0A0098E0FBA3E0FAA3E0F975820275830012E8
:068F1A0019AFFF7E0022EA
:107DEB00900D62EBF0A3EAF0A3E9F0900D65ECF0D7
:107DFB00A3EDF0900D62E0FBA3E0FAA3E0F975822E
:107E0B00037583001219AFFF7E00EF24FFFFEE34E2
:107E1B00FFFE900D65E0FCA3E0FDD3ED9FEE6480CB
:107E2B00F8EC6480985010900D65E0FEA3E0FFC362
:107E3B00EE6480948050077B007A00790022900DCD
:107E4B0062E0FBA3E0FAA3E0F9E92406F9EA3400C7
:107E5B00FA900D65E0FEA3E0FF7C007D3C121A65F5
:077E6B00E92FF9EA3EFA22BB
:1087E100900E9BEBF0A3EAF0A3E9F0900E9BE0FB67
:1087F100A3E0FAA3E0F97582037583001219AFFFB4
:10880100900E9BE0FBA3E0FAA3E0F9758202758369
:108811000074011219FEFEEEB50715900E9BE0FBE8
:10882100A3E0FAA3E0F9758202758300E4121A430A
:10883100900E9BE0FBA3E0FAA3E0F9E4121A319059
:108841000E9BE0FBA3E0FAA3E0F9758204758300B7
:0688510074011219FE2261
:10A2E200900E9EEBF0A3EAF0A3E9F0900E9EE0FB45
:10A2F200A3E0FAA3E0F97582047583001219AFFF97
:03A302007E0022B8
:1098B600900EA1EBF0A3EAF0A3E9F0900EA1E0FB75
:1098C600A3E0FAA3E0F97582047583001219AFFFCD
:1098D600EF70057EFF7FFF22900EA1E0FBA3E0FA6A
:1098E600A3E0F97582017583001219AFFF7E00228D
:10831400900EA4EBF0A3EAF0A3E9F0900EA4E0FB26
:10832400A3E0FAA3E0F97582047583001219AFFF84
:10833400EF605B900EA4E0FBA3E0FAA3E0F9758282
:10834400037583001219AFFF900EA4E0FBA3E0FABB
:10835400A3E0F975820175830074011219FEFEEE23
:10836400B50715900EA4E0FBA3E0FAA3E0F975822B
:1083740001758300E4121A43900EA4E0FBA3E0FA13
:0F838400A3E0F975820475830074FF1219FE22BD
:10797A00900D26EBF0A3EAF0A3E9F0900D29ECF0C4
:10798A00A3EDF0900D26E0FBA3E0FAA3E0F91219AB
:10799A0096FFEFC3943C5068900D2BE0FFC0079010
:1079AA000D26E0FBA3E0FAA3E0F9E92406F9EA349C
:1079BA0000FA900D29E0FEA3E0FF7C007D3C121A3C
:1079CA0065E92FF9EA3EFAC003C002C001900D260C
:1079DA00E0FBA3E0FAA3E0F9121996FF7E00D001BA
:1079EA00D002D003E92FF9EA3EFAD007EF121A3192
:1079FA00900D26E0FBA3E0FAA3E0F974011219DC6A
:017A0A002259
:05000600C201C200224E
:0598F600900DF8EFF0F9
:1098FB00900DF97409F0900DF8E0FFEF600D900DED
:10990B00FAE4F0A37402F0D200800C900DFAE4F0AC
:10991B00A3E4F0C200C2017B017A0D79F91265EF65
:09992B00EFB402037F02227F0069
:019934002210
:05977000900DFCEFF07C
:10977500900DFD7409F0900DFCE0FFEF6010900D69
:10978500FEE4F0A37403F0300010D201800C900DBC
:10979500FEE4F0A3E4F0C201C2007B017A0D79FD7D
:0C97A5001265EFEFB402037F02227F0088
:0197B1002295
:089E4D00900D67EEF0A3EFF0A9
:109E5500900D69740AF0900D67E0FEA3E0FF900D88
:109E65006AEEF0A3EFF07B017A0D79691265EFEFE9
:089E7500B402037F02227F000A
:019E7D0022C2
:06A84B00A201E433FF222C
:0EA7BF007F41127C47EF70037F00227F022251
:0EA7CD0012A542EF640360037F00227F012289
:0B9ADF00900D6CEBF0A3EAF0A3E9F09F
:109AEA007B017A0D796F128CA7EF6403601E900DCB
:109AFA006FE0FEA3E0FF7E00900D6CE0FBA3E0FAAE
:0E9B0A00A3E0F9EE8FF0121B917F00227F0185
:019B1800222A
:0C008600900288E4F090028974FFF022E0
:0B8B6D00900E00EBF0A3EAF0A3E9F08B
:108B7800900288E0FFEFC3944840037FFF229002F1
:108B880088E0FF900E03EFF0900E00E0FBA3E0FA00
:108B9800A3E0F9900E03E0FF75F009EFA42400F5B7
:108BA80082E5F03400F583EBF0A3EAF0A3E9F09056
:108BB8000E03E0FF75F009EFA42404F582E5F03414
:108BC80000F583E4F0900288E004F0900E03E0FFE3
:018BD800227A
:1099B300900EF2EFF0900EF3EDF0900EF2E0FF75E3
:1099C300F009EFA42404F582E5F03400F583740272
:1099D300F0900EF3E0FF900EF2E0FE75F009EEA4B6
:0D99E3002403F582E5F03400F583EFF02257
:109A2D00900F20EFF0900F20E0FFEFB4FF179002A2
:109A3D0089E0FF75F009EFA42404F582E5F0340008
:109A4D00F583E4F022900F20E0FF75F009EFA424D8
:0C9A5D0004F582E5F03400F583E4F0220B
:109C3900900F21EFF0900F21E0FF900289E0FE756F
:109C4900F009EEA42403F582E5F03400F583EFF082
:109C5900900289E0FF75F009EFA42404F582E5F08C
:089C69003400F5837402F022BF
:106D1500900EA7EFF0900EA8ECF0A3EDF0900EA763
:106D2500E0FFEF64FF7052900289E0FF75F009EF14
:106D3500A42404F582E5F03400F5837403F0900291
:106D450089E0FF7E09EF8EF0A4FFAEF074052FF900
:106D550074003EFA7B01C003C002C001900EA8E09A
:106D6500FEA3E0FF7C007D0A121A77AC06AD07D0C2
:106D750001D002D00312950222900EA7E0FF75F014
:106D850009EFA42404F582E5F03400F5837403F0DB
:106D9500900EA7E0FF7E09EF8EF0A4FFAEF074051C
:106DA5002FF974003EFA7B01C003C002C001900EAA
:106DB500A8E0FEA3E0FF7C007D0A121A77AC06ADC1
:0B6DC50007D001D002D003129502227B
:1052C000900F22E4F0900288E0FF900F22E0FEEEC3
:1052D000C39F40030253F075FFA5900288E0FF9042
:1052E0000289E004FEF0EEB50705900289E4F09033
:1052F0000289E0FF75F009EFA42404F582E5F0349B
:1053000000F583E0FFEF64027051900289E0FF75C1
:10531000F009EFA42404F582E5F03400F58374016C
:10532000F0900289E0FF75F009EFA42403F582E50F
:10533000F03400F583E0FF900289E0FE75F009EE9D
:10534000A42400F582E5F03400F583E0FBA3E0FA45
:10535000A3E0F989828A83121D6D22900289E0FF01
:1053600075F009EFA42404F582E5F03400F583E03C
:10537000FFEF64037071900289E0FF7E09EF8EF009
:10538000A4FFAEF074052FF974003EFA7B01128F72
:1053900020EF64017051900289E0FF75F009EFA4DD
:1053A0002404F582E5F03400F5837401F09002895D
:1053B000E0FF75F009EFA42403F582E5F03400F571
:1053C00083E0FF900289E0FE75F009EEA42400F569
:1053D00082E5F03400F583E0FBA3E0FAA3E0F9896D
:1053E000828A83121D6D22900F22E004F00252C5C2
:0153F000229A
:10A61200900F23EFF0900F23E0FF75F009EFA424D1
:0CA6220004F582E5F03400F583E0FF222F
:10A62E00900F24EFF0900F24E0FF75F009EFA424B3
:0CA63E0003F582E5F03400F583E0FF2214
:0B885700900CE1EBF0A3EAF0A3E9F0C5
:10886200900CE1E0FBA3E0FAA3E0F9900CE4EBF05A
:10887200A3EAF0A3E9F0900CE4E0FBA3E0FAA3E0A2
:10888200F97582017583001219AFFF900CE7EFF0C2
:10889200900CE4E0FBA3E0FAA3E0F9121996FF9032
:1088A2000CE4E0FBA3E0FAA3E0F975820175830012
:1088B200EF121A43900CE7E0FF900CE4E0FBA3E018
:0888C200FAA3E0F9EF121A31EC
:0188CA00228B
:10A68200900EAAEBF0A3EAF0A3E9F0900EAAE0FB89
:0AA69200A3E0FAA3E0F912885722B2
:0B679600900CE8EBF0A3EAF0A3E9F0A0
:1067A100900CE8E0FBA3E0FAA3E0F9900CEBEBF02E
:1067B100A3EAF0A3E9F0900CEBE0FBA3E0FAA3E07D
:1067C100F97582037583001219AFFF900CEEEFF09B
:1067D100900CEBE0FBA3E0FAA3E0F9121996FF900D
:1067E1000CEBE0FBA3E0FAA3E0F9758203758300EB
:1067F100EF121A43900CEEE0FF900CEBE0FBA3E0EC
:10680100FAA3E0F9EF121A31900CEBE0FBA3E0FAE6
:10681100A3E0F97582027583001219AFFF900CEEA7
:10682100EFF0900CEBE0FBA3E0FAA3E0F975820135
:106831007583001219AFFF900CEBE0FBA3E0FAA304
:10684100E0F9758202758300EF121A43900CEEE0B5
:10685100FF900CEBE0FBA3E0FAA3E0F97582017570
:066861008300EF121A4350
:01686700220E
:10A69C00900EADEBF0A3EAF0A3E9F0900EADE0FB69
:0AA6AC00A3E0FAA3E0F9126796227A
:0B5D3800900C46EBF0A3EAF0A3E9F0AA
:105D4300900C4C74FF75F0FF121B18AFF0FEEF4E72
:105D53007003025E20900C4CE0FEA3E0FFEF25E011
:105D6300FFEE33FE900C46E0FBA3E0FAA3E0F98FCD
:105D7300828E83121B59FDACF0900C4CE0FEA3E025
:105D8300FFEF25E0FFEE33FE900C49E0FBA3E0FAC2
:105D9300A3E0F98F828E83EC8DF0121BB0900C4C34
:105DA300E0FEA3E0FFEF25E0FFEE33FE900C49E0B9
:105DB300FBA3E0FAA3E0F9E92FF9EA3EFA900C4ECF
:105DC300EBF0A3EAF0A3E9F0900C4EE0FBA3E0FABA
:105DD300A3E0F97582017583001219AFFF900C518E
:105DE300EFF0900C4EE0FBA3E0FAA3E0F912199652
:105DF300FF900C4EE0FBA3E0FAA3E0F97582017576
:105E03008300EF121A43900C51E0FF900C4EE0FB1D
:0D5E1300A3E0FAA3E0F9EF121A31025D439B
:015E2000225F
:1093D600900CA9EBF0A3EAF0A3E9F0900CA9E0FB4E
:1093E600A3E0FAA3E0F9C003C002C001900CACE010
:1093F600FBA3E0FAA3E0F9900C49EBF0A3EAF0A393
:10940600E9F0900CAFE0FEA3E0FF900C4CEEF0A369
:0C941600EFF0D001D002D003125D38222C
:0B4EC500900C52EBF0A3EAF0A3E9F020
:104ED000900C5874FF75F0FF121B18AFF0FEEF4EE8
:104EE0007003025021900C58E0FEA3E0FFEF78021F
:104EF000C333CE33CED8F9FF900C52E0FBA3E0FAD7
:104F0000A3E0F98F828E83121C4DC004C005C00639
:104F1000C007900C58E0FEA3E0FFEF7802C333CE49
:104F200033CED8F9FF900C55E0FBA3E0FAA3E0F9EB
:104F30008F828E83D007D006D005D004121C7D90BE
:104F40000C58E0FEA3E0FFEF7802C333CE33CED897
:104F5000F9FF900C55E0FBA3E0FAA3E0F9E92FF983
:104F6000EA3EFA900C5AEBF0A3EAF0A3E9F0900CB9
:104F70005AE0FBA3E0FAA3E0F975820375830012FF
:104F800019AFFF900C5DEFF0900C5AE0FBA3E0FA34
:104F9000A3E0F9121996FF900C5AE0FBA3E0FAA3E4
:104FA000E0F9758203758300EF121A43900C5DE0FF
:104FB000FF900C5AE0FBA3E0FAA3E0F9EF121A31DC
:104FC000900C5AE0FBA3E0FAA3E0F9758202758326
:104FD000001219AFFF900C5DEFF0900C5AE0FBA3AC
:104FE000E0FAA3E0F97582017583001219AFFF9012
:104FF0000C5AE0FBA3E0FAA3E0F975820275830086
:10500000EF121A43900C5DE0FF900C5AE0FBA3E016
:10501000FAA3E0F9758201758300EF121A43024E7C
:01502000D0BF
:01502100226C
:10942200900CB1EBF0A3EAF0A3E9F0900CB1E0FBF1
:10943200A3E0FAA3E0F9C003C002C001900CB4E0BB
:10944200FBA3E0FAA3E0F9900C55EBF0A3EAF0A33A
:10945200E9F0900CB7E0FEA3E0FF900C58EEF0A309
:0C946200EFF0D001D002D003124EC52262
:0BA80100900D2C7402F0D2B1C2B12205
:057C4700900EB0EFF00B
:107C4C0012A80CEFB401037F0222900D2C7403F0E8
:107C5C007D017F12129BC7C2B012A82FAE02AF01DA
:107C6C00900EB1EEF0A3EFF0900EB0E0FF900EB1DD
:107C7C00E0FCA3E0FD8D828C83EFF0900EB1E0FE72
:107C8C00A3E0FF8F828E83A3E4F0900EB1E0FEA3FD
:107C9C00E0FF8F828E83A3A3E4F07B017A0D792D14
:107CAC00C003C002C0017BFF7AA37905900CBEEB28
:107CBC00F0A3EAF0A3E9F0D001D002D0037F037E59
:067CCC00001288CB7F00CE
:017CD200228F
:0B65EF00900D71EBF0A3EAF0A3E9F0BF
:1065FA0012A80CEFB401037F0222900D2C7403F051
:10660A007D017F12129BC7D2B012A82FAE02AF0132
:10661A00900D74EEF0A3EFF0900D71E0FBA3E0FA99
:10662A00A3E0F9121996FF900D74E0FCA3E0FD8D2A
:10663A00828C83EFF0900D71E0FBA3E0FAA3E0F9FE
:10664A00758201758300121B59FFAEF07F00EEFFC1
:10665A007E00900D74E0FCA3E0FD8D828C83A3EF95
:10666A00F0900D71E0FBA3E0FAA3E0F975820175E1
:10667A008300121B59FFAEF0EF54FFFF900D74E038
:10668A00FCA3E0FD8D828C83A3A3EFF07B017A0D3E
:10669A00792DC003C002C0017BFF7AA37905900C53
:1066AA00BEEBF0A3EAF0A3E9F0D001D002D0037F59
:0866BA00037E001288CB7F0073
:0166C20022B5
:10A30500C0D075D018900F25EFF0900F25E0FFEF26
:10A315007008900D2C7401F08006900D2C7402F0DD
:03A32500D0D02273
:108CA700900EB3EBF0A3EAF0A3E9F0900D2CE0FFF0
:108CB700EFB403037F0322900D2CE0FFEFB4012EE6
:108CC700900D2FE0FF900EB3E0FBA3E0FAA3E0F9CD
:108CD700758201758300EF121A43900D2EE0FF9005
:108CE7000EB3E0FBA3E0FAA3E0F9EF121A317D001F
:0E8CF7007F12129BC7120016900D2CE0FF2278
:10A54200900D2CE0FFEFB403037F03227D007F1206
:0EA55200129BC7C2B0120016900D2CE0FF2223
:10574F0075FFDE75FFAD12A137129A69129DB31264
:10575F00A57E12008612997412A7B01290C012A5DE
:10576F002312A81712A5F512A7E912A80112A83D36
:10577F001200061297F312A39112A24E123E2D128F
:10578F00A18712A1D7D2AF124BE6128110129D7FC3
:10579F00123B697BFF7A7A790B128B6D900CEFEFCE
:1057AF00F07BFF7A957949128B6D900CF2EFF07BBD
:1057BF00FF7A9479BA128B6D900CF4EFF07BFF7A2D
:1057CF00827914128B6D900CF5EFF07BFF7A637971
:1057DF0068128B6D900CF0EFF07BFF7A3179AB1282
:1057EF008B6D900CF1EFF07BFF7A6E798B128B6DD6
:1057FF00900CF3EFF0900CF0E0FF900CF1E0FD1245
:10580F00A50412A86F7D001299B3900CEFE0FF7DF5
:10581F00001299B3900CF2E0FF7D001299B3900C37
:10582F00F0E0FF7D001299B3900CF4E0FF7D0012C1
:10583F0099B3900CF5E0FF7D001299B3900CF3E053
:0E584F00FF7D001299B375FF071252C080FB57
:01585D002228
:109D7F00900EF474E0F0E5EF30E1047F0080027F95
:109D8F0001900EF5EFF07B017A0E79F4900C6F7461
:109D9F0001F0900C70E4F0900C71E4F07D037C0006
:039DAF0012430953
:019DB200228E
:10A1370075840F43E10443E10275AD0075A5007511
:10A1470090FF43E18043E20143E20443E21043E22C
:08A157008043E34075840022FF
:03001B00020019C7
:0100190032B4
:03002B0002001AB6
:01001A0032B3
:03003B000200219F
:0100210032AC
:0300430002002296
:0100220032AB
:03004B0002002987
:0100290032A4
:10A56000758400C2CAC2C953C8FE75CAFF75CBDB69
:0EA5700053C9E775CCFF75CDFFC2ADD2CA222C
:10A57E00758400C28C900D3CE4F0A3E4F043890195
:0EA58E00758AFF758CDB538EF4D2A9D28C2215
:03000B0002A32825
:10A32800C0E0C083C082C28D900D3DE004F070068D
:10A33800900D3CE004F0758AFF758CDBD082D083E9
:03A34800D0E03230
:10A701007584004389205389EF758DD0538EEF53A3
:08A711008EF4D28E4388402231
:10A6B60075840253C8FB75C90853C8FD53E7FB757B
:09A6C600CBFF75CAB843C8042299
:0300830002002A4E
:01002A0032A3
:109A690075840F758C67900EF6E4F0A3E4F0900E00
:109A7900F6E0FEA3E0FFC3EE648094815010900EDF
:109A8900F7E004F07006900EF6E004F080E04397EA
:0A9A990001538A7F43A60475840080
:019AA30022A0
:08A22700900D32EEF0A3EFF000
:10A22F007B017A0D7934900D32E0FCA3E0FD12959D
:0EA23F00027B017A0D7934128F20EFB401F307
:01A24D0022EE
:10950200900D76EBF0A3EAF0A3E9F0900D79ECF080
:10951200A3EDF012A5D8900D76E0FBA3E0FAA3E04C
:10952200F9EE8FF0121B91900D79E0FEA3E0FF900F
:109532000D76E0FBA3E0FAA3E0F9758202758300E1
:07954200EE8FF0121BB022B6
:0B8F2000900D7BEBF0A3EAF0A3E9F05A
:108F2B0012A5D8900D7EEEF0A3EFF0900D7BE0FB39
:108F3B00A3E0FAA3E0F9121B2EFFAEF0900D7EE03A
:108F4B00FCA3E0FD128D63900D7BE0FBA3E0FAA385
:108F5B00E0F9758202758300121B59FDACF0C3EF6B
:0A8F6B009DEE9C50037F00227F0161
:018F750022D9
:07A821007B017A0D7938225A
:10A5D800C2A9900D3CE0FEA3E0FF900EF8EEF0A3B8
:0CA5E800EFF0D2A9900EF8E0FEA3E0FF17
:01A5F4002244
:108D6300900E04EEF0A3EFF0900E06ECF0A3EDF0FE
:108D7300900E04E0FEA3E0FF900E06E0FCA3E0FDEE
:108D8300D3ED9FEC9E4018900E04E0FEA3E0FF900D
:108D93000E06E0FCA3E0FDC3ED9FFFEC9EFE2290D8
:108DA3000E04E0FEA3E0FFC3E49FFFE49EFE900EEB
:0D8DB30006E0FCA3E0FDEF2DFFEE3CFE22EC
:109DB300A2AF9206C2AF75840043911043910F7511
:109DC300985012A6B6C299C298D2ACD2BCA206923F
:109DD300AFC208900881E4F09008E6E4F0900880B0
:039DE3007463F0B6
:019DE600225A
:03002300027E72E8
:107E7200C0E0C0F0C083C082C0D075D010C2ACE5F3
:107E82009130E70353917FE59130E6035391BF3080
:107E9200980BC2987B017A08793712585E30994A5A
:107EA200C2999008E6E0FF900881E0FEEE6F60382C
:107EB2009008E6E0FF74822FF582E43408F583E04F
:107EC200FF8F999008E6E0FF7E00EF2401FFEE3479
:107ED20000FE7C007D64121A77AF159008E6EFF081
:107EE200900880E004F08002C208D2ACD0D0D082E8
:077EF200D083D0F0D0E03294
:0300A30002003127
:01003100329C
:1060CD00900D80EBF0A3EAF0A3E9F0900D83EDF0D5
:1060DD00900D83E0FF900880E0FEEEC39F50037F9C
:1060ED000122A2AC9207C2AC900D84E4F0900D8316
:1060FD00E0FF900D84E0FEEEC39F504F900D80E0C9
:10610D00FBA3E0FAA3E0F9900D84E0FF8F82758385
:10611D00001219AFFF900881E0FE74822EF582E423
:10612D003408F583EFF0900881E0FF7E00EF240145
:10613D00FFEE3400FE7C007D64121A77AF059008E7
:10614D0081EFF0900D84E004F080A2900880E0FFD4
:10615D00900D83E0FEC3EF9EFF900880EFF02008C6
:10616D0038D2089008E6E0FF74822FF582E43408F7
:10617D00F583E0FF8F999008E6E0FF7E00EF2401A4
:10618D00FFEE3400FE7C007D64121A77AF05900897
:0F619D00E6EFF0900880E004F0A20792AC7F00DC
:0161AC0022D0
:07A828007B017A0879372259
:106868005409524F4F5F5F6F6F7F7F0F0F1F1F2FAE
:076878002F3F3F878F979F20
:10A5F500C202C203758400759A4075F809759DFFFE
:0DA6050043A6F843A70343F60143E60122F4
:1088CB00900CB9EEF0A3EFF0900CBBEBF0A3EAF039
:1088DB00A3E9F075840053E6FE900CBBE0FBA3E02C
:1088EB00FAA3E0F9AE02AF019008ECEEF0A3EFF0C3
:1088FB00900CB9E0FEA3E0FF9008EBEFF0900CBEFC
:10890B00E0FBA3E0FAA3E0F99008E8EBF0A3EAF0B0
:10891B00A3E9F09008E7E4F09008E7E0FF04F074B7
:10892B00EE2FF582E43408F583E0FF8F9B43E601DD
:03893B007F002298
:0300330002551A59
:10551A00C0E0C0F0C083C082C0D075D01820FF039D
:10552A000255D7C2FF30030AE5A05407FFEF44072C
:10553A00F5A09008E7E0FF7E00EF24FFFFEE34FFBE
:10554A00FE9008ECE0FCA3E0FD8D828C83E5822FBF
:10555A00F582E5833EF583E59BF09008EBE0FF904A
:10556A0008E7E0FEEEC39F503E300322900966E44E
:10557A00F0900966E0FFEFC394145008900966E0C2
:10558A0004F080EDE5A05407FFEF448FF5A09008E2
:10559A00E7E0FF04F074EE2FF582E43408F583E0C7
:1055AA00FF8F9B807D80269008EBE0FF9008E7E064
:1055BA00FEEEB51F189008E8E0FBA3E0FAA3E0F9B5
:1055CA0089828A837F007E00121D6D805530FE1A03
:1055DA00C2FE9008E8E0FBA3E0FAA3E0F989828A18
:1055EA00837F027E00121D6D803830FD1AC2FD9045
:1055FA0008E8E0FBA3E0FAA3E0F989828A837F0343
:10560A007E00121D6D801B30FC18C2FC9008E8E079
:10561A00FBA3E0FAA3E0F989828A837F047E001261
:0D562A001D6DD0D0D082D083D0F0D0E03202
:0BA80C003002037F0122D2027F0022F5
:03001600C2022201
:109BC700900EFAEFF0900EFBEDF0900EFBE0FFEF3A
:109BD700B4011B900EFAE0FF74522FF582E43409AA
:109BE700F583E0FFE5A05407FEEE4FF5A022E5A0C0
:099BF7005407FFEF4407F5A0221A
:07A82F007B017A0879EE229B
:10A77100900F26EFF0900F26E0FFEF24FF920322C7
:10687F00490AFD010305070103050708480B060038
:07688F0001020304050607E6
:0AA8170012A560129DE7129F732244
:109DE70075840075BA0075BC18900B0EE4F075BB4E
:109DF7000175D1077E007F127D007B017A0A79E326
:109E0700121DA075E80043E88043E702D2AFC20AFB
:049E1700758400222C
:109F730075840275BA0075BCF9900B0FE4F075BBDC
:109F8300007E007F087D007B017A0A79F5121DA00F
:0F9F930075E80643E88043E710D2AF75840022DB
:03007B00027CD331
:107CD300C0E0C083C082C0D075D00853E7FDC2EDB9
:107CE300AFBF7E00900B0EE0FDED25E024E3F582AF
:107CF300E4340AF583EEF0A3EFF0900B0EE0FFEF10
:107D030025E024E3F582E4340AF583C083C082E0EE
:107D1300FEA3E0FFEF7F00FED082D083EEF0A3EF5F
:107D2300F0900B0EE0FFEF25E024E3F582E4340A44
:107D3300F583C083C082E0FEA3E0FFADBE7C00EE0E
:107D43004CFEEF4DFFD082D083EEF0A3EFF043E77C
:0C7D530002D20AD0D0D082D083D0E0321F
:03009300029D15B6
:109D1500C0E0C0F0C083C082C0D075D00853E7EF63
:109D2500C2ED900B0FE0FF74F52FF582E4340AF5D0
:109D350083E5BEF012A10C43E710D0D0D082D083CA
:059D4500D0F0D0E03277
:059E1B00900EB6EFF00F
:109E200053E7FD900EB6E0FFEF25E024E3F582E472
:109E3000340AF583E0FEA3E0FF900EB7EEF0A3EF47
:0C9E4000F043E702900EB7E0FEA3E0FF45
:019E4C0022F3
:0599F000900EB9EFF03C
:1099F50053E7EF900EB9E0FF74F52FF582E4340AD2
:109A0500F583E0FF7E00900EBAEEF0A3EFF043E79A
:109A150010900EBAE0FEA3E0FFEFC4F8540FC8683B
:079A2500FFEEC454F048FEFF
:019A2C002217
:10A29A00900B0EE004FFF0EFB40905900B0EE4F00A
:10A2AA00900B0EE0FF74FD2FF582E4340AF583E08B
:04A2BA00FF8FBB2235
:10A10C00C0D075D008900B0FE004FFF0EFB4080539
:10A11C00900B0FE4F0900B0FE0FF74062FF582E428
:0BA12C00340BF583E0FF8FBBD0D02286
:03001E00A20A2211
:05000E00A209920A2284
:06A85100900B0EE0FF2257
:1090C0007E007F627D007B017A09796D121DA07E92
:1090D000007F037D007B017A097969121DA07E0063
:1090E0007F027D007B017A0979CF121DA07E097F66
:1090F0006E9009D2EEF0A3EFF090096CE4F09009C5
:0F910000D1E4F075840043D101900967E4F022B7
:057A0B00900F27EFF0D1
:107A1000900F27E0FFEF121D167A66007A78017A40
:107A200029027A3B0300007A95127713EF70067FE4
:107A300003129C39227F02129C3922129590EF6426
:107A400004601D12910FEFB401077F00129C398072
:107A5000057F02129C397DBE7C007FFF126D1522CE
:107A60007F03129C3922127F80EF70067F01129CE7
:107A700039227F00129C3922129AA4EF6404600F0D
:107A80007F02129C397DBE7C007FFF126D15227F24
:0A7A900001129C39227F02129C397A
:017A9A0022C9
:1077130012A80CEFB401037F02229009687404F0ED
:1077230012A82FAE02AF01900EBCEEF0A3EFF090C3
:107733000EBCE0FEA3E0FF8F828E837433F0900EC5
:10774300BE7401F0900EBEE0FFEFD394305025904D
:107753000EBEE0FF900EBCE0FCA3E0FD8D828C83A7
:10776300E5822FF582E43583F583E4F0900EBEE0E5
:1077730004F080D07F0112A7717D017F11129BC796
:1077830012A15FC003C002C0017BFF7AA3794B90B3
:107793000CBEEBF0A3EAF0A3E9F0D001D002D003D2
:0977A3007F317E001288CB7F00CB
:0177AC0022BA
:107F800012A80CEFB401037F02229009687404F078
:107F900012A82FAE02AF01900EFCEEF0A3EFF0900E
:107FA0000EFCE0FEA3E0FF8F828E837434F0900E0F
:107FB000FCE0FEA3E0FF8F828E83A3E4F0900EFC32
:107FC000E0FEA3E0FF8F828E83A3A3E4F07F011283
:107FD000A7717D017F11129BC77B017A097969C066
:107FE00003C002C0017BFF7AA3794B900CBEEBF07B
:107FF000A3EAF0A3E9F0D001D002D0037F037E0012
:058000001288CB7F0097
:018005002258
:10A34B00C0D075D018900F28EFF0900F28E0FFEFDA
:10A35B0070089009687401F080069009687402F027
:03A36B00D0D0222D
:10959000900968E0FFEFB404037F04227D007F118F
:1095A000129BC77F0012A77190096CE0FFEF75F066
:1095B00031A4246EF582E43409F583AF82AE839042
:1095C00009D2EEF0A3EFF09009677401F0120016D3
:0695D000900968E0FF2293
:109AA400900968E0FFEFB404037F04227D007F1176
:109AB400129BC77F0012A77190096AE0FF9009CF3B
:109AC400EFF090096BE0FF9009D0EFF09009677414
:0B9AD40001F0120016900968E0FF226C
:0597B200900EBFEFF076
:1097B70053E6FE9009D2E0FEA3E0FF8F828E83C0BE
:1097C70083C082900EBFE0FFD082D08375F002EF96
:1097D700121D0AE0FEA3E0FF900EC0EEF0A3EFF02B
:0B97E70043E601900EC0E0FEA3E0FF8F
:0197F2002254
:107BB900900D3EEFF0900D3FECF0A3EDF0900D41EC
:107BC900EBF0A3EAF0A3E9F053E6FE900D3EE0FFE7
:107BD9007E00900D3FE0FCA3E0FDC3ED9FFFEC9E0E
:107BE900FEEF2401FFEE3400FEEF25E0FFEE33FE49
:107BF900C006C007900D3EE0FF7E02EF8EF0A4FFA5
:107C0900AEF09009D2E0FCA3E0FDEF2DFFEE3CFEC3
:107C1900AA06A9077B01C003C002C001900D41E07B
:107C2900FBA3E0FAA3E0F9A801AC02AD03D001D0AF
:0E7C390002D003D007D00612197043E60122D4
:109B1900900D44EBF0A3EAF0A3E9F053E6FE9009B7
:109B2900CFE0FF900D44E0FBA3E0FAA3E0F9EF12C8
:109B39001A319009D0E0FF900D47E0FBA3E0FAA3AA
:0A9B4900E0F9EF121A3143E60122A1
:10A15F0090096CE0FFC374019FFF90096CEFF090C2
:10A16F00096CE0FF7E31EF8EF0A4FFAEF0746D2F1F
:08A17F00F974093EFA7B01228C
:06A85700900967E0FF22FA
:10910F00900EFEE4F0900EFFE4F07B017A0E79FEF4
:10911F00C003C002C0017B017A0E79FF900D47EBAF
:10912F00F0A3EAF0A3E9F0D001D002D003129B190B
:10913F00900EFEE0FFEF600B9009D1E0FFEFD394AC
:0E914F000540099009D1E004F07F01227F0065
:01915D0022EF
:0A68960042028A000042028C0292C6
:10A187009002C97437F09002C9E0FFEF24FEFF90F8
:10A1970002CBEFF07BFF7A2D79FA128B6D90028E4E
:08A1A700EFF09002CDE4F0227C
:103B69007F0A7E0012A227900C76E4F0900C76E092
:103B7900FFEFC394084003023DF5900C76E0FF90F7
:103B890002C9E0FB7D007C00125637EF70EC900C07
:103B990076E0FF7E37EF8EF0A4FFAEF074CF2FF9F9
:103BA90074023EFA7B01900C76E0FF9002C9E0FEB8
:103BB900900DACEEF012808BEF640460D1900C761E
:103BC900E0FF7E37EF8EF0A4FFAEF074CF2FF974CB
:103BD900023EFA7B019002CBE0FD128C43900C7DF2
:103BE900EEF0A3EFF0900C76E0FF75F037EFA42428
:103BF90004F582E5F03403F583E0FEA3E0FF900CC1
:103C09007DE0FCA3E0FDEDB50713ECB5060F900CC4
:103C19007DE0FEA3E0FFEF4E6003023DCE900C76FF
:103C2900E0FF9002C9E0FB7D007C01125637EF707E
:103C3900EC900C76E0FF7E37EF8EF0A4FFAEF074C7
:103C4900CF2FF974023EFA7B01900C76E0FF9002C7
:103C5900C9E0FE900DACEEF012808BEF640460D1E8
:103C6900900C76E0FF7E37EF8EF0A4FFAEF074CFB4
:103C79002FF974023EFA7B019002CBE0FD128C43CE
:103C8900900C7DEEF0A3EFF0900C76E0FF75F03725
:103C9900EFA42404F582E5F03403F583E0FEA3E004
:103CA900FF900C7DE0FCA3E0FDED6F7002EC6E600F
:103CB90003023DEC900C7DE0FEA3E0FFEF4E7003A4
:103CC900023DEC9002C9E0FF900C77EFF0900C797F
:103CD900E4F0A3E4F0900C76E0FF75F037EFA4244C
:103CE900CFF582E5F03402F583AF82AE83900C7B89
:103CF900EEF0A3EFF0900C77E0FFEFD394005003C0
:103D0900023DAE900C76E0FF12893EEF70F590020D
:103D190091E0FF129FD0EF640460F3900C79E0FE0C
:103D2900A3E0FF7E00EF540FFFC374109FFF900CB8
:103D390078EFF0900C76E0FF900C79E0FCA3E0FDC1
:103D4900900C7BE0FAA3E0FBA9037B01900C78E0DF
:103D5900FE900C3FEEF0124A5FEF70D7900291E0AF
:103D6900FF129FD0EF640460F3900C77E0FF900C92
:103D790078E0FEC3EF9EFF900C77EFF0900C78E0AF
:103D8900FF7E00900C7AE02FF0900C79E03EF090E5
:103D99000C78E0FF7E00900C7CE02FF0900C7BE02B
:103DA9003EF0023CFE9002CDE0FF900C76E0FE74FE
:103DB90001A806088002C333D8FCFEEF4EFF90022B
:103DC900CDEFF0801E9002CDE0FF900C76E0FE74FE
:103DD90001A806088002C333D8FCFEEF4EFF90020B
:103DE900CDEFF0900C76E004F0023B759002CDE047
:063DF900FFEF64FF602DE6
:103DFF00900C7F74E5F09002CDE0FF900C80EFF017
:103E0F007B017A0C797F900C6F7401F0900C70E449
:0D3E1F00F0900C71E4F07D027C001243096C
:013E2C002273
:10867900900D85EEF0A3EFF0900D87EBF0A3EAF0F3
:10868900A3E9F09002C9E0FF7E00C006C007900D83
:1086990085E0FEA3E0FF7C007D37121A6574CF2FB9
:1086A900F974023EFA7B01C003C002C001900D8734
:1086B900E0FBA3E0FAA3E0F9A801AC02AD03D00105
:1086C900D002D003D007D006121970900D85E0FEB4
:1086D900A3E0FF7401A807088002C333D8FCFF9008
:0886E90002CDE0FEEF5EFF226E
:107A9B00900D4AEFF0900D4BEDF0900D4CEBF090FC
:107AAB000D4AE0FF90028FEFF0900D4BE0FF90023C
:107ABB0090EFF0900D4CE0FF900291EFF09002CB25
:107ACB00E0FF7E00900D4DE0FBA3E0FAA3E0F9C0D0
:107ADB0003C002C0017B017A027992A801AC02AD0E
:107AEB0003D001D002D003121970900D4DE0FBA30F
:107AFB00E0FAA3E0F99002CBE0FD128C439002C7B1
:107B0B00EEF0A3EFF0900487E4F09002CCE4F09059
:0F7B1B0002CAE4F09002C9E0FF9002CEEFF02220
:052DFA00900A3AEFF021
:102DFF00900A3AE0FFEF121D162E2A002E41012EE7
:102E0F005A022EBE032F73042F9305300206302271
:102E1F0007310008315A09000031A5900291E0FFF7
:102E2F0012893EEF70067F01129C39227F00129C9F
:102E3F003922900291E0FF129FD0EF640460067F69
:102E4F0002129C39227F01129C39229002CEE0FFA0
:102E5F00EFD39410401A90028AE0FEA3E0FF7E00A9
:102E6F00EF540FFFC374109FFF900A3BEFF0800ADF
:102E7F009002CEE0FF900A3BEFF0900291E0FF90BE
:102E8F00028AE0FCA3E0FD90028CE0FAA3E0FBA92C
:102E9F00037B01900A3BE0FE900C3FEEF0124A5F7D
:102EAF00EF70067F03129C39227F02129C39229009
:102EBF000291E0FF129FD0EF64047003022F6D7F29
:102ECF000A7E0012A227900A3BE0FF7E0090028B41
:102EDF00E02FF090028AE03EF09002CEE0FF900AE1
:102EEF003BE0FEC3EF9EFF9002CEEFF0900A3BE077
:102EFF00FF7E0090028DE02FF090028CE03EF0906C
:102F0F0002CEE0FFEFD3940040067F00129C3922DF
:102F1F009002C9E0FF7E0090028AE0FCA3E0FDC3AF
:102F2F00ED9FFFEC9EFEEF4E701090028A7401F041
:102F3F00A3E4F07F00129C39800D90028AE4F0A385
:102F4F00E4F07F04129C399002C9E0FF9002CEEFAB
:102F5F00F07E027F9290028CEEF0A3EFF0227F03BF
:102F6F00129C3922900291E0FF9002C9E0FB7D0094
:102F7F007C00125637EF70067F05129C39227F04B2
:102F8F00129C3922900291E0FF7B017A0A793C90E2
:102F9F0002C9E0FE900DACEEF012808BEF6404607E
:102FAF004C7B017A0A793C9002CBE0FD128C439066
:102FBF000A71E0FCA3E0FDEFB5050AEEB504067F4C
:102FCF0006129C3922900487E0FFEF60149002CA2A
:102FDF00E0FFEF4401FF9002CAEFF07F06129C3929
:102FEF00229004877401F07F00129C39227F051212
:102FFF009C3922900291E0FF9002C9E0FB7D007C9A
:10300F0001125637EF70067F07129C39227F061286
:10301F009C3922900291E0FF7B017A0A793C900261
:10302F00C9E0FE900DACEEF012808BEF64047003DC
:10303F000230FA7B017A0A793C9002CBE0FD128CC8
:10304F0043900A71E0FCA3E0FDEF6D7002EE6C702F
:10305F00699002C9E0FF7E00C006C0077B017A02BB
:10306F007992C003C002C001900291E0FF7E37EF5A
:10307F008EF0A4FFAEF074CF2FF974023EFA7B01ED
:10308F00A801AC02AD03D001D002D003D007D00607
:10309F00121970900A71E0FEA3E0FF900291E0FD1B
:1030AF0075F037EDA42404F582E5F03403F583EED3
:1030BF00F0A3EFF07F08129C39229002CCE0FFEFD3
:1030CF0060149002CAE0FFEF4402FF9002CAEFF0D3
:1030DF007F08129C392290028A7401F0A3E4F090C9
:1030EF0002CC7401F07F00129C39227F07129C39A9
:0130FF0022AE
:10310000900A7374C8F0900A747488F0900A75E499
:10311000F07B017A0A797390028FE0FF900C6FEFD9
:10312000F0900290E0FF900C70EFF0900C71740141
:10313000F07D037C00124309EF70199002CAE0FF92
:10314000EF700B7F00129C397FFF129A2D227F09AE
:09315000129C39227F08129C39FF
:013159002253
:10315A00900A7374E6F0900291E0FF900A74EFF01F
:10316A009002CAE0FF900A75EFF07B017A0A797340
:10317A00900C6F7401F0900C70E4F0900C71E4F014
:10318A007D037C00124309EF700B7F00129C397F8C
:0A319A00FF129A2D227F09129C39C2
:0631A400227F00129C399D
:0131AA002202
:06A85D0090028EE0FF22D4
:1068A0004405C740C000004404CF41F0000042044A
:0868B000C700014204D40000FE
:104BE6009004CCE4F09005CCE4F09004C5E4F0A386
:104BF600E4F090048AE4F0A37496F09004C9E4F01B
:104C0600A37496F09005C5E4F0A37496F09004C2E0
:104C1600E4F0A37496F09004C1E4F09005C4E4F0C7
:104C26009005CDE4F0A3E4F09004D7E4F09004C737
:104C3600E0FCA3E0FDEC1217019005C7E0F8A3E045
:104C4600F9A3E0FAA3E0FB12155612173A9004D422
:104C5600EEF0A3EFF09004D3E4F0900F29E4F09087
:104C66000F29E0FFEFC3940D507C900F29E0FFEF72
:104C7600C454F024F4F582E43404F583E4F0A3E4A8
:104C8600F0900F29E0FFEFC454F024F2F582E434EB
:104C960004F583E4F0A3E4F0900F29E0FFEFC45499
:104CA600F024F6F582E43404F583E4F0A3E4F0900E
:104CB6000F29E0FFEFC454F024F8F582E43404F53C
:104CC60083E4F0A3E4F0900F29E0FFEFC454F0244E
:104CD600FAF582E43404F583E4F0A3E4F0900F29B6
:104CE600E004F0024C657E007F1A7D007B017A04A9
:104CF60079D8121DA07BFF7A7379F8128B6D900418
:104D0600C4EFF07BFF7A8B7900128B6D9004CEEFA7
:104D1600F07BFF7A38795A128B6D9005CBEFF090C5
:104D260004CEE0FF7D001299B39005CBE0FF7D0035
:104D36001299B39005CBE0FF7D107C27126D1512FA
:104D4600A7A1900489E4F090048C7403F09005C246
:084D56007401F09004CDE4F0BB
:014D5E002232
:10A59C00900F2AEFF0900F2AE0FF9004CCEFF09090
:0EA5AC0005CC7401F09004C5E4F0A3E4F022A5
:10004E00900EC2EFF0900EC3ECF0A3EDF0900EC345
:10005E00E0FEA3E0FF900EC2E0FDEDC454F024F6E6
:0D006E00F582E43404F583EEF0A3EFF022F8
:1040E000900BBBEFF0900BBCEDF0900BBDEBF0A391
:0540F000EAF0A3E9F075
:1040F500900BBBE0FF900BCCEFF0900BCDE4F09074
:104105000BBCE0FF900BCCE0FEEEC39F40030242E8
:1041150072900BCCE0FFEFC394085069900BBDE0A3
:10412500FBA3E0FAA3E0F9900BCDE0FF75F002EFF9
:10413500A4F58285F083121B59FFAEF0C3EF94B04E
:10414500EE940450067E047FB08020900BBDE0FB0A
:10415500A3E0FAA3E0F9900BCDE0FF75F002EFA420
:10416500F58285F083121B59FFAEF0900BCCE0FD74
:10417500EDC454F024F6F582E43404F583EEF0A39F
:10418500EFF0024263900BCCE0FFEFC3940C506854
:10419500900BBDE0FBA3E0FAA3E0F9900BCDE0FFA7
:1041A50075F002EFA4F58285F083121B59FFAEF07E
:1041B500C3EF9458EE940250067E027F58802090FB
:1041C5000BBDE0FBA3E0FAA3E0F9900BCDE0FF7592
:1041D500F002EFA4F58285F083121B59FFAEF09033
:1041E5000BCCE0FDEDC454F024F6F582E43404F57F
:1041F50083EEF0A3EFF08066900BBDE0FBA3E0FA41
:10420500A3E0F9900BCDE0FF75F002EFA4F58285F0
:10421500F083121B59FFAEF0C3EF9458EE94025091
:10422500067E027F588020900BBDE0FBA3E0FAA339
:10423500E0F9900BCDE0FF75F002EFA4F58285F073
:1042450083121B59FFAEF0900BCCE0FDEDC454F08A
:1042550024F6F582E43404F583EEF0A3EFF0900B39
:10426500CCE004F0900BCDE004F0024104900BC0CB
:10427500E0FEA3E0FF9004C9EEF0A3EFF0900BC2BF
:10428500E0FEA3E0FF90048AEEF0A3EFF0900BC4EC
:10429500E0FEA3E0FF9004C2EEF0A3EFF0900BC6A2
:1042A500E0FEA3E0FF9005C5EEF0A3EFF0900BC88C
:1042B500E0FEA3E0FFC3EF9401EE940050067E00FC
:1042C5007F018008900BC8E0FEA3E0FF900BC8EECD
:1042D500F0A3EFF0900BCAE0FF90048CEFF0900490
:1042E500C7E0FCA3E0FD900BC8E0FEA3E0FF121AB7
:1042F500659004D4EEF0A3EFF0900BCBE0FF9004B3
:0343050089EFF04D
:014308002292
:0B8D0500900E08EBF0A3EAF0A3E9F0E9
:108D1000124710900E0BE4F0900E0BE0FFEFC3949F
:108D20000D503F900E0BE0FFEFC454F024F4F58299
:108D3000E43404F583E0FEA3E0FF900E08E0FBA31B
:108D4000E0FAA3E0F9900E0BE0FD75F002EDA4F55A
:108D50008285F083EE8FF0121BB0900E0BE004F0D2
:028D600080B6DB
:018D620022EE
:1086F100900CF6EFF0900CF7EDF0900CF8EBF0A386
:05870100EAF0A3E9F01D
:10870600900CF6E0FF900CFBEFF0900CFCE4F09080
:108716000CF7E0FF900CFBE0FEEEC39F5044900C7C
:10872600F8E0FBA3E0FAA3E0F9900CFCE0FF75F09B
:1087360002EFA4F58285F083121B59FFAEF0900C70
:10874600FBE0FDED25E024D8F582E43404F583EE64
:10875600F0A3EFF0900CFBE004F0900CFCE004F0CA
:0287660080ADE4
:0187680022EE
:109CDF00900EC5EBF0A3EAF0A3E9F07B017A0479CB
:109CEF00D8C003C002C001900EC5E0FBA3E0FAA3E9
:109CFF00E0F9A801AC02AD03D001D002D0037E0081
:069D0F007F1A12197022F8
:10A50400900F00EFF0900F01EDF0900F00E0FF903E
:0FA5140005C3EFF0900F01E0FF9004CBEFF022B2
:05636800900F02EFF0B0
:10636D00900F02E0FFEF121D16637D000000643CEC
:10637D009005CCE0FFEF6401600302641A9005CC38
:10638D00E4F09004CCE0FFEF6401707812471090B8
:10639D000F03E4F0900F03E0FFEFC3940850559006
:1063AD000F03E0FFEFC454F024F4F582E43404F558
:1063BD0083E0FEA3E0FF900F03E0FDEDC454F02455
:1063CD00F8F582E43404F583EEF0A3EFF0900F03BB
:1063DD00E0FF7E10EF8EF0A4FFAEF074FE2FF97487
:1063ED00043EFA7B017D007C00129502900F03E0C4
:1063FD0004F080A07FFF129A2D9004CBE0FF7D0169
:10640D001299B32212A7A17F00129C39229004CCBD
:10641D00E0FFEFB401131247107FFF129A2D900485
:10642D00CBE0FF7D011299B3227F00129C39227FB0
:04643D0000129C3974
:016441002238
:0531AB00900D50EFF053
:1031B000900D50E0FFEF121D1631C30135040200DF
:1031C0000035141277AD900D52EEF0A3EFF0900D94
:1031D00051E4F0900D51E0FFEFC3940D4003023431
:1031E000F2900D51E0FFEFC39408400302331790B3
:1031F0000D51E0FFEFC454F024F6F582E43404F5F9
:1032000083E0FEA3E0FF900D51E0FDEDC454F024F7
:10321000F4F582E43404F583E0FCA3E0FDD3ED9FF4
:10322000EC9E5003023317900D51E0FF7E10EF8E9D
:10323000F0A4FFAEF074FE2FF974043EFA7B011285
:103240008F20EF64016003023317900D51E0FF7E81
:1032500010EF8EF0A4FFAEF074FE2FF974043EFA66
:103260007B01C003C002C0019004C7E0FEA3E0FFE1
:103270007C037DE8121A657C007D0A121ACCAC062C
:10328000AD07D001D002D003129502900D51E0FF9E
:10329000EFC454F024F8F582E43404F583E0FEA38F
:1032A000E0FF9004D4E0FCA3E0FDC3EF9DFFEE9CA3
:1032B000FE900D54EEF0A3EFF0900D51E0FFEFC43F
:1032C00054F024F6F582E43404F583E0FEA3E0FF35
:1032D000900D54E0FCA3E0FDD3ED9FEC9E400A90DE
:1032E0000D54E0FEA3E0FF8017900D51E0FFEFC406
:1032F00054F024F6F582E43404F583E0FEA3E0FF05
:10330000900D51E0FDEDC454F024F8F582E434044E
:10331000F583EEF0A3EFF0900D51E0FFEFC454F011
:1033200024F6F582E43404F583E0FEA3E0FFEF4EDB
:103330007003023435900D51E0FFEFC454F024F4D3
:10334000F582E43404F583E0FEA3E0FFC3EF94D2FA
:10335000EE940F4003023435900D51E0FFEFC3941B
:103360000840030233E8900D51E0FFEFC454F0240D
:10337000F4F582E43404F583E0FEA3E0FF900D5100
:10338000E0FDEDC454F024F8F582E43404F583E064
:10339000FCA3E0FDC3ED9FEC9E5041900D51E0FF7A
:1033A000EFC454F024F4F582E43404F583E0FEA382
:1033B000E0FF900D51E0FDEDC454F024F6F582E4F9
:1033C0003404F583E0FCA3E0FDC3ED9FEC9E500CBC
:1033D000900D51E0FF7D011280068063900D51E059
:1033E000FF7D001280068057900D51E0FFEFC4541E
:1033F000F024F4F582E43404F583E0FEA3E0FF90CA
:103400000D51E0FDEDC454F024F6F582E43404F5EA
:1034100083E0FCA3E0FDC3ED9FEC9E500C900D51AA
:10342000E0FF7D011280068016900D51E0FF7D00C7
:10343000128006800A900D51E0FF7D0012800690F8
:103440000D51E0FFEFC394085036128A91EF7030AF
:10345000900D51E0FFEFC454F024F4F582E43404FD
:10346000F583E0FEA3E0FF900D52E0FCA3E0FDC376
:10347000EF9DEE9C500A900D51E0FF7D00128006FA
:10348000900D51E0FFEFC454F024F4F582E43404CD
:10349000F583E0FEA3E0FFD3EF94D2EE940F50202B
:1034A000900D51E0FFEFC454F024F4F582E43404AD
:1034B000F583E0FEA3E0FFC3EF9464EE940050298F
:1034C000900489E0FFEF6017900D51E0FFEFC39487
:1034D00008500C900D51E0FF7D00128006800A908C
:1034E00004C5E4F0A3E4F08009900D51E004F0027B
:1034F00031D312A7197F02129C397DAA7C007FFF6D
:10350000126D15227FFF129A2D9005C3E0FF7D00FA
:093510001299B3227F01129C39CB
:01351900228F
:10471000900E0DE4F0900E0EE4F0900E0FE4F01207
:10472000A857EF70032280031272A89004C1E0FF23
:10473000EFC39404500C9004C1E004F0900E0E748A
:1047400001F09005C4E0FFEFC39428500C9005C41D
:10475000E004F0900E0F7401F0900E0CE4F0900E57
:104760000CE0FFEFC3940D40030248C2900E0CE032
:10477000FFEFC454F024F4F582E43404F583E0FE42
:10478000A3E0FF900E0CE0FDED25E024A7F582E408
:104790003404F583E0FCA3E0FDC3ED9FFFEC9EFE37
:1047A00012A7F5D3EF9400EE648094904003D38079
:1047B00001C35003024869900E0EE0FFEF70429073
:1047C0000E0CE0FFEFC454F024F2F582E43404F55B
:1047D00083C083C082E0FEA3E0FF900E0CE0FDEDFD
:1047E000C454F024F4F582E43404F583E0FCA3E03F
:1047F000FDC3EF9DFFEE9CFED082D083EEF0A3EFD1
:10480000F0900E0CE0FFEF25E024A7F582E43404DD
:10481000F583E0FEA3E0FF900E0CE0FDEDC454F044
:1048200024F2F582E43404F583EE8FF0121B02903B
:1048300004C1E0FFEFFD7C00900E0CE0FFEFC454DC
:10484000F024F2F582E43404F583E0FEA3E0FF12E5
:104850001A77900E0CE0FDEDC454F024F4F582E4D8
:104860003404F583EEF0A3EFF0900E0CE0FFEFC4FC
:1048700054F024F4F582E43404F583E0FEA3E0FF71
:10488000900E0CE0FDED25E024A7F582E43404F55C
:1048900083E0FCA3E0FDC3ED9FFFEC9EFE12A7F5B5
:1048A000D3EF9464EE64809480400E900E0FE0FF8E
:1048B000EF7006900E0D7401F0900E0CE004F00203
:0248C000475E51
:0148C20022D3
:1072A8007F001297B29004A7EEF0A3EFF07F0112CF
:1072B80097B29004A9EEF0A3EFF07F021297B29074
:1072C80004ABEEF0A3EFF07F031297B29004ADEE9B
:1072D800F0A3EFF07F041297B29004AFEEF0A3EFA3
:1072E800F07F051297B29004B1EEF0A3EFF07F069D
:1072F8001297B29004B3EEF0A3EFF07F071297B2A3
:107308009004B5EEF0A3EFF07F081297B29004B79F
:10731800EEF0A3EFF07F091297B29004B9EEF0A354
:10732800EFF07F0A1297B29004BBEEF0A3EFF07F64
:107338000B1297B29004BDEEF0A3EFF07F151297F1
:0A734800B29004BFEEF0A3EFF022B4
:0A800600900E10EFF0900E11EDF057
:10801000900E12E4F0A37401F0900E11E0FFEF60F7
:10802000329004C5E0FCA3E0FD900E12E0FEA3E058
:10803000FF900E10E0FBEFA803088005C333CE339A
:10804000CED8F9FFEC4EFEED4FFF9004C5EEF0A345
:10805000EFF0229004C5E0FCA3E0FD900E12E0FEDC
:10806000A3E0FF900E10E0FBEFA803088005C333E8
:10807000CE33CED8F9FFEFF4FFEEF4FEEC5EFEED6A
:0A8080005FFF9004C5EEF0A3EFF0DF
:01808A0022D3
:10A719009004C5E0FEA3E0FF9005CDEEF0A3EFF0B5
:07A729009004D77401F02237
:0FA7A1009005CDE4F0A3E4F09004D77401F0220A
:0B48C300900C01EBF0A3EAF0A3E9F079
:1048CE00124710900C0AE4F0900C0AE0FFEFC3942C
:1048DE000D4003024A5C900C0AE0FFEFC3940850AF
:1048EE002290048AE0FEA3E0FF900C0BEEF0A3EF03
:1048FE00F09004C9E0FEA3E0FF900C0DEEF0A3EFE4
:10490E00F080209005C5E0FEA3E0FF900C0BEEF0CA
:10491E00A3EFF09004C2E0FEA3E0FF900C0DEEF0CA
:10492E00A3EFF0900C0AE0FFEFC454F024F6F582EA
:10493E00E43404F583E0FEA3E0FF900C0BE0FCA34F
:10494E00E0FDC3EF9DFFEE9CFE900C0AE0FDEDC472
:10495E0054F024F4F582E43404F583E0FCA3E0FD86
:10496E00C3ED9FEC9E4046900C0AE0FFEFC454F05E
:10497E0024F6F582E43404F583E0FEA3E0FF900C08
:10498E000DE0FCA3E0FDEF2DFFEE3CFE900C0AE0E7
:10499E00FDEDC454F024F4F582E43404F583E0FC18
:1049AE00A3E0FDD3ED9FEC9E5003024A53900C0AF8
:1049BE00E0FF900C01E0FBA3E0FAA3E0F9EF121A7E
:1049CE0031900C0AE0FFEFC454F024F4F582E43485
:1049DE0004F583E0FEA3E0FF900C04E0FBA3E0FAF5
:1049EE00A3E0F9EE8FF0121B91900C0AE0FFEFC4DA
:1049FE0054F024F6F582E43404F583E0FEA3E0FFE0
:104A0E00900C0BE0FCA3E0FDC3EF9DFFEE9CFE902F
:104A1E000C0AE0FDEDC454F024F4F582E43404F500
:104A2E0083E0FCA3E0FDC3ED9FEC9E50047F01806C
:104A3E00027F02900C07E0FBA3E0FAA3E0F9EF126D
:104A4E001A317F0022900C0AE004F00248D67F0152
:014A5E002235
:0573F800900B2FEFF0E7
:1073FD00900B3074E8F07B017A04798DC003C002E4
:10740D00C0017B017A0B7931A801AC02AD03D0012B
:10741D00D002D0037E007F1A1219707B017A0B798E
:10742D0031C003C002C0017B017A0B7931900C4948
:10743D00EBF0A3EAF0A3E9F0900C4CE4F0A3740D8B
:10744D00F0D001D002D003125D38900488E0FF9097
:10745D000B4BEFF09004D6E0FF900B4CEFF07B015F
:10746D007A0B7930900C6F7401F0900C70E4F09001
:10747D000C71E4F07D1D7C00124309EF70067FFF57
:0C748D00129A2D22900B2FE0FF129C3968
:0174990022D0
:058B0000900E14EFF0DF
:108B0500900E14E0FFEF121D168B18008B53010019
:108B1500008B679004D7E0FFEF602D900E15746011
:108B2500F09005CDE0FEA3E0FF900E16EEF0A3EF6A
:108B3500F07B017A0E79151265EFEF700B9004D773
:108B4500E4F07F01129C39227F00129C392212A584
:108B550042EF640360067F00129C39227F01129C5C
:078B650039227F00129C3948
:018B6C0022E6
:1077AD00900E197402F0900574E0FEA3E0FF900EA8
:1077BD001AEEF0A3EFF0900E187409F0900E18E089
:1077CD00FFEFC3940C5067900E19E0FF7E00EF247D
:1077DD00FFFFEE34FFFE900E19E0FD7C00121A77CC
:1077ED00900E1AE0FCA3E0FD121A65AA06AB0790F5
:1077FD000E19E0FFEFFD7C00900E18E0FFEFC45472
:10780D00F024F4F582E43404F583E0FEA3E0FF12E6
:10781D001A77EB2FFFEA3EFE900E1AEEF0A3EFF073
:10782D00900E18E004F0900E19E004F0808E900E8A
:09783D001AE0FEA3E0FF12502244
:01784600221F
:08502200900CC1EEF0A3EFF0C9
:10502A00900CC5121CD900000000900CC3E4F0A338
:10503A00E4F0900C2F121CD9C08000007F007E0083
:10504A007D207C41124D5F7B007A00790078C11285
:10505A001556C004C005C006C007900CC1E0FCA3E9
:10506A00E0FDE4121701A804A905AA06AB07D007B8
:10507A00D006D005D004121556900C2F121CCD7FE5
:10508A00A17EF87D2D7C40124D5F7B487AE179EF55
:10509A007842121556900CC5121CCD900CC5E0FC36
:1050AA00A3E0FDA3E0FEA3E0FFC004C005C006C064
:1050BA0007900C2F121CD940000000D007D006D050
:1050CA0005D004124D5F7B237ADB79F9783E1215FD
:1050DA0056C004C005C006C007900CC5E0FCA3E09A
:1050EA00FDA3E0FEA3E0FFC004C005C006C0079010
:1050FA000C2F121CD940400000D007D006D005D092
:10510A0004124D5F7B277AA07989783B121556D015
:10511A0003D002D001D000121461C004C005C00639
:10512A00C0077F4A7E0C7DDA7C41900CC5E0F8A36B
:10513A00E0F9A3E0FAA3E0FB121556A804A905AA10
:10514A0006AB07D007D006D005D0041214617B9AAB
:10515A007A1D7982784512146512173A900CC3EEBB
:0C516A00F0A3EFF0900CC3E0FEA3E0FF08
:015176002216
:108A9100900F057401F0900F047408F0900F04E03A
:108AA100FFEFC3940C5052900F04E0FFEFC454F059
:108AB10024F6F582E43404F583E0FEA3E0FF90049C
:108AC100C2E0FCA3E0FDEF2DFFEE3CFE900F04E0C1
:108AD100FDEDC454F024F4F582E43404F583E0FCA4
:108AE100A3E0FDD3ED9FEC9E4007900F05E4F080DD
:0E8AF10008900F04E004F080A3900F05E0FF52
:018AFF002254
:05385A00900E1CEFF0D0
:10385F0090048874FFF0900E1CE0FFEF121D1638D5
:10386F00810038F601395D0239C6033AEA040000D7
:10387F003B6812A857EF70067F00129C3922127214
:10388F00A8900E1DE4F0900E1DE0FFEFC3940850BA
:10389F003D900E1DE0FFEF25E024A7F582E43404F0
:1038AF00F583E0FEA3E0FF7C007D0A121A77900EED
:1038BF001DE0FDEDC454F024FAF582E43404F583E1
:1038CF00EE8FF0121B02900E1DE004F080B89004F2
:1038DF00D3E004FFF0EFC3940A40067F01129C3936
:1038EF00227F00129C39229004D3E4F0900E1DE445
:1038FF00F0900E1DE0FFEFC39408504D900E1DE0A9
:10390F00FFEFC454F024FAF582E43404F583E0FEAB
:10391F00A3E0FF900E1DE0FDEDC454F024FCF582F2
:10392F00E43404F583EEF0A3EFF0900E1DE0FFEF0B
:10393F00C454F024FAF582E43404F583E4F0A3E4EC
:10394F00F0900E1DE004F080A87F02129C391272D5
:10395F00A8900E1DE4F0900E1DE0FFEFC3940850E9
:10396F003D900E1DE0FFEF25E024A7F582E434041F
:10397F00F583E0FEA3E0FF7C007D0A121A77900E1C
:10398F001DE0FDEDC454F024FAF582E43404F58310
:10399F00EE8FF0121B02900E1DE004F080B8900421
:1039AF00D3E004FFF0EFC3940A40067F03129C3963
:0739BF00227F02129C392255
:1039C600900E1DE4F0900E1DE0FFEFC39408400337
:1039D600023AB9900E1DE0FFEFC454F024FCF582C4
:1039E600E43404F583E0FEA3E0FF900E1DE0FDED58
:1039F600C454F024FAF582E43404F583E0FCA3E031
:103A0600FDC3ED9FFFEC9EFE900E1EEEF0A3EFF0C1
:103A160090048CE0FF7E19EF8EF0A4FFAEF0C3E4B5
:103A26009FFFE49EFE900E1EE0FCA3E0FDC3ED9F0B
:103A3600EE6480F8EC648098402390048CE0FF7E6E
:103A460050EF8EF0A4FFAEF0900E1EE0FCA3E0FD5A
:103A5600D3ED9FEE6480F8EC648098404D900E1D87
:103A6600E0FF900488EFF0900E1EE0FEA3E0FF1248
:103A7600A7F590048CE0FD7C00121ACC900E1EEE89
:103A8600F0A3EFF0900E1EE0FEA3E0FFD3EF94FF4D
:103A9600EE6480948040047FFF8008900E1EE0FE56
:103AA600A3E0FF9004D6EFF08009900E1DE004F02D
:103AB6000239CB900488E0FFEFB4FF237F01129C0C
:103AC6003990048CE0FF7E007C037DE8121A65EFD6
:103AD600249CFDEE34FFFC7FFF126D152280057FCE
:043AE60004129C39F1
:103AEA009005C2E0FF9004CDE004FEF0EEC39F40D3
:103AFA004D12A7A17F0012A59C9004C4E0FF12A654
:103B0A0012EF60067F04129C39227B017A0479A79E
:103B1A00C003C002C0017B017A04798DA801AC02FE
:103B2A00AD03D001D002D0037E007F1A1219709023
:103B3A0004C4E0FF7D001299B39004CDE4F07F0144
:103B4A00129C3990048CE0FF7E007C037DE8121AF7
:0E3B5A0065EF249CFDEE34FFFC7FFF126D151D
:013B6800223A
:07A836009005C2740AF02234
:0C0096009004CDE4F09005C27401F0224B
:10811000900C12E4F0A3E4F0900C0FE4F0900C1C2F
:10812000E4F012A3FAEF70FA12A2BEEF70FA900E0A
:10813000C87404F0900EC9E4F0A3E4F07B017A0E59
:1081400079C81265EFEF70F412A542EFB401F9900F
:108150000EC87470F0900EC9E4F0A3E4F07B017ACD
:108160000E79C81265EFEF70F412A542EFB401F971
:10817000900EC8742BF0900EC9E4F0A3E4F07B01DC
:108180007A0E79C81265EFEF70F412A542EFB401D0
:01819000F9F5
:0181910022CB
:10A3FA00900ECB7410F0900ECCE4F0A37401F07BB5
:10A40A00017A0E79CB1265EFEFB402037F02227F45
:01A41A000041
:01A41B00221E
:10A41C00900ECE7411F0900ECFE4F0A37401F07B8B
:10A42C00017A0E79CE1265EFEFB402037F02227F20
:01A43C00001F
:01A43D0022FC
:089E7E00900D8AEEF0A3EFF055
:109E8600900D8C7401F0900D8AE0FEA3E0FF900D1A
:109E96008DEEF0A3EFF07B017A0D798C1265EFEF72
:089EA600B402037F02227F00D9
:019EAE002291
:0D9B5300900D56EFF0900D57ECF0A3EDF0E3
:109B6000900D56E0FF900D59EFF0900D57E0FEA3D9
:109B7000E0FF900D5AEEF0A3EFF07B017A0D7959DA
:0C9B80001265EFEFB402037F02227F00A9
:019B8C0022B6
:089EAF00900D8FEEF0A3EFF01F
:109EB700900D917402F0900D8FE0FEA3E0FF900DDE
:109EC70092EEF0A3EFF07B017A0D79911265EFEF37
:089ED700B402037F02227F00A8
:019EDF002260
:069D4A00900CFD121CCD7F
:109D5000900D017440F0900CFDE0FCA3E0FDA3E049
:109D6000FEA3E0FF900D02EEF0A3EFF07B017A0D71
:0E9D700079011265EFEFB402037F02227F003B
:019D7E0022C2
:0EA7DB007F01127C47EF70037F00227F022275
:10A43E00900ED17403F0900ED2E4F0A37401F07B71
:10A44E00017A0E79D11265EFEFB402037F02227FFB
:01A45E0000FD
:01A45F0022DA
:10A4A300900ED47403F0900ED5E4F0A3E4F07B0196
:10A4B3007A0E79D41265EFEFB402037F02227F0094
:01A4C3002276
:05A05A00900E20EFF064
:10A05F00900E217405F0900E20E0FF7E00900E22EE
:10A06F00EEF0A3EFF07B017A0E79211265EFEFB4DA
:07A07F0002037F02227F00B3
:01A0860022B7
:089EE000900D94EEF0A3EFF0E9
:109EE800900D967404F0900D94E0FEA3E0FF900DA1
:109EF80097EEF0A3EFF07B017A0D79961265EFEFFC
:089F0800B402037F02227F0076
:019F1000222E
:05A08700900E24EFF033
:10A08C00900E257470F0900E24E0FF7E00900E264A
:10A09C00EEF0A3EFF07B017A0E79251265EFEFB4A9
:07A0AC0002037F02227F0086
:01A0B300228A
:089F1100900D99EEF0A3EFF0B2
:109F1900900D9B740BF0900D99E0FEA3E0FF900D5E
:109F29009CEEF0A3EFF07B017A0D799B1265EFEFC0
:089F3900B402037F02227F0045
:019F410022FD
:089F4200900D9EEEF0A3EFF07C
:109F4A00900DA0740CF0900D9EE0FEA3E0FF900D22
:109F5A00A1EEF0A3EFF07B017A0D79A01265EFEF85
:089F6A00B402037F02227F0014
:019F720022CC
:030026007F002236
:10A2BE0012A542900F2BEFF0900F2BE0FFEF6403EF
:10A2CE00600F900F2BE0FFEFB401037F00227F029F
:03A2DE00227F01DB
:01A2E100225A
:0B9B8D00900DA3EBF0A3EAF0A3E9F0B9
:109B98007B017A0D79A6128CA7EF6403601E900DE5
:109BA800A6E0FEA3E0FF7E00900DA3E0FBA3E0FA91
:0E9BB800A3E0F9EE8FF0121B917F00227F01D7
:019BC600227C
:1089B000900C5EEEF0A3EFF0900C60ECF0A3EDF005
:1089C000900C62EAF0A3EBF0900C5EE0FEA3E0FFF7
:1089D000900C10EEF0A3EFF0900C60E0FEA3E0FF2F
:1089E000900C12EEF0A3EFF0900C62E0FEA3E0FF1B
:1089F000900C14EEF0A3EFF0900C64E0FCA3E0FD0B
:108A0000A3E0FEA3E0FF900C16121CCD900C68E0D2
:108A1000FF900C1AEFF0900C69E0FF900C1BEFF048
:018A20002233
:05280B00900C81EFF0CC
:10281000900C81E0FFEF121D1628890028D60128B0
:10282000E80229140329260429520529790629A535
:102830000729CB0829DE092A2D0A2A400B2A6E0C0B
:102840002A810D2AB50E2AC80F2B11102B24112B0B
:102850004A122B5D132B83142B96152BBD162BD0F0
:10286000172C10182C23192C351A2C6E1B2C801C9D
:102870002CAC1D2CD21E2CFF1F2D13202D58212DCA
:092880007E222DAA2300002DF494
:10288900900C8974C8F0900C8A7484F0900C8BE4D5
:10289900F07B017A0C7989900C1AE0FF900C6FEFAC
:1028A900F0900C1BE0FF900C70EFF0900C7174012C
:1028B900F07D037C00124309EF700C900C1C74012D
:0D28C900F07F01129C39227F00129C392201
:1028D60012A41CEF70067F02129C39227F01129C03
:1028E600392212A2BE900C82EFF0900C82E0FFEF2C
:1028F60064016014900C82E0FFEF70067F03129C67
:1029060039227F01129C39227F02129C392212A49D
:10291600A3EF70067F04129C39227F03129C392292
:1029260012A2BE900C82EFF0900C82E0FFEF6401E1
:102936006014900C82E0FFEF70067F05129C39222E
:102946007F03129C39227F04129C3922900C8474D6
:102956002BF0900C85E4F0A37401F07B017A0C79DE
:10296600841265EFEF70067F06129C39227F0512EE
:102976009C392212A2BE900C82EFF0900C82E0FFEE
:10298600EF64016014900C82E0FFEF70067F07127F
:102996009C39227F05129C39227F06129C3922908F
:1029A6000C847404F0900C85E4F0A3E4F07B017AC7
:1029B6000C79841265EFEF70067F08129C39227F2E
:1029C60007129C392212A542EFB401067F0D129C14
:1029D60039227F08129C3922900C847435F0900CB1
:1029E60010E0FEA3E0FFE4FCFD7B107A007900789E
:1029F60000121BDDA804A905AA06AB077F557EA019
:102A06007DFC7C0112972C900C85EEF0A3EFF07BF9
:102A1600017A0C79841265EFEF70067F0A129C39F1
:102A2600227F09129C392212A542EFB401067F0BC0
:102A3600129C39227F0A129C3922900C847431F040
:102A4600900C14E0FEA3E0FF900C85EEF0A3EFF0EF
:102A56007B017A0C79841265EFEF70067F0C129C6D
:102A660039227F0B129C392212A542EFB401067F50
:102A760017129C39227F0C129C3922900C847438D0
:102A8600F0900C16E0FCA3E0FDA3E0FEA3E0FF90AF
:102A96000C85EEF0A3EFF07B017A0C79841265EFDA
:102AA600EF70067F0E129C39227F0D129C3922127E
:102AB600A542EFB401067F0F129C39227F0E129CAD
:102AC6003922900C847437F0900C16E0FCA3E0FDDC
:102AD600A3E0FEA3E0FFEF5400FFEE5400FEED542A
:102AE600FFFDEC54FFFC7810121C3A900C85EEF0BA
:102AF600A3EFF07B017A0C79841265EFEF70067F05
:102B060010129C39227F0F129C392212A542EFB473
:102B160001067F11129C39227F10129C3922900CDB
:102B260084743AF0900C85E4F0A3E4F07B017A0C0F
:102B360079841265EFEF70067F12129C39227F119D
:102B4600129C392212A542EFB401067F13129C395A
:102B5600227F12129C3922900C847439F0900C85D5
:102B6600E4F0A3E4F07B017A0C79841265EFEF7050
:102B7600067F14129C39227F13129C392212A54219
:102B8600EFB401067F15129C39227F14129C39225C
:102B9600900C84743BF0900C85E4F0A37401F07BF8
:102BA600017A0C79841265EFEF70067F16129C3954
:102BB600227F15129C392212A542EFB401067F0925
:102BC600129C39227F16129C3922900C847404F0D0
:102BD600900C14E0FEA3E0FFEF4E700C900C857491
:102BE60003F0A3743BF0800A900C857403F0A37481
:102BF6001BF07B017A0C79841265EFEF70067F1863
:102C0600129C39227F17129C392212A542EFB40179
:102C1600067F19129C39227F18129C392212A43E73
:102C2600EF70067F1A129C39227F19129C392212E4
:102C3600A2BE900C82EFF0900C82E0FFEF64016080
:102C460021900C82E0FFEF70137F1B129C39900CD1
:102C560012E0FCA3E0FD7FFF126D15227F19129C86
:102C660039227F1A129C392212A4A3EF70067F1C08
:102C7600129C39227F1B129C392212A2BE900C8212
:102C8600EFF0900C82E0FFEF64016014900C82E09C
:102C9600FFEF70067F1D129C39227F1B129C392282
:102CA6007F1C129C3922900C847404F0900C85E4ED
:102CB600F0A3E4F07B017A0C79841265EFEF7006DD
:102CC6007F1E129C39227F1D129C392212A542902A
:102CD6000C83EFF0900C83E0FFEF64036015900C1B
:102CE60083E0FFEFB401067F1F129C39227F1D127D
:102CF6009C39227F1E129C39227F04127C47EF707A
:102D0600067F20129C39227F1F129C39227B017A72
:102D16000C7987128CA7900C83EFF0900C83E0FF60
:102D2600EF64036027900C83E0FFEFB40118900C6A
:102D360087E0FEA3E0FFEF4E70067F21129C39224A
:102D46007F1D129C39227F1F129C39227F20129CE4
:102D56003922900C84742BF0900C85E4F0A3E4F0F7
:102D66007B017A0C79841265EFEF70067F22129C44
:102D760039227F21129C392212A2BE900C82EFF0DA
:102D8600900C82E0FFEF64016014900C82E0FFEF8C
:102D960070067F23129C39227F21129C39227F22C2
:042DA600129C392220
:102DAA00900C8974E4F0900C0FE0FF900C8AEFF01D
:102DBA007B017A0C7989900C1AE0FF900C6FEFF086
:102DCA00900C70E4F0900C71E4F07D027C001243E8
:102DDA0009EF7010900C1CE4F07F00129C397FFF01
:0A2DEA00129A2D227F23129C392239
:052DF4007F00129C3974
:012DF90022B7
:06A86300900C1CE0FF2236
:06A86900900C0FE0FF223D
:10A4C400900F06EFF0900F07EDF0900F06E0FF906D
:10A4D4000F07E0FD127678EF70037F00227F0222DF
:059FA200900F08EFF034
:109FA700900F08E0FF12A1AF900F09EFF0900F0993
:109FB700E0FFEF6403600F900F09E0FFEFB40103C8
:089FC7007F00227F02227F01CE
:019FCF00226F
:059C0000900E28EFF0BA
:109C0500900E297476F0900E28E0FFEF600A900E12
:109C15002AE4F0A3E4F08009900E2AE4F0A374038B
:109C2500F07B017A0E79291265EFEFB402037F020A
:039C3500227F008B
:019C38002209
:10A7810075840053D4F853D4E743D48075840022F0
:10A0B400900F0AEEF0A3EFF0758400900F0AE0FE13
:10A0C400A3E0FFEF54FFF5D2900F0AE0FEA3E0FFF8
:0CA0D4007F00EEFF7E008FD37584002219
:10A7910075840153D4F853D4E743D48075840022DF
:10A0E000900F0CEEF0A3EFF0758401900F0CE0FEE2
:10A0F000A3E0FFEF54FFF5D2900F0CE0FEA3E0FFCA
:0CA100007F00EEFF7E008FD375840022EC
:0CA7E9009009D47402F09009D5E4F0222D
:0D651A00900CC9EFF0900CCAECF0A3EDF06E
:1065270012A80CEFB401037F02229009D47404F07F
:10653700900CCAE0FEA3E0FF900CCEEFF0900CCADF
:10654700E0FEA3E0FFEE5401FE7F00EF7803C333C4
:10655700CE33CED8F9FF900CCDEFF0900CCDE0FF05
:10656700EF4403FF900CCCEFF012A82FAE02AF015F
:10657700900CCFEEF0A3EFF0900CCCE0FF900CCF97
:10658700E0FCA3E0FD8D828C83EFF0900CCEE0FF62
:10659700900CCFE0FCA3E0FD8D828C83A3EFF090FD
:1065A7000CCFE0FEA3E0FF8F828E83A3A3E4F0C2AB
:1065B700B0900CC9E0FF7D01129BC77B017A097976
:1065C700D6C003C002C0017BFF7AA3796E900CBED0
:1065D700EBF0A3EAF0A3E9F0D001D002D0037F03E8
:0765E7007E001288CB7F004B
:0165EE00228A
:10563700900C8CEFF0900C8DECF0A3EDF0900C8FAC
:02564700EBF086
:1056490012A80CEFB401037F02229009D47404F06C
:10565900900C8DE0FEA3E0FF900C92EFF0900C8D82
:10566900E0FEA3E0FFEE5401FE7F00EF7803C333B1
:10567900CE33CED8F9FF900C91EFF0900C91E0FF6A
:10568900EF4403FF900C90EFF012A82FAE02AF0188
:10569900900C94EEF0A3EFF0900C90E0FF900C9436
:1056A900E0FCA3E0FD8D828C83EFF0900C92E0FF8B
:1056B900900C94E0FCA3E0FD8D828C83A3EFF09025
:1056C9000C93E4F0900C8FE0FF900C93E0FEEEC396
:1056D9009F502F900C93E0FF7E00EF2402FFEE34E1
:1056E90000FE900C94E0FCA3E0FD8D828C83E582A2
:1056F9002FF582E5833EF583E4F0900C93E004F006
:1057090080C2C2B0900C8CE0FF7D01129BC7900C47
:105719008FE0FF7E00EF2402FFEE3400FE7B017A6A
:105729000979D6C003C002C0017BFF7AA3796E90C4
:105739000CBEEBF0A3EAF0A3E9F0D001D002D0034C
:055749001288CB7F0077
:01574E002238
:105F0900900CA0EFF0900CA1ECF0A3EDF0900CA395
:025F1900EBF0AB
:105F1B00900CA0E0FF7D00129BC79009D47404F095
:105F2B00900CA1E0FEA3E0FF900CA6EFF0900CA16B
:105F3B00E0FEA3E0FFEE5401FE7F00EF7803C333D6
:105F4B00CE33CED8F9FF900CA5EFF0900CA5E0FF67
:105F5B00EF4402FF900CA4EFF012A82FAE02AF019A
:105F6B00900CA7EEF0A3EFF0900CA4E0FF900CA721
:105F7B00E0FCA3E0FD8D828C83EFF0900CA6E0FF9C
:105F8B00900CA7E0FCA3E0FD8D828C83A3EFF09037
:105F9B000CA3E0FF900CA7E0FCA3E0FD8D828C83AB
:105FAB00A3A3EFF09009D5E4F0900CA0E0FF7D01E6
:105FBB00129BC77B017A0979D6C003C002C0017B53
:105FCB00FF7AA3796E900CBEEBF0A3EAF0A3E9F095
:0F5FDB00D001D002D0037F037E001288CB7F005D
:015FEA002294
:104A5F00900C39EFF0900C3AECF0A3EDF0900C3C89
:084A6F00EBF0A3EAF0A3E9F06B
:104A7700900C39E0FF7D00129BC79009D47404F0B5
:104A8700900C3FE0FF7E00900C3AE0FCA3E0FDEFC6
:104A97002DFFEE3CFEEF24FFFFEE34FFFEEEC4F8E1
:104AA70054F0C868FCEFC4540F48FD900C3AE0FE80
:104AB700A3E0FFEEC4F854F0C868FEEFC4540F48F3
:104AC700FFD3ED9FEC9E40037F0322900C3AE0FE5C
:104AD700A3E0FF900C42EFF0900C3AE0FEA3E0FF5A
:104AE700EE5401FE7F00EF7803C333CE33CED8F9FF
:104AF700FF900C41EFF0900C41E0FFEF4402FF9074
:104B07000C40EFF012A82FAE02AF01900C44EEF06C
:104B1700A3EFF0900C40E0FF900C44E0FCA3E0FD15
:104B27008D828C83EFF0900C42E0FF900C44E0FC08
:104B3700A3E0FD8D828C83A3EFF0900C43E4F0900B
:104B47000C3FE0FF900C43E0FEEEC39F504A900CF1
:104B57003CE0FBA3E0FAA3E0F9900C43E0FF8F826F
:104B67007583001219AFFF900C43E0FEEEFD7C0049
:104B7700ED2402FDEC3400FC900C44E0FAA3E0FBCA
:104B87008B828A83E5822DF582E5833CF583EFF0FE
:104B9700900C43E004F080A79009D5E4F0900C391D
:104BA700E0FF7D01129BC7900C3FE0FF7E00EF24E2
:104BB70002FFEE3400FE7B017A0979D6C003C002FA
:104BC700C0017BFF7AA3796E900CBEEBF0A3EAF0ED
:0E4BD700A3E9F0D001D002D0031288CB7F00FA
:014BE50022AD
:05893E00900ED7EFF0E0
:1089430012A80CEFB401037F02229009D47404F03F
:10895300D2B09009D57401F012A82FAE02AF0190E6
:108963000ED8EEF0A3EFF0900ED8E0FEA3E0FF8F59
:10897300828E837406F0900ED7E0FF7D01129BC7B1
:108983007B017A0979D6C003C002C0017BFF7AA3B9
:10899300796E900CBEEBF0A3EAF0A3E9F0D001D01E
:0C89A30002D0037F017E001288CB7F0011
:0189AF0022A5
:10A36E00C0D075D018900F2CEFF0900F2CE0FFEFAF
:10A37E0070089009D47401F080069009D47402F02C
:03A38E00D0D0220A
:10808B00900DA8EFF0900DA9EBF0A3EAF0A3E9F0A7
:10809B009009D4E0FFEFB404037F04229009D4E0ED
:1080AB00FFEF6401704C900DACE0FFEFB401169044
:1080BB0009D8E0FF900DA9E0FBA3E0FAA3E0F9EFEC
:1080CB00121A31802D900DACE0FF7E007B017A09F6
:1080DB0079D8C003C002C001900DA9E0FBA3E0FA60
:1080EB00A3E0F9A801AC02AD03D001D002D003127A
:1080FB001970900DA8E0FF7D00129BC7120016901F
:05810B0009D4E0FF2291
:109FD000900F2DEFF09009D4E0FFEFB404037F045D
:109FE00022900F2DE0FF7D00129BC79009D5E0FF66
:0E9FF000EF7005C2B01200169009D4E0FF22F7
:108C4300900D04EBF0A3EAF0A3E9F0900D07EDF02B
:108C5300900D09E4F0A3E4F0900D08E4F0900D0703
:108C6300E0FF900D08E0FEEEC39F502F900D04E04F
:108C7300FBA3E0FAA3E0F9900D08E0FF8F82758370
:108C8300001219AFFF7E00900D0AE02FF0900D093E
:108C9300E03EF0900D08E004F080C2900D09E0FE84
:038CA300A3E0FF4C
:018CA60022AB
:0FA7B0007BFF7A8D79C0128B6D900E33EFF02204
:058DC000900E2CEFF005
:108DC500900E2CE0FFEF121D168DD8008DFE0100D0
:038DD500008E1AF3
:108DD800900E2D7406F0900E2EE4F0A3E4F07B01C3
:108DE8007A0E792D1265EFEF70067F01129C3922F9
:068DF8007F00129C3922ED
:108DFE0012A542EF6403600F7F00129C397DF47C54
:0C8E0E00017FFF126D15227F01129C39BC
:018E1A002235
:06A86F00900E33E0FF2211
:10A391007BFF7AA479E4128B6D900E31EFF07BFF95
:10A3A1007A96791C128B6D900E30EFF0900E32740C
:03A3B10001F02296
:10A75C00900E32E0FFEF600C900E31E0FF7D607CDC
:05A76C00EA126D152248
:10A4E400900F2EEFF012A7A17F0012A59C900E30C2
:10A4F400E0FF7D001299B375EF087FFF129A2D22B9
:109FFE00900F2FEFF0900F2FE0FFEF6013900E32C7
:10A00E007401F0900E31E0FF7D607CEA126D152236
:0EA01E00900E32E4F0900E31E0FF129A2D22E7
:05961C00900F30EFF09B
:10962100900F30E0FFEF121D1696340096480100AE
:1096310000965A7F00129770EF70067F01129C39D5
:10964100227F00129C392212A7CDEF70067FFF12F4
:0E9651009A2D227F01129C39227F00129C3933
:01965F0022E8
:10A730007584015388FC4388015388F3438804439C
:06A74000888075840022F0
:10A746007584025388FC4388015388F34388044385
:06A75600888075840022DA
:1097F30012A78112A79112A73012A746D288D28A44
:109803007BFF7A62798D128B6D900CD8EFF0900C00
:10981300D1E4F0900CD2E4F0900CD3E4F0A3E4F0A4
:10982300900CD57401F0900CD6E4F0900CD7E4F0D2
:019833002212
:1095D600900DADEEF0A3EFF0900DAFECF0A3EDF033
:1095E600900DB1EBF0900DADE0FEA3E0FF12A0B43C
:1095F600900DADE0FEA3E0FF12A0E0900DAFE0FEFF
:10960600A3E0FF900CD3EEF0A3EFF0900DB1E0FFD6
:06961600900CD5EFF022DC
:10993500900F31EFF0900F31E0FFEF6026900CD1E2
:10994500E4F0900CD2E4F0900CD6E4F0900CD7E45F
:10995500F0C289C28B120036900CD8E0FF7D001250
:0F99650099B32212002E900CD8E0FF129A2D22F7
:05628D00900EDAEFF0B5
:10629200900EDAE0FFEF121D1662A50063230100E3
:1062A200006362900EDBE4F012002E900CD1E0FF4E
:1062B200EF7008900CD2E0FFEF604E900CD1E0FF3F
:1062C200EF601F900CD1E4F0900CD5E0FF900CD65B
:1062D200E0FEEEC39F400B900CD6E4F0900EDB7410
:1062E20001F0900CD2E0FFEF601F900CD2E4F0902E
:1062F2000CD5E0FF900CD7E0FEEEC39F400B900C54
:10630200D7E4F0900EDB7401F0120036900EDBE061
:10631200FFEF60077F01129C3980067F00129C39D3
:016322002258
:10632300900EDC74E7F07B017A0E79DC900C6F74CD
:1063330001F0900C70E4F0900C71E4F07D017C00AE
:10634300124309EF70137F00129C39900CD3E0FCC9
:0F635300A3E0FD7FFF126D15227F01129C3922FE
:056362007F00129C39D0
:016367002213
:0300030002A6CF83
:10A6CF00C0E0C083C082900CD17401F0900CD6E032
:09A6DF0004F0D082D083D0E032F7
:0300130002A6E85A
:10A6E800C0E0C083C082900CD27401F0900CD7E017
:09A6F80004F0D082D083D0E032DE
:03002E00C2A82243
:03003600D2A8222B
:1068B800450711030100000301240048079EB0B1F9
:1068C800B2B3B4B5B6B7480779B8B9BABBBCBDBEA0
:1068D800BF48076CC0C1C2C3C4C5C6C74807EFD00C
:1068E800D1D2D3D4D5D6D74107200041079400434D
:0968F800071712000141071C0002
:05A27500900F32EFF034
:10A27A00900F32E0FFEFC3940540037F0022900F56
:0FA28A0032E0FF74112FF582E43407F583E0FF13
:01A2990022A2
:103E2D0012A844AE02AF0190080AEEF0A3EFF09095
:103E3D00080AE0FEA3E0FFAA06A9077B01128A216A
:103E4D007BFF7A827994128B6D9007ECEFF07BFFFC
:103E5D007A9C7971128B6D9007FDEFF07BFF7A7470
:103E6D00799A128B6D900731EFF07BFF7A6179AD06
:103E7D00128B6D900776EFF07BFF7A6A7908128BC3
:103E8D006D90075BEFF07BFF7A517977128B6D9018
:103E9D0007C1EFF07BFF7A817992128B6D90073C11
:103EAD00EFF07BFF7A6679C3128B6D9007C0EFF050
:103EBD007BFF7A7879E1128B6D900818EFF07BFF1C
:103ECD007A6C7958128B6D900729EFF07BFF7A355C
:103EDD00791A128B6D900789EFF07BFF7A45792A5D
:103EED00128B6D9007EAEFF07BFF7A5B795E128B98
:103EFD006D90079DEFF07BFF7A717952128B6D906B
:103F0D000788EFF07BFF7A837993128B6D9007BE54
:103F1D00EFF07BFF7A91795E128B6D9007B0EFF029
:103F2D007BFF7A84790F128B6D9007A6EFF07BFFE4
:103F3D007A9179AD128B6D9007EBEFF07BFF7A9153
:103F4D0079FC128B6D90071DEFF07BFF7A92794B08
:103F5D00128B6D900792EFF07BFF7A84798B128B29
:103F6D006D90078AEFF07BFF7A94796E128B6D90CE
:103F7D00078DEFF07BFF7A8F7976128B6D9008109D
:103F8D00EFF07BFF7A8E791B128B6D9007C4EFF0EB
:103F9D007BFF7A92799A128B6D9007F9EFF07BFF88
:103FAD007A597965128B6D900787EFF07BFF7A71E7
:103FBD0079FD128B6D9007BDEFF07BFF7A9C79A890
:103FCD00128B6D9007BFEFF07BFF7A5A7969128BD8
:103FDD006D900769EFF07BFF7A28790B128B6D904E
:103FED00072CEFF07BFF7A907920128B6D9007955F
:103FFD00EFF07BFF7A8B79D9128B6D9007FEEFF086
:10400D007BFF7A7579DB128B6D90076BEFF07BFF81
:10401D007A967960128B6D90073FEFF07BFF7A5F98
:10402D0079EB128B6D9007BAEFF07BFF7A857907EC
:10403D00128B6D9007AFEFF07BFF7A857983128B32
:10404D006D9007FCEFF07BFF7A647942128B6D90D7
:10405D000809EFF07BFF7A9279E9128B6D90076A70
:10406D00EFF07BFF7A8F79CC128B6D900781EFF09B
:10407D007BFF7A937938128B6D90072AEFF07BFFD7
:10408D007A907970128B6D900728EFF07BFF7A9301
:10409D007987128B6D900793EFF07BFF7A6F7945DF
:1040AD00128B6D900817EFF07BFF7A75793C128BB0
:1040BD006D90072BEFF07BFF7A9679A4128B6D90A4
:1040CD000816EFF07BFF7A9679E8128B6D90072139
:0340DD00EFF022DF
:05821400900DB2EFF037
:1082190090080AE0FEA3E0FFAA06A9077B011298CD
:10822900B6900DB3EEF0A3EFF0900DB3E0FEA3E02E
:10823900FFEF64FF7003EE64FF604790080AE0FEF9
:10824900A3E0FFAA06A9077B01900DB3E0FCA3E018
:10825900FD127DEBAE02AF01900DB5EEF0A3EFF08C
:10826900900DB5E0FEA3E0FFAA06A9077B01120065
:10827900A690080AE0FEA3E0FFAA06A9077B01125F
:0A8289008314900DB2E0FF129C393F
:0182930022C8
:0B00A600900C96EBF0A3EAF0A3E9F049
:1000B100900C96E0FBA3E0FAA3E0F9121996FF90E9
:1000C1000C9BEFF0900C96E0FBA3E0FAA3E0F9752E
:1000D10082017583001219AFFF900C9CEFF0900C18
:1000E10096E0FBA3E0FAA3E0F975820375830012A1
:1000F10019AFFF900C99EFF0900C96E0FBA3E0FA9A
:10010100A3E0F97582027583001219AFFF900C9A72
:10011100EFF0900C9BE0FFEFB4010312A75C900C91
:1001210099E0FFEF121D1601C50101E46403EA65C0
:1001310004096604286704BA6804D96904F86A05E1
:10014100866B05A56C05C46D05E36E06346F0694D8
:100151007006B371075C7207A27308F074090F751A
:100161000A1D760A3C770A5B780A7A7C0AB87D0A0E
:10017100D7800B3F810B8E820BAD830BCC840CE3BC
:10018100850D4E860D6D870D8C880F49890F9A8AD2
:100191000FF88B10178C10728D0A998F10C3901164
:1001A100149111689211FB97118798135E9912604F
:1001B1009A12EA9B14049C145D9D141A9E143C9F90
:1001C1000000145D900C9BE0FF900777EFF0900C1E
:1001D1009AE0FF900778EFF090073FE0FF7D001273
:0301E10099B322AD
:1001E400900C96E0FBA3E0FAA3E0F9E92404F9EA11
:1001F4003400FAAE02AF01900C9DEEF0A3EFF09044
:100204000C9DE0FEA3E0FFAA06A9077B01C003C082
:1002140002C001900C9DE0FEA3E0FFAA06A9077BA3
:1002240001900C49EBF0A3EAF0A3E9F0900C4CE444
:10023400F0A3740DF0D001D002D003125D38900CFD
:100244009DE0FEA3E0FFEF241CFFEE3400FEAA06AF
:10025400A9077B01128857900C9DE0FEA3E0FFEFF5
:10026400241AFFEE3400FEAA06A9077B0112885760
:10027400900C9DE0FEA3E0FFEF2420FFEE3400FE8F
:10028400AA06A9077B01128857900C9DE0FEA3E003
:10029400FFEF241EFFEE3400FEAA06A9077B01121D
:1002A4008857900C9DE0FEA3E0FFEF2422FFEE347C
:1002B40000FEAA06A9077B01128857900C9DE0FE58
:1002C400A3E0FFAA06A9077B01900C9DE0FEA3E032
:1002D400FF8F828E83E582241AF582E5833400F54C
:1002E40083E0FEA3E0FF900BC0EEF0A3EFF0900CD0
:1002F4009DE0FEA3E0FF8F828E83E582241CF582BD
:10030400E5833400F583E0FEA3E0FF900BC2EEF03A
:10031400A3EFF0900C9DE0FEA3E0FF8F828E83E5B7
:1003240082241EF582E5833400F583E0FEA3E0FF1A
:10033400900BC4EEF0A3EFF0900C9DE0FEA3E0FF61
:100344008F828E83E5822420F582E5833400F58351
:10035400E0FEA3E0FF900BC6EEF0A3EFF0900C9D3F
:10036400E0FEA3E0FF8F828E83E5822422F582E5FE
:10037400833400F583E0FEA3E0FF900BC8EEF0A306
:10038400EFF0900C9DE0FEA3E0FF8F828E83E58268
:100394002424F582E5833400F583E0FF900BCAEF53
:1003A400F0900C9DE0FEA3E0FF8F828E83E5822413
:1003B40025F582E5833400F583E0FF900BCBEFF065
:1003C4007D0D7F001240E0900C9BE0FF900749EF09
:1003D400F0900C9AE0FF90074AEFF090071DE0FFC1
:0603E4007D001299B32216
:1003EA00900C9BE0FF90080EEFF0900C9AE0FF90C3
:1003FA00080FEFF09007BEE0FF7D001299B322903C
:10040A000C9BE0FF900726EFF0900C9AE0FF900714
:0E041A0027EFF09007ECE0FF7D001299B3226F
:10042800900C96E0FBA3E0FAA3E0F9E92404F9EACA
:100438003400FAAE02AF01900C9DEEF0A3EFF090FD
:100448000C9DE0FEA3E0FFAA06A9077B01C003C03C
:1004580002C001900C9DE0FEA3E0FFAA06A9077B5D
:1004680001900C49EBF0A3EAF0A3E9F0900C4CE4FE
:10047800F0A3740DF0D001D002D003125D38900CB7
:100488009DE0FEA3E0FFAA06A9077B017D0C7F0083
:100498001286F1900C9BE0FF9007F7EFF0900C9A12
:1004A800E0FF9007F8EFF09007B0E0FF7D001299A9
:0204B800B3226D
:1004BA00900C9BE0FF9007C2EFF0900C9AE0FF903F
:1004CA0007C3EFF09007A6E0FF7D001299B32290D0
:1004DA000C9BE0FF9007ADEFF0900C9AE0FF9007BD
:0E04EA00AEEFF090078AE0FF7D001299B3227A
:1004F800900C96E0FBA3E0FAA3E0F9E92404F9EAFA
:100508003400FAAE02AF01900C9DEEF0A3EFF0902C
:100518000C9DE0FEA3E0FFAA06A9077B01C003C06B
:1005280002C001900C9DE0FEA3E0FFAA06A9077B8C
:1005380001900C49EBF0A3EAF0A3E9F0900C4CE42D
:10054800F0A37402F0D001D002D003125D38900CF1
:100558009DE0FEA3E0FFAA06A9077B01128E739017
:100568000C9BE0FF90072DEFF0900C9AE0FF9007AE
:0E0578002EEFF09007F9E0FF7D001299B322FC
:10058600900C9BE0FF9007FAEFF0900C9AE0FF903A
