:099FFB0000010203040506070839
:1097A00075BA0075BC38900CB1E4F075BB0075D18A
:1097B000077E007F127D007B017A0C79B212176A56
:0F97C00075E80C129CF543E88043E702D2AF2214
:03007B000273917C
:10739100C0E0C0F0C083C082C0D075D00853E7FD03
:1073A100C2EDAFBF7E00900CB1E0FDED25E024B24F
:1073B100F582E4340CF583EEF0A3EFF0900CB1E02C
:1073C100FFEF25E024B2F582E4340CF583C083C0DD
:1073D10082E0FEA3E0FFEF7F00FED082D083EEF0DB
:1073E100A3EFF0900CB1E0FFEF25E024B2F582E4C9
:1073F100340CF583C083C082E0FEA3E0FFADBE7C08
:1074010000EE4CFEEF4DFFD082D083EEF0A3EFF003
:10741100129A0C43E702D0D0D082D083D0F0D0E0D2
:017421003238
:10797E00900E2DEFF0900E2EEDF0900E2FEBF0A35B
:10798E00EAF0A3E9F053E7FD900E2DE0FF7E0090A4
:10799E000E2EE0FD7C00C3ED9FFFEC9EFEEF24015A
:1079AE00FFEE3400FEEF25E0FFEE33FEC006C0070B
:1079BE00900E2DE0FF7E02EF8EF0A4FFAEF074B2BB
:1079CE002FF9740C3EFA7B01C003C002C001900E69
:1079DE002FE0FBA3E0FAA3E0F9A801AC02AD03D0BF
:1079EE0001D002D003D007D00612121443E70222B0
:109A0C00C0D075D008900CB1E004FFF0EFB409059C
:109A1C00900CB1E4F0900CB1E0FFEF909FFB93FF42
:059A2C008FBBD0D02229
:08697100450ABA000402060108
:109C1300C200C201759A07759DFF75F80343A60735
:0D9C230043E10243E34043F60143E6012222
:107F8F00900D8FEEF0A3EFF0900D91EBF0A3EAF0D0
:107F9F00A3E9F053E6FE900D91E0FBA3E0FAA3E016
:107FAF00F9AE02AF01900A54EEF0A3EFF0900D8FEF
:107FBF00E0FEA3E0FF900A53EFF0900D94E0FBA3D7
:107FCF00E0FAA3E0F9900A50EBF0A3EAF0A3E9F08E
:107FDF00900A4FE4F0900A4FE0FF04F074562FF52B
:107FEF0082E4340AF583E0FF8F9B43E6017F002292
:0300330002580868
:10580800C0E0C0F0C083C082C0D075D01820FF03AC
:105818000258B7C2FF30010375A0FD900A4FE0FFA0
:105828007E00EF24FFFFEE34FFFE900A54E0FCA355
:10583800E0FD8D828C83E5822FF582E5833EF5833A
:10584800E59BF0900A53E0FF900A4FE0FEEEC39FFD
:10585800503730011B900ABFE4F0900ABFE0FFEF19
:10586800C394145008900ABFE004F080ED75A0F8C6
:10587800900A4FE0FF04F074562FF582E4340AF5DD
:1058880083E0FF8F9B807D8026900A53E0FF900A7B
:105898004FE0FEEEB51F18900A50E0FBA3E0FAA314
:1058A800E0F989828A837F007E001217688055306C
:1058B800FE1AC2FE900A50E0FBA3E0FAA3E0F989C1
:1058C800828A837F027E00121768803830FD1AC2F0
:1058D800FD900A50E0FBA3E0FAA3E0F989828A83ED
:1058E8007F037E00121768801B30FC18C2FC900AE8
:1058F80050E0FBA3E0FAA3E0F989828A837F047E63
:0F59080000121768D0D0D082D083D0F0D0E03218
:0E9F9F0020000330FB037F0122D2007F00224E
:03000600C2002213
:1097FE00900F53EFF0900F54EDF0900F54E0FFEFF9
:10980E00B40117900F53E0FF74BA2FF582E4340AB7
:0E981E00F583E0FFEF44F8F5A02275A0FD22CF
:07A064007B017A0A79562204
:109E8200900F83EFF0900F83E0FFEF24FF92012207
:10915D00A2AF9204C2AF759850438920758DB84364
:10916D008E10D28EC299C298D29CD2AC4388404305
:10917D008780438740D2BCA20492AF43E10443E30E
:10918D0040900000E4F0900101E4F0900102E4F061
:06919D0090010374FFF0D5
:0191A30022A9
:1094F40053E7BF5387F753F17F43F1404387084352
:10950400F11053F1FC43F740129D2943E30443E374
:10951400409001A7E4F09002A8E4F09002A9E4F0DE
:0A9524009002AA74FFF043E7402212
:030023000276560C
:0D765600C0E0C0F0C083C082C0D075D0106D
:10766300C2AC309F02C29F309E02C29E309816C2A7
:1076730098900F84E599F07B017A017904900F8447
:10768300E0FD1256F6309946C299900102E0FF9050
:107693000101E0FEEE6F6031900102E0FF74012F03
:1076A300F582E43400F583E0FF8F99900102E0FF57
:1076B3007E00EF2401FFEE3400FE7E00900102EF16
:1076C300F0900103E004F08005900000E4F0D2ACF8
:0B76D300D0D0D082D083D0F0D0E032C5
:0300A300027A7D61
:107A7D00C0E0C0F0C083C082C0D075D01053E7BF46
:107A8D00E5F130E00E53F1FE7B017A0279ABADF2F8
:107A9D001256F6E5F130E14753F1FD9002A9E0FFF2
:107AAD009002A8E0FEEE6F60319002A9E0FF74A88D
:107ABD002FF582E43401F583E0FF8FF29002A9E007
:107ACD00FF7E00EF2401FFEE3400FE7E009002A940
:107ADD00EFF09002AAE004F080059001A7E4F043D6
:0D7AED00E740D0D0D082D083D0F0D0E0327E
:10911400900E32EBF0A3EAF0A3E9F0900E35EDF0F7
:10912400900E36E0FFEF7014900E32E0FBA3E0FAED
:10913400A3E0F9900E35E0FD123F7B22900E36E05D
:10914400FFEFB40113900E32E0FBA3E0FAA3E0F9C1
:09915400900E35E0FD12414F229E
:103F7B00900D62EBF0A3EAF0A3E9F0900D65EDF084
:103F8B007B017A007900900D68EBF0A3EAF0A3E9CE
:103F9B00F0900D68E0FBA3E0FAA3E0F975820375DE
:103FAB008301121253FF900D65E0FEEFC39E500389
:103FBB007F0122900D66E4F0900D65E0FF900D6699
:103FCB00E0FEEEC39F400302408FA2ACE433FF90B0
:103FDB000D67EFF0C2AC900D62E0FBA3E0FAA3E03B
:103FEB00F9900D66E0FF8F82758300121253FF90DC
:103FFB000D68E0FBA3E0FAA3E0F97582017583017C
:10400B00121253FEEEFD7C00900D68E0FBA3E0FA6C
:10401B00A3E0F9E92401F9EA3400FAE92DF9EA3CC5
:10402B00FAEF1212D5900D68E0FBA3E0FAA3E0F9CA
:10403B00758201758301121253FF7E00EF2401FF7D
:10404B00EE3400FE7E00900D68E0FBA3E0FAA3E0E7
:10405B00F9758201758301EF1212E7900D68E0FB91
:10406B00A3E0FAA3E0F975820375830174FF1212C2
:10407B00A2900D67E0FFEF24FF92AC900D66E00479
:10408B00F0023FC3A2ACE433FF900D67EFF0C2AC7C
:10409B00900D68E0FBA3E0FAA3E0F912123AFFEFF0
:1040AB006003024142900D68E0FBA3E0FAA3E0F944
:1040BB0074011212D5900D68E0FBA3E0FAA3E0F9AE
:1040CB00758202758301121253FF7E00900D68E01A
:1040DB00FBA3E0FAA3E0F9E92401F9EA3400FAE9D9
:1040EB002FF9EA3EFA12123AFF8F99900D68E0FB16
:1040FB00A3E0FAA3E0F9758202758301121253FF54
:10410B007E00EF2401FFEE3400FE7E00900D68E090
:10411B00FBA3E0FAA3E0F9758202758301EF12129B
:10412B00E7900D68E0FBA3E0FAA3E0F97582037555
:10413B00830174011212A2900D67E0FFEF24FF922E
:03414B00AC7F0046
:01414E00224E
:10414F00900D6BEBF0A3EAF0A3E9F0900D6EEDF09C
:10415F007B017A0179A7900D71EBF0A3EAF0A3E947
:10416F00F0900D71E0FBA3E0FAA3E0F975820375FF
:10417F008301121253FF900D6EE0FEEFC39E5003AA
:10418F007F0122900D6FE4F0900D6EE0FF900D6FA8
:10419F00E0FEEEC39F4003024262E5E75440FF900A
:1041AF000D70EFF053E7BF900D6BE0FBA3E0FAA3A8
:1041BF00E0F9900D6FE0FF8F82758300121253FFAD
:1041CF00900D71E0FBA3E0FAA3E0F975820175830E
:1041DF0001121253FEEEFD7C00900D71E0FBA3E087
:1041EF00FAA3E0F9E92401F9EA3400FAE92DF9EA32
:1041FF003CFAEF1212D5900D71E0FBA3E0FAA3E0A9
:10420F00F9758201758301121253FF7E00EF2401AD
:10421F00FFEE3400FE7E00900D71E0FBA3E0FAA3E9
:10422F00E0F9758201758301EF1212E7900D71E0CD
:10423F00FBA3E0FAA3E0F975820375830174FF1203
:10424F0012A2900D70E0FFEF42E7900D6FE004F0C7
:10425F00024197E5E75440FF900D70EFF053E7BF31
:10426F00900D71E0FBA3E0FAA3E0F912123AFFEF11
:10427F006003024316900D71E0FBA3E0FAA3E0F98F
:10428F0074011212D5900D71E0FBA3E0FAA3E0F9CF
:10429F00758202758301121253FF7E00900D71E03B
:1042AF00FBA3E0FAA3E0F9E92401F9EA3400FAE903
:1042BF002FF9EA3EFA12123AFF8FF2900D71E0FBDE
:1042CF00A3E0FAA3E0F9758202758301121253FF7E
:1042DF007E00EF2401FFEE3400FE7E00900D71E0B2
:1042EF00FBA3E0FAA3E0F9758202758301EF1212C6
:1042FF00E7900D71E0FBA3E0FAA3E0F97582037577
:10430F00830174011212A2900D70E0FFEF42E77F5C
:01431F00009D
:01432000227A
:109BD700900F85EFF0900F85E0FF7E007C017DA759
:0E9BE70012130974042FF974013EFA7B012257
:109E4C00A2ACE433FF900F86EFF0C2AC900F86E02B
:019E5C00FF06
:019E5D0022E2
:109E0000E5E75440FF900F87EFF053E7BF900F87CF
:029E1000E0FF71
:019E1200222D
:109E5E00A2ACE433FF900F88EFF0D2AC900F88E005
:019E6E00FFF4
:019E6F0022D0
:109E1300E5E75440FF900F89EFF043E740900F8947
:029E2300E0FF5E
:019E2500221A
:0C9FBB009007FCE4F09007FD74FFF0221A
:0B806F00900E82EBF0A3EAF0A3E9F012
:10807A009007FCE0FFEFC3944240037FFF22900782
:10808A00FCE0FF900E85EFF0900E82E0FBA3E0FA91
:10809A00A3E0F9900E85E0FF75F009EFA424AAF594
:1080AA0082E5F03405F583EBF0A3EAF0A3E9F0905A
:1080BA000E85E0FF75F009EFA424AEF582E5F034F1
:1080CA0005F583E4F09007FCE004F0900E85E0FFEC
:0180DA002283
:10943E00900F55EFF0900F56EDF0900F55E0FF7531
:10944E00F009EFA424AEF582E5F03405F58374023D
:10945E00F0900F56E0FF900F55E0FE75F009EEA468
:0D946E0024ADF582E5F03405F583EFF02222
:1094B800900F8AEFF0900F8AE0FFEFB4FF17900744
:1094C800FDE0FF75F009EFA424AEF582E5F0340560
:1094D800F583E4F022900F8AE0FF75F009EFA424E9
:0C94E800AEF582E5F03405F583E4F022D7
:10952E00900F8BEFF0900F8BE0FF9007FDE0FE7534
:10953E00F009EEA424ADF582E5F03405F583EFF0E5
:10954E009007FDE0FF75F009EFA424AEF582E5F07B
:08955E003405F5837402F022CC
:106AF500900F02EFF0900F03ECF0A3EDF0900F0272
:106B0500E0FFEF64FF70529007FDE0FF75F009EFBD
:106B1500A424AEF582E5F03405F5837403F09007FF
:106B2500FDE0FF7E09EF8EF0A4FFAEF074AF2FF904
:106B350074053EFA7B01C003C002C001900F03E05B
:106B4500FEA3E0FF7C007D0A12131BAC06AD07D047
:106B550001D002D0031291A422900F02E0FF75F03C
:106B650009EFA424AEF582E5F03405F5837403F04E
:106B7500900F02E0FF7E09EF8EF0A4FFAEF074AF38
:106B85002FF974053EFA7B01C003C002C001900FC6
:106B950003E0FEA3E0FF7C007D0A12131BAC06ADEB
:0B6BA50007D001D002D0031291A422FF
:10504800900F8CE4F09007FCE0FF900F8CE0FEEEF0
:10505800C39F40030251739007FCE0FF9007FDE0F7
:1050680004FEF0EEB507059007FDE4F09007FDE0BB
:10507800FF75F009EFA424AEF582E5F03405F58359
:10508800E0FFEF640270519007FDE0FF75F009EF53
:10509800A424AEF582E5F03405F5837401F0900799
:1050A800FDE0FF75F009EFA424ADF582E5F03405C5
:1050B800F583E0FF9007FDE0FE75F009EEA424AA51
:1050C800F582E5F03405F583E0FBA3E0FAA3E0F907
:1050D80089828A83121768229007FDE0FF75F0091C
:1050E800EFA424AEF582E5F03405F583E0FFEF6424
:1050F80003706F9007FDE0FF7E09EF8EF0A4FFAE0E
:10510800F074AF2FF974053EFA7B01128BC3EF6080
:10511800519007FDE0FF75F009EFA424AEF582E594
:10512800F03405F5837401F09007FDE0FF75F00990
:10513800EFA424ADF582E5F03405F583E0FF900790
:10514800FDE0FE75F009EEA424AAF582E5F0340529
:10515800F583E0FBA3E0FAA3E0F989828A831217BA
:0B5168006822900F8CE004F002504D14
:015173002219
:109C6A00900F8DEFF0900F8DE0FF75F009EFA424AF
:0C9C7A00AEF582E5F03405F583E0FF2232
:109C8600900F8EEFF0900F8EE0FF75F009EFA42491
:0C9C9600ADF582E5F03405F583E0FF2217
:106DD300900F05EBF0A3EAF0A3E9F0900F05E0FBB9
:106DE300A3E0FAA3E0F97582037583007495121288
:106DF300E7900F05E0FBA3E0FAA3E0F975820175C4
:106E03008300E41212E7900F05E0FBA3E0FAA3E08E
:106E1300F9758202758300E41212E7900F05E0FB17
:106E2300A3E0FAA3E0F9758205758300E41212E783
:106E3300900F05E0FBA3E0FAA3E0F97582047583E4
:106E430000E41212E7900F05E0FBA3E0FAA3E0F9D8
:106E5300E41212D5900F05E0FBA3E0FAA3E0F97565
:106E6300820A758300E41212E7900F05E0FBA3E0AA
:0F6E7300FAA3E0F975820B758300E41212E7228F
:1056F600C0D075D010900E86EBF0A3EAF0A3E9F0C7
:10570600900E89EDF0900E86E0FBA3E0FAA3E0F997
:10571600758202758300121253FF900E86E0FBA37A
:10572600E0FAA3E0F9758201758300121253FEEECA
:10573600B5171D900E86E0FBA3E0FAA3E0F975828B
:1057460005758300121253FFEF60057F03025805AB
:10575600900E89E0FF900E86E0FBA3E0FAA3E0F945
:10576600758201758300121253FEEEFD7C00900EC9
:1057760086E0FBA3E0FAA3E0F9E9240DF9EA340098
:10578600FAE92DF9EA3CFAEF1212D5900E86E0FB03
:10579600A3E0FAA3E0F9758203758300121253FFA2
:1057A600900E86E0FBA3E0FAA3E0F975820175830B
:1057B60000121253FEEEC39F5018900E86E0FBA314
:1057C600E0FAA3E0F975820175830074011212A252
:1057D6008015900E86E0FBA3E0FAA3E0F97582013E
:1057E600758300E41212E7900E86E0FBA3E0FAA3AD
:1057F600E0F975820575830074011212A27F01D04B
:02580600D022AE
:0B55E300900D97EBF0A3EAF0A3E9F0B5
:1055EE00900D97E0FBA3E0FAA3E0F97582057583B1
:1055FE0000121253FFEF70067F03220256F3900D36
:10560E009DE0FFEF700A129E4C900D9EEFF0800809
:10561E00129E00900D9EEFF0900D97E0FBA3E0FA26
:10562E00A3E0F9758202758300121253FF7E00907B
:10563E000D97E0FBA3E0FAA3E0F9E9240DF9EA34B3
:10564E0000FAE92FF9EA3EFA12123AFF900D9AE0AB
:10565E00FBA3E0FAA3E0F9EF1212D5900D97E0FB51
:10566E00A3E0FAA3E0F9758203758300121253FFCB
:10567E00900D97E0FBA3E0FAA3E0F9758202758323
:10568E0000121253FEEEC39F5018900D97E0FBA32D
:10569E00E0FAA3E0F975820275830074011212A27A
:1056AE008015900D97E0FBA3E0FAA3E0F975820256
:1056BE00758300E41212E7900D97E0FBA3E0FAA3C6
:1056CE00E0F975820575830074FF1212A2900D9E8B
:1056DE00E0FFEF6010900D9DE0FFEF7005129E5EF3
:0756EE008003129E137F01EF
:0156F5002292
:107FFF00900F08EBF0A3EAF0A3E9F0900F08E0FB75
:10800F00A3E0FAA3E0F975820375830074021212DC
:10801F00E7900F08E0FBA3E0FAA3E0F97582027581
:10802F008300E41212E7900F08E0FBA3E0FAA3E04D
:10803F00F9758201758300E41212E7900F08E0FBD7
:10804F00A3E0FAA3E0F9758204758300E41212E746
:10805F00900F08E0FBA3E0FAA3E0F9E41212D52297
:108B6D00900F0BEBF0A3EAF0A3E9F0900F0BE0FBF5
:108B7D00A3E0FAA3E0F9758203758300121253FF87
:108B8D00900F0BE0FBA3E0FAA3E0F9758204758367
:108B9D0000121253FEEEB507057EFF7FFF22900FE8
:108BAD000BE0FBA3E0FAA3E0F975820275830012D6
:068BBD001253FF7E0022AE
:1076DE00900E37EBF0A3EAF0A3E9F0900E3AECF03F
:1076EE00A3EDF0900E37E0FBA3E0FAA3E0F975826C
:1076FE0003758300121253FF7E00EF24FFFFEE345A
:10770E00FFFE900E3AE0FCA3E0FDD3ED9FEE648009
:10771E00F8EC6480985010900E3AE0FEA3E0FFC3A0
:10772E00EE6480948050077B007A00790022900EE0
:10773E0037E0FBA3E0FAA3E0F9E92406F9EA340006
:10774E00FA900E3AE0FEA3E0FF7C007D461213098C
:07775E00E92FF9EA3EFA22CF
:107C6500900F0EEBF0A3EAF0A3E9F0900F0EE0FB06
:107C7500A3E0FAA3E0F9758203758300121253FF9E
:107C8500900F0EE0FBA3E0FAA3E0F975820275837D
:107C95000074011212A2FEEEB50715900F0EE0FB5F
:107CA500A3E0FAA3E0F9758202758300E41212E7F6
:107CB500900F0EE0FBA3E0FAA3E0F9E41212D590D1
:107CC5000F0EE0FBA3E0FAA3E0F9758204758300CB
:067CD50074011212A2224C
:10938000900F11EBF0A3EAF0A3E9F0900F11E0FBCE
:10939000A3E0FAA3E0F9758204758300121253FF6B
:1093A000EF70057EFF7FFF22900F11E0FBA3E0FA34
:1093B000A3E0F9758201758300121253FF7E00222B
:1079FE00900F14EBF0A3EAF0A3E9F0900F14E0FB64
:107A0E00A3E0FAA3E0F9758204758300121253FF06
:107A1E00EF605B900F14E0FBA3E0FAA3E0F9758230
:107A2E0003758300121253FF900F14E0FBA3E0FACC
:107A3E00A3E0F975820175830074011212A2FEEEA5
:107A4E00B50715900F14E0FBA3E0FAA3E0F97582D9
:107A5E0001758300E41212E7900F14E0FBA3E0FA25
:0F7A6E00A3E0F975820475830074FF1212A2223F
:10742200900DF7EBF0A3EAF0A3E9F0900DFAECF07F
:10743200A3EDF0900DF7E0FBA3E0FAA3E0F912123E
:107442003AFFEFC394465068900DFCE0FFC00790EE
:107452000DF7E0FBA3E0FAA3E0F9E92406F9EA3428
:1074620000FA900DFAE0FEA3E0FF7C007D461213C5
:1074720009E92FF9EA3EFAC003C002C001900DF7F4
:10748200E0FBA3E0FAA3E0F912123AFF7E00D0017A
:10749200D002D003E92FF9EA3EFAD007EF1212D553
:1074A200900DF7E0FBA3E0FAA3E0F9740112128059
:0174B20022B7
:108E140090034E7497F090034F7497F07F00129B69
:108E2400D7AE02AF01900514EEF0A3EFF07F01126C
:108E34009BD7AE02AF019005A8EEF0A3EFF090052A
:108E440014E0FEA3E0FFAA06A9077B01126DD390EC
:108E540005A8E0FEA3E0FFAA06A9077B01126DD3D3
:018E640022EB
:10289000900CC4EBF0A3EAF0A3E9F0900CC7ECF0C5
:0328A000A3EDF0B5
:1028A300900CD0E4F0900CCDE0FFEF701F7E037F1F
:1028B30050900CD2EEF0A3EFF07B017A03794E90A7
:1028C3000CD4EBF0A3EAF0A3E9F0801D7E047F7B38
:1028D300900CD2EEF0A3EFF07B017A03794F900CCA
:1028E300D4EBF0A3EAF0A3E9F0900CCCE0FFEF60A7
:1028F3000C900CCBE0FF900CD1EFF08014900CD433
:10290300E0FBA3E0FAA3E0F912123AFF900CD1EF37
:10291300F0900CC7E0FEA3E0FFD3EF9446EE9400E3
:1029230040037F0122900CD2E0FEA3E0FF8F828E52
:10293300837455F0900CD2E0FEA3E0FF8F828E8368
:10294300A37433F0900CCE7406F0900CCAE0FF90A1
:102953000CCEE0FE04F0900CD2E0FCA3E0FD8D82EF
:102963008C83E5822EF582E43583F583EFF0900CBA
:10297300CAE0FFEFB45520900CCEE0FF04F0900CBA
:10298300D2E0FCA3E0FD8D828C83E5822FF582E407
:102993003583F58374AAF0900CC9E0FF900CCEE068
:1029A300FE04F0900CD2E0FCA3E0FD8D828C83E565
:1029B300822EF582E43583F583EFF0900CC9E0FFB6
:1029C300EFB45520900CCEE0FF04F0900CD2E0FC65
:1029D300A3E0FD8D828C83E5822FF582E43583F5B8
:1029E3008374AAF0900CD1E0FF900CCEE0FE04F0CB
:1029F300900CD2E0FCA3E0FD8D828C83E5822EF562
:102A030082E43583F583EFF0900CD1E0FFEFB4550A
:102A130020900CCEE0FF04F0900CD2E0FCA3E0FD8C
:102A23008D828C83E5822FF582E43583F58374AA46
:102A3300F0900CCCE0FFEF7024900CD4E0FBA3E00B
:102A4300FAA3E0F97401121280FFEF7010900CD416
:102A5300E0FBA3E0FAA3E0F974971212D5900CCF30
:102A6300E4F0900CCFE0FF7E00900CC7E0FCA3E005
:102A7300FDC3EF9DEE9C4003022AFC900CC4E0FBD7
:102A8300A3E0FAA3E0F9900CCFE0FF8F82758300F7
:102A9300121253FF900CCEE0FE04F0900CD2E0FC37
:102AA300A3E0FD8D828C83E5822EF582E43583F5E8
:102AB30083EFF0900CC4E0FBA3E0FAA3E0F9900CE1
:102AC300CFE0FF8F82758300121253FFEFB45520BE
:102AD300900CCEE0FF04F0900CD2E0FCA3E0FD8D5F
:102AE300828C83E5822FF582E43583F58374AAF023
:102AF300900CCFE004F0022A65900CCEE0FFEF24A7
:102B0300FAFFEF54FFFF900CD2E0FCA3E0FD8D82AF
:102B13008C83A3A3EFF0900CD2E0FEA3E0FF8F829F
:102B23008E83A3A3A3E4F0900CCEE0FF7E00EF24FA
:102B3300FAFFEE34FFFE7F00EEFF7E00900CD2E042
:102B4300FCA3E0FD8D828C83E5822404F582E5837A
:102B53003400F583EFF0900CD2E0FEA3E0FF8F8208
:102B63008E83E5822405F582E5833400F583E4F062
:102B7300900CCF7406F0900CCEE0FF900CCFE0FEEB
:102B8300EEC39F502B900CCFE0FF900CD2E0FCA340
:102B9300E0FD8D828C83E5822FF582E43583F58316
:102BA300E0FF900CD0E02FF0900CCFE004F080C653
:102BB300900CD0E0FF900CCEE0FE04F0900CD2E03D
:102BC300FCA3E0FD8D828C83E5822EF582E43583C0
:102BD300F583EFF0900CD2E0FEA3E0FFAA06A9076D
:102BE3007B01900CCEE0FD900CCDE0FFEF70047FF5
:102BF3000080027F01900E36EFF0129114EF600314
:052C03007F02227F00AA
:012C080022A9
:056BB000900F57EFF00B
:106BB5007B017A0379E9128B6DEF64FF7003EE6454
:106BC500FF6043900514E0FEA3E0FFAA06A9077B3A
:106BD50001C003C002C0017B017A0F7958900D9A5C
:106BE500EBF0A3EAF0A3E9F0900D9DE4F0D001D01D
:106BF50002D0031255E3EFB4010C900F58E0FF7D6E
:106C05000012184A80BD7B017A057916128B6DEF4B
:106C150064FF7003EE64FF60449005A8E0FEA3E006
:106C2500FFAA06A9077B01C003C002C0017B017A48
:106C35000F7958900D9AEBF0A3EAF0A3E9F0900DC7
:106C45009D7401F0D001D002D0031255E3EFB401D9
:106C55000C900F58E0FF7D0112184A80BC900F5729
:056C6500E0FF12952E76
:016C6A002207
:0A184A00900D1CEFF0900D1DEDF065
:10185400900D1DE0FFEF701E900514E0FEA3E0FF65
:10186400900D22EEF0A3EFF07E037FE9900D24EEBD
:10187400F0A3EFF0801C9005A8E0FEA3E0FF900D1C
:1018840022EEF0A3EFF07E057F16900D24EEF0A378
:10189400EFF0900D24E0FEA3E0FFAA06A9077B0168
:1018A400128B6D900D1EEEF0A3EFF0900D1EE0FE76
:1018B400A3E0FFEF64FF7003EE64FF7003022011E6
:1018C400900D24E0FEA3E0FFAA06A9077B01900D7A
:1018D4001EE0FCA3E0FD1276DEAE02AF01900D2007
:1018E400EEF0A3EFF0900D20E0FEA3E0FFEF4E70CA
:1018F40003022011900D22E0FEA3E0FF8F828E836D
:10190400E5822404F582E5833400F583E0FFEF12D9
:10191400173E193200195B01199B021A3D031B0C77
:10192400041CA1081E7A0A1DB10B00002011900DA1
:101934001CE0FFEF64556003022011900D22E0FECD
:10194400A3E0FF8F828E83E5822404F582E583344D
:1019540000F5837401F022900D1CE0FFEFB4331CFA
:10196400900D22E0FEA3E0FF8F828E83E5822404A3
:10197400F582E5833400F5837402F022900D22E0B1
:10198400FEA3E0FF8F828E83E5822404F582E58343
:101994003400F583E4F022900D1CE0FF900D22E06A
:1019A400FCA3E0FD8D828C83E5822407F582E58328
:1019B4003400F583EFF0900D1CE0FFEFB455047F85
:1019C4000180027F00900D22E0FCA3E0FD8D828C5B
:1019D40083E582240CF582E5833400F583EFF090EF
:1019E4000D22E0FEA3E0FF8F828E83E5822404F5BE
:1019F40082E5833400F5837403F0900D22E0FEA3A6
:101A0400E0FF8F828E83E5822406F582E58334002D
:101A1400F5837404F0900D24E0FEA3E0FFAA06A968
:101A2400077B01900D1EE0FCA3E0FD900D1CE0FF80
:101A3400900DFCEFF012742222900D1CE0FFEF7069
:101A440035900D22E0FEA3E0FF8F828E83E5822491
:101A540006F582E5833400F583E0FF900D22E0FC77
:101A6400A3E0FD8D828C83E5822404F582E5833432
:101A740000F583EFF022900D22E0FEA3E0FF8F82B9
:101A84008E83E582240CF582E5833400F583E0FF40
:101A9400EF6040900D1CE0FFEFB4331C900D22E08A
:101AA400FEA3E0FF8F828E83E5822404F582E58322
:101AB4003400F5837402F022900D22E0FEA3E0FFCF
:101AC4008F828E83E5822404F582E5833400F583D6
:101AD400E4F022900D22E0FEA3E0FF8F828E83E5E6
:101AE400822404F582E5833400F583E4F0900D222A
:101AF400E0FEA3E0FF8F828E83E582240CF582E56D
:101B0400833400F583E4F022900D1CE0FFEFB4551C
:101B1400047F0180027F00900D22E0FCA3E0FD8D94
:101B2400828C83E582240CF582E5833400F583EF0F
:101B3400F0900D22E0FEA3E0FF8F828E83E58224E5
:101B440007F582E5833400F583E0FF900D1CE0FE89
:101B54007E00EE4FFF900D22E0FCA3E0FD8D828C11
:101B640083E5822407F582E5833400F583EFF09062
:101B74000D24E0FEA3E0FFAA06A9077B01900D1E39
:101B8400E0FCA3E0FD900D1CE0FF900DFCEFF012D3
:101B94007422900D22E0FEA3E0FF8F828E83E58203
:101BA4002407F582E5833400F583E0FFEFD3940046
:101BB4005003021C61900D22E0FEA3E0FF8F828E91
:101BC40083E5822407F582E5833400F583E0FFEFA3
:101BD400D394464003021C61900D22E0FEA3E0FF73
:101BE4008F828E83E5822408F582E5833400F583B1
:101BF400E4F0900D22E0FEA3E0FF8F828E83E58265
:101C04002409F582E5833400F583E4F0900D22E0A5
:101C1400FEA3E0FF8F828E83E582240AF582E583AA
:101C24003400F583E4F0900D22E0FEA3E0FF8F8200
:101C34008E83E5822406F582E5833400F5837408F7
:101C4400F0900D22E0FEA3E0FF8F828E83E58224D4
:101C540004F582E5833400F5837403F022900D1CAF
:101C6400E0FFEFB4551C900D22E0FEA3E0FF8F824D
:101C74008E83E5822404F582E5833400F5837401C0
:101C8400F022900D22E0FEA3E0FF8F828E83E58296
:101C94002404F582E5833400F583E4F022900D1CDE
:101CA400E0FFEFB45536900D22E0FEA3E0FF8F82F3
:101CB4008E83E5822404F582E5833400F583740A77
:101CC400F0900D22E0FEA3E0FF8F828E83E5822454
:101CD40006F582E5833400F5837408F0900D24E062
:101CE400FEA3E0FFAA06A9077B01900D1EE0FCA35A
:101CF400E0FD900D1CE0FF900DFCEFF012742290BB
:101D04000D1CE0FF900D22E0FCA3E0FD8D828C838E
:101D1400E582240AF582E5833400F583E02FF09010
:101D24000D22E0FEA3E0FF8F828E83E5822409F575
:101D340082E5833400F583E004F0900D22E0FEA3F5
:101D4400E0FF8F828E83E5822408F582E5833400E8
:101D5400F583E004F0900D22E0FEA3E0FF8F828E75
:101D640083E5822407F582E5833400F583E0FF9060
:101D74000D22E0FCA3E0FD8D828C83E5822408F52E
:101D840082E5833400F583E0FEEEC39F5003022016
:101D940011900D22E0FEA3E0FF8F828E83E5822462
:101DA40004F582E5833400F583740BF022900D2250
:101DB400E0FEA3E0FF8F828E83E582240AF582E5AC
:101DC400833400F583E0FFEF54FFFF900D1CE0FE29
:101DD400EF6E601D900D22E0FEA3E0FF8F828E83E4
:101DE400E582240BF582E5833400F583E004F0807A
:101DF4006A900D22E0FEA3E0FF8F828E83E58224A9
:101E040009F582E5833400F583E0FF900D20E0FCC2
:101E1400A3E0FD8D828C83EFF0900D22E0FEA3E021
:101E2400FF8F828E83E5822409F582E5833400F5F1
:101E340083E0FF7E007F00EEFF7E00900D20E0FC3B
:101E4400A3E0FD8D828C83A3EFF0900D24E0FEA32C
:101E5400E0FFAA06A9077B01127C65900D22E0FE33
:101E6400A3E0FF8F828E83E5822404F582E5833428
:101E740000F583E4F022900D1CE0FFEF64AA6003F8
:101E8400021FC2900D22E0FEA3E0FF8F828E83E545
:101E9400822408F582E5833400F583E0FF7E00EFB9
:101EA4002401FFEE3400FE900D22E0FCA3E0FD8D42
:101EB400828C83E5822407F582E5833400F583E090
:101EC400FD7C00C3EF9DEC6480F8EE648098401DB7
:101ED400900D22E0FEA3E0FF8F828E83E58224042E
:101EE400F582E5833400F583740BF08034900D2281
:101EF400E0FEA3E0FF8F828E83E5822406F582E56F
:101F0400833400F583E0FF900D22E0FCA3E0FD8D17
:101F1400828C83E5822404F582E5833400F583EF23
:101F2400F0900D22E0FEA3E0FF8F828E83E58224F1
:101F340006F582E5833400F583E0FFEF6408604131
:101F4400900D22E0FEA3E0FF8F828E83E5822406BB
:101F5400F582E5833400F583E0FFEF6406602290A8
:101F64000D22E0FEA3E0FF8F828E83E5822406F536
:101F740082E5833400F583E0FFEF64076003022009
:101F840002900D22E0FEA3E0FF8F828E83E582247F
:101F940008F582E5833400F583E004F0900D1CE03D
:101FA400FF900D22E0FCA3E0FD8D828C83E582246A
:101FB4000AF582E5833400F583E02FF08040900D2C
:101FC4001CE0FFEFB4331D900D22E0FEA3E0FF8F71
:101FD400828E83E5822404F582E5833400F58374DC
:101FE40002F0801A900D22E0FEA3E0FF8F828E8320
:101FF400E5822404F582E5833400F583E4F0900D52
:0D20040022E0FEA3E0FF8F828E83E004F057
:0120110022AC
:109CDA00900F8FEFF0900F8FE0FFEF70077B017A04
:0B9CEA000379E9227B017A057916223C
:108D6E007E007F627D007B017A0B793812176A7E56
:108D7E00007F037D007B017A0B793412176A7E0B1C
:108D8E007F39900B9CEEF0A3EFF0900B34E0FFEFE9
:108D9E0004FF7E00900B9AEEF0A3EFF0900B37E4F9
:108DAE00F0900B9EE4F0900B31E4F0A374BEF04310
:038DBE00D10122BE
:1068AA00900F90EFF0900B9EE0FFEFC3940A402107
:1068BA00900B9EE0FFEFC394145016900F90E0FFE8
:1068CA00EFB4020D900F90E4F0900B9E741EF080CE
:1068DA0011900B9EE0FFEFC3940A5006900B9EE0C6
:1068EA0004F0900F90E0FFEF12173E693800694AF2
:1068FA00016905026917030000696B1271C7EF701D
:10690A00067F0312952E227F0212952E221293C021
:10691A00EF640460137F0212952E900B31E0FCA302
:10692A00E0FD7FFF126AF5227F0312952E2212786C
:10693A0073EF70067F0112952E227F0012952E2288
:10694A001293C0EF640460137F0212952E900B31EC
:10695A00E0FCA3E0FD7FFF126AF5227F0112952E6B
:07696A00227F0212952E228C
:1071C700129F9FEFB401037F0222900B337404F0E8
:1071D70012A064AE02AF01900F17EEF0A3EFF0908C
:1071E7000F17E0FEA3E0FF8F828E837433F0900FBA
:1071F700197401F0900F19E0FFEFD39430502590E8
:107207000F19E0FF900F17E0FCA3E0FD8D828C8340
:10721700E5822FF582E43583F583E4F0900F19E0DA
:1072270004F080D07F01129E827D017F001297FEBD
:107237001298AEC003C002C0017BFF7A9A793190E1
:107247000D94EBF0A3EAF0A3E9F0D001D002D0034C
:097257007F317E00127F8F7F0061
:01726000220B
:10787300129F9FEFB401037F0222900B337404F035
:1078830012A064AE02AF01900F59EEF0A3EFF09097
:107893000F59E0FEA3E0FF8F828E837434F0900FC4
:1078A30059E0FEA3E0FF8F828E83A3E4F0900F598B
:1078B300E0FEA3E0FF8F828E83A3A3E4F07F011297
:1078C3009E827D017F001297FE7B017A0B7934C083
:1078D30003C002C0017BFF7A9A7931900D94EBF0DB
:1078E300A3EAF0A3E9F0D001D002D0037F037E0026
:0578F300127F8F7F00F1
:0178F800226D
:109A3100C0D075D018900F91EFF0900F91E0FFEF2B
:109A41007008900B337401F08006900B337402F0B0
:039A5100D0D02250
:1093C000900B33E0FFEFB404037F04227D007F00A5
:1093D0001297FE7F00129E82900B37E0FFEF75F030
:1093E00031A42439F582E4340BF583AF82AE839047
:1093F0000B9CEEF0A3EFF0120006900B33E0FF227F
:0592FE00900F1AEFF0D3
:1093030053E6FE900B9CE0FEA3E0FF8F828E83C0AA
:1093130083C082900F1AE0FFD082D08375F002EFF2
:10932300121732E0FEA3E0FF900F1BEEF0A3EFF065
:0B93330043E601900F1BE0FEA3E0FFEB
:01933E00220C
:1075CC00900E3CEFF0900E3DEDF0900E3EEBF0A3E4
:1075DC00EAF0A3E9F053E6FE900E3CE0FF7E00904B
:1075EC000E3DE0FD7C00C3ED9FFFEC9EFEEF240101
:1075FC00FFEE3400FEEF25E0FFEE33FEC006C007C1
:10760C00900E3CE0FF7E02EF8EF0A4FFAEF0900BEC
:10761C009CE0FCA3E0FDEF2DFFEE3CFEAA06A907C3
:10762C007B01C003C002C001900E3EE0FBA3E0FA58
:10763C00A3E0F9A801AC02AD03D001D002D003D075
:0A764C0007D00612121443E60122D3
:10967600900DFDEBF0A3EAF0A3E9F0900B35E0FFC7
:10968600900DFDE0FBA3E0FAA3E0F9EF1212D590EE
:109696000B36E0FF900E00E0FBA3E0FAA3E0F9EF43
:0496A6001212D522A5
:1098AE00900B37E0FFC374019FFF900B37EFF090E2
:1098BE000B37E0FF7E31EF8EF0A4FFAEF074382F41
:0898CE00F9740B3EFA7B012244
:109A9900900F92EFF0900F92E0FFEF600A900B3178
:109AA900E4F0A37405F022900B31E4F0A374BEF046
:019AB900228A
:09A00400900B31E0FEA3E0FF2205
:0B7DC600900DBFEBF0A3EAF0A3E9F082
:107DD100900DBFE0FBA3E0FAA3E0F9900DC2EBF038
:107DE100A3EAF0A3E9F0900DC2E0FBA3E0FAA3E05F
:107DF100F9758201758300121253FF900DC5EFF0E2
:107E0100900DC2E0FBA3E0FAA3E0F912123AFF9051
:107E11000DC2E0FBA3E0FAA3E0F9758201758300CE
:107E2100EF1212E7900DC5E0FF900DC2E0FBA3E059
:087E3100FAA3E0F9EF1212D5EB
:017E39002226
:0B67D800900DC6EBF0A3EAF0A3E9F07F
:1067E300900DC6E0FBA3E0FAA3E0F9900DC9EBF02E
:1067F300A3EAF0A3E9F0900DC9E0FBA3E0FAA3E05C
:10680300F9758203758300121253FF900DCCEFF0DC
:10681300900DC9E0FBA3E0FAA3E0F912123AFF904E
:106823000DC9E0FBA3E0FAA3E0F9758203758300C9
:10683300EF1212E7900DCCE0FF900DC9E0FBA3E04F
:10684300FAA3E0F9EF1212D5900DC9E0FBA3E0FA29
:10685300A3E0F9758202758300121253FF900DCCE9
:10686300EFF0900DC9E0FBA3E0FAA3E0F975820114
:10687300758300121253FF900DC9E0FBA3E0FAA346
:10688300E0F9758202758300EF1212E7900DCCE0F8
:10689300FF900DC9E0FBA3E0FAA3E0F9758201754F
:0668A3008300EF1212E772
:0168A90022CC
:0B653200900D04EBF0A3EAF0A3E9F0E9
:10653D00900D0A74FF75F0FF121386AFF0FEEF4E4B
:10654D00700302661A900D0AE0FEA3E0FFEF25E04E
:10655D00FFEE33FE900D04E0FBA3E0FAA3E0F98F0C
:10656D00828E831213C7FDACF0900D0AE0FEA3E0FE
:10657D00FFEF25E0FFEE33FE900D07E0FBA3E0FA01
:10658D00A3E0F98F828E83EC8DF012146B900D0ABF
:10659D00E0FEA3E0FFEF25E0FFEE33FE900D07E0F8
:1065AD00FBA3E0FAA3E0F9E92FF9EA3EFA900D0C0E
:1065BD00EBF0A3EAF0A3E9F0900D0CE0FBA3E0FAF9
:1065CD00A3E0F9758201758300121253FF900D0F30
:1065DD00EFF0900D0CE0FBA3E0FAA3E0F912123AF4
:1065ED00FF900D0CE0FBA3E0FAA3E0F975820175B5
:1065FD008300EF1212E7900D0FE0FF900D0CE0FB02
:0D660D00A3E0FAA3E0F9EF1212D502653DFB
:01661A00225D
:0B4AE400900D10EBF0A3EAF0A3E9F046
:104AEF00900D1674FF75F0FF121386AFF0FEEF4EA8
:104AFF007003024C40900D16E0FEA3E0FFEF78022A
:104B0F00C333CE33CED8F9FF900D10E0FBA3E0FAFC
:104B1F00A3E0F98F828E831215F9C004C005C00679
:104B2F00C007900D16E0FEA3E0FFEF7802C333CE6F
:104B3F0033CED8F9FF900D13E0FBA3E0FAA3E0F911
:104B4F008F828E83D007D006D005D00412164390E3
:104B5F000D16E0FEA3E0FFEF7802C333CE33CED8BD
:104B6F00F9FF900D13E0FBA3E0FAA3E0F9E92FF9A9
:104B7F00EA3EFA900D18EBF0A3EAF0A3E9F0900DDE
:104B8F0018E0FBA3E0FAA3E0F97582037583001226
:104B9F001253FF900D1BEFF0900D18E0FBA3E0FAFE
:104BAF00A3E0F912123AFF900D18E0FBA3E0FAA36D
:104BBF00E0F9758203758300EF1212E7900D1BE089
:104BCF00FF900D18E0FBA3E0FAA3E0F9EF1212D566
:104BDF00900D18E0FBA3E0FAA3E0F975820275834C
:104BEF0000121253FF900D1BEFF0900D18E0FBA376
:104BFF00E0FAA3E0F9758201758300121253FF905A
:104C0F000D18E0FBA3E0FAA3E0F9758202758300AB
:104C1F00EF1212E7900D1BE0FF900D18E0FBA3E0E1
:104C2F00FAA3E0F9758201758300EF1212E7024AC9
:014C3F00EF85
:014C40002251
:109CF500C2CAC2C9C2C875CAFF75CBDB538EDF7530
:0A9D0500CCFF75CDFFC2ADD2CA221B
:10985A00C28C900D2EE4F0A3E4F0900D26E4F0A360
:10986A00E4F0900D2CE4F0A3E4F0438901758AFF3B
:0B987A00758CDB538EF7D2A9D28C2234
:03000B000280DB95
:1080DB00C0E0C083C082C0D075D008C28D900D2F78
:1080EB00E004F07006900D2EE004F0900D2DE004EE
:1080FB00F07006900D2CE004F0900D2CE0FEA3E048
:10810B00FFC3EF9464EE94004016900D2CE4F0A3A3
:10811B00E4F0900D27E004F07006900D26E004F0DB
:0F812B00758AFF758CDBD0D0D082D083D0E03244
:109D290053C9FB43C93053C9FD438E4053E7FB7503
:099D3900E5FF75E4DC43C90422D6
:10947B0075B167900F5BE4F0A3E4F0900F5BE0FE37
:10948B00A3E0FFC3EE648094815010900F5CE00466
:10949B00F07006900F5BE004F080E0E5B130E7FB85
:0C94AB0075B28843A54043E34043E280D3
:0194B7002292
:08994E00900E03EEF0A3EFF010
:109956007B017A0E7905900E03E0FCA3E0FD1291DF
:0D996600A47B017A0E7905128BC3EF60F42B
:0199730022D1
:1091A400900E41EBF0A3EAF0A3E9F0900E44ECF04A
:1091B400A3EDF0129C30900E41E0FBA3E0FAA3E093
:1091C400F9EE8FF012144C900E44E0FEA3E0FF90F1
:1091D4000E41E0FBA3E0FAA3E0F975820275830077
:0791E400EE8FF012146B2264
:1091EB00900E46EBF0A3EAF0A3E9F0900E49ECF0F9
:1091FB00A3EDF0129C4D900E46E0FBA3E0FAA3E02A
:10920B00F9EE8FF012144C900E49E0FEA3E0FF90A4
:10921B000E46E0FBA3E0FAA3E0F97582027583002A
:07922B00EE8FF012146B221C
:0B8BC300900E4BEBF0A3EAF0A3E9F0EA
:108BCE00129C30900E4EEEF0A3EFF0900E4BE0FBA9
:108BDE00A3E0FAA3E0F912139CFFAEF0900E4EE064
:108BEE00FCA3E0FD128257900E4BE0FBA3E0FAA32C
:108BFE00E0F97582027583001213C7FDACF0C3EF66
:0A8C0E009DEE9C50037F00227F01C1
:018C18002239
:0B8C1900900E50EBF0A3EAF0A3E9F08E
:108C2400129C4D900E53EEF0A3EFF0900E50E0FB2B
:108C3400A3E0FAA3E0F912139CFFAEF0900E53E008
:108C4400FCA3E0FD128257900E50E0FBA3E0FAA3D0
:108C5400E0F97582027583001213C7FDACF0C3EF0F
:0A8C64009DEE9C50037F00227F016B
:018C6E0022E3
:109C3000C2A9900D2EE0FEA3E0FF900F5DEEF0A311
:0C9C4000EFF0D2A9900F5DE0FEA3E0FF62
:019C4C0022F5
:109C4D00C2A9900D26E0FEA3E0FF900F5FEEF0A3FA
:0C9C5D00EFF0D2A9900F5FE0FEA3E0FF43
:019C690022D8
:10825700900E8AEEF0A3EFF0900E8CECF0A3EDF009
:10826700900E8AE0FEA3E0FF900E8CE0FCA3E0FDF9
:10827700D3ED9FEC9E4018900E8AE0FEA3E0FF909E
:108287000E8CE0FCA3E0FDC3ED9FFFEC9EFE229069
:108297000E8AE0FEA3E0FFC3E49FFFE49EFE900E7C
:0D82A7008CE0FCA3E0FDEF2DFFEE3CFE227D
:106E820075FFDE75FFAD12947B12915D1294F412C0
:106E9200985A129E26129E3912A00D12A016129F07
:106EA200BB129B3B128D6E1297A0129FE7129FF1AD
:106EB200129C13128E14123581129CA2129D421240
:106EC2009885129D741278F9129BF5123B43127E3B
:106ED200AC12615B12A072D2AF7BFF7A6879AA1200
:106EE200806F900F1DEFF07BFF7A6B79B012806F8D
:106EF200900F1EEFF07BFF7A63795412806F900F30
:106F02001FEFF0900F1DE0FF7D0012943E900F1EC8
:106F1200E0FF7D0012943E900F1FE0FF7D0012946F
:0D6F22003E7D017F14124EF212504880FB9C
:016F2F00223F
:09A00D00C2A843E34043E204222F
:09A01600C2AA43E34043E2102218
:03000300020009EF
:0100090032C4
:0300130002000ADE
:01000A0032C3
:06A06B00900F93E004F0E9
:01A0710022CC
:03001B00029E92B0
:109E9200C0E0C083C08212A06BD082D083D0E032F7
:03002B00029EA290
:109EA200C0E0C083C08212A06BD082D083D0E032E7
:03004300029EB268
:109EB200C0E0C083C08212A06BD082D083D0E032D7
:03004B00029EC250
:109EC200C0E0C083C08212A06BD082D083D0E032C7
:03005300029ED238
:109ED200C0E0C083C08212A06BD082D083D0E032B7
:03005B00029EE220
:109EE200C0E0C083C08212A06BD082D083D0E032A7
:03006300029EF208
:109EF200C0E0C083C08212A06BD082D083D0E03297
:03006B00029F02EF
:109F0200C0E0C083C08212A06BD082D083D0E03286
:03008300029F12C7
:109F1200C0E0C083C08212A06BD082D083D0E03276
:03008B00029F22AF
:109F2200C0E0C083C08212A06BD082D083D0E03266
:03009300029F3297
:109F3200C0E0C083C08212A06BD082D083D0E03256
:03009B00029F427F
:109F4200C0E0C083C08212A06BD082D083D0E03246
:0300AB00029F525F
:109F5200C0E0C083C08212A06BD082D083D0E03236
:103581007F00129CDAAE02AF01900A4CEEF0A3EF7D
:10359100F07F01129CDAAE02AF019009DAEEF0A3DE
:1035A100EFF0900A4CE0FEA3E0FFAA06A9077B0119
:1035B100127FFF9009DAE0FEA3E0FFAA06A9077BCC
:1035C10001127FFF7BFF7A8E79B612806F900A4BD2
:1035D100EFF07BFF7A8E796512806F900A4EEFF0E3
:1035E100900A4EE0FF7D0012943E7BFF7A6A7933A8
:1035F10012806F9009FEEFF07BFF7A6C796B12807D
:103601006F9009C8EFF09009FEE0FF7D0012943E33
:103611009009C8E0FF7D0012943E7BFF7A8279B465
:1036210012806F9009B6EFF09009F2E4F09009EB87
:10363100E4F0900A0DE4F0A3E4F0900A31E4F0A381
:10364100E4F09009FA7407F0A37408F07BFF7A7133
:10365100792612806F900A16EFF07BFF7A837968E2
:1036610012806F900A2EEFF07BFF7A8379C212806D
:103671006F9009C7EFF07BFF7A83790E12806F900C
:1036810009D3EFF07BFF7A89790812806F9009D214
:10369100EFF07BFF7A72796112806F900A44EFF04C
:1036A1007BFF7A89796012806F900A13EFF07BFFBC
:1036B1007A84791C12806F9009C2EFF07BFF7A84C3
:1036C100797612806F900A3FEFF07BFF7A81793A29
:1036D10012806F9009EAEFF07BFF7A8479D0128033
:1036E1006F9009CFEFF07BFF7A85792A12806F9076
:1036F10009B9EFF07BFF7A8A796812806F9009E04F
:10370100EFF07BFF7A8979B812806F900A2CEFF085
:103711007BFF7A77796512806F900A39EFF07BFF32
:103721007A85798412806F9009E3EFF07BFF7A85C7
:1037310079DE12806F9009F9EFF07BFF7A7479B32B
:1037410012806F900A08EFF07BFF7A7479B31280D0
:103751006F900A08EFF07BFF7A86793812806F90BC
:1037610009DCEFF07BFF7A86799212806F9009EF86
:10377100EFF07BFF7A7A79FA12806F900A00EFF00E
:103781007BFF7A60795C12806F900A45EFF07BFFD6
:103791007A8679EC12806F900A1AEFF07BFF7A8AB1
:1037A10079BF12806F9009D7EFF07BFF7A8B791682
:1037B10012806F9009C9EFF07BFF7A6F79DB12807D
:1037C1006F9009DDEFF07BFF7A7D795112806F9068
:1037D1000A2BEFF07BFF7A87794612806F9009D42C
:1037E100EFF07BFF7A8779A012806F900A1DEFF0CE
:1037F1007BFF7A7279F912806F9009FFEFF07BFFFE
:103801007A7779EC12806F9009CCEFF07BFF7A5ACE
:10381100792612806F900A05EFF07BFF7A8779FA9B
:1038210012806F900A19EFF07BFF7A8179991280EB
:103831006F900A2DEFF07BFF7A8A791012806F90DA
:103841000A1EEFF07BFF7A88795412806F900A3E4E
:10385100EFF07BFF7A8879AE12806F9009EEEFF07E
:013861002244
:05635400900E55EFF072
:10635900900A4CE0FEA3E0FFAA06A9077B0112936D
:1063690080900E56EEF0A3EFF0900E56E0FEA3E0FB
:10637900FFEF64FF7003EE64FF6047900A4CE0FE94
:10638900A3E0FFAA06A9077B01900E56E0FCA3E053
:10639900FD1276DEAE02AF01900E58EEF0A3EFF0DB
:1063A900900E58E0FEA3E0FFAA06A9077B011200A0
:1063B900AE900A4CE0FEA3E0FFAA06A9077B0112F2
:1063C90079FE9009DAE0FEA3E0FFAA06A9077B019E
:1063D900129380900E56EEF0A3EFF0900E56E0FE69
:1063E900A3E0FFEF64FF7003EE64FF60479009DAF2
:1063F900E0FEA3E0FFAA06A9077B01900E56E0FC88
:10640900A3E0FD1276DEAE02AF01900E58EEF0A3C6
:10641900EFF0900E58E0FEA3E0FFAA06A9077B0162
:106429001244E49009DAE0FEA3E0FFAA06A9077B7B
:0C643900011279FE900E55E0FF12952E26
:016445002234
:105E5300900DCDEBF0A3EAF0A3E9F0900DD0EDF0B7
:105E6300900DCDE0FBA3E0FAA3E0F912123AFF7E16
:105E730000900DD1EEF0A3EFF0900DD1E0FCA3E084
:105E8300FD900DCDE0FBA3E0FAA3E0F97582017567
:105E93008300121253FF7E00EF7F00FEEC4EFEEDF7
:105EA3004FFF900DD1EEF0A3EFF0900DD0E0FFEF98
:105EB300B404047F0180027F00900DD3EFF0900DB6
:105EC300CDE0FBA3E0FAA3E0F9E92405F9EA340005
:105ED300FAC003C002C001900DD1E0FEA3E0FFEFC2
:105EE30024FDFDEE34FFFC900DCDE0FBA3E0FAA30F
:105EF300E0F9758203758300121253FF900CC9EF0A
:105F0300F0900DCDE0FBA3E0FAA3E0F975820275F2
:105F13008300121253FF900CCAEFF0900DCDE0FBFB
:105F2300A3E0FAA3E0F9758204758300121253FF0C
:105F3300900CCBEFF0900CCC7401F0900DD3E0FFFC
:105F4300900CCDEFF0D001D002D003122890EF6077
:045F530003025EC126
:015F57002227
:0B00AE00900D30EBF0A3EAF0A3E9F0A6
:1000B900900D30E0FBA3E0FAA3E0F97582027583A5
:1000C90000121253FF900D35EFF0900D30E0FBA3B5
:1000D900E0FAA3E0F9758203758300121253FF90C9
:1000E9000D36EFF0900D30E0FBA3E0FAA3E0F975CF
:1000F9008205758300121253FF900D33EFF0900DB6
:1001090030E0FBA3E0FAA3E0F975820475830012DD
:100119001253FF900D34EFF0900D36E0FFEFB40469
:1001290014900D30E0FBA3E0FAA3E0F9900D36E05E
:10013900FD125E53229009EB7401F07B017A097973
:10014900C37D707C171291A4900D33E0FFEF121755
:100159003E01D30108F064093F650A256608D167A5
:1001690004896803BD6A041B6B046A6C06906D06FA
:10017900DF6E08116F084F7008B27101F27603370C
:100189007702F97804C77C05167D06717E03567FD0
:10019900037A80039E810A63840BB28804A88A0CBF
:1001A900038B03188D0D3D8E0DA98F0AA1900B3875
:1001B900910A82920830960C54970250980A4499F1
:1001C9000DC8A107EDA200000DE6900D35E0FF90E6
:1001D90009D0EFF0900D34E0FF9009D1EFF0900ACB
:0901E9004BE0FF7D0012943E2260
:1001F200900D30E0FBA3E0FAA3E0F9E92406F9EA66
:100202003400FAAE02AF01900D37EEF0A3EFF0909A
:100212000D35E0FF900A49EFF0900D34E0FF900AAF
:100222004AEFF0900D37E0FEA3E0FF8F828E83E06D
:10023200FF900D37E0FCA3E0FD8D828C83A3E0FDEF
:0E024200124EF2900A2EE0FF7D0012943E2232
:10025000900D30E0FBA3E0FAA3E0F9E92406F9EA07
:100260003400FAAE02AF01900D37EEF0A3EFF0903C
:100270000D35E0FF9009F0EFF0900D34E0FF9009AC
:10028000F1EFF0900D37E0FEA3E0FFAA06A9077B8F
:1002900001127DC6900D37E0FEA3E0FFEF2402FFC0
:1002A000EE3400FEAA06A9077B01127DC6900D3729
:1002B000E0FEA3E0FF8F828E83E0FEA3E0FF900DBF
:1002C00037E0FCA3E0FD8D828C83A3A3E0FCA3E0D8
:1002D000FD900D37E0FAA3E0FB8B828A83E5822450
:1002E00004F582E5833400F583E0FB127E3A900941
:0902F000D3E0FF7D0012943E22D0
:1002F900900D35E0FF9009ECEFF0900D34E0FF90A0
:1003090009EDEFF09009D2E0FF7D0012943E2290B2
:100319000D35E0FF9009CAEFF0900D34E0FF900928
:10032900CBEFF0900A44E0FF7D0012943E22900D3D
:1003390035E0FF900A2FEFF0900D34E0FF900A307E
:10034900EFF0900A13E0FF7D0012943E22900D35E4
:10035900E0FF9009DEEFF0900D34E0FF9009DFEF48
:10036900F07F01129ADB9009C2E0FF7D0012943EF2
:1003790022900D35E0FF9009BCEFF0900D34E0FFBD
:100389009009BDEFF07F00129ADB900A3FE0FF7DF4
:100399000012943E22900D35E0FF900A0BEFF09089
:1003A9000D34E0FF900A0CEFF09009EAE0FF7D00C0
:0403B90012943E223A
:1003BD00900D30E0FBA3E0FAA3E0F9E92406F9EA99
:1003CD003400FAAE02AF01900D37EEF0A3EFF090CE
:1003DD000D35E0FF9009E8EFF0900D34E0FF900946
:1003ED00E9EFF0900D37E0FEA3E0FF8F828E83E002
:1003FD00FF900D37E0FCA3E0FD8D828C83A3E0FD23
:0E040D00129B5B9009CFE0FF7D0012943E220F
:10041B00900D30E0FBA3E0FAA3E0F9E92406F9EA3A
:10042B003400FAAE02AF01900D37EEF0A3EFF0906F
:10043B000D35E0FF9009D8EFF0900D34E0FF9009F7
:10044B00D9EFF0900D37E0FEA3E0FF8F828E83E0B3
:0F045B00FF1298D69009B9E0FF7D0012943E225F
:10046A00900D35E0FF900A06EFF0900D34E0FF9012
:10047A000A07EFF09009E0E0FF7D0012943E229017
:10048A000D35E0FF900A42EFF0900D34E0FF900A3C
:10049A0043EFF0900A2CE0FF7D0012943E22900D6B
:1004AA0035E0FF9009B7EFF0900D34E0FF9009B8FE
:0D04BA00EFF0900A39E0FF7D0012943E2221
:1004C700900D30E0FBA3E0FAA3E0F9E92406F9EA8E
:1004D7003400FAAE02AF01900D37EEF0A3EFF090C3
:1004E7000D35E0FF900A09EFF0900D34E0FF900A18
:1004F7000AEFF0900D37E0FEA3E0FF8F828E83E0D6
:0F050700FF12999A9009E3E0FF7D0012943E22C3
:10051600900D30E0FBA3E0FAA3E0F9E92406F9EA3E
:100526003400FAAE02AF01900D37EEF0A3EFF09073
:100536000D35E0FF900A14EFF0900D34E0FF900ABD
:1005460015EFF0900D37E0FEA3E0FFEF2406FFEE77
:100556003400FEAA06A9077B01C003C002C00190B1
:100566000D37E0FEA3E0FFEF2406FFEE3400FEAAFF
:1005760006A9077B01900D07EBF0A3EAF0A3E9F0CB
:10058600900D0AE4F0A3740FF0D001D002D003124C
:100596006532900D37E0FEA3E0FFEF240CFFEE344A
:1005A60000FEAA06A9077B01C003C002C001900D88
:1005B60037E0FEA3E0FFEF2418FFEE3400FEAA06A4
:1005C600A9077B01900CF8EBF0A3EAF0A3E9F09001
:1005D6000D37E0FEA3E0FF8F828E83E5822406F5C9
:1005E60082E5833400F583E0FEA3E0FF900CFBEE8A
:1005F600F0A3EFF0900D37E0FEA3E0FF8F828E832D
:10060600E5822408F582E5833400F583E0FEA3E065
:10061600FF900CFDEEF0A3EFF0900D37E0FEA3E0A7
:10062600FF8F828E83E582240AF582E5833400F506
:1006360083E0FEA3E0FF900CFFEEF0A3EFF0900D39
:1006460037E0FEA3E0FFAA06A9077B01900D01EBA8
:10065600F0A3EAF0A3E9F0D001D002D0031254CB04
:0B0666009009F9E0FF7D0012943E2295
:10067100900D35E0FF900A29EFF0900D34E0FF90E6
:0F0681000A2AEFF0900A08E0FF7D0012943E2253
:10069000900D30E0FBA3E0FAA3E0F9E92406F9EAC3
:1006A0003400FAAE02AF01900D37EEF0A3EFF090F8
:1006B0000D35E0FF900A01EFF0900D34E0FF900A55
:1006C00002EFF0900D37E0FEA3E0FF8F828E83E013
:0F06D000FF1296AA9009DCE0FF7D0012943E22F3
:1006DF00900D30E0FBA3E0FAA3E0F9E92406F9EA74
:1006EF003400FAAE02AF01900D37EEF0A3EFF090A9
:1006FF000D35E0FF900A11EFF0900D34E0FF900AF6
:10070F0012EFF0900D37E0FEA3E0FFAA06A9077BDA
:10071F0001127DC6900D37E0FEA3E0FFEF2402FF2C
:10072F00EE3400FEAA06A9077B01127DC6900D3795
:10073F00E0FEA3E0FFEF2406FFEE3400FEAA06A9B9
:10074F00077B01127DC6900D37E0FEA3E0FF8F827D
:10075F008E83E0FEA3E0FFC006C007900D37E0FEDA
:10076F00A3E0FF8F828E83A3A3E0FCA3E0FD900D97
:10077F0037E0FEA3E0FF8F828E83E5822404F582AB
:10078F00E5833400F583E0FB900D37E0FEA3E0FF37
:10079F008F828E83E5822405F582E5833400F5830D
:1007AF00E0FF900E26EFF0D007D0061290CA900D02
:1007BF0037E0FEA3E0FF8F828E83E5822406F58269
:1007CF00E5833400F583E0FEA3E0FF9009FAEEF035
:0E07DF00A3EFF09009EFE0FF7D0012943E22A0
:1007ED00900D35E0FF9009E1EFF0900D34E0FF90B2
:1007FD0009E2EFF07F00129F629009C7E0FF7D00D4
:10080D0012943E22900D35E0FF900A1BEFF0900DF3
:10081D0034E0FF900A1CEFF0900A00E0FF7D00121B
:10082D00943E22900D35E0FF9009CDEFF0900D3400
:10083D00E0FF9009CEEFF0900A45E0FF7D001294A5
:02084D003E2249
:10084F00900D30E0FBA3E0FAA3E0F9E92406F9EA02
:10085F003400FAAE02AF01900D37EEF0A3EFF09037
:10086F000D35E0FF900A37EFF0900D34E0FF900A5E
:10087F0038EFF0900D37E0FEA3E0FFAA06A9077B43
:10088F0001127DC6900D37E0FEA3E0FF8F828E83AD
:10089F00E0FEA3E0FF129566900A1AE0FF7D0012BA
:0308AF00943E2252
:1008B200900D35E0FF9009FCEFF0900D34E0FF90D1
:1008C20009FDEFF09009D7E0FF7D0012943E2290DF
:1008D2000D35E0FF9009E4EFF0900D34E0FF900950
:0E08E200E5EFF09009C9E0FF7D0012943E2280
:1008F000900D30E0FBA3E0FAA3E0F9E92406F9EA61
:100900003400FAAE02AF01900D37EEF0A3EFF09095
:100910000D37E0FEA3E0FF8F828E83E0FF1290345C
:10092000900D35E0FF9009F7EFF0900D34E0FF9067
:0F09300009F8EFF09009D4E0FF7D0012943E2209
:10093F00900D30E0FBA3E0FAA3E0F9E92406F9EA11
:10094F003400FAAE02AF01900D37EEF0A3EFF09046
:10095F000D37E0FEA3E0FFAA06A9077B01127DC6B3
:10096F00900D37E0FEA3E0FFEF2403FFEE3400FE0F
:10097F00AA06A9077B01127DC6900D37E0FEA3E002
:10098F00FFEF2405FFEE3400FEAA06A9077B011234
:10099F007DC6900D37E0FEA3E0FF8F828E83E0FED1
:1009AF00A3E0FFC006C007900D37E0FEA3E0FF8F66
:1009BF00828E83A3A3E0FD900D37E0FEA3E0FF8FAF
:1009CF00828E83A3A3A3E0FAA3E0FB900D37E0FE92
:1009DF00A3E0FF8F828E83E5822405F582E58334C1
:1009EF0000F583E0FEA3E0FF900DE7EEF0A3EFF03C
:1009FF00D007D006125917900D35E0FF900A3AEF45
:100A0F00F0900D34E0FF900A3BEFF0900A1DE0FFED
:060A1F007D0012943E224E
:100A2500900D35E0FF900A17EFF0900D34E0FF9040
:100A35000A18EFF09009FFE0FF7D0012943E229026
:100A45000D35E0FF9009E6EFF0900D34E0FF9009D9
:100A5500E7EFF09009CCE0FF7D0012943E22900D67
:100A650035E0FF900A03EFF0900D34E0FF900A04A3
:100A7500EFF09009DDE0FF7D0012943E22900D35E8
:100A8500E0FF900A40EFF0900D34E0FF900A41EF4F
:0C0A9500F0900A2BE0FF7D0012943E223E
:100AA100900D30E0FBA3E0FAA3E0F9E92406F9EAAE
:100AB1003400FAAE02AF01900D37EEF0A3EFF090E3
:100AC1000D39E4F0900D35E0FF900A1FEFF0900D25
:100AD10034E0FF900A20EFF0900D37E0FEA3E0FF35
:100AE1008F828E83E0FF900A21EFF0900D37E0FEB8
:100AF100A3E0FF8F828E83A3E0FF900A22EFF090A4
:100B01000A237401F0900A05E0FF129C6A900D39E6
:100B1100EFF0900D39E0FFEF64027003020DE690F3
:100B21000D39E0FFEF64037003020DE6900A05E062
:070B3100FF7D0012943E223B
:100B3800900D30E0FBA3E0FAA3E0F9E92406F9EA16
:100B48003400FAAE02AF01900D37EEF0A3EFF0904B
:100B58000D35E0FF900A35EFF0900D34E0FF900A74
:100B680036EFF0900D37E0FEA3E0FFEF2401FFEE33
:100B78003400FEAA06A9077B01127DC6900D37E056
:100B8800FEA3E0FF8F828E83E0FF900D37E0FCA389
:100B9800E0FD8D828C83A3E0FCA3E0FD12964090DB
:0A0BA8000A19E0FF7D0012943E22BE
:100BB200900D3774C8F0900D387488F0900D39E4B8
:100BC200F07B017A0D7937900D35E0FF900CC9EF7B
:100BD200F0900CCA7403F0900D34E0FF900CCBEF50
:100BE200F0900CCC7401F0900CCDE4F07D037C000D
:100BF200122890EF70CB7F0F7E0012994E75EF0294
:010C020022CF
:100C0300900D30E0FBA3E0FAA3E0F9E92406F9EA4A
:100C13003400FAAE02AF01900D37EEF0A3EFF0907F
:100C23000D35E0FF9009D5EFF0900D34E0FF90090A
:100C3300D6EFF0900D37E0FEA3E0FF8F828E83E0C6
:100C4300FF9009F2EFF09009B6E0FF7D0012943EA9
:010C5300227E
:100C5400900D30E0FBA3E0FAA3E0F9E92406F9EAF9
:100C64003400FAAE02AF01900D37EEF0A3EFF0902E
:100C74000D35E0FF900A0FEFF0900D34E0FF900A7D
:100C840010EFF0900D37E0FEA3E0FFEF2401FFEE3C
:100C94003400FEAA06A9077B01127DC6900D37E039
:100CA400FEA3E0FFEF2403FFEE3400FEAA06A9072B
:100CB4007B01127DC6900D37E0FEA3E0FFEF240513
:100CC400FFEE3400FEAA06A9077B01127DC6900D33
:100CD40037E0FEA3E0FF8F828E83E0FFC007900D14
:100CE40037E0FEA3E0FF8F828E83A3E0FCA3E0FD48
:100CF400900D37E0FEA3E0FF8F828E83A3A3A3E0D1
:100D0400FAA3E0FB900D37E0FEA3E0FF8F828E8311
:100D1400E5822405F582E5833400F583E0FEA3E053
:100D2400FF900DB4EEF0A3EFF0D007126D219009FF
:090D3400EEE0FF7D0012943E2266
:100D3D00900D30E0FBA3E0FAA3E0F9E92406F9EA0F
:100D4D003400FAAE02AF01900D37EEF0A3EFF09044
:100D5D000D39E4F0900D35E0FF900A46EFF0900D5F
:100D6D0034E0FF900A47EFF0900D37E0FEA3E0FF6F
:100D7D00AA06A9077B01126446900D39EFF0900D7C
:100D8D0039E0FFEF60047F0080027F01900A48EF99
:0C0D9D00F0900A2DE0FF7D0012943E2231
:100DA900900D35E0FF900A3CEFF0900D34E0FF9094
:100DB9000A3DEFF0900A1EE0FF7D0012943E22905A
:100DC9000D35E0FF900A33EFF0900D34E0FF900A03
:0D0DD90034EFF0900A16E0FF7D0012943E0A
:010DE60022EA
:0B44E400900D74EBF0A3EAF0A3E9F0E8
:1044EF00900D74E0FBA3E0FAA3E0F97582027583E7
:1044FF0000121253FF900D79EFF0900D74E0FBA3B3
:10450F00E0FAA3E0F9758203758300121253FF904E
:10451F000D7AEFF0900D74E0FBA3E0FAA3E0F975CC
:10452F008205758300121253FF900D77EFF0900DF7
:10453F0074E0FBA3E0FAA3E0F9758204758300121F
:10454F001253FF900D78EFF0900D7AE0FFEFB4016A
:10455F0014900D74E0FBA3E0FAA3E0F9900D7AE05C
:10456F00FD125E5322900D77E0FFEF12173E45DDEF
:0B457F00CA4628CC458AD800004697A9
:10458A00900D74E0FBA3E0FAA3E0F9E92406F9EA46
:10459A003400FAAE02AF01900D7BEEF0A3EFF0907B
:1045AA000D7BE0FEA3E0FFEF2401FFEE3400FEAA3C
:1045BA0006A9077B01127DC6900D7BE0FEA3E0FFF2
:1045CA008F828E83A3E0FEA3E0FF900A0DEEF0A394
:0345DA00EFF022DD
:1045DD00900D74E0FBA3E0FAA3E0F9E92406F9EAF3
:1045ED003400FAAE02AF01900D7BEEF0A3EFF09028
:1045FD000D7BE0FEA3E0FF8F828E83E0FF900D7BAD
:10460D00E0FCA3E0FD8D828C83E5822404F582E538
:0B461D00833400F583E0FD129B7A223D
:10462800900D74E0FBA3E0FAA3E0F9E92406F9EAA7
:104638003400FAAE02AF01900D7BEEF0A3EFF090DC
:104648000D7BE0FEA3E0FFAA06A9077B01C003C01B
:1046580002C001900D7BE0FEA3E0FFAA06A9077B3C
:1046680001900D07EBF0A3EAF0A3E9F0900D0AE43E
:10467800F0A37406F0D001D002D003126532900D79
:0F4688007BE0FEA3E0FFAA06A9077B01128C6F5F
:014697002200
:058EB600900F61EFF0D8
:108EBB00900F627401F07B017A0F79629009D0E018
:108ECB00FF900CC9EFF0900CCA7403F09009D1E03D
:108EDB00FF900CCBEFF0900CCC7401F0900CCDE428
:108EEB00F07D017C00122890EF70067FFF1294B882
:098EFB0022900F61E0FF12952E98
:018F0400224A
:0582B400900E8EEFF0BA
:1082B900900E8F74C8F0900E90748BF0900E91E42C
:1082C900F07B017A0E798F9009D5E0FF900CC9EF08
:1082D900F0900CCA7403F09009D6E0FF900CCBEF34
:1082E900F0900CCC7401F0900CCDE4F07D037C008F
:1082F900122890EF70067FFF1294B822900E8EE03C
:04830900FF12952E9C
:01830D00224D
:05830E00900E92EFF05B
:10831300900E9374C8F0900E947498F0900E95E4B8
:10832300F07B017A0E79939009F0E0FF900CC9EF8E
:10833300F0900CCA7403F09009F1E0FF900CCBEFBE
:10834300F0900CCC7401F0900CCDE4F07D037C0034
:10835300122890EF70067FFF1294B822900E92E0DD
:04836300FF12952E42
:0183670022F3
:05836800900E96EFF0FD
:10836D00900E9774C8F0900E987476F0900E99E474
:10837D00F07B017A0E7997900A49E0FF900CC9EFD6
:10838D00F0900CCA7403F0900A4AE0FF900CCBEF0A
:10839D00F0900CCC7401F0900CCDE4F07D037C00DA
:1083AD00122890EF70067FFF1294B822900E96E07F
:0483BD00FF12952EE8
:0183C1002299
:0583C200900E9AEFF09F
:1083C700900E9B74C8F0900E9C74A2F0900E9DE4E2
:1083D700F07B017A0E799B9009E1E0FF900CC9EFE1
:1083E700F0900CCA7403F09009E2E0FF900CCBEF19
:1083F700F0900CCC7401F0900CCDE4F07D037C0080
:10840700122890EF70067FFF1294B822900E9AE020
:04841700FF12952E8D
:01841B00223E
:05890800900E5AEFF093
:10890D00900E5B74DAF07B017A0E795C125C417B20
:10891D00017A0E795B9009ECE0FF900CC9EFF090B5
:10892D000CCA7403F09009EDE0FF900CCBEFF090C2
:10893D000CCC7401F0900CCDE4F07D047C00122879
:10894D0090EF70067FFF1294B822900E5AE0FF123E
:02895D00952E55
:01895F0022F5
:05726100900C01EFF0AC
:10726600900C0274EFF07B017A0C79037D087F00A5
:1072760012797E7B017A0C79137D177F001275CC0B
:107286007B017A0C7903C003C002C0017B017A0C32
:107296007903900D07EBF0A3EAF0A3E9F0900D0A4D
:1072A600E4F0A37420F0D001D002D0031265327B43
:1072B600017A0C79029009CAE0FF900CC9EFF090B0
:1072C6000CCA7403F09009CBE0FF900CCBEFF09062
:1072D6000CCC7401F0900CCDE4F07D417C001228BA
:1072E60090EF70067FFF1294B822900C01E0FF1217
:0272F600952ED3
:0172F8002273
:05896000900D9FEFF0F7
:10896500900DA074D9F07B017A0D79A11295D47B75
:10897500017A0D79A0900A2FE0FF900CC9EFF090D5
:108985000CCA7403F0900A30E0FF900CCBEFF09026
:108995000CCC7401F0900CCDE4F07D077C0012281E
:1089A50090EF70067FFF1294B822900D9FE0FF12A2
:0289B500952EFD
:0189B700229D
:05841C00900E9EEFF040
:10842100900E9F74C8F0900EA0747FF0900EA1E49E
:10843100F07B017A0E799F9009DEE0FF900CC9EF85
:10844100F0900CCA7403F09009DFE0FF900CCBEFC1
:10845100F0900CCC7401F0900CCDE4F07D037C0025
:10846100122890EF70067FFF1294B822900E9EE0C2
:04847100FF12952E33
:0184750022E4
:05847600900EA2EFF0E2
:10847B00900EA374C8F0900EA47480F0900EA5E437
:10848B00F07B017A0E79A39009BCE0FF900CC9EF49
:10849B00F0900CCA7403F09009BDE0FF900CCBEF89
:1084AB00F0900CCC7401F0900CCDE4F07D037C00CB
:1084BB00122890EF70067FFF1294B822900EA2E064
:0484CB00FF12952ED9
:0184CF00228A
:05813A00900EA6EFF01D
:10813F00900EA774DFF012A07F900EA8EFF012A0A0
:10814F0079900EA9EFF07B017A0E79A7900A0BE0D8
:10815F00FF900CC9EFF0900CCA7403F0900A0CE07A
:10816F00FF900CCBEFF0900CCC7401F0900CCDE4A1
:10817F00F07D037C00122890EF70067FFF1294B8F9
:09818F0022900EA6E0FF12952ECD
:0181980022C4
:0584D000900EAAEFF080
:1084D500900EAB74C8F0900EAC746AF0900EADE4DB
:1084E500F07B017A0E79AB9009E8E0FF900CC9EFBB
:1084F500F0900CCA7403F09009E9E0FF900CCBEF03
:10850500F0900CCC7401F0900CCDE4F07D037C0070
:10851500122890EF70067FFF1294B822900EAAE001
:04852500FF12952E7E
:01852900222F
:05852A00900EAEEFF021
:10852F00900EAF74C8F0900EB0746BF0900EB1E473
:10853F00F07B017A0E79AF9009D8E0FF900CC9EF6C
:10854F00F0900CCA7403F09009D9E0FF900CCBEFB8
:10855F00F0900CCC7401F0900CCDE4F07D037C0016
:10856F00122890EF70067FFF1294B822900EAEE0A3
:04857F00FF12952E24
:0185830022D5
:058A6800900F20EFF06B
:108A6D00900F2174CFF012A091900F22EFF07B01A7
:108A7D007A0F7921900A06E0FF900CC9EFF0900C67
:108A8D00CA7403F0900A07E0FF900CCBEFF0900C46
:108A9D00CC7401F0900CCDE4F07D027C0012289096
:108AAD00EF70067FFF1294B822900F20E0FF129511
:018ABD002E8A
:018ABE002295
:0589B800900D3AEFF004
:1089BD00900D3B74EBF07B017A0D793C128F9E7B11
:1089CD00017A0D793B900A42E0FF900CC9EFF090CF
:1089DD000CCA7403F0900A43E0FF900CCBEFF090BB
:1089ED000CCC7401F0900CCDE4F07D097C001228C4
:1089FD0090EF70067FFF1294B822900D3AE0FF12AF
:028A0D00952EA4
:018A0F002244
:05776500900C43EFF061
:10776A00900C4474ECF07B017A0C7945124C417B05
:10777A00017A0C7945C003C002C0017B017A0C79F9
:10778A0045900D13EBF0A3EAF0A3E9F0900D16E48F
:10779A00F0A37409F0D001D002D003124AE47B01AD
:1077AA007A0C79449009B7E0FF900CC9EFF0900C7D
:1077BA00CA7403F09009B8E0FF900CCBEFF0900C7C
:1077CA00CC7401F0900CCDE4F07D257C0012289059
:1077DA00EF70067FFF1294B822900C43E0FF1295D7
:0177EA002E70
:0177EB00227B
:05858400900EB2EFF0C3
:10858900900EB374C8F0900EB4747CF0900EB5E4FC
:10859900F07B017A0E79B3900A09E0FF900CC9EFDC
:1085A900F0900CCA7403F0900A0AE0FF900CCBEF2C
:1085B900F0900CCC7401F0900CCDE4F07D037C00BC
:1085C900122890EF70067FFF1294B822900EB2E045
:0485D900FF12952ECA
:0185DD00227B
:0585DE00900EB6EFF065
:1085E300900EB774C8F0900EB8747DF0900EB9E495
:1085F300F07B017A0E79B7900A14E0FF900CC9EF73
:10860300F0900CCA7403F0900A15E0FF900CCBEFC6
:10861300F0900CCC7401F0900CCDE4F07D037C0061
:10862300122890EF70067FFF1294B822900EB6E0E6
:04863300FF12952E6F
:018637002220
:0574B300900CD7EFF082
:1074B800900CD874DDF012A09D900CD9EFF07B01F0
:1074C8007A0C79DA128CC4782776007827E6FFEFF1
:1074D800C39406501F7827E6FF7E02EF8EF0A4FFC4
:1074E800AEF074DA2FF9740C3EFA7B01127DC6787F
:1074F800270680D77B017A0C79D8900A29E0FF907B
:107508000CC9EFF0900CCA7403F0900A2AE0FF90BF
:107518000CCBEFF0900CCC7401F0900CCDE4F07D26
:107528000E7C00122890EF70067FFF1294B822900C
:077538000CD7E0FF12952EB5
:01753F002229
:05863800900EBAEFF006
:10863D00900EBB74C8F0900EBC746DF0900EBDE43E
:10864D00F07B017A0E79BB900A01E0FF900CC9EF27
:10865D00F0900CCA7403F0900A02E0FF900CCBEF7F
:10866D00F0900CCC7401F0900CCDE4F07D037C0007
:10867D00122890EF70067FFF1294B822900EBAE088
:04868D00FF12952E15
:0186910022C6
:05869200900EBEEFF0A8
:10869700900EBF74C8F0900EC0746EF0900EC1E4D7
:1086A700F07B017A0E79BF900A11E0FF900CC9EFB9
:1086B700F0900CCA7403F0900A12E0FF900CCBEF15
:1086C700F0900CCC7401F0900CCDE4F07D037C00AD
:1086D700122890EF70067FFF1294B822900EBEE02A
:0486E700FF12952EBB
:0186EB00226C
:057AFA00900E09EFF001
:107AFF00900E0EE4F0900E0A74D0F012A085900E46
:107B0F000BEFF0129974900E0CEFF0129ABA900ED0
:107B1F000DEFF0900E0DE0FFEF6006900E0EE004FB
:107B2F00F07B017A0E790A900A1BE0FF900CC9EFE7
:107B3F00F0900CCA7403F0900A1CE0FF900CCBEF8E
:107B4F00F0900CCC7401F0900CCDE4F07D047C002F
:107B5F00122890EF70067FFF1294B822900E09E062
:047B6F00FF12952E3E
:017B730022EF
:05605C00900C83EFF041
:10606100900C8474F4F012A03A900C85EEF0A3EF3A
:10607100F07B017A0C7985127DC6129F72900C8794
:10608100EEF0A3EFF07B017A0C7987127DC612A0A6
:1060910043900C89EEF0A3EFF07B017A0C79891221
:1060A1007DC612A01F900C8BEEF0A3EFF07B017A5E
:1060B1000C798B127DC612A004900C8DEEF0A3EF2B
:1060C100F07B017A0C798D127DC612A028900C8F7D
:1060D100EEF0A3EFF07B017A0C798F127DC6129F4F
:1060E10081900C911216B77B017A0C79911267D8C5
:1060F100129F90900C951216B77B017A0C7995122C
:1061010067D812A031900C99EEF0A3EFF07B017AE1
:106111000C7999127DC67B017A0C79849009CDE0C6
:10612100FF900CC9EFF0900CCA7403F09009CEE017
:10613100FF900CCBEFF0900CCC7401F0900CCDE4FF
:10614100F07D177C00122890EF70067FFF1294B843
:0961510022900C83E0FF12952E50
:01615A002222
:0586EC00900EC2EFF04A
:1086F100900EC374C8F0900EC47470F0900EC5E46F
:10870100F07B017A0E79C3900A37E0FF900CC9EF34
:10871100F0900CCA7403F0900A38E0FF900CCBEF94
:10872100F0900CCC7401F0900CCDE4F07D037C0052
:10873100122890EF70067FFF1294B822900EC2E0CB
:04874100FF12952E60
:018745002211
:058ABF00900F23EFF011
:108AC400900F2474D3F012A097900F25EFF07B0140
:108AD4007A0F79249009FCE0FF900CC9EFF0900C18
:108AE400CA7403F09009FDE0FF900CCBEFF0900CFA
:108AF400CC7401F0900CCDE4F07D027C001228903F
:108B0400EF70067FFF1294B822900F23E0FF1295B6
:018B14002E32
:018B1500223D
:058B1600900F26EFF0B6
:108B1B00900F2774E8F012A0AF900F28EFF07B01B5
:108B2B007A0F79279009E4E0FF900CC9EFF0900CD5
:108B3B00CA7403F09009E5E0FF900CCBEFF0900CBA
:108B4B00CC7401F0900CCDE4F07D027C00122890E7
:108B5B00EF70067FFF1294B822900F26E0FF12955C
:018B6B002EDB
:018B6C0022E6
:056FDB00900DA7EFF08E
:106FE000900DA874E5F0900DA97415F0900DAAE429
:106FF000F07D007F0A1281F8EF5401FF900DABEF96
:10700000F07D007F0A1281F8EF7803CEC313CE1310
:10701000D8F9FF900DACEFF07D017F0A1281F8EFF7
:107020005401FF900DADEFF07D017F0A1281F8EF62
:107030007803CEC313CE13D8F9FF900DAEEFF07BDB
:10704000017A0D79A8900A03E0FF900CC9EFF09047
:107050000CCA7403F0900A04E0FF900CCBEFF090A0
:107060000CCC7401F0900CCDE4F07D077C0012286C
:1070700090EF70067FFF1294B822900DA7E0FF12E8
:02708000952E4B
:0170820022EB
:057D5100900EC6EFF0EA
:107D5600900EC774F1F07B017A0E79C8C003C00299
:107D6600C0017B017A0E79C9900E00EBF0A3EAF010
:107D7600A3E9F0D001D002D0031296767B017A0EE9
:107D860079C7900A40E0FF900CC9EFF0900CCA74D6
:107D960003F0900A41E0FF900CCBEFF0900CCC740E
:107DA60001F0900CCDE4F07D037C00122890EF707A
:0F7DB600067FFF1294B822900EC6E0FF12952EA2
:017DC500229B
:05874600900ECAEFF0E7
:10874B00900ECB74C8F0900ECC7464F0900ECDE408
:10875B00F07B017A0E79CB9009F7E0FF900CC9EF13
:10876B00F0900CCA7403F09009F8E0FF900CCBEF7B
:10877B00F0900CCC7401F0900CCDE4F07D037C00F8
:10878B00122890EF70067FFF1294B822900ECAE069
:04879B00FF12952E06
:01879F0022B7
:0587A000900ECEEFF089
:1087A500900ECF74C8F0900ED07465F0900ED1E4A1
:1087B500F07B017A0E79CF900A3AE0FF900CC9EF71
:1087C500F0900CCA7403F0900A3BE0FF900CCBEFDD
:1087D500F0900CCC7401F0900CCDE4F07D037C009E
:1087E500122890EF70067FFF1294B822900ECEE00B
:0487F500FF12952EAC
:0187F900225D
:0572F900900DD4EFF040
:1072FE007B017A0D79D6C003C002C0017B017A0DE5
:10730E0079D8900D89EBF0A3EAF0A3E9F07B017A2E
:10731E000D79DA900D8CEBF0A3EAF0A3E9F0D00131
:10732E00D002D003128D19900DD574C9F07B017A5D
:10733E000D79D6127DC67B017A0D79D8127DC67B6A
:10734E00017A0D79D5900A17E0FF900CC9EFF090F5
:10735E000CCA7403F0900A18E0FF900CCBEFF0907B
:10736E000CCC7401F0900CCDE4F07D067C0012285C
:10737E0090EF70067FFF1294B822900DD4E0FF12AA
:02738E00952E3A
:0173900022DA
:0577EC00900E0FEFF00C
:1077F1007B017A0E7911C003C002C0017B017A0EB0
:107801007913900E1EEBF0A3EAF0A3E9F0D001D0BA
:1078110002D003129400900E1074F5F07B017A0EE1
:107821007911127DC67B017A0E7913127DC67B0117
:107831007A0E79109009E6E0FF900CC9EFF0900CF8
:10784100CA7403F09009E7E0FF900CCBEFF0900CC5
:10785100CC7401F0900CCDE4F07D057C00122890F1
:10786100EF70067FFF1294B822900E0FE0FF129581
:017871002EE8
:0178720022F3
:055A2600900ED2EFF02C
:105A2B00900ED2E0FFEF12173E5A44005A84015AEF
:105A3B00B7025AD80300005B2E900A23E0FFEFB4A5
:105A4B000112900A247401F0900A23E4F07D007F88
:105A5B0010124EF2900A21E0FFEF6017900A22E03D
:105A6B00FF127B74EF70067F0112952E227F0012BE
:105A7B00952E227F0312952E22129CBEEFB40306A5
:105A8B007F0112952E22900A24E0FFEF600B7F031B
:105A9B0012952E900A24E4F0227B017A0A79257D57
:105AAB00647C001291A47F0212952E227B017A0A4C
:105ABB007925128BC3EF7009900A23E0FFEFB40135
:0D5ACB00067F0012952E227F0212952E22DA
:105AD800900A21E0FD7F10124EF2900ED374C8F0A8
:105AE800900ED47490F0900ED5E4F07B017A0E7984
:105AF800D3900A1FE0FF900CC9EFF0900CCA740312
:105B0800F0900A20E0FF900CCBEFF0900CCC7401E1
:105B1800F0900CCDE4F07D037C00122890EF600B30
:065B28007F0312952E22FE
:055B2E007F0012952E1E
:015B3300224F
:056A3300900F94EFF04C
:106A3800900F94E0FFEF12173E6A4B006A7801004E
:106A4800006AF47F19129232EF70087F1A1292329C
:106A5800EF60177B017A0979F39009FAE0FCA3E06B
:106A6800FD1291EB7F0112952E227F0012952E22A6
:106A78007F19129232EF70087F1A129232EF606714
:106A8800900A31E0FEA3E0FF900A0DE0FCA3E0FDD0
:106A9800C3ED9FFFEC9EFE1296DEC3EF9405EE94C5
:106AA80000502E7B017A0979F3128C19EF601C7D56
:106AB800007F1A124EF27D007F19124EF27F0112EA
:106AC8009F6212A0547F0012952E227F0112952EEC
:106AD80022900A0DE0FEA3E0FF900A31EEF0A3EF4A
:0C6AE800F07F0012952E227F0012952EE8
:016AF400227F
:056C6B00900F29EFF07D
:106C7000900F29E0FFEF12173E6C86006CA2016DA9
:106C8000090200006D207F19129232EF70087F1AFE
:106C9000129232EF60067F0112952E227F0012952C
:106CA0002E227F19129232EF70087F1A129232EF61
:106CB0006051900F2A7499F0900F2B7480F07B0133
:106CC0007A0F792A900CC97404F0900CCA7403F0FE
:106CD000900CCBE4F0900CCCE4F0900CCD7401F06F
:106CE0007D027C00122890EF70137B017A0979BE37
:106CF0007D647C001291A47F0212952E227F0112E6
:106D0000952E227F0012952E227B017A0979BE12E0
:106D10008BC3EF60067F0012952E227F0212952E04
:016D20002250
:0587FA00900ED6EFF027
:1087FF00900ED774C8F0900ED87491F0900ED9E403
:10880F00F07B017A0E79D7900A35E0FF900CC9EF13
:10881F00F0900CCA7403F0900A36E0FF900CCBEF87
:10882F00F0900CCC7401F0900CCDE4F07D037C0043
:10883F00122890EF70067FFF1294B822900ED6E0A8
:04884F00FF12952E51
:018853002202
:05819900900EDAEFF08A
:10819E00900EDB74C8F0900EDC748EF0900A48E0FE
:1081AE00FF900EDDEFF07B017A0E79DB900A46E050
:1081BE00FF900CC9EFF0900CCA7403F0900A47E0E0
:1081CE00FF900CCBEFF0900CCC7401F0900CCDE442
:1081DE00F07D037C00122890EF70067FFF1294B89A
:0981EE0022900EDAE0FF12952E3A
:0181F7002265
:058A1000900E15EFF0CF
:108A1500900E1674F0F07B017A0E7917128FE97BB0
:108A2500017A0E7916900A3CE0FF900CC9EFF090A0
:108A35000CCA7403F0900A3DE0FF900CCBEFF09068
:108A45000CCC7401F0900CCDE4F07D057C0012286F
:108A550090EF70067FFF1294B822900E15E0FF127A
:028A6500952E4C
:018A670022EC
:05885400900EDEEFF0C4
:10885900900EDF74C8F0900EE07495F0900EE1E48C
:10886900F07B017A0E79DF9009BAE0FF900CC9EF2D
:10887900F0900CCA7403F09009BBE0FF900CCBEFA9
:10888900F0900CCC7401F0900CCDE4F07D037C00E9
:10889900122890EF70067FFF1294B822900EDEE046
:0488A900FF12952EF7
:0188AD0022A8
:0588AE00900EE2EFF066
:1088B300900EE374C8F0900EE47497F0900EE5E424
:1088C300F07B017A0E79E3900A0FE0FF900CC9EF79
:1088D300F0900CCA7403F0900A10E0FF900CCBEFF9
:1088E300F0900CCC7401F0900CCDE4F07D037C008F
:1088F300122890EF70067FFF1294B822900EE2E0E8
:04890300FF12952E9C
:01890700224D
:108E6500900F95EFF0900F95E4F07F0012952E7D11
:108E7500F47C017FFF126AF59009F2E0FFEF703094
:108E85009009EBE0FFEF7001227B017A0979C312AB
:108E95008BC3EF601B7D007F1A124EF27D007F1998
:108EA500124EF27F001296AA7F0012999A12A054D0
:018EB500229A
:05712600900C69EFF080
:10712B00900C6A74F7F07B017A0C796B7D037F000E
:10713B0012797E7B017A0C79737D00125B347B01B3
:10714B007A0C797B7D01125B347B017A0C796BC0F5
:10715B0003C002C0017B017A0C796B900D07EBF039
:10716B00A3EAF0A3E9F0900D0AE4F0A3740CF0D0BD
:10717B0001D002D0031265327B017A0C796A900A36
:10718B0033E0FF900CC9EFF0900CCA7403F0900A37
:10719B0034E0FF900CCBEFF0900CCC7401F0900C22
:1071AB00CDE4F07D197C00122890EF70067FFF1262
:0B71BB0094B822900C69E0FF12952EA2
:0171C60022A6
:1096DE00900F63EEF0A3EFF0900F63E0FEA3E0FFB8
:1096EE00C3EE648094805011900F63E0FEA3E0FF00
:1096FE00C3E49FFFE49EFE8008900F63E0FEA3E0AC
:02970E00FF2238
:109E2600539EFC439E01539EF3439E04439E8043F0
:039E3600E18022A6
:109E3900539FFC439F01539FF3439F04439F8043D8
:039E4900E2012211
:109CA20075B5FF1297107D007F08124EF27BFF7A86
:0C9CB2007F791E12806F900CF4EFF022FE
:0A4EF200900EE6EFF0900EE7EDF0F1
:104EFC00900EE6E0FF129E70900EE8EFF0900EE63A
:104F0C00E0FFEF5407FF7401A807088002C333D8F1
:104F1C00FCFF900EE9EFF0900EE6E0FFEF641A60F4
:104F2C0009900EE6E0FFEFB41914900EE7E0FFEFE6
:104F3C00600C12A08BEF60067F011296AA22900ED5
:104F4C00E8E0FFEFD394054003025047900EE7E0F2
:104F5C00FFEF6025900EE8E0FF74EC2FF582E4344F
:104F6C000CF583C083C082E0FF900EE9E0FEEF4EAB
:104F7C00FFD082D083EFF08026900EE8E0FF74EC37
:104F8C002FF582E4340CF583C083C082E0FF900ED1
:104F9C00E9E0FEEEF4FEEF5EFFD082D083EFF090FE
:104FAC000EE8E0FFEF12173E4FCA004FDE014FF242
:104FBC0002500603501A0450310500005047900E61
:104FCC00E8E0FF74EC2FF582E4340CF583E0FF8FFE
:104FDC008422900EE8E0FF74EC2FF582E4340CF59B
:104FEC0083E0FF8F8522900EE8E0FF74EC2FF582B2
:104FFC00E4340CF583E0FF8F8622900EE8E0FF741A
:10500C00EC2FF582E4340CF583E0FF8F9622900EA2
:10501C00E8E0FF74EC2FF582E4340CF583E0FD7FBF
:10502C00A412933F22900EE8E0FF74EC2FF582E47B
:0B503C00340CF583E0FD7FAA12933FC7
:015047002246
:05923200900F65EFF054
:10923700900F65E0FFEF5407FF7401A8070880024D
:10924700C333D8FCFF900F66EFF0900F65E0FF1275
:109257009E7074EC2FF582E4340CF583E0FF900FD9
:0E92670066E0FEEF5EFFEF60037F01227F00F6
:0192750022D6
:10971000758400758500758600759600782876003A
:109720007828E6FFEFC3940650157828E6FF74EC1E
:0F9730002FF582E4340CF583E4F078280680E10D
:01973F002207
:109E7000900F96EFF0900F96E0FFEF131313541F1F
:029E8000FF22BF
:1095D400900F2CEBF0A3EAF0A3E9F07B017A0C796D
:1095E400ECC003C002C001900F2CE0FBA3E0FAA37F
:1095F400E0F9A801AC02AD03D001D002D0037E0093
:069604007F061212142281
:107E3A00900E5FEEF0A3EFF0900E61ECF0A3EDF080
:107E4A00900E63EBF0900E63E0FFEF701D900E63EF
:107E5A00E0FD7F02124EF2900E63E0FD7F03124EA8
:107E6A00F2900CF4E0FF1294B822900E5FE0FEA3A9
:107E7A00E0FF900CEAEEF0A3EFF0900E61E0FEA3B3
:107E8A00E0FF900CE6EEF0A3EFF0900E63E0FD7FCA
:107E9A0002124EF2900CF4E0FF900E63E0FD129491
:027EAA003E2276
:109A7700900F2FEBF0A3EAF0A3E9F07F081292FE14
:109A8700900F2FE0FBA3E0FAA3E0F9EE8FF012149A
:029A97004C225F
:10940000900E1BEBF0A3EAF0A3E9F0900CF2E0FE63
:10941000A3E0FF900E1BE0FBA3E0FAA3E0F9EE8FC0
:10942000F012144C900CE8E0FEA3E0FF900E1EE05A
:0E943000FBA3E0FAA3E0F9EE8FF012144C2239
:107F1E00900F97EFF0900F97E0FFEF60327B017AB2
:107F2E000C79F2129A77900F97E0FD7F03124EF2C2
:107F3E00900F97E0FFEF70047F0180027F00129593
:107F4E002E900CEAE0FCA3E0FD7FFF126AF5227B87
:107F5E00017A0C79E8129A77900F97E0FD7F031261
:107F6E004EF2900F97E0FFEF70047F0180027F00CA
:107F7E0012952E900CE6E0FCA3E0FD7FFF126AF551
:017F8E0022D0
:1097400001020202020203030303030303030000F6
:10975000040404040505050580081020408001026A
:10976000040810204080408001020408010204081F
:109D420053BD7F53A57F43908053A43F53E37F438A
:099D520080C053A60775A700228A
:05469800900EEAEFF0B6
:10469D00900EEAE0FFEF90974093FF900EEDEFF054
:1046AD00900EEDE0FFEF12173E46CC004703014799
:1046BD003A0247710347A80447D705000048049004
:1046CD000EECE580F0900EECE0FFEFF4FF900EECB9
:1046DD00EFF0900EEAE0FFEF90975893FF900EECFD
:1046ED00E0FEEE5FFFEF60047F0180027F00900E21
:1046FD00EBEFF0024804900EECE590F0900EECE03C
:10470D00FFEFF4FF900EECEFF0900EEAE0FFEF906C
:10471D00975893FF900EECE0FEEE5FFFEF60047F85
:10472D000180027F00900EEBEFF0024804900EEC3A
:10473D00E5A0F0900EECE0FFEFF4FF900EECEFF043
:10474D00900EEAE0FFEF90975893FF900EECE0FE8D
:10475D00EE5FFFEF60047F0180027F00900EEBEFB4
:10476D00F0024804900EECE5B0F0900EECE0FFEF97
:10477D0064EFFF900EECEFF0900EEAE0FFEF9097F4
:10478D005893FF900EECE0FEEE5FFFEF60047F01AB
:10479D0080027F00900EEBEFF0805C7D007F0012B9
:1047AD0081F8900EECEFF0900EEAE0FFEF90975845
:1047BD0093FF900EECE0FEEE5FFFEF60047F018053
:1047CD00027F00900EEBEFF0802D7D017F001281B6
:1047DD00F8900EECEFF0900EEAE0FFEF9097589303
:1047ED00FF900EECE0FEEE5FFFEF60047F018002B4
:0C47FD007F00900EEBEFF0900EEBE0FF61
:01480900228C
:0B5C4100900E64EBF0A3EAF0A3E9F082
:105C4C00900E67E4F0A37401F0900E64E0FBA3E007
:105C5C00FAA3E0F9E41212D5900E64E0FBA3E0FA8B
