:10879800900C77EBF0A3EAF0A3E9F0900C77E0FBFC
:1087A800A3E0FAA3E0F9758205758300121D0BFF9B
:0187B800229E
:10573700900C7AEBF0A3EAF0A3E9F0900C7AE0FB87
:10574700A3E0FAA3E0F9758203758300743B121D89
:105757009F900C7AE0FBA3E0FAA3E0F9758201754C
:105767008300E4121D9F900C7AE0FBA3E0FAA3E00C
:10577700F9758202758300E4121D9F900C7AE0FB95
:10578700A3E0FAA3E0F9758205758300E4121D9F73
:10579700900C7AE0FBA3E0FAA3E0F9758204758325
:1057A70000E4121D9F900C7AE0FBA3E0FAA3E0F956
:1057B700E4121D8D900C7AE0FBA3E0FAA3E0F975E3
:1057C700820A758300E4121D9F900C7AE0FBA3E028
:0F57D700FAA3E0F975820B758300E4121D9F227F
:1044EB00C0D075D010900C7DEBF0A3EAF0A3E9F0EF
:1044FB00900C7DE0FBA3E0FAA3E0F97582027583D3
:10450B0000121D0BFF900C7DE0FBA3E0FAA3E0F97A
:10451B00758201758300121D0BFEEEB5171D900CF5
:10452B007DE0FBA3E0FAA3E0F97582057583001229
:10453B001D0BFFEF60057F030245EF900C7DE0FB49
:10454B00A3E0FAA3E0F9758201758300121D0BFF3E
:10455B007E00900C7DE0FBA3E0FAA3E0F9E9240DCB
:10456B00F9EA3400FAE92FF9EA3EFAE599121D8DC2
:10457B00900C7DE0FBA3E0FAA3E0F9758203758351
:10458B0000121D0BFF900C7DE0FBA3E0FAA3E0F9FA
:10459B00758201758300121D0BFEEEC39F501890A0
:1045AB000C7DE0FBA3E0FAA3E0F9758201758300B3
:1045BB007401121D5A8015900C7DE0FBA3E0FAA349
:1045CB00E0F9758201758300E4121D9F900C7DE06C
:1045DB00FBA3E0FAA3E0F975820575830074011261
:0745EB001D5A7F01D0D02210
:0B46E100900AEDEBF0A3EAF0A3E9F073
:1046EC00900AEDE0FBA3E0FAA3E0F975820575836F
:1046FC0000121D0BFFEF70067F03220247C9A2AC0C
:10470C009204C2AC900AEDE0FBA3E0FAA3E0F975C9
:10471C008202758300121D0BFF7E00900AEDE0FBF8
:10472C00A3E0FAA3E0F9E9240DF9EA3400FAE92F41
:10473C00F9EA3EFA121CF2FF900AF0E0FBA3E0FA51
:10474C00A3E0F9EF121D8D900AEDE0FBA3E0FAA3B4
:10475C00E0F9758203758300121D0BFF900AEDE0E2
:10476C00FBA3E0FAA3E0F9758202758300121D0B1E
:10477C00FEEEC39F5018900AEDE0FBA3E0FAA3E015
:10478C00F97582027583007401121D5A8015900A06
:10479C00EDE0FBA3E0FAA3E0F9758202758300E477
:1047AC00121D9F900AEDE0FBA3E0FAA3E0F97582DD
:0F47BC000575830074FF121D5AA20492AC7F0191
:0147CB0022CB
:106CC200900C80EBF0A3EAF0A3E9F0900C80E0FBDB
:106CD200A3E0FAA3E0F97582037583007403121D21
:106CE2009F900C80E0FBA3E0FAA3E0F975820275A5
:106CF2008300E4121D9F900C80E0FBA3E0FAA3E066
:106D0200F9758201758300E4121D9F900C80E0FBEF
:106D1200A3E0FAA3E0F9758204758300E4121D9FD3
:106D2200900C80E0FBA3E0FAA3E0F9E4121D8D22AF
:10741100900C83EBF0A3EAF0A3E9F0900C83E0FB7E
:10742100A3E0FAA3E0F9758203758300121D0BFF37
:10743100900C83E0FBA3E0FAA3E0F9758204758365
:1074410000121D0BFEEEB507057EFF7FFF22900C9B
:1074510083E0FBA3E0FAA3E0F975820275830012D1
:067461001D0BFF7E00225E
:1061FF00900B1DEBF0A3EAF0A3E9F0900B20ECF06D
:10620F00A3EDF0900B1DE0FBA3E0FAA3E0F975827C
:10621F0003758300121D0BFF7E00EF24FFFFEE348A
:10622F00FFFE900B20E0FCA3E0FDD3ED9FEE64801A
:10623F00F8EC6480985010900B20E0FEA3E0FFC3B1
:10624F00EE6480948050077B007A00790022900BD7
:10625F001DE0FBA3E0FAA3E0F9E92406F9EA340014
:10626F00FA900B20E0FEA3E0FF7C007D3C121DC1E5
:07627F00E92FF9EA3EFA22C3
:106AF000900C86EBF0A3EAF0A3E9F0900C86E0FBA3
:106B0000A3E0FAA3E0F9758203758300121D0BFF61
:106B1000900C86E0FBA3E0FAA3E0F975820275838E
:106B2000007401121D5AFEEEB50715900C86E0FBAD
:106B3000A3E0FAA3E0F9758202758300E4121D9FB9
:106B4000900C86E0FBA3E0FAA3E0F9E4121D8D901F
:106B50000C86E0FBA3E0FAA3E0F9758204758300DC
:066B60007401121D5A220F
:1085D600900C89EBF0A3EAF0A3E9F0900C89E0FB9C
:1085E600A3E0FAA3E0F9758204758300121D0BFF60
:0385F6007E0022E2
:107D6C00900C8CEBF0A3EAF0A3E9F0900C8CE0FB08
:107D7C00A3E0FAA3E0F9758204758300121D0BFFD2
:107D8C00EF70057EFF7FFF22900C8CE0FBA3E0FAE6
:107D9C00A3E0F9758201758300121D0BFF7E002292
:10669E00900C8FEBF0A3EAF0A3E9F0900C8FE0FBE7
:1066AE00A3E0FAA3E0F9758204758300121D0BFFB7
:1066BE00EF605B900C8FE0FBA3E0FAA3E0F975822C
:1066CE0003758300121D0BFF900C8FE0FBA3E0FA05
:1066DE00A3E0F97582017583007401121D5AFEEE56
:1066EE00B50715900C8FE0FBA3E0FAA3E0F97582D5
:1066FE0001758300E4121D9F900C8FE0FBA3E0FA5E
:0F670E00A3E0F975820475830074FF121D5A22EF
:105D8C00900AF3EBF0A3EAF0A3E9F0900AF6ECF03A
:105D9C00A3EDF0900AF3E0FBA3E0FAA3E0F9121CE8
:105DAC00F2FFEFC3943C5068900AF8E0FFC00790F4
:105DBC000AF3E0FBA3E0FAA3E0F9E92406F9EA34DC
:105DCC0000FA900AF6E0FEA3E0FF7C007D3C121D79
:105DDC00C1E92FF9EA3EFAC003C002C001900AF3F0
:105DEC00E0FBA3E0FAA3E0F9121CF2FF7E00D00165
:105DFC00D002D003E92FF9EA3EFAD007EF121D8D3D
:105E0C00900AF3E0FBA3E0FAA3E0F97401121D3849
:015E1C002263
:05000600C201C200224E
:057DAC00900BEFEFF069
:107DB100900BF07409F0900BEFE0FFEF600D900B6A
:107DC100F1E4F0A37402F0D200800C900BF1E4F026
:107DD100A3E4F0C200C2017B017A0B79F0124EC11B
:097DE100EFB402037F02227F00CF
:017DEA002276
:057C2500900BF3EFF0ED
:107C2A00900BF47409F0900BF3E0FFEF6010900BE7
:107C3A00F5E4F0A37403F0300010D201800C900B2D
:107C4A00F5E4F0A3E4F0C201C2007B017A0B79F4F7
:0C7C5A00124EC1EFB402037F02227F0033
:017C660022FB
:0880C800900B22EEF0A3EFF093
:1080D000900B24740AF0900B22E0FEA3E0FF900BBB
:1080E00025EEF0A3EFF07B017A0B7924124EC1EF5D
:0880F000B402037F02227F00AD
:0180F8002265
:068A7700A201E433FF221E
:0E89B6007F411260E7EF70037F00227F0222F4
:0E89C40012883AEF640360037F00227F0122D5
:0B7EE000900B27EBF0A3EAF0A3E9F001
:107EEB007B017A0B792A1270DCEF6403601E900B16
:107EFB002AE0FEA3E0FF7E00900B27E0FBA3E0FA55
:0E7F0B00A3E0F9EE8FF0121EB77F00227F0177
:017F19002245
:0C89FB009003EDE4F09003EE74FFF02216
:0B6E7D00900BF7EBF0A3EAF0A3E9F0A4
:106E88009003EDE0FFEFC3943740037FFF229003A8
:106E9800EDE0FF900BFAEFF0900BF7E0FBA3E0FAC0
:106EA800A3E0F9900BFAE0FF75F009EFA424FEF5D2
:106EB80082E5F03401F583EBF0A3EAF0A3E9F09062
:106EC8000BFAE0FF75F009EFA42402F582E5F0342F
:106ED80002F583E4F09003EDE004F0900BFAE0FF94
:016EE8002287
:107E2A00900CDDEFF0900CDEEDF0900CDDE0FF75CC
:107E3A00F009EFA42402F582E5F03402F583740216
:107E4A00F0900CDEE0FF900CDDE0FE75F009EEA488
:0D7E5A002401F582E5F03402F583EFF022FB
:107EA400900CFBEFF0900CFBE0FFEFB4FF17900396
:107EB400EEE0FF75F009EFA42402F582E5F0340248
:107EC400F583E4F022900CFBE0FF75F009EFA424A5
:0C7ED40002F582E5F03402F583E4F022B0
:107F8D00900CFCEFF0900CFCE0FF9003EEE0FE7522
:107F9D00F009EEA42401F582E5F03402F583EFF04B
:107FAD009003EEE0FF75F009EFA42402F582E5F0F1
:087FBD003402F5837402F02286
:10551300900C92EFF0900C93ECF0A3EDF0900C92C2
:10552300E0FFEF64FF70529003EEE0FF75F009EFC8
:10553300A42402F582E5F03402F5837403F09003AA
:10554300EEE0FF7E09EF8EF0A4FFAEF074032FF9B7
:1055530074023EFA7B01C003C002C001900C93E0C9
:10556300FEA3E0FF7C007D0A121DD3AC06AD07D07D
:1055730001D002D0031279FA22900C92E0FF75F069
:1055830009EFA42402F582E5F03402F5837403F0F5
:10559300900C92E0FF7E09EF8EF0A4FFAEF074034F
:1055A3002FF974023EFA7B01C003C002C001900CC4
:1055B30093E0FEA3E0FF7C007D0A121DD3AC06AD91
:0B55C30007D001D002D0031279FA22B9
:1042A500900CFDE4F09003EDE0FF900CFDE0FEEED8
:1042B500C39F40030243D29003EDE0FF9003EEE07D
:1042C50004FEF0EEB507059003EEE4F09003EEE092
:1042D500FF75F009EFA42402F582E5F03402F583B9
:1042E500E0FFEF640270519003EEE0FF75F009EF17
:1042F500A42402F582E5F03402F5837401F09003FD
:10430500EEE0FF75F009EFA42401F582E5F0340233
:10431500F583E0FF9003EEE0FE75F009EEA424FEC0
:10432500F582E5F03401F583E0FBA3E0FAA3E0F9BB
:1043350089828A831220AA229003EEE0FF75F00994
:10434500EFA42402F582E5F03402F583E0FFEF6483
:104355000370719003EEE0FF7E09EF8EF0A4FFAECF
:10436500F074032FF974023EFA7B01127467EF644F
:104375000170519003EEE0FF75F009EFA42402F5FA
:1043850082E5F03402F5837401F09003EEE0FF75E9
:10439500F009EFA42401F582E5F03402F583E0FF8E
:1043A5009003EEE0FE75F009EEA424FEF582E5F03B
:1043B5003401F583E0FBA3E0FAA3E0F989828A835F
:0D43C5001220AA22900CFDE004F00242AA92
:0143D20022C8
:10887600900CFEEFF0900CFEE0FF75F009EFA424DB
:0C88860002F582E5F03402F583E0FF22E9
:10889200900CFFEFF0900CFFE0FF75F009EFA424BD
:0C88A20001F582E5F03402F583E0FF22CE
:0B6BDC00900AC3EBF0A3EAF0A3E9F07D
:106BE700900AC3E0FBA3E0FAA3E0F9900AC6EBF032
:106BF700A3EAF0A3E9F0900AC6E0FBA3E0FAA3E05A
:106C0700F9758201758300121D0BFF900AC9EFF019
:106C1700900AC6E0FBA3E0FAA3E0F9121CF2FF908A
:106C27000AC6E0FBA3E0FAA3E0F9758201758300C9
:106C3700EF121D9F900AC9E0FF900AC6E0FBA3E090
:086C4700FAA3E0F9EF121D8D24
:016C4F002222
:1088C900900C95EBF0A3EAF0A3E9F0900C95E0FB8E
:0A88D900A3E0FAA3E0F9126BDC2221
:0B513B00900ACAEBF0A3EAF0A3E9F031
:10514600900ACAE0FBA3E0FAA3E0F9900ACDEBF0DF
:10515600A3EAF0A3E9F0900ACDE0FBA3E0FAA3E00E
:10516600F9758203758300121D0BFF900AD0EFF0CC
:10517600900ACDE0FBA3E0FAA3E0F9121CF2FF903F
:105186000ACDE0FBA3E0FAA3E0F97582037583007C
:10519600EF121D9F900AD0E0FF900ACDE0FBA3E03E
:1051A600FAA3E0F9EF121D8D900ACDE0FBA3E0FA19
:1051B600A3E0F9758202758300121D0BFF900AD0D9
:1051C600EFF0900ACDE0FBA3E0FAA3E0F9758201C7
:1051D600758300121D0BFF900ACDE0FBA3E0FAA336
:1051E600E0F9758202758300EF121D9F900AD0E0E8
:1051F600FF900ACDE0FBA3E0FAA3E0F97582017502
:065206008300EF121D9F62
:01520C00227F
:1088E300900C98EBF0A3EAF0A3E9F0900C98E0FB6E
:0A88F300A3E0FAA3E0F912513B22C2
:0B47CC00900A11EBF0A3EAF0A3E9F063
:1047D700900A1774FF75F0FF121E3EAFF0FEEF4E02
:1047E70070030248B4900A17E0FEA3E0FFEF25E04C
:1047F700FFEE33FE900A11E0FBA3E0FAA3E0F98F86
:10480700828E83121E7FFDACF0900A17E0FEA3E0B4
:10481700FFEF25E0FFEE33FE900A14E0FBA3E0FA7A
:10482700A3E0F98F828E83EC8DF0121ED6900A17C3
:10483700E0FEA3E0FFEF25E0FFEE33FE900A14E071
:10484700FBA3E0FAA3E0F9E92FF9EA3EFA900A1987
:10485700EBF0A3EAF0A3E9F0900A19E0FBA3E0FA72
:10486700A3E0F9758201758300121D0BFF900A1CE6
:10487700EFF0900A19E0FBA3E0FAA3E0F9121CF2AB
:10488700FF900A19E0FBA3E0FAA3E0F9758201752E
:104897008300EF121D9F900A1CE0FF900A19E0FBAE
:0D48A700A3E0FAA3E0F9EF121D8D0247D740
:0148B40022E1
:1078CE00900A9BEBF0A3EAF0A3E9F0900A9BE0FB91
:1078DE00A3E0FAA3E0F9C003C002C001900A9EE043
:1078EE00FBA3E0FAA3E0F9900A14EBF0A3EAF0A3ED
:1078FE00E9F0900AA1E0FEA3E0FF900A17EEF0A3D4
:0C790E00EFF0D001D002D0031247CC22D1
:0B3ECE00900A1DEBF0A3EAF0A3E9F05E
:103ED900900A2374FF75F0FF121E3EAFF0FEEF4EFD
:103EE900700302402A900A23E0FEA3E0FFEF780264
:103EF900C333CE33CED8F9FF900A1DE0FBA3E0FA15
:103F0900A3E0F98F828E83122020C004C005C00669
:103F1900C007900A23E0FEA3E0FFEF7802C333CE87
:103F290033CED8F9FF900A20E0FBA3E0FAA3E0F929
:103F39008F828E83D007D006D005D00412205090EE
:103F49000A23E0FEA3E0FFEF7802C333CE33CED8D5
:103F5900F9FF900A20E0FBA3E0FAA3E0F9E92FF9C1
:103F6900EA3EFA900A25EBF0A3EAF0A3E9F0900AF9
:103F790025E0FBA3E0FAA3E0F9758203758300123B
:103F89001D0BFF900A28EFF0900A25E0FBA3E0FA49
:103F9900A3E0F9121CF2FF900A25E0FBA3E0FAA3C3
:103FA900E0F9758203758300EF121D9F900A28E0DE
:103FB900FF900A25E0FBA3E0FAA3E0F9EF121D8DBB
:103FC900900A25E0FBA3E0FAA3E0F9758202758364
:103FD90000121D0BFF900A28EFF0900A25E0FBA3C1
:103FE900E0FAA3E0F9758201758300121D0BFF90B9
:103FF9000A25E0FBA3E0FAA3E0F9758202758300C4
:10400900EF121D9F900A28E0FF900A25E0FBA3E02C
:10401900FAA3E0F9758201758300EF121D9F023E34
:01402900D9BD
:01402A002273
:10791A00900AA3EBF0A3EAF0A3E9F0900AA3E0FB34
:10792A00A3E0FAA3E0F9C003C002C001900AA6E0EE
:10793A00FBA3E0FAA3E0F9900A20EBF0A3EAF0A394
:10794A00E9F0900AA9E0FEA3E0FF900A23EEF0A373
:0C795A00EFF0D001D002D003123ECE228C
:078A3F00900AF97402F02215
:0560E700900C9BEFF09E
:1060EC001289D2EFB401037F0222900AF97403F0F3
:1060FC007D017F12127197C296128A54AE02AF01C3
:10610C00900C9CEEF0A3EFF0900C9BE0FF900C9C9D
:10611C00E0FCA3E0FD8D828C83EFF0900C9CE0FE04
:10612C00A3E0FF8F828E83A3E4F0900C9CE0FEA38F
:10613C00E0FF8F828E83A3A3E4F07B017A0A79FAC5
:10614C00C003C002C0017BFF7A8579F9900AB0EBDD
:10615C00F0A3EAF0A3E9F0D001D002D0037F037ED4
:06616C0000126D327F00FD
:01617200220A
:0B4EC100900B2CEBF0A3EAF0A3E9F04B
:104ECC001289D2EFB401037F0222900AF97403F025
:104EDC007D017F12127197D296128A54AE02AF01E5
:104EEC00900B2FEEF0A3EFF0900B2CE0FBA3E0FA6D
:104EFC00A3E0F9121CF2FF900B2FE0FCA3E0FD8D58
:104F0C00828C83EFF0900B2CE0FBA3E0FAA3E0F98A
:104F1C00758201758300121E7FFFAEF07F00EEFFDD
:104F2C007E00900B2FE0FCA3E0FD8D828C83A3EF21
:104F3C00F0900B2CE0FBA3E0FAA3E0F9758201756D
:104F4C008300121E7FFFAEF0EF54FFFF900B2FE09B
:104F5C00FCA3E0FD8D828C83A3A3EFF07B017A0A86
:104F6C0079FAC003C002C0017BFF7A8579F9900AF7
:104F7C00B0EBF0A3EAF0A3E9F0D001D002D0037FAC
:084F8C00037E00126D327F006C
:014F940022FA
:1085F900C0D075D018900D00EFF0900D00E0FFEF9E
:108609007008900AF97401F08006900AF97402F072
:03861900D0D0229C
:1070DC00900C9EEBF0A3EAF0A3E9F0900AF9E0FF24
:1070EC00EFB403037F0322900AF9E0FFEFB4012E03
:1070FC00900AFCE0FF900C9EE0FBA3E0FAA3E0F901
:10710C00758201758300EF121D9F900AFBE0FF90C2
:10711C000C9EE0FBA3E0FAA3E0F9EF121D8D7D00BD
:0E712C007F1212719712000E900AF9E0FF22F6
:10883A00900AF9E0FFEFB403037F03227D007F1261
:0E884A00127197C29612000E900AF9E0FF22FA
:104F950075FFDE75FFAD127E67127CA91288AE1211
:104FA5008A131289FB1289A71276071282E31286E9
:104FB5003F128A07128A3F128A69120006127A4145
:104FC5001286A812851B122F461284A4D2AF125244
:104FD500D6126059127FFB122C827BFF7A53799788
:104FE500126E7D900B31EFF07BFF7A7979B2126EFC
:104FF5007D900B34EFF07BFF7A65799E126E7D9084
:105005000B35EFF07BFF7A737909126E7D900B32C9
:10501500EFF07BFF7A3179C1126E7D900B33EFF0A3
:10502500900B32E0FF900B33E0FD12881B128A953E
:105035007D00127E2A900B31E0FF7D00127E2A90C2
:105045000B32E0FF7D00127E2A900B34E0FF7D00DD
:10505500127E2A900B35E0FF7D00127E2A1242A5B2
:0250650080FBCE
:015067002226
:107FFB00900CDF74E0F0E5EF30E1047F0080027F4E
:10800B0001900CE0EFF07B017A0C79DF900A2E7473
:10801B0001F0900A2FE4F0900A30E4F07D037C002D
:03802B001233F716
:01802E00222F
:03001B00020011CF
:0100110032BC
:03002B00020012BE
:0100120032BB
:03003B00020019A7
:0100190032B4
:0300430002001A9E
:01001A0032B3
:03004B000200218F
:0100210032AC
:1088FD00C2CAC2C9C2C875CAFF75CBDB538EDF753C
:0A890D00CCFF75CDFFC2ADD2CA2227
:1088AE00C28C900B09E4F0A3E4F0438901758AFFB2
:0B88BE00758CDB538EF7D2A9D28C2200
:03000B0002861C4E
:10861C00C0E0C083C082C28D900B0AE004F07006EB
:10862C00900B09E004F0758AFF758CDBD082D08347
:03863C00D0E03259
:10895E0053C9FB53C9FD43C901538EBF53E7FB43B4
:03896E00C9042217
:0300830002858E65
:10858E00C0E0C0F0C083C082C0D075D00853C9FB14
:10859E0053C97F12725143C904D0D0D082D083D038
:0485AE00F0D0E032F7
:107E670075B167900CE1E4F0A3E4F0900CE1E0FE5B
:107E7700A3E0FFC3EE648094815010900CE2E0040D
:107E8700F07006900CE1E004F080E0E5B130E7FB2C
:0C7E970075B28843A50443E34043E28039
:017EA30022BC
:0884F400900AFFEEF0A3EFF087
:1084FC007B017A0B7901900AFFE0FCA3E0FD127975
:0E850C00FA7B017A0B7901127467EFB401F368
:01851A00223E
:1079FA00900B36EBF0A3EAF0A3E9F0900B39ECF028
:107A0A00A3EDF0120086900B36E0FBA3E0FAA3E0A8
:107A1A00F9EE8FF0121EB7900B39E0FEA3E0FF904B
:107A2A000B36E0FBA3E0FAA3E0F975820275830046
:077A3A00EE8FF0121ED622B0
:0B746700900B3BEBF0A3EAF0A3E9F070
:10747200120086900B3EEEF0A3EFF0900B3BE0FB88
:10748200A3E0FAA3E0F9121E54FFAEF0900B3EE027
:10749200FCA3E0FD12713A900B3BE0FBA3E0FAA3E0
:1074A200E0F9758202758300121E7FFDACF0C3EF16
:0A74B2009DEE9C50037FFF227F0136
:0174BC0022AD
:078A46007B017A0B79052288
:10008600C2A9900B09E0FEA3E0FF900CE3EEF0A3FB
:0C009600EFF0D2A9900CE3E0FEA3E0FF25
:0100A200223B
:10713A00900BFBEEF0A3EFF0900BFDECF0A3EDF05B
:10714A00900BFBE0FEA3E0FF900BFDE0FCA3E0FD4B
:10715A00D3ED9FEC9E4018900BFBE0FEA3E0FF905E
:10716A000BFDE0FCA3E0FDC3ED9FFFEC9EFE229029
:10717A000BFBE0FEA3E0FFC3E49FFFE49EFE900B3F
:0D718A00FDE0FCA3E0FDEF2DFFEE3CFE223A
:107CA900A2AF9206C2AF759850438920758DB8432B
:107CB9008E10D28EC299C298D29CD2AC43884043CE
:107CC9008780D2BCA20692AF43E10443E340C208D5
:107CD900900653E4F09006B8E4F09006527463F00D
:017CE9002278
:0D89EE0053E7BF53F1EF43E30443E340229E
:03002300026A79F5
:106A7900C0E0C0F0C083C082C0D075D010C2AC30B5
:106A8900980BC2987B017A0679091244EB30994A2E
:106A9900C2999006B8E0FF900653E0FEEE6F6038A9
:106AA9009006B8E0FF74542FF582E43406F583E0CC
:106AB900FF8F999006B8E0FF7E00EF2401FFEE34C6
:106AC90000FE7C007D64121DD3AF159006B8EFF06F
:106AD900900652E004F08002C208D2ACD0D0D08235
:076AE900D083D0F0D0E032B1
:0300A30002002236
:0100220032AB
:104A7900900B40EBF0A3EAF0A3E9F0900B43EDF0C3
:104A8900900B43E0FF900652E0FEEEC39F50037F78
:104A99000122A2AC9207C2AC900B44E4F0900B4304
:104AA900E0FF900B44E0FEEEC39F504F900B40E0B7
:104AB900FBA3E0FAA3E0F9900B44E0FF8F82758332
:104AC90000121D0BFF900653E0FE74542EF582E48C
:104AD9003406F583EFF0900653E0FF7E00EF2401E2
:104AE900FFEE3400FE7C007D64121DD3AF059006F5
:104AF90053EFF0900B44E004F080A2900652E0FFDF
:104B0900900B43E0FEC3EF9EFF900652EFF02008A2
:104B190038D2089006B8E0FF74542FF582E43406C1
:104B2900F583E0FF8F999006B8E0FF7E00EF24013E
:104B3900FFEE3400FE7C007D64121DD3AF059006A4
:0F4B4900B8EFF0900652E004F0A20792AC7F00A4
:014B5800223A
:078A4D007B017A0679092282
:1071F4005306BA0000000000000000000000000078
:107204000000008080805306CD08090A0B0C0D0E87
:0C7214000F000102030405060700010240
:10863F00C202C203759A07759DFF75F80343A580A3
:10864F0043A60F43A54043E10243E34043F60143F2
:03865F00E601220F
:106D3200900AABEEF0A3EFF0900AADEBF0A3EAF00D
:106D4200A3E9F053E6FE900AADE0FBA3E0FAA3E06C
:106D5200F9AE02AF019006E4EEF0A3EFF0900AABB9
:106D6200E0FEA3E0FF9006E3EFF0900AB0E0FBA3A1
:106D7200E0FAA3E0F99006E0EBF0A3EAF0A3E9F071
:106D82009006B9E4F09006B9E0FF04F074E62FF53E
:106D920082E43406F583E0FF8F9B43E6017F002205
:0300330002417413
:10417400C0E0C0F0C083C082C0D075D01820FF0357
:10418400024245C2FF300314E590547FFFEF4480A0
:10419400F590E5A054F0FFEF4403F5A09006B9E0D4
:1041A400FF7E00EF24FFFFEE34FFFE9006E4E0FC08
:1041B400A3E0FD8D828C83E5822FF582E5833EF5B5
:1041C40083E59BF09006E3E0FF9006B9E0FEEEC3C2
:1041D4009F504830032C90074AE4F090074AE0FFD0
:1041E400EFC39414500890074AE004F080EDE59082
:1041F400547FFFEF4480F590E5A054F0FFEF4401B5
:10420400F5A09006B9E0FF04F074E62FF582E434DB
:1042140006F583E0FF8F9B807D80269006E3E0FF18
:104224009006B9E0FEEEB51F189006E0E0FBA3E0AF
:10423400FAA3E0F989828A837F007E001220AA8093
:104244005530FE1AC2FE9006E0E0FBA3E0FAA3E0BC
:10425400F989828A837F027E001220AA803830FD89
:104264001AC2FD9006E0E0FBA3E0FAA3E0F989821C
:104274008A837F037E001220AA801B30FC18C2FCB4
:104284009006E0E0FBA3E0FAA3E0F989828A837F49
:10429400047E001220AAD0D0D082D083D0F0D0E007
:0142A40032E7
:0E89D20020020330FB037F0122D2027F00222D
:03000E00C2022209
:10719700900CE5EFF0900CE6EDF0900CE6E0FFEFD9
:1071A700B40135900CE5E0FF74BA2FF582E434069C
:1071B700F583E0FFE590547FFEEE4FF590900CE5E8
:1071C700E0FF74CD2FF582E43406F583E0FFE5A0F8
:1071D70054F0FEEE4FF5A022E590547FFFEF448078
:0D71E700F590E5A054F0FFEF4403F5A02261
:078A54007B017A0679E6229E
:10899700900D01EFF0900D01E0FFEF24FF9203220D
:0C7220004909500001020304050607089C
:1082E30075BA0075BC38900959E4F075BB0075D1B7
:1082F300077E007F127D007B017A09795A1220AC38
:0F83030075E80C1288FD43E88043E702D2AF22F1
:03007B00025E1D05
:105E1D00C0E0C0F0C083C082C0D075D00853E7FD8C
:105E2D00C2EDAFBF7E00900959E0FDED25E0245A8B
:105E3D00F582E43409F583EEF0A3EFF0900959E013
:105E4D00FFEF25E0245AF582E43409F583C083C0C1
:105E5D0082E0FEA3E0FFEF7F00FED082D083EEF064
:105E6D00A3EFF0900959E0FFEF25E0245AF582E405
:105E7D003409F583C083C082E0FEA3E0FFADBE7C94
:105E8D0000EE4CFEEF4DFFD082D083EEF0A3EFF08D
:105E9D0012845143E702D0D0D082D083D0F0D0E02D
:015EAD0032C2
:05809600900CA1EFF0C9
:10809B0053E7FD900CA1E0FFEF25E0245AF582E4B5
:1080AB003409F583E0FEA3E0FF900CA2EEF0A3EF02
:0C80BB00F043E702900CA2E0FEA3E0FFFF
:0180C7002296
:10651E00900B45EFF0900B46EDF0900B47EBF0A390
:10652E00EAF0A3E9F053E7FD900B45E0FF7E009003
:10653E000B46E0FD7C00C3ED9FFFEC9EFEEF2401B9
:10654E00FFEE3400FEEF25E0FFEE33FEC006C0077F
:10655E00900B45E0FF7E02EF8EF0A4FFAEF0745A72
:10656E002FF974093EFA7B01C003C002C001900BE3
:10657E0047E0FBA3E0FAA3E0F9A801AC02AD03D01B
:10658E0001D002D003D007D006121CCC43E7022262
:10845100C0D075D008900959E004FFF0EFB40905C8
:10846100900959E4F0900959E0FF74502FF582E426
:0B8471003409F583E0FF8FBBD0D02260
:078A5B007B017A09795A2220
:107607007E007F627D007B017A0779DA1220AC7EEB
:10761700007F037D007B017A0779D61220AC7E07B5
:107627007FDB90083EEEF0A3EFF09007D6E0FFEF88
:1076370004FF7E0090083CEEF0A3EFF09007D9E43A
:0F764700F0900840E4F043D1019007D4E4F02222
:10539700900D02EFF0900840E0FFEFC3940A402120
:1053A700900840E0FFEFC394145016900D02E0FF01
:1053B700EFB4020D900D02E4F0900840741EF080E7
:1053C70011900840E0FFEFC3940A5006900840E0B0
:1053D70004F0900D02E0FFEF1220805421005433B7
:1053E7000153F20254040300005450125B26EF707D
:1053F700067F03127F8D227F02127F8D22127A8809
:10540700EF6404600F7F02127F8D7DBE7C007FFFFB
:10541700125513227F03127F8D22126286EF7006C8
:105427007F01127F8D227F00127F8D22127A88EFF3
:105437006404600F7F02127F8D7DBE7C007FFF12A8
:0F5447005513227F01127F8D227F02127F8D224B
:105B26001289D2EFB401037F02229007D57404F0E4
:105B3600128A54AE02AF01900CA4EEF0A3EFF090DF
:105B46000CA4E0FEA3E0FF8F828E837433F0900CEA
:105B5600A67401F0900CA6E0FFEFD3943050259088
:105B66000CA6E0FF900CA4E0FCA3E0FD8D828C83E4
:105B7600E5822FF582E43583F583E4F0900CA6E008
:105B860004F080D07F011289977D017F11127197F1
:105B960012847CC003C002C0017BFF7A86796290C2
:105BA6000AB0EBF0A3EAF0A3E9F0D001D002D003EB
:095BB6007F317E00126D327F0088
:015BBF0022C3
:106286001289D2EFB401037F02229007D57404F07D
:10629600128A54AE02AF01900CE7EEF0A3EFF09035
:1062A6000CE7E0FEA3E0FF8F828E837434F0900C3F
:1062B600E7E0FEA3E0FF8F828E83A3E4F0900CE775
:1062C600E0FEA3E0FF8F828E83A3A3E4F07F01129A
:1062D60089977D017F111271977B017A0779D6C064
:1062E60003C002C0017BFF7A867962900AB0EBF0A8
:1062F600A3EAF0A3E9F0D001D002D0037F037E0029
:05630600126D327F0062
:01630B00226F
:10866200C0D075D018900D03EFF0900D03E0FFEF2E
:1086720070089007D57401F080069007D57402F057
:03868200D0D02233
:107A88009007D5E0FFEFB404037F04227D007F1147
:107A98001271977F001289979007D9E0FFEF75F070
:107AA80031A424DBF582E43407F583AF82AE8390FA
:107AB800083EEEF0A3EFF09007D47401F012000E28
:067AC8009007D5E0FF224B
:057CEA00900CA7EFF073
:107CEF0053E6FE90083EE0FEA3E0FF8F828E83C036
:107CFF0083C082900CA7E0FFD082D08375F002EF93
:107D0F00122074E0FEA3E0FF900CA8EEF0A3EFF0BA
:0B7D1F0043E601900CA8E0FEA3E0FF8B
:017D2A002236
:105F3D00900B0BEFF0900B0CECF0A3EDF0900B0E23
:105F4D00EBF0A3EAF0A3E9F053E6FE900B0BE0FFB4
:105F5D007E00900B0CE0FCA3E0FDC3ED9FFFEC9EDB
:105F6D00FEEF2401FFEE3400FEEF25E0FFEE33FEE1
:105F7D00C006C007900B0BE0FF7E02EF8EF0A4FF72
:105F8D00AEF090083EE0FCA3E0FDEF2DFFEE3CFEF1
:105F9D00AA06A9077B01C003C002C001900B0EE049
:105FAD00FBA3E0FAA3E0F9A801AC02AD03D001D048
:0E5FBD0002D003D007D006121CCC43E601220E
:10802F00900B11EBF0A3EAF0A3E9F09007D7E0FF74
:10803F00900B11E0FBA3E0FAA3E0F9EF121D8D9076
:10804F0007D8E0FF900B14E0FBA3E0FAA3E0F9EFF1
:04805F00121D8D223F
:10847C009007D9E0FFC374019FFF9007D9EFF090EC
:10848C0007D9E0FF7E31EF8EF0A4FFAEF074DA2F47
:08849C00F974073EFA7B01228E
:068A7D009007D4E0FF2287
:0A722C0042000000004200020008CA
:1084A40090003F7437F090003FE0FFEF24FEFF9010
:1084B4000041EFF07BFF7A25797A126E7D900004FB
:0884C400EFF0900043E4F02208
:102C82007F0A7E001284F4900A35E4F0900A35E05F
:102C9200FFEFC394084003022F0E900A35E0FF9025
:102CA200003FE0FB7D007C001243D3EF70EC900A02
:102CB20035E0FF7E37EF8EF0A4FFAEF074452FF9BA
:102CC20074003EFA7B01900A35E0FF90003FE0FE7F
:102CD200900B99EEF0126417EF640460D1900A35FC
:102CE200E0FF7E37EF8EF0A4FFAEF074452FF9744B
:102CF200003EFA7B01900041E0FD126F53900A3CC6
:102D0200EEF0A3EFF0900A35E0FF75F037EFA42460
:102D12007AF582E5F03400F583E0FEA3E0FF900A45
:102D22003CE0FCA3E0FDEDB50713ECB5060F900AFD
:102D32003CE0FEA3E0FFEF4E6003022EE7900A356F
:102D4200E0FF90003FE0FB7D007C011243D3EF7077
:102D5200EC900A35E0FF7E37EF8EF0A4FFAEF07400
:102D6200452FF974003EFA7B01900A35E0FF90008E
:102D72003FE0FE900B99EEF0126417EF640460D10D
:102D8200900A35E0FF7E37EF8EF0A4FFAEF0744577
:102D92002FF974003EFA7B01900041E0FD126F535F
:102DA200900A3CEEF0A3EFF0900A35E0FF75F037A1
:102DB200EFA4247AF582E5F03400F583E0FEA3E087
:102DC200FF900A3CE0FCA3E0FDED6F7002EC6E6048
:102DD20003022F05900A3CE0FEA3E0FFEF4E7003D2
:102DE200022F0590003FE0FF900A36EFF0900A387C
:102DF200E4F0A3E4F0900A35E0FF75F037EFA42485
:102E020045F582E5F03400F583AF82AE83900A3A4D
:102E1200EEF0A3EFF0900A36E0FFEFD394005003F8
:102E2200022EC7900A35E0FF126C50EF70F5900049
:102E320007E0FF12836EEF640460F3900A38E0FE4D
:102E4200A3E0FF7E00EF540FFFC374109FFF900AB0
:102E520037EFF0900A35E0FF900A38E0FCA3E0FD7E
:102E6200900A3AE0FAA3E0FBA9037B01900A37E05B
:102E7200FE900A0AEEF0123BC6EF70D7900007E010
:102E8200FF12836EEF640460F3900A36E0FF900A4B
:102E920037E0FEC3EF9EFF900A36EFF0900A37E06C
:102EA200FF7E00900A39E02FF0900A38E03EF09061
:102EB2000A37E0FF7E00900A3BE02FF0900A3AE0EA
:102EC2003EF0022E17900043E0FF900A35E0FE74B8
:102ED20001A806088002C333D8FCFEEF4EFF900023
:102EE20043EFF0801E900043E0FF900A35E0FE744D
:102EF20001A806088002C333D8FCFEEF4EFF900003
:102F020043EFF0900A35E004F0022C8E900043E08B
:062F1200FFEF64FF602DDB
:102F1800900A3E74E5F0900043E0FF900A3FEFF01E
:102F28007B017A0A793E900A2E7401F0900A2FE408
:0D2F3800F0900A30E4F07D027C001233F7C7
:012F45002269
:10698900900B4AEEF0A3EFF0900B4CEBF0A3EAF07A
:10699900A3E9F090003FE0FF7E00C006C007900B1E
:1069A9004AE0FEA3E0FF7C007D37121DC174452F2C
:1069B900F974003EFA7B01C003C002C001900B4C80
:1069C900E0FBA3E0FAA3E0F9A801AC02AD03D00112
:1069D900D002D003D007D006121CCC900B4AE0FE9F
:1069E900A3E0FF7401A807088002C333D8FCFF9015
:0869F9000043E0FEEF5EFF2207
:105EAE00900B17EFF0900B18EDF0900B19EBF090A4
:105EBE000B17E0FF900005EFF0900B18E0FF90003D
:105ECE0006EFF0900B19E0FF900007EFF090004105
:105EDE00E0FF7E00900B1AE0FBA3E0FAA3E0F9C00E
:105EEE0003C002C0017B017A007908A801AC02ADA3
:105EFE0003D001D002D003121CCC900B1AE0FBA3EE
:105F0E00E0FAA3E0F9900041E0FD126F5390003DDE
:105F1E00EEF0A3EFF09001FDE4F0900042E4F0907B
:0F5F2E000040E4F090003FE0FF900044EFF022CD
:05257A009008A7EFF03E
:10257F009008A7E0FFEF12208025AA0025C10125B2
:10258F00DA02263E0326F30427130527820627A225
:10259F000728800828DA0900002925900007E0FFA6
:1025AF00126C50EF70067F01127F8D227F00127F19
:1025BF008D22900007E0FF12836EEF640460067FA8
:1025CF0002127F8D227F01127F8D22900044E0FF47
:1025DF00EFD39410401A900000E0FEA3E0FF7E00BE
:1025EF00EF540FFFC374109FFF9008A8EFF0800AFD
:1025FF00900044E0FF9008A8EFF0900007E0FF90F4
:10260F000000E0FCA3E0FD900002E0FAA3E0FBA9CC
:10261F00037B019008A8E0FE900A0AEEF0123BC679
:10262F00EF70067F03127F8D227F02127F8D229023
:10263F000007E0FF12836EEF640470030226ED7F44
:10264F000A7E001284F49008A8E0FF7E009000013B
:10265F00E02FF0900000E03EF0900044E0FF900883
:10266F00A8E0FEC3EF9EFF900044EFF09008A8E0B3
:10267F00FF7E00900003E02FF0900002E03EF0900C
:10268F000044E0FFEFD3940040067F00127F8D22BD
:10269F0090003FE0FF7E00900000E0FCA3E0FDC350
:1026AF00ED9FFFEC9EFEEF4E70109000007401F056
:1026BF00A3E4F07F00127F8D800D900000E4F0A363
:1026CF00E4F07F04127F8D90003FE0FF900044EF15
:1026DF00F07E007F08900002EEF0A3EFF0227F0360
:1026EF00127F8D22900007E0FF90003FE0FB7D00FE
:1026FF007C001243D3EF70067F05127F8D227F047B
:10270F00127F8D22900007E0FF7B017A0879A99054
:10271F00003FE0FE900B99EEF0126417EF64046037
:10272F004C7B017A0879A9900041E0FD126F53901C
:10273F0008DEE0FCA3E0FDEFB5050AEEB504067F69
:10274F0006127F8D229001FDE0FFEF601490004094
:10275F00E0FFEF4401FF900040EFF07F06127F8D06
:10276F00229001FD7401F07F00127F8D227F0512F0
:10277F007F8D22900007E0FF90003FE0FB7D007C03
:10278F00011243D3EF70067F07127F8D227F06124F
:10279F007F8D22900007E0FF7B017A0879A99000D6
:1027AF003FE0FE900B99EEF0126417EF6404700394
:1027BF0002287A7B017A0879A9900041E0FD126F17
:1027CF00539008DEE0FCA3E0FDEF6D7002EE6C703D
:1027DF006990003FE0FF7E00C006C0077B017A00D2
:1027EF007908C003C002C001900007E0FF7E37EFF9
:1027FF008EF0A4FFAEF074452FF974003EFA7B0102
:10280F00A801AC02AD03D001D002D003D007D0068F
:10281F00121CCC9008DEE0FEA3E0FF900007E0FD65
:10282F0075F037EDA4247AF582E5F03400F583EEE8
:10283F00F0A3EFF07F08127F8D22900042E0FFEFB0
:10284F006014900040E0FFEF4402FF900040EFF073
:10285F007F08127F8D229000007401F0A3E4F090A6
:10286F0000427401F07F00127F8D227F07127F8D4F
:01287F002236
:102880009008E074C8F09008E17488F09008E2E4E1
:10289000F07B017A0879E0900005E0FF900A2EEFC6
:1028A000F0900006E0FF900A2FEFF0900A307401DC
:1028B000F07D037C001233F7EF7019900040E0FFC9
:1028C000EF700B7F00127F8D7FFF127EA4227F09A5
:0A28D000127F8D227F08127F8D22F7
:1028DA009008E074E6F0900007E0FF9008E1EFF05E
:1028EA00900040E0FF9008E2EFF07B017A0879E07F
:1028FA00900A2E7401F0900A2FE4F0900A30E4F066
:10290A007D037C001233F7EF700B7F00127F8D7FFF
:0B291A00FF127EA4227F09127F8D2295
:052925007F00127F8D10
:01292A00228A
:068A8300900004E0FF2258
:1052D60090076DE4F09007D3E4F090076BE4F0904C
:1052E600076EE4F0A3E4F0900767E4F0A3E4F0901F
:1052F600074BE4F0A37496F0900769E4F0A3749664
:10530600F0128A629007D2E4F0900765E4F0900705
:10531600D1E4F0900D04E4F0900D04E0FFEFC394A7
:105326000C5050900D04E0FFEF75F006A4248AF5AA
:1053360082E43407F583E4F0A3E4F0900D04E0FF83
:10534600EF75F006A42488F582E43407F583E4F0CB
:10535600A3E4F0900D04E0FFEF75F006A4248CF5AD
:1053660082E43407F583E4F0A3E4F0900D04E0044E
:10537600F080A57E007F187D007B017A0779701288
:1053860020AC7BFF7A5F79CB126E7D900766EFF0DB
:0153960022F4
:107B1400900CAAEFF0900CABECF0A3EDF0900CAA53
:107B2400E0FF90076DEFF0900CAAE0FFEFB40106C0
:107B340090076B7401F0900CABE0FEA3E0FF90079C
:107B44006EEEF0A3EFF09007D37401F0900767E4B2
:057B5400F0A3E4F022A3
:10831200900CADEFF0900CAEECF0A3EDF0900CAE43
:10832200E0FEA3E0FF900CADE0FDED75F006A424A5
:0E8332008CF582E43407F583EEF0A3EFF02221
:105BC000900A40EFF0900A41EDF0900A42EBF0A30A
:055BD000EAF0A3E9F07A
:105BD500900A40E0FF900A49EFF0900A4AE4F090FD
:105BE5000A41E0FF900A49E0FEEEC39F5046900A45
:105BF50042E0FBA3E0FAA3E0F9900A4AE0FF75F062
:105C050002EFA4F58285F083121E7FFFAEF0900AA5
:105C150049E0FDED75F006A4248CF582E43407F522
:105C250083EEF0A3EFF0900A49E004F0900A4AE011
:105C350004F080AB900A45E0FEA3E0FF900769EE13
:105C4500F0A3EFF0900A47E0FEA3E0FF90074BEECC
:045C5500F0A3EFF0D9
:015C59002228
:0B707D00900BFFEBF0A3EAF0A3E9F09A
:10708800123618900C02E4F0900C02E0FFEFC39463
:107098000C5040900C02E0FFEF75F006A4248AF52E
:1070A80082E43407F583E0FEA3E0FF900BFFE0FBEA
:1070B800A3E0FAA3E0F9900C02E0FD75F002EDA45C
:1070C800F58285F083EE8FF0121ED6900C02E00454
:0370D800F080B590
:0170DB002292
:106A0100900AD1EFF0900AD2EDF0900AD3EBF0A307
:056A1100EAF0A3E9F02A
:106A1600900AD1E0FF900AD6EFF0900AD7E4F09002
:106A26000AD2E0FF900AD6E0FEEEC39F5044900AD9
:106A3600D3E0FBA3E0FAA3E0F9900AD7E0FF75F0F4
:106A460002EFA4F58285F083121E7FFFAEF0900A56
:106A5600D6E0FDED25E02470F582E43407F583EEFB
:106A6600F0A3EFF0900AD6E004F0900AD7E004F025
:026A760080ADF1
:016A780022FB
:107FC500900CB0EBF0A3EAF0A3E9F07B017A077916
:107FD50070C003C002C001900CB0E0FBA3E0FAA39F
:107FE500E0F9A801AC02AD03D001D002D0037E00B8
:067FF5007F18121CCC22D3
:10881B00900CE9EFF0900CEAEDF0900CE9E0FF9092
:0F882B0007D0EFF0900CEAE0FF90076CEFF0221F
:10730900900D05EFF0900D05E0FFEF122080731E40
:10731900000000735C90076DE0FFEF70179007D3D2
:10732900E0FFEFB4010E128A629007D3E4F07F0008
:10733900127F8D2290076DE0FFEFB401107FFF12DD
:107349007EA490076CE0FF7D01127E2A227F001245
:097359007F8D227F00127F8D223E
:0531C100900CB3EFF0DB
:1031C600900CB4E4F0900CB3E0FFEF12208031DEF7
:1031D6000133E102000033F1123618900CB5E4F029
:1031E600900CB5E0FFEFC3940840030232B2900C96
:1031F600B5E0FF74017E00A807088005C333CE330F
:10320600CED8F9FF90076EE0FCA3E0FDEE5CFEEF82
:103216005DFFEF4E70030232A9900CB5E0FFEF752B
:10322600F006A4248CF582E43407F583E0FEA3E0DF
:10323600FFEF4E6064900CB5E0FFEF75F006A42436
:103246008AF582E43407F583E0FEA3E0FF900CB52F
:10325600E0FDED75F006A4248CF582E43407F583D1
:10326600E0FCA3E0FDC3ED9FEC9E502D900CB5E075
:10327600FFEF75F006A4248AF582E43407F583E0AF
:10328600FEA3E0FFC3EF94D2EE940F500C900CB562
:10329600E0FF7D01126392800A900CB5E0FF7D008D
:1032A600126392900CB5E004F00231E67D007F08CF
:1032B6001263927D007F091263927D007F0A12637A
:1032C600927D007F0B126392900CB57408F0900CFF
:1032D600B5E0FFEFD3940B4003023394900CB5E0B6
:1032E600FF74017E00A807088005C333CE33CED80D
:1032F600F9FF90076EE0FCA3E0FDEE5CFEEF5DFFDC
:10330600EF4E700302338B900CB5E0FFEF75F006BD
:10331600A4248CF582E43407F583E0FEA3E0FFEFF6
:103326004E6062900CB5E0FFEF75F006A4248AF5B6
:1033360082E43407F583E0FEA3E0FF900CB5E0FDE0
:10334600ED75F006A4248CF582E43407F583E0FCE1
:10335600A3E0FDC3ED9FEC9E502B900CB5E0FFEF74
:1033660075F006A4248AF582E43407F583E0FEA30B
:10337600E0FFC3EF94D2EE940F500A900CB5E0FF35
:103386007D01126392900CB5E004F00232D49007EE
:103396006BE0FFEF602E900767E0FEA3E0FFEE54C0
:1033A6000FFE7F00EFB4001CEEB40F18900767E025
:1033B600FEA3E0FFEE540FFE7F00900767EEF0A33A
:1033C600EFF0800590076BE4F01280637F02127FB6
:1033D6008D7DAA7C007FFF125513227FFF127EA4EB
:1033E6009007D0E0FF7D00127E2A227F01127F8D9A
:0133F60022B4
:10361800900985E4F0900986E4F0900987E4F012B7
:103628008A7DEF700302381F7B017A09796C7D0B64
:103638007C007F00125F3D900765E0FFEFC39404B4
:10364800500C900765E004F09009867401F090072B
:10365800D1E0FFEFC39428500C9007D1E004F0901C
:1036680009877401F0900984E4F0900984E0FFEF81
:10367800C3940C40030237DD900984E0FFEF75F036
:1036880006A4248AF582E43407F583E0FEA3E0FF6C
:10369800900984E0FDED25E0246CF582E43409F519
:1036A80083E0FCA3E0FDC3ED9FFFEC9EFE128A1FA2
:1036B800D3EF9400EE648094904003D38001C3500C
:1036C80003023783900986E0FFEF7044900984E095
:1036D800FFEF75F006A42488F582E43407F583C06B
:1036E80083C082E0FEA3E0FF900984E0FDED75F061
:1036F80006A4248AF582E43407F583E0FCA3E0FD00
:10370800C3EF9DFFEE9CFED082D083EEF0A3EFF0D6
:10371800900984E0FFEF25E0246CF582E43409F594
:1037280083E0FEA3E0FF900984E0FDED75F006A4B8
:103738002488F582E43407F583EE8FF0121E289072
:103748000765E0FFEFFD7C00900984E0FFEF75F06E
:1037580006A42488F582E43407F583E0FEA3E0FF9D
:10376800121DD3900984E0FDED75F006A4248AF5B6
:1037780082E43407F583EEF0A3EFF0900984E0FFCC
:10378800EF75F006A4248AF582E43407F583E0FE99
:10379800A3E0FF900984E0FDED25E0246CF582E4C8
:1037A8003409F583E0FCA3E0FDC3ED9FFFEC9EFE2A
:1037B800128A1FD3EF9464EE64809480400E9009BF
:1037C80087E0FFEF70069009857401F0900984E0A6
:1037D80004F0023672900985E0FFEF603A900766C0
:1037E800E0FF128876EF702F7B017A09796CC003AD
:1037F800C002C0017B017A07794DA801AC02AD0374
:10380800D001D002D0037E007F18121CCC9007662E
:07381800E0FF7D00127E2A93
:01381F002286
:0A639200900C03EFF0900C04EDF006
:10639C00900C05E4F0A37401F0900C04E0FFEF60A6
:1063AC0032900767E0FCA3E0FD900C05E0FEA3E053
:1063BC00FF900C03E0FBEFA803088005C333CE333A
:1063CC00CED8F9FFEC4EFEED4FFF900767EEF0A331
:1063DC00EFF022900767E0FCA3E0FD900C05E0FED7
:1063EC00A3E0FF900C03E0FBEFA803088005C33388
:1063FC00CE33CED8F9FFEFF4FFEEF4FEEC5EFEEDFB
:0A640C005FFF900767EEF0A3EFF0CA
:016416002263
:10806300900767E0FEA3E0FFEF54FFF5B0900767CA
:10807300E0FEA3E0FFEE540FFE7F00EEC4F854F0E1
:10808300C868FEEFC4540F48FFE5A0540FFEEE4F3F
:03809300F5A02233
:078A620075B00053A00F22C4
:0B3D4D00900A56EBF0A3EAF0A3E9F0A7
:103D5800123618900A5FE4F0900A5FE0FFEFC39410
:103D68000C4003023ECB900A5FE0FF74017E00A87E
:103D780007088005C333CE33CED8F9FF90076EE02D
:103D8800FCA3E0FDEE5CFEEF5DFFEF4E7003023E2C
:103D9800C2900A5FE0FFEF75F006A4248CF582E478
:103DA8003407F583E0FEA3E0FF90074BE0FCA3E0B7
:103DB800FDC3EF9DFFEE9CFE900A5FE0FDED75F000
:103DC80006A4248AF582E43407F583E0FCA3E0FD29
:103DD800C3ED9FEC9E4048900A5FE0FFEF75F00648
:103DE800A4248CF582E43407F583E0FEA3E0FF9079
:103DF8000769E0FCA3E0FDEF2DFFEE3CFE900A5FB3
:103E0800E0FDED75F006A4248AF582E43407F58315
:103E1800E0FCA3E0FDD3ED9FEC9E5003023EC29070
:103E28000A5FE0FF900A56E0FBA3E0FAA3E0F9EF8F
:103E3800121D8D900A5FE0FFEF75F006A4248AF545
:103E480082E43407F583E0FEA3E0FF900A59E0FB23
:103E5800A3E0FAA3E0F9EE8FF0121EB7900A5FE034
:103E6800FFEF75F006A4248CF582E43407F583E0AF
:103E7800FEA3E0FF90074BE0FCA3E0FDC3EF9DFF2E
:103E8800EE9CFE900A5FE0FDED75F006A4248AF52D
:103E980082E43407F583E0FCA3E0FDC3ED9FEC9ECC
:103EA80050047F0180027F02900A5CE0FBA3E0FAE5
:103EB800A3E0F9EF121D8D7F0022900A5FE004F065
:053EC800023D607F01D6
:013ECD0022D2
:055FCB00900988EFF0D1
:105FD00090098974E8F07B017A07794DC003C0020B
:105FE000C0017B017A09798AA801AC02AD03D00116
:105FF000D002D0037E007F18121CCC7B017A097975
:106000008AC003C002C0017B017A09798A900A1410
:10601000EBF0A3EAF0A3E9F0900A17E4F0A3740C04
:10602000F0D001D002D0031247CC7B017A097989E4
:10603000900A2E7401F0900A2FE4F0900A30E4F0F8
:106040007D197C001233F7EF70067FFF127EA422C9
:08605000900988E0FF127F8D2A
:016058002225
:057236004209F424816F
:106059009009EBE4F0A3E4F09009E8E4F09009F387
:10606900E4F01286EEEF70FA1285B2EF70FA128739
:1060790054EF70FA1285B2EF70FA900CB67404F00E
:10608900900CB7E4F0A3E4F07B017A0C79B6124ED8
:10609900C1EF70F412883AEFB401F9900CB674703C
:1060A900F0900CB7E4F0A3E4F07B017A0C79B61216
:1060B9004EC1EF70F412883AEFB401F9900CB6743E
:1060C9000EF0900CB7E4F0A3E4F07B017A0C79B6FA
:0D60D900124EC1EF70F412883AEFB401F9D5
:0160E6002297
:1086EE00900CB97410F0900CBAE4F0A37401F07B06
:1086FE00017A0C79B9124EC1EFB402037F02227FC8
:01870E00006A
:01870F002247
:10871000900CBC7411F0900CBDE4F0A37401F07BDC
:10872000017A0C79BC124EC1EFB402037F02227FA2
:018730000048
:018731002225
:0880F900900B4FEEF0A3EFF035
:10810100900B517401F0900B4FE0FEA3E0FF900B38
:1081110052EEF0A3EFF07B017A0B7951124EC1EFD1
:08812100B402037F02227F007B
:018129002233
:08812A00900B54EEF0A3EFF0FE
:10813200900B567402F0900B54E0FEA3E0FF900BFC
:1081420057EEF0A3EFF07B017A0B7956124EC1EF96
:08815200B402037F02227F004A
:01815A002202
:08815B00900B59EEF0A3EFF0C8
:10816300900B5B7440F0900B59E0FEA3E0FF900B83
:108173005CEEF0A3EFF07B017A0B795B124EC1EF5B
:08818300B402037F02227F0019
:01818B0022D1
:0E89E0007F011260E7EF70037F00227F02220A
:10873200900CBF7403F0900CC0E4F0A37401F07BC2
:10874200017A0C79BF124EC1EFB402037F02227F7D
:018752000026
:018753002203
:1087B900900CC27403F0900CC3E4F0A3E4F07B01C5
:1087C9007A0C79C2124EC1EFB402037F02227F00F4
:0187D900227D
:05004E00900C07EFF02B
:10005300900C087405F0900C07E0FF7E00900C09EB
:10006300EEF0A3EFF07B017A0C7908124EC1EFB4E6
:0700730002037F02227F005F
:01007A002263
:10875400900CC57407F0900CC6E4F0A374FFF07B92
:10876400017A0C79C5124EC1EFB402037F02227F55
:018774000004
:0187750022E1
:0A6FB700900B5EEFF0900B5FEDF021
:106FC100900B607408F0900B5FE0FF7E00900B6106
:106FD100EEF0A3EFF0900B61E0FEA3E0FFEF7F0086
:106FE100FE900B61EEF0A3EFF0900B61E0FEA3E0E9
:106FF100FF900B5EE0FD7C00EE4CFEEF4DFF900B31
:1070010061EEF0A3EFF07B017A0B7960124EC1EFD4
:08701100B402037F02227F009C
:017019002254
:0A701A00900B63EFF0900B64EDF0B3
:10702400900B657482F0900B64E0FF7E00900B6619
:10703400EEF0A3EFF0900B66E0FEA3E0FFEF7F001D
:10704400FE900B66EEF0A3EFF0900B66E0FEA3E07B
:10705400FF900B63E0FD7C00EE4CFEEF4DFF900BC8
:1070640066EEF0A3EFF07B017A0B7965124EC1EF67
:08707400B402037F02227F0039
:01707C0022F1
:0583CA00900C0BEFF028
:1083CF00900C0C7475F0900C0BE0FF7E00900C0D70
:1083DF00EEF0A3EFF07B017A0C790C124EC1EFB4E3
:0783EF0002037F02227F0060
:0183F6002264
:08818C00900B68EEF0A3EFF088
:10819400900B6A7404F0900B68E0FEA3E0FF900B70
:1081A4006BEEF0A3EFF07B017A0B796A124EC1EF0C
:0881B400B402037F02227F00E8
:0181BC0022A0
:0583F700900C0FEFF0F7
:1083FC00900C107470F0900C0FE0FF7E00900C113C
:10840C00EEF0A3EFF07B017A0C7910124EC1EFB4B1
:07841C0002037F02227F0032
:018423002236
:05842400900C13EFF0C5
:10842900900C14740EF0900C13E0FF7E00900C1564
:10843900EEF0A3EFF07B017A0C7914124EC1EFB480
:0784490002037F02227F0005
:018450002209
:0A7C6700900B6DEFF0900B6EEDF046
:107C7100900B6DE0FF74F42FF582E43409F583E095
:107C8100FF900B6FEFF0900B6EE0FF7E00900B709A
:107C9100EEF0A3EFF07B017A0B796F124EC1EFB4D6
:077CA10002037F02227F00B5
:017CA80022B9
:0881BD00900B72EEF0A3EFF04D
:1081C500900B74740BF0900B72E0FEA3E0FF900B24
:1081D50075EEF0A3EFF07B017A0B7974124EC1EFC7
:0881E500B402037F02227F00B7
:0181ED00226F
:0881EE00900B77EEF0A3EFF017
:1081F600900B79740CF0900B77E0FEA3E0FF900BE8
:108206007AEEF0A3EFF07B017A0B7979124EC1EF8B
:08821600B402037F02227F0085
:01821E00223D
:0100260022B7
:08821F00900B7CEEF0A3EFF0E0
:10822700900B7E7450F0900B7CE0FEA3E0FF900B68
:108237007FEEF0A3EFF07B017A0B797E124EC1EF50
:08824700B402037F02227F0054
:01824F00220C
:08825000900B81EEF0A3EFF0AA
:10825800900B837451F0900B81E0FEA3E0FF900B2C
:1082680084EEF0A3EFF07B017A0B7983124EC1EF15
:08827800B402037F02227F0023
:0182800022DB
:08828100900B86EEF0A3EFF074
:10828900900B887483F0900B86E0FEA3E0FF900BBF
:1082990089EEF0A3EFF07B017A0B7988124EC1EFDA
:0882A900B402037F02227F00F2
:0182B10022AA
:0882B200900B8BEEF0A3EFF03E
:1082BA00900B8D7480F0900B8BE0FEA3E0FF900B87
:1082CA008EEEF0A3EFF07B017A0B798D124EC1EF9F
:0882DA00B402037F02227F00C1
:0182E2002279
:1085B20012883A900D06EFF0900D06E0FFEF64038B
:1085C200600F900D06E0FFEFB401037F00227F02EF
:0385D200227F0104
:0185D5002283
:0B7F1A00900B90EBF0A3EAF0A3E9F05D
:107F25007B017A0B79931270DCEF6403601E900B72
:107F350093E0FEA3E0FF7E00900B90E0FBA3E0FA48
:0E7F4500A3E0F9EE8FF0121EB77F00227F013D
:017F5300220B
:106E1000900A60EEF0A3EFF0900A62ECF0A3EDF0C0
:106E2000900A64EAF0A3EBF0900A60E0FEA3E0FFB2
:106E30009009E9EEF0A3EFF0900A62E0FEA3E0FF14
:106E40009009EBEEF0A3EFF0900A64E0FEA3E0FF00
:106E50009009EDEEF0A3EFF0900A66E0FEA3E0FFEC
:106E60009009EFEEF0A3EFF0900A68E0FF9009F1CF
:0D6E7000EFF0900A69E0FF9009F2EFF022C8
:05213000900A4BEFF0E6
:10213500900A4BE0FFEF12208021900021DD012164
:10214500EF02221B03222D04225905227F0622922B
:102155000722E10822F40923220A23350B23630C05
:1021650023760D239E0E23B10F23C31023FC1124C8
:102175000E12243A13246014248D1524A11624E686
:0B2185001724F818252A190000257403
:10219000900A5374C8F0900A547484F0900A55E47D
:1021A000F07B017A0A79539009F1E0FF900A2EEF53
:1021B000F09009F2E0FF900A2FEFF0900A307401DE
:1021C000F07D037C001233F7EF700C9009F374017B
:0D21D000F07F01127F8D227F00127F8D2293
:1021DD00128710EF70067F02127F8D227F01127F12
:1021ED008D221285B2900A4CEFF0900A4CE0FFEF71
:1021FD0064016014900A4CE0FFEF70067F03127FBC
:10220D008D227F01127F8D227F02127F8D221287F8
:10221D00B9EF70067F04127F8D227F03127F8D220E
:10222D001285B2900A4CEFF0900A4CE0FFEF64017A
:10223D006014900A4CE0FFEF70067F05127F8D222F
:10224D007F03127F8D227F04127F8D22900A4E74A0
:10225D0004F0900A4FE4F0A3E4F07B017A0A794E82
:10226D00124EC1EF70067F06127F8D227F05127F01
:10227D008D2212883AEFB401067F0B127F8D227FDB
:10228D0006127F8D22900A4E7435F09009E9E0FE1A
:10229D00A3E0FFE4FCFD7B107A0079007800121FAB
:1022AD0003A804A905AA06AB077F557EA07DFC7C7B
:1022BD0001127BE1900A4FEEF0A3EFF07B017A0A59
:1022CD00794E124EC1EF70067F08127F8D227F0767
:1022DD00127F8D2212883AEFB401067F09127F8D8D
:1022ED00227F08127F8D22900A4E7431F09009EDF5
:1022FD00E0FEA3E0FF900A4FEEF0A3EFF07B017A32
:10230D000A794E124EC1EF70067F0A127F8D227F21
:10231D0009127F8D2212883AEFB401067F0D127FCC
:10232D008D227F0A127F8D22900A4E7436F090090D
:10233D00EFE0FEA3E0FF900A4FEEF0A3EFF07B017C
:10234D007A0A794E124EC1EF70067F0C127F8D22E4
:10235D007F0B127F8D2212883AEFB401067F071290
:10236D007F8D227F0C127F8D22900A4E7404F09087
:10237D000A4F7403F0A3743BF07B017A0A794E1275
:10238D004EC1EF70067F0E127F8D227F0D127F8D55
:10239D002212883AEFB401067F0F127F8D227F0E35
:1023AD00127F8D22128732EF70067F10127F8D22E1
:1023BD007F0F127F8D221285B2900A4CEFF0900A9A
:1023CD004CE0FFEF64016021900A4CE0FFEF7013C9
:1023DD007F11127F8D9009EBE0FCA3E0FD7FFF12D2
:1023ED005513227F0F127F8D227F10127F8D2212A7
:1023FD0087B9EF70067F12127F8D227F11127F8DAC
:10240D00221285B2900A4CEFF0900A4CE0FFEF6477
:10241D00016014900A4CE0FFEF70067F13127F8D60
:10242D00227F11127F8D227F12127F8D22900A4EF4
:10243D007404F0900A4FE4F0A3E4F07B017A0A797A
:10244D004E124EC1EF70067F14127F8D227F131234
:10245D007F8D2212883A900A4DEFF0900A4DE0FFE1
:10246D00EF64036015900A4DE0FFEFB401067F1590
:10247D00127F8D227F13127F8D227F14127F8D226A
:10248D007F041260E7EF70067F16127F8D227F1595
:10249D00127F8D227B017A0A79511270DC900A4DE0
:1024AD00EFF0900A4DE0FFEF64036027900A4DE0D6
:1024BD00FFEFB40118900A51E0FEA3E0FFEF4E705C
:1024CD00067F17127F8D227F13127F8D227F1512AB
:1024DD007F8D227F16127F8D22128710EF70067F5F
:1024ED0018127F8D227F17127F8D221285B2900ACE
:1024FD004CEFF0900A4CE0FFEF6401601A900A4C2B
:10250D00E0FFEF700C9009E8E004F07F19127F8D69
:0D251D00227F17127F8D227F18127F8D22E2
:10252A00900A5374E4F09009E8E0FF900A54EFF03F
:10253A007B017A0A79539009F1E0FF900A2EEFF0B5
:10254A00900A2FE4F0900A30E4F07D027C00123306
:10255A00F7EF70109009F3E4F07F00127F8D7FFF90
:0A256A00127EA4227F19127F8D2239
:052574007F00127F8DC5
:01257900223F
:068A89009009F3E0FF225A
:068A8F009009E8E0FF225F
:1087FB00900CEBEFF0900CECEDF0900CEBE0FF90AD
:10880B000CECE0FD12630CEF70037F00227F022261
:05834000900CEDEFF0D0
:10834500900CEDE0FF1284CC900CEEEFF0900CEE6B
:10835500E0FFEF6403600F900CEEE0FFEFB4010364
:088365007F00227F02227F014C
:01836D0022ED
:10885800900CC8EBF0A3EAF0A3E9F0900CC8E0FB99
:0E886800A3E0FAA3E0F97D077F0012651E224F
:057F5400900C17EFF096
:107F5900900C187476F0900C17E0FFEF600A900C03
:107F690019E4F0A3E4F08009900C19E4F0A3740378
:107F7900F07B017A0C7918124EC1EFB402037F022B
:037F8900227F0054
:017F8C0022D2
:0A8A2B0053D4F853D4E743D480225B
:10854200900CEFEEF0A3EFF0900CEFE0FEA3E0FF53
:10855200EF54FFF5D2900CEFE0FEA3E0FF7F00EEB8
:06856200FF7E008FD32212
:0A8A350053D7F853D7E743D7802248
:10856800900CF1EEF0A3EFF0900CF1E0FEA3E0FF29
:10857800EF54FFF5D5900CF1E0FEA3E0FF7F00EE8D
:06858800FF7E008FD622E9
:0C8A07009008417402F0900842E4F02254
:0D4DEC00900AB3EFF0900AB4ECF0A3EDF0E4
:104DF9001289D2EFB401037F02229008417404F0B2
:104E0900900AB4E0FEA3E0FF900AB8EFF0900AB46C
:104E1900E0FEA3E0FFEE5401FE7F00EF7803C33309
:104E2900CE33CED8F9FF900AB7EFF0900AB7E0FF7A
:104E3900EF4403FF900AB6EFF0128A54AE02AF01B5
:104E4900900AB9EEF0A3EFF0900AB6E0FF900AB924
:104E5900E0FCA3E0FD8D828C83EFF0900AB8E0FFBF
:104E6900900AB9E0FCA3E0FD8D828C83A3EFF0905A
:104E79000AB9E0FEA3E0FF8F828E83A3A3E4F0C208
:104E890096900AB3E0FF7D011271977B017A087948
:104E990043C003C002C0017BFF7A867985900AB0BE
:104EA900EBF0A3EAF0A3E9F0D001D002D0037F032D
:074EB9007E00126D327F0044
:014EC00022CF
:1043D300900A6AEFF0900A6BECF0A3EDF0900A6D8F
:0243E300EBF0FD
:1043E5001289D2EFB401037F02229008417404F0D0
:1043F500900A6BE0FEA3E0FF900A70EFF0900A6B65
:10440500E0FEA3E0FFEE5401FE7F00EF7803C33327
:10441500CE33CED8F9FF900A6FEFF0900A6FE0FF28
:10442500EF4403FF900A6EEFF0128A54AE02AF011B
:10443500900A72EEF0A3EFF0900A6EE0FF900A7218
:10444500E0FCA3E0FD8D828C83EFF0900A70E0FF25
:10445500900A72E0FCA3E0FD8D828C83A3EFF090BF
:104465000A71E4F0900A6DE0FF900A71E0FEEEC378
:104475009F502F900A71E0FF7E00EF2402FFEE347B
:1044850000FE900A72E0FCA3E0FD8D828C83E5823C
:104495002FF582E5833EF583E4F0900A71E004F0A0
:1044A50080C2C296900A6AE0FF7D01127197900A58
:1044B5006DE0FF7E00EF2402FFEE3400FE7B017A03
:1044C500087943C003C002C0017BFF7A86798590D5
:1044D5000AB0EBF0A3EAF0A3E9F0D001D002D003D3
:0544E500126D327F00A2
:0144EA0022AF
:1048B500900A92EFF0900A93ECF0A3EDF0900A9530
:0248C500EBF016
:1048C700900A92E0FF7D001271979008417404F0FE
:1048D700900A93E0FEA3E0FF900A98EFF0900A9306
:1048E700E0FEA3E0FFEE5401FE7F00EF7803C33341
:1048F700CE33CED8F9FF900A97EFF0900A97E0FFF2
:10490700EF4402FF900A96EFF0128A54AE02AF010D
:10491700900A99EEF0A3EFF0900A96E0FF900A99BB
:10492700E0FCA3E0FD8D828C83EFF0900A98E0FF16
:10493700900A99E0FCA3E0FD8D828C83A3EFF090B1
:104947000A95E0FF900A99E0FCA3E0FD8D828C8335
:10495700A3A3EFF0900842E4F0900A92E0FF7D01F4
:104967001271977B017A087943C003C002C0017BAB
:10497700FF7A867985900AB0EBF0A3EAF0A3E9F015
:0F498700D001D002D0037F037E00126D327F007B
:0149960022FE
:103BC600900A04EFF0900A05ECF0A3EDF0900A07D6
:083BD600EBF0A3EAF0A3E9F013
:103BDE00900A04E0FF7D001271979008417404F082
:103BEE00900A0AE0FF7E00900A05E0FCA3E0FDEFDC
:103BFE002DFFEE3CFEEF24FFFFEE34FFFEEEC4F889
:103C0E0054F0C868FCEFC4540F48FD900A05E0FE5E
:103C1E00A3E0FFEEC4F854F0C868FEEFC4540F489A
:103C2E00FFD3ED9FEC9E40037F0322900A05E0FE3A
:103C3E00A3E0FF900A0DEFF0900A05E0FEA3E0FF6F
:103C4E00EE5401FE7F00EF7803C333CE33CED8F9A6
:103C5E00FF900A0CEFF0900A0CE0FFEF4402FF9089
:103C6E000A0BEFF0128A54AE02AF01900A0FEEF07B
:103C7E00A3EFF0900A0BE0FF900A0FE0FCA3E0FD2B
:103C8E008D828C83EFF0900A0DE0FF900A0FE0FC1E
:103C9E00A3E0FD8D828C83A3EFF0900A0EE4F090EA
:103CAE000A0AE0FF900A0EE0FEEEC39F504A900A09
:103CBE0007E0FBA3E0FAA3E0F9900A0EE0FF8F8283
:103CCE00758300121D0BFF900A0EE0FEEEFD7C00C8
:103CDE00ED2402FDEC3400FC900A0FE0FAA3E0FBA9
:103CEE008B828A83E5822DF582E5833CF583EFF0A6
:103CFE00900A0EE004F080A7900842E4F0900A04C7
:103D0E00E0FF7D01127197900A0AE0FF7E00EF241A
:103D1E0002FFEE3400FE7B017A087943C003C00235
:103D2E00C0017BFF7A867985900AB0EBF0A3EAF0AA
:0E3D3E00A3E9F0D001D002D003126D327F0055
:013D4C002254
:056C5000900CCBEFF0F9
:106C55001289D2EFB401037F02229008417404F037
:106C6500D2969008427401F0128A54AE02AF019098
:106C75000CCCEEF0A3EFF0900CCCE0FEA3E0FF8F80
:106C8500828E837406F0900CCBE0FF7D0112719724
:106C95007B017A087943C003C002C0017BFF7A8675
:106CA5007985900AB0EBF0A3EAF0A3E9F0D001D022
:0C6CB50002D0037F017E00126D327F00D0
:016CC10022B0
:10868500C0D075D018900D07EFF0900D07E0FFEF03
:1086950070089008417401F080069008417402F05A
:0386A500D0D02210
:10641700900B95EFF0900B96EBF0A3EAF0A3E9F061
:10642700900841E0FFEFB404037F0422900841E0A5
:10643700FFEF6401704C900B99E0FFEFB4011690E9
:106447000845E0FF900B96E0FBA3E0FAA3E0F9EF25
:10645700121D8D802D900B99E0FF7E007B017A083D
:106467007945C003C002C001900B96E0FBA3E0FA98
:10647700A3E0F9A801AC02AD03D001D002D003120A
:106487001CCC900B95E0FF7D0012719712000E90C7
:056497000841E0FF22B6
:10836E00900D08EFF0900841E0FFEFB404037F0496
:10837E0022900D08E0FF7D00127197900842E0FFF9
:0E838E00EF7005C29612000E900841E0FF222B
:106F5300900AD8EBF0A3EAF0A3E9F0900ADBEDF096
:106F6300900ADDE4F0A3E4F0900ADCE4F0900ADB9D
:106F7300E0FF900ADCE0FEEEC39F502F900AD8E0BA
:106F8300FBA3E0FAA3E0F9900ADCE0FF8F827583AC
:106F930000121D0BFF7E00900ADEE02FF0900ADD49
:106FA300E03EF0900ADCE004F080C2900ADDE0FEEF
:036FB300A3E0FF59
:016FB60022B8
:0F89A7007BFF7A7279AE126E7D900C22EFF02278
:0572AE00900C1BEFF045
:1072B300900C1BE0FFEF12208072C60072EC0100FD
:0372C3000073084D
:1072C600900C1C7406F0900C1DE4F0A3E4F07B0116
:1072D6007A0C791C124EC1EF70067F01127F8D2247
:0672E6007F00127F8D22E3
:1072EC0012883AEF6403600F7F00127F8D7DF47C6F
:0C72FC00017FFF125513227F01127F8DCD
:017308002262
:068A9500900C22E0FF221C
:1086A8007BFF7A8779DA126E7D900C20EFF07BFFE2
:1086B8007A7B7959126E7D900C1FEFF0900C217423
:0386C80001F0229C
:10894900900C21E0FFEF600C900C20E0FF7D607C33
:05895900EA1255132293
:1087DA00900D09EFF0128A627DFF7CFF7F00127B09
:1087EA0014900C1FE0FF7D00127E2A7FFF127EA4E8
:0187FA00225C
:10839C00900D0AEFF0900D0AE0FFEF6013900C21A6
:1083AC007401F0900C20E0FF7D607CEA12551322E2
:0E83BC00900C21E4F0900C20E0FF127EA42231
:057B5900900D0BEFF0A0
:107B5E00900D0BE0FFEF1220807B71007B85010002
:107B6E00007B977F00127C25EF70067F01127F8DC0
:107B7E00227F00127F8D221289C4EF70067FFF12C2
:0E7B8E007EA4227F01127F8D227F00127F8D48
:017B9C0022C6
:10897100539EFC439E01539EF3439E04439E8043BA
:03898100E1802270
:10898400539FFC439F01539FF3439F04439F8043A2
:03899400E20122DB
:107A4100128A2B128A35128971128984D288D28ABC
:107A510043E20443E2107BFF7A4C7939126E7D9048
:107A61000AC2EFF0900ABBE4F0900ABCE4F0900A7D
:107A7100BDE4F0A3E4F0900ABF7401F0900AC0E401
:077A8100F0900AC1E4F022BD
:107ACE00900B9AEEF0A3EFF0900B9CECF0A3EDF080
:107ADE00900B9EEBF0900B9AE0FEA3E0FF12854216
:107AEE00900B9AE0FEA3E0FF128568900B9CE0FEDF
:107AFE00A3E0FF900ABDEEF0A3EFF0900B9EE0FF27
:067B0E00900ABFEFF02217
:107DEB00900D0CEFF0900D0CE0FFEF6026900ABBAE
:107DFB00E4F0900ABCE4F0900AC0E4F0900AC1E40D
:107E0B00F0C289C28B12001E900AC2E0FF7D0012E5
:0F7E1B007E2A22120016900AC2E0FF127EA422D5
:054C3900900CCEEFF02D
:104C3E00900CCEE0FFEF1220804C51004CCF0100C3
:104C4E00004D0E900CCFE4F0120016900ABBE0FF60
:104C5E00EF7008900ABCE0FFEF604E900ABBE0FFD9
:104C6E00EF601F900ABBE4F0900ABFE0FF900AC00D
:104C7E00E0FEEEC39F400B900AC0E4F0900CCF74A0
:104C8E0001F0900ABCE0FFEF601F900ABCE4F090C8
:104C9E000ABFE0FF900AC1E0FEEEC39F400B900AF0
:104CAE00C1E4F0900CCF7401F012001E900CCFE016
:104CBE00FFEF60077F01127F8D80067F00127F8DD0
:014CCE0022C3
:104CCF00900CD074E7F07B017A0C79D0900A2E7497
:104CDF0001F0900A2FE4F0900A30E4F07D017C009F
:104CEF001233F7EF70137F00127F8D900ABDE0FC37
:0F4CFF00A3E0FD7FFF125513227F01127F8D224C
:054D0E007F00127F8D03
:014D1300227D
:0300030002891758
:10891700C0E0C083C082900ABB7401F0900AC0E037
:0989270004F0D082D083D0E032CC
:030013000289302F
:10893000C0E0C083C082900ABC7401F0900AC1E01C
:0989400004F0D082D083D0E032B3
:03001600C2A8225B
:03001E00D2A82243
:0C723B0041053800410591004105340078
:102F4600128A70AE02AF019005DFEEF0A3EFF090AB
:102F560005DFE0FEA3E0FFAA06A9077B01126CC20B
:102F66007BFF7A66791E126E7D9005C9EFF07BFFB6
:102F76007A5C795A126E7D9005D2EFF07BFF7A5912
:102F860079E7126E7D900545EFF07BFF7A4B795914
:102F9600126E7D90057BEFF07BFF7A52790D126EF3
:102FA6007D90056DEFF07BFF7A40792B126E7D9058
:102FB60005B5EFF07BFF7A64799C126E7D90055023
:102FC600EFF07BFF7A507968126E7D9005B4EFF0D2
:102FD6007BFF7A5C79F3126E7D9005EAEFF07BFF5A
:102FE6007A547956126E7D90053EEFF07BFF7A2972
:102FF600792B126E7D900586EFF07BFF7A3879206B
:10300600126E7D9005C7EFF07BFF7A4579F2126E5E
:103016007D90059AEFF07BFF7A5779E6126E7D90E8
:103026000585EFF07BFF7A67791D126E7D9005B3FB
:10303600EFF07BFF7A767956126E7D9005A5EFF05C
:103046007BFF7A677999126E7D90059BEFF07BFF87
:103056007A7679A5126E7D9005C8EFF07BFF7A76B9
:1030660079F4126E7D900535EFF07BFF7A77794320
:10307600126E7D90058FEFF07BFF7A687915126EE0
:103086007D900587EFF07BFF7A797966126E7D90E9
:10309600058AEFF07BFF7A7479BD126E7D9005E5A7
:1030A600EFF07BFF7A737962126E7D9005B8EFF0D0
:1030B6007BFF7A777992126E7D9005CEEFF07BFFDB
:1030C6007A587991126E7D900584EFF07BFF7A59DC
:1030D600793C126E7D9005B2EFF07BFF7A3A790368
:1030E600126E7D900576EFF07BFF7A217930126EB5
:1030F6007D900540EFF07BFF7A757967126E7D90C3
:103106000592EFF07BFF7A6E79E9126E7D9005D31A
:10311600EFF07BFF7A5A7989126E7D900578EFF091
:103126007BFF7A7B799D126E7D900553EFF07BFFD6
:103136007A497997126E7D9005AFEFF07BFF7A683A
:103146007991126E7D9005A4EFF07BFF7A69790D77
:10315600126E7D9005D1EFF07BFF7A4D7914126ED9
:103166007D9005DEEFF07BFF7A7779E1126E7D9038
:103176000577EFF07BFF7A757913126E7D90057EE9
:10318600EFF07BFF7A787930126E7D90053FEFF095
:103196007BFF7A7579B7126E7D90053DEFF07BFF68
:1031A6007A78797F126E7D900590EFF07BFF7A56E4
:0B31B6007987126E7D9005E9EFF02292
:05659E00900B9FEFF0DF
:1065A3009005DFE0FEA3E0FFAA06A9077B01127DA9
:1065B3006C900BA0EEF0A3EFF0900BA0E0FEA3E035
:1065C300FFEF64FF7003EE64FF60479005DFE0FEBA
:1065D300A3E0FFAA06A9077B01900BA0E0FCA3E0C0
:1065E300FD1261FFAE02AF01900BA2EEF0A3EFF03C
:1065F300900BA2E0FEA3E0FFAA06A9077B0112000D
:10660300A69005DFE0FEA3E0FFAA06A9077B01121F
:0A661300669E900B9FE0FF127F8D42
:01661D00225A
:0B00A600900A74EBF0A3EAF0A3E9F06D
:1000B100900A74E0FBA3E0FAA3E0F9121CF2FF90AE
:1000C1000A79EFF0900A74E0FBA3E0FAA3E0F97576
:1000D1008201758300121D0BFF900A7AEFF0900ADE
:1000E10074E0FBA3E0FAA3E0F975820375830012C3
:1000F1001D0BFF900A77EFF0900A74E0FBA3E0FA82
:10010100A3E0F9758202758300121D0BFF900A7836
:10011100EFF0900A79E0FFEFB40103128949900AE8
:1001210077E0FFEF12208001B30101D26402E065A4
:1001310002FF66031E6703B06803CF6903EE6A041A
:100141007C6B049B6C04BA6D04D96E052A6F058A19
:100151007005A971065272069873082074083F75DC
:10016100094D76096C77098B7809AA7C09E87D0A23
:1001710007800A81810AD0820AEF830B0E840C1951
:10018100850C84860CA3870CC2880E7F890ED08AC9
:100191000F2E8B0F4D8C0FA88D09C98F0FF9901061
:1001A100BE97104A9812219911239A11AD9B000014
:1001B10012C6900A79E0FF90057CEFF0900A78E092
:1001C100FF90057DEFF0900553E0FF7D00127E2A40
:0101D100220B
:1001D200900A74E0FBA3E0FAA3E0F9E92404F9EA47
:1001E2003400FAAE02AF01900A7BEEF0A3EFF0907A
:1001F2000A7BE0FEA3E0FFAA06A9077B01C003C0B9
:1002020002C001900A7BE0FEA3E0FFAA06A9077BD9
:1002120001900A14EBF0A3EAF0A3E9F0900A17E4C4
:10022200F0A3740CF0D001D002D0031247CC900A94
:100232007BE0FEA3E0FFEF241AFFEE3400FEAA06E5
:10024200A9077B01126BDC900A7BE0FEA3E0FFEFC3
:100252002418FFEE3400FEAA06A9077B01126BDC0C
:10026200900A7BE0FEA3E0FFAA06A9077B01900AA1
:100272007BE0FEA3E0FF8F828E83E5822418F58265
:10028200E5833400F583E0FEA3E0FF900A45EEF03B
:10029200A3EFF0900A7BE0FEA3E0FF8F828E83E55E
:1002A20082241AF582E5833400F583E0FEA3E0FFA1
:1002B200900A47EEF0A3EFF07D0C7F00125BC09036
:1002C2000A79E0FF90055BEFF0900A78E0FF900575
:0E02D2005CEFF0900535E0FF7D00127E2A22E1
:1002E000900A79E0FF9005E3EFF0900A78E0FF9044
:1002F00005E4EFF09005B3E0FF7D00127E2A229026
:100300000A79E0FF90053BEFF0900A78E0FF900556
:0E0310003CEFF09005C9E0FF7D00127E2A222E
:10031E00900A74E0FBA3E0FAA3E0F9E92404F9EAF9
:10032E003400FAAE02AF01900A7BEEF0A3EFF0902C
:10033E000A7BE0FEA3E0FFAA06A9077B01C003C06B
:10034E0002C001900A7BE0FEA3E0FFAA06A9077B8C
:10035E0001900A14EBF0A3EAF0A3E9F0900A17E477
:10036E00F0A3740CF0D001D002D0031247CC900A47
:10037E007BE0FEA3E0FFAA06A9077B017D0C7F00B0
:10038E00126A01900A79E0FF9005CCEFF0900A789E
:10039E00E0FF9005CDEFF09005A5E0FF7D00127E09
:0203AE002A2201
:1003B000900A79E0FF9005B6EFF0900A78E0FF90A0
:1003C00005B7EFF090059BE0FF7D00127E2A22909A
:1003D0000A79E0FF9005A2EFF0900A78E0FF90051F
:0E03E000A3EFF0900587E0FF7D00127E2A2239
:1003EE00900A74E0FBA3E0FAA3E0F9E92404F9EA29
:1003FE003400FAAE02AF01900A7BEEF0A3EFF0905C
:10040E000A7BE0FEA3E0FFAA06A9077B01C003C09A
:10041E0002C001900A7BE0FEA3E0FFAA06A9077BBB
:10042E0001900A14EBF0A3EAF0A3E9F0900A17E4A6
:10043E00F0A37402F0D001D002D0031247CC900A80
:10044E007BE0FEA3E0FFAA06A9077B011273BA9018
:10045E000A79E0FF900541EFF0900A78E0FF9005F1
:0E046E0042EFF09005CEE0FF7D00127E2A22C4
:10047C00900A79E0FF9005CFEFF0900A78E0FF90BA
:10048C0005D0EFF090058AE0FF7D00127E2A2290C5
:10049C000A79E0FF900551EFF0900A78E0FF9005A3
:1004AC0052EFF09005E5E0FF7D00127E2A22900AC3
:1004BC0079E0FF900536EFF0900A78E0FF90053771
:0D04CC00EFF09005B8E0FF7D00127E2A22BF
:1004D900900A74E0FBA3E0FAA3E0F9E92404F9EA3D
:1004E9003400FAAE02AF01900A7BEEF0A3EFF09070
:1004F9000A79E0FF9005E6EFF0900A78E0FF9005B1
:10050900E7EFF0900A7BE0FEA3E0FF8F828E83E0A5
:10051900FF9005E8EFF09005B4E0FF7D00127E2A18
:0105290022AF
:10052A00900A74E0FBA3E0FAA3E0F9E92404F9EAEB
:10053A003400FAAE02AF01900A7BEEF0A3EFF0901E
:10054A000A79E0FF900557EFF0900A78E0FF9005EE
:10055A0058EFF0900A7BE0FEA3E0FF8F828E83E0E3
:10056A00FEA3E0FF900559EEF0A3EFF07B017A05B8
:10057A007959126BDC9005EAE0FF7D00127E2A228F
:10058A00900A79E0FF900570EFF0900A78E0FF900A
:0F059A000571EFF090053EE0FF7D00127E2A22F2
:1005A900900A74E0FBA3E0FAA3E0F9E92404F9EA6C
:1005B9003400FAAE02AF01900A7BEEF0A3EFF0909F
:1005C9000A79E0FF900539EFF0900A78E0FF90058D
:1005D9003AEFF0900A7BE0FEA3E0FFAA06A9077BA9
:1005E90001126BDC900A7BE0FEA3E0FFEF2402FF1F
:1005F900EE3400FEAA06A9077B01126BDC900A7B88
:10060900E0FEA3E0FF8F828E83E0FEA3E0FF900A65
:100619007BE0FCA3E0FD8D828C83A3A3E0FCA3E037
:10062900FD900A7BE0FAA3E0FB8B828A83E58224B2
:1006390004F582E5833400F583E0FB127ACE900558
:09064900C8E0FF7D00127E2A22A8
:10065200900A7B74C8F0900A7C7472F0900A7DE470
:10066200F07B017A0A797B900A79E0FF900A2EEFFB
:10067200F0900A78E0FF900A2FEFF0900A307401B0
:10068200F07D037C001233F7EF70D67F0F7E0012ED
:0606920084F475EF022262
:10069800900A74E0FBA3E0FAA3E0F9E92404F9EA7C
:1006A8003400FAAE02AF01900A7BEEF0A3EFF090AF
:1006B8000A79E0FF9005B9EFF0900A78E0FF90051D
:1006C800BAEFF0900A7BE0FEA3E0FF8F828E83E012
:1006D800FF9005BBEFF0900A7BE0FEA3E0FF8F825E
:1006E8008E83A3E0FF9005BCEFF0900A7BE0FEA3A9
:1006F800E0FF8F828E83A3A3E0FF9005BDEFF0900B
:100708000A7BE0FEA3E0FF8F828E83A3A3A3E0FF12
:100718009005BEEFF0900A7BE0FEA3E0FF8F828E8B
:1007280083E5822404F582E5833400F583E0FF90B5
:1007380005BFEFF0900A7BE0FEA3E0FF8F828E8377
:10074800E5822405F582E5833400F583E0FF900512
:10075800C0EFF0900A7BE0FEA3E0FF8F828E83E576
:10076800822406F582E5833400F583E0FF9005C115
:10077800EFF0900A7BE0FEA3E0FF8F828E83E58294
:100788002407F582E5833400F583E0FF9005C2EF86
:10079800F0900A7BE0FEA3E0FF8F828E83E582243F
:1007A80008F582E5833400F583E0FF9005C3EFF098
:1007B800900A7BE0FEA3E0FF8F828E83E582240906
:1007C800F582E5833400F583E0FF9005C4EFF090EF
:1007D8000A7BE0FEA3E0FF8F828E83E582240AF580
:1007E80082E5833400F583E0FF9005C5EFF0900AB9
:1007F8007BE0FEA3E0FF8F828E83E582240BF582E7
:10080800E5833400F583E0FF9005C6EFF090058698
:08081800E0FF7D00127E2A22A0
:10082000900A79E0FF90059EEFF0900A78E0FF9043
:0F083000059FEFF0900584E0FF7D00127E2A22E5
:10083F00900A74E0FBA3E0FAA3E0F9E92404F9EAD3
:10084F003400FAAE02AF01900A7BEEF0A3EFF09006
:10085F000A79E0FF900561EFF0900A78E0FF9005CC
:10086F0062EFF0900A7BE0FEA3E0FF8F828E83E0C1
:10087F00FEA3E0FF900563EEF0A3EFF07B017A0596
:10088F007963126BDC900A7BE0FEA3E0FF8F828E10
:10089F0083A3A3E0FEA3E0FF900565EEF0A3EFF0C6
:1008AF007B017A057965126BDC900A7BE0FEA3E091
:1008BF00FF8F828E83E5822404F582E5833400F571
:1008CF0083E0FEA3E0FF900567EEF0A3EFF07B015E
:1008DF007A057967126BDC900A7BE0FEA3E0FF8F4D
:1008EF00828E83E5822406F582E5833400F583E06A
:1008FF00FEA3E0FF900569EEF0A3EFF07B017A0510
:10090F007969126BDC900A7BE0FEA3E0FF8F828E89
:10091F0083E5822408F582E5833400F583E0FEA3A6
:10092F00E0FF90056BEEF0A3EFF07B017A05796B9A
:0E093F00126BDC9005C7E0FF7D00127E2A22BD
:10094D00900A79E0FF9005B0EFF0900A78E0FF9003
:10095D0005B1EFF090059AE0FF7D00127E2A2290FE
:10096D000A79E0FF9005A0EFF0900A78E0FF90057E
:10097D00A1EFF0900585E0FF7D00127E2A22900AFE
:10098D0079E0FF900579EFF0900A78E0FF90057A15
:10099D00EFF0900550E0FF7D00127E2A22900A793B
:1009AD00E0FF9005AAEFF0900A78E0FF9005ABEF1D
:1009BD00F0900592E0FF7D00127E2A22900A79E0E8
:1009CD00FF90054BEFF0900A78E0FF90054CEFF0AB
:1009DD009005D3E0FF7D00127E2A22900A79E0FF78
:1009ED0090058DEFF0900A78E0FF90058EEFF09076
:0A09FD000578E0FF7D00127E2A223B
:100A0700900A74E0FBA3E0FAA3E0F9E92404F9EA09
:100A17003400FAAE02AF01900A7BEEF0A3EFF0903C
:100A27000A7BE0FEA3E0FFEF2401FFEE3400FEAAFD
:100A370006A9077B01126BDC900A7BE0FEA3E0FFAF
:100A47008F828E83E0FF900A7BE0FCA3E0FD8D821E
:100A57008C83A3E0FCA3E0FD127B14900A79E0FFEE
:100A67009005A6EFF0900A78E0FF9005A7EFF090C9
:0A0A7700058FE0FF7D00127E2A22A9
:100A8100900A74E0FBA3E0FAA3E0F9E92404F9EA8F
:100A91003400FAAE02AF01900A7BEEF0A3EFF090C2
:100AA1000A7BE0FEA3E0FF8F828E83E0FF127DEBE5
:100AB100900A79E0FF9005A8EFF0900A78E0FF90A6
:0F0AC10005A9EFF0900590E0FF7D00127E2A223C
:100AD000900A79E0FF9005E1EFF0900A78E0FF904E
:100AE00005E2EFF09005B2E0FF7D00127E2A229031
:100AF0000A79E0FF900588EFF0900A78E0FF900512
:0E0B000089EFF0900576E0FF7D00127E2A223C
:100B0E00900A74E0FBA3E0FAA3E0F9E92404F9EA01
:100B1E003400FAAE02AF01900A7BEEF0A3EFF09034
:100B2E000A7BE0FEA3E0FFAA06A9077B01126BDC9D
:100B3E00900A7BE0FEA3E0FFEF2402FFEE3400FEFE
:100B4E00AA06A9077B01126BDC900A7BE0FEA3E0EC
:100B5E00FFEF2404FFEE3400FEAA06A9077B011264
:100B6E006BDC900A7BE0FEA3E0FFEF2406FFEE3481
:100B7E0000FEAA06A9077B01126BDC900A7BE0FE41
:100B8E00A3E0FF8F828E83E0FEA3E0FFC006C007C6
:100B9E00900A7BE0FEA3E0FF8F828E83A3A3E0FC8E
:100BAE00A3E0FD900A7BE0FEA3E0FF8F828E83E53B
:100BBE00822404F582E5833400F583E0FAA3E0FB9A
:100BCE00900A7BE0FEA3E0FF8F828E83E5822406EF
:100BDE00F582E5833400F583E0FEA3E0FF900A661C
:100BEE00EEF0A3EFF0900A79E0FF900A68EFF09034
:100BFE000A78E0FF900A69EFF0D007D006126E1067
:0B0C0E00900540E0FF7D00127E2A22CE
:100C1900900A74E0FBA3E0FAA3E0F9E92404F9EAF5
:100C29003400FAAE02AF01900A7BEEF0A3EFF09028
:100C39000A79E0FF9005D4EFF0900A78E0FF90057B
:100C4900D5EFF0900A7BE0FEA3E0FFAA06A9077B97
:100C590001C003C002C0017B017A0579D6A801ACA5
:100C690002AD03D001D002D0037E007F08121CCC54
:0B0C79009005AFE0FF7D00127E2A22F4
:100C8400900A79E0FF9005CAEFF0900A78E0FF90AF
:100C940005CBEFF09005A4E0FF7D00127E2A2290A0
:100CA4000A79E0FF900543EFF0900A78E0FF9005A1
:0E0CB40044EFF09005D1E0FF7D00127E2A2271
:100CC200900A74E0FBA3E0FAA3E0F9E92404F9EA4C
:100CD2003400FAAE02AF01900A7BEEF0A3EFF012FD
:100CE2008A83128876EF6003020E60900A7BE0FE30
:100CF200A3E0FFEF2401FFEE3400FEAA06A9077B62
:100D020001126BDC900A7BE0FEA3E0FFEF2403FFFD
:100D1200EE3400FEAA06A9077B01126BDC900A7B67
:100D2200E0FEA3E0FFEF2405FFEE3400FEAA06A9D1
:100D3200077B0112513B900A7BE0FEA3E0FFEF2408
:100D420009FFEE3400FEAA06A9077B0112513B906F
:100D52000A7BE0FEA3E0FFEF240DFFEE3400FEAAC3
:100D620006A9077B0112513B900A7BE0FEA3E0FF3C
:100D7200EF2411FFEE3400FEAA06A9077B011251EF
:100D82003B900A7BE0FEA3E0FFEF2415FFEE340068
:100D9200FEAA06A9077B0112513B900A7BE0FEA343
:100DA200E0FFEF2419FFEE3400FEAA06A9077B013B
:100DB20012513B900A7BE0FEA3E0FFEF241DFFEE01
:100DC2003400FEAA06A9077B0112513B900A7BE080
:100DD200FEA3E0FFEF2421FFEE3400FEAA06A907DE
:100DE2007B0112513B900A7BE0FEA3E0FFEF24253A
:100DF200FFEE3400FEAA06A9077B0112513B900ABE
:100E02007BE0FEA3E0FFEF2429FFEE3400FEAA06FA
:100E1200A9077B0112513B900A79E0FF900A78E022
:100E2200FD900A7BE0FAA3E0FB8B828A83E0FBC0A1
:100E320003900A7BE0FAA3E0FBEB2401FBEA340017
:100E4200FAA9037B01900B1AEBF0A3EAF0A3E9F0F5
:100E5200D003125EAE128A837D00127E2A22900A8D
:100E620079E0FF90056EEFF0900A78E0FF90056F51
:0D0E7200EFF090053DE0FF7D00127E2A228A
:100E7F00900A74E0FBA3E0FAA3E0F9E92404F9EA8D
:100E8F003400FAAE02AF01900A7BEEF0A3EFF090C0
:100E9F000A79E0FF90054DEFF0900A78E0FF90059A
:100EAF004EEFF0900A7BE0FEA3E0FF8F828E83E08F
:100EBF00FF90054FEFF09005DEE0FF7D00127E2AD8
:010ECF002200
:100ED000900A74E0FBA3E0FAA3E0F9E92404F9EA3C
:100EE0003400FAAE02AF01900A7BEEF0A3EFF0906F
:100EF0000A7BE0FEA3E0FF8F828E83E0FF900A7BF7
:100F0000E0FCA3E0FD8D828C83A3E0FD1255CE9022
:100F10000A79E0FF90058BEFF0900A78E0FF9005EA
:0E0F20008CEFF0900577E0FF7D00127E2A2214
:100F2E00900A79E0FF90059CEFF0900A78E0FF9030
:0F0F3E00059DEFF090057EE0FF7D00127E2A22D8
:100F4D00900A74E0FBA3E0FAA3E0F9E92404F9EABE
:100F5D003400FAAE02AF01900A7BEEF0A3EFF090F1
:100F6D000A79E0FF900574EFF0900A78E0FF9005A4
:100F7D0075EFF0900A7BE0FEA3E0FF8F828E83E099
:100F8D00FFEF70077F0112839C80057F0012839C09
:0B0F9D0090053FE0FF7D00127E2A223D
:100FA800900A74E0FBA3E0FAA3E0F9E92404F9EA63
:100FB8003400FAAE02AF01900A7BEEF0A3EFF09096
:100FC8000A7BE0FEA3E0FF8F828E83E0FF90055648
:100FD800EFF0900A79E0FF900554EFF0900A78E07E
:100FE800FF900555EFF09005E9E0FF7D00127E2A9D
:010FF80022D6
:100FF900900A74E0FBA3E0FAA3E0F9E92404F9EA12
:101009003400FAAE02AF01900A7BEEF0A3EFF09044
:101019000A7BE0FEA3E0FF8F828E83E0FF9005AE9E
:10102900EFF0900A79E0FF9005ACEFF0900A78E0D4
:10103900FF9005ADEFF0900599E0FF7D00127E2A43
:011049002284
:10104A00900A74E0FBA3E0FAA3E0F9E92404F9EAC0
:10105A003400FAAE02AF01900A7BEEF0A3EFF090F3
:10106A000A79E0FF900549EFF0900A78E0FF9005D1
:10107A004AEFF0900A7BE0FEA3E0FF8F828E83E0C6
:10108A00FF900546EFF0900A7BE0FEA3E0FF8F8217
:10109A008E83A3E0FEA3E0FF900547EEF0A3EFF0F6
:1010AA007B017A057947126BDC9005D2E0FF7D005F
:0410BA00127E2A2256
:1010BE00900A74E0FBA3E0FAA3E0F9E92404F9EA4C
