:0CF6BB00900A7CE4F0900A7D74FFF022BD
:06D4C800901CA61229AB26
:10D4CE00900A7CE0FFEFC3947C40037FFF22900A1A
:10D4DE007CE0FF901CA9EFF0901CA61229A2901CD4
:10D4EE00A9E0FF75F00AEF9005A41229961229AB58
:10D4FE00901CA9E0FF75F00AEF9005A8122996E49A
:0CD50E00F0900A7CE004F0901CA9E0FF03
:01D51A0022EE
:10E61600901E37EFF0901E38EDF0901E37E0FF7534
:10E62600F00AEF9005A81229967402F0901E38E0C1
:10E63600FF901E37E0FE75F00AEE9005A7122996A8
:03E64600EFF022D0
:10E6AF00901E6FEFF0901E6FE0FFEFB4FF12900A15
:10E6BF007DE0FF75F00AEF9005A8122996E4F0228D
:10E6CF00901E6FE0FF75F00AEF9005A8122996E4EF
:02E6DF00F02227
:10EA1B00901E70EFF0901E70E0FF900A7DE0FE7587
:10EA2B00F00AEE9005A7122996EFF0900A7DE0FF11
:0EEA3B0075F00AEF9005A81229967402F022D9
:10A4AE00901DAAEFF0901DABECF0A3EDF0901DAA5D
:10A4BE00E0FFEF64FF704D900A7DE0FF75F00AEF4C
:10A4CE009005A81229967403F0900A7DE0FF7E0A8B
:10A4DE00EF8EF0A4FFAEF074A92FF974053EFA7B4F
:10A4EE0001C003C002C001901DABE0FEA3E0FF7CE3
:10A4FE00007D0A12254CAC06AD07D001D002D00368
:10A50E0012C72A22901DAAE0FF75F00AEF9005A847
:10A51E001229967403F0901DAAE0FF7E0AEF8EF0CA
:10A52E00A4FFAEF074A92FF974053EFA7B01C003A7
:10A53E00C002C001901DABE0FEA3E0FF7C007D0ACF
:10A54E0012254CAC06AD07D001D002D00312C72A9B
:01A55E0022DA
:108BE200901E71E4F0900A7CE0FF901E71E0FEEEB0
:108BF200C39F4003028CDB900A7CE0FF900A7DE079
:108C020004FEF0EEB50705900A7DE4F0900A7DE0DF
:108C1200FF75F00AEF9005A8122996E0FFEF6402B3
:108C2200703D900A7DE0FF75F00AEF9005A81229C9
:108C3200967401F0900A7DE0FF75F00AEF9005A7A7
:108C4200122996E0FF900A7DE0FE75F00AEE90058B
:108C5200A41229961229A289828A83122A0B2290AF
:108C62000A7DE0FF75F00AEF9005A8122996E0FF51
:108C7200EF6403705B900A7DE0FF7E0AEF8EF0A442
:108C8200FFAEF074A92FF974053EFA7B0112C2728D
:108C9200EF603D900A7DE0FF75F00AEF9005A812A3
:108CA20029967401F0900A7DE0FF75F00AEF9005B5
:108CB200A7122996E0FF900A7DE0FE75F00AEE9079
:108CC20005A41229961229A289828A83122A0B22CA
:098CD200901E71E004F0028BE732
:018CDB002276
:10F42300901E72EFF0901E72E0FF75F00AEF9005E8
:07F43300A8122996E0FF2258
:10F43A00901E73EFF0901E73E0FF75F00AEF9005CF
:07F44A00A7122996E0FF2242
:10B4DF00901DAD1229AB901DAD1229A27582037577
:10B4EF0083007495122518901DAD1229A275820143
:10B4FF00758300E4122518901DAD1229A2758202E2
:10B50F00758300E4122518901DAD1229A2758205CE
:10B51F00758300E4122518901DAD1229A2758204BF
:10B52F00758300E4122518901DAD1229A2E412258F
:10B53F0006901DAD1229A275820A758300E41225AB
:10B54F0018901DAD1229A275820B758300E4122588
:02B55F001822B0
:1095DB00C0D075D010901CAA1229AB901CADEDF029
:1095EB00901CAA1229A2758202758300122484FF93
:1095FB00901CAA1229A2758201758300122484FE85
:10960B00EEB51718901CAA1229A275820575830056
:10961B00122484FFEF60057F030296B3901CADE02C
:10962B00FF901CAA1229A275820175830012248453
:10963B00FEEEFD7C00901CAA1229A2E9240DF9EA8A
:10964B003400FAE92DF9EA3CFAEF122506901CAA30
:10965B001229A2758203758300122484FF901CAA21
:10966B001229A2758201758300122484FEEEC39F1A
:10967B005013901CAA1229A27582017583007401E4
:10968B001224D38010901CAA1229A2758201758313
:10969B0000E4122518901CAA1229A2758205758365
:0B96AB000074011224D37F01D0D022F4
:06926100901AA31229ABD4
:10926700901AA31229A2758205758300122484FF20
:10927700EF70067F032202933F901AA9E0FFEF7079
:109287000A12F53E901AAAEFF0800812F506901A16
:10929700AAEFF0901AA31229A27582027583001211
:1092A7002484FF7E00901AA31229A2E9240DF9EA6B
:1092B7003400FAE92FF9EA3EFA12246BFF901AA656
:1092C7001229A2EF122506901AA31229A27582036A
:1092D700758300122484FF901AA31229A2758202B3
:1092E700758300122484FEEEC39F5013901AA312B5
:1092F70029A275820275830074011224D38010900D
:109307001AA31229A2758202758300E41225189008
:109317001AA31229A275820575830074FF1224D33C
:10932700901AAAE0FFEF6010901AA9E0FFEF70050E
:0A93370012F550800312F5197F01B2
:019341002209
:10D51B00901DB01229AB901DB01229A27582037514
:10D52B0083007408122518901DB01229A27582026F
:10D53B00758300E4122518901DB01229A275820183
:10D54B00758300E4122518901DB01229A275820470
:10D55B00758300E4122518901DB01229A2E4122540
:02D56B00062296
:10E1A200901DB31229AB901DB31229A2758203757B
:10E1B2008300122484FF901DB31229A27582047574
:10E1C2008300122484FEEEB507057EFF7FFF2290B6
:10E1D2001DB31229A2758202758300122484FF7E68
:02E1E200002219
:10BA5300901B7F1229AB901B82ECF0A3EDF0901B9F
:10BA63007F1229A2758203758300122484FF7E004E
:10BA7300EF24FFFFEE34FFFE901B82E0FCA3E0FD0A
:10BA8300D3ED9FEE6480F8EC6480985010901B8295
:10BA9300E0FEA3E0FFC3EE6480948050077B007A4E
:10BAA30000790022901B7F1229A2E92406F9EA34C7
:10BAB30000FA901B82E0FEA3E0FF7C007D46122586
:08BAC3003AE92FF9EA3EFA22EC
:10D00800901DB61229AB901DB61229A27582037520
:10D018008300122484FF901DB61229A2758202751E
:10D02800830074011224D3FEEEB50710901DB612CA
:10D0380029A2758202758300E4122518901DB61284
:10D0480029A2E4122506901DB61229A2758204753C
:08D05800830074011224D322AD
:10E71300901DB91229AB901DB91229A275820475F7
:10E723008300122484FFEF70057EFF7FFF22901D7C
:10E73300B91229A2758201758300122484FF7E0019
:01E7430022B3
:10C60B00901DBC1229AB901DBC1229A2758204751A
:10C61B008300122484FFEF6047901DBC1229A27582
:10C62B008203758300122484FF901DBC1229A2750E
:10C63B00820175830074011224D3FEEEB5071090AE
:10C64B001DBC1229A2758201758300E41225189076
:10C65B001DBC1229A275820475830074FF1224D3AA
:01C66B0022AC
:10BACB00901B3D1229AB901B40ECF0A3EDF0901BAB
:10BADB003D1229A212246BFFEFC394465059901BC1
:10BAEB0042E0FFC007901B3D1229A2E92406F9EAA8
:10BAFB003400FA901B40E0FEA3E0FF7C007D461271
:10BB0B00253AE92FF9EA3EFAC003C002C001901BA7
:10BB1B003D1229A212246BFF7E00D001D002D0036C
:10BB2B00E92FF9EA3EFAD007EF122506901B3D12DA
:08BB3B0029A274011224B122B9
:10D56D009000007497F09000017497F07F0012F214
:10D57D0048AE02AF0190036AEEF0A3EFF07F011207
:10D58D00F248AE02AF019005A2EEF0A3EFF09003CA
:10D59D006AE0FEA3E0FFAA06A9077B0112B4DF90A3
:10D5AD0005A2E0FEA3E0FFAA06A9077B0112B4DFE6
:01D5BD00224B
:10DEE900901AAB1229AB901AAEECF0A3EDF0901A90
:10DEF900AB1229A2901AAEE0FCA3E0FD901AB0E0A3
:10DF0900FF90191AEFF090191B7404F0901AB1E000
:10DF1900FF90191CEFF0901AB2E0FF90191DEFF075
:09DF290090191EE4F012433C22A1
:0E433C009019151229AB901918ECF0A3EDF0B2
:10434A00901921E4F090191EE0FFEF701A7E007FA9
:10435A0002901923EEF0A3EFF07B017A0079009026
:10436A0019251229AB80187E027FD1901923EEF00D
:10437A00A3EFF07B017A0079019019251229AB90FD
:10438A00191DE0FFEF600C90191CE0FF901922EF55
:10439A00F0800F9019251229A212246BFF9019227E
:1043AA00EFF0901918E0FEA3E0FFD3EF9446EE94E5
:1043BA000040037F0122901923E0FEA3E0FF8F82D1
:1043CA008E837455F0901923E0FEA3E0FF8F828E4E
:1043DA0083A37433F090191F7406F090191BE0FF41
:1043EA0090191FE0FE04F0901923E0FCA3E0FD8D74
:1043FA00828C83E5822EF582E43583F583EFF09093
:10440A00191BE0FFEFB4552090191FE0FF04F0904C
:10441A001923E0FCA3E0FD8D828C83E5822FF582CF
:10442A00E43583F58374AAF090191AE0FF90191FF6
:10443A00E0FE04F0901923E0FCA3E0FD8D828C835A
:10444A00E5822EF582E43583F583EFF090191AE0C0
:10445A00FFEFB4552090191FE0FF04F0901923E0F4
:10446A00FCA3E0FD8D828C83E5822FF582E43583FF
:10447A00F58374AAF0901922E0FF90191FE0FE0458
:10448A00F0901923E0FCA3E0FD8D828C83E5822E57
:10449A00F582E43583F583EFF0901922E0FFEFB45B
:1044AA00552090191FE0FF04F0901923E0FCA3E0C7
:1044BA00FD8D828C83E5822FF582E43583F5837442
:1044CA00AAF090191DE0FFEF701A9019251229A27F
:1044DA0074011224B1FFEF700B9019251229A274EE
:1044EA0097122506901920E4F0901920E0FF7E002B
:1044FA00901918E0FCA3E0FDC3EF9DEE9C50749068
:10450A0019151229A2901920E0FF8F8275830012D3
:10451A002484FF90191FE0FE04F0901923E0FCA305
:10452A00E0FD8D828C83E5822EF582E43583F58366
:10453A00EFF09019151229A2901920E0FF8F8275C9
:10454A008300122484FFEFB4552090191FE0FF0462
:10455A00F0901923E0FCA3E0FD8D828C83E5822F85
:10456A00F582E43583F58374AAF0901920E004F00B
:10457A000244F390191FE0FFEF24FAFFEF54FFFF04
:10458A00901923E0FCA3E0FD8D828C83A3A3EFF0B6
:10459A00901923E0FEA3E0FF8F828E83A3A3A3E4F6
:1045AA00F090191FE0FF7E00EF24FAFFEE34FFFEC1
:1045BA007F00EEFF7E00901923E0FCA3E0FD8D82D0
:1045CA008C83E5822404F582E5833400F583EFF0D9
:1045DA00901923E0FEA3E0FF8F828E83E5822405F3
:1045EA00F582E5833400F583E4F09019207406F02F
:1045FA0090191FE0FF901920E0FEEEC39F502B9008
:10460A001920E0FF901923E0FCA3E0FD8D828C8342
:10461A00E5822FF582E43583F583E0FF901921E0E6
:10462A002FF0901920E004F080C6901921E0FF9045
:10463A00191FE0FE04F0901923E0FCA3E0FD8D822F
:10464A008C83E5822EF582E43583F583EFF09019A9
:10465A0023E0FEA3E0FFAA06A9077B0190191FE049
:10466A00FD90191EE0FFEF70047F0080027F019029
:0F467A001C64EFF012E42AEF60037F02227F003E
:01468900220E
:05A55F00901E39EFF031
:10A564007B017A00799B12E1A2EF64FF7003EE6431
:10A57400FF603E90036AE0FEA3E0FFAA06A9077B02
:10A5840001C003C002C0017B017A1E793A901AA669
:10A594001229AB901AA9E4F0D001D002D003129290
:10A5A40061EFB4010C901E3AE0FF7D00122B028093
:10A5B400C27B017A03796C12E1A2EF64FF7003EEAF
:10A5C40064FF603F9005A2E0FEA3E0FFAA06A9078E
:10A5D4007B01C003C002C0017B017A1E793A901A44
:10A5E400A61229AB901AA97401F0D001D002D003AD
:10A5F400129261EFB4010C901E3AE0FF7D01122B20
:0BA604000280C1901E39E0FF12EA1B2B
:01A60F002228
:0A2B0200901A08EFF0901A09EDF0A8
:102B0C00901A09E0FFEF701E90036AE0FEA3E0FF4D
:102B1C00901A0EEEF0A3EFF07E007F9B901A10EE51
:102B2C00F0A3EFF0801C9005A2E0FEA3E0FF901A4A
:102B3C000EEEF0A3EFF07E037F6C901A10EEF0A374
:102B4C00EFF0901A10E0FEA3E0FFAA06A9077B01A4
:102B5C0012E1A2901A0AEEF0A3EFF0901A0AE0FE2E
:102B6C00A3E0FFEF64FF7003EE64FF70030232C951
:102B7C00901A10E0FEA3E0FFAA06A9077B01901AA9
:102B8C000AE0FCA3E0FD12BA53AE02AF01901A0C9E
:102B9C00EEF0A3EFF0901A0CE0FEA3E0FFEF4E7006
:102BAC00030232C9901A0EE0FEA3E0FF8F828E83DF
:102BBC00E5822404F582E5833400F583E0FFEF120F
:102BCC0029B42BEA002C13012C53022CF5032DC431
:102BDC00042F590831320A30690B000032C9901A9F
:102BEC0008E0FFEF645560030232C9901A0EE0FE54
:102BFC00A3E0FF8F828E83E5822404F582E5833483
:102C0C0000F5837401F022901A08E0FFEFB4331C36
:102C1C00901A0EE0FEA3E0FF8F828E83E5822404DF
:102C2C00F582E5833400F5837402F022901A0EE0ED
:102C3C00FEA3E0FF8F828E83E5822404F582E58378
:102C4C003400F583E4F022901A08E0FF901A0EE0AD
:102C5C00FCA3E0FD8D828C83E5822407F582E5835D
:102C6C003400F583EFF0901A08E0FFEFB455047FC1
:102C7C000180027F00901A0EE0FCA3E0FD8D828C97
:102C8C0083E582240CF582E5833400F583EFF09024
:102C9C001A0EE0FEA3E0FF8F828E83E5822404F5FA
:102CAC0082E5833400F5837403F0901A0EE0FEA3E2
:102CBC00E0FF8F828E83E5822406F582E583340063
:102CCC00F5837404F0901A10E0FEA3E0FFAA06A9A5
:102CDC00077B01901A0AE0FCA3E0FD901A08E0FFC4
:102CEC00901B42EFF012BACB22901A08E0FFEF7063
:102CFC0035901A0EE0FEA3E0FF8F828E83E58224CE
:102D0C0006F582E5833400F583E0FF901A0EE0FCB3
:102D1C00A3E0FD8D828C83E5822404F582E5833467
:102D2C0000F583EFF022901A0EE0FEA3E0FF8F82F5
:102D3C008E83E582240CF582E5833400F583E0FF75
:102D4C00EF6040901A08E0FFEFB4331C901A0EE0CD
:102D5C00FEA3E0FF8F828E83E5822404F582E58357
:102D6C003400F5837402F022901A0EE0FEA3E0FF0B
:102D7C008F828E83E5822404F582E5833400F5830B
:102D8C00E4F022901A0EE0FEA3E0FF8F828E83E522
:102D9C00822404F582E5833400F583E4F0901A0E66
:102DAC00E0FEA3E0FF8F828E83E582240CF582E5A2
:102DBC00833400F583E4F022901A08E0FFEFB45559
:102DCC00047F0180027F00901A0EE0FCA3E0FD8DD1
:102DDC00828C83E582240CF582E5833400F583EF45
:102DEC00F0901A0EE0FEA3E0FF8F828E83E5822422
:102DFC0007F582E5833400F583E0FF901A08E0FEC6
:102E0C007E00EE4FFF901A0EE0FCA3E0FD8D828C4D
:102E1C0083E5822407F582E5833400F583EFF09097
:102E2C001A10E0FEA3E0FFAA06A9077B01901A0A7C
:102E3C00E0FCA3E0FD901A08E0FF901B42EFF012BB
:102E4C00BACB901A0EE0FEA3E0FF8F828E83E58250
:102E5C002407F582E5833400F583E0FFEFD394007B
:102E6C005003022F19901A0EE0FEA3E0FF8F828E02
:102E7C0083E5822407F582E5833400F583E0FFEFD8
:102E8C00D394464003022F19901A0EE0FEA3E0FFE4
:102E9C008F828E83E5822408F582E5833400F583E6
:102EAC00E4F0901A0EE0FEA3E0FF8F828E83E582A1
:102EBC002409F582E5833400F583E4F0901A0EE0E2
:102ECC00FEA3E0FF8F828E83E582240AF582E583E0
:102EDC003400F583E4F0901A0EE0FEA3E0FF8F823D
:102EEC008E83E5822406F582E5833400F58374082D
:102EFC00F0901A0EE0FEA3E0FF8F828E83E5822411
:102F0C0004F582E5833400F5837403F022901A08EB
:102F1C00E0FFEFB4551C901A0EE0FEA3E0FF8F8289
:102F2C008E83E5822404F582E5833400F5837401F5
:102F3C00F022901A0EE0FEA3E0FF8F828E83E582D2
:102F4C002404F582E5833400F583E4F022901A081A
:102F5C00E0FFEFB45536901A0EE0FEA3E0FF8F822F
:102F6C008E83E5822404F582E5833400F583740AAC
:102F7C00F0901A0EE0FEA3E0FF8F828E83E5822490
:102F8C0006F582E5833400F5837408F0901A10E09E
:102F9C00FEA3E0FFAA06A9077B01901A0AE0FCA396
:102FAC00E0FD901A08E0FF901B42EFF012BACB90B4
:102FBC001A08E0FF901A0EE0FCA3E0FD8D828C83D2
:102FCC00E582240AF582E5833400F583E02FF09046
:102FDC001A0EE0FEA3E0FF8F828E83E5822409F5B2
:102FEC0082E5833400F583E004F0901A0EE0FEA332
:102FFC00E0FF8F828E83E5822408F582E58334001E
:10300C00F583E004F0901A0EE0FEA3E0FF8F828EB1
:10301C0083E5822407F582E5833400F583E0FF9095
:10302C001A0EE0FCA3E0FD8D828C83E5822408F56A
:10303C0082E5833400F583E0FEEEC39F5003023239
:10304C00C9901A0EE0FEA3E0FF8F828E83E58224E6
:10305C0004F582E5833400F583740BF022901A0E8C
:10306C00E0FEA3E0FF8F828E83E582240AF582E5E1
:10307C00833400F583E0FFEF54FFFF901A08E0FE65
:10308C00EF6E601D901A0EE0FEA3E0FF8F828E8320
:10309C00E582240BF582E5833400F583E004F080AF
:1030AC006A901A0EE0FEA3E0FF8F828E83E58224E5
:1030BC0009F582E5833400F583E0FF901A0CE0FCFF
:1030CC00A3E0FD8D828C83EFF0901A0EE0FEA3E05E
:1030DC00FF8F828E83E5822409F582E5833400F527
:1030EC0083E0FF7E007F00EEFF7E00901A0CE0FC78
:1030FC00A3E0FD8D828C83A3EFF0901A10E0FEA369
:10310C00E0FFAA06A9077B0112D008901A0EE0FE78
:10311C00A3E0FF8F828E83E5822404F582E583345D
:10312C0000F583E4F022901A08E0FFEF64AA600334
:10313C0002327A901A0EE0FEA3E0FF8F828E83E5B6
:10314C00822408F582E5833400F583E0FF7E00EFEE
:10315C002401FFEE3400FE901A0EE0FCA3E0FD8D7E
:10316C00828C83E5822407F582E5833400F583E0C5
:10317C00FD7C00C3EF9DEC6480F8EE648098401DEC
:10318C00901A0EE0FEA3E0FF8F828E83E58224046A
:10319C00F582E5833400F583740BF08034901A0EBD
:1031AC00E0FEA3E0FF8F828E83E5822406F582E5A4
:1031BC00833400F583E0FF901A0EE0FCA3E0FD8D54
:1031CC00828C83E5822404F582E5833400F583EF59
:1031DC00F0901A0EE0FEA3E0FF8F828E83E582242E
:1031EC0006F582E5833400F583E0FFEF6408604167
:1031FC00901A0EE0FEA3E0FF8F828E83E5822406F8
:10320C00F582E5833400F583E0FFEF6406602290DD
:10321C001A0EE0FEA3E0FF8F828E83E5822406F572
:10322C0082E5833400F583E0FFEF6407600302322C
:10323C00BA901A0EE0FEA3E0FF8F828E83E5822403
:10324C0008F582E5833400F583E004F0901A08E079
:10325C00FF901A0EE0FCA3E0FD8D828C83E58224A6
:10326C000AF582E5833400F583E02FF08040901A54
:10327C0008E0FFEFB4331D901A0EE0FEA3E0FF8FC1
:10328C00828E83E5822404F582E5833400F5837411
:10329C0002F0801A901A0EE0FEA3E0FF8F828E835C
:1032AC00E5822404F582E5833400F583E4F0901A7A
:0D32BC000EE0FEA3E0FF8F828E83E004F0A1
:0132C90022E2
:06F7B0007F0112F2F622B7
:10F2F600901E74EFF0901E74E0FFEF70077B017AAA
:0BF3060000799B227B017A03796C22C6
:06D5BE00901ADB1229ABFC
:10D5C400901ADB1229A2901ADE1229AB901ADE12ED
:10D5D40029A2758201758300122484FF901AE1EF59
:10D5E400F0901ADE1229A212246BFF901ADE12297F
:10D5F400A2758201758300EF122518901AE1E0FFED
:0AD60400901ADE1229A2EF1225068B
:01D60E0022F9
:06AC8D00901AE21229AB4F
:10AC9300901AE21229A2901AE51229AB901AE51232
:10ACA30029A2758203758300122484FF901AE8EFAA
:10ACB300F0901AE51229A212246BFF901AE51229CB
:10ACC300A2758203758300EF122518901AE8E0FF3E
:10ACD300901AE51229A2EF122506901AE51229A26D
:10ACE300758202758300122484FF901AE8EFF090B6
:10ACF3001AE51229A2758201758300122484FF903C
:10AD03001AE51229A2758202758300EF12251890A5
:10AD13001AE8E0FF901AE51229A2758201758300F3
:04AD2300EF122518EE
:01AD27002209
:06A10C009019B81229AB06
:10A112009019BE74FF75F0FF1225B7AFF0FEEF4E37
:10A12200700302A1C79019BEE0FEA3E0FFEF25E095
:10A13200FFEE33FE9019B81229A28F828E83122568
:10A14200F8FDACF09019BEE0FEA3E0FFEF25E0FFC2
:10A15200EE33FE9019BB1229A28F828E83EC8DF012
:10A1620012269C9019BEE0FEA3E0FFEF25E0FFEE71
:10A1720033FE9019BB1229A2E92FF9EA3EFA90198F
:10A18200C01229AB9019C01229A2758201758300F1
:10A19200122484FF9019C3EFF09019C01229A21261
:10A1A200246BFF9019C01229A2758201758300EFFA
:10A1B2001225189019C3E0FF9019C01229A2EF12BC
:05A1C200250602A112B8
:01A1C7002275
:068032009019C41229ABF5
:108038009019CA74FF75F0FF1225B7AFF0FEEF4E26
:10804800700302814D9019CAE0FEA3E0FFEF7802A9
:10805800C333CE33CED8F9FF9019C41229A28F8228
:108068008E83122845C004C005C006C0079019CAEF
:10807800E0FEA3E0FFEF7802C333CE33CED8F9FF9A
:108088009019C71229A28F828E83D007D006D005F7
:10809800D00412288F9019CAE0FEA3E0FFEF7802FF
:1080A800C333CE33CED8F9FF9019C71229A2E92FCE
:1080B800F9EA3EFA9019CC1229AB9019CC1229A2F0
:1080C800758203758300122484FF9019CFEFF09016
:1080D80019CC1229A212246BFF9019CC1229A2756F
:1080E8008203758300EF1225189019CFE0FF9019CD
:1080F800CC1229A2EF1225069019CC1229A275825A
:1081080002758300122484FF9019CFEFF09019CCE8
:108118001229A2758201758300122484FF9019CC5C
:108128001229A2758202758300EF1225189019CFC3
:10813800E0FF9019CC1229A2758201758300EF1215
:0581480025180280383B
:01814D00220F
:1084930075FFDE75FFAD12E5E212DE9F12E36C128B
:1084A300EB0112002A12003112F71312F71C12F615
:1084B300BB12003212DBA61200191200221200298D
:1084C30012F70912D56D12499C12ED3B12F7941263
:1084D300F78D12DF7A125A6312EE0412F26612F368
:1084E3004612F35F12ECC012F46612B35012F20C90
:1084F300125CFA12BF6912826912F7A2D2AF129EFE
:10850300CF7BFF7AB7796712D4C8901B48EFF07B13
:10851300FF7ACF79AF12D4C8901B46EFF07BFF7A76
:108523005F794F12D4C8901B47EFF0901B46E0FFD2
:10853300901B47E0FD12F1ED901B46E0FF7D00121A
:10854300E616901B48E0FF7D0012E6167BFF7A9F3C
:10855300799012D4C8901B43EFF07BFF7AA5795F23
:1085630012D4C8901B44EFF07BFF7A8C79DC12D4D1
:10857300C8901B45EFF0901B43E0FF7D0012E61609
:10858300901B44E0FF7D0012E616901B45E0FF7D43
:108593000012E6167D017F1412782B128BE280FB0A
:0185A30022B5
:09F71300C2A843E34043E20422D2
:09F71C00C2AA43E34043E21022BB
:03000300020011E7
:0100110032BC
:03001300020012D6
:0100120032BB
:06F76A00901E75E004F0A2
:01F770002276
:03001B0002F58467
:10F58400C0E0C083C08212F76AD082D083D0E03258
:03002B0002F59447
:10F59400C0E0C083C08212F76AD082D083D0E03248
:0300430002F5A41F
:10F5A400C0E0C083C08212F76AD082D083D0E03238
:03004B0002F5B407
:10F5B400C0E0C083C08212F76AD082D083D0E03228
:0300530002F5C4EF
:10F5C400C0E0C083C08212F76AD082D083D0E03218
:03005B0002F5D4D7
:10F5D400C0E0C083C08212F76AD082D083D0E03208
:0300630002F5E4BF
:10F5E400C0E0C083C08212F76AD082D083D0E032F8
:03006B0002F5F4A7
:10F5F400C0E0C083C08212F76AD082D083D0E032E8
:0300830002F6047E
:10F60400C0E0C083C08212F76AD082D083D0E032D7
:03008B0002F61466
:10F61400C0E0C083C08212F76AD082D083D0E032C7
:0300930002F6244E
:10F62400C0E0C083C08212F76AD082D083D0E032B7
:03009B0002F63436
:10F63400C0E0C083C08212F76AD082D083D0E032A7
:0300AB0002F64416
:10F64400C0E0C083C08212F76AD082D083D0E03297
:10499C007F0012F2F6AE02AF01901519EEF0A3EF04
:1049AC00F07F0112F2F6AE02AF019014A2EEF0A36A
:1049BC00EFF0901519E0FEA3E0FFAA06A9077B0112
:1049CC0012D51B9014A2E0FEA3E0FFAA06A9077B58
:1049DC000112D51B7BFF7AD779F212D4C890151827
:1049EC00EFF07BFF7AD6790F12D4C890151BEFF03D
:1049FC0090151BE0FF7D0012E6167BFF7A9E790D69
:104A0C0012D4C89014C7EFF07BFF7AC5794512D445
:104A1C00C8901490EFF09014C7E0FF7D0012E616DA
:104A2C00901490E0FF7D0012E6167BFF7AC9795B4B
:104A3C0012D4C890147CEFF09014BAE4F09014B334
:104A4C00E4F09014D7E4F0A3E4F09014FEE4F0A3A7
:104A5C00E4F09014C37407F0A37408F07BFF7AABF6
:104A6C0079F112D4C89014E0EFF07BFF7ACA790F79
:104A7C0012D4C89014FBEFF07BFF7ACA796912D478
:104A8C00C890148FEFF07BFF7AC979B512D4C89017
:104A9C00149BEFF07BFF7AD0796012D4C890149AF3
:104AAC00EFF07BFF7AAE795A12D4C8901511EFF063
:104ABC007BFF7AD079B812D4C89014DDEFF07BFF6D
:104ACC007ACA79C312D4C8901489EFF07BFF7ACBE1
:104ADC00791D12D4C890150CEFF07BFF7AC6796C57
:104AEC0012D4C89014B2EFF07BFF7ACB797712D442
:104AFC00C8901497EFF07BFF7ACB79D112D4C89081
:104B0C00147FEFF07BFF7AD2791812D4C89014A8D6
:104B1C00EFF07BFF7AD1791012D4C89014F9EFF032
:104B2C007BFF7AB5796112D4C8901506EFF07BFF44
:104B3C007ACC792B12D4C89014ABEFF07BFF7ACCE3
:104B4C00798512D4C89014C2EFF07BFF7AB1792723
:104B5C0012D4C89014D2EFF07BFF7AB1792712D41B
:104B6C00C89014D2EFF07BFF7ACC79DF12D4C890C6
:104B7C0014A4EFF07BFF7ACD793912D4C89014B716
:104B8C00EFF07BFF7AB979D912D4C89014C9EFF041
:104B9C007BFF7AC479E212D4C89014CCEFF07BFF7F
:104BAC007A8A79E312D4C8901512EFF07BFF7ACD94
:104BBC00799312D4C89014E4EFF07BFF7AD2796F1A
:104BCC0012D4C890149FEFF07BFF7AD279C612D41E
:104BDC00C8901491EFF07BFF7AA879C112D4C890D9
:104BEC0014A5EFF07BFF7AC0794C12D4C89014F85E
:104BFC00EFF07BFF7ACD79ED12D4C890149CEFF0D6
:104C0C007BFF7ACE794712D4C89014E7EFF07BFF84
:104C1C007AAF797D12D4C89014C8EFF07BFF7AB5C7
:104C2C0079E312D4C8901494EFF07BFF7A8779C3A0
:104C3C0012D4C89014CFEFF07BFF7ACE79A112D4A6
:104C4C00C89014E3EFF07BFF7AC679CB12D4C890EE
:104C5C0014FAEFF07BFF7AD1796812D4C89014EA79
:104C6C00EFF07BFF7ACE79FB12D4C890150BEFF0E6
:0F4C7C007BFF7ACF795512D4C89014B6EFF0228F
:058CDC00901B84EFF085
:108CE100901519E0FEA3E0FFAA06A9077B0112E790
:108CF10013901B85EEF0A3EFF0901B85E0FEA3E03F
:108D0100FFEF64FF7003EE64FF6047901519E0FE0A
:108D1100A3E0FFAA06A9077B01901B85E0FCA3E065
:108D2100FD12BA53AE02AF01901B87EEF0A3EFF034
:108D3100901B87E0FEA3E0FFAA06A9077B011212A0
:108D4100C9901519E0FEA3E0FFAA06A9077B01124D
:108D5100C60B9014A2E0FEA3E0FFAA06A9077B01BF
:108D610012E713901B85EEF0A3EFF0901B85E0FE58
:108D7100A3E0FFEF64FF7003EE64FF60479014A26D
:108D8100E0FEA3E0FFAA06A9077B01901B85E0FC9A
:108D9100A3E0FD12BA53AE02AF01901B87EEF0A320
:108DA100EFF0901B87E0FEA3E0FFAA06A9077B0175
:108DB100126F539014A2E0FEA3E0FFAA06A9077B5D
:0C8DC1000112C60B901B84E0FF12EA1B9D
:018DCD002283
:0B8DCE00901AE91229AB901AECEDF0AE
:108DD900901AE91229A212246BFF7E00901AEDEE77
:108DE900F0A3EFF0901AEDE0FCA3E0FD901AE91270
:108DF90029A2758201758300122484FF7E00EF7F0A
:108E090000FEEC4EFEED4FFF901AEDEEF0A3EFF0F1
:108E1900901AECE0FFEFB404047F0180027F009018
:108E29001AEFEFF0901AEFE0FFEFB4010A901AE998
:108E39001229A21200D622901AE91229A2E92405C0
:108E4900F9EA3400FAC003C002C001901AEDE0FE4D
:108E5900A3E0FFEF24FDFDEE34FFFC901AE912298F
:108E6900A2758203758300122484FF90191AEFF00A
:108E7900901AE91229A2758202758300122484FFCF
:108E890090191BEFF0901AE91229A27582047583D3
:108E990000122484FF90191CEFF090191D7401F041
:108EA900901AEFE0FF90191EEFF0D001D002D00325
:068EB90012433CEF708142
:018EBF002290
:0612C900901A121229AB7D
:1012CF00901A121229A2758202758300122484FFCC
:1012DF00901A17EFF0901A121229A27582037583D4
:1012EF0000122484FF901A18EFF0901A121229A2FC
:1012FF00758205758300122484FF901A15EFF09004
:10130F001A121229A2758204758300122484FF9089
:10131F001A16EFF0901A18E0FFEFB4040F901A129C
:10132F001229A2901A18E0FD128DCE229014B374D8
:10133F0001F07B017A14798A7D707C1712C72A908D
:10134F001A15E0FFEF1229B413D6011AD6641B2029
:10135F00651C01661AB76716786815B66A160F6BA3
:10136F0016596C18666D18B06E19DD6F1A3A701A2F
:10137F00987113F57615307714F27816B67C17003E
:10138F007D18477E154F7F1573801597811C3F84FD
:10139F001D848816978A1DCE8B15118D1F738E1F76
:1013AF00DA8F1C7D901D0F911C5E9219FC931E1AF3
:1013BF00951A1B961E8F97144E981C20991FF9A1F2
:1013CF0019B9A200002017901A17E0FF901498EF98
:1013DF00F0901A16E0FF901499EFF0901518E0FFB7
:0613EF007D0012E616224B
:1013F500901A121229A2E92406F9EA3400FAAE027B
:10140500AF01901A19EEF0A3EFF0901A17E0FF90D4
:101415001516EFF0901A16E0FF901517EFF0901AD9
:1014250019E0FEA3E0FF8F828E83E0FF901A19E09A
:10143500FCA3E0FD8D828C83A3E0FD12782B901434
:09144500FBE0FF7D0012E6162217
:10144E00901A121229A2E92406F9EA3400FAAE0221
:10145E00AF01901A19EEF0A3EFF0901A17E0FF907B
:10146E0014B8EFF0901A16E0FF9014B9EFF0901A3E
:10147E0019E0FEA3E0FFAA06A9077B0112D5BE90D4
:10148E001A19E0FEA3E0FFEF2402FFEE3400FEAADD
:10149E0006A9077B0112D5BE901A19E0FEA3E0FF44
:1014AE008F828E83E0FEA3E0FF901A19E0FCA3E08A
:1014BE00FD8D828C83A3A3E0FCA3E0FD901A19E0BE
:1014CE00FAA3E0FB8B828A83E5822404F582E5830E
:1014DE003400F583E0FB12BEF790149BE0FF7D0015
:0414EE0012E61622CA
:1014F200901A17E0FF9014B4EFF0901A16E0FF90E4
:1015020014B5EFF090149AE0FF7D0012E6162290D7
:101512001A17E0FF901492EFF0901A16E0FF901461
:1015220093EFF0901511E0FF7D0012E61622901A5B
:1015320017E0FF9014FCEFF0901A16E0FF9014FDF4
:10154200EFF09014DDE0FF7D0012E61622901A17EC
:10155200E0FF9014A6EFF0901A16E0FF9014A7EFA8
:10156200F07F0112F0F1901489E0FF7D0012E6167F
:1015720022901A17E0FF901482EFF0901A16E0FF03
:10158200901483EFF07F0012F0F190150CE0FF7DD4
:101592000012E61622901A17E0FF9014D5EFF09091
:1015A2001A16E0FF9014D6EFF09014B2E0FF7D001F
:0415B20012E6162205
:1015B600901A121229A2E92406F9EA3400FAAE02B8
:1015C600AF01901A19EEF0A3EFF0901A17E0FF9012
:1015D60014B0EFF0901A16E0FF9014B1EFF0901AE5
:1015E60019E0FEA3E0FF8F828E83E0FF901A19E0D8
:1015F600FCA3E0FD8D828C83A3E0FD12F1719014B3
:0916060097E0FF7D0012E61622B8
:10160F00901A121229A2E92406F9EA3400FAAE025E
:10161F00AF01901A19EEF0A3EFF0901A17E0FF90B8
:10162F0014A0EFF0901A16E0FF9014A1EFF0901AAB
:10163F0019E0FEA3E0FF8F828E83E0FF12ED64902E
:0A164F00147FE0FF7D0012E6162272
:10165900901A17E0FF9014D0EFF0901A16E0FF905F
:1016690014D1EFF09014A8E0FF7D0012E616229045
:101679001A17E0FF90150FEFF0901A16E0FF90157A
:1016890010EFF09014F9E0FF7D0012E61622901A8F
:1016990017E0FF90147DEFF0901A16E0FF90147E8A
:0D16A900EFF0901506E0FF7D0012E616221E
:1016B600901A121229A2E92406F9EA3400FAAE02B7
:1016C600AF01901A19EEF0A3EFF0901A17E0FF9011
:1016D60014D3EFF0901A16E0FF9014D4EFF0901A9E
:1016E60019E0FEA3E0FF8F828E83E0FF12EE9F904B
:0A16F60014ABE0FF7D0012E616229F
:10170000901A121229A2E92406F9EA3400FAAE026C
:10171000AF01901A19EEF0A3EFF0901A17E0FF90C6
:1017200014DEEFF0901A16E0FF9014DFEFF0901A3D
:1017300019E0FEA3E0FFEF2406FFEE3400FEAA0648
:10174000A9077B01C003C002C001901A19E0FEA3E3
:10175000E0FFEF2406FFEE3400FEAA06A9077B0196
:101760009019BB1229AB9019BEE4F0A3740FF0D00E
:1017700001D002D00312A10C901A19E0FEA3E0FFE1
:10178000EF240CFFEE3400FEAA06A9077B01C0037C
:10179000C002C001901A19E0FEA3E0FFEF2418FF79
:1017A000EE3400FEAA06A9077B0190195B1229AB53
:1017B000901A19E0FEA3E0FF8F828E83E582240653
:1017C000F582E5833400F583E0FEA3E0FF90195E27
:1017D000EEF0A3EFF0901A19E0FEA3E0FF8F828EE7
:1017E00083E5822408F582E5833400F583E0FEA3D7
:1017F000E0FF901960EEF0A3EFF0901A19E0FEA35D
:10180000E0FF8F828E83E582240AF582E58334002F
:10181000F583E0FEA3E0FF901962EEF0A3EFF090F5
:101820001A19E0FEA3E0FFAA06A9077B019019643C
:101830001229ABD001D002D0031289DF9014C2E08C
:07184000FF7D0012E61622F5
:10184700901A17E0FF9014F6EFF0901A16E0FF9049
:0F18570014F7EFF09014D2E0FF7D0012E6162296
:10186600901A121229A2E92406F9EA3400FAAE0205
:10187600AF01901A19EEF0A3EFF0901A17E0FF905F
:1018860014CAEFF0901A16E0FF9014CBEFF0901AFE
:1018960019E0FEA3E0FF8F828E83E0FF12E57A90C7
:0A18A60014A4E0FF7D0012E61622F4
:1018B000901A121229A2E92406F9EA3400FAAE02BB
:1018C000AF01901A19EEF0A3EFF0901A17E0FF9015
:1018D00014DBEFF0901A16E0FF9014DCEFF0901A92
:1018E00019E0FEA3E0FFAA06A9077B0112D5BE906E
:1018F0001A19E0FEA3E0FFEF2402FFEE3400FEAA77
:1019000006A9077B0112D5BE901A19E0FEA3E0FFDD
:10191000EF2406FFEE3400FEAA06A9077B0112D5CC
:10192000BE901A19E0FEA3E0FF8F828E83E0FEA333
:10193000E0FFC006C007901A19E0FEA3E0FF8F8207
:101940008E83A3A3E0FCA3E0FD901A19E0FEA3E0C0
:10195000FF8F828E83E5822404F582E5833400F5CF
:1019600083E0FB901A19E0FEA3E0FF8F828E83E5EF
:10197000822405F582E5833400F583E0FF901B6641
:10198000EFF0D007D00612DE55901A19E0FEA3E062
:10199000FF8F828E83E5822406F582E5833400F58D
:1019A00083E0FEA3E0FF9014C3EEF0A3EFF09014E9
:0919B000B7E0FF7D0012E61622EB
:1019B900901A17E0FF9014A9EFF0901A16E0FF9023
:1019C90014AAEFF07F0012F65490148FE0FF7D0007
:1019D90012E61622901A17E0FF9014E5EFF0901A1C
:1019E90016E0FF9014E6EFF09014C9E0FF7D0012B5
:1019F900E61622901A17E0FF9014E8EFF0901A16F5
:101A0900E0FF9014E9EFF09014CCE0FF7D0012E6BE
:101A19001622901A17E0FF901495EFF0901A16E02D
:101A2900FF901496EFF0901512E0FF7D0012E61674
:011A3900228A
:101A3A00901A121229A2E92406F9EA3400FAAE022F
:101A4A00AF01901A19EEF0A3EFF0901A17E0FF9089
:101A5A001504EFF0901A16E0FF901505EFF0901AB2
:101A6A0019E0FEA3E0FFAA06A9077B0112D5BE90E2
:101A7A001A19E0FEA3E0FF8F828E83E0FEA3E0FF47
:0E1A8A0012E4D69014E4E0FF7D0012E616226E
:101A9800901A17E0FF9014C5EFF0901A16E0FF9027
:101AA80014C6EFF090149FE0FF7D0012E616229016
:101AB8001A17E0FF9014ACEFF0901A16E0FF90149C
:0E1AC800ADEFF0901491E0FF7D0012E61622C3
:101AD600901A121229A2E92406F9EA3400FAAE0293
:101AE600AF01901A19EEF0A3EFF0901A19E0FEA3D9
:101AF600E0FF8F828E83E0FF12DE0A901A17E0FF66
:101B06009014C0EFF0901A16E0FF9014C1EFF09019
:0A1B1600149CE0FF7D0012E6162289
:101B2000901A121229A2E92406F9EA3400FAAE0248
:101B3000AF01901A19EEF0A3EFF0901A19E0FEA38E
:101B4000E0FFAA06A9077B0112D5BE901A19E0FE94
:101B5000A3E0FFEF2403FFEE3400FEAA06A9077BF3
:101B60000112D5BE901A19E0FEA3E0FFEF2405FF95
:101B7000EE3400FEAA06A9077B0112D5BE901A1901
:101B8000E0FEA3E0FF8F828E83E0FEA3E0FFC006AD
:101B9000C007901A19E0FEA3E0FF8F828E83A3A3F3
:101BA000E0FD901A19E0FEA3E0FF8F828E83A3A3CD
:101BB000A3E0FAA3E0FB901A19E0FEA3E0FF8F82F6
:101BC0008E83E5822405F582E5833400F583E0FE0B
:101BD000A3E0FF901B0AEEF0A3EFF0D007D00612AF
:101BE00086B4901A17E0FF901507EFF0901A16E0F0
:101BF000FF901508EFF09014E7E0FF7D0012E61665
:011C000022C1
:101C0100901A17E0FF9014E1EFF0901A16E0FF90A0
:101C110014E2EFF09014C8E0FF7D0012E616229066
:101C21001A17E0FF9014AEEFF0901A16E0FF90142F
:101C3100AFEFF0901494E0FF7D0012E61622901AA7
:101C410017E0FF9014CDEFF0901A16E0FF9014CE3C
:101C5100EFF09014A5E0FF7D0012E61622901A170E
:101C6100E0FF90150DEFF0901A16E0FF90150EEFC2
:0C1C7100F09014F8E0FF7D0012E616224F
:101C7D00901A121229A2E92406F9EA3400FAAE02EA
:101C8D00AF01901A19EEF0A3EFF0901A1BE4F0904B
:101C9D001A17E0FF9014EBEFF0901A16E0FF901476
:101CAD00ECEFF0901A19E0FEA3E0FF8F828E83E037
:101CBD00FF9014EDEFF0901A19E0FEA3E0FF8F8274
:101CCD008E83A3E0FF9014EEEFF09014EF7401F00B
:101CDD009014CFE0FF12F423901A1BEFF0901A1B13
:101CED00E0FFEF64027003022017901A1BE0FFEF74
:101CFD00640370030220179014CFE0FF7D0012E6FD
:021D0D0016229C
:101D0F00901A121229A2E92406F9EA3400FAAE0257
:101D1F00AF01901A19EEF0A3EFF0901A17E0FF90B1
:101D2F001502EFF0901A16E0FF901503EFF0901ADE
:101D3F0019E0FEA3E0FFEF2401FFEE3400FEAA0638
:101D4F00A9077B0112D5BE901A19E0FEA3E0FF8F01
:101D5F00828E83E0FF901A19E0FCA3E0FD8D828C48
:101D6F0083A3E0FCA3E0FD12F3119014E3E0FF7DE9
:051D7F000012E616222F
:101D8400901A1974C8F0901A1A7488F0901A1BE407
:101D9400F07B017A1A7919901A17E0FF90191AEF5B
:101DA400F090191B7403F0901A16E0FF90191CEFC1
:101DB400F090191D7401F090191EE4F07D037C006D
:0A1DC40012433CEF70CB75EF0222D2
:101DCE00901A121229A2E92406F9EA3400FAAE0298
:101DDE00AF01901A19EEF0A3EFF0901A17E0FF90F2
:101DEE00149DEFF0901A16E0FF90149EEFF0901AEB
:101DFE0019E0FEA3E0FF8F828E83E0FF9014BAEF0E
:0C1E0E00F090147CE0FF7D0012E616222C
:101E1A00901A121229A2E92406F9EA3400FAAE024B
:101E2A00AF01901A19EEF0A3EFF0901A17E0FF90A5
:101E3A001480EFF0901A16E0FF901481EFF0901AD8
:101E4A0019E0FEA3E0FFEF2401FFEE3400FEAA062C
:101E5A00A9077B0112D5BE901A19E0FEA3E0FF8FF5
:101E6A00828E83E0FF901A19E0FCA3E0FD8D828C3C
:101E7A0083A3E0FCA3E0FD12EB2F90150BE0FF7D9E
:051E8A000012E6162223
:101E8F00901A121229A2E92406F9EA3400FAAE02D6
:101E9F00AF01901A19EEF0A3EFF0901A17E0FF9030
:101EAF0014D9EFF0901A16E0FF9014DAEFF0901AB1
:101EBF0019E0FEA3E0FFEF2401FFEE3400FEAA06B7
:101ECF00A9077B0112D5BE901A19E0FEA3E0FFEF20
:101EDF002403FFEE3400FEAA06A9077B0112D5BE2C
:101EEF00901A19E0FEA3E0FFEF2405FFEE3400FE89
:101EFF00AA06A9077B0112D5BE901A19E0FEA3E02E
:101F0F00FF8F828E83E0FFC007901A19E0FEA3E0D7
:101F1F00FF8F828E83A3E0FCA3E0FD901A19E0FEF1
:101F2F00A3E0FF8F828E83A3A3A3E0FAA3E0FB902D
:101F3F001A19E0FEA3E0FF8F828E83E5822405F558
:101F4F0082E5833400F583E0FEA3E0FF901B03EEF0
:101F5F00F0A3EFF0D00712A3FA9014B6E0FF7D00C4
:041F6F0012E616223E
:101F7300901A121229A2E92406F9EA3400FAAE02F1
:101F8300AF01901A19EEF0A3EFF0901A1BE4F09052
:101F93001A17E0FF901513EFF0901A16E0FF901553
:101FA30014EFF0901A19E0FEA3E0FFAA06A9077B3D
:101FB3000112993E901A1BEFF0901A1BE0FFEF609D
:101FC300047F0080027F01901515EFF09014FAE072
:071FD300FF7D0012E616225B
:101FDA00901A17E0FF901509EFF0901A16E0FF909B
:101FEA00150AEFF09014EAE0FF7D0012E61622903F
:101FFA001A17E0FF901500EFF0901A16E0FF9015FF
:0D200A0001EFF09014E0E0FF7D0012E616FB
:0120170022A6
:066F5300901A761229AB32
:106F5900901A761229A2758202758300122484FF81
:106F6900901A7BEFF0901A761229A2758203758325
:106F790000122484FF901A7CEFF0901A761229A24D
:106F8900758205758300122484FF901A79EFF090B9
:106F99001A761229A2758204758300122484FF903F
:106FA9001A7AEFF0901A7CE0FFEFB4010F901A768D
:106FB9001229A2901A7CE0FD128DCE22901A79E056
:106FC900FFEF1229B4702ACA7070CC6FDBD80000A9
:026FD90070D571
:106FDB00901A761229A2E92406F9EA3400FAAE02D5
:106FEB00AF01901A7DEEF0A3EFF0901A7DE0FEA3B7
:106FFB00E0FFEF2402FFEE3400FEAA06A9077B0197
:10700B0012D5BE901A7DE0FEA3E0FF8F828E83A384
:0F701B00A3E0FEA3E0FF9014D7EEF0A3EFF02266
:10702A00901A761229A2E92406F9EA3400FAAE0285
:10703A00AF01901A7DEEF0A3EFF0901A7DE0FEA367
:10704A00E0FF8F828E83E0FF901A7DE0FCA3E0FDD3
:10705A008D828C83E5822404F582E5833400F583EE
:06706A00E0FD12F190228E
:10707000901A761229A2E92406F9EA3400FAAE023F
:10708000AF01901A7DEEF0A3EFF0901A7DE0FEA321
:10709000E0FFAA06A9077B01C003C002C001901A45
:1070A0007DE0FEA3E0FFAA06A9077B019019BB12B1
:1070B00029AB9019BEE4F0A37406F0D001D002D041
:1070C0000312A10C901A7DE0FEA3E0FFAA06A90717
:0570D0007B0112DD74DC
:0170D5002298
:05D7F200901E3BEFF06A
:10D7F700901E3C7401F07B017A1E793C901498E0EE
:10D80700FF90191AEFF090191B7403F0901499E028
:10D81700FF90191CEFF090191D7401F090191EE488
:10D82700F07D017C0012433CEF70067FFF12E6AFEC
:09D8370022901E3BE0FF12EA1BE7
:01D8400022C5
:05C95B00901CAEEFF09E
:10C96000901CAF74C8F0901CB0748BF0901CB1E4B4
:10C97000F07B017A1C79AF90149DE0FF90191AEFBB
:10C98000F090191B7403F090149EE0FF90191CEFB7
:10C99000F090191D7401F090191EE4F07D037C00E5
:10C9A00012433CEF70067FFF12E6AF22901CAEE010
:04C9B000FF12EA1B6D
:01C9B4002260
:05C9B500901CB2EFF040
:10C9BA00901CB374C8F0901CB47498F0901CB5E441
:10C9CA00F07B017A1C79B39014B8E0FF90191AEF42
:10C9DA00F090191B7403F09014B9E0FF90191CEF42
:10C9EA00F090191D7401F090191EE4F07D037C008B
:10C9FA0012433CEF70067FFF12E6AF22901CB2E0B2
:04CA0A00FF12EA1B12
:01CA0E002205
:05CA0F00901CB6EFF0E1
:10CA1400901CB774C8F0901CB87476F0901CB9E4FC
:10CA2400F07B017A1C79B7901516E0FF90191AEF84
:10CA3400F090191B7403F0901517E0FF90191CEF88
:10CA4400F090191D7401F090191EE4F07D037C0030
:10CA540012433CEF70067FFF12E6AF22901CB6E053
:04CA6400FF12EA1BB8
:01CA680022AB
:05CA6900901CBAEFF083
:10CA6E00901CBB74C8F0901CBC74A2F0901CBDE46A
:10CA7E00F07B017A1C79BB9014A9E0FF90191AEF94
:10CA8E00F090191B7403F09014AAE0FF90191CEF9C
:10CA9E00F090191D7401F090191EE4F07D037C00D6
:10CAAE0012433CEF70067FFF12E6AF22901CBAE0F5
:04CABE00FF12EA1B5E
:01CAC2002251
:05D06000901B89EFF0B8
:10D06500901B8A74DAF07B017A1B798B128FAF7B68
:10D07500017A1B798A9014B4E0FF90191AEFF090A9
:10D08500191B7403F09014B5E0FF90191CEFF09094
:10D09500191D7401F090191EE4F07D047C00124303
:10D0A5003CEF70067FFF12E6AF22901B89E0FF126E
:02D0B500EA1B74
:01D0B7002256
:05AE5A0090170BEFF062
:10AE5F0090170C74EFF07B017A17790D7D087F0046
:10AE6F0012A96A7B017A17791D7D177F001257BED1
:10AE7F007B017A17790DC003C002C0017B017A17DD
:10AE8F00790D9019BB1229AB9019BEE4F0A3742071
:10AE9F00F0D001D002D00312A10C7B017A17790CEC
:10AEAF00901492E0FF90191AEFF090191B7403F0B1
:10AEBF00901493E0FF90191CEFF090191D7401F09E
:10AECF0090191EE4F07D417C0012433CEF70067F29
:0DAEDF00FF12E6AF2290170BE0FF12EA1BF6
:01AEEC002243
:05D0B800901AB3EFF037
:10D0BD00901AB474D9F07B017A1A79B512EC3D7BD4
:10D0CD00017A1A79B49014FCE0FF90191AEFF090E0
:10D0DD00191B7403F09014FDE0FF90191CEFF090F4
:10D0ED00191D7401F090191EE4F07D077C001243A8
:10D0FD003CEF70067FFF12E6AF22901AB3E0FF12ED
:02D10D00EA1B1B
:01D10F0022FD
:05CAC300901CBEEFF025
:10CAC800901CBF74C8F0901CC0747FF0901CC1E427
:10CAD800F07B017A1C79BF9014A6E0FF90191AEF39
:10CAE800F090191B7403F09014A7E0FF90191CEF45
:10CAF800F090191D7401F090191EE4F07D037C007C
:10CB080012433CEF70067FFF12E6AF22901CBEE096
:04CB1800FF12EA1B03
:01CB1C0022F6
:05CB1D00901CC2EFF0C6
:10CB2200901CC374C8F0901CC47480F0901CC5E4BF
:10CB3200F07B017A1C79C3901482E0FF90191AEFFE
:10CB4200F090191B7403F0901483E0FF90191CEF0E
:10CB5200F090191D7401F090191EE4F07D037C0021
:10CB620012433CEF70067FFF12E6AF22901CC2E038
:04CB7200FF12EA1BA9
:01CB7600229C
:05C66C00901CC6EFF078
:10C67100901CC774DFF012F7BC901CC8EFF012F7E2
:10C68100B6901CC9EFF07B017A1C79C79014D5E0F4
:10C69100FF90191AEFF090191B7403F09014D6E073
:10C6A100FF90191CEFF090191D7401F090191EE410
:10C6B100F07D037C0012433CEF70067FFF12E6AF72
:09C6C10022901CC6E0FF12EA1BE6
:01C6CA00224D
:05CB7700901CCAEFF064
:10CB7C00901CCB74C8F0901CCC746AF0901CCDE463
:10CB8C00F07B017A1C79CB9014B0E0FF90191AEF6E
:10CB9C00F090191B7403F09014B1E0FF90191CEF86
:10CBAC00F090191D7401F090191EE4F07D037C00C7
:10CBBC0012433CEF70067FFF12E6AF22901CCAE0D6
:04CBCC00FF12EA1B4F
:01CBD0002242
:05CBD100901CCEEFF006
:10CBD600901CCF74C8F0901CD0746BF0901CD1E4FC
:10CBE600F07B017A1C79CF9014A0E0FF90191AEF20
:10CBF600F090191B7403F09014A1E0FF90191CEF3C
:10CC0600F090191D7401F090191EE4F07D037C006C
:10CC160012433CEF70067FFF12E6AF22901CCEE077
:04CC2600FF12EA1BF4
:01CC2A0022E7
:05D21800901DBFEFF0C6
:10D21D00901DC074CFF012F7CE901DC1EFF07B01C1
:10D22D007A1D79C09014D0E0FF90191AEFF0901983
:10D23D001B7403F09014D1E0FF90191CEFF09019BE
:10D24D001D7401F090191EE4F07D027C0012433C28
:10D25D00EF70067FFF12E6AF22901DBFE0FF12EACE
:01D26D001BA5
:01D26E00229D
:05D11000901A1CEFF075
:10D11500901A1D74EBF07B017A1A791E12E2687B76
:10D12500017A1A791D90150FE0FF90191AEFF0900A
:10D13500191B7403F0901510E0FF90191CEFF09087
:10D14500191D7401F090191EE4F07D097C0012434D
:10D155003CEF70067FFF12E6AF22901A1CE0FF122B
:02D16500EA1BC3
:01D1670022A5
:05B561009017F6EFF069
:10B566009017F774ECF07B017A1779F8127EEB7B73
:10B57600017A1779F8C003C002C0017B017A1779F6
:10B58600F89019C71229AB9019CAE4F0A37409F010
:10B59600D001D002D0031280327B017A1779F7905E
:10B5A600147DE0FF90191AEFF090191B7403F090C8
:10B5B600147EE0FF90191CEFF090191D7401F090B5
:10B5C600191EE4F07D257C0012433CEF70067FFFD8
:0CB5D60012E6AF229017F6E0FF12EA1B0D
:01B5E2002246
:05CC2B00901CD2EFF0A7
:10CC3000901CD374C8F0901CD4747CF0901CD5E484
:10CC4000F07B017A1C79D39014D3E0FF90191AEF8E
:10CC5000F090191B7403F09014D4E0FF90191CEFAE
:10CC6000F090191D7401F090191EE4F07D037C0012
:10CC700012433CEF70067FFF12E6AF22901CD2E019
:04CC8000FF12EA1B9A
:01CC8400228D
:05CC8500901CD6EFF049
:10CC8A00901CD774C8F0901CD8747DF0901CD9E41D
:10CC9A00F07B017A1C79D79014DEE0FF90191AEF25
:10CCAA00F090191B7403F09014DFE0FF90191CEF49
:10CCBA00F090191D7401F090191EE4F07D037C00B8
:10CCCA0012433CEF70067FFF12E6AF22901CD6E0BB
:04CCDA00FF12EA1B40
:01CCDE002233
:05B1270090193AEFF061
:10B12C0090193B74DDF012F7DA90193CEFF07B01CB
:10B13C007A19793D12DDBF788D7600788DE6FFEFB8
:10B14C00C39406501F788DE6FF7E02EF8EF0A4FFAD
:10B15C00AEF0743D2FF974193EFA7B0112D5BE780E
:10B16C008D0680D77B017A19793B9014F6E0FF901D
:10B17C00191AEFF090191B7403F09014F7E0FF907C
:10B18C00191CEFF090191D7401F090191EE4F07D5C
:10B19C000E7C0012433CEF70067FFF12E6AF22904C
:07B1AC00193AE0FF12EA1B53
:01B1B3002279
:05CCDF00901CDAEFF0EB
:10CCE400901CDB74C8F0901CDC746DF0901CDDE4C7
:10CCF400F07B017A1C79DB9014CAE0FF90191AEFDB
:10CD0400F090191B7403F09014CBE0FF90191CEF02
:10CD1400F090191D7401F090191EE4F07D037C005D
:10CD240012433CEF70067FFF12E6AF22901CDAE05C
:04CD3400FF12EA1BE5
:01CD380022D8
:05CD3900901CDEEFF08C
:10CD3E00901CDF74C8F0901CE0746EF0901CE1E45F
:10CD4E00F07B017A1C79DF9014DBE0FF90191AEF6B
:10CD5E00F090191B7403F09014DCE0FF90191CEF97
:10CD6E00F090191D7401F090191EE4F07D037C0003
:10CD7E0012433CEF70067FFF12E6AF22901CDEE0FE
:04CD8E00FF12EA1B8B
:01CD9200227E
:05B9D900901B49EFF096
:10B9DE00901B4EE4F0901B4A74D0F012F7C2901BED
:10B9EE004BEFF012EE53901B4CEFF012F08E901BBB
:10B9FE004DEFF0901B4DE0FFEF6006901B4EE00404
:10BA0E00F07B017A1B794A9014E5E0FF90191AEF4A
:10BA1E00F090191B7403F09014E6E0FF90191CEFE0
:10BA2E00F090191D7401F090191EE4F07D047C0055
:10BA3E0012433CEF70067FFF12E6AF22901B49E0E7
:04BA4E00FF12EA1BDE
:01BA520022D1
:05C4E200901CE2EFF0E8
:10C4E700901CE374F2F012F771901CE4EEF0A3EFE6
:10C4F700F07B017A1C79E412D5BE7B017A1C79E3C3
:10C507009014E8E0FF90191AEFF090191B7403F0EC
:10C517009014E9E0FF90191CEFF090191D7401F0D9
:10C5270090191EE4F07D037C0012433CEF70067FF8
:0DC53700FF12E6AF22901CE2E0FF12EA1BAB
:01C5440022D4
:058AE3009018BCEFF04B
:108AE8009018BD74F4F012F7719018BEEEF0A3EF71
:108AF800F07B017A1879BE12D5BE12F7789018C0AB
:108B0800EEF0A3EFF07B017A1879C012D5BE12F708
:108B1800259018C2EEF0A3EFF07B017A1879C21203
:108B2800D5BE12F72E9018C4EEF0A3EFF07B017AB1
:108B38001879C412D5BE12F7379018C6EEF0A3EF15
:108B4800F07B017A1879C612D5BE12F7409018C882
:108B5800EEF0A3EFF07B017A1879C812D5BE12F7B0
:108B68007F9018CA12291B7B017A1879CA12AC8D1A
:108B780012F7869018CE12291B7B017A1879CE122B
:108B8800AC8D12F7499018D2EEF0A3EFF07B017A82
:108B98001879D212D5BE7B017A1879BD901495E068
:108BA800FF90191AEFF090191B7403F0901496E0D7
:108BB800FF90191CEFF090191D7401F090191EE434
:108BC800F07D177C0012433CEF70067FFF12E6AF82
:098BD800229018BCE0FF12EA1B18
:018BE1002271
:05CD9300901CE6EFF02A
:10CD9800901CE774C8F0901CE87470F0901CE9E4EB
:10CDA800F07B017A1C79E7901504E0FF90191AEFDF
:10CDB800F090191B7403F0901505E0FF90191CEF13
:10CDC800F090191D7401F090191EE4F07D037C00A9
:10CDD80012433CEF70067FFF12E6AF22901CE6E09C
:04CDE800FF12EA1B31
:01CDEC002224
:05D26F00901DC2EFF06C
:10D27400901DC374D3F012F7D4901DC4EFF07B015A
:10D284007A1D79C39014C5E0FF90191AEFF0901934
:10D294001B7403F09014C6E0FF90191CEFF0901972
:10D2A4001D7401F090191EE4F07D027C0012433CD1
:10D2B400EF70067FFF12E6AF22901DC2E0FF12EA74
:01D2C4001B4E
:01D2C5002246
:05D2C600901DC5EFF012
:10D2CB00901DC674E8F012F7EC901DC7EFF07B01D0
:10D2DB007A1D79C69014ACE0FF90191AEFF09019F3
:10D2EB001B7403F09014ADE0FF90191CEFF0901934
:10D2FB001D7401F090191EE4F07D027C0012433C7A
:10D30B00EF70067FFF12E6AF22901DC5E0FF12EA19
:01D31B001BF6
:01D31C0022EE
:05A8C100901ABBEFF04E
:10A8C600901ABC74E5F0901ABD7414F0901ABE7418
:10A8D60062F07D007F0A12690AEF5401FF901ABFE9
:10A8E600EFF07D007F0A12690AEF7803CEC313CE1C
:10A8F60013D8F9FF901AC0EFF07D017F0A12690A9A
:10A90600EF5401FF901AC1EFF07D017F0A12690A28
:10A91600EF7803CEC313CE13D8F9FF901AC2EFF027
:10A926007B017A1A79BC9014CDE0FF90191AEFF0EA
:10A9360090191B7403F09014CEE0FF90191CEFF0F1
:10A9460090191D7401F090191EE4F07D077C001229
:10A95600433CEF70067FFF12E6AF22901ABBE0FF82
:03A9660012EA1BD7
:01A9690022CB
:05C04C00901CEAEFF07A
:10C05100901CEB74F1F07B017A1C79ECC003C002F7
:10C06100C0017B017A1C79ED901B7C1229ABD001B8
:10C07100D002D00312EEEB7B017A1C79EB90150D07
:10C08100E0FF90191AEFF090191B7403F090150E50
:10C09100E0FF90191CEFF090191D7401F090191E2A
:10C0A100E4F07D037C0012433CEF70067FFF12E653
:0AC0B100AF22901CEAE0FF12EA1B28
:01C0BB002262
:05CDED00901CEEEFF0C8
:10CDF200901CEF74C8F0901CF07464F0901CF1E485
:10CE0200F07B017A1C79EF9014C0E0FF90191AEFC1
:10CE1200F090191B7403F09014C1E0FF90191CEFFD
:10CE2200F090191D7401F090191EE4F07D037C004E
:10CE320012433CEF70067FFF12E6AF22901CEEE039
:04CE4200FF12EA1BD6
:01CE460022C9
:05CE4700901CF2EFF069
:10CE4C00901CF374C8F0901CF47465F0901CF5E41D
:10CE5C00F07B017A1C79F3901507E0FF90191AEF1B
:10CE6C00F090191B7403F0901508E0FF90191CEF5B
:10CE7C00F090191D7401F090191EE4F07D037C00F4
:10CE8C0012433CEF70067FFF12E6AF22901CF2E0DB
:04CE9C00FF12EA1B7C
:01CEA000226F
:05AF7D00901AF0EFF056
:10AF82007B017A1A79F2C003C002C0017B017A1AEE
:10AF920079F4901A821229AB7B017A1A79F6901A07
:10AFA200851229ABD001D002D00312E2EA901AF145
:10AFB20074C9F07B017A1A79F212D5BE7B017A1A32
:10AFC20079F412D5BE7B017A1A79F19014E1E0FF8F
:10AFD20090191AEFF090191B7403F09014E2E0FF3D
:10AFE20090191CEFF090191D7401F090191EE4F0F5
:10AFF2007D067C0012433CEF70067FFF12E6AF2213
:08B00200901AF0E0FF12EA1BB6
:01B00A002223
:05B5E300901B4FEFF08A
:10B5E8007B017A1B7951C003C002C0017B017A1B21
:10B5F8007953901B5E1229ABD001D002D00312E917
:10B60800BD901B5074F5F07B017A1B795112D5BEA1
:10B618007B017A1B795312D5BE7B017A1B79509036
:10B6280014AEE0FF90191AEFF090191B7403F09014
:10B6380014AFE0FF90191CEFF090191D7401F09001
:10B64800191EE4F07D057C0012433CEF70067FFF75
:0CB6580012E6AF22901B4FE0FF12EA1B2D
:01B6640022C3
:0587C300901CF6EFF030
:1087C800901CF6E0FFEF1229B487E10088210188A8
:1087D8005402887503000088CB9014EFE0FFEFB4D3
:1087E80001129014F07401F09014EFE4F07D007F12
:1087F8001012782B9014EDE0FFEF60179014EEE064
:10880800FF12BE82EF70067F0112EA1B227F001260
:10881800EA1B227F0312EA1B2212F2BEEFB4030600
:108828007F0112EA1B229014F0E0FFEF600B7F0338
:1088380012EA1B9014F0E4F0227B017A1479F17D9E
:10884800647C0012C72A7F0212EA1B227B017A1479
:1088580079F112C272EF70099014EFE0FFEFB401E2
:0D886800067F0012EA1B227F0212EA1B228B
:108875009014EDE0FD7F1012782B901CF774C8F072
:10888500901CF87490F0901CF9E4F07B017A1C7947
:10889500F79014EBE0FF90191AEFF090191B740391
:1088A500F09014ECE0FF90191CEFF090191D740185
:1088B500F090191EE4F07D037C0012433CEF600B41
:0688C5007F0312EA1B22F2
:0588CB007F0012EA1B12
:0188D0002285
:059E0D00901E76EFF04D
:109E1200901E76E0FFEF1229B49E25009E520100AB
:109E2200009ECE7F1912E092EF70087F1A12E09224
:109E3200EF60177B017A1479BB9014C3E0FCA3E0B6
:109E4200FD12C7897F0112EA1B227F0012EA1B2240
:109E52007F1912E092EF70087F1A12E092EF6067AA
:109E62009014FEE0FEA3E0FF9014D7E0FCA3E0FD17
:109E7200C3ED9FFFEC9EFE12E6E1C3EF9405EE9464
:109E820000502E7B017A1479BB12C2DDEF601C7D7B
:109E9200007F1A12782B7D007F1912782B7F011216
:109EA200F65412F75A7F0012EA1B227F0112EA1BB4
:109EB200229014D7E0FEA3E0FF9014FEEEF0A3EF91
:0C9EC200F07F0012EA1B227F0012EA1B56
:019ECE002271
:05C54500901E77EFF0ED
:10C54A00901E77E0FFEF1229B4C56000C57C01C5D3
:10C55A0090020000C5A77F1912E092EF70087F1AB7
:10C56A0012E092EF60067F0112EA1B227F0012EAB4
:10C57A001B227F8012B2C97B017A1479D712D84163
:10C58A007F0212EA1B227B017A14798412C272EFAB
:0DC59A0060067F0012EA1B227F0212EA1BDE
:01C5A7002271
:05CEA100901CFAEFF007
:10CEA600901CFB74C8F0901CFC7491F0901CFDE47F
:10CEB600F07B017A1C79FB901502E0FF90191AEFBE
:10CEC600F090191B7403F0901503E0FF90191CEF06
:10CED600F090191D7401F090191EE4F07D037C009A
:10CEE60012433CEF70067FFF12E6AF22901CFAE079
:04CEF600FF12EA1B22
:01CEFA002215
:05C6CB00901CFEEFF0E1
:10C6D000901CFF74C8F0901D00748EF0901515E04A
:10C6E000FF901D01EFF07B017A1C79FF901513E09C
:10C6F000FF90191AEFF090191B7403F0901514E0D5
:10C70000FF90191CEFF090191D7401F090191EE4B0
:10C71000F07D037C0012433CEF70067FFF12E6AF12
:09C7200022901CFEE0FF12EA1B4E
:01C7290022ED
:05D16800901B55EFF0E3
:10D16D00901B5674F0F07B017A1B795712E2A97B64
:10D17D00017A1B7956901509E0FF90191AEFF0907E
:10D18D00191B7403F090150AE0FF90191CEFF09035
:10D19D00191D7401F090191EE4F07D057C001243F9
:10D1AD003CEF70067FFF12E6AF22901B55E0FF1299
:02D1BD00EA1B6B
:01D1BF00224D
:05CEFB00901D02EFF0A4
:10CF0000901D0374C8F0901D047495F0901D05E405
:10CF1000F07B017A1D7903901480E0FF90191AEFDD
:10CF2000F090191B7403F0901481E0FF90191CEF2E
:10CF3000F090191D7401F090191EE4F07D037C003F
:10CF400012433CEF70067FFF12E6AF22901D02E015
:04CF5000FF12EA1BC7
:01CF540022BA
:05CF5500901D06EFF045
:10CF5A00901D0774C8F0901D087497F0901D09E49D
:10CF6A00F07B017A1D79079014D9E0FF90191AEF26
:10CF7A00F090191B7403F09014DAE0FF90191CEF7B
:10CF8A00F090191D7401F090191EE4F07D037C00E5
:10CF9A0012433CEF70067FFF12E6AF22901D06E0B7
:04CFAA00FF12EA1B6D
:01CFAE002260
:10D60F00901E78EFF0901E78E4F07F0012EA1B7DF9
:10D61F00F47C017FFF12A4AE9014BAE0FFEF7030DC
:10D62F009014B3E0FFEF7001227B017A14798A1214
:10D63F00C272EF601B7D007F1A12782B7D007F195D
:10D64F0012782B7F0012E57A7F0012EE9F12F75AA5
:01D65F0022A8
:05ABF100901854EFF084
:10ABF60090185574F7F07B017A1879567D037F001B
:10AC060012A96A7B017A18795E7D0012A1C87B01C0
:10AC16007A1879667D0112A1C87B017A187956C027
:10AC260003C002C0017B017A1879569019BB12291C
:10AC3600AB9019BEE4F0A3740CF0D001D002D0039F
:10AC460012A10C7B017A187955901500E0FF901936
:10AC56001AEFF090191B7403F0901501E0FF90199C
:10AC66001CEFF090191D7401F090191EE4F07D1987
:10AC76007C0012433CEF70067FFF12E6AF2290186D
:06AC860054E0FF12EA1B7E
:01AC8C0022A5
:10E6E100901E3DEEF0A3EFF0901E3DE0FEA3E0FF93
:10E6F100C3EE648094805011901E3DE0FEA3E0FFC4
:10E70100C3E49FFFE49EFE8008901E3DE0FEA3E06F
:02E71100FF22E5
:10F3460012DF327D007F0812782B7BFF7ABF79DBD4
:09F3560012D4C8901957EFF022FF
:0A782B00901D0AEFF0901D0BEDF028
:10783500901D0AE0FF12F52C901D0CEFF0901D0A2B
:10784500E0FFEF5407FF7401A807088002C333D88F
:10785500FCFF901D0DEFF0901D0AE0FFEF641A602C
:1078650009901D0AE0FFEFB41914901D0BE0FFEF1E
:10787500600C12F7C8EF60067F0112E57A22901DB1
:107885000CE0FFEFD394054003027994901D0BE0C3
:10789500FFEF6025901D0CE0FF744F2FF582E43457
:1078A50019F583C083C082E0FF901D0DE0FEEF4E09
:1078B500FFD082D083EFF08026901D0CE0FF744F3F
:1078C5002FF582E43419F583C083C082E0FF901D53
:1078D5000DE0FEEEF4FEEF5EFFD082D083EFF09078
:1078E5001D0CE0FFEF1229B4790300791C017935ED
:1078F50002794E03796704797E0500007994901D1D
:107905000CE0FF744F2FF582E43419F583E0FD7F19
:107915002A7E0012EC9522901D0CE0FF744F2FF586
:1079250082E43419F583E0FD7F2B7E0012EC95226D
:10793500901D0CE0FF744F2FF582E43419F583E0B8
:10794500FD7F2C7E0012EC9522901D0CE0FF744FFC
:107955002FF582E43419F583E0FD7F2D7E0012ECCE
:107965009522901D0CE0FF744F2FF582E43419F534
:1079750083E0FD7FA412E49D22901D0CE0FF744F6F
:0F7985002FF582E43419F583E0FD7FAA12E49D0B
:0179940022D0
:05E09200901E3FEFF0BD
:10E09700901E3FE0FFEF5407FF7401A807088002B6
:10E0A700C333D8FCFF901E40EFF0901E3FE0FF12F5
:10E0B700F52C744F2FF582E43419F583E0FF901E99
:0EE0C70040E0FEEF5EFFEF60037F01227F006E
:01E0D5002228
:10DF32007D007F2A7E0012EC957D007F2B7E0012F1
:10DF4200EC957D007F2C7E0012EC957D007F2D7E6E
:10DF52000012EC95788E7600788EE6FFEFC3940679
:10DF62005015788EE6FF744F2FF582E43419F5834D
:07DF7200E4F0788E0680E167
:01DF79002285
:10F52C00901E79EFF0901E79E0FFEF131313541F28
:02F53C00FF22AC
:10EC3D00901DC81229AB7B017A19794FC003C00210
:10EC4D00C001901DC81229A2A801AC02AD03D001CC
:0CEC5D00D002D0037E007F061224452266
:10BEF700901B8EEEF0A3EFF0901B90ECF0A3EDF00B
:10BF0700901B92EBF0901B92E0FFEF701D901B923D
:10BF1700E0FD7F0212782B901B92E0FD7F031278E1
:10BF27002B901957E0FF12E6AF22901B8EE0FEA37D
:10BF3700E0FF90194DEEF0A3EFF0901B90E0FEA309
:10BF4700E0FF901949EEF0A3EFF0901B92E0FD7F20
:10BF57000212782B901957E0FF901B92E0FD12E632
:02BF67001622A0
:10F3C300901DCB1229AB7F081270D6901DCB12294A
:08F3D300A2EE8FF012267D224C
:10E9BD00901B5B1229AB901955E0FEA3E0FF901B55
:10E9CD005B1229A2EE8FF012267D90194BE0FEA36B
:0FE9DD00E0FF901B5E1229A2EE8FF012267D2222
:10BFDB00901E7AEFF0901E7AE0FFEF60327B017AD1
:10BFEB0019795512F3C3901E7AE0FD7F0312782B5B
:10BFFB00901E7AE0FFEF70047F0180027F0012EA4F
:10C00B001B90194DE0FCA3E0FD7FFF12A4AE227B39
:10C01B00017A19794B12F3C3901E7AE0FD7F03125C
:10C02B00782B901E7AE0FFEF70047F0180027F0077
:10C03B0012EA1B901949E0FCA3E0FD7FFF12A4AEAE
:01C04B0022D2
:10E8FD0001020202020203030303030303030000E8
:10E90D00040404040505050580081020408001025B
:10E91D000408102040804080010204080102040810
:10F35F0053AD7F53A57F43908053A43F53E37F4327
:09F36F0080C053A60775A7002217
:056C4100901D0EEFF0B4
:106C4600901D0EE0FFEF90E8FD93FF901D11EFF011
:106C5600901D11E0FFEF1229B46C75006CB3016C46
:106C6600F1026D2F036D6D046D9C0500006DC97BEF
:106C7600017A1D79107F1A7E0012EC10901D10E02B
:106C8600FFEFF4FF901D10EFF0901D0EE0FFEF9068
:106C9600E91593FF901D10E0FEEE5FFFEF60047FA5
:106CA6000180027F00901D0FEFF0026DC97B017A13
:106CB6001D79107F1B7E0012EC10901D10E0FFEF77
:106CC600F4FF901D10EFF0901D0EE0FFEF90E91518
:106CD60093FF901D10E0FEEE5FFFEF60047F0180E2
:106CE600027F00901D0FEFF0026DC97B017A1D79BE
:106CF600107F1C7E0012EC10901D10E0FFEFF4FFD9
:106D0600901D10EFF0901D0EE0FFEF90E91593FF38
:106D1600901D10E0FEEE5FFFEF60047F0180027FB2
:106D260000901D0FEFF0026DC97B017A1D79107F6F
:106D36001D7E0012EC10901D10E0FFEF64EFFF9037
:106D46001D10EFF0901D0EE0FFEF90E91593FF90F8
:106D56001D10E0FEEE5FFFEF60047F0180027F0002
:106D6600901D0FEFF0805C7D007F0012690A901D78
:106D760010EFF0901D0EE0FFEF90E91593FF901DC8
:106D860010E0FEEE5FFFEF60047F0180027F00905F
:106D96001D0FEFF0802D7D017F0012690A901D10F6
:106DA600EFF0901D0EE0FFEF90E91593FF901D1098
:106DB600E0FEEE5FFFEF60047F0180027F00901D22
:086DC6000FEFF0901D0FE0FF3C
:016DCE0022A2
:068FAF00901B931229AB98
:108FB500901B96E4F0A37401F0901B931229A2E490
:108FC500122506901B931229A2758201758300E470
:108FD500122518901B931229A2758202758300E44D
:108FE500122518788F7600788FE6FFEFC394184026
:108FF5000302909B788FE6FF126C41EF6050788FEB
:10900500E6FFEF131313541FFF901B931229A2E9D8
:109015002FF9E43AFAC003C002C00112246BFD78AF
:109025008FE6FFEF5407FF901B96E0FAA3E0FBEBFA
:10903500AE02A807088005C333CE33CED8F9FFEDBD
:109045004FFFD001D002D003EF1225068042788F62
:10905500E6FFEF131313541FFF901B931229A2E988
:109065002FF9E43AFA12246BFF901B96E0FCA3E07B
:10907500FDAE05788FE6FDED5407FDEEA8050880E9
:1090850002C333D8FCFEEEF4FEEF5EFFEF122506B9
:06909500788F06028FEC4B
:01909B0022B2
:10ECC000901B9E7401F0901B9FE4F0901B9DE4F05C
:10ECD0007BFF7A7A79F912D4C8901BA1EFF0901BD0
:09ECE000A1E0FF7D0012E61622FE
:08F752007D017F1112782B22CA
:08F75A007D007F1112782B22C3
:10E9EC00901E7BEFF0901B9EE0FFEF6010901E7B63
:10E9FC00E0FF901B9FEFF07F0412EA1B22901E7B1E
:0FEA0C00E0FF12EA1B7D0E7C017FFF12A4AE22F9
:10DCDC007F0A126C41901E7CEFF0901BA0E0FFEFCE
:10DCEC00700C901E7CE0FFEF70047F002222901BD2
:10DCFC00A0E0FFEF700D901E7CE0FFEFB401047FFD
:10DD0C00012222901BA0E0FFEFB4010D901E7CE0DD
:0BDD1C00FFEFB401047F0322227F020E
:01DD270022D9
:06F7B600901B9DE0FF2204
:10F0F100901E7DEFF0901B9E7401F0901E7DE0FF4D
:10F10100EF6007901BA07401F022901BA0E4F02295
:06F7BC00901BA0E0FF22FB
:057AF900901B98EFF066
:107AFE0012DCDC901B99EFF0901B98E0FFEF640412
:107B0E00600A901B98E0FF901B9DEFF0901B98E091
:107B1E00FFEF1229B47B36007B72017BD8027BA863
:107B2E00037BE10400007C4B901B99E0FFEF1229D0
:107B3E00B47B4F007B55017B61027B5B0300007CB5
:107B4E00507F0012E9EC227F0112E9EC227F011234
:107B5E00EA1B227F0012EA1B7D0E7C017FFF12A41E
:107B6E00AE222222901B99E0FFEF1229B47B8B00EC
:107B7E007B91017BA0027B970300007C507F00125B
:107B8E00E9EC227F0112E9EC2212F7527F0312E98F
:107B9E00EC227F0012EA1B222222901B99E0FFEFBB
:107BAE001229B47BC1007BC1017BD0027BCA0300CA
:107BBE00007C5012F75A7F0112E9EC227F0312E982
:107BCE00EC227F0212EA1B22222212F75A7F0012A7
:037BDE00EA1B227D
:107BE100901B9FE0FF901B9DEFF0901B9EE4F09097
:107BF1001B9A74E0F0901BA0E0FF901B9BEFF0122A
:107C0100DCDC901B9CEFF07B017A1B799A90191AAE
:107C11007401F090191B7403F090191CE4F0901991
:107C21001DE4F090191EE4F07D037C0012433CEF4B
:107C31007012901B9FE0FF12EA1B7D0E7C017FFFFB
:0A7C410012A4AE227F0412EA1B22F7
:057C4B007F0012EA1B9E
:017C50002211
:0AF6F500901470E0FFEF5402FF22B2
:0AF6FF00901470E0FFEF5401FF22A9
:108269009014707403F0901478E4F09013D4E4F04F
:10827900A37478F09013E5E4F0A3743CF090143BF8
:10828900E4F09013CFE4F09013E0E4F09013E7E406
:10829900F09013EFE4F09013DBE4F0A3E4F0901313
:1082A900DEE4F0A3E4F09013DDE4F09013DAE4F0F7
:1082B9007B017A1379F17DE87C0312C7E87B017AA7
:1082C9001379FD7DE87C0312C7E87B017A147909EB
:1082D9007D057C001294FF7B017A14793C7D057C35
:1082E900001294FF9013E2E4F0A3740AF09013CB08
:1082F900E4F0A3E4F09013CDE4F0A3E4F090146E5D
:10830900E4F0A3E4F0901471E4F0A3E4F09013D046
:10831900122927000000009013D612292700000017
:10832900009013E8E4F0A3E4F09013E1E4F07BFF9C
:108339007A4C798B12D4C890147BEFF07BFF7AF3D7
:10834900792C12D4C890147AEFF07BFF7A6A79A855
:1083590012D4C8901479EFF090147BE0FF7D0012DD
:10836900E61690147AE0FF7D0012E616901479E083
:07837900FF7D0012E6162251
:10DE5500901B61EEF0A3EFF0901B63ECF0A3EDF0E7
:10DE6500901B65EBF0901B61E0FEA3E0FF9013D4DF
:10DE7500EEF0A3EFF0901B63E0FEA3E0FF9013E547
:10DE8500EEF0A3EFF0901B65E0FF901478EFF090B3
:0ADE95001B66E0FF901470EFF0220E
:10E57A00901E7EEFF0901E7EE0FF90143BEFF0902D
:10E58A001E7EE0FFEF60119013CFE4F09013E07469
:10E59A0001F09013DAE4F0229013CF7401F0901393
:04E5AA00E0E4F02297
:10EA49009013F07401F012F6F5EF600B12F08EEFEF
:10EA590070059013F0E4F012F6FFEF600B12EE531D
:0EEA6900EF70059013F0E4F09013F0E0FF2240
:10F08E00901478E0FFEF60037F012212F6F5EF7027
:10F09E000A12F6FFEF600412EE53229013EFE0FF18
:01F0AE00223F
:10EE5300901478E0FFEF60037F012212F6FFEF705A
:10EE63000F12F6F5EF60097BFF7AF0798EAF01227E
:06EE73009013E7E0FF220E
:10E54400901E7FEFF09013DBE4F0A3E4F09013DE71
:10E55400E4F0A3E4F012F6F5EF600A901E7FE0FD0C
:10E564007F1912782B12F6FFEF600A901E7FE0FDF0
:06E574007F1A12782B2231
:054C8B00901B67EFF033
:104C9000901B67E0FFEF1229B44CB2004D45014D67
:104CA000C6024E0B034E53044ECB054F2D0600009B
:104CB0004F789013E0E0FFEF60689013E1E0FFEFC2
:104CC00070439013E0E4F07F0112E5447B017A1316
:104CD00079EAC003C002C0019013D4E0FEA3E0FF54
:104CE0007C037DE8122A0D7B0A7A00790078001295
:104CF000276FAD07AC06D001D002D00312C72A7FC0
:104D00000112EA1B229013E0E4F09013DA7401F030
:104D10009013DD7406F09013E47402F07F0512EA3C
:104D20001B229013CFE0FFEF60159013CFE4F07FCC
:104D30000012E5449013DDE4F07F0312EA1B227FAA
:104D40000012EA1B229013CFE0FFEF60109013CF08
:104D5000E4F07F0012E5447F0312EA1B2212814E29
:104D600012EA49EF60397B017A147973C003C002FB
:104D7000C0019013E5E0FEA3E0FF7C037DE8122A6A
:104D80000D7B0A7A007900780012276FAD07AC0618
:104D9000D001D002D00312C72A7F0212EA1B227B65
:104DA000017A1379EA12C272EF60157F0012E544AE
:104DB0009013DDE4F09013E4E4F07F0512EA1B2287
:104DC0007F0112EA1B229013CFE0FFEF60109013D7
:104DD000CFE4F07F0012E5447F0312EA1B22128128
:104DE0004E12EA49EF70067F0112EA1B227B017A1C
:104DF00014797312C272EF600C7F0312EA1B9013D6
:0B4E0000DD7404F0227F0212EA1B2286
:104E0B00901B6874D1F012EA49901B69EFF07B019B
:104E1B007A1B796890191A7401F090191B7403F0BE
:104E2B0090191CE4F090191DE4F090191EE4F07D2C
:104E3B00027C0012433CEF70099013DDE0FF12EA95
:084E4B001B227F0312EA1B2267
:104E53009013CFE0FFEF60159013CFE4F07F0012C3
:104E6300E5449013DDE4F07F0312EA1B229013E084
:104E7300E0FFEF60119013E0E4F09013DD7404F0B1
:104E83007F0312EA1B2212EA49EF70369013DAE02D
:104E9300FFEF702E9013DA7401F09013E1E0FFEF4F
:104EA300700E9013DD7404F09013E47401F0800C21
:104EB3009013DD7406F09013E47402F07F0512EA98
:084EC3001B227F0412EA1B22EE
:104ECB00901B6874D2F012F7C2901B69EFF090132D
:104EDB00E4E0FF901B6AEFF012EE53901B6BEFF0C8
:104EEB0012F08E901B6CEFF07B017A1B7968901996
:104EFB001A7401F090191B7403F090191CE4F090D4
:104F0B00191DE4F090191EE4F07D057C0012433C62
:104F1B00EF70099013DDE0FF12EA1B227F0512EA06
:024F2B001B2247
:104F2D009013E1E0FFEF602F9013E0E0FFEF6017CB
:104F3D009013E0E4F09013DD7406F09013E4740226
:104F4D00F07F0512EA1B229013E0E4F09013CFE4FA
:104F5D00F07F0612EA1B229013E0E4F09013CFE4E9
:0B4F6D00F07F0012E5447F0012EA1BF9
:014F78002216
:10814E00901E41E4F0901E42E4F0901478E0FFEFB0
:10815E00600302826812F6F5EF600A7F09126C4125
:10816E00901E42EFF012F6FFEF600A7F0B126C4189
:10817E00901E41EFF0901E41E0FFEF60239013DB65
:10818E00E475F0011225A1AFF0FEC3EF9404EE6486
:10819E00809480402C9013DBE4F0A37404F08021D3
:1081AE009013DB74FF75F0FF1225A1AFF0FED3EF35
:1081BE009400EE6480948050089013DBE4F0A3E406
:1081CE00F0901E42E0FFEF60239013DEE475F001A5
:1081DE001225A1AFF0FEC3EF9404EE6480948040AC
:1081EE002C9013DEE4F0A37404F080219013DE745F
:1081FE00FF75F0FF1225A1AFF0FED3EF9400EE64F1
:10820E0080948050089013DEE4F0A3E4F09013DB2A
:10821E00E0FEA3E0FFEF64044E70089013E77401D4
:10822E00F080119013DBE0FEA3E0FFEF4E7005909F
:10823E0013E7E4F09013DEE0FEA3E0FFEF64044EDC
:10824E0070079013EF7401F0229013DEE0FEA3E0AE
:0A825E00FFEF4E70059013EFE4F0FF
:0182680022F3
:06F7C20090143BE0FF2261
:10F32C00901E80EFF012814E901E80E0FF12EA1BBF
:0AF33C007D367C017FFF12A4AE2293
:10EE7900901E43EEF0A3EFF09013E2E0FEA3E0FF53
:10EE8900901E43E0FCA3E0FDD3ED9FEC9E40047F80
:06EE99000122227F00228D
:10909C00901AF7EEF0A3EFF0901AF9ECF0A3EDF0C4
:1090AC00901AFB1229AB901AF9E0FEA3E0FF901A7C
:1090BC00F7E0FCA3E0FDD3ED9FEC9E4051901AFB32
:1090CC001229A21225CDFFAEF0901AF9E0FCA3E014
:1090DC00FD901AF7E0FAA3E0FBC3EB9DFDEA9CFCC4
:1090EC00D3ED9FEC9E500302917E901AF9E0FEA303
:1090FC00E0FF901AF7E0FCA3E0FDC3ED9FFFEC9EB0
:10910C00FE901AFB1229A2EE8FF012267D22901AE5
:10911C00F7E0FEA3E0FF901AF9E0FCA3E0FDD3ED2D
:10912C009FEC9E404D901AFB1229A21225CDFFAE4A
:10913C00F0901AF7E0FCA3E0FD901AF9E0FAA3E036
:10914C00FBC3EB9DFDEA9CFCD3ED9FEC9E40239072
:10915C001AF7E0FEA3E0FF901AF9E0FCA3E0FDC3D0
:10916C00ED9FFFEC9EFE901AFB1229A2EE8FF012DF
:03917C00267D222B
:056AA800901BA2EFF0BD
:106AAD007F121270D6901BA3EEF0A3EFF07F0F12A2
:106ABD0070D6901BA5EEF0A3EFF07B017A1379F160
:106ACD00901BA3E0FEA3E0FFE4FCFD127C517B01D3
:106ADD007A1379FD901BA5E0FEA3E0FFE4FCFD1207
:106AED007C51901439E0FEA3E0FFEF4E702B7B013B
:106AFD007A147909901BA3E0FEA3E0FFE4FCFD12DC
:106B0D0052577B017A14793C901BA5E0FEA3E0FF60
:106B1D00E4FCFD125257026C389013E8E475F00155
:106B2D001225A1901BA3E0FEA3E0FF12EE79EF600A
:106B3D0076901BA3E0FEA3E0FFC006C00790142DC6
:106B4D001228B3AD07AC067B017A14796ED007D04D
:106B5D000612909C9013D01228BF901BA3E0FEA3A9
:106B6D00E0FFE4FCFD1226C99013D012291B7B0116
:106B7D007A147909901BA3E0FEA3E0FFE4FCFD125B
:106B8D0052579013CBE0FEA3E0FFE4FCFD90142DD3
:106B9D001228BFD312280F400E90142D1228B39037
:106BAD0013CBEEF0A3EFF0901BA5E0FEA3E0FF12D8
:106BBD00EE79EF6076901BA5E0FEA3E0FFC006C066
:106BCD00079014601228B3AD07AC067B017A1479D7
:106BDD0071D007D00612909C9013D61228BF901B2F
:106BED00A5E0FEA3E0FFE4FCFD1226C99013D6122A
:106BFD00291B7B017A14793C901BA5E0FEA3E0FFD5
:106C0D00E4FCFD1252579013CDE0FEA3E0FFE4FC2F
:106C1D00FD9014601228BFD312280F400E901460FF
:106C2D001228B39013CDEEF0A3EFF0901BA2E0FF6E
:036C3D0012EA1B3D
:016C40002231
:07F771009013F11228B322EE
:07F778009013FD1228B322DB
:09F725009013CBE0FEA3E0FF22EB
:09F72E009013CDE0FEA3E0FF22E0
:09F7370090146EE0FEA3E0FF2235
:09F74000901471E0FEA3E0FF2229
:07F77F009013D01228B32201
:07F786009013D61228B322F4
:09F749009013E8E0FEA3E0FF22AA
:10EB2F00901DCEEFF0901DCFECF0A3EDF0901DCE29
:10EB3F00E0FFEF70047F0122227B017A1379F190BD
:0DEB4F001DCFE0FCA3E0FD12C7E87F01220E
:10A3FA00901AFEEFF0901AFFECF0A3EDF0901B011B
:10A40A00EAF0A3EBF0901AFEE0FFEF70047F01225E
:10A41A00227B017A1379F1901AFFE0FCA3E0FD1286
:10A42A00C7E87B017A1379FD901AFFE0FCA3E0FDEF
:10A43A0012C7E87B017A147909901B01E0FCA3E0BA
:10A44A00FD1294FF7B017A14793C901B01E0FCA376
:10A45A00E0FD1294FF901B03E0FEA3E0FF9013E2DD
:10A46A00EEF0A3EFF09013CBE4F0A3E4F09013CD59
:10A47A00E4F0A3E4F090146EE4F0A3E4F090147115
:10A48A00E4F0A3E4F09013D0122927000000009012
:10A49A0013D6122927000000009013E8E4F0A3E481
:04A4AA00F07F01221C
:10F65400901E81EFF0901E81E0FF9013E1EFF02205
:06F7C8009013E1E0FF22B6
:10F46600901A2BE4F07BFF7A79799512D4C8901A1A
:04F476002FEFF02262
:10F17100901E45EFF0901E46EDF0901E45E0FF9089
:0FF181001A2EEFF0901E46E0FF901A2CEFF022AE
:10ED6400901E82EFF0901A2FE0FF12F423EF60035D
:10ED74007F0022901E82E0FF901A2DEFF0901A2F50
:08ED8400E0FF7D0012E61622FB
:06F7CE00901A2BE0FF225F
:05799500901D12EFF04F
:10799A00901D12E0FFEF1229B479B0007A7F017AC4
:1079AA00A20200007AEE901A2DE0FFEF603C901AD6
:1079BA002DE0FD7F1812782B901A2DE0FD7F1C1206
:1079CA00782B901A2DE0FD7F1D12782B901A2DE04E
:1079DA00FD7F1E12782B901A2DE0FD7F1F12782B47
:1079EA00901A2DE0FF12F6EA803A901A2DE0FF1263
:1079FA00F6EA901A2DE0FD7F1812782B901A2DE0E6
:107A0A00FD7F1C12782B901A2DE0FD7F1D12782B1A
:107A1A00901A2DE0FD7F1E12782B901A2DE0FD7F23
:107A2A001F12782B901A2DE0FFEF6007901A2EE0B4
:107A3A00FF8005901A2CE0FF901D13EFF07B017A6E
:107A4A001A7926C003C002C001901D13E0FF7E0010
:107A5A007C037DE8122A0D7B0A7A007900780012ED
:107A6A00276FAD07AC06D001D002D00312C72A7F18
:107A7A000112EA1B227B017A1A792612C272EF607E
:107A8A0010901A2DE0FF901A2BEFF07F0212EA1BDA
:087A9A00227F0112EA1B2222E7
:107AA200901D1474CDF0901A2BE0FF901D15EFF08D
:107AB2007B017A1D791490191A7401F090191B74C4
:107AC20003F090191CE4F090191DE4F090191EE4E3
:107AD200F07D027C0012433CEF700B7F0012EA1B28
:0C7AE2007FFF12E6AF227F0212EA1B2297
:0A7AEE007F0012EA1B7FFF12E6AFD3
:017AF800226B
:07F78D00901D1A7402F02226
:0AB66500901D16EFF0901D17EDF098
:10B66F0012F6DFEFB401037F0222901D1A7403F06C
:10B67F00901D16E0FFEF2408FF7D0112ED1212F767
:10B68F009BAE02AF01901D18EEF0A3EFF0901D18C6
:10B69F00E0FEA3E0FF8F828E83E4F0901D17E0FFA2
:10B6AF00901D18E0FCA3E0FD8D828C83A3EFF07B4F
:10B6BF00017A1D791BC003C002C0017BFF7AEF79AD
:10B6CF00349019961229ABD001D002D0037F027E9D
:06B6DF00001288D17F007B
:01B6E5002242
:10EF3400C0D075D018901E83EFF0901E83E0FFEFD1
:10EF44007008901D1A7401F08006901D1A7402F066
:03EF5400D0D022F8
:10ED8C00901E84EFF0901D1AE0FFEFB403037F0395
:10ED9C0022901E84E0FFEF2408FF7D0012ED12127A
:08EDAC00000E901D1AE0FF2289
:10F3780004050203040502030712131415161710D7
:09F3880011000001010101000067
:10B35000789076007890E6FFEFC394095058789083
:10B36000E6FFEF75F019A4241EF582E43412F5838C
:10B37000E4F0A3E4F07890E6FFEF75F019A4242040
:10B38000F582E43412F583E4F07890E6FFEF75F08F
:10B3900019A42421F582E43412F583E4F07890E6D0
:10B3A000FFEF75F019A42422F582E43412F583E44A
:10B3B000F0789006809E901207740AF07BFF7A98CE
:10B3C000796912D4C8901209EFF0901209E0FF7D5C
:04B3D0000012E6166B
:01B3D4002256
:05986900901A30EFF041
:10986E00901A30E0FFEF1229B498810098A20100FF
:10987E0000993812656E901208E0FFEF60077F01C5
:10988E0012EA1B800F7F0012EA1B7DE67C007FFF31
:04989E0012A4AE2240
:1098A200901A3174E9F0901222E0FF901A32EFF030
:1098B20090123BE0FF901A33EFF0901254E0FF90C9
:1098C2001A34EFF090126DE0FF901A35EFF090121B
:1098D20086E0FF901A36EFF090129FE0FF901A3761
:1098E200EFF09012B8E0FF901A38EFF09012D1E04A
:1098F200FF901A39EFF07B017A1A793190191A74B4
:1099020001F090191B7403F090191CE4F090191DDA
:10991200E4F090191EE4F07D097C0012433CEF70E4
:109922000F7F0012EA1B7DE67C007FFF12A4AE22AD
:069932007F0112EA1B2276
:059938007F0012EA1B94
:01993D002207
:10656E00901208E4F0788776007887E6FFEFC39400
:10657E000940030267467887E6FFEF90F38193FFA9
:10658E00126C417886A6077887E6FFEFC394085011
:10659E00207887E6FFEF90F37893FF7887E6FEEE9C
:1065AE0090F38993FD12690A7884A60608A60780DF
:1065BE00147887E6FFEF90F37893FF1270D6788405
:1065CE00A60608A6077887E6FFEF75F019A4240A39
:1065DE00F582E43412F583AF82AE83901E47EEF05F
:1065EE00A3EFF0901E47E0FEA3E0FF8F828E83E5BF
:1065FE00822418F582E5833400F583E0FF7886E681
:10660E00FEEF6E60437887E6FFEF6408603A901EF7
:10661E0047E0FEA3E0FF8F828E83E5822416F5828B
:10662E00E5833400F583E4F0901E47E0FEA3E0FF1F
:10663E008F828E83E5822417F582E5833400F583FD
