:09ACFE0000010203040506070829
:10A33D0075840075BA0075BC189010DAE4F075BB21
:10A34D000075D1077E007F127D007B017A1079DBCD
:10A35D00121A1C75E80C12A80843E88043E702D2D4
:02A36D00AF221D
:03007B00027BEB1A
:107BEB00C0E0C0F0C083C082C0D075D00853E7FDA1
:107BFB00C2EDAFBF7E009010DAE0FDED25E024DB97
:107C0B00F582E43410F583EEF0A3EFF09010DAE098
:107C1B00FFEF25E024DBF582E43410F583C083C04D
:107C2B0082E0FEA3E0FFEF7F00FED082D083EEF078
:107C3B00A3EFF09010DAE0FFEF25E024DBF582E410
:107C4B003410F583C083C082E0FEA3E0FFADBE7CA1
:107C5B0000EE4CFEEF4DFFD082D083EEF0A3EFF0A1
:107C6B0012A61A43E702D0D0D082D083D0F0D0E056
:017C7B0032D6
:10826E0090128DEFF090128EEDF090128FEBF0A336
:10827E00EAF0A3E9F053E7FD90128DE0FF7E009047
:10828E00128EE0FD7C00C3ED9FFFEC9EFEEF2401FD
:10829E00FFEE3400FEEF25E0FFEE33FEC006C00712
:1082AE0090128DE0FF7E02EF8EF0A4FFAEF074DB35
:1082BE002FF974103EFA7B01C003C002C001901268
:1082CE008FE0FBA3E0FAA3E0F9A801AC02AD03D066
:1082DE0001D002D003D007D0061214E843E70222E1
:10A61A00C0D075D0089010DAE004FFF0EFB4090555
:10A62A009010DAE4F09010DAE0FFEF90ACFE93FFBE
:05A63A008FBBD0D0220F
:085D0300450ECE00040206016A
:10A63F00C200C201758400759A4075F809759DFFB7
:10A64F0075840F43A60743E10243E34043F60143FA
:03A65F00E60122EF
:1086B4009011E6EEF0A3EFF09011E8EBF0A3EAF0EE
:1086C400A3E9F075840053E6FE9011E8E0FBA3E013
:1086D400FAA3E0F9AE02AF01900E68EEF0A3EFF05A
:1086E4009011E6E0FEA3E0FF900E67EFF09011EB2F
:1086F400E0FBA3E0FAA3E0F9900E64EBF0A3EAF048
:10870400A3E9F0900E63E4F0900E63E0FF04F074CC
:108714006A2FF582E4340EF583E0FF8F9B43E60174
:038724007F0022B1
:0300330002603D2B
:10603D00C0E0C0F0C083C082C0D075D01820FF036F
:10604D000260ECC2FF30010375A0FD900E63E0FF0E
:10605D007E00EF24FFFFEE34FFFE900E68E0FCA300
:10606D00E0FD8D828C83E5822FF582E5833EF583FD
:10607D00E59BF0900E67E0FF900E63E0FEEEC39F90
:10608D00503730011B900ED3E4F0900ED3E0FFEFAC
:10609D00C394145008900ED3E004F080ED75A0F871
:1060AD00900E63E0FF04F0746A2FF582E4340EF570
:1060BD0083E0FF8F9B807D8026900E67E0FF900E22
:1060CD0063E0FEEEB51F18900E64E0FBA3E0FAA3AB
:1060DD00E0F989828A837F007E001219ED805530A8
:1060ED00FE1AC2FE900E64E0FBA3E0FAA3E0F9896C
:1060FD00828A837F027E001219ED803830FD1AC22C
:10610D00FD900E64E0FBA3E0FAA3E0F989828A8397
:10611D007F037E001219ED801B30FC18C2FC900E1F
:10612D0064E0FBA3E0FAA3E0F989828A837F047E11
:0F613D00001219EDD0D0D082D083D0F0D0E03254
:0BACDF003000037F0122D2007F002222
:03000600C2002213
:10A402009013B7EFF09013B8EDF09013B8E0FFEFB0
:10A41200B401179013B7E0FF74CE2FF582E4340E27
:0EA42200F583E0FFEF44F8F5A02275A0FD22BF
:07AD56007B017A0E796A22ED
:10AB23009013EDEFF09013EDE0FFEF24FF9201227D
:109EF800A2AF9204C2AF75840043911043910F75CD
:109F0800985012A907C299C298D2ACD2BCA20492A6
:109F1800AF75840F43E10443E340900000E4F09000
:0F9F28000101E4F0900102E4F090010374FFF0F6
:019F37002207
:10A26E0053E7BF7584017598105398FC43F740125D
:10A27E00A95275840F43E30443E3409001A7E4F031
:10A28E009002A8E4F09002A9E4F09002AA74FFF004
:04A29E0043E7402230
:03002300027D0D4E
:0D7D0D00C0E0C0F0C083C082C0D075D010AF
:107D1A00C2ACE59130E70353917FE59130E6035316
:107D2A0091BF309816C2989013EEE599F07B017ACC
:107D3A000179049013EEE0FD125F2B309946C29947
:107D4A00900102E0FF900101E0FEEE6F60319001C8
:107D5A0002E0FF74012FF582E43400F583E0FF8F1F
:107D6A0099900102E0FF7E00EF2401FFEE3400FE4D
:107D7A007E00900102EFF0900103E004F08005908C
:067D8A000000E4F0D2ACA1
:0B7D9000D0D0D082D083D0F0D0E03201
:0300A30002836D68
:10836D00C0E0C0F0C083C082C0D075D01053E7BF4D
:10837D00E59830E00E5398FE7B017A0279ABAD990A
:10838D00125F2BE59830E1475398FD9002A9E0FF6D
:10839D009002A8E0FEEE6F60319002A9E0FF74A894
:1083AD002FF582E43401F583E0FF8F999002A9E067
:1083BD00FF7E00EF2401FFEE3400FE7E009002A947
:1083CD00EFF09002AAE004F080059001A7E4F043DD
:0D83DD00E740D0D0D082D083D0F0D0E03285
:10953800901245EBF0A3EAF0A3E9F0901248EDF0A1
:10954800901249E0FFEF7018901245E0FBA3E0FA93
:10955800A3E0F9901248E0FD12460090124AEFF09D
:10956800901249E0FFEFB40118901245E0FBA3E028
:10957800FAA3E0F9901248E0FD1247D790124AEF9B
:06958800F090124AE0FF22
:01958E0022BA
:104600009011B0EBF0A3EAF0A3E9F09011B3EDF054
:104610007B017A0079009011B6EBF0A3EAF0A3E9F0
:10462000F07584009011B6E0FBA3E0FAA3E0F97501
:104630008203758301121527FF9011B3E0FEEFC3CB
:104640009E50037F01229011B4E4F09011B3E0FF7B
:104650009011B4E0FEEEC39F4003024717A2ACE402
:1046600033FF9011B5EFF0C2AC9011B0E0FBA3E0C6
:10467000FAA3E0F99011B4E0FF8F82758300121560
:1046800027FF9011B6E0FBA3E0FAA3E0F9758201E1
:10469000758301121527FEEEFD7C009011B6E0FB3C
:1046A000A3E0FAA3E0F9E92401F9EA3400FAE92DDC
:1046B000F9EA3CFAEF1215A99011B6E0FBA3E0FA73
:1046C000A3E0F9758201758301121527FF7E00EFC3
:1046D0002401FFEE3400FE7E009011B6E0FBA3E063
:1046E000FAA3E0F9758201758301EF1215BB9011F1
:1046F000B6E0FBA3E0FAA3E0F975820375830174C9
:10470000FF1215769011B5E0FFEF24FF92AC9011E7
:10471000B4E004F002464BA2ACE433FF9011B5EFD5
:10472000F0C2AC9011B6E0FBA3E0FAA3E0F91215D9
:104730000EFFEF60030247CA9011B6E0FBA3E0FA58
:10474000A3E0F974011215A99011B6E0FBA3E0FAF9
:10475000A3E0F9758202758301121527FF7E009090
:1047600011B6E0FBA3E0FAA3E0F9E92401F9EA3489
:1047700000FAE92FF9EA3EFA12150EFF8F9990110F
:10478000B6E0FBA3E0FAA3E0F9758202758301129B
:104790001527FF7E00EF2401FFEE3400FE7E00901F
:1047A00011B6E0FBA3E0FAA3E0F97582027583017C
:1047B000EF1215BB9011B6E0FBA3E0FAA3E0F97588
:1047C000820375830174011215769011B5E0FFEF35
:0647D00024FF92AC7F0003
:0147D60022C0
:1047D7009011B9EBF0A3EAF0A3E9F09011BCEDF06A
:1047E7007B017A0179A79011BFEBF0A3EAF0A3E967
:1047F700F07584019011BFE0FBA3E0FAA3E0F9751F
:104807008203758301121527FF9011BCE0FEEFC3E9
:104817009E50037F01229011BDE4F09011BCE0FF90
:104827009011BDE0FEEEC39F40030248EDE5E7545B
:1048370040FF9011BEEFF053E7BF9011B9E0FBA323
:10484700E0FAA3E0F99011BDE0FF8F8275830012B3
:104857001527FF9011BFE0FBA3E0FAA3E0F97582EB
:1048670001758301121527FEEEFD7C009011BFE054
:10487700FBA3E0FAA3E0F9E92401F9EA3400FAE935
:104887002DF9EA3CFAEF1215A99011BFE0FBA3E05E
:10489700FAA3E0F9758201758301121527FF7E00DF
:1048A700EF2401FFEE3400FE7E009011BFE0FBA372
:1048B700E0FAA3E0F9758201758301EF1215BB9049
:1048C70011BFE0FBA3E0FAA3E0F97582037583014A
:1048D70074FF1215769011BEE0FFEF42E79011BD0D
:1048E700E004F0024822E5E75440FF9011BEEFF0E4
:1048F70053E7BF9011BFE0FBA3E0FAA3E0F912155D
:104907000EFFEF60030249A19011BFE0FBA3E0FA9D
:10491700A3E0F974011215A99011BFE0FBA3E0FA17
:10492700A3E0F9758202758301121527FF7E0090B7
:1049370011BFE0FBA3E0FAA3E0F9E92401F9EA34A7
:1049470000FAE92FF9EA3EFA12150EFF8F99901136
:10495700BFE0FBA3E0FAA3E0F975820275830112B9
:104967001527FF7E00EF2401FFEE3400FE7E009046
:1049770011BFE0FBA3E0FAA3E0F97582027583019A
:10498700EF1215BB9011BFE0FBA3E0FAA3E0F975A6
:10499700820375830174011215769011BEE0FFEF53
:0449A70042E77F0064
:0149AB0022E9
:10A7EA009013EFEFF09013EFE0FF7E007C017DA75E
:0EA7FA001215DD74042FF974013EFA7B012262
:10AAED00A2ACE433FF9013F0EFF0C2AC9013F0E0A2
:01AAFD00FF59
:01AAFE002235
:10AAC700E5E75440FF9013F1EFF053E7BF9013F120
:02AAD700E0FF9E
:01AAD900225A
:10AAFF00A2ACE433FF9013F2EFF0D2AC9013F2E07C
:01AB0F00FF46
:01AB10002222
:10AADA00E5E75440FF9013F3EFF043E7409013F398
:02AAEA00E0FF8B
:01AAEC002247
:0CACBB00900654E4F090065574FFF0225F
:0B895E009012D8EBF0A3EAF0A3E9F0C0
:10896900900654E0FFEFC3945640037FFF22900620
:1089790054E0FF9012DBEFF09012D8E0FBA3E0FA8D
:10898900A3E0F99012DBE0FF75F009EFA4244EF59E
:1089990082E5F03403F583EBF0A3EAF0A3E9F09064
:1089A90012DBE0FF75F009EFA42452F582E5F034FB
:1089B90003F583E4F0900654E004F09012DBE0FF45
:0189C900228B
:10A076009013B9EFF09013BAEDF09013B9E0FF75B5
:10A08600F009EFA42452F582E5F03403F583740257
:10A09600F09013BAE0FF9013B9E0FE75F009EEA454
:0DA0A6002451F582E5F03403F583EFF0223C
:10A0B3009013F4EFF09013F4E0FFEFB4FF17900662
:10A0C30055E0FF75F009EFA42452F582E5F034035F
:10A0D300F583E4F0229013F4E0FF75F009EFA42474
:0CA0E30052F582E5F03403F583E4F0222E
:10A128009013F5EFF09013F5E0FF900655E0FE75FB
:10A13800F009EEA42451F582E5F03403F583EFF03D
:10A14800900655E0FF75F009EFA42452F582E5F07A
:08A158003403F5837402F022C8
:10721500901360EFF0901361ECF0A3EDF090136024
:10722500E0FFEF64FF7052900655E0FF75F009EF3F
:10723500A42452F582E5F03403F5837403F0900637
:1072450055E0FF7E09EF8EF0A4FFAEF074532FF9E1
:1072550074033EFA7B01C003C002C001901361E0D4
:10726500FEA3E0FF7C007D0A1215EFAC06AD07D04A
:1072750001D002D003129C4B22901360E0FF75F001
:1072850009EFA42452F582E5F03403F5837403F085
:10729500901360E0FF7E09EF8EF0A4FFAEF074530B
:1072A5002FF974033EFA7B01C003C002C00190139D
:1072B50061E0FEA3E0FF7C007D0A1215EFAC06AD90
:0B72C50007D001D002D003129C4B2226
:105642009013F6E4F0900654E0FF9013F6E0FEEEBD
:10565200C39F400302576D900654E0FF900655E049
:1056620004FEF0EEB50705900655E4F0900655E00D
:10567200FF75F009EFA42452F582E5F03403F583B7
:10568200E0FFEF64027051900655E0FF75F009EFFC
:10569200A42452F582E5F03403F5837401F09006F8
:1056A20055E0FF75F009EFA42451F582E5F03403CB
:1056B200F583E0FF900655E0FE75F009EEA4244E56
:1056C200F582E5F03403F583E0FBA3E0FAA3E0F909
:1056D20089828A831219ED22900655E0FF75F0093E
:1056E200EFA42452F582E5F03403F583E0FFEF6482
:1056F20003706F900655E0FF7E09EF8EF0A4FFAEB7
:10570200F074532FF974033EFA7B01129797EF60FE
:1057120051900655E0FF75F009EFA42452F582E599
:10572200F03403F5837401F0900655E0FF75F0093B
:10573200EFA42451F582E5F03403F583E0FF9006EF
:1057420055E0FE75F009EEA4244EF582E5F034032F
:10575200F583E0FBA3E0FAA3E0F989828A831219B8
:0B576200ED229013F6E004F002564721
:01576D002219
:10A87E009013F7EFF09013F7E0FF75F009EFA424B3
:0CA88E0052F582E5F03403F583E0FF2270
:1075A400901363EBF0A3EAF0A3E9F0901363E0FB1C
:1075B400A3E0FAA3E0F975820375830074951215AC
:1075C400BB901363E0FBA3E0FAA3E0F975820175B5
:1075D4008300E41215BB901363E0FBA3E0FAA3E07D
:1075E400F9758202758300E41215BB901363E0FB06
:1075F400A3E0FAA3E0F9758205758300E41215BBD4
:10760400901363E0FBA3E0FAA3E0F97582047583A9
:1076140000E41215BB901363E0FBA3E0FAA3E0F9C6
:10762400E41215A9901363E0FBA3E0FAA3E0F97553
:10763400820A758300E41215BB901363E0FBA3E098
:0F764400FAA3E0F975820B758300E41215BB22DF
:105F2B00C0D075D0109012DCEBF0A3EAF0A3E9F02F
:105F3B009012DFEDF09012DCE0FBA3E0FAA3E0F9A6
:105F4B00758202758300121527FF9012DCE0FBA30C
:105F5B00E0FAA3E0F9758201758300121527FEEEB6
:105F6B00B5171D9012DCE0FBA3E0FAA3E0F97582F4
:105F7B0005758300121527FFEF60057F0302603A5A
:105F8B009012DFE0FF9012DCE0FBA3E0FAA3E0F954
:105F9B00758201758300121527FEEEFD7C009012B1
:105FAB00DCE0FBA3E0FAA3E0F9E9240DF9EA340005
:105FBB00FAE92DF9EA3CFAEF1215A99012DCE0FB95
:105FCB00A3E0FAA3E0F9758203758300121527FF8E
:105FDB009012DCE0FBA3E0FAA3E0F9758201758374
:105FEB0000121527FEEEC39F50189012DCE0FBA3A6
:105FFB00E0FAA3E0F975820175830074011215763E
:10600B0080159012DCE0FBA3E0FAA3E0F9758201A6
:10601B00758300E41215BB9012DCE0FBA3E0FAA33E
:10602B00E0F975820575830074011215767F01D036
:02603B00D02271
:0B5E18009011EEEBF0A3EAF0A3E9F01C
:105E23009011EEE0FBA3E0FAA3E0F9758205758318
:105E330000121527FFEF70067F0322025F289011DF
:105E4300F4E0FFEF700A12AAED9011F5EFF080086D
:105E530012AAC79011F5EFF09011EEE0FBA3E0FA60
:105E6300A3E0F9758202758300121527FF7E009067
:105E730011EEE0FBA3E0FAA3E0F9E9240DF9EA341B
:105E830000FAE92FF9EA3EFA12150EFF9011F1E03C
:105E9300FBA3E0FAA3E0F9EF1215A99011EEE0FBE2
:105EA300A3E0FAA3E0F9758203758300121527FFB7
:105EB3009011EEE0FBA3E0FAA3E0F975820275838B
:105EC30000121527FEEEC39F50189011EEE0FBA3BE
:105ED300E0FAA3E0F9758202758300740112157666
:105EE30080159011EEE0FBA3E0FAA3E0F9758202BE
:105EF300758300E41215BB9011EEE0FBA3E0FAA357
:105F0300E0F975820575830074FF1215769011F51B
:105F1300E0FFEF60109011F4E0FFEF700512AAFFAD
:075F2300800312AADA7F01DE
:015F2A002254
:1088EE00901366EBF0A3EAF0A3E9F0901366E0FBB9
:1088FE00A3E0FAA3E0F975820375830074021215E2
:10890E00BB901366E0FBA3E0FAA3E0F97582027553
:10891E008300E41215BB901366E0FBA3E0FAA3E01C
:10892E00F9758201758300E41215BB901366E0FBA6
:10893E00A3E0FAA3E0F9758204758300E41215BB77
:10894E00901366E0FBA3E0FAA3E0F9E41215A92266
:1096EB00901369EBF0A3EAF0A3E9F0901369E0FBA8
:1096FB00A3E0FAA3E0F9758203758300121527FF27
:10970B00901369E0FBA3E0FAA3E0F975820475837B
:10971B0000121527FEEEB507057EFF7FFF22901383
:10972B0069E0FBA3E0FAA3E0F975820275830012EE
:06973B001527FF7E00224D
:10805300901292EBF0A3EAF0A3E9F0901295ECF002
:10806300A3EDF0901292E0FBA3E0FAA3E0F975828E
:1080730003758300121527FF7E00EF24FFFFEE3404
:10808300FFFE901295E0FCA3E0FDD3ED9FEE64802C
:10809300F8EC6480985010901295E0FEA3E0FFC3C3
:1080A300EE6480948050077B007A0079002290125E
:1080B30092E0FBA3E0FAA3E0F9E92406F9EA34002D
:1080C300FA901295E0FEA3E0FF7C007D4B1215DDD4
:0780D300E92FF9EA3EFA2251
:1085550090136CEBF0A3EAF0A3E9F090136CE0FB49
:10856500A3E0FAA3E0F9758203758300121527FFCE
:1085750090136CE0FBA3E0FAA3E0F9758202758322
:10858500007401121576FEEEB5071590136CE0FB2D
:10859500A3E0FAA3E0F9758202758300E41215BB26
:1085A50090136CE0FBA3E0FAA3E0F9E41215A9909F
:1085B500136CE0FBA3E0FAA3E0F975820475830070
:0685C5007401121576227C
:109F380090136FEBF0A3EAF0A3E9F090136FE0FB46
:109F4800A3E0FAA3E0F9758204758300121527FFD0
:109F5800EF70057EFF7FFF2290136FE0FBA3E0FA0E
:109F6800A3E0F9758201758300121527FF7E002290
:1082EE00901372EBF0A3EAF0A3E9F0901372E0FBA7
:1082FE00A3E0FAA3E0F9758204758300121527FF37
:10830E00EF605B901372E0FBA3E0FAA3E0F97582D5
:10831E0003758300121527FF901372E0FBA3E0FA9A
:10832E00A3E0F97582017583007401121576FEEED5
:10833E00B50715901372E0FBA3E0FAA3E0F975827E
:10834E0001758300E41215BB901372E0FBA3E0FAF3
:0F835E00A3E0F975820475830074FF121576226F
:107C7C0090124BEBF0A3EAF0A3E9F090124EECF06B
:107C8C00A3EDF090124BE0FBA3E0FAA3E0F9121580
:107C9C000EFFEFC3944B5068901250E0FFC007905A
:107CAC00124BE0FBA3E0FAA3E0F9E92406F9EA346D
:107CBC0000FA90124EE0FEA3E0FF7C007D4B121503
:107CCC00DDE92FF9EA3EFAC003C002C00190124B65
:107CDC00E0FBA3E0FAA3E0F912150EFF7E00D00141
:107CEC00D002D003E92FF9EA3EFAD007EF1215A91A
:107CFC0090124BE0FBA3E0FAA3E0F97401121554C7
:017D0C002254
:109997009009177497F09009187497F07F0012A731
:1099A700EAAE02AF01900AFBEEF0A3EFF07F0112DF
:1099B700A7EAAE02AF01900B99EEF0A3EFF0900A81
:1099C700FBE0FEA3E0FFAA06A9077B011275A4909E
:1099D7000B99E0FEA3E0FFAA06A9077B011275A475
:0199E700225D
:1027C0009010EDEBF0A3EAF0A3E9F09010F0ECF03C
:0327D000A3EDF086
:1027D3009010F9E4F09010F2E0FFEFB4010B900DCC
:1027E300A4E0FFEF60037F00229010F6E0FFEF709C
:1027F3001F7E097F199010FBEEF0A3EFF07B017AA7
:102803000979179010FDEBF0A3EAF0A3E9F0801D1E
:102813007E0A7F589010FBEEF0A3EFF07B017A095C
:1028230079189010FDEBF0A3EAF0A3E9F09010F50E
:10283300E0FFEF600C9010F4E0FF9010FAEFF080EF
:10284300149010FDE0FBA3E0FAA3E0F912150EFFCC
:102853009010FAEFF09010F0E0FEA3E0FFD3EF94B6
:102863004BEE940040037F01229010FBE0FEA3E0B7
:10287300FF8F828E837455F09010FBE0FEA3E0FF80
:102883008F828E83A37433F09010F77406F0901048
:10289300F3E0FF9010F7E0FE04F09010FBE0FCA3E0
:1028A300E0FD8D828C83E5822EF582E43583F5830A
:1028B300EFF09010F3E0FFEFB455209010F7E0FF36
:1028C30004F09010FBE0FCA3E0FD8D828C83E58295
:1028D3002FF582E43583F58374AAF09010F2E0FFBC
:1028E3009010F7E0FE04F09010FBE0FCA3E0FD8DF8
:1028F300828C83E5822EF582E43583F583EFF090B5
:1029030010F2E0FFEFB455209010F7E0FF04F090D1
:1029130010FBE0FCA3E0FD8D828C83E5822FF58222
:10292300E43583F58374AAF09010FAE0FF9010F772
:10293300E0FE04F09010FBE0FCA3E0FD8D828C83AD
:10294300E5822EF582E43583F583EFF09010FAE00B
:10295300FFEFB455209010F7E0FF04F09010FBE078
:10296300FCA3E0FD8D828C83E5822FF582E4358321
:10297300F58374AAF09010F5E0FFEF70249010FD3A
:10298300E0FBA3E0FAA3E0F97401121554FFEF7022
:10299300109010FDE0FBA3E0FAA3E0F97497121581
:1029A300A99010F8E4F09010F8E0FF7E009010F08A
:1029B300E0FCA3E0FDC3EF9DEE9C4003022A4090A0
:1029C30010EDE0FBA3E0FAA3E0F99010F8E0FF8F2D
:1029D30082758300121527FF9010F7E0FE04F09034
:1029E30010FBE0FCA3E0FD8D828C83E5822EF58253
:1029F300E43583F583EFF09010EDE0FBA3E0FAA359
:102A0300E0F99010F8E0FF8F82758300121527FF1D
:102A1300EFB455209010F7E0FF04F09010FBE0FCBA
:102A2300A3E0FD8D828C83E5822FF582E43583F567
:102A33008374AAF09010F8E004F00229A99010F72B
:102A4300E0FFEF24FAFFEF54FFFF9010FBE0FCA33D
:102A5300E0FD8D828C83A3A3EFF09010FBE0FEA337
:102A6300E0FF8F828E83A3A3A3E4F09010F7E0FF2F
:102A73007E00EF24FAFFEE34FFFE7F00EEFF7E00C0
:102A83009010FBE0FCA3E0FD8D828C83E58224049F
:102A9300F582E5833400F583EFF09010FBE0FEA3AD
:102AA300E0FF8F828E83E5822405F582E58334007F
:102AB300F583E4F09010F87406F09010F7E0FF90BF
:102AC30010F8E0FEEEC39F502B9010F8E0FF90103B
:102AD300FBE0FCA3E0FD8D828C83E5822FF582E48D
:102AE3003583F583E0FF9010F9E02FF09010F8E0C4
:102AF30004F080C69010F9E0FF9010F7E0FE04F0B8
:102B03009010FBE0FCA3E0FD8D828C83E5822EF523
:102B130082E43583F583EFF09010FBE0FEA3E0FF42
:102B2300AA06A9077B019010F7E0FD9010F6E0FFDD
:102B3300EF70047F0080027F01901249EFF012953D
:092B430038EF60037F02227F00DD
:012B4C002266
:0572D0009013BBEFF07C
:1072D5007B017A0979BC1296EBEF64FF7003EE64CB
:1072E500FF6043900AFBE0FEA3E0FFAA06A9077B27
:1072F50001C003C002C0017B017A1379BC9011F172
:10730500EBF0A3EAF0A3E9F09011F4E4F0D001D09A
:1073150002D003125E18EFB4010C9013BCE0FF7DA0
:1073250000121AFC80BD7B017A0A79FD1296EBEFFB
:1073350064FF7003EE64FF6044900B99E0FEA3E0E8
:10734500FFAA06A9077B01C003C002C0017B017A21
:107355001379BC9011F1EBF0A3EAF0A3E9F09011D9
:10736500F47401F0D001D002D003125E18EFB4011D
:107375000C9013BCE0FF7D01121AFC80BC9013BB7E
:05738500E0FF12A12849
:01738A0022E0
:0A1AFC0090116AEFF090116BEDF00D
:101B060090116BE0FFEF701E900AFBE0FEA3E0FF72
:101B1600901170EEF0A3EFF07E097FBC901172EE8B
:101B2600F0A3EFF0801C900B99E0FEA3E0FF90116C
:101B360070EEF0A3EFF07E0A7FFD901172EEF0A337
:101B4600EFF0901172E0FEA3E0FFAA06A9077B0161
:101B56001296EB90116CEEF0A3EFF090116CE0FE94
:101B6600A3E0FFEF64FF7003EE64FF70030222C37D
:101B7600901172E0FEA3E0FFAA06A9077B0190116F
:101B86006CE0FCA3E0FD128053AE02AF0190116E33
:101B9600EEF0A3EFF090116EE0FEA3E0FFEF4E70C3
:101BA600030222C3901170E0FEA3E0FF8F828E83B2
:101BB600E5822404F582E5833400F583E0FFEF1225
:101BC60019C31BE4001C0D011C4D021CEF031DBEB6
:101BD600041F5308212C0A20630B000022C3901116
:101BE6006AE0FFEF645560030222C3901170E0FEC5
:101BF600A3E0FF8F828E83E5822404F582E5833499
:101C060000F5837401F02290116AE0FFEFB4331CF3
:101C1600901170E0FEA3E0FF8F828E83E58224049C
:101C2600F582E5833400F5837402F022901170E0AA
:101C3600FEA3E0FF8F828E83E5822404F582E5838E
:101C46003400F583E4F02290116AE0FF901170E011
:101C5600FCA3E0FD8D828C83E5822407F582E58373
:101C66003400F583EFF090116AE0FFEFB455047F7E
:101C76000180027F00901170E0FCA3E0FD8D828C54
:101C860083E582240CF582E5833400F583EFF0903A
:101C96001170E0FEA3E0FF8F828E83E5822404F5B7
:101CA60082E5833400F5837403F0901170E0FEA39F
:101CB600E0FF8F828E83E5822406F582E583340079
:101CC600F5837404F0901172E0FEA3E0FFAA06A962
:101CD600077B0190116CE0FCA3E0FD90116AE0FF28
:101CE600901250EFF0127C7C2290116AE0FFEF70A8
:101CF60035901170E0FEA3E0FF8F828E83E582248B
:101D060006F582E5833400F583E0FF901170E0FC70
:101D1600A3E0FD8D828C83E5822404F582E583347D
:101D260000F583EFF022901170E0FEA3E0FF8F82B2
:101D36008E83E582240CF582E5833400F583E0FF8B
:101D4600EF604090116AE0FFEFB4331C901170E031
:101D5600FEA3E0FF8F828E83E5822404F582E5836D
:101D66003400F5837402F022901170E0FEA3E0FFC8
:101D76008F828E83E5822404F582E5833400F58321
:101D8600E4F022901170E0FEA3E0FF8F828E83E5DF
:101D9600822404F582E5833400F583E4F090117023
:101DA600E0FEA3E0FF8F828E83E582240CF582E5B8
:101DB600833400F583E4F02290116AE0FFEFB45516
:101DC600047F0180027F00901170E0FCA3E0FD8D8E
:101DD600828C83E582240CF582E5833400F583EF5B
:101DE600F0901170E0FEA3E0FF8F828E83E58224DF
:101DF60007F582E5833400F583E0FF90116AE0FE83
:101E06007E00EE4FFF901170E0FCA3E0FD8D828C0A
:101E160083E5822407F582E5833400F583EFF090AD
:101E26001172E0FEA3E0FFAA06A9077B0190116CE0
:101E3600E0FCA3E0FD90116AE0FF901250EFF01273
:101E46007C7C901170E0FEA3E0FF8F828E83E5829A
:101E56002407F582E5833400F583E0FFEFD3940091
:101E66005003021F13901170E0FEA3E0FF8F828ED5
:101E760083E5822407F582E5833400F583E0FFEFEE
:101E8600D3944B4003021F13901170E0FEA3E0FFB2
:101E96008F828E83E5822408F582E5833400F583FC
:101EA600E4F0901170E0FEA3E0FF8F828E83E5825E
:101EB6002409F582E5833400F583E4F0901170E09F
:101EC600FEA3E0FF8F828E83E582240AF582E583F6
:101ED6003400F583E4F0901170E0FEA3E0FF8F82FA
:101EE6008E83E5822406F582E5833400F583740843
:101EF600F0901170E0FEA3E0FF8F828E83E58224CE
:101F060004F582E5833400F5837403F02290116AA8
:101F1600E0FFEFB4551C901170E0FEA3E0FF8F8246
:101F26008E83E5822404F582E5833400F58374010B
:101F3600F022901170E0FEA3E0FF8F828E83E5828F
:101F46002404F582E5833400F583E4F02290116AD7
:101F5600E0FFEFB45536901170E0FEA3E0FF8F82EC
:101F66008E83E5822404F582E5833400F583740AC2
:101F7600F0901170E0FEA3E0FF8F828E83E582244D
:101F860006F582E5833400F5837408F0901172E05B
:101F9600FEA3E0FFAA06A9077B0190116CE0FCA353
:101FA600E0FD90116AE0FF901250EFF0127C7C90F9
:101FB600116AE0FF901170E0FCA3E0FD8D828C8336
:101FC600E582240AF582E5833400F583E02FF0905C
:101FD6001170E0FEA3E0FF8F828E83E5822409F56F
:101FE60082E5833400F583E004F0901170E0FEA3EF
:101FF600E0FF8F828E83E5822408F582E583340034
:10200600F583E004F0901170E0FEA3E0FF8F828E6E
:1020160083E5822407F582E5833400F583E0FF90AB
:102026001170E0FCA3E0FD8D828C83E5822408F527
:1020360082E5833400F583E0FEEEC39F500302225F
:10204600C3901170E0FEA3E0FF8F828E83E58224A9
:1020560004F582E5833400F583740BF02290117049
:10206600E0FEA3E0FF8F828E83E582240AF582E5F7
:10207600833400F583E0FFEF54FFFF90116AE0FE22
:10208600EF6E601D901170E0FEA3E0FF8F828E83DD
:10209600E582240BF582E5833400F583E004F080C5
:1020A6006A901170E0FEA3E0FF8F828E83E58224A2
:1020B60009F582E5833400F583E0FF90116EE0FCBC
:1020C600A3E0FD8D828C83EFF0901170E0FEA3E01B
:1020D600FF8F828E83E5822409F582E5833400F53D
:1020E60083E0FF7E007F00EEFF7E0090116EE0FC35
:1020F600A3E0FD8D828C83A3EFF0901172E0FEA326
:10210600E0FFAA06A9077B01128555901170E0FE33
:10211600A3E0FF8F828E83E5822404F582E5833473
:1021260000F583E4F02290116AE0FFEF64AA6003F1
:10213600022274901170E0FEA3E0FF8F828E83E589
:10214600822408F582E5833400F583E0FF7E00EF04
:102156002401FFEE3400FE901170E0FCA3E0FD8D3B
:10216600828C83E5822407F582E5833400F583E0DB
:10217600FD7C00C3EF9DEC6480F8EE648098401D02
:10218600901170E0FEA3E0FF8F828E83E582240427
:10219600F582E5833400F583740BF080349011707A
:1021A600E0FEA3E0FF8F828E83E5822406F582E5BA
:1021B600833400F583E0FF901170E0FCA3E0FD8D11
:1021C600828C83E5822404F582E5833400F583EF6F
:1021D600F0901170E0FEA3E0FF8F828E83E58224EB
:1021E60006F582E5833400F583E0FFEF640860417D
:1021F600901170E0FEA3E0FF8F828E83E5822406B5
:10220600F582E5833400F583E0FFEF6406602290F3
:102216001170E0FEA3E0FF8F828E83E5822406F52F
:1022260082E5833400F583E0FFEF64076003022252
:10223600B4901170E0FEA3E0FF8F828E83E58224C6
:1022460008F582E5833400F583E004F090116AE036
:10225600FF901170E0FCA3E0FD8D828C83E5822463
:102266000AF582E5833400F583E02FF08040901173
:102276006AE0FFEFB4331D901170E0FEA3E0FF8F1C
:10228600828E83E5822404F582E5833400F5837427
:1022960002F0801A901170E0FEA3E0FF8F828E8319
:1022A600E5822404F582E5833400F583E4F0901199
:0D22B60070E0FEA3E0FF8F828E83E004F055
:0122C30022F8
:10A8D2009013F8EFF09013F8E0FFEF70077B017A26
:0BA8E2000979BC227B017A0A79FD2273
:109741007E007F627D007B017A0F794C121A1C7EAC
:10975100007F037D007B017A0F7948121A1C7E0F6E
:109761007F4D900FB0EEF0A3EFF0900F48E0FFEFC8
:1097710004FF7E00900FAEEEF0A3EFF0900F4BE4EC
:10978100F0900FB2E4F0758400900F45E4F0A374FB
:06979100BEF043D10122ED
:106FCF009013F9EFF0900FB2E0FFEFC3940A402156
:106FDF00900FB2E0FFEFC3941450169013F9E0FF37
:106FEF00EFB4020D9013F9E4F0900FB2741EF0801D
:106FFF0011900FB2E0FFEFC3940A5006900FB2E06A
:10700F0004F09013F9E0FFEF1219C3705D00706F79
:10701F0001702A02703C03000070901278F0EF703C
:10702F00067F0312A128227F0212A12822129F7825
:10703F00EF640460137F0212A128900F45E0FCA3B8
:10704F00E0FD7FFF127215227F0312A12822128109
:10705F00E8EF70067F0112A128227F0012A12822DB
:10706F00129F78EF640460137F0212A128900F45DE
:10707F00E0FCA3E0FD7FFF127215227F0112A12811
:07708F00227F0212A128225A
:1078F00012ACDFEFB401037F0222900F477404F053
:1079000012AD56AE02AF01901375EEF0A3EFF090FA
:107910001375E0FEA3E0FF8F828E837433F0901323
:10792000777401F0901377E0FFEFD39430502590F7
:107930001377E0FF901375E0FCA3E0FD8D828C834C
:10794000E5822FF582E43583F583E4F0901377E048
:1079500004F080D07F0112AB237D017F0012A402CE
:1079600012A508C003C002C0017BFF7AA67962900D
:1079700011EBEBF0A3EAF0A3E9F0D001D002D003C1
:097980007F317E001286B47F0005
:0179890022DB
:1081E80012ACDFEFB401037F0222900F477404F052
:1081F80012AD56AE02AF019013BDEEF0A3EFF090B2
:1082080013BDE0FEA3E0FF8F828E837434F09013D9
:10821800BDE0FEA3E0FF8F828E83A3E4F09013BD40
:10822800E0FEA3E0FF8F828E83A3A3E4F07F011218
:10823800AB237D017F0012A4027B017A0F7948C02D
:1082480003C002C0017BFF7AA679629011EBEBF0C4
:10825800A3EAF0A3E9F0D001D002D0037F037E00A7
:058268001286B47F0046
:01826D0022EE
:10A66200C0D075D0189013FAEFF09013FAE0FFEF14
:10A672007008900F477401F08006900F477402F043
:03A68200D0D02213
:109F7800900F47E0FFEFB404037F04227D007F00C9
:109F880012A4027F0012AB23900F4BE0FFEF75F095
:109F980031A4244DF582E4340FF583AF82AE83906B
:109FA8000FB0EEF0A3EFF0120006900F47E0FF228B
:059E7600901378EFF0ED
:109E7B0053E6FE900FB0E0FEA3E0FF8F828E83C00F
:109E8B0083C082901378E0FFD082D08375F002EF0D
:109E9B001219B7E0FEA3E0FF901379EEF0A3EFF0F9
:0B9EAB0043E601901379E0FEA3E0FF06
:019EB6002289
:107F4000901297EFF0901298EDF0901299EBF0A349
:107F5000EAF0A3E9F053E6FE901297E0FF7E00906E
:107F60001298E0FD7C00C3ED9FFFEC9EFEEF240124
:107F7000FFEE3400FEEF25E0FFEE33FEC006C00743
:107F8000901297E0FF7E02EF8EF0A4FFAEF0900F0C
:107F9000B0E0FCA3E0FDEF2DFFEE3CFEAA06A90732
:107FA0007B01C003C002C001901299E0FBA3E0FA7C
:107FB000A3E0F9A801AC02AD03D001D002D003D0F8
:0A7FC00007D0061214E843E6012280
:10A2A200901251EBF0A3EAF0A3E9F0900F49E0FF1E
:10A2B200901251E0FBA3E0FAA3E0F9EF1215A99086
:10A2C2000F4AE0FF901254E0FBA3E0FAA3E0F9EF9B
:04A2D2001215A92296
:10A50800900F4BE0FFC374019FFF900F4BEFF0904B
:10A518000F4BE0FF7E31EF8EF0A4FFAEF0744C2FAE
:08A52800F9740F3EFA7B0122D9
:10A6EC009013FBEFF09013FBE0FFEF600A900F4527
:10A6FC00E4F0A37405F022900F45E4F0A374BEF0CF
:01A70C00222A
:09AD0700900F45E0FEA3E0FF22DD
:0B864000901206EBF0A3EAF0A3E9F0B3
:10864B00901206E0FBA3E0FAA3E0F9901209EBF01D
:10865B00A3EAF0A3E9F0901209E0FBA3E0FAA3E090
:10866B00F9758201758300121527FF90120CEFF03C
:10867B00901209E0FBA3E0FAA3E0F912150EFF90AC
:10868B001209E0FBA3E0FAA3E0F975820175830000
:10869B00EF1215BB90120CE0FF901209E0FBA3E068
:0886AB00FAA3E0F9EF1215A992
:0186B30022A4
:0B6EFD0090120DEBF0A3EAF0A3E9F007
:106F080090120DE0FBA3E0FAA3E0F9901210EBF069
:106F1800A3EAF0A3E9F0901210E0FBA3E0FAA3E0E3
:106F2800F9758203758300121527FF901213EFF08D
:106F3800901210E0FBA3E0FAA3E0F912150EFF90FF
:106F48001210E0FBA3E0FAA3E0F975820375830051
:106F5800EF1215BB901213E0FF901210E0FBA3E0B4
:106F6800FAA3E0F9EF1215A9901210E0FBA3E0FADA
:106F7800A3E0F9758202758300121527FF9012139A
:106F8800EFF0901210E0FBA3E0FAA3E0F97582019C
:106F9800758300121527FF901210E0FBA3E0FAA3F7
:106FA800E0F9758202758300EF1215BB901213E0A9
:106FB800FF901210E0FBA3E0FAA3E0F975820175D7
:066FC8008300EF1215BB6F
:016FCE0022A0
:0B6D340090112FEBF0A3EAF0A3E9F0B0
:106D3F0090113574FF75F0FF12165AAFF0FEEF4E3B
:106D4F007003026E1C901135E0FEA3E0FFEF25E00B
:106D5F00FFEE33FE90112FE0FBA3E0FAA3E0F98FD3
:106D6F00828E8312169BFDACF0901135E0FEA3E0EE
:106D7F00FFEF25E0FFEE33FE901132E0FBA3E0FAC8
:106D8F00A3E0F98F828E83EC8DF012173F901135AF
:106D9F00E0FEA3E0FFEF25E0FFEE33FE901132E0BF
:106DAF00FBA3E0FAA3E0F9E92FF9EA3EFA901137D5
:106DBF00EBF0A3EAF0A3E9F0901137E0FBA3E0FAC0
:106DCF00A3E0F9758201758300121527FF90113A20
:106DDF00EFF0901137E0FBA3E0FAA3E0F912150EE4
:106DEF00FF901137E0FBA3E0FAA3E0F9758201757C
:106DFF008300EF1215BB90113AE0FF901137E0FBC3
:0D6E0F00A3E0FAA3E0F9EF1215A9026D3F10
:016E1C002253
:0B538B0090113BEBF0A3EAF0A3E9F067
:1053960090114174FF75F0FF12165AAFF0FEEF4EF2
:1053A60070030254E7901141E0FEA3E0FFEF78029C
:1053B600C333CE33CED8F9FF90113BE0FBA3E0FA1E
:1053C600A3E0F98F828E8312187EC004C005C00642
:1053D600C007901141E0FEA3E0FFEF7802C333CE91
:1053E60033CED8F9FF90113EE0FBA3E0FAA3E0F933
:1053F6008F828E83D007D006D005D0041218C890AD
:105406001141E0FEA3E0FFEF7802C333CE33CED8DE
:10541600F9FF90113EE0FBA3E0FAA3E0F9E92FF9CA
:10542600EA3EFA901143EBF0A3EAF0A3E9F09011FB
:1054360043E0FBA3E0FAA3E0F9758203758300124B
:105446001527FF901146EFF0901143E0FBA3E0FA19
:10545600A3E0F912150EFF901143E0FBA3E0FAA3B7
:10546600E0F9758203758300EF1215BB901146E0D3
:10547600FF901143E0FBA3E0FAA3E0F9EF1215A9B0
:10548600901143E0FBA3E0FAA3E0F975820275836D
:1054960000121527FF901146EFF0901143E0FBA391
:1054A600E0FAA3E0F9758201758300121527FF90D3
:1054B6001143E0FBA3E0FAA3E0F9758202758300CD
:1054C600EF1215BB901146E0FF901143E0FBA3E0FD
:1054D600FAA3E0F9758201758300EF1215BB02533A
:0154E600962F
:0154E70022A2
:10A80800758400C2CAC2C953C8FE75CAFF75CBDBBE
:0EA8180053C9E775CCFF75CDFFC2ADD2CA2281
:10A43000758400C28C90117CE4F0A3E4F090117458
:10A44000E4F0A3E4F090117AE4F0A3E4F04389018E
:0EA45000758AFF758CDB538EF4D2A9D28C2254
:03000B00028AFE68
:108AFE00C0E0C083C082C0D075D008C28D90117DF9
:108B0E00E004F0700690117CE004F090117BE0041C
:108B1E00F0700690117AE004F090117AE0FEA3E076
:108B2E00FFC3EF9464EE9400401690117AE4F0A324
:108B3E00E4F0901175E004F07006901174E004F00A
:0F8B4E00758AFF758CDBD0D0D082D083D0E03217
:10A952007584004389205389EF758DD0538EEF5350
:08A962008EF4D28E43884022DE
:10A9070075840253C8FB75C90853C8FD53E7FB7527
:09A91700CBFF75CAB843C8042245
:109EB70075840F758C679013BFE4F0A3E4F09013DB
:109EC700BFE0FEA3E0FFC3EE6480948150109013BF
:109ED700C0E004F070069013BFE004F080E0439701
:109EE70001538A7F43A54043E34043E280758400E2
:019EF7002248
:08A5A800901257EEF0A3EFF052
:10A5B0007B017A127959901257E0FCA3E0FD129CBE
:0DA5C0004B7B017A127959129797EF60F4E6
:01A5CD00226B
:109C4B0090129CEBF0A3EAF0A3E9F090129FECF0DA
:109C5B00A3EDF012A84490129CE0FBA3E0FAA3E062
:109C6B00F9EE8FF012172090129FE0FEA3E0FF9009
:109C7B00129CE0FBA3E0FAA3E0F975820275830066
:079C8B00EE8FF012173F22DB
:109C92009012A1EBF0A3EAF0A3E9F09012A4ECF089
:109CA200A3EDF012A8619012A1E0FBA3E0FAA3E0F9
:109CB200F9EE8FF01217209012A4E0FEA3E0FF90BD
:109CC20012A1E0FBA3E0FAA3E0F97582027583001A
:079CD200EE8FF012173F2294
:0B9797009012A6EBF0A3EAF0A3E9F0AB
:1097A20012A8449012A9EEF0A3EFF09012A6E0FBEB
:1097B200A3E0FAA3E0F9121670FFAEF09012A9E04E
:1097C200FCA3E0FD128BBC9012A6E0FBA3E0FAA37F
:1097D200E0F975820275830012169BFDACF0C3EFAF
:0A97E2009DEE9C50037F00227F01E2
:0197EC00225A
:0B97ED009012ABEBF0A3EAF0A3E9F050
:1097F80012A8619012AEEEF0A3EFF09012ABE0FB6E
:10980800A3E0FAA3E0F9121670FFAEF09012AEE0F2
:10981800FCA3E0FD128BBC9012ABE0FBA3E0FAA323
:10982800E0F975820275830012169BFDACF0C3EF58
:0A9838009DEE9C50037F00227F018B
:019842002203
:10A84400C2A990117CE0FEA3E0FF9013C1EEF0A337
:0CA85400EFF0D2A99013C1E0FEA3E0FFDA
:01A8600022D5
:10A86100C2A9901174E0FEA3E0FF9013C3EEF0A320
:0CA87100EFF0D2A99013C3E0FEA3E0FFBB
:01A87D0022B8
:108BBC009012E0EEF0A3EFF09012E2ECF0A3EDF0E7
:108BCC009012E0E0FEA3E0FF9012E2E0FCA3E0FDD7
:108BDC00D3ED9FEC9E40189012E0E0FEA3E0FF90D6
:108BEC0012E2E0FCA3E0FDC3ED9FFFEC9EFE2290A1
:108BFC0012E0E0FEA3E0FFC3E49FFFE49EFE9012B0
:0D8C0C00E2E0FCA3E0FDEF2DFFEE3CFE22B8
:1074F30075FFDE75FFAD129EB7129EF812A26E12D3
:10750300A43012A92012A93912ACC712ACD312AC01
:10751300BB12AD6B12974112A33D12006E12ACAEBB
:1075230012A63F129997122EC812A99812A53012CB
:10753300A6CA12770112A9AF127FCA12A826123A5D
:10754300F012880B12676E12AD64D2AF7BFF7A6FB5
:1075530079CF12895E90137BEFF07BFF7A7279D03B
:1075630012895E90137CEFF07BFF7A6B7957128957
:107573005E90137DEFF090137BE0FF7D0012A07609
:1075830090137CE0FF7D0012A07690137DE0FF7DD9
:107593000012A0767D017F1412508E12564280FB9A
:0175A30022C5
:0CACC700C2A875840F43E34043E204225E
:0CACD300C2AA75840F43E34043E2102244
:03000300020009EF
:0100090032C4
:0300130002000ADE
:01000A0032C3
:06AD5D009013FCE004F07D
:01AD630022CD
:03001B0002AB3302
:10AB3300C0E0C083C08212AD5DD082D083D0E0324A
:03002B0002AB43E2
:10AB4300C0E0C083C08212AD5DD082D083D0E0323A
:0300430002AB53BA
:10AB5300C0E0C083C08212AD5DD082D083D0E0322A
:03004B0002AB63A2
:10AB6300C0E0C083C08212AD5DD082D083D0E0321A
:0300530002AB738A
:10AB7300C0E0C083C08212AD5DD082D083D0E0320A
:03005B0002AB8372
:10AB8300C0E0C083C08212AD5DD082D083D0E032FA
:0300630002AB935A
:10AB9300C0E0C083C08212AD5DD082D083D0E032EA
:03006B0002ABA342
:10ABA300C0E0C083C08212AD5DD082D083D0E032DA
:0300830002ABB31A
:10ABB300C0E0C083C08212AD5DD082D083D0E032CA
:03008B0002ABC302
:10ABC300C0E0C083C08212AD5DD082D083D0E032BA
:0300930002ABD3EA
:10ABD300C0E0C083C08212AD5DD082D083D0E032AA
:03009B0002ABE3D2
:10ABE300C0E0C083C08212AD5DD082D083D0E0329A
:0300AB0002ABF3B2
:10ABF300C0E0C083C08212AD5DD082D083D0E0328A
:102EC8007F0012A8D2AE02AF01900DE8EEF0A3EF9A
:102ED800F07F0112A8D2AE02AF01900D61EEF0A30F
:102EE800EFF0900DE8E0FEA3E0FFAA06A9077B013A
:102EF8001288EE900D61E0FEA3E0FFAA06A9077B09
:102F0800011288EE7BFF7A9979E812895E900DE7C5
:102F1800EFF07BFF7A8A799B12895E900DEAEFF0D9
:102F2800900DEAE0FF7D0012A0767BFF7A7079961B
:102F380012895E900D8EEFF07BFF7A73798B128980
:102F48005E900D4DEFF0900D8EE0FF7D0012A076A3
:102F5800900D4DE0FF7D0012A0767BFF7A8C79768C
:102F680012895E900D3BEFF0900D80E4F0900D79A2
:102F7800E4F0900DA47401F0900D9DE4F0A3E4F04A
:102F8800900DCBE4F0A3E4F0900D8A7407F0A374DD
:102F980008F07BFF7A57796E12895E900DA9EFF0E1
:102FA8007BFF7A8D792A12895E900DC8EFF07BFF3E
:102FB8007A8D798412895E900D4CEFF07BFF7A8DC3
:102FC80079DE12895E900DB1EFF07BFF7A8C79D0B3
:102FD80012895E900D5AEFF07BFF7A9379D81289A7
:102FE8005E900D58EFF07BFF7A7A792312895E9014
:102FF8000DE0EFF07BFF7A94793012895E900DA591
:10300800EFF07BFF7A8E793812895E900D47EFF0EA
:103018007BFF7A8E799212895E900DDBEFF07BFF51
:103028007A79798A12895E900D78EFF07BFF7A873A
:10303800792712895E900D4FEFF07BFF7A8E79EC3D
:1030480012895E900D55EFF07BFF7A8F79461289D1
:103058005E900D3EEFF07BFF7A95798F12895E9036
:103068000D6BEFF07BFF7A94798812895E900DC41E
:10307800EFF07BFF7A8079DA12895E900DD3EFF05A
:103088007BFF7A8F79A012895E900D6EEFF07BFF3F
:103098007A8F79FA12895E900D89EFF07BFF7A7D3D
:1030A800799B12895E900D98EFF07BFF7A907954A6
:1030B80012895E900D63EFF07BFF7A9079AE1289EA
:1030C8005E900D7DEFF07BFF7A8379EA12895E903E
:1030D8000D90EFF07BFF7A65797212895E900DE1B1
:1030E800EFF07BFF7A91790812895E900DADEFF0D1
:1030F8007BFF7A9579E612895E900D5EEFF07BFF93
:103108007A96793D12895E900D4EEFF07BFF7A76C4
:10311800795312895E900D64EFF07BFF7A8579CB45
:1031280012895E900DC3EFF07BFF7A917962128964
:103138005E900D5BEFF07BFF7A9179BC12895E900F
:103148000DB0EFF07BFF7A7A79BB12895E900D8F14
:10315800EFF07BFF7A81796112895E900D52EFF072
:103168007BFF7A8A793612895E900DA3EFF07BFF98
:103178007A62795B12895E900D95EFF07BFF7A9207
:10318800791612895E900DACEFF07BFF7A8B795D32
:1031980012895E900DC7EFF07BFF7A9479E012896F
:1031A8005E900DB6EFF07BFF7A92797012895E908F
:1031B8000DDAEFF07BFF7A93792412895E900D7C0B
:1031C800EFF07BFF7A9279CA12895E900D75EFF065
:1031D8007BFF7A6A795F12895E900D59EFF0900D46
:1031E80059E0FF7D0012A0767BFF7A93797E1289E1
:0731F8005E900DA6EFF0222E
:056B57009012B0EFF008
:106B5C00900DE8E0FEA3E0FFAA06A9077B01129FB7
:106B6C00389012B1EEF0A3EFF09012B1E0FEA3E07A
:106B7C00FFEF64FF7003EE64FF6047900DE8E0FEEA
:106B8C00A3E0FFAA06A9077B019012B1E0FCA3E0E9
:106B9C00FD128053AE02AF019012B3EEF0A3EFF0F2
:106BAC009012B3E0FEA3E0FFAA06A9077B01120036
:106BBC00AE900DE8E0FEA3E0FFAA06A9077B011248
:106BCC0082EE900D61E0FEA3E0FFAA06A9077B010F
:106BDC00129F389012B1EEF0A3EFF09012B1E0FEDC
:106BEC00A3E0FFEF64FF7003EE64FF6047900D615C
:106BFC00E0FEA3E0FFAA06A9077B019012B1E0FC1E
:106C0C00A3E0FD128053AE02AF019012B3EEF0A3DD
:106C1C00EFF09012B3E0FEA3E0FFAA06A9077B01F8
:106C2C00124D41900D61E0FEA3E0FFAA06A9077B7F
:0C6C3C00011282EE9012B0E0FF12A128BD
:016C48002229
:10636900901214EBF0A3EAF0A3E9F0901217EDF004
:10637900901214E0FBA3E0FAA3E0F912150EFF7ED8
:1063890000901218EEF0A3EFF0901218E0FCA3E0D1
:10639900FD901214E0FBA3E0FAA3E0F97582017500
:1063A9008300121527FF7E00EF7F00FEEC4EFEED05
:1063B9004FFF901218EEF0A3EFF0901217E0FFEFE5
:1063C900B404047F0180027F0090121AEFF090124A
:1063D90014E0FBA3E0FAA3E0F9E92405F9EA3400A3
:1063E900FAC003C002C001901218E0FEA3E0FFEF5B
:1063F90024FDFDEE34FFFC901214E0FBA3E0FAA3A8
:10640900E0F9758203758300121527FF9010F2EFEA
:10641900F0901214E0FBA3E0FAA3E0F9758202758B
:106429008300121527FF9010F3EFF0901214E0FB90
:10643900A3E0FAA3E0F9758204758300121527FF1A
:106449009010F4EFF09010F57401F090121AE0FF3B
:106459009010F6EFF0D001D002D0031227C0EF6000
:04646900030263D7F0
:01646D00220C
:0B00AE0090117EEBF0A3EAF0A3E9F054
:1000B90090117EE0FBA3E0FAA3E0F9758202758353
:1000C90000121527FF901183EFF090117EE0FBA33A
:1000D900E0FAA3E0F9758203758300121527FF90F2
:1000E9001184EFF090117EE0FBA3E0FAA3E0F9752B
:1000F9008205758300121527FF901181EFF0901189
:100109007EE0FBA3E0FAA3E0F9758204758300128F
:100119001527FF901182EFF0901184E0FFEFB404EE
:100129001490117EE0FBA3E0FAA3E0F9901184E0BA
:10013900FD12636922900D797401F07B017A0D79C2
:10014900487D707C17129C4B900DA4E4F07B017ADA
:100159000D79657DB87C0B129C4B901181E0FFEF06
:100169001219C301F4010A19640A68650B4E66097C
:10017900FA6704C96803FD6A045B6B04AA6C076A21
:100189006D07B96E093A6F09787009DB7102137648
:10019900035877031A7805077C05567D074B7E03BC
:1001A900777F039B8003BF810BAB840CFA8804E83B
:1001B9008A0D4B8B03398D0E858E0EF18F0BE990CD
:1001C9000C80910BCA920959960D9C970271980B54
:1001D9006D990F10A108C7A20F2FA31014A40B8C9F
:1001E900A508EBA603DEFA000010BA901183E0FF20
:1001F900900D56EFF0901182E0FF900D57EFF090BF
:0A0209000DE7E0FF7D0012A0762251
:1002130090117EE0FBA3E0FAA3E0F9E92406F9EAF2
:100223003400FAAE02AF01901185EEF0A3EFF09027
:100233001183E0FF900DE5EFF0901182E0FF900D48
:10024300E6EFF0901185E0FEA3E0FF8F828E83E05E
:10025300FF901185E0FCA3E0FD8D828C83A3E0FD7C
:0E02630012508E900DC8E0FF7D0012A0762292
:1002710090117EE0FBA3E0FAA3E0F9E92406F9EA94
:100281003400FAAE02AF01901185EEF0A3EFF090C9
:100291001183E0FF900D7EEFF0901182E0FF900D51
:1002A1007FEFF0901185E0FEA3E0FFAA06A9077B8E
:1002B10001128640901185E0FEA3E0FFEF2402FFCA
:1002C100EE3400FEAA06A9077B0112864090118533
:1002D100E0FEA3E0FF8F828E83E0FEA3E0FF90119A
:1002E10085E0FCA3E0FD8D828C83A3A3E0FCA3E069
:1002F100FD901185E0FAA3E0FB8B828A83E58224DD
:1003010004F582E5833400F583E0FB128799900DB3
:090311005AE0FF7D0012A07622E3
:10031A00901183E0FF900D7AEFF0901182E0FF9048
:10032A000D7BEFF0900D58E0FF7D0012A076229031
:10033A001183E0FF900D50EFF0901182E0FF900DD5
:10034A0051EFF0900DE0E0FF7D0012A076229011AF
:10035A0083E0FF900DC9EFF0901182E0FF900DCA83
:10036A00EFF0900DA5E0FF7D0012A0762290118398
:10037A00E0FF900D69EFF0901182E0FF900D6AEFB7
:10038A00F07F01128C19900D47E0FF7D0012A076D4
:10039A0022901183E0FF900D41EFF0901182E0FF6F
:1003AA00900D42EFF07F00128C19900DDBE0FF7D7B
:1003BA000012A07622901183E0FF900D9BEFF0903F
:1003CA001182E0FF900D9CEFF0900D78E0FF7D0028
:1003DA0012A07622901183E0FF900D71EFF0901138
:1003EA0082E0FF900D72EFF0900D4FE0FF7D00125A
:0303FA00A07622C8
:1003FD0090117EE0FBA3E0FAA3E0F9E92406F9EA07
:10040D003400FAAE02AF01901185EEF0A3EFF0903B
:10041D001183E0FF900D76EFF0901182E0FF900DCB
:10042D0077EFF0901185E0FEA3E0FF8F828E83E0E1
:10043D00FF901185E0FCA3E0FD8D828C83A3E0FD90
:0E044D0012A76E900D55E0FF7D0012A07622E2
:10045B0090117EE0FBA3E0FAA3E0F9E92406F9EAA8
:10046B003400FAAE02AF01901185EEF0A3EFF090DD
:10047B001183E0FF900D5FEFF0901182E0FF900D84
:10048B0060EFF0901185E0FEA3E0FF8F828E83E09A
:0F049B00FF12A48C900D3EE0FF7D0012A0762290
:1004AA00901183E0FF900D96EFF0901182E0FF909B
:1004BA000D97EFF0900D6BE0FF7D0012A076229071
:1004CA001183E0FF900DDEEFF0901182E0FF900DB6
:1004DA00DFEFF0900DC4E0FF7D0012A076229011AC
:1004EA0083E0FF900D3CEFF0901182E0FF900D3D0C
:0D04FA00EFF0900DD3E0FF7D0012A0762200
:1005070090117EE0FBA3E0FAA3E0F9E92406F9EAFB
:100517003400FAAE02AF01901185EEF0A3EFF09030
:100527001183E0FF900D99EFF0901182E0FF900D9D
:100537009AEFF0901185E0FEA3E0FF8F828E83E0B3
:0F054700FF12A5F4900D6EE0FF7D0012A076224A
:1005560090117EE0FBA3E0FAA3E0F9E92406F9EAAC
:100566003400FAAE02AF01901185EEF0A3EFF090E1
:100576001183E0FF900DA7EFF0901182E0FF900D40
:10058600A8EFF0901185E0FEA3E0FFEF240CFFEE4C
:100596003400FEAA06A9077B01128640901185E069
:1005A600FEA3E0FFEF240EFFEE3400FEAA06A90725
:1005B6007B01128640901185E0FEA3E0FFEF241038
:1005C600FFEE3400FEAA06A9077B011286409011B1
:1005D60085E0FEA3E0FFEF2412FFEE3400FEAA063C
:1005E600A9077B01C003C002C001901185E0FEA3EC
:1005F600E0FFEF2412FFEE3400FEAA06A9077B01F6
:10060600901132EBF0A3EAF0A3E9F0901135E4F093
:10061600A3740CF0D001D002D003126D3490118572
:10062600E0FEA3E0FFEF242AFFEE3400FEAA06A9AF
:10063600077B01C003C002C001901185E0FEA3E064
:10064600FFEF242AFFEE3400FEAA06A9077B0190DD
:100656001132EBF0A3EAF0A3E9F0901135E4F0A330
:10066600740CF0D001D002D003126D34901185E0E5
:10067600FEA3E0FFEF2412FFEE3400FEAA06A90750
:100686007B01C003C002C001901185E0FEA3E0FF1C
:10069600EF242AFFEE3400FEAA06A9077B0190117B
:1006A60023EBF0A3EAF0A3E9F0901185E0FEA3E0C6
:1006B600FF8F828E83E582240CF582E5833400F574
:1006C60083E0FEA3E0FF901126EEF0A3EFF0901179
:1006D60085E0FEA3E0FF8F828E83E582240EF582FD
:1006E600E5833400F583E0FEA3E0FF901128EEF0E9
:1006F600A3EFF0901185E0FEA3E0FF8F828E83E5E5
:10070600822410F582E5833400F583E0FEA3E0FF42
:1007160090112AEEF0A3EFF0901185E0FEA3E0FF22
:10072600AA06A9077B0190112CEBF0A3EAF0A3E936
:10073600F0D001D002D0031259AE900D89E0FF7DB2
:050746000012A0762264
:10074B00901183E0FF900DC1EFF0901182E0FF90CC
:0F075B000DC2EFF0900D98E0FF7D0012A0762206
:10076A0090117EE0FBA3E0FAA3E0F9E92406F9EA96
:10077A003400FAAE02AF01901185EEF0A3EFF090CB
:10078A001183E0FF900D91EFF0901182E0FF900D40
:10079A0092EFF0901185E0FEA3E0FF8F828E83E056
:0F07AA00FF12A2D6900D63E0FF7D0012A0762211
:1007B90090117EE0FBA3E0FAA3E0F9E92406F9EA47
:1007C9003400FAAE02AF01901185EEF0A3EFF0907C
:1007D9001183E0FF900DA1EFF0901182E0FF900DE1
:1007E900A2EFF0901185E0FEA3E0FFAA06A9077B1E
:1007F90001128640901185E0FEA3E0FFEF2402FF7D
:10080900EE3400FEAA06A9077B01128640901185E5
:10081900E0FEA3E0FFEF2406FFEE3400FEAA06A9DE
:10082900077B01128640901185E0FEA3E0FF8F82CD
:100839008E83E0FEA3E0FFC006C007901185E0FEAD
:10084900A3E0FF8F828E83A3A3E0FCA3E0FD9011B8
:1008590085E0FEA3E0FF8F828E83E5822404F58282
:10086900E5833400F583E0FB901185E0FEA3E0FF0A
:100879008F828E83E5822405F582E5833400F58332
:10088900E0FF901286EFF0D007D006129C0190117C
:1008990085E0FEA3E0FF8F828E83E5822406F58240
:1008A900E5833400F583E0FEA3E0FF900D8AEEF0C6
:0E08B900A3EFF0900D7DE0FF7D0012A07622EF
:1008C700901183E0FF900D6CEFF0901182E0FF90A4
:1008D7000D6DEFF07F0012AC43900D4CE0FF7D00F3
:0408E70012A07622C3
:1008EB0090117EE0FBA3E0FAA3E0F9E92406F9EA14
:1008FB003400FAAE02AF01901185EEF0A3EFF09049
:10090B001185E0FEA3E0FF8F828E83E0FF12AC0324
:10091B00901183E0FF900DD6EFF0901182E0FF90E5
:0F092B000DD7EFF0900DB1E0FF7D0012A0762206
:10093A00901183E0FF900DAEEFF0901182E0FF90EE
:10094A000DAFEFF0900D90E0FF7D0012A07622909F
:10095A001183E0FF900D53EFF0901182E0FF900DAC
:0E096A0054EFF0900DE1E0FF7D0012A0762228
:1009780090117EE0FBA3E0FAA3E0F9E92406F9EA86
:100988003400FAAE02AF01901185EEF0A3EFF090BB
:100998001183E0FF900DD1EFF0901182E0FF900DF0
:1009A800D2EFF0901185E0FEA3E0FFAA06A9077B2D
:1009B80001128640901185E0FEA3E0FF8F828E83AE
:1009C800E0FEA3E0FF12A0EF900DADE0FF7D001266
:0309D800A07622E4
:1009DB00901183E0FF900D8CEFF0901182E0FF906F
:1009EB000D8DEFF0900D5EE0FF7D0012A076229052
:1009FB001183E0FF900D6FEFF0901182E0FF900DEF
:0E0A0B0070EFF0900D4EE0FF7D0012A07622FD
:100A190090117EE0FBA3E0FAA3E0F9E92406F9EAE4
:100A29003400FAAE02AF01901185EEF0A3EFF09019
:100A39001185E0FEA3E0FF8F828E83E0FF129BB653
:100A4900901183E0FF900D85EFF0901182E0FF9007
:0F0A59000D86EFF0900D5BE0FF7D0012A076227E
:100A680090117EE0FBA3E0FAA3E0F9E92406F9EA95
:100A78003400FAAE02AF01901185EEF0A3EFF090CA
:100A88001185E0FEA3E0FFAA06A9077B01128640B4
:100A9800901185E0FEA3E0FFEF2403FFEE3400FE93
:100AA800AA06A9077B01128640901185E0FEA3E003
:100AB800FFEF2405FFEE3400FEAA06A9077B01120A
:100AC8008640901185E0FEA3E0FF8F828E83E0FED2
:100AD800A3E0FFC006C007901185E0FEA3E0FF8FEA
:100AE800828E83A3A3E0FD901185E0FEA3E0FF8F33
:100AF800828E83A3A3A3E0FAA3E0FB901185E0FE16
:100B0800A3E0FF8F828E83E5822405F582E5833496
:100B180000F583E0FEA3E0FF90122EEEF0A3EFF0C5
:100B2800D007D00612614C901183E0FF900DD4EFEE
:100B3800F0901182E0FF900DD5EFF0900DB0E0FF3E
:060B48007D0012A07622E0
:100B4E00901183E0FF900DAAEFF0901182E0FF90DC
:100B5E000DABEFF0900D8FE0FF7D0012A07622908E
:100B6E001183E0FF900D73EFF0901182E0FF900D76
:100B7E0074EFF0900D52E0FF7D0012A076229011DE
:100B8E0083E0FF900DC5EFF0901182E0FF900DC64F
:100B9E00EFF0900DA3E0FF7D0012A076229011835E
:100BAE00E0FF900D93EFF0901182E0FF900D94EF27
:100BBE00F0900D64E0FF7D0012A07622901183E08C
:100BCE00FF900DDCEFF0901182E0FF900DDDEFF065
:0B0BDE00900DC3E0FF7D0012A0762206
:100BE90090117EE0FBA3E0FAA3E0F9E92406F9EA13
:100BF9003400FAAE02AF01901185EEF0A3EFF09048
:100C09001187E4F0901183E0FF900DB7EFF0901198
:100C190082E0FF900DB8EFF0901185E0FEA3E0FFB0
:100C29008F828E83E0FF900DB9EFF0901185E0FE81
:100C3900A3E0FF8F828E83A3E0FF900DBAEFF090BF
:100C49000DBB7401F0900D95E0FF12A87E901187FD
:100C5900EFF0901187E0FFEF640270030210BA9081
:100C69001187E0FFEF640370030210BA900D95E05D
:070C7900FF7D0012A07622AE
:100C800090117EE0FBA3E0FAA3E0F9E92406F9EA7B
:100C90003400FAAE02AF01901185EEF0A3EFF090B0
:100CA0001183E0FF900DCFEFF0901182E0FF900DE7
:100CB000D0EFF0901185E0FEA3E0FFEF2401FFEEFE
:100CC0003400FEAA06A9077B01128640901185E038
:100CD000FEA3E0FF8F828E83E0FF901185E0FCA3EE
:100CE000E0FD8D828C83A3E0FCA3E0FD12A20390C3
:0A0CF0000DACE0FF7D0012A076229B
:100CFA0090118574C8F09011867488F0901187E479
:100D0A00F07B017A117985901183E0FF9010F2EF60
:100D1A00F09010F37403F0901182E0FF9010F4EF5A
:100D2A00F09010F57401F09010F6E4F07D037C0069
:100D3A001227C0EF70CB7F0F7E0012A5A875EF02B5
:010D4A002286
:100D4B0090117EE0FBA3E0FAA3E0F9E92406F9EAAF
:100D5B003400FAAE02AF01901185EEF0A3EFF090E4
:100D6B001183E0FF900D5CEFF0901182E0FF900D8E
:100D7B005DEFF0901185E0FEA3E0FF8F828E83E0A4
:100D8B00FF900D80EFF0900D3BE0FF7D0012A07601
:010D9B002235
:100D9C0090117EE0FBA3E0FAA3E0F9E92406F9EA5E
:100DAC003400FAAE02AF01901185EEF0A3EFF09093
:100DBC001183E0FF900D9FEFF0901182E0FF900DFA
:100DCC00A0EFF0901185E0FEA3E0FFEF2401FFEE11
:100DDC003400FEAA06A9077B01128640901185E01B
:100DEC00FEA3E0FFEF2403FFEE3400FEAA06A907E2
:100DFC007B01128640901185E0FEA3E0FFEF2405F5
:100E0C00FFEE3400FEAA06A9077B01128640901162
:100E1C0085E0FEA3E0FF8F828E83E0FFC007901178
:100E2C0085E0FEA3E0FF8F828E83A3E0FCA3E0FDB0
:100E3C00901185E0FEA3E0FF8F828E83A3A3A3E035
:100E4C00FAA3E0FB901185E0FEA3E0FF8F828E8376
:100E5C00E5822405F582E5833400F583E0FEA3E00A
:100E6C00FF9011FBEEF0A3EFF0D007127441900D40
:090E7C007CE0FF7D0012A076224B
:100E850090117EE0FBA3E0FAA3E0F9E92406F9EA74
:100E95003400FAAE02AF01901185EEF0A3EFF090A9
:100EA5001187E4F0901183E0FF900DE2EFF09011CF
:100EB50082E0FF900DE3EFF0901185E0FEA3E0FFE7
:100EC500AA06A9077B01126967901187EFF09011B7
:100ED50087E0FFEF60047F0080027F01900DE4EF63
:0C0EE500F0900DC7E0FF7D0012A0762207
:100EF100901183E0FF900DD8EFF0901182E0FF9008
:100F01000DD9EFF0900DB6E0FF7D0012A076229092
:100F11001183E0FF900DCDEFF0901182E0FF900D75
:0E0F2100CEEFF0900DA9E0FF7D0012A0762229
:100F2F0090117EE0FBA3E0FAA3E0F9E92406F9EAC9
:100F3F003400FAAE02AF01901185EEF0A3EFF090FE
:100F4F001185E0FEA3E0FFEF2403FFEE3400FEAABD
:100F5F0006A9077B01128640901185E0FEA3E0FFF2
:100F6F00EF2405FFEE3400FEAA06A9077B011286C7
:100F7F0040901183E0FF900D87EFF0901182E0FF1A
:100F8F00900D88EFF0901185E0FEA3E0FF8F828E29
:100F9F0083E0FFC007901185E0FEA3E0FF8F828EF4
:100FAF0083A3E0FD901185E0FEA3E0FF8F828E8387
:100FBF00A3A3E0FB901185E0FEA3E0FF8F828E8359
:100FCF00A3A3A3E0FEA3E0FF9011E0EEF0A3EFF0E8
:100FDF00901185E0FEA3E0FF8F828E83E5822405CA
:100FEF00F582E5833400F583E0FEA3E0FF9011E284
:100FFF00EEF0A3EFF0D007126E1D900D75E0FF7DA0
:05100F000012A0762292
:1010140090117EE0FBA3E0FAA3E0F9E92406F9EAE3
:101024003400FAAE02AF01901185EEF0A3EFF09018
:101034001183E0FF900DB2EFF0901182E0FF900D6C
:10104400B3EFF0901185E0FEA3E0FF8F828E83E082
:10105400FF900DB4EFF0901185E0FEA3E0FF8F82C6
:101064008E83A3E0FF900DB5EFF0900DB5E0FFEF98
:101074001219C3108401109002109C03000010B0D8
:10108400900DB4E0FD7F0A12508E8020900DB4E0E4
:10109400FD7F0D12508E8014900DB4E0FD7F0A1276
:1010A400508E900DB4E0FD7F0D12508E900DA6E091
:0610B400FF7D0012A07692
:0110BA002213
:0B4D41009011C2EBF0A3EAF0A3E9F030
:104D4C009011C2E0FBA3E0FAA3E0F975820275832F
:104D5C0000121527FF9011C7EFF09011C2E0FBA3D2
:104D6C00E0FAA3E0F9758203758300121527FF9012
:104D7C0011C8EFF09011C2E0FBA3E0FAA3E0F975C3
:104D8C008205758300121527FF9011C5EFF0901165
:104D9C00C2E0FBA3E0FAA3E0F9758204758300126C
:104DAC001527FF9011C6EFF09011C8E0FFEFB4018A
:104DBC00149011C2E0FBA3E0FAA3E0F99011C8E053
:104DCC00FD126369229011C5E0FFEF1219C34E3A30
:0B4DDC00CA4E85CC4DE7D800004EF415
:104DE7009011C2E0FBA3E0FAA3E0F9E92406F9EA8F
:104DF7003400FAAE02AF019011C9EEF0A3EFF090C4
:104E070011C9E0FEA3E0FFEF2401FFEE3400FEAA84
:104E170006A9077B011286409011C9E0FEA3E0FFB7
:104E27008F828E83A3E0FEA3E0FF900D9DEEF0A39B
:034E3700EFF02277
:104E3A009011C2E0FBA3E0FAA3E0F9E92406F9EA3B
:104E4A003400FAAE02AF019011C9EEF0A3EFF09070
:104E5A0011C9E0FEA3E0FF8F828E83E0FF9011C9A3
:104E6A00E0FCA3E0FD8D828C83E5822404F582E5D3
:0B4E7A00833400F583E0FD12A78D22B9
:104E85009011C2E0FBA3E0FAA3E0F9E92406F9EAF0
:104E95003400FAAE02AF019011C9EEF0A3EFF09025
:104EA50011C9E0FEA3E0FFAA06A9077B01C003C064
:104EB50002C0019011C9E0FEA3E0FFAA06A9077B85
:104EC50001901132EBF0A3EAF0A3E9F0901135E47B
:104ED500F0A3740CF0D001D002D003126D34901100
:0F4EE500C9E0FEA3E0FFAA06A9077B01129843CC
:014EF400229B
:0599E8009013C5EFF033
:1099ED009013C67401F07B017A1379C6900D56E081
:1099FD00FF9010F2EFF09010F37403F0900D57E01C
:109A0D00FF9010F4EFF09010F57401F09010F6E463
:109A1D00F07D017C001227C0EF70067FFF12A0B30E
:099A2D00229013C5E0FF12A128EC
:019A3600220D
:058C76009012E4EFF094
:108C7B009012E574C8F09012E6748BF09012E7E452
:108C8B00F07B017A1279E5900D5CE0FF9010F2EF2A
:108C9B00F09010F37403F0900D5DE0FF9010F4EF83
:108CAB00F09010F57401F09010F6E4F07D037C0069
:108CBB001227C0EF70067FFF12A0B3229012E4E0E0
:048CCB00FF12A128CB
:018CCF002282
:058CD0009012E8EFF036
:108CD5009012E974C8F09012EA7498F09012EBE4DF
:108CE500F07B017A1279E9900D7EE0FF9010F2EFAA
:108CF500F09010F37403F0900D7FE0FF9010F4EF07
:108D0500F09010F57401F09010F6E4F07D037C000E
:108D15001227C0EF70067FFF12A0B3229012E8E081
:048D2500FF12A12870
:018D29002227
:058D2A009012ECEFF0D7
:108D2F009012ED74C8F09012EE7476F09012EFE49A
:108D3F00F07B017A1279ED900DE5E0FF9010F2EFE4
:108D4F00F09010F37403F0900DE6E0FF9010F4EF45
:108D5F00F09010F57401F09010F6E4F07D037C00B4
:108D6F001227C0EF70067FFF12A0B3229012ECE023
:048D7F00FF12A12816
:018D830022CD
:058D84009012F0EFF079
:108D89009012F174C8F09012F274A2F09012F3E408
:108D9900F07B017A1279F1900D6CE0FF9010F2EFFF
:108DA900F09010F37403F0900D6DE0FF9010F4EF64
:108DB900F09010F57401F09010F6E4F07D037C005A
:108DC9001227C0EF70067FFF12A0B3229012F0E0C5
:048DD900FF12A128BC
:018DDD002273
:058DDE009012F4EFF01B
:108DE3009012F574C8F09012F674A6F09012F7E49E
:108DF300F07B017A1279F5900DD6E0FF9010F2EF37
:108E0300F09010F37403F0900DD7E0FF9010F4EF9F
:108E1300F09010F57401F09010F6E4F07D037C00FF
:108E23001227C0EF70067FFF12A0B3229012F4E066
:048E3300FF12A12861
:018E37002218
:0593D80090125DEFF0B2
:1093DD0090125E74DAF07B017A12795F1266717BFE
:1093ED00017A12795E900D7AE0FF9010F2EFF09015
:1093FD0010F37403F0900D7BE0FF9010F4EFF090FC
:10940D0010F57401F09010F6E4F07D057C00122744
:10941D00C0EF70067FFF12A0B32290125DE0FF1225
:02942D00A12874
:01942F00221A
:057A2300900FFDEFF0E3
:107A2800900FFE74EFF07B017A0F79FF7D087F00DD
:107A380012826E7B017A10790F7D177F00127F40CA
:107A48007B017A0F79FFC003C002C0017B017A0F66
:107A580079FF901132EBF0A3EAF0A3E9F090113529
:107A6800E4F0A37420F0D001D002D003126D347B6F
:107A7800017A0F79FE900D50E0FF9010F2EFF09030
:107A880010F37403F0900D51E0FF9010F4EFF090B4
:107A980010F57401F09010F6E4F07D417C00122797
:107AA800C0EF70067FFF12A0B322900FFDE0FF1217
:027AB800A12803
:017ABA0022A9
:05943000901188EFF02F
:1094350090118974D9F07B017A11798A12A1977BF1
:10944500017A117989900DC9E0FF9010F2EFF09043
:1094550010F37403F0900DCAE0FF9010F4EFF09054
:1094650010F57401F09010F6E4F07D097C001227E8
:10947500C0EF70067FFF12A0B322901188E0FF12A3
:02948500A1281C
:0194870022C2
:058E38009012F8EFF0BC
:108E3D009012F974C8F09012FA747FF09012FBE45E
:108E4D00F07B017A1279F9900D69E0FF9010F2EF45
:108E5D00F09010F37403F0900D6AE0FF9010F4EFB2
:108E6D00F09010F57401F09010F6E4F07D037C00A5
:108E7D001227C0EF70067FFF12A0B3229012F8E008
:048E8D00FF12A12807
:018E910022BE
:058E92009012FCEFF05E
:108E97009012FD74C8F09012FE7480F09012FFE4F7
:108EA700F07B017A1279FD900D41E0FF9010F2EF0F
:108EB700F09010F37403F0900D42E0FF9010F4EF80
:108EC700F09010F57401F09010F6E4F07D037C004B
:108ED7001227C0EF70067FFF12A0B3229012FCE0AA
:048EE700FF12A128AD
:018EEB002264
:05798A009012B5EFF0C2
:10798F009012B774DFF09012B6E4F09012B6E0FFE9
:10799F00EFC39401503A9012B6E0FF12A9819012F2
:1079AF00B6E0FE74B82EF582E43412F583EFF09052
:1079BF0012B6E0FF12A96A9012B6E0FE74B92EF566
:1079CF0082E43412F583EFF09012B6E004F080BB3E
:1079DF007B017A1279B7900D9BE0FF9010F2EFF0D8
:1079EF009010F37403F0900D9CE0FF9010F4EFF003
:1079FF009010F57401F09010F6E4F07D037C001206
:107A0F0027C0EF70067FFF12A0B3229012B5E0FFE0
:037A1F0012A12889
:017A22002241
:05872700901263EFF069
:10872C00901264E4F090126574FBF07F061241D94C
:10873C00901266EFF07F071241D9901267EFF07F2D
:10874C00051241D9901268EFF07B017A127965908D
:10875C000D71E0FF9010F2EFF09010F37403F090B5
:10876C000D72E0FF9010F4EFF09010F57401F090A2
:10877C0010F6E4F07D047C001227C0EF70067FFF3A
:0C878C0012A0B322901263E0FF12A1289B
:0187980022BE
:058EEC00901300EFF0FF
:108EF10090130174C8F0901302746AF0901303E4A4
:108F0100F07B017A137901900D76E0FF9010F2EF7A
:108F1100F09010F37403F0900D77E0FF9010F4EFF0
:108F2100F09010F57401F09010F6E4F07D037C00F0
:108F31001227C0EF70067FFF12A0B322901300E04A
:048F4100FF12A12852
:018F45002209
:058F4600901304EFF0A0
:108F4B0090130574C8F0901306746BF0901307E43C
:108F5B00F07B017A137905900D5FE0FF9010F2EF33
:108F6B00F09010F37403F0900D60E0FF9010F4EFAD
:108F7B00F09010F57401F09010F6E4F07D037C0096
:108F8B001227C0EF70067FFF12A0B322901304E0EC
:048F9B00FF12A128F8
:018F9F0022AF
:05958F0090137EEFF0D7
:1095940090137F74CFF012AD84901380EFF07B01B1
:1095A4007A13797F900D96E0FF9010F2EFF090100F
:1095B400F37403F0900D97E0FF9010F4EFF0901027
:1095C400F57401F09010F6E4F07D027C001227C0DF
:1095D400EF70067FFF12A0B32290137EE0FF12A16A
:0195E400285E
:0195E5002263
:059488009010B2EFF0AE
:10948D009010B374EBF07B017A1079B4129B1E7BB4
:10949D00017A1079B3900DDEE0FF9010F2EFF090AD
:1094AD0010F37403F0900DDFE0FF9010F4EFF090E7
:1094BD0010F57401F09010F6E4F07D137C00122786
:1094CD00C0EF70067FFF12A0B3229010B2E0FF1222
:0294DD00A128C4
:0194DF00226A
:0580DA00900FB3EFF070
:1080DF00900FB474ECF07B017A0F79B51254E87BF2
:1080EF00017A0F79B5C003C002C0017B017A0F7905
:1080FF00B590113EEBF0A3EAF0A3E9F0901141E443
:10810F00F0A37412F0D001D002D00312538B7B0175
:10811F007A0F79B4900D3CE0FF9010F2EFF09010D1
:10812F00F37403F0900D3DE0FF9010F4EFF090101A
:10813F00F57401F09010F6E4F07D497C001227C031
:10814F00EF70067FFF12A0B322900FB3E0FF12A1D2
:01815F0028F7
:0181600022FC
:058FA000901308EFF042
:108FA50090130974C8F090130A747CF090130BE4C5
:108FB500F07B017A137909900D99E0FF9010F2EF9B
:108FC500F09010F37403F0900D9AE0FF9010F4EF19
:108FD500F09010F57401F09010F6E4F07D037C003C
:108FE5001227C0EF70067FFF12A0B322901308E08E
:048FF500FF12A1289E
:018FF9002255
:058FFA0090130CEFF0E4
:108FFF0090130D74C8F090130E747DF090130FE45E
:10900F00F07B017A13790D900DA7E0FF9010F2EF2E
:10901F00F09010F37403F0900DA8E0FF9010F4EFB0
:10902F00F09010F57401F09010F6E4F07D037C00E1
:10903F001227C0EF70067FFF12A0B32290130CE02F
:04904F00FF12A12843
:0190530022FA
:057D9B00901069EFF0FB
:107DA00090106A74DDF012AD9090106BEFF07B01D3
:107DB0007A10796C129899786976007869E6FFEF05
:107DC000C3940C501F7869E6FF7E02EF8EF0A4FF8B
:107DD000AEF0746C2FF974103EFA7B011286407875
:107DE000690680D77B017A10796A900DC1E0FF9017
:107DF00010F2EFF09010F37403F0900DC2E0FF90DA
:107E000010F4EFF09010F57401F09010F6E4F07DAE
:107E10001A7C001227C0EF70067FFF12A0B32290D9
:077E20001069E0FF12A12828
:017E27002238
:05905400901310EFF085
:1090590090131174C8F0901312746DF0901313E407
:10906900F07B017A137911900D91E0FF9010F2EFE6
:10907900F09010F37403F0900D92E0FF9010F4EF6C
:10908900F09010F57401F09010F6E4F07D037C0087
:109099001227C0EF70067FFF12A0B322901310E0D1
:0490A900FF12A128E9
:0190AD0022A0
:0590AE00901314EFF027
:1090B30090131574C8F0901316746EF0901317E4A0
:1090C300F07B017A137915900DA1E0FF9010F2EF78
:1090D300F09010F37403F0900DA2E0FF9010F4EF02
:1090E300F09010F57401F09010F6E4F07D037C002D
:1090F3001227C0EF70067FFF12A0B322901314E073
:04910300FF12A1288E
:019107002245
:0583EA00901269EFF0A4
:1083EF0090126EE4F090126A74D0F012AD78901281
:1083FF006BEFF012A5CE90126CEFF012A70D90124A
:10840F006DEFF090126DE0FFEF600690126EE004DA
:10841F00F07B017A12796A900DAEE0FF9010F2EFC7
:10842F00F09010F37403F0900DAFE0FF9010F4EFA5
:10843F00F09010F57401F09010F6E4F07D047C00DC
:10844F001227C0EF70067FFF12A0B322901269E0CF
:04845F00FF12A1283F
:0184630022F6
:05657200901084EFF021
:1065770090108574F4F012AD2B901086EEF0A3EF17
:10658700F07B017A10798612864012AC73901088DE
:10659700EEF0A3EFF07B017A10798812864012ADF6
:1065A7003490108AEEF0A3EFF07B017A10798A120B
:1065B700864012AD1090108CEEF0A3EFF07B017ABD
:1065C70010798C12864012AD0790108EEEF0A3EF73
:1065D700F07B017A10798E12864012AD19901090D7
:1065E700EEF0A3EFF07B017A10799012864012AC9F
:1065F7008290109212193C7B017A107992126EFDEB
:1066070012AC9190109612193C7B017A1079961270
:106617006EFD12AD2290109AEEF0A3EFF07B017A97
:1066270010799A1286407B017A107985900D53E094
:10663700FF9010F2EFF09010F37403F0900D54E018
:10664700FF9010F4EFF09010F57401F09010F6E45D
:10665700F07D177C001227C0EF70067FFF12A0B3F2
:0966670022901084E0FF12A1282A
:016670002207
:05910800901318EFF0C8
:10910D0090131974C8F090131A7470F090131BE437
:10911D00F07B017A137919900DD1E0FF9010F2EFE9
:10912D00F09010F37403F0900DD2E0FF9010F4EF77
:10913D00F09010F57401F09010F6E4F07D037C00D2
:10914D001227C0EF70067FFF12A0B322901318E014
:04915D00FF12A12834
:0191610022EB
:0595E600901381EFF07D
:1095EB0090138274D3F012AD8A901383EFF07B014A
:1095FB007A137982900D8CE0FF9010F2EFF09010BF
:10960B00F37403F0900D8DE0FF9010F4EFF09010D9
:10961B00F57401F09010F6E4F07D027C001227C087
:10962B00EF70067FFF12A0B322901381E0FF12A10F
:01963B002806
:01963C00220B
:05963D00901384EFF022
:1096420090138574E8F012ADA2901386EFF07B01BF
:109652007A137985900D6FE0FF9010F2EFF0901081
:10966200F37403F0900D70E0FF9010F4EFF090109F
:10967200F57401F09010F6E4F07D027C001227C030
:10968200EF70067FFF12A0B322901384E0FF12A1B5
:0196920028AF
:0196930022B4
:05765300901147EFF06B
:1076580090114874E5F0901149741FF090114A7424
:107668000BF0786376007863E6FFEFC39404504527
:107678007863E6FD7F0A129A857864A6077864E63F
:10768800FFEF5401FF7863E6FE744B2EF582E43475
:1076980011F583EFF07864E6FFEF131313541FFF1F
:1076A8007863E6FE744F2EF582E43411F583EFF02B
:1076B80078630680B17B017A117948900D93E0FFD9
:1076C8009010F2EFF09010F37403F0900D94E0FF37
:1076D8009010F4EFF09010F57401F09010F6E4F0CB
:1076E8007D0B7C001227C0EF70067FFF12A0B3222B
:0876F800901147E0FF12A128E8
:017700002266
:0585CB0090131CEFF00D
:1085D00090131D74F1F07B017A13791EC003C00261
:1085E000C0017B017A13791F901254EBF0A3EAF0DB
:1085F000A3E9F0D001D002D00312A2A27B017A132A
:10860000791D900DDCE0FF9010F2EFF09010F37404
:1086100003F0900DDDE0FF9010F4EFF09010F57492
:1086200001F09010F6E4F07D037C001227C0EF709B
:0F863000067FFF12A0B32290131CE0FF12A128B7
:01863F002218
:05916200901320EFF066
:1091670090132174C8F09013227464F0901323E4D1
:10917700F07B017A137921900D85E0FF9010F2EFD3
:10918700F09010F37403F0900D86E0FF9010F4EF69
:10919700F09010F57401F09010F6E4F07D037C0078
:1091A7001227C0EF70067FFF12A0B322901320E0B2
:0491B700FF12A128DA
:0191BB002291
:0591BC00901324EFF008
:1091C10090132574C8F09013267465F0901327E46A
:1091D100F07B017A137925900DD4E0FF9010F2EF26
:1091E100F09010F37403F0900DD5E0FF9010F4EFC0
:1091F100F09010F57401F09010F6E4F07D037C001E
:109201001227C0EF70067FFF12A0B322901324E053
:04921100FF12A1287F
:019215002236
:057ABB0090121BEFF02A
:107AC0007B017A12791DC003C002C0017B017A12CA
:107AD000791F9011D7EBF0A3EAF0A3E9F07B017ACC
:107AE0001279219011DAEBF0A3EAF0A3E9F0D001CA
:107AF000D002D0031298EF90121C74C9F07B017A67
:107B000012791D1286407B017A12791F1286407B02
:107B1000017A12791C900DAAE0FF9010F2EFF0901C
:107B200010F37403F0900DABE0FF9010F4EFF090C1
:107B300010F57401F09010F6E4F07D067C00122739
:107B4000C0EF70067FFF12A0B32290121BE0FF125D
:027B5000A1286A
:017B52002210
:0581610090126FEFF029
:108166007B017A127971C003C002C0017B017A12C9
:108176007973901278EBF0A3EAF0A3E9F0D001D07E
:1081860002D00312A03890127074F5F07B017A12B7
:1081960079711286407B017A1279731286407B01CF
:1081A6007A127970900D73E0FF9010F2EFF0901054
:1081B600F37403F0900D74E0FF9010F4EFF090105C
:1081C600F57401F09010F6E4F07D057C001227C0EE
:1081D600EF70067FFF12A0B32290126FE0FF12A18C
:0181E6002870
:0181E7002275
:058A3600901328EFF091
:108A3B0090132974FCF07F14129E7690132AEEF09B
:108A4B00A3EFF07B017A13792A1286407B017A130C
:108A5B007929900DC5E0FF9010F2EFF09010F374B0
:108A6B0003F0900DC6E0FF9010F4EFF09010F5744A
:108A7B0001F09010F6E4F07D037C001227C0EF703C
:0F8A8B00067FFF12A0B322901328E0FF12A1284C
:018A9A0022B9
:05625B0090132CEFF090
:1062600090132CE0FFEF1219C362790062B901624A
:10627000EC02630D0300006363900DBBE0FFEFB41D
:106280000112900DBC7401F0900DBBE4F07D007F15
:106290001012508E900DB9E0FFEF6017900DBAE02C
:1062A000FF128464EF70067F0112A128227F001282
:1062B000A128227F0312A1282212A8B6EFB4030658
:1062C0007F0112A12822900DBCE0FFEF600B7F033D
:1062D00012A128900DBCE4F0227B017A0D79BD7DDE
:1062E000647C00129C4B7F0212A128227B017A0D54
:1062F00079BD129797EF7009900DBBE0FFEFB401E5
:0D630000067F0012A128227F0212A1282290
:10630D00900DB9E0FD7F1012508E90132D74C8F0D2
:10631D0090132E7490F090132FE4F07B017A137983
:10632D002D900DB7E0FF9010F2EFF09010F3740385
:10633D00F0900DB8E0FF9010F4EFF09010F57401AF
:10634D00F09010F6E4F07D037C001227C0EF600B97
:06635D007F0312A12822BB
:056363007F0012A128DB
:016368002212
:057096009013FDEFF076
:10709B009013FDE0FFEF1219C370AE0070DB01001F
:1070AB000071577F19129DAAEF70087F1A129DAAC3
:1070BB00EF60177B017A0D7981900D8AE0FCA3E0DC
:1070CB00FD129C927F0112A128227F0012A128227F
:1070DB007F19129DAAEF70087F1A129DAAEF6067A5
:1070EB00900DCBE0FEA3E0FF900D9DE0FCA3E0FD37
:1070FB00C3ED9FFFEC9EFE12A36FC3EF9405EE94BE
:10710B0000502E7B017A0D79811297EDEF601C7D7B
:10711B00007F1A12508E7D007F1912508E7F011244
:10712B00AC4312AD4E7F0012A128227F0112A12881
:10713B0022900D9DE0FEA3E0FF900DCBEEF0A3EFB0
:0C714B00F07F0012A128227F0012A12872
:017157002215
:05738B00901387EFF0F4
:10739000901387E0FFEF1219C373A60073C2017444
:1073A0002902000074407F19129DAAEF70087F1A0D
:1073B000129DAAEF60067F0112A128227F0012A170
:1073C00028227F19129DAAEF70087F1A129DAAEF3A
:1073D00060519013887499F09013897480F07B0148
:1073E0007A1379889010F27404F09010F37403F01B
:1073F0009010F4E4F09010F5E4F09010F67401F0C1
:107400007D027C001227C0EF70137B017A0D794357
:107410007D647C00129C4B7F0212A128227F011206
:10742000A128227F0012A128227B017A0D79431224
:107430009797EF60067F0012A128227F0212A128F1
:017440002229
:05921600901330EFF0A1
:10921B0090133174C8F09013327491F0901333E4BF
:10922B00F07B017A137931900DCFE0FF9010F2EFC4
:10923B00F09010F37403F0900DD0E0FF9010F4EF6A
:10924B00F09010F57401F09010F6E4F07D037C00C3
:10925B001227C0EF70067FFF12A0B322901330E0ED
:04926B00FF12A12825
:01926F0022DC
:058B5D00901334EFF05D
:108B620090133574C8F0901336748EF0900DE4E0D3
:108B7200FF901337EFF07B017A137935900DE2E025
:108B8200FF9010F2EFF09010F37403F0900DE3E019
:108B9200FF9010F4EFF09010F57401F09010F6E4ED
:108BA200F07D037C001227C0EF70067FFF12A0B396
:098BB20022901334E0FF12A12807
:018BBB002297
:0594E000901192EFF075
:1094E50090119374F0F07B017A117994129B6A7B49
:1094F500017A117993900DD8E0FF9010F2EFF0907A
:1095050010F37403F0900DD9E0FF9010F4EFF09094
:1095150010F57401F09010F6E4F07D097C00122737
:10952500C0EF70067FFF12A0B322901192E0FF12E8
:02953500A1286B
:019537002211
:05927000901338EFF03F
:1092750090133974C8F090133A7495F090133BE449
:10928500F07B017A137939900D3FE0FF9010F2EFF2
:10929500F09010F37403F0900D40E0FF9010F4EFA0
:1092A500F09010F57401F09010F6E4F07D037C0069
:1092B5001227C0EF70067FFF12A0B322901338E08B
:0492C500FF12A128CB
:0192C9002282
:0592CA0090133CEFF0E1
:1092CF0090133D74C8F090133E74A3F090133FE4D5
:1092DF00F07B017A13793D900D87E0FF9010F2EF4C
:1092EF00F09010F37403F0900D88E0FF9010F4EFFE
:1092FF00F09010F57401F09010F6E4F07D037C000F
:10930F001227C0EF70067FFF12A0B32290133CE02C
:04931F00FF12A12870
:019323002227
:05932400901340EFF082
:1093290090134174C8F09013427497F0901343E47A
:10933900F07B017A137941900D9FE0FF9010F2EFD5
:10934900F09010F37403F0900DA0E0FF9010F4EF8B
:10935900F09010F57401F09010F6E4F07D037C00B4
:109369001227C0EF70067FFF12A0B322901340E0CE
:04937900FF12A12816
:01937D0022CD
:05937E00901344EFF024
:1093830090134574C8F090134674A4F0901347E407
:10939300F07B017A137945900DB2E0FF9010F2EF64
:1093A300F09010F37403F0900DB3E0FF9010F4EF1E
:1093B300F09010F57401F09010F6E4F07D037C005A
:1093C3001227C0EF70067FFF12A0B322901344E070
:0493D300FF12A128BC
:0193D7002273
:108A9B009013FEEFF09013FEE4F07F0012A1287DFF
:108AAB00F47C017FFF127215900D80E0FFEF704296
:108ABB00900D79E0FFEF7001227B017A0D79651241
:108ACB009797EF6006900DA47401F07B017A0D79F6
:108ADB0048129797EF601B7D007F1A12508E7D0016
:108AEB007F1912508E7F0012A2D67F0012A5F412AE
:038AFB00AD4E225B
:05576E0090103FEFF078
:1057730090104074F7F07B017A1079417D037F002C
:1057830012826E786A7600786AE6FFEFC39404406B
:105793000302581D786AE6FD7F06129A85786AE649
:1057A300FDED75F008A42449F582E43410F583EE89
:1057B300F0A3EFF0786AE6FD7F07129A85786AE630
:1057C300FDED75F008A4244BF582E43410F583EE67
:1057D300F0A3EFF0786AE6FD7F08129A85786AE60F
:1057E300FDED75F008A4244DF582E43410F583EE45
:1057F300F0A3EFF0786AE6FD7F09129A85786AE6EE
:10580300FDED75F008A4244FF582E43410F583EE22
:10581300F0A3EFF0786A0602578A7B017A10794188
:10582300C003C002C0017B017A107941901132EBB1
