:09AEEA000001020304050607083B
:10A4EA0075840075BA0075BC18901119E4F075BB33
:10A4FA000075D1077E007F127D007B017A11791ADF
:10A50A00121ABB75E80C12A9E543E88043E702D2A8
:02A51A00AF226E
:03007B00027D8281
:107D8200C0E0C0F0C083C082C0D075D00853E7FD08
:107D9200C2EDAFBF7E00901119E0FDED25E0241A7F
:107DA200F582E43411F583EEF0A3EFF0901119E0BF
:107DB200FFEF25E0241AF582E43411F583C083C075
:107DC20082E0FEA3E0FFEF7F00FED082D083EEF0E0
:107DD200A3EFF0901119E0FFEF25E0241AF582E4F9
:107DE2003411F583C083C082E0FEA3E0FFADBE7C08
:107DF20000EE4CFEEF4DFFD082D083EEF0A3EFF009
:107E020012A7F343E702D0D0D082D083D0F0D0E0E3
:017E1200323D
:108405009012CBEFF09012CCEDF09012CDEBF0A3E3
:10841500EAF0A3E9F053E7FD9012CBE0FF7E009070
:1084250012CCE0FD7C00C3ED9FFFEC9EFEEF240126
:10843500FFEE3400FEEF25E0FFEE33FEC006C00779
:108445009012CBE0FF7E02EF8EF0A4FFAEF0741A1F
:108455002FF974113EFA7B01C003C002C0019012CE
:10846500CDE0FBA3E0FAA3E0F9A801AC02AD03D08F
:1084750001D002D003D007D00612158743E70222A8
:10A7F300C0D075D008901119E004FFF0EFB409053B
:10A80300901119E4F0901119E0FFEF90AEEA93FF75
:05A813008FBBD0D02234
:085F9E00450F8000040206011A
:10A83D00C200C201758400759A4075F809759DFFB7
:10A84D0075840F43A60743E10243E34043F60143FA
:03A85D00E60122EF
:10884B00901225EEF0A3EFF0901227EBF0A3EAF0D5
:10885B00A3E9F075840053E6FE901227E0FBA3E03A
:10886B00FAA3E0F9AE02AF01900F1AEEF0A3EFF00E
:10887B00901225E0FEA3E0FF900F19EFF090122A63
:10888B00E0FBA3E0FAA3E0F9900F16EBF0A3EAF0FC
:10889B00A3E9F0900F15E4F0900F15E0FF04F074CE
:1088AB001C2FF582E4340FF583E0FF8F9B43E60129
:0388BB007F002219
:030033000262D88E
:1062D800C0E0C0F0C083C082C0D075D01820FF03D2
:1062E800026387C2FF30010375A0FD900F15E0FF20
:1062F8007E00EF24FFFFEE34FFFE900F1AE0FCA3B0
:10630800E0FD8D828C83E5822FF582E5833EF5835F
:10631800E59BF0900F19E0FF900F15E0FEEEC39F8C
:10632800503730011B900F85E4F0900F85E0FFEFA8
:10633800C394145008900F85E004F080ED75A0F820
:10634800900F15E0FF04F0741C2FF582E4340FF56C
:1063580083E0FF8F9B807D8026900F19E0FF900FD0
:1063680015E0FEEEB51F18900F16E0FBA3E0FAA3A8
:10637800E0F989828A837F007E00121A8C8055306A
:10638800FE1AC2FE900F16E0FBA3E0FAA3E0F9891B
:10639800828A837F027E00121A8C803830FD1AC2EE
:1063A800FD900F16E0FBA3E0FAA3E0F989828A8347
:1063B8007F037E00121A8C801B30FC18C2FC900FE1
:1063C80016E0FBA3E0FAA3E0F989828A837F047EC2
:0F63D80000121A8CD0D0D082D083D0F0D0E03217
:0BAECB003000037F0122D2007F002234
:03000600C2002213
:10A5AF009013FEEFF09013FFEDF09013FFE0FFEF2D
:10A5BF00B401179013FEE0FF74802FF582E4340F7F
:0EA5CF00F583E0FFEF44F8F5A02275A0FD2211
:07AF39007B017A0F791C2255
:10AD0000901434EFF0901434E0FFEF24FF9201220E
:10A0A500A2AF9204C2AF75840043911043910F751E
:10A0B500985012AAE4C299C298D2ACD2BCA204921A
:10A0C500AF75840F43E10443E340900000E4F09052
:0FA0D5000101E4F0900102E4F090010374FFF048
:01A0E4002259
:10A41B0053E7BF7584017598105398FC43F74012AE
:10A42B00AB2F75840F43E30443E3409001A7E4F0A3
:10A43B009002A8E4F09002A9E4F09002AA74FFF055
:04A44B0043E7402281
:03002300027EA4B6
:0D7EA400C0E0C0F0C083C082C0D075D01017
:107EB100C2ACE59130E70353917FE59130E603537E
:107EC10091BF309816C298901435E599F07B017AEC
:107ED100017904901435E0FD1261C6309946C299CA
:107EE100900102E0FF900101E0FEEE6F6031900130
:107EF10002E0FF74012FF582E43400F583E0FF8F87
:107F010099900102E0FF7E00EF2401FFEE3400FEB4
:107F11007E00900102EFF0900103E004F0800590F3
:067F21000000E4F0D2AC08
:0B7F2700D0D0D082D083D0F0D0E03268
:0300A300028504CF
:10850400C0E0C0F0C083C082C0D075D01053E7BFB4
:10851400E59830E00E5398FE7B017A0279ABAD9971
:108524001261C6E59830E1475398FD9002A9E0FF37
:108534009002A8E0FEEE6F60319002A9E0FF74A8FB
:108544002FF582E43401F583E0FF8F999002A9E0CE
:10855400FF7E00EF2401FFEE3400FE7E009002A9AE
:10856400EFF09002AAE004F080059001A7E4F04344
:0D857400E740D0D0D082D083D0F0D0E032EC
:10973200901283EBF0A3EAF0A3E9F0901286EDF029
:10974200901287E0FFEF7018901283E0FBA3E0FA1B
:10975200A3E0F9901286E0FD1248A2901288EFF081
:10976200901287E0FFEFB40118901283E0FBA3E0B0
:10977200FAA3E0F9901286E0FD124A79901288EF7E
:06978200F0901288E0FFE8
:0197880022BE
:1048A2009011EFEBF0A3EAF0A3E9F09011F2EDF032
:1048B2007B017A0079009011F5EBF0A3EAF0A3E90D
:1048C200F07584009011F5E0FBA3E0FAA3E0F9751E
:1048D20082037583011215C6FF9011F2E0FEEFC349
:1048E2009E50037F01229011F3E4F09011F2E0FF59
:1048F2009011F3E0FEEEC39F40030249B9A2ACE47B
:1049020033FF9011F4EFF0C2AC9011EFE0FBA3E0A3
:10491200FAA3E0F99011F3E0FF8F8275830012157C
:10492200C6FF9011F5E0FBA3E0FAA3E0F97582015E
:104932007583011215C6FEEEFD7C009011F5E0FBB9
:10494200A3E0FAA3E0F9E92401F9EA3400FAE92D37
:10495200F9EA3CFAEF1216489011F5E0FBA3E0FAEF
:10496200A3E0F97582017583011215C6FF7E00EF7F
:104972002401FFEE3400FE7E009011F5E0FBA3E07F
:10498200FAA3E0F9758201758301EF12165A9011AC
:10499200F5E0FBA3E0FAA3E0F975820375830174E5
:1049A200FF1216159011F4E0FFEF24FF92AC901164
:1049B200F3E004F00248EDA2ACE433FF9011F4EF0F
:1049C200F0C2AC9011F5E0FBA3E0FAA3E0F91215F6
:1049D200ADFFEF6003024A6C9011F5E0FBA3E0FA31
:1049E200A3E0F974011216489011F5E0FBA3E0FA76
:1049F200A3E0F97582027583011215C6FF7E00904D
:104A020011F5E0FBA3E0FAA3E0F9E92401F9EA34A5
:104A120000FAE92FF9EA3EFA1215ADFF8F999011CB
:104A2200F5E0FBA3E0FAA3E0F975820275830112B7
:104A320015C6FF7E00EF2401FFEE3400FE7E0090DB
:104A420011F5E0FBA3E0FAA3E0F975820275830198
:104A5200EF12165A9011F5E0FBA3E0FAA3E0F97504
:104A6200820375830174011216159011F4E0FFEFB1
:064A720024FF92AC7F005E
:014A7800221B
:104A79009011F8EBF0A3EAF0A3E9F09011FBEDF047
:104A89007B017A0179A79011FEEBF0A3EAF0A3E983
:104A9900F07584019011FEE0FBA3E0FAA3E0F9753B
:104AA90082037583011215C6FF9011FBE0FEEFC367
:104AB9009E50037F01229011FCE4F09011FBE0FF6E
:104AC9009011FCE0FEEEC39F4003024B8FE5E754D3
:104AD90040FF9011FDEFF053E7BF9011F8E0FBA301
:104AE900E0FAA3E0F99011FCE0FF8F8275830012D0
:104AF90015C6FF9011FEE0FBA3E0FAA3E0F9758269
:104B0900017583011215C6FEEEFD7C009011FEE0D1
:104B1900FBA3E0FAA3E0F9E92401F9EA3400FAE990
:104B29002DF9EA3CFAEF1216489011FEE0FBA3E0DA
:104B3900FAA3E0F97582017583011215C6FF7E009B
:104B4900EF2401FFEE3400FE7E009011FEE0FBA38E
:104B5900E0FAA3E0F9758201758301EF12165A9004
:104B690011FEE0FBA3E0FAA3E0F975820375830166
:104B790074FF1216159011FDE0FFEF42E79011FC4A
:104B8900E004F0024AC4E5E75440FF9011FDEFF05C
:104B990053E7BF9011FEE0FBA3E0FAA3E0F9121579
:104BA900ADFFEF6003024C439011FEE0FBA3E0FA76
:104BB900A3E0F974011216489011FEE0FBA3E0FA94
:104BC900A3E0F97582027583011215C6FF7E009074
:104BD90011FEE0FBA3E0FAA3E0F9E92401F9EA34C4
:104BE90000FAE92FF9EA3EFA1215ADFF8F999011F3
:104BF900FEE0FBA3E0FAA3E0F975820275830112D6
:104C090015C6FF7E00EF2401FFEE3400FE7E009002
:104C190011FEE0FBA3E0FAA3E0F9758202758301B6
:104C2900EF12165A9011FEE0FBA3E0FAA3E0F97522
:104C3900820375830174011216159011FDE0FFEFCF
:044C490042E77F00BF
:014C4D002244
:10A9C700901436EFF0901436E0FF7E007C017DA7EF
:0EA9D70012167C74042FF974013EFA7B0122E3
:10ACCA00A2ACE433FF901437EFF0C2AC901437E033
:01ACDA00FF7A
:01ACDB002256
:10ACA400E5E75440FF901438EFF053E7BF901438B1
:02ACB400E0FFBF
:01ACB600227B
:10ACDC00A2ACE433FF901439EFF0D2AC901439E00D
:01ACEC00FF68
:01ACED002244
:10ACB700E5E75440FF90143AEFF043E74090143A29
:02ACC700E0FFAC
:01ACC9002268
:0CAEA700900654E4F090065574FFF02271
:0B8AF50090131BEBF0A3EAF0A3E9F0E4
:108B0000900654E0FFEFC3945640037FFF22900687
:108B100054E0FF90131EEFF090131BE0FBA3E0FA6C
:108B2000A3E0F990131EE0FF75F009EFA4244EF5C1
:108B300082E5F03403F583EBF0A3EAF0A3E9F090CB
:108B4000131EE0FF75F009EFA42452F582E5F0341E
:108B500003F583E4F0900654E004F090131EE0FF68
:018B600022F2
:10A22300901400EFF0901401EDF0901400E0FF752E
:10A23300F009EFA42452F582E5F03403F5837402A8
:10A24300F0901401E0FF901400E0FE75F009EEA415
:0DA253002451F582E5F03403F583EFF0228D
:10A2600090143BEFF090143BE0FFEFB4FF17900623
:10A2700055E0FF75F009EFA42452F582E5F03403B0
:10A28000F583E4F02290143BE0FF75F009EFA4247D
:0CA2900052F582E5F03403F583E4F0227F
:10A2D50090143CEFF090143CE0FF900655E0FE75BD
:10A2E500F009EEA42451F582E5F03403F583EFF08F
:10A2F500900655E0FF75F009EFA42452F582E5F0CC
:08A305003403F5837402F02219
:1073AB009013A7EFF09013A8ECF0A3EDF09013A7B8
:1073BB00E0FFEF64FF7052900655E0FF75F009EFA8
:1073CB00A42452F582E5F03403F5837403F09006A0
:1073DB0055E0FF7E09EF8EF0A4FFAEF074532FF94A
:1073EB0074033EFA7B01C003C002C0019013A8E0F6
:1073FB00FEA3E0FF7C007D0A12168EAC06AD07D013
:10740B0001D002D003129E3C229013A7E0FF75F02F
:10741B0009EFA42452F582E5F03403F5837403F0ED
:10742B009013A7E0FF7E09EF8EF0A4FFAEF074532C
:10743B002FF974033EFA7B01C003C002C001901305
:10744B00A8E0FEA3E0FF7C007D0A12168EAC06AD11
:0B745B0007D001D002D003129E3C229B
:1058E40090143DE4F0900654E0FF90143DE0FEEE89
:1058F400C39F4003025A0F900654E0FF900655E000
:1059040004FEF0EEB50705900655E4F0900655E068
:10591400FF75F009EFA42452F582E5F03403F58312
:10592400E0FFEF64027051900655E0FF75F009EF57
:10593400A42452F582E5F03403F5837401F0900653
:1059440055E0FF75F009EFA42451F582E5F0340326
:10595400F583E0FF900655E0FE75F009EEA4244EB1
:10596400F582E5F03403F583E0FBA3E0FAA3E0F964
:1059740089828A83121A8C22900655E0FF75F009F9
:10598400EFA42452F582E5F03403F583E0FFEF64DD
:1059940003706F900655E0FF7E09EF8EF0A4FFAE12
:1059A400F074532FF974033EFA7B0112993BEF60B4
:1059B40051900655E0FF75F009EFA42452F582E5F5
:1059C400F03403F5837401F0900655E0FF75F00997
:1059D400EFA42451F582E5F03403F583E0FF90064B
:1059E40055E0FE75F009EEA4244EF582E5F034038B
:1059F400F583E0FBA3E0FAA3E0F989828A83121A13
:0B5A04008C2290143DE004F00258E9F1
:015A0F002274
:10AA5B0090143EEFF090143EE0FF75F009EFA42444
:0CAA6B0052F582E5F03403F583E0FF2291
:10773B009013AAEBF0A3EAF0A3E9F09013AAE0FBF5
:10774B00A3E0FAA3E0F97582037583007495121612
:10775B005A9013AAE0FBA3E0FAA3E0F97582017536
:10776B008300E412165A9013AAE0FBA3E0FAA3E0FD
:10777B00F9758202758300E412165A9013AAE0FB86
:10778B00A3E0FAA3E0F9758205758300E412165A9B
:10779B009013AAE0FBA3E0FAA3E0F97582047583CA
:1077AB0000E412165A9013AAE0FBA3E0FAA3E0F947
:1077BB00E41216489013AAE0FBA3E0FAA3E0F975D4
:1077CB00820A758300E412165A9013AAE0FBA3E019
:0F77DB00FAA3E0F975820B758300E412165A22A7
:1061C600C0D075D01090131FEBF0A3EAF0A3E9F04E
:1061D600901322EDF090131FE0FBA3E0FAA3E0F981
:1061E6007582027583001215C6FF90131FE0FBA38C
:1061F600E0FAA3E0F97582017583001215C6FEEE7A
:10620600B5171D90131FE0FBA3E0FAA3E0F9758212
:10621600057583001215C6FFEF60057F030262D580
:10622600901322E0FF90131FE0FBA3E0FAA3E0F92E
:106236007582017583001215C6FEEEFD7C00901373
:106246001FE0FBA3E0FAA3E0F9E9240DF9EA340024
:10625600FAE92DF9EA3CFAEF12164890131FE0FB13
:10626600A3E0FAA3E0F97582037583001215C6FF51
:1062760090131FE0FBA3E0FAA3E0F9758201758392
:10628600001215C6FEEEC39F501890131FE0FBA325
:10629600E0FAA3E0F9758201758300740112161500
:1062A600801590131FE0FBA3E0FAA3E0F9758201C5
:1062B600758300E412165A90131FE0FBA3E0FAA3BD
:1062C600E0F975820575830074011216157F01D0F9
:0262D600D022D4
:0B60B30090122DEBF0A3EAF0A3E9F03F
:1060BE0090122DE0FBA3E0FAA3E0F975820575833B
:1060CE00001215C6FFEF70067F03220261C3901205
:1060DE0033E0FFEF700A12ACCA901234EFF0800872
:1060EE0012ACA4901234EFF090122DE0FBA3E0FA64
:1060FE00A3E0F97582027583001215C6FF7E00902B
:10610E00122DE0FBA3E0FAA3E0F9E9240DF9EA343D
:10611E0000FAE92FF9EA3EFA1215ADFF901230E0BF
:10612E00FBA3E0FAA3E0F9EF12164890122DE0FB64
:10613E00A3E0FAA3E0F97582037583001215C6FF7A
:10614E0090122DE0FBA3E0FAA3E0F97582027583AD
:10615E00001215C6FEEEC39F501890122DE0FBA341
:10616E00E0FAA3E0F9758202758300740112161528
:10617E00801590122DE0FBA3E0FAA3E0F9758202E0
:10618E00758300E412165A90122DE0FBA3E0FAA3D9
:10619E00E0F975820575830074FF1216159012349E
:1061AE00E0FFEF6010901233E0FFEF700512ACDCF1
:0761BE00800312ACB77F0162
:0161C50022B7
:108A85009013ADEBF0A3EAF0A3E9F09013ADE0FB92
:108A9500A3E0FAA3E0F97582037583007402121648
:108AA5005A9013ADE0FBA3E0FAA3E0F975820275D5
:108AB5008300E412165A9013ADE0FBA3E0FAA3E09D
:108AC500F9758201758300E412165A9013ADE0FB27
:108AD500A3E0FAA3E0F9758204758300E412165A3F
:108AE5009013ADE0FBA3E0FAA3E0F9E412164822E7
:1098E5009013B0EBF0A3EAF0A3E9F09013B0E0FB1E
:1098F500A3E0FAA3E0F97582037583001215C6FF8C
:109905009013B0E0FBA3E0FAA3E0F9758204758338
:10991500001215C6FEEEB507057EFF7FFF229013E8
:10992500B0E0FBA3E0FAA3E0F975820275830012AB
:0699350015C6FF7E0022B2
:1081EA009012D0EBF0A3EAF0A3E9F09012D3ECF0EE
:1081FA00A3EDF09012D0E0FBA3E0FAA3E0F97582B8
:10820A00037583001215C6FF7E00EF24FFFFEE34CC
:10821A00FFFE9012D3E0FCA3E0FDD3ED9FEE648055
:10822A00F8EC64809850109012D3E0FEA3E0FFC3EC
:10823A00EE6480948050077B007A007900229012C5
:10824A00D0E0FBA3E0FAA3E0F9E92406F9EA340056
:10825A00FA9012D3E0FEA3E0FF7C007D4B12167C5D
:07826A00E92FF9EA3EFA22B8
:1086EC009013B3EBF0A3EAF0A3E9F09013B3E0FB23
:1086FC00A3E0FAA3E0F97582037583001215C6FF97
:10870C009013B3E0FBA3E0FAA3E0F9758202758342
:10871C00007401121615FEEEB507159013B3E0FBAD
:10872C00A3E0FAA3E0F9758202758300E412165AED
:10873C009013B3E0FBA3E0FAA3E0F9E4121648901F
:10874C0013B3E0FBA3E0FAA3E0F975820475830090
:06875C0074011216152243
:10A0E5009013B6EBF0A3EAF0A3E9F09013B6E0FB0A
:10A0F500A3E0FAA3E0F97582047583001215C6FF83
:10A10500EF70057EFF7FFF229013B6E0FBA3E0FA18
:10A11500A3E0F97582017583001215C6FF7E002242
:108485009013B9EBF0A3EAF0A3E9F09013B9E0FB80
:10849500A3E0FAA3E0F97582047583001215C6FFFF
:1084A500EF605B9013B9E0FBA3E0FAA3E0F97582F6
:1084B500037583001215C6FF9013B9E0FBA3E0FA1C
:1084C500A3E0F97582017583007401121615FEEE9D
:1084D500B507159013B9E0FBA3E0FAA3E0F975829F
:1084E50001758300E412165A9013B9E0FBA3E0FA74
:0F84F500A3E0F975820475830074FF1216152237
:107E1300901289EBF0A3EAF0A3E9F090128CECF056
:107E2300A3EDF0901289E0FBA3E0FAA3E0F91215A9
:107E3300ADFFEFC3944B506890128EE0FFC00790E4
:107E43001289E0FBA3E0FAA3E0F9E92406F9EA3496
:107E530000FA90128CE0FEA3E0FF7C007D4B12162B
:107E63007CE92FF9EA3EFAC003C002C001901289EF
:107E7300E0FBA3E0FAA3E0F91215ADFF7E00D00109
:107E8300D002D003E92FF9EA3EFAD007EF121648E1
:107E9300901289E0FBA3E0FAA3E0F974011215F351
:017EA30022BC
:109B3B009009177497F09009187497F07F0012A989
:109B4B00C7AE02AF01900AFBEEF0A3EFF07F01125C
:109B5B00A9C7AE02AF01900B99EEF0A3EFF0900AFC
:109B6B00FBE0FEA3E0FFAA06A9077B0112773B905F
:109B7B000B99E0FEA3E0FFAA06A9077B0112773B36
:019B8B0022B7
:10285F0090112CEBF0A3EAF0A3E9F090112FECF01C
:03286F00A3EDF0E6
:10287200901138E4F0901131E0FFEFB4010B900DAC
:10288200A5E0FFEF60037F0022901135E0FFEF70BB
:102892001F7E097F1990113AEEF0A3EFF07B017AC7
:1028A20009791790113CEBF0A3EAF0A3E9F0801D3F
:1028B2007E0A7F5890113AEEF0A3EFF07B017A097D
:1028C200791890113CEBF0A3EAF0A3E9F0901134EF
:1028D200E0FFEF600C901133E0FF901139EFF080D0
:1028E2001490113CE0FBA3E0FAA3E0F91215ADFF4E
:1028F200901139EFF090112FE0FEA3E0FFD3EF9497
:102902004BEE940040037F012290113AE0FEA3E0D7
:10291200FF8F828E837455F090113AE0FEA3E0FFA0
:102922008F828E83A37433F09011367406F0901167
:1029320032E0FF901136E0FE04F090113AE0FCA381
:10294200E0FD8D828C83E5822EF582E43583F5836A
:10295200EFF0901132E0FFEFB45520901136E0FF16
:1029620004F090113AE0FCA3E0FD8D828C83E582B5
:102972002FF582E43583F58374AAF0901131E0FFDC
:10298200901136E0FE04F090113AE0FCA3E0FD8DD8
:10299200828C83E5822EF582E43583F583EFF09015
:1029A2001131E0FFEFB45520901136E0FF04F090B2
:1029B200113AE0FCA3E0FD8D828C83E5822FF58243
:1029C200E43583F58374AAF0901139E0FF90113653
:1029D200E0FE04F090113AE0FCA3E0FD8D828C83CE
:1029E200E5822EF582E43583F583EFF0901139E02C
:1029F200FFEFB45520901136E0FF04F090113AE059
:102A0200FCA3E0FD8D828C83E5822FF582E4358381
:102A1200F58374AAF0901134E0FFEF702490113C1A
:102A2200E0FBA3E0FAA3E0F974011215F3FFEF70E3
:102A32001090113CE0FBA3E0FAA3E0F974971216A0
:102A420048901137E4F0901137E0FF7E0090112F8B
:102A5200E0FCA3E0FDC3EF9DEE9C4003022ADF9061
:102A6200112CE0FBA3E0FAA3E0F9901137E0FF8F0D
:102A7200827583001215C6FF901136E0FE04F090B5
:102A8200113AE0FCA3E0FD8D828C83E5822EF58273
:102A9200E43583F583EFF090112CE0FBA3E0FAA379
:102AA200E0F9901137E0FF8F827583001215C6FF9F
:102AB200EFB45520901136E0FF04F090113AE0FC9B
:102AC200A3E0FD8D828C83E5822FF582E43583F5C8
:102AD2008374AAF0901137E004F0022A489011366C
:102AE200E0FFEF24FAFFEF54FFFF90113AE0FCA35E
:102AF200E0FD8D828C83A3A3EFF090113AE0FEA358
:102B0200E0FF8F828E83A3A3A3E4F0901136E0FF4F
:102B12007E00EF24FAFFEE34FFFE7F00EEFF7E0020
:102B220090113AE0FCA3E0FD8D828C83E5822404BF
:102B3200F582E5833400F583EFF090113AE0FEA3CD
:102B4200E0FF8F828E83E5822405F582E5833400DF
:102B5200F583E4F09011377406F0901136E0FF909F
:102B62001137E0FEEEC39F502B901137E0FF90111A
:102B72003AE0FCA3E0FD8D828C83E5822FF582E4AE
:102B82003583F583E0FF901138E02FF0901137E0A4
:102B920004F080C6901138E0FF901136E0FE04F098
:102BA20090113AE0FCA3E0FD8D828C83E5822EF544
:102BB20082E43583F583EFF090113AE0FEA3E0FF63
:102BC200AA06A9077B01901136E0FD901135E0FFBE
:102BD200EF70047F0080027F01901287EFF012975E
:092BE20032EF60037F02227F0044
:012BEB0022C7
:05746600901402EFF09C
:10746B007B017A0979BC1298E5EF64FF7003EE6437
:10747B00FF6043900AFBE0FEA3E0FFAA06A9077B8F
:10748B0001C003C002C0017B017A14790390123052
:10749B00EBF0A3EAF0A3E9F0901233E4F0D001D0C3
:1074AB0002D0031260B3EFB4010C901403E0FF7D24
:1074BB0000121B9B80BD7B017A0A79FD1298E5EFC8
:1074CB0064FF7003EE64FF6044900B99E0FEA3E051
:1074DB00FFAA06A9077B01C003C002C0017B017A8A
:1074EB00147903901230EBF0A3EAF0A3E9F09012B9
:1074FB00337401F0D001D002D0031260B3EFB401AA
:10750B000C901403E0FF7D01121B9B80BC901402B6
:05751B00E0FF12A2D503
:017520002248
:0A1B9B009011A9EFF09011AAEDF0EF
:101BA5009011AAE0FFEF701E900AFBE0FEA3E0FF94
:101BB5009011AFEEF0A3EFF07E097FBC9011B1EE6E
:101BC500F0A3EFF0801C900B99E0FEA3E0FF9011CD
:101BD500AFEEF0A3EFF07E0A7FFD9011B1EEF0A31A
:101BE500EFF09011B1E0FEA3E0FFAA06A9077B0183
:101BF5001298E59011ABEEF0A3EFF09011ABE0FE7B
:101C0500A3E0FFEF64FF7003EE64FF70030223623D
:101C15009011B1E0FEA3E0FFAA06A9077B01901190
:101C2500ABE0FCA3E0FD1281EAAE02AF019011AD7D
:101C3500EEF0A3EFF09011ADE0FEA3E0FFEF4E70E4
:101C4500030223629011AFE0FEA3E0FF8F828E8333
:101C5500E5822404F582E5833400F583E0FFEF1285
:101C65001A621C83001CAC011CEC021D8E031E5D58
:101C7500041FF20821CB0A21020B000023629011F8
:101C8500A9E0FFEF645560030223629011AFE0FE07
:101C9500A3E0FF8F828E83E5822404F582E58334F9
:101CA50000F5837401F0229011A9E0FFEFB4331C15
:101CB5009011AFE0FEA3E0FF8F828E83E5822404BE
:101CC500F582E5833400F5837402F0229011AFE0CC
:101CD500FEA3E0FF8F828E83E5822404F582E583EF
:101CE5003400F583E4F0229011A9E0FF9011AFE0F4
:101CF500FCA3E0FD8D828C83E5822407F582E583D4
:101D05003400F583EFF09011A9E0FFEFB455047F9F
:101D15000180027F009011AFE0FCA3E0FD8D828C75
:101D250083E582240CF582E5833400F583EFF0909A
:101D350011AFE0FEA3E0FF8F828E83E5822404F5D8
:101D450082E5833400F5837403F09011AFE0FEA3C0
:101D5500E0FF8F828E83E5822406F582E5833400D9
:101D6500F5837404F09011B1E0FEA3E0FFAA06A983
:101D7500077B019011ABE0FCA3E0FD9011A9E0FF0A
:101D850090128EEFF0127E13229011A9E0FFEF70F2
:101D9500359011AFE0FEA3E0FF8F828E83E58224AC
:101DA50006F582E5833400F583E0FF9011AFE0FC92
:101DB500A3E0FD8D828C83E5822404F582E58334DE
:101DC50000F583EFF0229011AFE0FEA3E0FF8F82D4
:101DD5008E83E582240CF582E5833400F583E0FFEC
:101DE500EF60409011A9E0FFEFB4331C9011AFE014
:101DF500FEA3E0FF8F828E83E5822404F582E583CE
:101E05003400F5837402F0229011AFE0FEA3E0FFE9
:101E15008F828E83E5822404F582E5833400F58381
:101E2500E4F0229011AFE0FEA3E0FF8F828E83E500
:101E3500822404F582E5833400F583E4F09011AF44
:101E4500E0FEA3E0FF8F828E83E582240CF582E518
:101E5500833400F583E4F0229011A9E0FFEFB45537
:101E6500047F0180027F009011AFE0FCA3E0FD8DAF
:101E7500828C83E582240CF582E5833400F583EFBB
:101E8500F09011AFE0FEA3E0FF8F828E83E5822400
:101E950007F582E5833400F583E0FF9011A9E0FEA4
:101EA5007E00EE4FFF9011AFE0FCA3E0FD8D828C2C
:101EB50083E5822407F582E5833400F583EFF0900E
:101EC50011B1E0FEA3E0FFAA06A9077B019011ABC3
:101ED500E0FCA3E0FD9011A9E0FF90128EEFF01257
:101EE5007E139011AFE0FEA3E0FF8F828E83E58223
:101EF5002407F582E5833400F583E0FFEFD39400F2
:101F05005003021FB29011AFE0FEA3E0FF8F828E57
:101F150083E5822407F582E5833400F583E0FFEF4E
:101F2500D3944B4003021FB29011AFE0FEA3E0FF34
:101F35008F828E83E5822408F582E5833400F5835C
:101F4500E4F09011AFE0FEA3E0FF8F828E83E5827F
:101F55002409F582E5833400F583E4F09011AFE0C0
:101F6500FEA3E0FF8F828E83E582240AF582E58356
:101F75003400F583E4F09011AFE0FEA3E0FF8F821B
:101F85008E83E5822406F582E5833400F5837408A3
:101F9500F09011AFE0FEA3E0FF8F828E83E58224EF
:101FA50004F582E5833400F5837403F0229011A9CA
:101FB500E0FFEFB4551C9011AFE0FEA3E0FF8F8268
:101FC5008E83E5822404F582E5833400F58374016C
:101FD500F0229011AFE0FEA3E0FF8F828E83E582B1
:101FE5002404F582E5833400F583E4F0229011A9F9
:101FF500E0FFEFB455369011AFE0FEA3E0FF8F820E
:102005008E83E5822404F582E5833400F583740A22
:10201500F09011AFE0FEA3E0FF8F828E83E582246E
:1020250006F582E5833400F5837408F09011B1E07C
:10203500FEA3E0FFAA06A9077B019011ABE0FCA374
:10204500E0FD9011A9E0FF90128EEFF0127E139043
:1020550011A9E0FF9011AFE0FCA3E0FD8D828C8318
:10206500E582240AF582E5833400F583E02FF090BC
:1020750011AFE0FEA3E0FF8F828E83E5822409F590
:1020850082E5833400F583E004F09011AFE0FEA310
:10209500E0FF8F828E83E5822408F582E583340094
:1020A500F583E004F09011AFE0FEA3E0FF8F828E90
:1020B50083E5822407F582E5833400F583E0FF900C
:1020C50011AFE0FCA3E0FD8D828C83E5822408F549
:1020D50082E5833400F583E0FEEEC39F50030223BF
:1020E500629011AFE0FEA3E0FF8F828E83E582242C
:1020F50004F582E5833400F583740BF0229011AF6B
:10210500E0FEA3E0FF8F828E83E582240AF582E557
:10211500833400F583E0FFEF54FFFF9011A9E0FE43
:10212500EF6E601D9011AFE0FEA3E0FF8F828E83FE
:10213500E582240BF582E5833400F583E004F08025
:102145006A9011AFE0FEA3E0FF8F828E83E58224C3
:1021550009F582E5833400F583E0FF9011ADE0FCDD
:10216500A3E0FD8D828C83EFF09011AFE0FEA3E03C
:10217500FF8F828E83E5822409F582E5833400F59D
:1021850083E0FF7E007F00EEFF7E009011ADE0FC56
:10219500A3E0FD8D828C83A3EFF09011B1E0FEA347
:1021A500E0FFAA06A9077B011286EC9011AFE0FEBD
:1021B500A3E0FF8F828E83E5822404F582E58334D4
:1021C50000F583E4F0229011A9E0FFEF64AA600313
:1021D5000223139011AFE0FEA3E0FF8F828E83E50B
:1021E500822408F582E5833400F583E0FF7E00EF65
:1021F5002401FFEE3400FE9011AFE0FCA3E0FD8D5D
:10220500828C83E5822407F582E5833400F583E03B
:10221500FD7C00C3EF9DEC6480F8EE648098401D62
:102225009011AFE0FEA3E0FF8F828E83E582240448
:10223500F582E5833400F583740BF080349011AF9B
:10224500E0FEA3E0FF8F828E83E5822406F582E51A
:10225500833400F583E0FF9011AFE0FCA3E0FD8D32
:10226500828C83E5822404F582E5833400F583EFCF
:10227500F09011AFE0FEA3E0FF8F828E83E582240C
:1022850006F582E5833400F583E0FFEF64086041DD
:102295009011AFE0FEA3E0FF8F828E83E5822406D6
:1022A500F582E5833400F583E0FFEF640660229054
:1022B50011AFE0FEA3E0FF8F828E83E5822406F551
:1022C50082E5833400F583E0FFEF640760030223B2
:1022D500539011AFE0FEA3E0FF8F828E83E5822449
:1022E50008F582E5833400F583E004F09011A9E058
:1022F500FF9011AFE0FCA3E0FD8D828C83E5822485
:102305000AF582E5833400F583E02FF080409011D3
:10231500A9E0FFEFB4331D9011AFE0FEA3E0FF8FFE
:10232500828E83E5822404F582E5833400F5837487
:1023350002F0801A9011AFE0FEA3E0FF8F828E833A
:10234500E5822404F582E5833400F583E4F09011F9
:0D235500AFE0FEA3E0FF8F828E83E004F076
:012362002258
:10AAAF0090143FEFF090143FE0FFEF70077B017AB7
:0BAABF000979BC227B017A0A79FD2294
:109C29007E007F627D007B017A0F798B121ABB7EE1
:109C3900007F037D007B017A0F7987121ABB7E0FA3
:109C49007F8C900FEFEEF0A3EFF0900F87E0FFEF1E
:109C590004FF7E00900FEDEEF0A3EFF0900F8AE481
:0D9C6900F0900FF1E4F075840043D101226A
:10722F00901440EFF0900FF1E0FFEFC3940A40216C
:10723F00900FF1E0FFEFC394145016901440E0FF4D
:10724F00EFB4020D901440E4F0900FF1741EF08033
:10725F0011900FF1E0FFEFC3940A5006900FF1E089
:10726F0004F0901440E0FFEF121A6272B90072CB73
:10727F0001728A02729C03000072E8127A87EF7023
:10728F00067F0312A2D5227F0212A2D52212A125B8
:10729F00EF6404600F7F0212A2D57DBE7C007FFFDA
:1072AF001273AB227F0312A2D52212837FEF7006D7
:1072BF007F0112A2D5227F0012A2D52212A125EFA3
:1072CF006404600F7F0212A2D57DBE7C007FFF1287
:0F72DF0073AB227F0112A2D5227F0212A2D52209
:107A870012AECBEFB401037F0222900F867404F08D
:107A970012AF39AE02AF019013BCEEF0A3EFF09036
:107AA70013BCE0FEA3E0FF8F828E837433F0901344
:107AB700BE7401F09013BEE0FFEFD39430502590D1
:107AC70013BEE0FF9013BCE0FCA3E0FD8D828C8326
:107AD700E5822FF582E43583F583E4F09013BEE069
:107AE70004F080D07F0112AD007D017F0012A5AFA9
:107AF70012A6E1C003C002C0017BFF7AA87960909B
:107B0700122AEBF0A3EAF0A3E9F0D001D002D003E8
:097B17007F317E0012884B7F00D3
:017B20002242
:10837F0012AECBEFB401037F0222900F867404F08C
:10838F0012AF39AE02AF01901404EEF0A3EFF090EC
:10839F001404E0FEA3E0FF8F828E837434F09014F8
:1083AF0004E0FEA3E0FF8F828E83A3E4F090140419
:1083BF00E0FEA3E0FF8F828E83A3A3E4F07F011280
:1083CF00AD007D017F0012A5AF7B017A0F7987C0C9
:1083DF0003C002C0017BFF7AA8796090122AEBF0EC
:1083EF00A3EAF0A3E9F0D001D002D0037F037E000F
:0583FF0012884B7F0015
:018404002255
:10A86000C0D075D018901441EFF0901441E0FFEF84
:10A870007008900F867401F08006900F867402F0C5
:03A88000D0D02213
:10A12500900F86E0FFEFB404037F04227D007F00DB
:10A1350012A5AF7F0012AD00900F8AE0FFEF75F01A
:10A1450031A4248CF582E4340FF583AF82AE83907D
:10A155000FEFEEF0A3EFF0120006900F86E0FF225E
:05A023009013BFEFF0F7
:10A0280053E6FE900FEFE0FEA3E0FF8F828E83C021
:10A0380083C0829013BFE0FFD082D08375F002EF17
:10A04800121A56E0FEA3E0FF9013C0EEF0A3EFF063
:0BA0580043E6019013C0E0FEA3E0FF10
:01A0630022DA
:1080D7009012D5EFF09012D6EDF09012D7EBF0A3F7
:1080E700EAF0A3E9F053E6FE9012D5E0FF7E009098
:1080F70012D6E0FD7C00C3ED9FFFEC9EFEEF24014E
:10810700FFEE3400FEEF25E0FFEE33FEC006C007AA
:108117009012D5E0FF7E02EF8EF0A4FFAEF0900F35
:10812700EFE0FCA3E0FDEF2DFFEE3CFEAA06A9075A
:108137007B01C003C002C0019012D7E0FBA3E0FAA5
:10814700A3E0F9A801AC02AD03D001D002D003D05F
:0A81570007D00612158743E6012247
:10A44F0090128FEBF0A3EAF0A3E9F0900F88E0FFF2
:10A45F0090128FE0FBA3E0FAA3E0F9EF12164890F9
:10A46F000F89E0FF901292E0FBA3E0FAA3E0F9EF6F
:04A47F001216482247
:10A6E100900F8AE0FFC374019FFF900F8AEFF090F3
:10A6F1000F8AE0FF7E31EF8EF0A4FFAEF0748B2F56
:08A70100F9740F3EFA7B0122FE
:0B87D70090123DEBF0A3EAF0A3E9F0E4
:1087E20090123DE0FBA3E0FAA3E0F9901240EBF017
:1087F200A3EAF0A3E9F0901240E0FBA3E0FAA3E0C1
:10880200F97582017583001215C6FF901243EFF0CD
:10881200901240E0FBA3E0FAA3E0F91215ADFF903D
:108822001240E0FBA3E0FAA3E0F975820175830030
:10883200EF12165A901243E0FF901240E0FBA3E0C1
:08884200FAA3E0F9EF12164859
:01884A00220B
:0B709B00901244EBF0A3EAF0A3E9F030
:1070A600901244E0FBA3E0FAA3E0F9901247EBF05C
:1070B600A3EAF0A3E9F0901247E0FBA3E0FAA3E00D
:1070C600F97582037583001215C6FF90124AEFF018
:1070D600901247E0FBA3E0FAA3E0F91215ADFF908A
:1070E6001247E0FBA3E0FAA3E0F97582037583007B
:1070F600EF12165A90124AE0FF901247E0FBA3E007
:10710600FAA3E0F9EF121648901247E0FBA3E0FA63
:10711600A3E0F97582027583001215C6FF90124A24
:10712600EFF0901247E0FBA3E0FAA3E0F9758201C5
:107136007583001215C6FF901247E0FBA3E0FAA381
:10714600E0F9758202758300EF12165A90124AE032
:10715600FF901247E0FBA3E0FAA3E0F97582017500
:067166008300EF12165A2F
:01716C002200
:0B6ED20090116EEBF0A3EAF0A3E9F0D2
:106EDD0090117474FF75F0FF1216F9AFF0FEEF4EBE
:106EED007003026FBA901174E0FEA3E0FFEF25E08E
:106EFD00FFEE33FE90116EE0FBA3E0FAA3E0F98FF5
:106F0D00828E8312173AFDACF0901174E0FEA3E06F
:106F1D00FFEF25E0FFEE33FE901171E0FBA3E0FAE9
:106F2D00A3E0F98F828E83EC8DF01217DE90117431
:106F3D00E0FEA3E0FFEF25E0FFEE33FE901171E0E0
:106F4D00FBA3E0FAA3E0F9E92FF9EA3EFA901176F6
:106F5D00EBF0A3EAF0A3E9F0901176E0FBA3E0FAE1
:106F6D00A3E0F97582017583001215C6FF901179A2
:106F7D00EFF0901176E0FBA3E0FAA3E0F91215AD66
:106F8D00FF901176E0FBA3E0FAA3E0F9758201759D
:106F9D008300EF12165A901179E0FF901176E0FB05
:0D6FAD00A3E0FAA3E0F9EF121648026EDD32
:016FBA0022B4
:0B562D0090117AEBF0A3EAF0A3E9F083
:1056380090118074FF75F0FF1216F9AFF0FEEF4E6F
:105648007003025789901180E0FEA3E0FFEF780213
:10565800C333CE33CED8F9FF90117AE0FBA3E0FA3A
:10566800A3E0F98F828E8312191DC004C005C006FD
:10567800C007901180E0FEA3E0FFEF7802C333CEAD
:1056880033CED8F9FF90117DE0FBA3E0FAA3E0F94F
:105698008F828E83D007D006D005D0041219679068
:1056A8001180E0FEA3E0FFEF7802C333CE33CED8FB
:1056B800F9FF90117DE0FBA3E0FAA3E0F9E92FF9E7
:1056C800EA3EFA901182EBF0A3EAF0A3E9F0901118
:1056D80082E0FBA3E0FAA3E0F97582037583001268
:1056E80015C6FF901185EFF0901182E0FBA3E0FA58
:1056F800A3E0F91215ADFF901182E0FBA3E0FAA335
:10570800E0F9758203758300EF12165A901185E04F
:10571800FF901182E0FBA3E0FAA3E0F9EF1216482C
:10572800901182E0FBA3E0FAA3E0F9758202758389
:10573800001215C6FF901185EFF0901182E0FBA3CF
:10574800E0FAA3E0F97582017583001215C6FF908F
:105758001182E0FBA3E0FAA3E0F9758202758300E9
:10576800EF12165A901185E0FF901182E0FBA3E03A
:10577800FAA3E0F9758201758300EF12165A0256F2
:0157880038E8
:0157890022FD
:10A9E500758400C2CAC2C953C8FE75CAFF75CBDBE0
:0EA9F50053C9E775CCFF75CDFFC2ADD2CA22A3
:10A5DD00758400C28C9011BBE4F0A3E4F09011B32C
:10A5ED00E4F0A3E4F09011B9E4F0A3E4F0438901A1
:0EA5FD00758AFF758CDB538EF4D2A9D28C22A6
:03000B00028CF86C
:108CF800C0E0C083C082C0D075D008C28D9011BCBE
:108D0800E004F070069011BBE004F09011BAE004A2
:108D1800F070069011B9E004F09011B9E0FEA3E0FC
:108D2800FFC3EF9464EE940040169011B9E4F0A3E9
:108D3800E4F09011B4E004F070069011B3E004F090
:0F8D4800758AFF758CDBD0D0D082D083D0E0321B
:10AB2F007584004389205389EF758DD0538EEF5371
:08AB3F008EF4D28E43884022FF
:10AAE40075840253C8FB75C90853C8FD53E7FB7549
:09AAF400CBFF75CAB843C8042267
:10A0640075840F758C67901406E4F0A3E4F09014E3
:10A0740006E0FEA3E0FFC3EE6480948150109014C8
:10A0840007E004F07006901406E004F080E04397C3
:10A0940001538A7F43A54043E34043E28075840033
:01A0A4002299
:08A78100901295EEF0A3EFF039
:10A789007B017A127997901295E0FCA3E0FD129E65
:0DA799003C7B017A12799712993BEF60F436
:01A7A6002290
:109E3C009012DAEBF0A3EAF0A3E9F09012DDECF06B
:109E4C00A3EDF012AA219012DAE0FBA3E0FAA3E052
:109E5C00F9EE8FF01217BF9012DDE0FEA3E0FF9039
:109E6C0012DAE0FBA3E0FAA3E0F975820275830035
:079E7C00EE8FF01217DE2249
:109E83009012DFEBF0A3EAF0A3E9F09012E2ECF01A
:109E9300A3EDF012AA3E9012DFE0FBA3E0FAA3E0E9
:109EA300F9EE8FF01217BF9012E2E0FEA3E0FF90ED
:109EB30012DFE0FBA3E0FAA3E0F9758202758300E9
:079EC300EE8FF01217DE2202
:0B993B009012E4EBF0A3EAF0A3E9F0C7
:1099460012AA219012E7EEF0A3EFF09012E4E0FBEA
:10995600A3E0FAA3E0F912170FFFAEF09012E7E0CA
:10996600FCA3E0FD128DB69012E4E0FBA3E0FAA39F
:10997600E0F975820275830012173AFDACF0C3EF69
:0A9986009DEE9C50037F00227F013C
:0199900022B4
:0B9991009012E9EBF0A3EAF0A3E9F06C
:10999C0012AA3E9012ECEEF0A3EFF09012E9E0FB6D
:1099AC00A3E0FAA3E0F912170FFFAEF09012ECE06F
:1099BC00FCA3E0FD128DB69012E9E0FBA3E0FAA344
:1099CC00E0F975820275830012173AFDACF0C3EF13
:0A99DC009DEE9C50037F00227F01E6
:0199E600225E
:10AA2100C2A99011BBE0FEA3E0FF901408EEF0A3D1
:0CAA3100EFF0D2A9901408E0FEA3E0FFB3
:01AA3D0022F6
:10AA3E00C2A99011B3E0FEA3E0FF90140AEEF0A3BA
:0CAA4E00EFF0D2A990140AE0FEA3E0FF94
:01AA5A0022D9
:108DB600901323EEF0A3EFF0901325ECF0A3EDF063
:108DC600901323E0FEA3E0FF901325E0FCA3E0FD53
:108DD600D3ED9FEC9E4018901323E0FEA3E0FF9096
:108DE6001325E0FCA3E0FDC3ED9FFFEC9EFE229061
:108DF6001323E0FEA3E0FFC3E49FFFE49EFE90136F
:0D8E060025E0FCA3E0FDEF2DFFEE3CFE2279
:10768A0075FFDE75FFAD12A06412A0A512A41B122D
:10769A00A5DD12AAFD12AB1612AEB312AEBF12AE20
:1076AA00A712AF4E129C2912A4EA12006E12AE9AC9
:1076BA0012A83D129B3B122F6712AB7512A7091233
:1076CA00A8C812789812AB8C12816112AA03123BD5
:1076DA009D1289A2125E8712AF47D2AF7BFF7A72E0
:1076EA00792F128AF59013C2EFF07BFF7A747966CC
:1076FA00128AF59013C3EFF07BFF7A6C79F5128A40
:10770A00F59013C4EFF09013C2E0FF7D0012A2239C
:10771A009013C3E0FF7D0012A2239013C4E0FF7D03
:10772A000012A2237D017F141253301258E480FB09
:01773A00222C
:0CAEB300C2A875840F43E34043E2042270
:0CAEBF00C2AA75840F43E34043E2102256
:03000300020009EF
:0100090032C4
:0300130002000ADE
:01000A0032C3
:06AF4000901442E004F051
:01AF460022E8
:03001B0002AD1023
:10AD1000C0E0C083C08212AF40D082D083D0E03286
:03002B0002AD2003
:10AD2000C0E0C083C08212AF40D082D083D0E03276
:0300430002AD30DB
:10AD3000C0E0C083C08212AF40D082D083D0E03266
:03004B0002AD40C3
:10AD4000C0E0C083C08212AF40D082D083D0E03256
:0300530002AD50AB
:10AD5000C0E0C083C08212AF40D082D083D0E03246
:03005B0002AD6093
:10AD6000C0E0C083C08212AF40D082D083D0E03236
:0300630002AD707B
:10AD7000C0E0C083C08212AF40D082D083D0E03226
:03006B0002AD8063
:10AD8000C0E0C083C08212AF40D082D083D0E03216
:0300830002AD903B
:10AD9000C0E0C083C08212AF40D082D083D0E03206
:03008B0002ADA023
:10ADA000C0E0C083C08212AF40D082D083D0E032F6
:0300930002ADB00B
:10ADB000C0E0C083C08212AF40D082D083D0E032E6
:03009B0002ADC0F3
:10ADC000C0E0C083C08212AF40D082D083D0E032D6
:0300AB0002ADD0D3
:10ADD000C0E0C083C08212AF40D082D083D0E032C6
:102F67007F0012AAAFAE02AF01900DEBEEF0A3EF18
:102F7700F07F0112AAAFAE02AF01900D61EEF0A390
:102F8700EFF0900DEBE0FEA3E0FFAA06A9077B0197
:102F9700128A85900D61E0FEA3E0FFAA06A9077BD0
:102FA70001128A857BFF7A9B798C128AF5900DEA4C
:102FB700EFF07BFF7A8C7995128AF5900DEDEFF0A3
:102FC700900DEDE0FF7D0012A2237BFF7A71796DF2
:102FD700128AF5900D8EEFF07BFF7A757921128AB0
:102FE700F5900D4DEFF0900D8EE0FF7D0012A223BE
:102FF700900D4DE0FF7D0012A2237BFF7A8E797042
:10300700128AF5900D3BEFF0900D80E4F0900D796A
:10301700E4F0900DA57401F0900D9EE4F0A3E4F0A8
:10302700900DCEE4F0A3E4F0900D8A7407F0A3743A
:1030370008F07BFF7A5A7910128AF5900DAAEFF003
:103047007BFF7A8F7924128AF5900DCBEFF07BFF07
:103057007A8F797E128AF5900D4CEFF07BFF7A8F8D
:1030670079D8128AF5900DB4EFF07BFF7A8E79CA82
:10307700128AF5900D5AEFF07BFF7A9579D2128A72
:10308700F5900D58EFF07BFF7A7B79BA128AF590AD
:103097000DE3EFF07BFF7A96792A128AF5900DA659
:1030A700EFF07BFF7A907932128AF5900D47EFF0B7
:1030B7007BFF7A90798C128AF5900DDEEFF07BFF1B
:1030C7007A7B7921128AF5900D78EFF07BFF7A8869
:1030D70079BE128AF5900D4FEFF07BFF7A9079E673
:1030E700128AF5900D55EFF07BFF7A917940128A9D
:1030F700F5900D3EEFF07BFF7A977989128AF5906C
:103107000D6BEFF07BFF7A967982128AF5900DC7E7
:10311700EFF07BFF7A827971128AF5900DD6EFF086
:103127007BFF7A91799A128AF5900D6EEFF07BFF0B
:103137007A9179F4128AF5900D89EFF07BFF7A7F07
:103147007932128AF5900D99EFF07BFF7A92794EDA
:10315700128AF5900D63EFF07BFF7A9279A8128AB5
:10316700F5900D7DEFF07BFF7A857981128AF590D6
:103177000D90EFF07BFF7A8C7932128AF5900D93E0
:10318700EFF07BFF7A68790D128AF5900DE4EFF086
:103197007BFF7A937902128AF5900DAEEFF07BFFF1
:1031A7007A9779E0128AF5900D5EEFF07BFF7A98B7
:1031B7007937128AF5900D4EEFF07BFF7A7779EA2F
:1031C700128AF5900D64EFF07BFF7A877962128A95
:1031D700F5900DC6EFF07BFF7A93795C128AF59034
:1031E7000D5BEFF07BFF7A9379B6128AF5900DB1FC
:1031F700EFF07BFF7A7C7952128AF5900D8FEFF012
:103207007BFF7A8279F8128AF5900D52EFF07BFFF7
:103217007A8B79CD128AF5900DA4EFF07BFF7A6453
:1032270079F6128AF5900D96EFF07BFF7A94791074
:10323700128AF5900DADEFF07BFF7A8D7957128AE0
:10324700F5900DCAEFF07BFF7A9679DA128AF5903E
:103257000DB9EFF07BFF7A94796A128AF5900DDD4C
:10326700EFF07BFF7A95791E128AF5900D7CEFF0CF
:103277007BFF7A9479C4128AF5900D75EFF07BFF86
:103287007A6B79FD128AF5900D59EFF0900D59E0A0
:10329700FF7D0012A2237BFF7A957978128AF59039
:0532A7000DA7EFF0226D
:056CF5009012EEEFF02B
:106CFA00900DEBE0FEA3E0FFAA06A9077B0112A014
:106D0A00E59012EFEEF0A3EFF09012EFE0FEA3E0B1
:106D1A00FFEF64FF7003EE64FF6047900DEBE0FE47
:106D2A00A3E0FFAA06A9077B019012EFE0FCA3E00B
:106D3A00FD1281EAAE02AF019012F1EEF0A3EFF07C
:106D4A009012F1E0FEA3E0FFAA06A9077B01120058
:106D5A00AE900DEBE0FEA3E0FFAA06A9077B0112A5
:106D6A008485900D61E0FEA3E0FFAA06A9077B01D6
:106D7A0012A0E59012EFEEF0A3EFF09012EFE0FE12
:106D8A00A3E0FFEF64FF7003EE64FF6047900D61BC
:106D9A00E0FEA3E0FFAA06A9077B019012EFE0FC40
:106DAA00A3E0FD1281EAAE02AF019012F1EEF0A368
:106DBA00EFF09012F1E0FEA3E0FFAA06A9077B011B
:106DCA00124FE3900D61E0FEA3E0FFAA06A9077B3C
:0C6DDA00011284859012EEE0FF12A2D599
:016DE600228A
:1066040090124BEBF0A3EAF0A3E9F090124EEDF0F8
:1066140090124BE0FBA3E0FAA3E0F91215ADFF7E64
:106624000090124FEEF0A3EFF090124FE0FCA3E0C5
:10663400FD90124BE0FBA3E0FAA3E0F9758201752B
:1066440083001215C6FF7E00EF7F00FEEC4EFEEDC8
:106654004FFF90124FEEF0A3EFF090124EE0FFEFD9
:10666400B404047F0180027F00901251EFF0901275
:106674004BE0FBA3E0FAA3E0F9E92405F9EA3400CE
:10668400FAC003C002C00190124FE0FEA3E0FFEF86
:1066940024FDFDEE34FFFC90124BE0FBA3E0FAA3D3
:1066A400E0F97582037583001215C6FF901131EF6E
:1066B400F090124BE0FBA3E0FAA3E0F975820275B7
:1066C40083001215C6FF901132EFF090124BE0FBDD
:1066D400A3E0FAA3E0F97582047583001215C6FFDE
:1066E400901133EFF09011347401F0901251E0FFE7
:1066F400901135EFF0D001D002D00312285FEF6083
:0467040003026672B4
:01670800226E
:0B00AE009011BDEBF0A3EAF0A3E9F015
:1000B9009011BDE0FBA3E0FAA3E0F9758202758314
:1000C900001215C6FF9011C2EFF09011BDE0FBA31D
:1000D900E0FAA3E0F97582037583001215C6FF9053
:1000E90011C3EFF09011BDE0FBA3E0FAA3E0F975AD
:1000F90082057583001215C6FF9011C0EFF09011AB
:10010900BDE0FBA3E0FAA3E0F97582047583001250
:1001190015C6FF9011C1EFF09011C3E0FFEFB404D1
:10012900149011BDE0FBA3E0FAA3E0F99011C3E03C
:10013900FD12660422900D797401F07B017A0D7924
:10014900487D707C17129E3C900DA5E4F07B017AE6
:100159000D79657DB87C0B129E3C9011C0E0FFEFD4
:10016900121A6201FA010A3E640A8D650B73660A66
:100179001F6704CF6804036A04616B04B06C0770DD
:100189006D07BF6E09406F099D700A0071021976EB
:10019900035E77032078050D7C055C7D07517E039E
:1001A9007D7F03A18003C5810BD0840D1F8804EED8
:1001B9008A0D708B033F8D0F248E0F908F0C0E903C
:1001C9000CA5910BEF92095F930DC195097E960ECF
:1001D9003B970277980B92990FAFA108CDA20FCE4A
:1001E900A310B3A40BB1A508F1A603E4FA0000110A
:1001F900599011C2E0FF900D56EFF09011C1E0FF48
:10020900900D57EFF0900DEAE0FF7D0012A2232236
:100219009011BDE0FBA3E0FAA3E0F9E92406F9EAAD
:100229003400FAAE02AF019011C4EEF0A3EFF090E2
:1002390011C2E0FF900DE8EFF09011C1E0FF900DC1
:10024900E9EFF09011C4E0FEA3E0FF8F828E83E016
:10025900FF9011C4E0FCA3E0FD8D828C83A3E0FD37
:0E026900125330900DCBE0FF7D0012A2232235
:100277009011BDE0FBA3E0FAA3E0F9E92406F9EA4F
:100287003400FAAE02AF019011C4EEF0A3EFF09084
:1002970011C2E0FF900D7EEFF09011C1E0FF900DCD
:1002A7007FEFF09011C4E0FEA3E0FFAA06A9077B49
:1002B700011287D79011C4E0FEA3E0FFEF2402FFED
:1002C700EE3400FEAA06A9077B011287D79011C456
:1002D700E0FEA3E0FF8F828E83E0FEA3E0FF901194
:1002E700C4E0FCA3E0FD8D828C83A3A3E0FCA3E024
:1002F700FD9011C4E0FAA3E0FB8B828A83E5822498
:1003070004F582E5833400F583E0FB128930900D14
:090317005AE0FF7D0012A223222E
:100320009011C2E0FF900D7AEFF09011C1E0FF90C4
:100330000D7BEFF0900D58E0FF7D0012A22322907C
:1003400011C2E0FF900D50EFF09011C1E0FF900D51
:1003500051EFF0900DE3E0FF7D0012A223229011F7
:10036000C2E0FF900DCCEFF09011C1E0FF900DCDF9
:10037000EFF0900DA6E0FF7D0012A223229011C2A3
:10038000E0FF900D69EFF09011C1E0FF900D6AEF72
:10039000F07F01128E13900D47E0FF7D0012A22323
:1003A000229011C2E0FF900D41EFF09011C1E0FFEB
:1003B000900D42EFF07F00128E13900DDEE0FF7D76
:1003C0000012A223229011C2E0FF900D9CEFF0904A
:1003D00011C1E0FF900D9DEFF0900D78E0FF7D00E2
:1003E00012A223229011C2E0FF900D71EFF0901144
:1003F000C1E0FF900D72EFF0900D4FE0FF7D001215
:03040000A2232212
:100403009011BDE0FBA3E0FAA3E0F9E92406F9EAC1
:100413003400FAAE02AF019011C4EEF0A3EFF090F6
:1004230011C2E0FF900D76EFF09011C1E0FF900D47
:1004330077EFF09011C4E0FEA3E0FF8F828E83E09C
:10044300FF9011C4E0FCA3E0FD8D828C83A3E0FD4B
:0E04530012A94B900D55E0FF7D0012A223224E
:100461009011BDE0FBA3E0FAA3E0F9E92406F9EA63
:100471003400FAAE02AF019011C4EEF0A3EFF09098
:1004810011C2E0FF900D5FEFF09011C1E0FF900D00
:1004910060EFF09011C4E0FEA3E0FF8F828E83E055
:0F04A100FF12A665900D3EE0FF7D0012A2232200
:1004B0009011C2E0FF900D97EFF09011C1E0FF9016
:1004C0000D98EFF0900D6BE0FF7D0012A2232290BB
:1004D00011C2E0FF900DE1EFF09011C1E0FF900D2F
:1004E000E2EFF0900DC7E0FF7D0012A223229011F1
:1004F000C2E0FF900D3CEFF09011C1E0FF900D3D88
:0D050000EFF0900DD6E0FF7D0012A2232247
:10050D009011BDE0FBA3E0FAA3E0F9E92406F9EAB6
:10051D003400FAAE02AF019011C4EEF0A3EFF090EB
:10052D0011C2E0FF900D9AEFF09011C1E0FF900D18
:10053D009BEFF09011C4E0FEA3E0FF8F828E83E06D
:0F054D00FF12A7CD900D6EE0FF7D0012A22322BA
:10055C009011BDE0FBA3E0FAA3E0F9E92406F9EA67
:10056C003400FAAE02AF019011C4EEF0A3EFF0909C
:10057C0011C2E0FF900DA8EFF09011C1E0FF900DBB
:10058C00A9EFF09011C4E0FEA3E0FFEF240CFFEE06
:10059C003400FEAA06A9077B011287D79011C4E08C
:1005AC00FEA3E0FFEF240EFFEE3400FEAA06A9071F
:1005BC007B011287D79011C4E0FEA3E0FFEF24105B
:1005CC00FFEE3400FEAA06A9077B011287D7901113
:1005DC00C4E0FEA3E0FFEF2412FFEE3400FEAA06F7
:1005EC00A9077B01C003C002C0019011C4E0FEA3A7
:1005FC00E0FFEF2412FFEE3400FEAA06A9077B01F0
:10060C00901171EBF0A3EAF0A3E9F0901174E4F00F
:10061C00A3740CF0D001D002D003126ED29011C48E
:10062C00E0FEA3E0FFEF242AFFEE3400FEAA06A9A9
:10063C00077B01C003C002C0019011C4E0FEA3E01F
:10064C00FFEF242AFFEE3400FEAA06A9077B0190D7
:10065C001171EBF0A3EAF0A3E9F0901174E4F0A3AC
:10066C00740CF0D001D002D003126ED29011C4E001
:10067C00FEA3E0FFEF2412FFEE3400FEAA06A9074A
:10068C007B01C003C002C0019011C4E0FEA3E0FFD7
:10069C00EF242AFFEE3400FEAA06A9077B01901175
:1006AC0062EBF0A3EAF0A3E9F09011C4E0FEA3E042
:1006BC00FF8F828E83E582240CF582E5833400F56E
:1006CC0083E0FEA3E0FF901165EEF0A3EFF0901134
:1006DC00C4E0FEA3E0FF8F828E83E582240EF582B8
:1006EC00E5833400F583E0FEA3E0FF901167EEF0A4
:1006FC00A3EFF09011C4E0FEA3E0FF8F828E83E5A0
:10070C00822410F582E5833400F583E0FEA3E0FF3C
:10071C00901169EEF0A3EFF09011C4E0FEA3E0FF9E
:10072C00AA06A9077B0190116BEBF0A3EAF0A3E9F1
:10073C00F0D001D002D003125B32900D89E0FF7D26
:05074C000012A22322AF
:100751009011C2E0FF900DC4EFF09011C1E0FF9045
:0F0761000DC5EFF0900D99E0FF7D0012A223224D
:100770009011BDE0FBA3E0FAA3E0F9E92406F9EA51
:100780003400FAAE02AF019011C4EEF0A3EFF09086
:1007900011C2E0FF900D91EFF09011C1E0FF900DBC
:1007A00092EFF09011C4E0FEA3E0FF8F828E83E011
:0F07B000FF12A483900D63E0FF7D0012A22322AD
:1007BF009011BDE0FBA3E0FAA3E0F9E92406F9EA02
:1007CF003400FAAE02AF019011C4EEF0A3EFF09037
:1007DF0011C2E0FF900DA2EFF09011C1E0FF900D5C
:1007EF00A3EFF09011C4E0FEA3E0FFAA06A9077BD8
:1007FF00011287D79011C4E0FEA3E0FFEF2402FFA0
:10080F00EE3400FEAA06A9077B011287D79011C408
:10081F00E0FEA3E0FFEF2406FFEE3400FEAA06A9D8
:10082F00077B011287D79011C4E0FEA3E0FF8F82F0
:10083F008E83E0FEA3E0FFC006C0079011C4E0FE68
:10084F00A3E0FF8F828E83A3A3E0FCA3E0FD9011B2
:10085F00C4E0FEA3E0FF8F828E83E5822404F5823D
:10086F00E5833400F583E0FB9011C4E0FEA3E0FFC5
:10087F008F828E83E5822405F582E5833400F5832C
:10088F00E0FF9012C4EFF0D007D006129DF2901146
:10089F00C4E0FEA3E0FF8F828E83E5822406F582FB
:1008AF00E5833400F583E0FEA3E0FF900D8AEEF0C0
:0E08BF00A3EFF0900D7DE0FF7D0012A223223A
:1008CD009011C2E0FF900D6CEFF09011C1E0FF9020
:1008DD000D6DEFF07F0012AE20900D4CE0FF7D000E
:0408ED0012A223220E
:1008F1009011BDE0FBA3E0FAA3E0F9E92406F9EACF
:100901003400FAAE02AF019011C4EEF0A3EFF09003
:1009110011C4E0FEA3E0FF8F828E83E0FF12ADE001
:100921009011C2E0FF900DD9EFF09011C1E0FF905E
:0F0931000DDAEFF0900DB4E0FF7D0012A223224B
:100940009011C2E0FF900DAFEFF09011C1E0FF9069
:100950000DB0EFF0900D90E0FF7D0012A2232290E9
:1009600011C2E0FF900DB2EFF09011C1E0FF900DC9
:10097000B3EFF0900D93E0FF7D0012A223229011BF
:10098000C2E0FF900D53EFF09011C1E0FF900D54C5
:0D099000EFF0900DE4E0FF7D0012A22322A5
:10099D009011BDE0FBA3E0FAA3E0F9E92406F9EA22
:1009AD003400FAAE02AF019011C4EEF0A3EFF09057
:1009BD0011C2E0FF900DD4EFF09011C1E0FF900D4A
:1009CD00D5EFF09011C4E0FEA3E0FFAA06A9077BC6
:1009DD00011287D79011C4E0FEA3E0FF8F828E83B2
:1009ED00E0FEA3E0FF12A29C900DAEE0FF7D001291
:0309FD00A2232210
:100A00009011C2E0FF900D8CEFF09011C1E0FF90CB
:100A10000D8DEFF0900D5EE0FF7D0012A22322907D
:100A200011C2E0FF900D6FEFF09011C1E0FF900D4B
:0E0A300070EFF0900D4EE0FF7D0012A2232229
:100A3E009011BDE0FBA3E0FAA3E0F9E92406F9EA80
:100A4E003400FAAE02AF019011C4EEF0A3EFF090B5
:100A5E0011C4E0FEA3E0FF8F828E83E0FF129DA7FC
:100A6E009011C2E0FF900D85EFF09011C1E0FF9064
:0F0A7E000D86EFF0900D5BE0FF7D0012A22322AA
:100A8D009011BDE0FBA3E0FAA3E0F9E92406F9EA31
:100A9D003400FAAE02AF019011C4EEF0A3EFF09066
:100AAD0011C4E0FEA3E0FFAA06A9077B011287D7B8
:100ABD009011C4E0FEA3E0FFEF2403FFEE3400FE2F
:100ACD00AA06A9077B011287D79011C4E0FEA3E007
:100ADD00FFEF2405FFEE3400FEAA06A9077B0112E5
:100AED0087D79011C4E0FEA3E0FF8F828E83E0FED6
:100AFD00A3E0FFC006C0079011C4E0FEA3E0FF8F86
:100B0D00828E83A3A3E0FD9011C4E0FEA3E0FF8FCE
:100B1D00828E83A3A3A3E0FAA3E0FB9011C4E0FEB1
:100B2D00A3E0FF8F828E83E5822405F582E5833471
:100B3D0000F583E0FEA3E0FF90126CEEF0A3EFF062
:100B4D00D007D0061263E79011C2E0FF900DD7EFEA
:100B5D00F09011C1E0FF900DD8EFF0900DB1E0FFD6
:060B6D007D0012A223220C
:100B73009011C2E0FF900DABEFF09011C1E0FF9038
:100B83000DACEFF0900D8FE0FF7D0012A2232290B9
:100B930011C2E0FF900D73EFF09011C1E0FF900DD3
:100BA30074EFF0900D52E0FF7D0012A2232290110A
:100BB300C2E0FF900DC8EFF09011C1E0FF900DC9A6
:100BC300EFF0900DA4E0FF7D0012A223229011C24A
:100BD300E0FF900D94EFF09011C1E0FF900D95EFC1
:100BE300F0900D64E0FF7D0012A223229011C2E079
:100BF300FF900DDFEFF09011C1E0FF900DE0EFF0FB
:0B0C0300900DC6E0FF7D0012A223222E
:100C0E009011BDE0FBA3E0FAA3E0F9E92406F9EAAE
:100C1E003400FAAE02AF019011C4EEF0A3EFF090E3
:100C2E0011C6E4F09011C2E0FF900DBAEFF09011F2
:100C3E00C1E0FF900DBBEFF09011C4E0FEA3E0FF0A
:100C4E008F828E83E0FF900DBCEFF09011C4E0FE1A
:100C5E00A3E0FF8F828E83A3E0FF900DBDEFF09097
:100C6E000DBE7401F0900D96E0FF12AA5B9011C6B6
:100C7E00EFF09011C6E0FFEF64027003021159907D
:100C8E0011C6E0FFEF64037003021159900D96E058
:070C9E00FF7D0012A22322DA
:100CA5009011BDE0FBA3E0FAA3E0F9E92406F9EA17
:100CB5003400FAAE02AF019011C4EEF0A3EFF0904C
:100CC50011C2E0FF900DD2EFF09011C1E0FF900D41
:100CD500D3EFF09011C4E0FEA3E0FFEF2401FFEE97
:100CE5003400FEAA06A9077B011287D79011C4E03C
:100CF500FEA3E0FF8F828E83E0FF9011C4E0FCA38A
:100D0500E0FD8D828C83A3E0FCA3E0FD12A3B090EF
:0A0D15000DADE0FF7D0012A22322C5
:100D1F009011C474C8F09011C57488F09011C6E496
:100D2F00F07B017A1179C49011C2E0FF901131EF7D
:100D3F00F09011327403F09011C1E0FF901133EF76
:100D4F00F09011347401F0901135E4F07D037C00C4
:100D5F0012285FEF70CB7F0F7E0012A78175EF0215
:010D6F002261
:100D70009011BDE0FBA3E0FAA3E0F9E92406F9EA4B
:100D80003400FAAE02AF019011C4EEF0A3EFF09080
:100D900011C2E0FF900D5CEFF09011C1E0FF900DEB
:100DA0005DEFF09011C4E0FEA3E0FF8F828E83E040
:100DB000FF900D80EFF0900D3BE0FF7D0012A2232D
:010DC0002210
:100DC1009011BDE0FBA3E0FAA3E0F9E92406F9EAFA
:100DD1003400FAAE02AF019011C4EEF0A3EFF0902F
:100DE10011C2E0FF900D3FEFF09011C1E0FF900DB7
:100DF10040EFF09011C4E0FEA3E0FFEF2401FFEE0D
:100E01003400FEAA06A9077B011287D79011C4E01E
:100E1100FEA3E0FF8F828E83E0FF9011C4E0FCA36C
:100E2100E0FD8D828C83A3E0FCA3E0FD12A6399046
:0A0E31000DDDE0FF7D0012A2232278
:100E3B009011BDE0FBA3E0FAA3E0F9E92406F9EA7F
:100E4B003400FAAE02AF019011C4EEF0A3EFF090B4
:100E5B0011C2E0FF900DA0EFF09011C1E0FF900DDB
:100E6B00A1EFF09011C4E0FEA3E0FFEF2401FFEE31
:100E7B003400FEAA06A9077B011287D79011C4E0A4
:100E8B00FEA3E0FFEF2403FFEE3400FEAA06A90742
:100E9B007B011287D79011C4E0FEA3E0FFEF24057E
:100EAB00FFEE3400FEAA06A9077B011287D790112B
:100EBB00C4E0FEA3E0FF8F828E83E0FFC00790119A
:100ECB00C4E0FEA3E0FF8F828E83A3E0FCA3E0FDD2
:100EDB009011C4E0FEA3E0FF8F828E83A3A3A3E057
:100EEB00FAA3E0FB9011C4E0FEA3E0FF8F828E8398
:100EFB00E5822405F582E5833400F583E0FEA3E06B
:100F0B00FF901265EEF0A3EFF0D0071275D7900D9E
:090F1B007CE0FF7D0012A22322FC
:100F24009011BDE0FBA3E0FAA3E0F9E92406F9EA95
:100F34003400FAAE02AF019011C4EEF0A3EFF090CA
:100F440011C6E4F09011C2E0FF900DE5EFF09011AE
:100F5400C1E0FF900DE6EFF09011C4E0FEA3E0FFC6
:100F6400AA06A9077B01126B059011C6EFF0901138
:100F7400C6E0FFEF60047F0080027F01900DE7EF81
:0C0F8400F0900DCAE0FF7D0012A22322B5
:100F90009011C2E0FF900DDBEFF09011C1E0FF90E7
:100FA0000DDCEFF0900DB9E0FF7D0012A22322903E
:100FB00011C2E0FF900DD0EFF09011C1E0FF900D55
:0E0FC000D1EFF0900DAAE0FF7D0012A22322D7
:100FCE009011BDE0FBA3E0FAA3E0F9E92406F9EAEB
:100FDE003400FAAE02AF019011C4EEF0A3EFF09020
:100FEE0011C4E0FEA3E0FFEF2403FFEE3400FEAADF
:100FFE0006A9077B011287D79011C4E0FEA3E0FF7C
:10100E00EF2405FFEE3400FEAA06A9077B01128726
:10101E00D79011C2E0FF900D87EFF09011C1E0FF65
:10102E00900D88EFF09011C4E0FEA3E0FF8F828E4A
:10103E0083E0FFC0079011C4E0FEA3E0FF8F828E15
:10104E0083A3E0FD9011C4E0FEA3E0FF8F828E83A8
:10105E00A3A3E0FB9011C4E0FEA3E0FF8F828E837A
:10106E00A3A3A3E0FEA3E0FF90121FEEF0A3EFF008
:10107E009011C4E0FEA3E0FF8F828E83E5822405EB
:10108E00F582E5833400F583E0FEA3E0FF901221A4
:10109E00EEF0A3EFF0D007126FBB900D75E0FF7D61
:0510AE000012A2232244
:1010B3009011BDE0FBA3E0FAA3E0F9E92406F9EA05
:1010C3003400FAAE02AF019011C4EEF0A3EFF0903A
:1010D30011C2E0FF900DB5EFF09011C1E0FF900D4C
:1010E300B6EFF09011C4E0FEA3E0FF8F828E83E0A1
:1010F300FF900DB7EFF09011C4E0FEA3E0FF8F82E5
:101103008E83A3E0FF900DB8EFF0900DB8E0FFEFF2
:10111300121A62112301112F02113B030000114F18
:10112300900DB7E0FD7F0A1253308020900DB7E099
:10113300FD7F0D1253308014900DB7E0FD7F0A122E
:101143005330900DB7E0FD7F0D125330900DA7E0A3
:06115300FF7D0012A22343
:011159002273
:0B4FE300901201EBF0A3EAF0A3E9F04C
:104FEE00901201E0FBA3E0FAA3E0F975820275834B
:104FFE00001215C6FF901206EFF0901201E0FBA30F
:10500E00E0FAA3E0F97582037583001215C6FF90CE
:10501E001207EFF0901201E0FBA3E0FAA3E0F9759E
:10502E0082057583001215C6FF901204EFF09012E0
:10503E0001E0FBA3E0FAA3E0F97582047583001288
:10504E0015C6FF901205EFF0901207E0FFEFB401C6
:10505E0014901201E0FBA3E0FAA3E0F9901207E02E
:10506E00FD12660422901204E0FFEF121A6250DC69
:0B507E00CA5127CC5089D80000519681
:10508900901201E0FBA3E0FAA3E0F9E92406F9EAAA
:105099003400FAAE02AF01901208EEF0A3EFF090DF
:1050A9001208E0FEA3E0FFEF2401FFEE3400FEAAA0
:1050B90006A9077B011287D7901208E0FEA3E0FF3B
:1050C9008F828E83A3E0FEA3E0FF900D9EEEF0A3F6
:0350D900EFF022D3
:1050DC00901201E0FBA3E0FAA3E0F9E92406F9EA57
:1050EC003400FAAE02AF01901208EEF0A3EFF0908C
:1050FC001208E0FEA3E0FF8F828E83E0FF9012087F
:10510C00E0FCA3E0FD8D828C83E5822404F582E52E
:0B511C00833400F583E0FD12A96A2235
:10512700901201E0FBA3E0FAA3E0F9E92406F9EA0B
:105137003400FAAE02AF01901208EEF0A3EFF09040
:105147001208E0FEA3E0FFAA06A9077B01C003C07F
:1051570002C001901208E0FEA3E0FFAA06A9077BA0
:1051670001901171EBF0A3EAF0A3E9F0901174E458
:10517700F0A3740CF0D001D002D003126ED29012BB
:0F51870008E0FEA3E0FFAA06A9077B011299E743
:0151960022F6
:059B8C0090140CEFF045
:109B910090140D7401F07B017A14790D900D56E04B
:109BA100FF901131EFF09011327403F0900D57E0F6
:109BB100FF901133EFF09011347401F0901135E4FE
:109BC100F07D017C0012285FEF70067FFF12A2601A
:099BD1002290140CE0FF12A2D551
:019BDA002268
:058E7000901327EFF054
:108E750090132874C8F0901329748BF090132AE48A
:108E8500F07B017A137928900D5CE0FF901131EFAA
:108E9500F09011327403F0900D5DE0FF901133EF07
:108EA500F09011347401F0901135E4F07D037C00ED
:108EB50012285FEF70067FFF12A26022901327E051
:048EC500FF12A2D521
:018EC9002286
:058ECA0090132BEFF0F6
:108ECF0090132C74C8F090132D7498F090132EE417
:108EDF00F07B017A13792C900D7EE0FF901131EF2A
:108EEF00F09011327403F0900D7FE0FF901133EF8B
:108EFF00F09011347401F0901135E4F07D037C0093
:108F0F0012285FEF70067FFF12A2602290132BE0F2
:048F1F00FF12A2D5C6
:018F2300222B
:058F240090132FEFF097
:108F290090133074C8F09013317476F0901332E4D2
:108F3900F07B017A137930900DE8E0FF901131EF61
:108F4900F09011327403F0900DE9E0FF901133EFC6
:108F5900F09011347401F0901135E4F07D037C0038
:108F690012285FEF70067FFF12A2602290132FE094
:048F7900FF12A2D56C
:018F7D0022D1
:058F7E00901333EFF039
:108F830090133474C8F090133574A2F0901336E440
:108F9300F07B017A137934900D6CE0FF901131EF7F
:108FA300F09011327403F0900D6DE0FF901133EFE8
:108FB300F09011347401F0901135E4F07D037C00DE
:108FC30012285FEF70067FFF12A26022901333E036
:048FD300FF12A2D512
:018FD7002277
:058FD800901337EFF0DB
:108FDD0090133874C8F090133974A6F090133AE4D6
:108FED00F07B017A137938900DD9E0FF901131EFB4
:108FFD00F09011327403F0900DDAE0FF901133EF21
:10900D00F09011347401F0901135E4F07D037C0083
:10901D0012285FEF70067FFF12A26022901337E0D7
:04902D00FF12A2D5B7
:01903100221C
:0595D20090129BEFF078
:1095D70090129C74DAF07B017A12799D12690C7BE8
:1095E700017A12799C900D7AE0FF901131EFF0909B
:1095F70011327403F0900D7BE0FF901133EFF09080
:1096070011347401F0901135E4F07D057C001228C7
:109617005FEF70067FFF12A2602290129BE0FF129D
:02962700A2D5CA
:01962900221E
:057BBA0090103CEFF00B
:107BBF0090103D74EFF07B017A10793E7D087F00C5
:107BCF001284057B017A10794E7D177F001280D7C2
:107BDF007B017A10793EC003C002C0017B017A108D
:107BEF00793E901171EBF0A3EAF0A3E9F0901174D4
:107BFF00E4F0A37420F0D001D002D003126ED27B38
:107C0F00017A10793D900D50E0FF901131EFF09017
:107C1F0011327403F0900D51E0FF901133EFF0909B
:107C2F0011347401F0901135E4F07D417C0012287D
:107C3F005FEF70067FFF12A2602290103CE0FF12F0
:027C4F00A2D5BC
:017C51002210
:05962A009011C7EFF0F4
:10962F009011C874D9F07B017A1179C912A3447BC8
:10963F00017A1179C8900DCCE0FF901131EFF090C5
:10964F0011327403F0900DCDE0FF901133EFF090D5
:10965F0011347401F0901135E4F07D097C0012286B
:10966F005FEF70067FFF12A260229011C7E0FF121A
:02967F00A2D572
:0196810022C6
:0590320090133BEFF07C
:1090370090133C74C8F090133D747FF090133EE496
:10904700F07B017A13793C900D69E0FF901131EFC5
:10905700F09011327403F0900D6AE0FF901133EF36
:10906700F09011347401F0901135E4F07D037C0029
:1090770012285FEF70067FFF12A2602290133BE079
:04908700FF12A2D55D
:01908B0022C2
:05908C0090133FEFF01E
:1090910090134074C8F09013417480F0901342E42F
:1090A100F07B017A137940900D41E0FF901131EF8F
:1090B100F09011327403F0900D42E0FF901133EF04
:1090C100F09011347401F0901135E4F07D037C00CF
:1090D10012285FEF70067FFF12A2602290133FE01B
:0490E100FF12A2D503
:0190E5002268
:057B21009012F3EFF0EB
:107B26009012F574DFF09012F4E4F09012F4E0FF96
:107B3600EFC39401503A9012F4E0FF12AB5E90123C
:107B4600F4E0FE74F62EF582E43412F583EFF0903D
:107B560012F4E0FF12AB479012F4E0FE74F72EF534
:107B660082E43412F583EFF09012F4E004F080BB67
:107B76007B017A1279F5900D9CE0FF901131EFF0C0
:107B86009011327403F0900D9DE0FF901133EFF0E9
:107B96009011347401F0901135E4F07D037C0012ED
:107BA600285FEF70067FFF12A260229012F3E0FFBB
:037BB60012A2D543
:017BB90022A9
:0588BE009012A1EFF093
:1088C3009012A2E4F09012A374FBF07F061242868A
:1088D3009012A4EFF07F071242869012A5EFF07F6B
:1088E300051242869012A6EFF07B017A1279A390CB
:1088F3000D71E0FF901131EFF09011327403F0909D
:108903000D72E0FF901133EFF09011347401F09089
:108913001135E4F07D047C0012285FEF70067FFFC1
:0C89230012A260229012A1E0FF12A2D567
:01892F002225
:0590E600901343EFF0C0
:1090EB0090134474C8F0901345746AF0901346E4DF
:1090FB00F07B017A137944900D76E0FF901131EFFC
:10910B00F09011327403F0900D77E0FF901133EF74
:10911B00F09011347401F0901135E4F07D037C0074
:10912B0012285FEF70067FFF12A26022901343E0BC
:04913B00FF12A2D5A8
:01913F00220D
:05914000901347EFF061
:1091450090134874C8F0901349746BF090134AE477
:10915500F07B017A137948900D5FE0FF901131EFB4
:10916500F09011327403F0900D60E0FF901133EF31
:10917500F09011347401F0901135E4F07D037C001A
:1091850012285FEF70067FFF12A26022901347E05E
:04919500FF12A2D54E
:0191990022B3
:059789009013C5EFF094
:10978E009013C674CFF012AF679013C7EFF07B0142
:10979E007A1379C6900D97E0FF901131EFF090118A
:1097AE00327403F0900D98E0FF901133EFF09011AA
:1097BE00347401F0901135E4F07D027C0012285FC4
:1097CE00EF70067FFF12A260229013C5E0FF12A277
:0197DE00D5B5
:0197DF002267
:059682009010F1EFF073
:109687009010F274EBF07B017A1079F3129D0F7B47
:10969700017A1079F2900DE1E0FF901131EFF0902F
:1096A70011327403F0900DE2E0FF901133EFF09068
:1096B70011347401F0901135E4F07D137C00122809
:1096C7005FEF70067FFF12A260229010F1E0FF1299
:0296D700A2D51A
:0196D900226E
:05827100900FF2EFF098
:10827600900FF374ECF07B017A0F79F412578A7B36
:10828600017A0F79F4C003C002C0017B017A0F792D
:10829600F490117DEBF0A3EAF0A3E9F0901180E4ED
:1082A600F0A37412F0D001D002D00312562D7B0138
:1082B6007A0F79F3900D3CE0FF901131EFF09011B9
:1082C600327403F0900D3DE0FF901133EFF0901102
:1082D600347401F0901135E4F07D497C0012285F7A
:1082E600EF70067FFF12A26022900FF2E0FF12A24B
:0182F600D5B2
:0182F7002264
:05919A0090134BEFF003
:10919F0090134C74C8F090134D747CF090134EE400
:1091AF00F07B017A13794C900D9AE0FF901131EF1B
:1091BF00F09011327403F0900D9BE0FF901133EF9C
:1091CF00F09011347401F0901135E4F07D037C00C0
:1091DF0012285FEF70067FFF12A2602290134BE000
:0491EF00FF12A2D5F4
:0191F3002259
:0591F40090134FEFF0A5
:1091F90090135074C8F0901351747DF0901352E499
:10920900F07B017A137950900DA8E0FF901131EFAE
:10921900F09011327403F0900DA9E0FF901133EF33
:10922900F09011347401F0901135E4F07D037C0065
:1092390012285FEF70067FFF12A2602290134FE0A1
:04924900FF12A2D599
:01924D0022FE
:057F32009010A8EFF023
:107F37009010A974DDF012AF739010AAEFF07B01D7
:107F47007A1079AB129A3D786976007869E6FFEF87
:107F5700C3940C501F7869E6FF7E02EF8EF0A4FFF2
:107F6700AEF074AB2FF974103EFA7B011287D77805
:107F7700690680D77B017A1079A9900DC4E0FF903C
:107F87001131EFF09011327403F0900DC5E0FF90BE
:107F97001133EFF09011347401F0901135E4F07D56
:107FA7001A7C0012285FEF70067FFF12A2602290F2
:077FB70010A8E0FF12A2D5A3
:017FBE0022A0
:05924E00901353EFF046
:1092530090135474C8F0901355746DF0901356E442
:10926300F07B017A137954900D91E0FF901131EF67
:10927300F09011327403F0900D92E0FF901133EFF0
:10928300F09011347401F0901135E4F07D037C000B
:1092930012285FEF70067FFF12A26022901353E043
:0492A300FF12A2D53F
:0192A70022A4
:0592A800901357EFF0E8
:1092AD0090135874C8F0901359746EF090135AE4DB
:1092BD00F07B017A137958900DA2E0FF901131EFF8
:1092CD00F09011327403F0900DA3E0FF901133EF85
:1092DD00F09011347401F0901135E4F07D037C00B1
:1092ED0012285FEF70067FFF12A26022901357E0E5
:0492FD00FF12A2D5E5
:019301002249
:058581009012A7EFF0CD
:108586009012ACE4F09012A874D0F012AF5B901287
:10859600A9EFF012A7A79012AAEFF012A8EA90127C
:1085A600ABEFF09012ABE0FFEF60069012ACE00488
:1085B600F07B017A1279A8900DAFE0FF901131EFB0
:1085C600F09011327403F0900DB0E0FF901133EF8C
:1085D600F09011347401F0901135E4F07D047C00C4
:1085E60012285FEF70067FFF12A260229012A7E0AA
:0485F600FF12A2D5F9
:0185FA00225E
:058C320090135BEFF060
:108C370090135C74F2F012AE5090135DEEF0A3EF58
:108C4700F07B017A13795D1287D77B017A13795C00
:108C5700900DB2E0FF901131EFF09011327403F0F4
:108C6700900DB3E0FF901133EFF09011347401F0E1
:108C7700901135E4F07D037C0012285FEF70067FCA
:0D8C8700FF12A2602290135BE0FF12A2D545
:018C940022BD
:05680D009010C3EFF044
:106812009010C474F4F012AE509010C5EEF0A3EFD5
:10682200F07B017A1079C51287D712AE5F9010C73C
:10683200EEF0A3EFF07B017A1079C71287D712AE80
:10684200F39010C9EEF0A3EFF07B017A1079C91230
:1068520087D712AEFC9010CBEEF0A3EFF07B017A5B
:106862001079CB1287D712AF059010CDEEF0A3EFBF
:10687200F07B017A1079CD1287D712AF0E9010CF2C
:10688200EEF0A3EFF07B017A1079CF1287D712AE28
:106892006E9010D11219DB7B017A1079D112709BA4
:1068A20012AE7D9010D51219DB7B017A1079D512C8
:1068B200709B12AF179010D9EEF0A3EFF07B017A24
:1068C2001079D91287D77B017A1079C4900D53E0E1
:1068D200FF901131EFF09011327403F0900D54E0FB
:1068E200FF901133EFF09011347401F0901135E400
:1068F200F07D177C0012285FEF70067FFF12A26006
:09690200229010C3E0FF12A2D59F
:01690B002269
:0593020090135FEFF085
:1093070090136074C8F09013617470F0901362E466
:10931700F07B017A137960900DD4E0FF901131EF63
:10932700F09011327403F0900DD5E0FF901133EFF8
:10933700F09011347401F0901135E4F07D037C0056
:1093470012285FEF70067FFF12A2602290135FE082
:04935700FF12A2D58A
:01935B0022EF
:0597E0009013C8EFF03A
:1097E5009013C974D3F012AF6D9013CAEFF07B01DB
:1097F5007A1379C9900D8CE0FF901131EFF090113B
:10980500327403F0900D8DE0FF901133EFF090115D
:10981500347401F0901135E4F07D027C0012285F6C
:10982500EF70067FFF12A260229013C8E0FF12A21C
:01983500D55D
:01983600220F
:059837009013CBEFF0DF
:10983C009013CC74E8F012AF859013CDEFF07B0150
:10984C007A1379CC900D6FE0FF901131EFF09011FD
:10985C00327403F0900D70E0FF901133EFF0901123
:10986C00347401F0901135E4F07D027C0012285F15
:10987C00EF70067FFF12A260229013CBE0FF12A2C2
:01988C00D506
:01988D0022B8
:0577EA00901186EFF094
:1077EF0090118774E5F0901188741FF090118974CF
:1077FF000AF0786376007863E6FFEFC39404504590
:10780F007863E6FD7F0A129C767864A6077864E6B3
:10781F00FFEF5401FF7863E6FE748A2EF582E4349D
:10782F0011F583EFF07864E6FFEF131313541FFF86
:10783F007863E6FE748E2EF582E43411F583EFF053
:10784F0078630680B17B017A117987900D94E0FF00
:10785F00901131EFF09011327403F0900D95E0FF1D
:10786F00901133EFF09011347401F0901135E4F072
:10787F007D0B7C0012285FEF70067FFF12A2602243
:08788F00901186E0FF12A2D562
:0178970022CE
:05876200901363EFF02D
:1087670090136474F1F07B017A137965C003C0023A
:10877700C0017B017A137966901292EBF0A3EAF0BD
:10878700A3E9F0D001D002D00312A44F7B017A13E2
:108797007964900DDFE0FF901131EFF090113274A2
:1087A70003F0900DE0E0FF901133EFF09011347477
:1087B70001F0901135E4F07D037C0012285FEF7023
:0F87C700067FFF12A26022901363E0FF12A2D57B
:0187D6002280
:05935C00901367EFF023
:1093610090136874C8F09013697464F090136AE400
:10937100F07B017A137968900D85E0FF901131EF50
:10938100F09011327403F0900D86E0FF901133EFED
:10939100F09011347401F0901135E4F07D037C00FC
:1093A10012285FEF70067FFF12A26022901367E020
:0493B100FF12A2D530
:0193B5002295
:0593B60090136BEFF0C5
:1093BB0090136C74C8F090136D7465F090136EE499
:1093CB00F07B017A13796C900DD7E0FF901131EFA0
:1093DB00F09011327403F0900DD8E0FF901133EF41
:1093EB00F09011347401F0901135E4F07D037C00A2
:1093FB0012285FEF70067FFF12A2602290136BE0C2
:04940B00FF12A2D5D5
:01940F00223A
:057C5200901252EFF05A
:107C57007B017A127954C003C002C0017B017A12FA
:107C67007956901216EBF0A3EAF0A3E9F07B017ABC
:107C7700127958901219EBF0A3EAF0A3E9F0D001BA
:107C8700D002D003129A9390125374C9F07B017AF1
:107C97001279541287D77B017A1279561287D77BCC
:107CA700017A127953900DABE0FF901131EFF0900C
:107CB70011327403F0900DACE0FF901133EFF090A8
:107CC70011347401F0901135E4F07D067C00122820
:107CD7005FEF70067FFF12A26022901252E0FF1240
:027CE700A2D524
:017CE9002278
:0582F8009012ADEFF053
:1082FD007B017A1279AFC003C002C0017B017A12F3
:10830D0079B19012B6EBF0A3EAF0A3E9F0D001D069
:10831D0002D00312A1E59012AE74F5F07B017A1232
:10832D0079AF1287D77B017A1279B11287D77B018A
:10833D007A1279AE900D73E0FF901131EFF090113C
:10834D00327403F0900D74E0FF901133EFF0901143
:10835D00347401F0901135E4F07D057C0012285F36
:10836D00EF70067FFF12A260229012ADE0FF12A205
:01837D00D52A
:01837E0022DC
:058BCD0090136FEFF0B2
:108BD20090137074FCF07F1412A023901371EEF0C6
:108BE200A3EFF07B017A1379711287D77B017A1395
:108BF2007970900DC8E0FF901131EFF0901132744E
:108C020003F0900DC9E0FF901133EFF0901134742E
:108C120001F0901135E4F07D037C0012285FEF70C3
:0F8C2200067FFF12A2602290136FE0FF12A2D50F
:018C31002220
:0564F600901373EFF0AC
:1064FB00901373E0FFEF121A626514006554016587
:10650B00870265A803000065FE900DBEE0FFEFB4A7
:10651B000112900DBF7401F0900DBEE4F07D007F71
:10652B0010125330900DBCE0FFEF6017900DBDE0E3
:10653B00FF1285FBEF70067F0112A2D5227F00129E
:10654B00A2D5227F0312A2D52212AA93EFB403067F
:10655B007F0112A2D522900DBFE0FFEF600B7F03EE
:10656B0012A2D5900DBFE4F0227B017A0D79C07D8C
:10657B00647C00129E3C7F0212A2D5227B017A0D15
:10658B0079C012993BEF7009900DBEE0FFEFB4019B
:0D659B00067F0012A2D5227F0212A2D52297
:1065A800900DBCE0FD7F1012533090137474C8F046
:1065B8009013757490F0901376E4F07B017A137958
:1065C80074900DBAE0FF901131EFF090113274031E
:1065D800F0900DBBE0FF901133EFF090113474018F
:1065E800F0901135E4F07D037C0012285FEF600B1A
:0665F8007F0312A2D52270
:0565FE007F0012A2D590
:016603002274
:05716D00901443EFF057
:10717200901443E0FFEF121A6271850071B20100B0
:1071820000722E7F19129F9BEF70087F1A129F9B2D
:10719200EF60177B017A0D7981900D8AE0FCA3E004
:1071A200FD129E837F0112A2D5227F0012A2D52258
:1071B2007F19129F9BEF70087F1A129F9BEF6067E7
:1071C200900DCEE0FEA3E0FF900D9EE0FCA3E0FD5B
:1071D200C3ED9FFFEC9EFE12A51CC3EF9405EE9437
:1071E20000502E7B017A0D7981129991EF601C7DFE
:1071F200007F1A1253307D007F191253307F011223
:10720200AE2012AF317F0012A2D5227F0112A2D589
:1072120022900D9EE0FEA3E0FF900DCEEEF0A3EFD4
:0C722200F07F0012A2D5227F0012A2D53E
:01722E00223D
:057521009013CEEFF015
:107526009013CEE0FFEF121A62753C007558017594
:10753600BF02000075D67F19129F9BEF70087F1A55
:10754600129F9BEF60067F0112A2D5227F0012A236
:10755600D5227F19129F9BEF70087F1A129F9BEF0F
:1075660060519013CF7499F09013D07480F07B0122
:107576007A1379CF9011317404F09011327403F0BC
:10758600901133E4F0901134E4F09011357401F069
:107596007D027C0012285FEF70137B017A0D794320
:1075A6007D647C00129E3C7F0212A2D5227F0112CE
:1075B600A2D5227F0012A2D5227B017A0D79431231
:1075C600993BEF60067F0012A2D5227F0212A2D558
:0175D6002292
:05941000901377EFF05E
:1094150090137874C8F09013797491F090137AE4EE
:10942500F07B017A137978900DD2E0FF901131EF3E
:10943500F09011327403F0900DD3E0FF901133EFEB
:10944500F09011347401F0901135E4F07D037C0047
:1094550012285FEF70067FFF12A26022901377E05B
:04946500FF12A2D57B
:0194690022E0
:058D570090137BEFF01A
:108D5C0090137C74C8F090137D748EF0900DE7E046
:108D6C00FF90137EEFF07B017A13797C900DE5E098
:108D7C00FF901131EFF09011327403F0900DE6E09A
:108D8C00FF901133EFF09011347401F0901135E431
:108D9C00F07D037C0012285FEF70067FFF12A2604B
:098DAC002290137BE0FF12A2D516
:018DB500229B
:0596DA009011D1EFF03A
:1096DF009011D274F0F07B017A1179D3129D5B7BDC
:1096EF00017A1179D2900DDBE0FF901131EFF090FC
:1096FF0011327403F0900DDCE0FF901133EFF09016
:10970F0011347401F0901135E4F07D097C001228BA
:10971F005FEF70067FFF12A260229011D1E0FF125F
:02972F00A2D5C1
:019731002215
:05946A0090137FEFF0FC
:10946F0090138074C8F09013817495F0901382E478
:10947F00F07B017A137980900D3FE0FF901131EF6F
:10948F00F09011327403F0900D40E0FF901133EF24
:10949F00F09011347401F0901135E4F07D037C00ED
:1094AF0012285FEF70067FFF12A2602290137FE0F9
:0494BF00FF12A2D521
:0194C3002286
:0594C400901383EFF09E
:1094C90090138474C8F090138574A3F0901386E404
:1094D900F07B017A137984900D87E0FF901131EFC9
:1094E900F09011327403F0900D88E0FF901133EF82
:1094F900F09011347401F0901135E4F07D037C0093
:1095090012285FEF70067FFF12A26022901383E09A
:04951900FF12A2D5C6
:01951D00222B
:05951E00901387EFF03F
:1095230090138874C8F09013897497F090138AE4A9
:10953300F07B017A137988900DA0E0FF901131EF51
:10954300F09011327403F0900DA1E0FF901133EF0E
:10955300F09011347401F0901135E4F07D037C0038
:1095630012285FEF70067FFF12A26022901387E03C
:04957300FF12A2D56C
:0195770022D1
:0595780090138BEFF0E1
:10957D0090138C74C8F090138D74A4F090138EE436
:10958D00F07B017A13798C900DB5E0FF901131EFDE
:10959D00F09011327403F0900DB6E0FF901133EF9F
:1095AD00F09011347401F0901135E4F07D037C00DE
:1095BD0012285FEF70067FFF12A2602290138BE0DE
:0495CD00FF12A2D512
:0195D1002277
:108C9500901444EFF0901444E4F07F0012A2D57DC7
:108CA500F47C017FFF1273AB900D80E0FFEF704203
:108CB500900D79E0FFEF7001227B017A0D79651245
:108CC500993BEF6006900DA57401F07B017A0D7953
:108CD5004812993BEF601B7D007F1A1253307D00CF
