:09AEEA000001020304050607083B
:10A4EA0075840075BA0075BC18901110E4F075BB3C
:10A4FA000075D1077E007F127D007B017A117911E8
:10A50A00121ABB75E80C12A9E543E88043E702D2A8
:02A51A00AF226E
:03007B00027D8281
:107D8200C0E0C0F0C083C082C0D075D00853E7FD08
:107D9200C2EDAFBF7E00901110E0FDED25E0241191
:107DA200F582E43411F583EEF0A3EFF0901110E0C8
:107DB200FFEF25E02411F582E43411F583C083C07E
:107DC20082E0FEA3E0FFEF7F00FED082D083EEF0E0
:107DD200A3EFF0901110E0FFEF25E02411F582E40B
:107DE2003411F583C083C082E0FEA3E0FFADBE7C08
:107DF20000EE4CFEEF4DFFD082D083EEF0A3EFF009
:107E020012A7F343E702D0D0D082D083D0F0D0E0E3
:017E1200323D
:108405009012C2EFF09012C3EDF09012C4EBF0A3FE
:10841500EAF0A3E9F053E7FD9012C2E0FF7E009079
:1084250012C3E0FD7C00C3ED9FFFEC9EFEEF24012F
:10843500FFEE3400FEEF25E0FFEE33FEC006C00779
:108445009012C2E0FF7E02EF8EF0A4FFAEF0741131
:108455002FF974113EFA7B01C003C002C0019012CE
:10846500C4E0FBA3E0FAA3E0F9A801AC02AD03D098
:1084750001D002D003D007D00612158743E70222A8
:10A7F300C0D075D008901110E004FFF0EFB4090544
:10A80300901110E4F0901110E0FFEF90AEEA93FF87
:05A813008FBBD0D02234
:085F9E00450F77000402060123
:10A83D00C200C201758400759A4075F809759DFFB7
:10A84D0075840F43A60743E10243E34043F60143FA
:03A85D00E60122EF
:10884B0090121CEEF0A3EFF090121EEBF0A3EAF0E7
:10885B00A3E9F075840053E6FE90121EE0FBA3E043
:10886B00FAA3E0F9AE02AF01900F11EEF0A3EFF017
:10887B0090121CE0FEA3E0FF900F10EFF09012217E
:10888B00E0FBA3E0FAA3E0F9900F0DEBF0A3EAF005
:10889B00A3E9F0900F0CE4F0900F0CE0FF04F074E0
:1088AB00132FF582E4340FF583E0FF8F9B43E60132
:0388BB007F002219
:030033000262D88E
:1062D800C0E0C0F0C083C082C0D075D01820FF03D2
:1062E800026387C2FF30010375A0FD900F0CE0FF29
:1062F8007E00EF24FFFFEE34FFFE900F11E0FCA3B9
:10630800E0FD8D828C83E5822FF582E5833EF5835F
:10631800E59BF0900F10E0FF900F0CE0FEEEC39F9E
:10632800503730011B900F7CE4F0900F7CE0FFEFBA
:10633800C394145008900F7CE004F080ED75A0F829
:10634800900F0CE0FF04F074132FF582E4340FF57E
:1063580083E0FF8F9B807D8026900F10E0FF900FD9
:106368000CE0FEEEB51F18900F0DE0FBA3E0FAA3BA
:10637800E0F989828A837F007E00121A8C8055306A
:10638800FE1AC2FE900F0DE0FBA3E0FAA3E0F98924
:10639800828A837F027E00121A8C803830FD1AC2EE
:1063A800FD900F0DE0FBA3E0FAA3E0F989828A8350
:1063B8007F037E00121A8C801B30FC18C2FC900FE1
:1063C8000DE0FBA3E0FAA3E0F989828A837F047ECB
:0F63D80000121A8CD0D0D082D083D0F0D0E03217
:0BAECB003000037F0122D2007F002234
:03000600C2002213
:10A5AF009013F5EFF09013F6EDF09013F6E0FFEF48
:10A5BF00B401179013F5E0FF74772FF582E4340F91
:0EA5CF00F583E0FFEF44F8F5A02275A0FD2211
:07AF39007B017A0F7913225E
:10AD000090142BEFF090142BE0FFEF24FF92012220
:10A0A500A2AF9204C2AF75840043911043910F751E
:10A0B500985012AAE4C299C298D2ACD2BCA204921A
:10A0C500AF75840F43E10443E340900000E4F09052
:0FA0D5000101E4F0900102E4F090010374FFF048
:01A0E4002259
:10A41B0053E7BF7584017598105398FC43F74012AE
:10A42B00AB2F75840F43E30443E3409001A7E4F0A3
:10A43B009002A8E4F09002A9E4F09002AA74FFF055
:04A44B0043E7402281
:03002300027EA4B6
:0D7EA400C0E0C0F0C083C082C0D075D01017
:107EB100C2ACE59130E70353917FE59130E603537E
:107EC10091BF309816C29890142CE599F07B017AF5
:107ED10001790490142CE0FD1261C6309946C299D3
:107EE100900102E0FF900101E0FEEE6F6031900130
:107EF10002E0FF74012FF582E43400F583E0FF8F87
:107F010099900102E0FF7E00EF2401FFEE3400FEB4
:107F11007E00900102EFF0900103E004F0800590F3
:067F21000000E4F0D2AC08
:0B7F2700D0D0D082D083D0F0D0E03268
:0300A300028504CF
:10850400C0E0C0F0C083C082C0D075D01053E7BFB4
:10851400E59830E00E5398FE7B017A0279ABAD9971
:108524001261C6E59830E1475398FD9002A9E0FF37
:108534009002A8E0FEEE6F60319002A9E0FF74A8FB
:108544002FF582E43401F583E0FF8F999002A9E0CE
:10855400FF7E00EF2401FFEE3400FE7E009002A9AE
:10856400EFF09002AAE004F080059001A7E4F04344
:0D857400E740D0D0D082D083D0F0D0E032EC
:1097320090127AEBF0A3EAF0A3E9F090127DEDF03B
:1097420090127EE0FFEF701890127AE0FBA3E0FA2D
:10975200A3E0F990127DE0FD1248A290127FEFF093
:1097620090127EE0FFEFB4011890127AE0FBA3E0C2
:10977200FAA3E0F990127DE0FD124A7990127FEF90
:06978200F090127FE0FFF1
:0197880022BE
:1048A2009011E6EBF0A3EAF0A3E9F09011E9EDF044
:1048B2007B017A0079009011ECEBF0A3EAF0A3E916
:1048C200F07584009011ECE0FBA3E0FAA3E0F97527
:1048D20082037583011215C6FF9011E9E0FEEFC352
:1048E2009E50037F01229011EAE4F09011E9E0FF6B
:1048F2009011EAE0FEEEC39F40030249B9A2ACE484
:1049020033FF9011EBEFF0C2AC9011E6E0FBA3E0B5
:10491200FAA3E0F99011EAE0FF8F82758300121585
:10492200C6FF9011ECE0FBA3E0FAA3E0F975820167
:104932007583011215C6FEEEFD7C009011ECE0FBC2
:10494200A3E0FAA3E0F9E92401F9EA3400FAE92D37
:10495200F9EA3CFAEF1216489011ECE0FBA3E0FAF8
:10496200A3E0F97582017583011215C6FF7E00EF7F
:104972002401FFEE3400FE7E009011ECE0FBA3E088
:10498200FAA3E0F9758201758301EF12165A9011AC
:10499200ECE0FBA3E0FAA3E0F975820375830174EE
:1049A200FF1216159011EBE0FFEF24FF92AC90116D
:1049B200EAE004F00248EDA2ACE433FF9011EBEF21
:1049C200F0C2AC9011ECE0FBA3E0FAA3E0F91215FF
:1049D200ADFFEF6003024A6C9011ECE0FBA3E0FA3A
:1049E200A3E0F974011216489011ECE0FBA3E0FA7F
:1049F200A3E0F97582027583011215C6FF7E00904D
:104A020011ECE0FBA3E0FAA3E0F9E92401F9EA34AE
:104A120000FAE92FF9EA3EFA1215ADFF8F999011CB
:104A2200ECE0FBA3E0FAA3E0F975820275830112C0
:104A320015C6FF7E00EF2401FFEE3400FE7E0090DB
:104A420011ECE0FBA3E0FAA3E0F9758202758301A1
:104A5200EF12165A9011ECE0FBA3E0FAA3E0F9750D
:104A6200820375830174011216159011EBE0FFEFBA
:064A720024FF92AC7F005E
:014A7800221B
:104A79009011EFEBF0A3EAF0A3E9F09011F2EDF059
:104A89007B017A0179A79011F5EBF0A3EAF0A3E98C
:104A9900F07584019011F5E0FBA3E0FAA3E0F97544
:104AA90082037583011215C6FF9011F2E0FEEFC370
:104AB9009E50037F01229011F3E4F09011F2E0FF80
:104AC9009011F3E0FEEEC39F4003024B8FE5E754DC
:104AD90040FF9011F4EFF053E7BF9011EFE0FBA313
:104AE900E0FAA3E0F99011F3E0FF8F8275830012D9
:104AF90015C6FF9011F5E0FBA3E0FAA3E0F9758272
:104B0900017583011215C6FEEEFD7C009011F5E0DA
:104B1900FBA3E0FAA3E0F9E92401F9EA3400FAE990
:104B29002DF9EA3CFAEF1216489011F5E0FBA3E0E3
:104B3900FAA3E0F97582017583011215C6FF7E009B
:104B4900EF2401FFEE3400FE7E009011F5E0FBA397
:104B5900E0FAA3E0F9758201758301EF12165A9004
:104B690011F5E0FBA3E0FAA3E0F97582037583016F
:104B790074FF1216159011F4E0FFEF42E79011F35C
:104B8900E004F0024AC4E5E75440FF9011F4EFF065
:104B990053E7BF9011F5E0FBA3E0FAA3E0F9121582
:104BA900ADFFEF6003024C439011F5E0FBA3E0FA7F
:104BB900A3E0F974011216489011F5E0FBA3E0FA9D
:104BC900A3E0F97582027583011215C6FF7E009074
:104BD90011F5E0FBA3E0FAA3E0F9E92401F9EA34CD
:104BE90000FAE92FF9EA3EFA1215ADFF8F999011F3
:104BF900F5E0FBA3E0FAA3E0F975820275830112DF
:104C090015C6FF7E00EF2401FFEE3400FE7E009002
:104C190011F5E0FBA3E0FAA3E0F9758202758301BF
:104C2900EF12165A9011F5E0FBA3E0FAA3E0F9752B
:104C3900820375830174011216159011F4E0FFEFD8
:044C490042E77F00BF
:014C4D002244
:10A9C70090142DEFF090142DE0FF7E007C017DA701
:0EA9D70012167C74042FF974013EFA7B0122E3
:10ACCA00A2ACE433FF90142EEFF0C2AC90142EE045
:01ACDA00FF7A
:01ACDB002256
:10ACA400E5E75440FF90142FEFF053E7BF90142FC3
:02ACB400E0FFBF
:01ACB600227B
:10ACDC00A2ACE433FF901430EFF0D2AC901430E01F
:01ACEC00FF68
:01ACED002244
:10ACB700E5E75440FF901431EFF043E7409014313B
:02ACC700E0FFAC
:01ACC9002268
:0CAEA70090064BE4F090064C74FFF02283
:0B8AF500901312EBF0A3EAF0A3E9F0ED
:108B000090064BE0FFEFC3945540037FFF22900691
:108B10004BE0FF901315EFF0901312E0FBA3E0FA87
:108B2000A3E0F9901315E0FF75F009EFA4244EF5CA
:108B300082E5F03403F583EBF0A3EAF0A3E9F090CB
:108B40001315E0FF75F009EFA42452F582E5F03427
:108B500003F583E4F090064BE004F0901315E0FF7A
:018B600022F2
:10A223009013F7EFF09013F8EDF09013F7E0FF754C
:10A23300F009EFA42452F582E5F03403F5837402A8
:10A24300F09013F8E0FF9013F7E0FE75F009EEA429
:0DA253002451F582E5F03403F583EFF0228D
:10A26000901432EFF0901432E0FFEFB4FF17900635
:10A270004CE0FF75F009EFA42452F582E5F03403B9
:10A28000F583E4F022901432E0FF75F009EFA42486
:0CA2900052F582E5F03403F583E4F0227F
:10A2D500901433EFF0901433E0FF90064CE0FE75D8
:10A2E500F009EEA42451F582E5F03403F583EFF08F
:10A2F50090064CE0FF75F009EFA42452F582E5F0D5
:08A305003403F5837402F02219
:1073AB0090139EEFF090139FECF0A3EDF090139ED3
:1073BB00E0FFEF64FF705290064CE0FF75F009EFB1
:1073CB00A42452F582E5F03403F5837403F09006A0
:1073DB004CE0FF7E09EF8EF0A4FFAEF074532FF953
:1073EB0074033EFA7B01C003C002C00190139FE0FF
:1073FB00FEA3E0FF7C007D0A12168EAC06AD07D013
:10740B0001D002D003129E3C2290139EE0FF75F038
:10741B0009EFA42452F582E5F03403F5837403F0ED
:10742B0090139EE0FF7E09EF8EF0A4FFAEF0745335
:10743B002FF974033EFA7B01C003C002C001901305
:10744B009FE0FEA3E0FF7C007D0A12168EAC06AD1A
:0B745B0007D001D002D003129E3C229B
:1058E400901434E4F090064BE0FF901434E0FEEEA4
:1058F400C39F4003025A0F90064BE0FF90064CE012
:1059040004FEF0EEB5070590064CE4F090064CE07A
:10591400FF75F009EFA42452F582E5F03403F58312
:10592400E0FFEF6402705190064CE0FF75F009EF60
:10593400A42452F582E5F03403F5837401F0900653
:105944004CE0FF75F009EFA42451F582E5F034032F
:10595400F583E0FF90064CE0FE75F009EEA4244EBA
:10596400F582E5F03403F583E0FBA3E0FAA3E0F964
:1059740089828A83121A8C2290064CE0FF75F00902
:10598400EFA42452F582E5F03403F583E0FFEF64DD
:1059940003706F90064CE0FF7E09EF8EF0A4FFAE1B
:1059A400F074532FF974033EFA7B0112993BEF60B4
:1059B4005190064CE0FF75F009EFA42452F582E5FE
:1059C400F03403F5837401F090064CE0FF75F009A0
:1059D400EFA42451F582E5F03403F583E0FF90064B
:1059E4004CE0FE75F009EEA4244EF582E5F0340394
:1059F400F583E0FBA3E0FAA3E0F989828A83121A13
:0B5A04008C22901434E004F00258E9FA
:015A0F002274
:10AA5B00901435EFF0901435E0FF75F009EFA42456
:0CAA6B0052F582E5F03403F583E0FF2291
:10773B009013A1EBF0A3EAF0A3E9F09013A1E0FB07
:10774B00A3E0FAA3E0F97582037583007495121612
:10775B005A9013A1E0FBA3E0FAA3E0F9758201753F
:10776B008300E412165A9013A1E0FBA3E0FAA3E006
:10777B00F9758202758300E412165A9013A1E0FB8F
:10778B00A3E0FAA3E0F9758205758300E412165A9B
:10779B009013A1E0FBA3E0FAA3E0F97582047583D3
:1077AB0000E412165A9013A1E0FBA3E0FAA3E0F950
:1077BB00E41216489013A1E0FBA3E0FAA3E0F975DD
:1077CB00820A758300E412165A9013A1E0FBA3E022
:0F77DB00FAA3E0F975820B758300E412165A22A7
:1061C600C0D075D010901316EBF0A3EAF0A3E9F057
:1061D600901319EDF0901316E0FBA3E0FAA3E0F993
:1061E6007582027583001215C6FF901316E0FBA395
:1061F600E0FAA3E0F97582017583001215C6FEEE7A
:10620600B5171D901316E0FBA3E0FAA3E0F975821B
:10621600057583001215C6FFEF60057F030262D580
:10622600901319E0FF901316E0FBA3E0FAA3E0F940
:106236007582017583001215C6FEEEFD7C00901373
:1062460016E0FBA3E0FAA3E0F9E9240DF9EA34002D
:10625600FAE92DF9EA3CFAEF121648901316E0FB1C
:10626600A3E0FAA3E0F97582037583001215C6FF51
:10627600901316E0FBA3E0FAA3E0F975820175839B
:10628600001215C6FEEEC39F5018901316E0FBA32E
:10629600E0FAA3E0F9758201758300740112161500
:1062A6008015901316E0FBA3E0FAA3E0F9758201CE
:1062B600758300E412165A901316E0FBA3E0FAA3C6
:1062C600E0F975820575830074011216157F01D0F9
:0262D600D022D4
:0B60B300901224EBF0A3EAF0A3E9F048
:1060BE00901224E0FBA3E0FAA3E0F9758205758344
:1060CE00001215C6FFEF70067F03220261C3901205
:1060DE002AE0FFEF700A12ACCA90122BEFF0800884
:1060EE0012ACA490122BEFF0901224E0FBA3E0FA76
:1060FE00A3E0F97582027583001215C6FF7E00902B
:10610E001224E0FBA3E0FAA3E0F9E9240DF9EA3446
:10611E0000FAE92FF9EA3EFA1215ADFF901227E0C8
:10612E00FBA3E0FAA3E0F9EF121648901224E0FB6D
:10613E00A3E0FAA3E0F97582037583001215C6FF7A
:10614E00901224E0FBA3E0FAA3E0F97582027583B6
:10615E00001215C6FEEEC39F5018901224E0FBA34A
:10616E00E0FAA3E0F9758202758300740112161528
:10617E008015901224E0FBA3E0FAA3E0F9758202E9
:10618E00758300E412165A901224E0FBA3E0FAA3E2
:10619E00E0F975820575830074FF12161590122BA7
:1061AE00E0FFEF601090122AE0FFEF700512ACDCFA
:0761BE00800312ACB77F0162
:0161C50022B7
:108A85009013A4EBF0A3EAF0A3E9F09013A4E0FBA4
:108A9500A3E0FAA3E0F97582037583007402121648
:108AA5005A9013A4E0FBA3E0FAA3E0F975820275DE
:108AB5008300E412165A9013A4E0FBA3E0FAA3E0A6
:108AC500F9758201758300E412165A9013A4E0FB30
:108AD500A3E0FAA3E0F9758204758300E412165A3F
:108AE5009013A4E0FBA3E0FAA3E0F9E412164822F0
:1098E5009013A7EBF0A3EAF0A3E9F09013A7E0FB30
:1098F500A3E0FAA3E0F97582037583001215C6FF8C
:109905009013A7E0FBA3E0FAA3E0F9758204758341
:10991500001215C6FEEEB507057EFF7FFF229013E8
:10992500A7E0FBA3E0FAA3E0F975820275830012B4
:0699350015C6FF7E0022B2
:1081EA009012C7EBF0A3EAF0A3E9F09012CAECF000
:1081FA00A3EDF09012C7E0FBA3E0FAA3E0F97582C1
:10820A00037583001215C6FF7E00EF24FFFFEE34CC
:10821A00FFFE9012CAE0FCA3E0FDD3ED9FEE64805E
:10822A00F8EC64809850109012CAE0FEA3E0FFC3F5
:10823A00EE6480948050077B007A007900229012C5
:10824A00C7E0FBA3E0FAA3E0F9E92406F9EA34005F
:10825A00FA9012CAE0FEA3E0FF7C007D4B12167C66
:07826A00E92FF9EA3EFA22B8
:1086EC009013AAEBF0A3EAF0A3E9F09013AAE0FB35
:1086FC00A3E0FAA3E0F97582037583001215C6FF97
:10870C009013AAE0FBA3E0FAA3E0F975820275834B
:10871C00007401121615FEEEB507159013AAE0FBB6
:10872C00A3E0FAA3E0F9758202758300E412165AED
:10873C009013AAE0FBA3E0FAA3E0F9E41216489028
:10874C0013AAE0FBA3E0FAA3E0F975820475830099
:06875C0074011216152243
:10A0E5009013ADEBF0A3EAF0A3E9F09013ADE0FB1C
:10A0F500A3E0FAA3E0F97582047583001215C6FF83
:10A10500EF70057EFF7FFF229013ADE0FBA3E0FA21
:10A11500A3E0F97582017583001215C6FF7E002242
:108485009013B0EBF0A3EAF0A3E9F09013B0E0FB92
:10849500A3E0FAA3E0F97582047583001215C6FFFF
:1084A500EF605B9013B0E0FBA3E0FAA3E0F97582FF
:1084B500037583001215C6FF9013B0E0FBA3E0FA25
:1084C500A3E0F97582017583007401121615FEEE9D
:1084D500B507159013B0E0FBA3E0FAA3E0F97582A8
:1084E50001758300E412165A9013B0E0FBA3E0FA7D
:0F84F500A3E0F975820475830074FF1216152237
:107E1300901280EBF0A3EAF0A3E9F0901283ECF068
:107E2300A3EDF0901280E0FBA3E0FAA3E0F91215B2
:107E3300ADFFEFC3944B5068901285E0FFC00790ED
:107E43001280E0FBA3E0FAA3E0F9E92406F9EA349F
:107E530000FA901283E0FEA3E0FF7C007D4B121634
:107E63007CE92FF9EA3EFAC003C002C001901280F8
:107E7300E0FBA3E0FAA3E0F91215ADFF7E00D00109
:107E8300D002D003E92FF9EA3EFAD007EF121648E1
:107E9300901280E0FBA3E0FAA3E0F974011215F35A
:017EA30022BC
:109B3B0090090E7497F090090F7497F07F0012A99B
:109B4B00C7AE02AF01900AF2EEF0A3EFF07F011265
:109B5B00A9C7AE02AF01900B90EEF0A3EFF0900A05
:109B6B00F2E0FEA3E0FFAA06A9077B0112773B9068
:109B7B000B90E0FEA3E0FFAA06A9077B0112773B3F
:019B8B0022B7
:10285F00901123EBF0A3EAF0A3E9F0901126ECF02E
:03286F00A3EDF0E6
:1028720090112FE4F0901128E0FFEFB4010B900DBE
:102882009CE0FFEF60037F002290112CE0FFEF70CD
:102892001F7E097F10901131EEF0A3EFF07B017AD9
:1028A20009790E901133EBF0A3EAF0A3E9F0801D51
:1028B2007E0A7F4F901131EEF0A3EFF07B017A098F
:1028C200790F901133EBF0A3EAF0A3E9F090112B0A
:1028D200E0FFEF600C90112AE0FF901130EFF080E2
:1028E20014901133E0FBA3E0FAA3E0F91215ADFF57
:1028F200901130EFF0901126E0FEA3E0FFD3EF94A9
:102902004BEE940040037F0122901131E0FEA3E0E0
:10291200FF8F828E837455F0901131E0FEA3E0FFA9
:102922008F828E83A37433F090112D7406F0901170
:1029320029E0FF90112DE0FE04F0901131E0FCA39C
:10294200E0FD8D828C83E5822EF582E43583F5836A
:10295200EFF0901129E0FFEFB4552090112DE0FF28
:1029620004F0901131E0FCA3E0FD8D828C83E582BE
:102972002FF582E43583F58374AAF0901128E0FFE5
:1029820090112DE0FE04F0901131E0FCA3E0FD8DEA
:10299200828C83E5822EF582E43583F583EFF09015
:1029A2001128E0FFEFB4552090112DE0FF04F090C4
:1029B2001131E0FCA3E0FD8D828C83E5822FF5824C
:1029C200E43583F58374AAF0901130E0FF90112D65
:1029D200E0FE04F0901131E0FCA3E0FD8D828C83D7
:1029E200E5822EF582E43583F583EFF0901130E035
:1029F200FFEFB4552090112DE0FF04F0901131E06B
:102A0200FCA3E0FD8D828C83E5822FF582E4358381
:102A1200F58374AAF090112BE0FFEF70249011332C
:102A2200E0FBA3E0FAA3E0F974011215F3FFEF70E3
:102A320010901133E0FBA3E0FAA3E0F974971216A9
:102A42004890112EE4F090112EE0FF7E00901126A6
:102A5200E0FCA3E0FDC3EF9DEE9C4003022ADF9061
:102A62001123E0FBA3E0FAA3E0F990112EE0FF8F1F
:102A7200827583001215C6FF90112DE0FE04F090BE
:102A82001131E0FCA3E0FD8D828C83E5822EF5827C
:102A9200E43583F583EFF0901123E0FBA3E0FAA382
:102AA200E0F990112EE0FF8F827583001215C6FFA8
:102AB200EFB4552090112DE0FF04F0901131E0FCAD
:102AC200A3E0FD8D828C83E5822FF582E43583F5C8
:102AD2008374AAF090112EE004F0022A4890112D7E
:102AE200E0FFEF24FAFFEF54FFFF901131E0FCA367
:102AF200E0FD8D828C83A3A3EFF0901131E0FEA361
:102B0200E0FF8F828E83A3A3A3E4F090112DE0FF58
:102B12007E00EF24FAFFEE34FFFE7F00EEFF7E0020
:102B2200901131E0FCA3E0FD8D828C83E5822404C8
:102B3200F582E5833400F583EFF0901131E0FEA3D6
:102B4200E0FF8F828E83E5822405F582E5833400DF
:102B5200F583E4F090112E7406F090112DE0FF90B1
:102B6200112EE0FEEEC39F502B90112EE0FF90112C
:102B720031E0FCA3E0FD8D828C83E5822FF582E4B7
:102B82003583F583E0FF90112FE02FF090112EE0B6
:102B920004F080C690112FE0FF90112DE0FE04F0AA
:102BA200901131E0FCA3E0FD8D828C83E5822EF54D
:102BB20082E43583F583EFF0901131E0FEA3E0FF6C
:102BC200AA06A9077B0190112DE0FD90112CE0FFD0
:102BD200EF70047F0080027F0190127EEFF0129767
:092BE20032EF60037F02227F0044
:012BEB0022C7
:057466009013F9EFF0A6
:10746B007B017A0979B31298E5EF64FF7003EE6440
:10747B00FF6043900AF2E0FEA3E0FFAA06A9077B98
:10748B0001C003C002C0017B017A1379FA90122765
:10749B00EBF0A3EAF0A3E9F090122AE4F0D001D0CC
:1074AB0002D0031260B3EFB4010C9013FAE0FF7D2E
:1074BB0000121B9B80BD7B017A0A79F41298E5EFD1
:1074CB0064FF7003EE64FF6044900B90E0FEA3E05A
:1074DB00FFAA06A9077B01C003C002C0017B017A8A
:1074EB001379FA901227EBF0A3EAF0A3E9F09012CC
:1074FB002A7401F0D001D002D0031260B3EFB401B3
:10750B000C9013FAE0FF7D01121B9B80BC9013F9CA
:05751B00E0FF12A2D503
:017520002248
:0A1B9B009011A0EFF09011A1EDF001
:101BA5009011A1E0FFEF701E900AF2E0FEA3E0FFA6
:101BB5009011A6EEF0A3EFF07E097FB39011A8EE89
:101BC500F0A3EFF0801C900B90E0FEA3E0FF9011D6
:101BD500A6EEF0A3EFF07E0A7FF49011A8EEF0A335
:101BE500EFF09011A8E0FEA3E0FFAA06A9077B018C
:101BF5001298E59011A2EEF0A3EFF09011A2E0FE8D
:101C0500A3E0FFEF64FF7003EE64FF70030223623D
:101C15009011A8E0FEA3E0FFAA06A9077B01901199
:101C2500A2E0FCA3E0FD1281EAAE02AF019011A48F
:101C3500EEF0A3EFF09011A4E0FEA3E0FFEF4E70ED
:101C4500030223629011A6E0FEA3E0FF8F828E833C
:101C5500E5822404F582E5833400F583E0FFEF1285
:101C65001A621C83001CAC011CEC021D8E031E5D58
:101C7500041FF20821CB0A21020B000023629011F8
:101C8500A0E0FFEF645560030223629011A6E0FE19
:101C9500A3E0FF8F828E83E5822404F582E58334F9
:101CA50000F5837401F0229011A0E0FFEFB4331C1E
:101CB5009011A6E0FEA3E0FF8F828E83E5822404C7
:101CC500F582E5833400F5837402F0229011A6E0D5
:101CD500FEA3E0FF8F828E83E5822404F582E583EF
:101CE5003400F583E4F0229011A0E0FF9011A6E006
:101CF500FCA3E0FD8D828C83E5822407F582E583D4
:101D05003400F583EFF09011A0E0FFEFB455047FA8
:101D15000180027F009011A6E0FCA3E0FD8D828C7E
:101D250083E582240CF582E5833400F583EFF0909A
:101D350011A6E0FEA3E0FF8F828E83E5822404F5E1
:101D450082E5833400F5837403F09011A6E0FEA3C9
:101D5500E0FF8F828E83E5822406F582E5833400D9
:101D6500F5837404F09011A8E0FEA3E0FFAA06A98C
:101D7500077B019011A2E0FCA3E0FD9011A0E0FF1C
:101D8500901285EFF0127E13229011A0E0FFEF7004
:101D9500359011A6E0FEA3E0FF8F828E83E58224B5
:101DA50006F582E5833400F583E0FF9011A6E0FC9B
:101DB500A3E0FD8D828C83E5822404F582E58334DE
:101DC50000F583EFF0229011A6E0FEA3E0FF8F82DD
:101DD5008E83E582240CF582E5833400F583E0FFEC
:101DE500EF60409011A0E0FFEFB4331C9011A6E026
:101DF500FEA3E0FF8F828E83E5822404F582E583CE
:101E05003400F5837402F0229011A6E0FEA3E0FFF2
:101E15008F828E83E5822404F582E5833400F58381
:101E2500E4F0229011A6E0FEA3E0FF8F828E83E509
:101E3500822404F582E5833400F583E4F09011A64D
:101E4500E0FEA3E0FF8F828E83E582240CF582E518
:101E5500833400F583E4F0229011A0E0FFEFB45540
:101E6500047F0180027F009011A6E0FCA3E0FD8DB8
:101E7500828C83E582240CF582E5833400F583EFBB
:101E8500F09011A6E0FEA3E0FF8F828E83E5822409
:101E950007F582E5833400F583E0FF9011A0E0FEAD
:101EA5007E00EE4FFF9011A6E0FCA3E0FD8D828C35
:101EB50083E5822407F582E5833400F583EFF0900E
:101EC50011A8E0FEA3E0FFAA06A9077B019011A2D5
:101ED500E0FCA3E0FD9011A0E0FF901285EFF01269
:101EE5007E139011A6E0FEA3E0FF8F828E83E5822C
:101EF5002407F582E5833400F583E0FFEFD39400F2
:101F05005003021FB29011A6E0FEA3E0FF8F828E60
:101F150083E5822407F582E5833400F583E0FFEF4E
:101F2500D3944B4003021FB29011A6E0FEA3E0FF3D
:101F35008F828E83E5822408F582E5833400F5835C
:101F4500E4F09011A6E0FEA3E0FF8F828E83E58288
:101F55002409F582E5833400F583E4F09011A6E0C9
:101F6500FEA3E0FF8F828E83E582240AF582E58356
:101F75003400F583E4F09011A6E0FEA3E0FF8F8224
:101F85008E83E5822406F582E5833400F5837408A3
:101F9500F09011A6E0FEA3E0FF8F828E83E58224F8
:101FA50004F582E5833400F5837403F0229011A0D3
:101FB500E0FFEFB4551C9011A6E0FEA3E0FF8F8271
:101FC5008E83E5822404F582E5833400F58374016C
:101FD500F0229011A6E0FEA3E0FF8F828E83E582BA
:101FE5002404F582E5833400F583E4F0229011A002
:101FF500E0FFEFB455369011A6E0FEA3E0FF8F8217
:102005008E83E5822404F582E5833400F583740A22
:10201500F09011A6E0FEA3E0FF8F828E83E5822477
:1020250006F582E5833400F5837408F09011A8E085
:10203500FEA3E0FFAA06A9077B019011A2E0FCA37D
:10204500E0FD9011A0E0FF901285EFF0127E139055
:1020550011A0E0FF9011A6E0FCA3E0FD8D828C832A
:10206500E582240AF582E5833400F583E02FF090BC
:1020750011A6E0FEA3E0FF8F828E83E5822409F599
:1020850082E5833400F583E004F09011A6E0FEA319
:10209500E0FF8F828E83E5822408F582E583340094
:1020A500F583E004F09011A6E0FEA3E0FF8F828E99
:1020B50083E5822407F582E5833400F583E0FF900C
:1020C50011A6E0FCA3E0FD8D828C83E5822408F552
:1020D50082E5833400F583E0FEEEC39F50030223BF
:1020E500629011A6E0FEA3E0FF8F828E83E5822435
:1020F50004F582E5833400F583740BF0229011A674
:10210500E0FEA3E0FF8F828E83E582240AF582E557
:10211500833400F583E0FFEF54FFFF9011A0E0FE4C
:10212500EF6E601D9011A6E0FEA3E0FF8F828E8307
:10213500E582240BF582E5833400F583E004F08025
:102145006A9011A6E0FEA3E0FF8F828E83E58224CC
:1021550009F582E5833400F583E0FF9011A4E0FCE6
:10216500A3E0FD8D828C83EFF09011A6E0FEA3E045
:10217500FF8F828E83E5822409F582E5833400F59D
:1021850083E0FF7E007F00EEFF7E009011A4E0FC5F
:10219500A3E0FD8D828C83A3EFF09011A8E0FEA350
:1021A500E0FFAA06A9077B011286EC9011A6E0FEC6
:1021B500A3E0FF8F828E83E5822404F582E58334D4
:1021C50000F583E4F0229011A0E0FFEF64AA60031C
:1021D5000223139011A6E0FEA3E0FF8F828E83E514
:1021E500822408F582E5833400F583E0FF7E00EF65
:1021F5002401FFEE3400FE9011A6E0FCA3E0FD8D66
:10220500828C83E5822407F582E5833400F583E03B
:10221500FD7C00C3EF9DEC6480F8EE648098401D62
:102225009011A6E0FEA3E0FF8F828E83E582240451
:10223500F582E5833400F583740BF080349011A6A4
:10224500E0FEA3E0FF8F828E83E5822406F582E51A
:10225500833400F583E0FF9011A6E0FCA3E0FD8D3B
:10226500828C83E5822404F582E5833400F583EFCF
:10227500F09011A6E0FEA3E0FF8F828E83E5822415
:1022850006F582E5833400F583E0FFEF64086041DD
:102295009011A6E0FEA3E0FF8F828E83E5822406DF
:1022A500F582E5833400F583E0FFEF640660229054
:1022B50011A6E0FEA3E0FF8F828E83E5822406F55A
:1022C50082E5833400F583E0FFEF640760030223B2
:1022D500539011A6E0FEA3E0FF8F828E83E5822452
:1022E50008F582E5833400F583E004F09011A0E061
:1022F500FF9011A6E0FCA3E0FD8D828C83E582248E
:102305000AF582E5833400F583E02FF080409011D3
:10231500A0E0FFEFB4331D9011A6E0FEA3E0FF8F10
:10232500828E83E5822404F582E5833400F5837487
:1023350002F0801A9011A6E0FEA3E0FF8F828E8343
:10234500E5822404F582E5833400F583E4F09011F9
:0D235500A6E0FEA3E0FF8F828E83E004F07F
:012362002258
:10AAAF00901436EFF0901436E0FFEF70077B017AC9
:0BAABF000979B3227B017A0A79F422A6
:109C29007E007F627D007B017A0F7982121ABB7EEA
:109C3900007F037D007B017A0F797E121ABB7E0FAC
:109C49007F83900FE6EEF0A3EFF0900F7EE0FFEF39
:109C590004FF7E00900FE4EEF0A3EFF0900F81E493
:0D9C6900F0900FE8E4F075840043D1012273
:10722F00901437EFF0900FE8E0FFEFC3940A40217E
:10723F00900FE8E0FFEFC394145016901437E0FF5F
:10724F00EFB4020D901437E4F0900FE8741EF08045
:10725F0011900FE8E0FFEFC3940A5006900FE8E09B
:10726F0004F0901437E0FFEF121A6272B90072CB7C
:10727F0001728A02729C03000072E8127A87EF7023
:10728F00067F0312A2D5227F0212A2D52212A125B8
:10729F00EF6404600F7F0212A2D57DBE7C007FFFDA
:1072AF001273AB227F0312A2D52212837FEF7006D7
:1072BF007F0112A2D5227F0012A2D52212A125EFA3
:1072CF006404600F7F0212A2D57DBE7C007FFF1287
:0F72DF0073AB227F0112A2D5227F0212A2D52209
:107A870012AECBEFB401037F0222900F7D7404F096
:107A970012AF39AE02AF019013B3EEF0A3EFF0903F
:107AA70013B3E0FEA3E0FF8F828E837433F090134D
:107AB700B57401F09013B5E0FFEFD39430502590E3
:107AC70013B5E0FF9013B3E0FCA3E0FD8D828C8338
:107AD700E5822FF582E43583F583E4F09013B5E072
:107AE70004F080D07F0112AD007D017F0012A5AFA9
:107AF70012A6E1C003C002C0017BFF7AA87960909B
:107B07001221EBF0A3EAF0A3E9F0D001D002D003F1
:097B17007F317E0012884B7F00D3
:017B20002242
:10837F0012AECBEFB401037F0222900F7D7404F095
:10838F0012AF39AE02AF019013FBEEF0A3EFF090F6
:10839F0013FBE0FEA3E0FF8F828E837434F0901303
:1083AF00FBE0FEA3E0FF8F828E83A3E4F09013FB2C
:1083BF00E0FEA3E0FF8F828E83A3A3E4F07F011280
:1083CF00AD007D017F0012A5AF7B017A0F797EC0D2
:1083DF0003C002C0017BFF7AA87960901221EBF0F5
:1083EF00A3EAF0A3E9F0D001D002D0037F037E000F
:0583FF0012884B7F0015
:018404002255
:10A86000C0D075D018901438EFF0901438E0FFEF96
:10A870007008900F7D7401F08006900F7D7402F0D7
:03A88000D0D02213
:10A12500900F7DE0FFEFB404037F04227D007F00E4
:10A1350012A5AF7F0012AD00900F81E0FFEF75F023
:10A1450031A42483F582E4340FF583AF82AE839086
:10A155000FE6EEF0A3EFF0120006900F7DE0FF2270
:05A023009013B6EFF000
:10A0280053E6FE900FE6E0FEA3E0FF8F828E83C02A
:10A0380083C0829013B6E0FFD082D08375F002EF20
:10A04800121A56E0FEA3E0FF9013B7EEF0A3EFF06C
:0BA0580043E6019013B7E0FEA3E0FF19
:01A0630022DA
:1080D7009012CCEFF09012CDEDF09012CEEBF0A312
:1080E700EAF0A3E9F053E6FE9012CCE0FF7E0090A1
:1080F70012CDE0FD7C00C3ED9FFFEC9EFEEF240157
:10810700FFEE3400FEEF25E0FFEE33FEC006C007AA
:108117009012CCE0FF7E02EF8EF0A4FFAEF0900F3E
:10812700E6E0FCA3E0FDEF2DFFEE3CFEAA06A90763
:108137007B01C003C002C0019012CEE0FBA3E0FAAE
:10814700A3E0F9A801AC02AD03D001D002D003D05F
:0A81570007D00612158743E6012247
:10A44F00901286EBF0A3EAF0A3E9F0900F7FE0FF04
:10A45F00901286E0FBA3E0FAA3E0F9EF1216489002
:10A46F000F80E0FF901289E0FBA3E0FAA3E0F9EF81
:04A47F001216482247
:10A6E100900F81E0FFC374019FFF900F81EFF09005
:10A6F1000F81E0FF7E31EF8EF0A4FFAEF074822F68
:08A70100F9740F3EFA7B0122FE
:0B87D700901234EBF0A3EAF0A3E9F0ED
:1087E200901234E0FBA3E0FAA3E0F9901237EBF029
:1087F200A3EAF0A3E9F0901237E0FBA3E0FAA3E0CA
:10880200F97582017583001215C6FF90123AEFF0D6
:10881200901237E0FBA3E0FAA3E0F91215ADFF9046
:108822001237E0FBA3E0FAA3E0F975820175830039
:10883200EF12165A90123AE0FF901237E0FBA3E0D3
:08884200FAA3E0F9EF12164859
:01884A00220B
:0B709B0090123BEBF0A3EAF0A3E9F039
:1070A60090123BE0FBA3E0FAA3E0F990123EEBF06E
:1070B600A3EAF0A3E9F090123EE0FBA3E0FAA3E016
:1070C600F97582037583001215C6FF901241EFF021
:1070D60090123EE0FBA3E0FAA3E0F91215ADFF9093
:1070E600123EE0FBA3E0FAA3E0F975820375830084
:1070F600EF12165A901241E0FF90123EE0FBA3E019
:10710600FAA3E0F9EF12164890123EE0FBA3E0FA6C
:10711600A3E0F97582027583001215C6FF9012412D
:10712600EFF090123EE0FBA3E0FAA3E0F9758201CE
:107136007583001215C6FF90123EE0FBA3E0FAA38A
:10714600E0F9758202758300EF12165A901241E03B
:10715600FF90123EE0FBA3E0FAA3E0F97582017509
:067166008300EF12165A2F
:01716C002200
:0B6ED200901165EBF0A3EAF0A3E9F0DB
:106EDD0090116B74FF75F0FF1216F9AFF0FEEF4EC7
:106EED007003026FBA90116BE0FEA3E0FFEF25E097
:106EFD00FFEE33FE901165E0FBA3E0FAA3E0F98FFE
:106F0D00828E8312173AFDACF090116BE0FEA3E078
:106F1D00FFEF25E0FFEE33FE901168E0FBA3E0FAF2
:106F2D00A3E0F98F828E83EC8DF01217DE90116B3A
:106F3D00E0FEA3E0FFEF25E0FFEE33FE901168E0E9
:106F4D00FBA3E0FAA3E0F9E92FF9EA3EFA90116DFF
:106F5D00EBF0A3EAF0A3E9F090116DE0FBA3E0FAEA
:106F6D00A3E0F97582017583001215C6FF901170AB
:106F7D00EFF090116DE0FBA3E0FAA3E0F91215AD6F
:106F8D00FF90116DE0FBA3E0FAA3E0F975820175A6
:106F9D008300EF12165A901170E0FF90116DE0FB17
:0D6FAD00A3E0FAA3E0F9EF121648026EDD32
:016FBA0022B4
:0B562D00901171EBF0A3EAF0A3E9F08C
:1056380090117774FF75F0FF1216F9AFF0FEEF4E78
:105648007003025789901177E0FEA3E0FFEF78021C
:10565800C333CE33CED8F9FF901171E0FBA3E0FA43
:10566800A3E0F98F828E8312191DC004C005C006FD
:10567800C007901177E0FEA3E0FFEF7802C333CEB6
:1056880033CED8F9FF901174E0FBA3E0FAA3E0F958
:105698008F828E83D007D006D005D0041219679068
:1056A8001177E0FEA3E0FFEF7802C333CE33CED804
:1056B800F9FF901174E0FBA3E0FAA3E0F9E92FF9F0
:1056C800EA3EFA901179EBF0A3EAF0A3E9F0901121
:1056D80079E0FBA3E0FAA3E0F97582037583001271
:1056E80015C6FF90117CEFF0901179E0FBA3E0FA6A
:1056F800A3E0F91215ADFF901179E0FBA3E0FAA33E
:10570800E0F9758203758300EF12165A90117CE058
:10571800FF901179E0FBA3E0FAA3E0F9EF12164835
:10572800901179E0FBA3E0FAA3E0F9758202758392
:10573800001215C6FF90117CEFF0901179E0FBA3E1
:10574800E0FAA3E0F97582017583001215C6FF908F
:105758001179E0FBA3E0FAA3E0F9758202758300F2
:10576800EF12165A90117CE0FF901179E0FBA3E04C
:10577800FAA3E0F9758201758300EF12165A0256F2
:0157880038E8
:0157890022FD
:10A9E500758400C2CAC2C953C8FE75CAFF75CBDBE0
:0EA9F50053C9E775CCFF75CDFFC2ADD2CA22A3
:10A5DD00758400C28C9011B2E4F0A3E4F09011AA3E
:10A5ED00E4F0A3E4F09011B0E4F0A3E4F0438901AA
:0EA5FD00758AFF758CDB538EF4D2A9D28C22A6
:03000B00028CF86C
:108CF800C0E0C083C082C0D075D008C28D9011B3C7
:108D0800E004F070069011B2E004F09011B1E004B4
:108D1800F070069011B0E004F09011B0E0FEA3E00E
:108D2800FFC3EF9464EE940040169011B0E4F0A3F2
:108D3800E4F09011ABE004F070069011AAE004F0A2
:0F8D4800758AFF758CDBD0D0D082D083D0E0321B
:10AB2F007584004389205389EF758DD0538EEF5371
:08AB3F008EF4D28E43884022FF
:10AAE40075840253C8FB75C90853C8FD53E7FB7549
:09AAF400CBFF75CAB843C8042267
:10A0640075840F758C679013FDE4F0A3E4F09013EE
:10A07400FDE0FEA3E0FFC3EE6480948150109013D2
:10A08400FEE004F070069013FDE004F080E04397D6
:10A0940001538A7F43A54043E34043E28075840033
:01A0A4002299
:08A7810090128CEEF0A3EFF042
:10A789007B017A12798E90128CE0FCA3E0FD129E77
:0DA799003C7B017A12798E12993BEF60F43F
:01A7A6002290
:109E3C009012D1EBF0A3EAF0A3E9F09012D4ECF07D
:109E4C00A3EDF012AA219012D1E0FBA3E0FAA3E05B
:109E5C00F9EE8FF01217BF9012D4E0FEA3E0FF9042
:109E6C0012D1E0FBA3E0FAA3E0F97582027583003E
:079E7C00EE8FF01217DE2249
:109E83009012D6EBF0A3EAF0A3E9F09012D9ECF02C
:109E9300A3EDF012AA3E9012D6E0FBA3E0FAA3E0F2
:109EA300F9EE8FF01217BF9012D9E0FEA3E0FF90F6
:109EB30012D6E0FBA3E0FAA3E0F9758202758300F2
:079EC300EE8FF01217DE2202
:0B993B009012DBEBF0A3EAF0A3E9F0D0
:1099460012AA219012DEEEF0A3EFF09012DBE0FBFC
:10995600A3E0FAA3E0F912170FFFAEF09012DEE0D3
:10996600FCA3E0FD128DB69012DBE0FBA3E0FAA3A8
:10997600E0F975820275830012173AFDACF0C3EF69
:0A9986009DEE9C50037F00227F013C
:0199900022B4
:0B9991009012E0EBF0A3EAF0A3E9F075
:10999C0012AA3E9012E3EEF0A3EFF09012E0E0FB7F
:1099AC00A3E0FAA3E0F912170FFFAEF09012E3E078
:1099BC00FCA3E0FD128DB69012E0E0FBA3E0FAA34D
:1099CC00E0F975820275830012173AFDACF0C3EF13
:0A99DC009DEE9C50037F00227F01E6
:0199E600225E
:10AA2100C2A99011B2E0FEA3E0FF9013FFEEF0A3E4
:0CAA3100EFF0D2A99013FFE0FEA3E0FFBD
:01AA3D0022F6
:10AA3E00C2A99011AAE0FEA3E0FF901401EEF0A3CC
:0CAA4E00EFF0D2A9901401E0FEA3E0FF9D
:01AA5A0022D9
:108DB60090131AEEF0A3EFF090131CECF0A3EDF075
:108DC60090131AE0FEA3E0FF90131CE0FCA3E0FD65
:108DD600D3ED9FEC9E401890131AE0FEA3E0FF909F
:108DE600131CE0FCA3E0FDC3ED9FFFEC9EFE22906A
:108DF600131AE0FEA3E0FFC3E49FFFE49EFE901378
:0D8E06001CE0FCA3E0FDEF2DFFEE3CFE2282
:10768A0075FFDE75FFAD12A06412A0A512A41B122D
:10769A00A5DD12AAFD12AB1612AEB312AEBF12AE20
:1076AA00A712AF4E129C2912A4EA12006E12AE9AC9
:1076BA0012A83D129B3B122F6712AB7512A7091233
:1076CA00A8C812789812AB8C12816112AA03123BD5
:1076DA009D1289A2125E8712AF47D2AF7BFF7A72E0
:1076EA00792F128AF59013B9EFF07BFF7A747966D5
:1076FA00128AF59013BAEFF07BFF7A6C79F5128A49
:10770A00F59013BBEFF09013B9E0FF7D0012A223AE
:10771A009013BAE0FF7D0012A2239013BBE0FF7D15
:10772A000012A2237D017F141253301258E480FB09
:01773A00222C
:0CAEB300C2A875840F43E34043E2042270
:0CAEBF00C2AA75840F43E34043E2102256
:03000300020009EF
:0100090032C4
:0300130002000ADE
:01000A0032C3
:06AF4000901439E004F05A
:01AF460022E8
:03001B0002AD1023
:10AD1000C0E0C083C08212AF40D082D083D0E03286
:03002B0002AD2003
:10AD2000C0E0C083C08212AF40D082D083D0E03276
:0300430002AD30DB
:10AD3000C0E0C083C08212AF40D082D083D0E03266
:03004B0002AD40C3
:10AD4000C0E0C083C08212AF40D082D083D0E03256
:0300530002AD50AB
:10AD5000C0E0C083C08212AF40D082D083D0E03246
:03005B0002AD6093
:10AD6000C0E0C083C08212AF40D082D083D0E03236
:0300630002AD707B
:10AD7000C0E0C083C08212AF40D082D083D0E03226
:03006B0002AD8063
:10AD8000C0E0C083C08212AF40D082D083D0E03216
:0300830002AD903B
:10AD9000C0E0C083C08212AF40D082D083D0E03206
:03008B0002ADA023
:10ADA000C0E0C083C08212AF40D082D083D0E032F6
:0300930002ADB00B
:10ADB000C0E0C083C08212AF40D082D083D0E032E6
:03009B0002ADC0F3
:10ADC000C0E0C083C08212AF40D082D083D0E032D6
:0300AB0002ADD0D3
:10ADD000C0E0C083C08212AF40D082D083D0E032C6
:102F67007F0012AAAFAE02AF01900DE2EEF0A3EF21
:102F7700F07F0112AAAFAE02AF01900D58EEF0A399
:102F8700EFF0900DE2E0FEA3E0FFAA06A9077B01A0
:102F9700128A85900D58E0FEA3E0FFAA06A9077BD9
:102FA70001128A857BFF7A9B798C128AF5900DE155
:102FB700EFF07BFF7A8C7995128AF5900DE4EFF0AC
:102FC700900DE4E0FF7D0012A2237BFF7A71796DFB
:102FD700128AF5900D85EFF07BFF7A757921128AB9
:102FE700F5900D44EFF0900D85E0FF7D0012A223D0
:102FF700900D44E0FF7D0012A2237BFF7A8E79704B
:10300700128AF5900D32EFF0900D77E4F0900D7085
:10301700E4F0900D9C7401F0900D95E4F0A3E4F0BA
:10302700900DC5E4F0A3E4F0900D817407F0A3744C
:1030370008F07BFF7A5A7910128AF5900DA1EFF00C
:103047007BFF7A8F7924128AF5900DC2EFF07BFF10
:103057007A8F797E128AF5900D43EFF07BFF7A8F96
:1030670079D8128AF5900DABEFF07BFF7A8E79CA8B
:10307700128AF5900D51EFF07BFF7A9579D2128A7B
:10308700F5900D4FEFF07BFF7A7B79BA128AF590B6
:103097000DDAEFF07BFF7A96792A128AF5900D9D6B
:1030A700EFF07BFF7A907932128AF5900D3EEFF0C0
:1030B7007BFF7A90798C128AF5900DD5EFF07BFF24
:1030C7007A7B7921128AF5900D6FEFF07BFF7A8872
:1030D70079BE128AF5900D46EFF07BFF7A9079E67C
:1030E700128AF5900D4CEFF07BFF7A917940128AA6
:1030F700F5900D35EFF07BFF7A977989128AF59075
:103107000D62EFF07BFF7A967982128AF5900DBEF9
:10311700EFF07BFF7A827971128AF5900DCDEFF08F
:103127007BFF7A91799A128AF5900D65EFF07BFF14
:103137007A9179F4128AF5900D80EFF07BFF7A7F10
:103147007932128AF5900D90EFF07BFF7A92794EE3
:10315700128AF5900D5AEFF07BFF7A9279A8128ABE
:10316700F5900D74EFF07BFF7A857981128AF590DF
:103177000D87EFF07BFF7A8C7932128AF5900D8AF2
:10318700EFF07BFF7A68790D128AF5900DDBEFF08F
:103197007BFF7A937902128AF5900DA5EFF07BFFFA
:1031A7007A9779E0128AF5900D55EFF07BFF7A98C0
:1031B7007937128AF5900D45EFF07BFF7A7779EA38
:1031C700128AF5900D5BEFF07BFF7A877962128A9E
:1031D700F5900DBDEFF07BFF7A93795C128AF5903D
:1031E7000D52EFF07BFF7A9379B6128AF5900DA80E
:1031F700EFF07BFF7A7C7952128AF5900D86EFF01B
:103207007BFF7A8279F8128AF5900D49EFF07BFF00
:103217007A8B79CD128AF5900D9BEFF07BFF7A645C
:1032270079F6128AF5900D8DEFF07BFF7A9479107D
:10323700128AF5900DA4EFF07BFF7A8D7957128AE9
:10324700F5900DC1EFF07BFF7A9679DA128AF59047
:103257000DB0EFF07BFF7A94796A128AF5900DD45E
:10326700EFF07BFF7A95791E128AF5900D73EFF0D8
:103277007BFF7A9479C4128AF5900D6CEFF07BFF8F
:103287007A6B79FD128AF5900D50EFF0900D50E0B2
:10329700FF7D0012A2237BFF7A957978128AF59039
:0532A7000D9EEFF02276
:056CF5009012E5EFF034
:106CFA00900DE2E0FEA3E0FFAA06A9077B0112A01D
:106D0A00E59012E6EEF0A3EFF09012E6E0FEA3E0C3
:106D1A00FFEF64FF7003EE64FF6047900DE2E0FE50
:106D2A00A3E0FFAA06A9077B019012E6E0FCA3E014
:106D3A00FD1281EAAE02AF019012E8EEF0A3EFF085
:106D4A009012E8E0FEA3E0FFAA06A9077B01120061
:106D5A00AE900DE2E0FEA3E0FFAA06A9077B0112AE
:106D6A008485900D58E0FEA3E0FFAA06A9077B01DF
:106D7A0012A0E59012E6EEF0A3EFF09012E6E0FE24
:106D8A00A3E0FFEF64FF7003EE64FF6047900D58C5
:106D9A00E0FEA3E0FFAA06A9077B019012E6E0FC49
:106DAA00A3E0FD1281EAAE02AF019012E8EEF0A371
:106DBA00EFF09012E8E0FEA3E0FFAA06A9077B0124
:106DCA00124FE3900D58E0FEA3E0FFAA06A9077B45
:0C6DDA00011284859012E5E0FF12A2D5A2
:016DE600228A
:10660400901242EBF0A3EAF0A3E9F0901245EDF00A
:10661400901242E0FBA3E0FAA3E0F91215ADFF7E6D
:1066240000901246EEF0A3EFF0901246E0FCA3E0D7
:10663400FD901242E0FBA3E0FAA3E0F97582017534
:1066440083001215C6FF7E00EF7F00FEEC4EFEEDC8
:106654004FFF901246EEF0A3EFF0901245E0FFEFEB
:10666400B404047F0180027F00901248EFF090127E
:1066740042E0FBA3E0FAA3E0F9E92405F9EA3400D7
:10668400FAC003C002C001901246E0FEA3E0FFEF8F
:1066940024FDFDEE34FFFC901242E0FBA3E0FAA3DC
:1066A400E0F97582037583001215C6FF901128EF77
:1066B400F0901242E0FBA3E0FAA3E0F975820275C0
:1066C40083001215C6FF901129EFF0901242E0FBEF
:1066D400A3E0FAA3E0F97582047583001215C6FFDE
:1066E40090112AEFF090112B7401F0901248E0FF02
:1066F40090112CEFF0D001D002D00312285FEF608C
:0467040003026672B4
:01670800226E
:0B00AE009011B4EBF0A3EAF0A3E9F01E
:1000B9009011B4E0FBA3E0FAA3E0F975820275831D
:1000C900001215C6FF9011B9EFF09011B4E0FBA32F
:1000D900E0FAA3E0F97582037583001215C6FF9053
:1000E90011BAEFF09011B4E0FBA3E0FAA3E0F975BF
:1000F90082057583001215C6FF9011B7EFF09011B4
:10010900B4E0FBA3E0FAA3E0F97582047583001259
:1001190015C6FF9011B8EFF09011BAE0FFEFB404E3
:10012900149011B4E0FBA3E0FAA3E0F99011BAE04E
:10013900FD12660422900D707401F07B017A0D792D
:100149003F7D707C17129E3C900D9CE4F07B017AF8
:100159000D795C7DB87C0B129E3C9011B7E0FFEFE6
:10016900121A6201FA010A3E640A8D650B73660A66
:100179001F6704CF6804036A04616B04B06C0770DD
:100189006D07BF6E09406F099D700A0071021976EB
:10019900035E77032078050D7C055C7D07517E039E
:1001A9007D7F03A18003C5810BD0840D1F8804EED8
:1001B9008A0D708B033F8D0F248E0F908F0C0E903C
:1001C9000CA5910BEF92095F930DC195097E960ECF
:1001D9003B970277980B92990FAFA108CDA20FCE4A
:1001E900A310B3A40BB1A508F1A603E4FA0000110A
:1001F900599011B9E0FF900D4DEFF09011B8E0FF63
:10020900900D4EEFF0900DE1E0FF7D0012A2232248
:100219009011B4E0FBA3E0FAA3E0F9E92406F9EAB6
:100229003400FAAE02AF019011BBEEF0A3EFF090EB
:1002390011B9E0FF900DDFEFF09011B8E0FF900DDC
:10024900E0EFF09011BBE0FEA3E0FF8F828E83E028
:10025900FF9011BBE0FCA3E0FD8D828C83A3E0FD40
:0E026900125330900DC2E0FF7D0012A223223E
:100277009011B4E0FBA3E0FAA3E0F9E92406F9EA58
:100287003400FAAE02AF019011BBEEF0A3EFF0908D
:1002970011B9E0FF900D75EFF09011B8E0FF900DE8
:1002A70076EFF09011BBE0FEA3E0FFAA06A9077B5B
:1002B700011287D79011BBE0FEA3E0FFEF2402FFF6
:1002C700EE3400FEAA06A9077B011287D79011BB5F
:1002D700E0FEA3E0FF8F828E83E0FEA3E0FF901194
:1002E700BBE0FCA3E0FD8D828C83A3A3E0FCA3E02D
:1002F700FD9011BBE0FAA3E0FB8B828A83E58224A1
:1003070004F582E5833400F583E0FB128930900D14
:0903170051E0FF7D0012A2232237
:100320009011B9E0FF900D71EFF09011B8E0FF90DF
:100330000D72EFF0900D4FE0FF7D0012A22322908E
:1003400011B9E0FF900D47EFF09011B8E0FF900D6C
:1003500048EFF0900DDAE0FF7D0012A22322901109
:10036000B9E0FF900DC3EFF09011B8E0FF900DC41D
:10037000EFF0900D9DE0FF7D0012A223229011B9B5
:10038000E0FF900D60EFF09011B8E0FF900D61EF8D
:10039000F07F01128E13900D3EE0FF7D0012A2232C
:1003A000229011B9E0FF900D38EFF09011B8E0FF06
:1003B000900D39EFF07F00128E13900DD5E0FF7D88
:1003C0000012A223229011B9E0FF900D93EFF0905C
:1003D00011B8E0FF900D94EFF0900D6FE0FF7D00FD
:1003E00012A223229011B9E0FF900D68EFF0901156
:1003F000B8E0FF900D69EFF0900D46E0FF7D001230
:03040000A2232212
:100403009011B4E0FBA3E0FAA3E0F9E92406F9EACA
:100413003400FAAE02AF019011BBEEF0A3EFF090FF
:1004230011B9E0FF900D6DEFF09011B8E0FF900D62
:100433006EEFF09011BBE0FEA3E0FF8F828E83E0AE
:10044300FF9011BBE0FCA3E0FD8D828C83A3E0FD54
:0E04530012A94B900D4CE0FF7D0012A2232257
:100461009011B4E0FBA3E0FAA3E0F9E92406F9EA6C
:100471003400FAAE02AF019011BBEEF0A3EFF090A1
:1004810011B9E0FF900D56EFF09011B8E0FF900D1B
:1004910057EFF09011BBE0FEA3E0FF8F828E83E067
:0F04A100FF12A665900D35E0FF7D0012A2232209
:1004B0009011B9E0FF900D8EEFF09011B8E0FF9031
:1004C0000D8FEFF0900D62E0FF7D0012A2232290CD
:1004D00011B9E0FF900DD8EFF09011B8E0FF900D4A
:1004E000D9EFF0900DBEE0FF7D0012A22322901103
:1004F000B9E0FF900D33EFF09011B8E0FF900D34AC
:0D050000EFF0900DCDE0FF7D0012A2232250
:10050D009011B4E0FBA3E0FAA3E0F9E92406F9EABF
:10051D003400FAAE02AF019011BBEEF0A3EFF090F4
:10052D0011B9E0FF900D91EFF09011B8E0FF900D33
:10053D0092EFF09011BBE0FEA3E0FF8F828E83E07F
:0F054D00FF12A7CD900D65E0FF7D0012A22322C3
:10055C009011B4E0FBA3E0FAA3E0F9E92406F9EA70
:10056C003400FAAE02AF019011BBEEF0A3EFF090A5
:10057C0011B9E0FF900D9FEFF09011B8E0FF900DD6
:10058C00A0EFF09011BBE0FEA3E0FFEF240CFFEE18
:10059C003400FEAA06A9077B011287D79011BBE095
:1005AC00FEA3E0FFEF240EFFEE3400FEAA06A9071F
:1005BC007B011287D79011BBE0FEA3E0FFEF241064
:1005CC00FFEE3400FEAA06A9077B011287D7901113
:1005DC00BBE0FEA3E0FFEF2412FFEE3400FEAA0600
:1005EC00A9077B01C003C002C0019011BBE0FEA3B0
:1005FC00E0FFEF2412FFEE3400FEAA06A9077B01F0
:10060C00901168EBF0A3EAF0A3E9F090116BE4F021
:10061C00A3740CF0D001D002D003126ED29011BB97
:10062C00E0FEA3E0FFEF242AFFEE3400FEAA06A9A9
:10063C00077B01C003C002C0019011BBE0FEA3E028
:10064C00FFEF242AFFEE3400FEAA06A9077B0190D7
:10065C001168EBF0A3EAF0A3E9F090116BE4F0A3BE
:10066C00740CF0D001D002D003126ED29011BBE00A
:10067C00FEA3E0FFEF2412FFEE3400FEAA06A9074A
:10068C007B01C003C002C0019011BBE0FEA3E0FFE0
:10069C00EF242AFFEE3400FEAA06A9077B01901175
:1006AC0059EBF0A3EAF0A3E9F09011BBE0FEA3E054
:1006BC00FF8F828E83E582240CF582E5833400F56E
:1006CC0083E0FEA3E0FF90115CEEF0A3EFF090113D
:1006DC00BBE0FEA3E0FF8F828E83E582240EF582C1
:1006EC00E5833400F583E0FEA3E0FF90115EEEF0AD
:1006FC00A3EFF09011BBE0FEA3E0FF8F828E83E5A9
:10070C00822410F582E5833400F583E0FEA3E0FF3C
:10071C00901160EEF0A3EFF09011BBE0FEA3E0FFB0
:10072C00AA06A9077B01901162EBF0A3EAF0A3E9FA
:10073C00F0D001D002D003125B32900D80E0FF7D2F
:05074C000012A22322AF
:100751009011B9E0FF900DBBEFF09011B8E0FF9060
:0F0761000DBCEFF0900D90E0FF7D0012A223225F
:100770009011B4E0FBA3E0FAA3E0F9E92406F9EA5A
:100780003400FAAE02AF019011BBEEF0A3EFF0908F
:1007900011B9E0FF900D88EFF09011B8E0FF900DD7
:1007A00089EFF09011BBE0FEA3E0FF8F828E83E023
:0F07B000FF12A483900D5AE0FF7D0012A22322B6
:1007BF009011B4E0FBA3E0FAA3E0F9E92406F9EA0B
:1007CF003400FAAE02AF019011BBEEF0A3EFF09040
:1007DF0011B9E0FF900D99EFF09011B8E0FF900D77
:1007EF009AEFF09011BBE0FEA3E0FFAA06A9077BEA
:1007FF00011287D79011BBE0FEA3E0FFEF2402FFA9
:10080F00EE3400FEAA06A9077B011287D79011BB11
:10081F00E0FEA3E0FFEF2406FFEE3400FEAA06A9D8
:10082F00077B011287D79011BBE0FEA3E0FF8F82F9
:10083F008E83E0FEA3E0FFC006C0079011BBE0FE71
:10084F00A3E0FF8F828E83A3A3E0FCA3E0FD9011B2
:10085F00BBE0FEA3E0FF8F828E83E5822404F58246
:10086F00E5833400F583E0FB9011BBE0FEA3E0FFCE
:10087F008F828E83E5822405F582E5833400F5832C
:10088F00E0FF9012BBEFF0D007D006129DF290114F
:10089F00BBE0FEA3E0FF8F828E83E5822406F58204
:1008AF00E5833400F583E0FEA3E0FF900D81EEF0C9
:0E08BF00A3EFF0900D74E0FF7D0012A2232243
:1008CD009011B9E0FF900D63EFF09011B8E0FF903B
:1008DD000D64EFF07F0012AE20900D43E0FF7D0020
:0408ED0012A223220E
:1008F1009011B4E0FBA3E0FAA3E0F9E92406F9EAD8
:100901003400FAAE02AF019011BBEEF0A3EFF0900C
:1009110011BBE0FEA3E0FF8F828E83E0FF12ADE00A
:100921009011B9E0FF900DD0EFF09011B8E0FF9079
:0F0931000DD1EFF0900DABE0FF7D0012A223225D
:100940009011B9E0FF900DA6EFF09011B8E0FF9084
:100950000DA7EFF0900D87E0FF7D0012A2232290FB
:1009600011B9E0FF900DA9EFF09011B8E0FF900DE4
:10097000AAEFF0900D8AE0FF7D0012A223229011D1
:10098000B9E0FF900D4AEFF09011B8E0FF900D4BE9
:0D099000EFF0900DDBE0FF7D0012A22322AE
:10099D009011B4E0FBA3E0FAA3E0F9E92406F9EA2B
:1009AD003400FAAE02AF019011BBEEF0A3EFF09060
:1009BD0011B9E0FF900DCBEFF09011B8E0FF900D65
:1009CD00CCEFF09011BBE0FEA3E0FFAA06A9077BD8
:1009DD00011287D79011BBE0FEA3E0FF8F828E83BB
:1009ED00E0FEA3E0FF12A29C900DA5E0FF7D00129A
:0309FD00A2232210
:100A00009011B9E0FF900D83EFF09011B8E0FF90E6
:100A10000D84EFF0900D55E0FF7D0012A22322908F
:100A200011B9E0FF900D66EFF09011B8E0FF900D66
:0E0A300067EFF0900D45E0FF7D0012A223223B
:100A3E009011B4E0FBA3E0FAA3E0F9E92406F9EA89
:100A4E003400FAAE02AF019011BBEEF0A3EFF090BE
:100A5E0011BBE0FEA3E0FF8F828E83E0FF129DA705
:100A6E009011B9E0FF900D7CEFF09011B8E0FF907F
:0F0A7E000D7DEFF0900D52E0FF7D0012A22322BC
:100A8D009011B4E0FBA3E0FAA3E0F9E92406F9EA3A
:100A9D003400FAAE02AF019011BBEEF0A3EFF0906F
:100AAD0011BBE0FEA3E0FFAA06A9077B011287D7C1
:100ABD009011BBE0FEA3E0FFEF2403FFEE3400FE38
:100ACD00AA06A9077B011287D79011BBE0FEA3E010
:100ADD00FFEF2405FFEE3400FEAA06A9077B0112E5
:100AED0087D79011BBE0FEA3E0FF8F828E83E0FEDF
:100AFD00A3E0FFC006C0079011BBE0FEA3E0FF8F8F
:100B0D00828E83A3A3E0FD9011BBE0FEA3E0FF8FD7
:100B1D00828E83A3A3A3E0FAA3E0FB9011BBE0FEBA
:100B2D00A3E0FF8F828E83E5822405F582E5833471
:100B3D0000F583E0FEA3E0FF901263EEF0A3EFF06B
:100B4D00D007D0061263E79011B9E0FF900DCEEFFC
:100B5D00F09011B8E0FF900DCFEFF0900DA8E0FFF1
:060B6D007D0012A223220C
:100B73009011B9E0FF900DA2EFF09011B8E0FF9053
:100B83000DA3EFF0900D86E0FF7D0012A2232290CB
:100B930011B9E0FF900D6AEFF09011B8E0FF900DEE
:100BA3006BEFF0900D49E0FF7D0012A2232290111C
:100BB300B9E0FF900DBFEFF09011B8E0FF900DC0CA
:100BC300EFF0900D9BE0FF7D0012A223229011B95C
:100BD300E0FF900D8BEFF09011B8E0FF900D8CEFDC
:100BE300F0900D5BE0FF7D0012A223229011B9E08B
:100BF300FF900DD6EFF09011B8E0FF900DD7EFF016
:0B0C0300900DBDE0FF7D0012A2232237
:100C0E009011B4E0FBA3E0FAA3E0F9E92406F9EAB7
:100C1E003400FAAE02AF019011BBEEF0A3EFF090EC
:100C2E0011BDE4F09011B9E0FF900DB1EFF090110D
:100C3E00B8E0FF900DB2EFF09011BBE0FEA3E0FF25
:100C4E008F828E83E0FF900DB3EFF09011BBE0FE2C
:100C5E00A3E0FF8F828E83A3E0FF900DB4EFF090A0
:100C6E000DB57401F0900D8DE0FF12AA5B9011BDD1
:100C7E00EFF09011BDE0FFEF640270030211599086
:100C8E0011BDE0FFEF64037003021159900D8DE06A
:070C9E00FF7D0012A22322DA
:100CA5009011B4E0FBA3E0FAA3E0F9E92406F9EA20
:100CB5003400FAAE02AF019011BBEEF0A3EFF09055
:100CC50011B9E0FF900DC9EFF09011B8E0FF900D5C
:100CD500CAEFF09011BBE0FEA3E0FFEF2401FFEEA9
:100CE5003400FEAA06A9077B011287D79011BBE045
:100CF500FEA3E0FF8F828E83E0FF9011BBE0FCA393
:100D0500E0FD8D828C83A3E0FCA3E0FD12A3B090EF
:0A0D15000DA4E0FF7D0012A22322CE
:100D1F009011BB74C8F09011BC7488F09011BDE4B1
:100D2F00F07B017A1179BB9011B9E0FF901128EF98
:100D3F00F09011297403F09011B8E0FF90112AEF91
:100D4F00F090112B7401F090112CE4F07D037C00D6
:100D5F0012285FEF70CB7F0F7E0012A78175EF0215
:010D6F002261
:100D70009011B4E0FBA3E0FAA3E0F9E92406F9EA54
:100D80003400FAAE02AF019011BBEEF0A3EFF09089
:100D900011B9E0FF900D53EFF09011B8E0FF900D06
:100DA00054EFF09011BBE0FEA3E0FF8F828E83E052
:100DB000FF900D77EFF0900D32E0FF7D0012A2233F
:010DC0002210
:100DC1009011B4E0FBA3E0FAA3E0F9E92406F9EA03
:100DD1003400FAAE02AF019011BBEEF0A3EFF09038
:100DE10011B9E0FF900D36EFF09011B8E0FF900DD2
:100DF10037EFF09011BBE0FEA3E0FFEF2401FFEE1F
:100E01003400FEAA06A9077B011287D79011BBE027
:100E1100FEA3E0FF8F828E83E0FF9011BBE0FCA375
:100E2100E0FD8D828C83A3E0FCA3E0FD12A6399046
:0A0E31000DD4E0FF7D0012A2232281
:100E3B009011B4E0FBA3E0FAA3E0F9E92406F9EA88
:100E4B003400FAAE02AF019011BBEEF0A3EFF090BD
:100E5B0011B9E0FF900D97EFF09011B8E0FF900DF6
:100E6B0098EFF09011BBE0FEA3E0FFEF2401FFEE43
:100E7B003400FEAA06A9077B011287D79011BBE0AD
:100E8B00FEA3E0FFEF2403FFEE3400FEAA06A90742
:100E9B007B011287D79011BBE0FEA3E0FFEF240587
:100EAB00FFEE3400FEAA06A9077B011287D790112B
:100EBB00BBE0FEA3E0FF8F828E83E0FFC0079011A3
:100ECB00BBE0FEA3E0FF8F828E83A3E0FCA3E0FDDB
:100EDB009011BBE0FEA3E0FF8F828E83A3A3A3E060
:100EEB00FAA3E0FB9011BBE0FEA3E0FF8F828E83A1
:100EFB00E5822405F582E5833400F583E0FEA3E06B
:100F0B00FF90125CEEF0A3EFF0D0071275D7900DA7
:090F1B0073E0FF7D0012A2232205
:100F24009011B4E0FBA3E0FAA3E0F9E92406F9EA9E
:100F34003400FAAE02AF019011BBEEF0A3EFF090D3
:100F440011BDE4F09011B9E0FF900DDCEFF09011C9
:100F5400B8E0FF900DDDEFF09011BBE0FEA3E0FFE1
:100F6400AA06A9077B01126B059011BDEFF0901141
:100F7400BDE0FFEF60047F0080027F01900DDEEF93
:0C0F8400F0900DC1E0FF7D0012A22322BE
:100F90009011B9E0FF900DD2EFF09011B8E0FF9002
:100FA0000DD3EFF0900DB0E0FF7D0012A223229050
:100FB00011B9E0FF900DC7EFF09011B8E0FF900D70
:0E0FC000C8EFF0900DA1E0FF7D0012A22322E9
:100FCE009011B4E0FBA3E0FAA3E0F9E92406F9EAF4
:100FDE003400FAAE02AF019011BBEEF0A3EFF09029
:100FEE0011BBE0FEA3E0FFEF2403FFEE3400FEAAE8
:100FFE0006A9077B011287D79011BBE0FEA3E0FF85
:10100E00EF2405FFEE3400FEAA06A9077B01128726
:10101E00D79011B9E0FF900D7EEFF09011B8E0FF80
:10102E00900D7FEFF09011BBE0FEA3E0FF8F828E5C
:10103E0083E0FFC0079011BBE0FEA3E0FF8F828E1E
:10104E0083A3E0FD9011BBE0FEA3E0FF8F828E83B1
:10105E00A3A3E0FB9011BBE0FEA3E0FF8F828E8383
:10106E00A3A3A3E0FEA3E0FF901216EEF0A3EFF011
:10107E009011BBE0FEA3E0FF8F828E83E5822405F4
:10108E00F582E5833400F583E0FEA3E0FF901218AD
:10109E00EEF0A3EFF0D007126FBB900D6CE0FF7D6A
:0510AE000012A2232244
:1010B3009011B4E0FBA3E0FAA3E0F9E92406F9EA0E
:1010C3003400FAAE02AF019011BBEEF0A3EFF09043
:1010D30011B9E0FF900DACEFF09011B8E0FF900D67
:1010E300ADEFF09011BBE0FEA3E0FF8F828E83E0B3
:1010F300FF900DAEEFF09011BBE0FEA3E0FF8F82F7
:101103008E83A3E0FF900DAFEFF0900DAFE0FFEF04
:10111300121A62112301112F02113B030000114F18
:10112300900DAEE0FD7F0A1253308020900DAEE0AB
:10113300FD7F0D1253308014900DAEE0FD7F0A1237
:101143005330900DAEE0FD7F0D125330900D9EE0B5
:06115300FF7D0012A22343
:011159002273
:0B4FE3009011F8EBF0A3EAF0A3E9F056
:104FEE009011F8E0FBA3E0FAA3E0F9758202758355
:104FFE00001215C6FF9011FDEFF09011F8E0FBA323
:10500E00E0FAA3E0F97582037583001215C6FF90CE
:10501E0011FEEFF09011F8E0FBA3E0FAA3E0F975B2
:10502E0082057583001215C6FF9011FBEFF09011EB
:10503E00F8E0FBA3E0FAA3E0F97582047583001291
:10504E0015C6FF9011FCEFF09011FEE0FFEFB401DA
:10505E00149011F8E0FBA3E0FAA3E0F99011FEE042
:10506E00FD126604229011FBE0FFEF121A6250DC73
:0B507E00CA5127CC5089D80000519681
:105089009011F8E0FBA3E0FAA3E0F9E92406F9EAB4
:105099003400FAAE02AF019011FFEEF0A3EFF090E9
:1050A90011FFE0FEA3E0FFEF2401FFEE3400FEAAAA
:1050B90006A9077B011287D79011FFE0FEA3E0FF45
:1050C9008F828E83A3E0FEA3E0FF900D95EEF0A3FF
:0350D900EFF022D3
:1050DC009011F8E0FBA3E0FAA3E0F9E92406F9EA61
:1050EC003400FAAE02AF019011FFEEF0A3EFF09096
:1050FC0011FFE0FEA3E0FF8F828E83E0FF9011FF93
:10510C00E0FCA3E0FD8D828C83E5822404F582E52E
:0B511C00833400F583E0FD12A96A2235
:105127009011F8E0FBA3E0FAA3E0F9E92406F9EA15
:105137003400FAAE02AF019011FFEEF0A3EFF0904A
:1051470011FFE0FEA3E0FFAA06A9077B01C003C089
:1051570002C0019011FFE0FEA3E0FFAA06A9077BAA
:1051670001901168EBF0A3EAF0A3E9F090116BE46A
:10517700F0A3740CF0D001D002D003126ED29011BC
:0F518700FFE0FEA3E0FFAA06A9077B011299E74C
:0151960022F6
:059B8C00901403EFF04E
:109B91009014047401F07B017A147904900D4DE066
:109BA100FF901128EFF09011297403F0900D4EE011
:109BB100FF90112AEFF090112B7401F090112CE419
:109BC100F07D017C0012285FEF70067FFF12A2601A
:099BD10022901403E0FF12A2D55A
:019BDA002268
:058E700090131EEFF05D
:108E750090131F74C8F0901320748BF0901321E4A5
:108E8500F07B017A13791F900D53E0FF901128EFC5
:108E9500F09011297403F0900D54E0FF90112AEF22
:108EA500F090112B7401F090112CE4F07D037C00FF
:108EB50012285FEF70067FFF12A2602290131EE05A
:048EC500FF12A2D521
:018EC9002286
:058ECA00901322EFF0FF
:108ECF0090132374C8F09013247498F0901325E432
:108EDF00F07B017A137923900D75E0FF901128EF45
:108EEF00F09011297403F0900D76E0FF90112AEFA6
:108EFF00F090112B7401F090112CE4F07D037C00A5
:108F0F0012285FEF70067FFF12A26022901322E0FB
:048F1F00FF12A2D5C6
:018F2300222B
:058F2400901326EFF0A0
:108F290090132774C8F09013287476F0901329E4ED
:108F3900F07B017A137927900DDFE0FF901128EF7C
:108F4900F09011297403F0900DE0E0FF90112AEFE1
:108F5900F090112B7401F090112CE4F07D037C004A
:108F690012285FEF70067FFF12A26022901326E09D
:048F7900FF12A2D56C
:018F7D0022D1
:058F7E0090132AEFF042
:108F830090132B74C8F090132C74A2F090132DE45B
:108F9300F07B017A13792B900D63E0FF901128EF9A
:108FA300F09011297403F0900D64E0FF90112AEF03
:108FB300F090112B7401F090112CE4F07D037C00F0
:108FC30012285FEF70067FFF12A2602290132AE03F
:048FD300FF12A2D512
:018FD7002277
:058FD80090132EEFF0E4
:108FDD0090132F74C8F090133074A6F0901331E4F1
:108FED00F07B017A13792F900DD0E0FF901128EFCF
:108FFD00F09011297403F0900DD1E0FF90112AEF3C
:10900D00F090112B7401F090112CE4F07D037C0095
:10901D0012285FEF70067FFF12A2602290132EE0E0
:04902D00FF12A2D5B7
:01903100221C
:0595D200901292EFF081
:1095D70090129374DAF07B017A12799412690C7BFA
:1095E700017A127993900D71E0FF901128EFF090B6
:1095F70011297403F0900D72E0FF90112AEFF0909B
:10960700112B7401F090112CE4F07D057C001228D9
:109617005FEF70067FFF12A26022901292E0FF12A6
:02962700A2D5CA
:01962900221E
:057BBA00901033EFF014
:107BBF0090103474EFF07B017A1079357D087F00D7
:107BCF001284057B017A1079457D177F001280D7CB
:107BDF007B017A107935C003C002C0017B017A1096
:107BEF007935901168EBF0A3EAF0A3E9F090116BEF
:107BFF00E4F0A37420F0D001D002D003126ED27B38
:107C0F00017A107934900D47E0FF901128EFF09032
:107C1F0011297403F0900D48E0FF90112AEFF090B6
:107C2F00112B7401F090112CE4F07D417C0012288F
:107C3F005FEF70067FFF12A26022901033E0FF12F9
:027C4F00A2D5BC
:017C51002210
:05962A009011BEEFF0FD
:10962F009011BF74D9F07B017A1179C012A3447BDA
:10963F00017A1179BF900DC3E0FF901128EFF090E0
:10964F0011297403F0900DC4E0FF90112AEFF090F0
:10965F00112B7401F090112CE4F07D097C0012287D
:10966F005FEF70067FFF12A260229011BEE0FF1223
:02967F00A2D572
:0196810022C6
:05903200901332EFF085
:1090370090133374C8F0901334747FF0901335E4B1
:10904700F07B017A137933900D60E0FF901128EFE0
:10905700F09011297403F0900D61E0FF90112AEF51
:10906700F090112B7401F090112CE4F07D037C003B
:1090770012285FEF70067FFF12A26022901332E082
:04908700FF12A2D55D
:01908B0022C2
:05908C00901336EFF027
:1090910090133774C8F09013387480F0901339E44A
:1090A100F07B017A137937900D38E0FF901128EFAA
:1090B100F09011297403F0900D39E0FF90112AEF1F
:1090C100F090112B7401F090112CE4F07D037C00E1
:1090D10012285FEF70067FFF12A26022901336E024
:0490E100FF12A2D503
:0190E5002268
:057B21009012EAEFF0F4
:107B26009012EC74DFF09012EBE4F09012EBE0FFB1
:107B3600EFC39401503A9012EBE0FF12AB5E901245
:107B4600EBE0FE74ED2EF582E43412F583EFF0904F
:107B560012EBE0FF12AB479012EBE0FE74EE2EF54F
:107B660082E43412F583EFF09012EBE004F080BB70
:107B76007B017A1279EC900D93E0FF901128EFF0DB
:107B86009011297403F0900D94E0FF90112AEFF004
:107B960090112B7401F090112CE4F07D037C0012FF
:107BA600285FEF70067FFF12A260229012EAE0FFC4
:037BB60012A2D543
:017BB90022A9
:0588BE00901298EFF09C
:1088C300901299E4F090129A74FBF07F061242869C
:1088D30090129BEFF07F0712428690129CEFF07F7D
:1088E3000512428690129DEFF07B017A12799A90DD
:1088F3000D68E0FF901128EFF09011297403F090B8
:108903000D69E0FF90112AEFF090112B7401F090A4
:10891300112CE4F07D047C0012285FEF70067FFFCA
:0C89230012A26022901298E0FF12A2D570
:01892F002225
:0590E60090133AEFF0C9
:1090EB0090133B74C8F090133C746AF090133DE4FA
:1090FB00F07B017A13793B900D6DE0FF901128EF17
:10910B00F09011297403F0900D6EE0FF90112AEF8F
:10911B00F090112B7401F090112CE4F07D037C0086
:10912B0012285FEF70067FFF12A2602290133AE0C5
:04913B00FF12A2D5A8
:01913F00220D
:0591400090133EEFF06A
:1091450090133F74C8F0901340746BF0901341E492
:10915500F07B017A13793F900D56E0FF901128EFCF
:10916500F09011297403F0900D57E0FF90112AEF4C
:10917500F090112B7401F090112CE4F07D037C002C
:1091850012285FEF70067FFF12A2602290133EE067
:04919500FF12A2D54E
:0191990022B3
:059789009013BCEFF09D
:10978E009013BD74CFF012AF679013BEEFF07B0154
:10979E007A1379BD900D8EE0FF901128EFF09011A5
:1097AE00297403F0900D8FE0FF90112AEFF09011C5
:1097BE002B7401F090112CE4F07D027C0012285FD6
:1097CE00EF70067FFF12A260229013BCE0FF12A280
:0197DE00D5B5
:0197DF002267
:059682009010E8EFF07C
:109687009010E974EBF07B017A1079EA129D0F7B59
:10969700017A1079E9900DD8E0FF901128EFF0904A
:1096A70011297403F0900DD9E0FF90112AEFF09083
:1096B700112B7401F090112CE4F07D137C0012281B
:1096C7005FEF70067FFF12A260229010E8E0FF12A2
:0296D700A2D51A
:0196D900226E
:05827100900FE9EFF0A1
:10827600900FEA74ECF07B017A0F79EB12578A7B48
:10828600017A0F79EBC003C002C0017B017A0F7936
:10829600EB901174EBF0A3EAF0A3E9F0901177E408
:1082A600F0A37412F0D001D002D00312562D7B0138
:1082B6007A0F79EA900D33E0FF901128EFF09011D4
:1082C600297403F0900D34E0FF90112AEFF090111D
:1082D6002B7401F090112CE4F07D497C0012285F8C
:1082E600EF70067FFF12A26022900FE9E0FF12A254
:0182F600D5B2
:0182F7002264
:05919A00901342EFF00C
:10919F0090134374C8F0901344747CF0901345E41B
:1091AF00F07B017A137943900D91E0FF901128EF36
:1091BF00F09011297403F0900D92E0FF90112AEFB7
:1091CF00F090112B7401F090112CE4F07D037C00D2
:1091DF0012285FEF70067FFF12A26022901342E009
:0491EF00FF12A2D5F4
:0191F3002259
:0591F400901346EFF0AE
:1091F90090134774C8F0901348747DF0901349E4B4
:10920900F07B017A137947900D9FE0FF901128EFC9
:10921900F09011297403F0900DA0E0FF90112AEF4E
:10922900F090112B7401F090112CE4F07D037C0077
:1092390012285FEF70067FFF12A26022901346E0AA
:04924900FF12A2D599
:01924D0022FE
:057F320090109FEFF02C
:107F37009010A074DDF012AF739010A1EFF07B01E9
:107F47007A1079A2129A3D786976007869E6FFEF90
:107F5700C3940C501F7869E6FF7E02EF8EF0A4FFF2
:107F6700AEF074A22FF974103EFA7B011287D7780E
:107F7700690680D77B017A1079A0900DBBE0FF904E
:107F87001128EFF09011297403F0900DBCE0FF90D9
:107F9700112AEFF090112B7401F090112CE4F07D71
:107FA7001A7C0012285FEF70067FFF12A2602290F2
:077FB700109FE0FF12A2D5AC
:017FBE0022A0
:05924E0090134AEFF04F
:1092530090134B74C8F090134C746DF090134DE45D
:10926300F07B017A13794B900D88E0FF901128EF82
:10927300F09011297403F0900D89E0FF90112AEF0B
:10928300F090112B7401F090112CE4F07D037C001D
:1092930012285FEF70067FFF12A2602290134AE04C
:0492A300FF12A2D53F
:0192A70022A4
:0592A80090134EEFF0F1
:1092AD0090134F74C8F0901350746EF0901351E4F6
:1092BD00F07B017A13794F900D99E0FF901128EF13
:1092CD00F09011297403F0900D9AE0FF90112AEFA0
:1092DD00F090112B7401F090112CE4F07D037C00C3
:1092ED0012285FEF70067FFF12A2602290134EE0EE
:0492FD00FF12A2D5E5
:019301002249
:0585810090129EEFF0D6
:108586009012A3E4F090129F74D0F012AF5B901299
:10859600A0EFF012A7A79012A1EFF012A8EA90128E
:1085A600A2EFF09012A2E0FFEF60069012A3E004A3
:1085B600F07B017A12799F900DA6E0FF901128EFCB
:1085C600F09011297403F0900DA7E0FF90112AEFA7
:1085D600F090112B7401F090112CE4F07D047C00D6
:1085E60012285FEF70067FFF12A2602290129EE0B3
:0485F600FF12A2D5F9
:0185FA00225E
:058C3200901352EFF069
:108C370090135374F2F012AE50901354EEF0A3EF6A
:108C4700F07B017A1379541287D77B017A13795312
:108C5700900DA9E0FF901128EFF09011297403F00F
:108C6700900DAAE0FF90112AEFF090112B7401F0FC
:108C770090112CE4F07D037C0012285FEF70067FD3
:0D8C8700FF12A26022901352E0FF12A2D54E
:018C940022BD
:05680D009010BAEFF04D
:106812009010BB74F4F012AE509010BCEEF0A3EFE7
:10682200F07B017A1079BC1287D712AE5F9010BE4E
:10683200EEF0A3EFF07B017A1079BE1287D712AE89
:10684200F39010C0EEF0A3EFF07B017A1079C01242
:1068520087D712AEFC9010C2EEF0A3EFF07B017A64
:106862001079C21287D712AF059010C4EEF0A3EFD1
:10687200F07B017A1079C41287D712AF0E9010C63E
:10688200EEF0A3EFF07B017A1079C61287D712AE31
:106892006E9010C81219DB7B017A1079C812709BB6
:1068A20012AE7D9010CC1219DB7B017A1079CC12DA
:1068B200709B12AF179010D0EEF0A3EFF07B017A2D
:1068C2001079D01287D77B017A1079BB900D4AE0FC
:1068D200FF901128EFF09011297403F0900D4BE016
:1068E200FF90112AEFF090112B7401F090112CE41B
:1068F200F07D177C0012285FEF70067FFF12A26006
:09690200229010BAE0FF12A2D5A8
:01690B002269
:05930200901356EFF08E
:1093070090135774C8F09013587470F0901359E481
:10931700F07B017A137957900DCBE0FF901128EF7E
:10932700F09011297403F0900DCCE0FF90112AEF13
:10933700F090112B7401F090112CE4F07D037C0068
:1093470012285FEF70067FFF12A26022901356E08B
:04935700FF12A2D58A
:01935B0022EF
:0597E0009013BFEFF043
:1097E5009013C074D3F012AF6D9013C1EFF07B01ED
:1097F5007A1379C0900D83E0FF901128EFF0901156
:10980500297403F0900D84E0FF90112AEFF0901178
:109815002B7401F090112CE4F07D027C0012285F7E
:10982500EF70067FFF12A260229013BFE0FF12A225
:01983500D55D
:01983600220F
:059837009013C2EFF0E8
:10983C009013C374E8F012AF859013C4EFF07B0162
:10984C007A1379C3900D66E0FF901128EFF0901118
:10985C00297403F0900D67E0FF90112AEFF090113E
:10986C002B7401F090112CE4F07D027C0012285F27
:10987C00EF70067FFF12A260229013C2E0FF12A2CB
:01988C00D506
:01988D0022B8
:0577EA0090117DEFF09D
:1077EF0090117E74E5F090117F741FF090118074EA
:1077FF0009F0786376007863E6FFEFC39404504591
:10780F007863E6FD7F0A129C767864A6077864E6B3
:10781F00FFEF5401FF7863E6FE74812EF582E434A6
:10782F0011F583EFF07864E6FFEF131313541FFF86
:10783F007863E6FE74852EF582E43411F583EFF05C
:10784F0078630680B17B017A11797E900D8BE0FF12
:10785F00901128EFF09011297403F0900D8CE0FF38
:10786F0090112AEFF090112B7401F090112CE4F08D
:10787F007D0B7C0012285FEF70067FFF12A2602243
:08788F0090117DE0FF12A2D56B
:0178970022CE
:0587620090135AEFF036
:1087670090135B74F1F07B017A13795CC003C0024C
:10877700C0017B017A13795D901289EBF0A3EAF0CF
:10878700A3E9F0D001D002D00312A44F7B017A13E2
:10879700795B900DD6E0FF901128EFF090112974C6
:1087A70003F0900DD7E0FF90112AEFF090112B7492
:1087B70001F090112CE4F07D037C0012285FEF702C
:0F87C700067FFF12A2602290135AE0FF12A2D584
:0187D6002280
:05935C0090135EEFF02C
:1093610090135F74C8F09013607464F0901361E41B
:10937100F07B017A13795F900D7CE0FF901128EF6B
:10938100F09011297403F0900D7DE0FF90112AEF08
:10939100F090112B7401F090112CE4F07D037C000E
:1093A10012285FEF70067FFF12A2602290135EE029
:0493B100FF12A2D530
:0193B5002295
:0593B600901362EFF0CE
:1093BB0090136374C8F09013647465F0901365E4B4
:1093CB00F07B017A137963900DCEE0FF901128EFBB
:1093DB00F09011297403F0900DCFE0FF90112AEF5C
:1093EB00F090112B7401F090112CE4F07D037C00B4
:1093FB0012285FEF70067FFF12A26022901362E0CB
:04940B00FF12A2D5D5
:01940F00223A
:057C5200901249EFF063
:107C57007B017A12794BC003C002C0017B017A1203
:107C6700794D90120DEBF0A3EAF0A3E9F07B017ACE
:107C770012794F901210EBF0A3EAF0A3E9F0D001CC
:107C8700D002D003129A9390124A74C9F07B017AFA
:107C970012794B1287D77B017A12794D1287D77BDE
:107CA700017A12794A900DA2E0FF901128EFF09027
:107CB70011297403F0900DA3E0FF90112AEFF090C3
:107CC700112B7401F090112CE4F07D067C00122832
:107CD7005FEF70067FFF12A26022901249E0FF1249
:027CE700A2D524
:017CE9002278
:0582F8009012A4EFF05C
:1082FD007B017A1279A6C003C002C0017B017A12FC
:10830D0079A89012ADEBF0A3EAF0A3E9F0D001D07B
:10831D0002D00312A1E59012A574F5F07B017A123B
:10832D0079A61287D77B017A1279A81287D77B019C
:10833D007A1279A5900D6AE0FF901128EFF0901157
:10834D00297403F0900D6BE0FF90112AEFF090115E
:10835D002B7401F090112CE4F07D057C0012285F48
:10836D00EF70067FFF12A260229012A4E0FF12A20E
:01837D00D52A
:01837E0022DC
:058BCD00901366EFF0BB
:108BD20090136774FCF07F1412A023901368EEF0D8
:108BE200A3EFF07B017A1379681287D77B017A139E
:108BF2007967900DBFE0FF901128EFF09011297472
:108C020003F0900DC0E0FF90112AEFF090112B7449
:108C120001F090112CE4F07D037C0012285FEF70CC
:0F8C2200067FFF12A26022901366E0FF12A2D518
:018C31002220
:0564F60090136AEFF0B5
:1064FB0090136AE0FFEF121A626514006554016590
:10650B00870265A803000065FE900DB5E0FFEFB4B0
:10651B000112900DB67401F0900DB5E4F07D007F83
:10652B0010125330900DB3E0FFEF6017900DB4E0F5
:10653B00FF1285FBEF70067F0112A2D5227F00129E
:10654B00A2D5227F0312A2D52212AA93EFB403067F
:10655B007F0112A2D522900DB6E0FFEF600B7F03F7
:10656B0012A2D5900DB6E4F0227B017A0D79B77D9E
:10657B00647C00129E3C7F0212A2D5227B017A0D15
:10658B0079B712993BEF7009900DB5E0FFEFB401AD
:0D659B00067F0012A2D5227F0212A2D52297
:1065A800900DB3E0FD7F1012533090136B74C8F058
:1065B80090136C7490F090136DE4F07B017A13796A
:1065C8006B900DB1E0FF901128EFF0901129740342
:1065D800F0900DB2E0FF90112AEFF090112B7401AA
:1065E800F090112CE4F07D037C0012285FEF600B23
:0665F8007F0312A2D52270
:0565FE007F0012A2D590
:016603002274
:05716D0090143AEFF060
:1071720090143AE0FFEF121A6271850071B20100B9
:1071820000722E7F19129F9BEF70087F1A129F9B2D
:10719200EF60177B017A0D7978900D81E0FCA3E016
:1071A200FD129E837F0112A2D5227F0012A2D52258
:1071B2007F19129F9BEF70087F1A129F9BEF6067E7
:1071C200900DC5E0FEA3E0FF900D95E0FCA3E0FD6D
:1071D200C3ED9FFFEC9EFE12A51CC3EF9405EE9437
:1071E20000502E7B017A0D7978129991EF601C7D07
:1071F200007F1A1253307D007F191253307F011223
:10720200AE2012AF317F0012A2D5227F0112A2D589
:1072120022900D95E0FEA3E0FF900DC5EEF0A3EFE6
:0C722200F07F0012A2D5227F0012A2D53E
:01722E00223D
:057521009013C5EFF01E
:107526009013C5E0FFEF121A62753C00755801759D
:10753600BF02000075D67F19129F9BEF70087F1A55
:10754600129F9BEF60067F0112A2D5227F0012A236
:10755600D5227F19129F9BEF70087F1A129F9BEF0F
:1075660060519013C67499F09013C77480F07B0134
:107576007A1379C69011287404F09011297403F0D7
:1075860090112AE4F090112BE4F090112C7401F084
:107596007D027C0012285FEF70137B017A0D793A29
:1075A6007D647C00129E3C7F0212A2D5227F0112CE
:1075B600A2D5227F0012A2D5227B017A0D793A123A
:1075C600993BEF60067F0012A2D5227F0212A2D558
:0175D6002292
:0594100090136EEFF067
:1094150090136F74C8F09013707491F0901371E409
:10942500F07B017A13796F900DC9E0FF901128EF59
:10943500F09011297403F0900DCAE0FF90112AEF06
:10944500F090112B7401F090112CE4F07D037C0059
:1094550012285FEF70067FFF12A2602290136EE064
:04946500FF12A2D57B
:0194690022E0
:058D5700901372EFF023
:108D5C0090137374C8F0901374748EF0900DDEE061
:108D6C00FF901375EFF07B017A137973900DDCE0B3
:108D7C00FF901128EFF09011297403F0900DDDE0B5
:108D8C00FF90112AEFF090112B7401F090112CE44C
:108D9C00F07D037C0012285FEF70067FFF12A2604B
:098DAC0022901372E0FF12A2D51F
:018DB500229B
:0596DA009011C8EFF043
:1096DF009011C974F0F07B017A1179CA129D5B7BEE
:1096EF00017A1179C9900DD2E0FF901128EFF09017
:1096FF0011297403F0900DD3E0FF90112AEFF09031
:10970F00112B7401F090112CE4F07D097C001228CC
:10971F005FEF70067FFF12A260229011C8E0FF1268
:02972F00A2D5C1
:019731002215
:05946A00901376EFF005
:10946F0090137774C8F09013787495F0901379E493
:10947F00F07B017A137977900D36E0FF901128EF8A
:10948F00F09011297403F0900D37E0FF90112AEF3F
:10949F00F090112B7401F090112CE4F07D037C00FF
:1094AF0012285FEF70067FFF12A26022901376E002
:0494BF00FF12A2D521
:0194C3002286
:0594C40090137AEFF0A7
:1094C90090137B74C8F090137C74A3F090137DE41F
:1094D900F07B017A13797B900D7EE0FF901128EFE4
:1094E900F09011297403F0900D7FE0FF90112AEF9D
:1094F900F090112B7401F090112CE4F07D037C00A5
:1095090012285FEF70067FFF12A2602290137AE0A3
:04951900FF12A2D5C6
:01951D00222B
:05951E0090137EEFF048
:1095230090137F74C8F09013807497F0901381E4C4
:10953300F07B017A13797F900D97E0FF901128EF6C
:10954300F09011297403F0900D98E0FF90112AEF29
:10955300F090112B7401F090112CE4F07D037C004A
:1095630012285FEF70067FFF12A2602290137EE045
:04957300FF12A2D56C
:0195770022D1
:05957800901382EFF0EA
:10957D0090138374C8F090138474A4F0901385E451
:10958D00F07B017A137983900DACE0FF901128EFF9
:10959D00F09011297403F0900DADE0FF90112AEFBA
:1095AD00F090112B7401F090112CE4F07D037C00F0
:1095BD0012285FEF70067FFF12A26022901382E0E7
:0495CD00FF12A2D512
:0195D1002277
:108C950090143BEFF090143BE4F07F0012A2D57DD9
:108CA500F47C017FFF1273AB900D77E0FFEF70420C
:108CB500900D70E0FFEF7001227B017A0D795C1257
:108CC500993BEF6006900D9C7401F07B017A0D795C
:108CD5003F12993BEF601B7D007F1A1253307D00D8
