:10A23B00900E44EBF0A3EAF0A3E9F0900E44E0FBA0
:10A24B00A3E0FAA3E0F9758205758300121964FF88
:01A25B0022E0
:106E4400900E47EBF0A3EAF0A3E9F0900E47E0FBC5
:106E5400A3E0FAA3E0F9758203758300743B121969
:106E6400F8900E47E0FBA3E0FAA3E0F97582017500
:106E74008300E41219F8900E47E0FBA3E0FAA3E0C4
:106E8400F9758202758300E41219F8900E47E0FB4D
:106E9400A3E0FAA3E0F9758205758300E41219F8FA
:106EA400900E47E0FBA3E0FAA3E0F9758204758332
:106EB40000E41219F8900E47E0FBA3E0FAA3E0F90E
:106EC400E41219E6900E47E0FBA3E0FAA3E0F9759B
:106ED400820A758300E41219F8900E47E0FBA3E0E0
:0F6EE400FAA3E0F975820B758300E41219F82206
:1056AD00C0D075D010900E4AEBF0A3EAF0A3E9F04C
:1056BD00900E4AE0FBA3E0FAA3E0F9758202758330
:1056CD0000121964FF900E4AE0FBA3E0FAA3E0F983
:1056DD00758201758300121964FEEEB5171D900ECB
:1056ED004AE0FBA3E0FAA3E0F97582057583001289
:1056FD001964FFEF60057F030257B1900E4AE0FB7E
:10570D00A3E0FAA3E0F9758201758300121964FF15
:10571D007E00900E4AE0FBA3E0FAA3E0F9E9240D28
:10572D00F9EA3400FAE92FF9EA3EFAE5991219E699
:10573D00900E4AE0FBA3E0FAA3E0F97582037583AE
:10574D0000121964FF900E4AE0FBA3E0FAA3E0F902
:10575D00758201758300121964FEEEC39F50189077
:10576D000E4AE0FBA3E0FAA3E0F975820175830010
:10577D0074011219B38015900E4AE0FBA3E0FAA351
:10578D00E0F9758201758300E41219F8900E4AE074
:10579D00FBA3E0FAA3E0F97582057583007401128D
:0757AD0019B37F01D0D022E7
:0B5A9C00900CD8EBF0A3EAF0A3E9F0B7
:105AA700900CD8E0FBA3E0FAA3E0F97582057583B3
:105AB70000121964FFEF70067F0322025B84A2AC19
:105AC7009204C2AC900CD8E0FBA3E0FAA3E0F9750E
:105AD7008202758300121964FF7E00900CD8E0FBE8
:105AE700A3E0FAA3E0F9E9240DF9EA3400FAE92F73
:105AF700F9EA3EFA12194BFF900CDBE0FBA3E0FA40
:105B0700A3E0F9EF1219E6900CD8E0FBA3E0FAA3A3
:105B1700E0F9758203758300121964FF900CD8E0D1
:105B2700FBA3E0FAA3E0F9758202758300121964FA
:105B3700FEEEC39F5018900CD8E0FBA3E0FAA3E059
:105B4700F975820275830074011219B38015900CE0
:105B5700D8E0FBA3E0FAA3E0F9758202758300E4BD
:105B67001219F8900CD8E0FBA3E0FAA3E0F97582CC
:0F5B77000575830074FF1219B3A20492AC7F016D
:015B860022FC
:10887000900E4DEBF0A3EAF0A3E9F0900E4DE0FB73
:10888000A3E0FAA3E0F9758203758300740312195B
:10889000F8900E4DE0FBA3E0FAA3E0F975820275B3
:1088A0008300E41219F8900E4DE0FBA3E0FAA3E078
:1088B000F9758201758300E41219F8900E4DE0FB02
:1088C000A3E0FAA3E0F9758204758300E41219F8B5
:1088D000900E4DE0FBA3E0FAA3E0F9E41219E622C2
:108D0B00900E50EBF0A3EAF0A3E9F0900E50E0FBCD
:108D1B00A3E0FAA3E0F9758203758300121964FFCF
:108D2B00900E50E0FBA3E0FAA3E0F9758204758383
:108D3B0000121964FEEEB507057EFF7FFF22900E31
:108D4B0050E0FBA3E0FAA3E0F975820275830012F1
:068D5B001964FF7E0022F6
:107C3A00900D1AEBF0A3EAF0A3E9F0900D1DECF019
:107C4A00A3EDF0900D1AE0FBA3E0FAA3E0F9758228
:107C5A0003758300121964FF7E00EF24FFFFEE34E0
:107C6A00FFFE900D1DE0FCA3E0FDD3ED9FEE6480C6
:107C7A00F8EC6480985010900D1DE0FEA3E0FFC35D
:107C8A00EE6480948050077B007A00790022900D80
:107C9A001AE0FBA3E0FAA3E0F9E92406F9EA3400C2
:107CAA00FA900D1DE0FEA3E0FF7C007D3C121A1A3B
:077CBA00E92FF9EA3EFA226E
:10863000900E53EBF0A3EAF0A3E9F0900E53E0FBA9
:10864000A3E0FAA3E0F9758203758300121964FFB1
:10865000900E53E0FBA3E0FAA3E0F9758202758364
:108660000074011219B3FEEEB50715900E53E0FB2E
:10867000A3E0FAA3E0F9758202758300E41219F809
:10868000900E53E0FBA3E0FAA3E0F9E41219E690A0
:108690000E53E0FBA3E0FAA3E0F9758204758300B2
:0686A00074011219B3225F
:10A09B00900E56EBF0A3EAF0A3E9F0900E56E0FB1E
:10A0AB00A3E0FAA3E0F9758204758300121964FF2B
:03A0BB007E002202
:10966F00900E59EBF0A3EAF0A3E9F0900E59E0FB4E
:10967F00A3E0FAA3E0F9758204758300121964FF61
:10968F00EF70057EFF7FFF22900E59E0FBA3E0FAFB
:10969F00A3E0F9758201758300121964FF7E002221
:10816300900E5CEBF0A3EAF0A3E9F0900E5CE0FB69
:10817300A3E0FAA3E0F9758204758300121964FF82
:10818300EF605B900E5CE0FBA3E0FAA3E0F975827D
:1081930003758300121964FF900E5CE0FBA3E0FA01
:1081A300A3E0F975820175830074011219B3FEEE21
:1081B300B50715900E5CE0FBA3E0FAA3E0F9758226
:1081C30001758300E41219F8900E5CE0FBA3E0FA5A
:0F81D300A3E0F975820475830074FF1219B322BB
:1077C900900CDEEBF0A3EAF0A3E9F0900CE1ECF009
:1077D900A3EDF0900CDEE0FBA3E0FAA3E0F91219A7
:1077E9004BFFEFC3943C5068900CE3E0FFC0079057
:1077F9000CDEE0FBA3E0FAA3E0F9E92406F9EA3498
:1078090000FA900CE1E0FEA3E0FF7C007D3C121A37
:107819001AE92FF9EA3EFAC003C002C001900CDE52
:10782900E0FBA3E0FAA3E0F912194BFF7E00D001B7
:10783900D002D003E92FF9EA3EFAD007EF1219E690
:10784900900CDEE0FBA3E0FAA3E0F97401121991B0
:01785900220C
:05000600C201C200224E
:0596AF00900DB0EFF08A
:1096B400900DB17409F0900DB0E0FFEF600D900DC6
:1096C400B2E4F0A37402F0D200800C900DB2E4F086
:1096D400A3E4F0C200C2017B017A0D79B112643EA9
:0996E400EFB402037F02227F00B3
:0196ED00225A
:05952900900DB4EFF00D
:10952E00900DB57409F0900DB4E0FFEF6010900D42
:10953E00B6E4F0A37403F0300010D201800C900D4D
:10954E00B6E4F0A3E4F0C201C2007B017A0D79B556
:0C955E0012643EEFB402037F02227F0083
:01956A0022DE
:089C0600900D1FEEF0A3EFF03A
:109C0E00900D21740AF0900D1FE0FEA3E0FF900D61
:109C1E0022EEF0A3EFF07B017A0D792112643EEF74
:089C2E00B402037F02227F0053
:019C3600220B
:06A5F900A201E433FF2281
:0EA580007F41127A96EF70037F00227F022245
:0EA58E0012A2FBEF640360037F00227F012214
:0B989800900D24EBF0A3EAF0A3E9F030
:1098A3007B017A0D7927128AE8EF6403601E900D1D
:1098B30027E0FEA3E0FF7E00900D24E0FBA3E0FA87
:0E98C300A3E0F9EE8FF0121B467F00227F011A
:0198D1002274
:0C008600900249E4F090024A74FFF0225E
:0B894F00900DB8EBF0A3EAF0A3E9F0F4
:10895A00900249E0FFEFC3944140037FFF22900257
:10896A0049E0FF900DBBEFF0900DB8E0FBA3E0FAF1
:10897A00A3E0F9900DBBE0FF75F009EFA42400F520
:10898A0082E5F03400F583EBF0A3EAF0A3E9F09076
:10899A000DBBE0FF75F009EFA42404F582E5F0347D
:1089AA0000F583E4F0900249E004F0900DBBE0FF8B
:0189BA00229A
:10976C00900EAAEFF0900EABEDF0900EAAE0FF7504
:10977C00F009EFA42404F582E5F03400F5837402BB
:10978C00F0900EABE0FF900EAAE0FE75F009EEA48F
:0D979C002403F582E5F03400F583EFF022A0
:1097E600900ED4EFF0900ED4E0FFEFB4FF17900286
:1097F6004AE0FF75F009EFA42404F582E5F0340091
:10980600F583E4F022900ED4E0FF75F009EFA4246E
:0C98160004F582E5F03400F583E4F02254
:1099F200900ED5EFF0900ED5E0FF90024AE0FE7592
:109A0200F009EEA42403F582E5F03400F583EFF0CB
:109A120090024AE0FF75F009EFA42404F582E5F014
:089A22003400F5837402F02208
:106B6400900E5FEFF0900E60ECF0A3EDF0900E5FEE
:106B7400E0FFEF64FF705290024AE0FF75F009EF06
:106B8400A42404F582E5F03400F5837403F0900244
:106B94004AE0FF7E09EF8EF0A4FFAEF074052FF9F2
:106BA40074003EFA7B01C003C002C001900E60E095
:106BB400FEA3E0FF7C007D0A121A2CAC06AD07D0C0
:106BC40001D002D00312934322900E5FE0FF75F0D0
:106BD40009EFA42404F582E5F03400F5837403F08E
:106BE400900E5FE0FF7E09EF8EF0A4FFAEF0740517
:106BF4002FF974003EFA7B01C003C002C001900E5D
:106C040060E0FEA3E0FF7C007D0A121A2CAC06AD06
:0B6C140007D001D002D00312934322EE
:10500000900ED6E4F0900249E0FF900ED6E0FEEE5E
:10501000C39F400302513075FFA5900249E0FF9005
:10502000024AE004FEF0EEB5070590024AE4F09073
:10503000024AE0FF75F009EFA42404F582E5F0349C
:1050400000F583E0FFEF6402705190024AE0FF75C3
:10505000F009EFA42404F582E5F03400F58374012F
:10506000F090024AE0FF75F009EFA42403F582E511
:10507000F03400F583E0FF90024AE0FE75F009EE9F
:10508000A42400F582E5F03400F583E0FBA3E0FA08
:10509000A3E0F989828A83121D222290024AE0FF4E
:1050A00075F009EFA42404F582E5F03400F583E0FF
:1050B000FFEF6403707190024AE0FF7E09EF8EF00B
:1050C000A4FFAEF074052FF974003EFA7B01128D37
:1050D00061EF6401705190024AE0FF75F009EFA49E
:1050E0002404F582E5F03400F5837401F090024A5F
:1050F000E0FF75F009EFA42403F582E5F03400F534
:1051000083E0FF90024AE0FE75F009EEA42400F56A
:1051100082E5F03400F583E0FBA3E0FAA3E0F9892F
:10512000828A83121D2222900ED6E004F0025005DE
:01513000225C
:10A3CB00900ED7EFF0900ED7E0FF75F009EFA424B5
:0CA3DB0004F582E5F03400F583E0FF2279
:10A3E700900ED8EFF0900ED8E0FF75F009EFA42497
:0CA3F70003F582E5F03400F583E0FF225E
:0B86A600900C99EBF0A3EAF0A3E9F0C0
:1086B100900C99E0FBA3E0FAA3E0F9900C9CEBF09D
:1086C100A3EAF0A3E9F0900C9CE0FBA3E0FAA3E09D
:1086D100F9758201758300121964FF900C9FEFF008
:1086E100900C9CE0FBA3E0FAA3E0F912194BFF9078
:1086F1000C9CE0FBA3E0FAA3E0F97582017583000D
:10870100EF1219F8900C9FE0FF900C9CE0FBA3E0A6
:08871100FAA3E0F9EF1219E6EA
:01871900223D
:10A45600900E62EBF0A3EAF0A3E9F0900E62E0FB47
:0AA46600A3E0FAA3E0F91286A62293
:0B65E500900CA0EBF0A3EAF0A3E9F09B
:1065F000900CA0E0FBA3E0FAA3E0F9900CA3EBF071
:10660000A3EAF0A3E9F0900CA3E0FBA3E0FAA3E077
:10661000F9758203758300121964FF900CA6EFF0E0
:10662000900CA3E0FBA3E0FAA3E0F912194BFF9052
:106630000CA3E0FBA3E0FAA3E0F9758203758300E5
:10664000EF1219F8900CA6E0FF900CA3E0FBA3E07A
:10665000FAA3E0F9EF1219E6900CA3E0FBA3E0FA2D
:10666000A3E0F9758202758300121964FF900CA6ED
:10667000EFF0900CA3E0FBA3E0FAA3E0F975820130
:10668000758300121964FF900CA3E0FBA3E0FAA34A
:10669000E0F9758202758300EF1219F8900CA6E0FC
:1066A000FF900CA3E0FBA3E0FAA3E0F9758201756B
:0666B0008300EF1219F84F
:0166B60022C1
:10A47000900E65EBF0A3EAF0A3E9F0900E65E0FB27
:0AA48000A3E0FAA3E0F91265E5225B
:0B5B8700900BFEEBF0A3EAF0A3E9F0A6
:105B9200900C0474FF75F0FF121ACDAFF0FEEF4EB9
:105BA2007003025C6F900C04E0FEA3E0FFEF25E0BF
:105BB200FFEE33FE900BFEE0FBA3E0FAA3E0F98FC9
:105BC200828E83121B0EFDACF0900C04E0FEA3E06B
:105BD200FFEF25E0FFEE33FE900C01E0FBA3E0FABD
:105BE200A3E0F98F828E83EC8DF0121B65900C047A
:105BF200E0FEA3E0FFEF25E0FFEE33FE900C01E0B4
:105C0200FBA3E0FAA3E0F9E92FF9EA3EFA900C06C9
:105C1200EBF0A3EAF0A3E9F0900C06E0FBA3E0FAB4
:105C2200A3E0F9758201758300121964FF900C09D3
:105C3200EFF0900C06E0FBA3E0FAA3E0F912194B97
:105C4200FF900C06E0FBA3E0FAA3E0F97582017570
:105C52008300EF1219F8900C09E0FF900C06E0FBAC
:0D5C6200A3E0FAA3E0F9EF1219E6025B924D
:015C6F002212
:10921700900C61EBF0A3EAF0A3E9F0900C61E0FB9E
:10922700A3E0FAA3E0F9C003C002C001900C64E018
:10923700FBA3E0FAA3E0F9900C01EBF0A3EAF0A39B
:10924700E9F0900C67E0FEA3E0FF900C04EEF0A3BA
:0C925700EFF0D001D002D003125B8722A0
:0B4C0500900C0AEBF0A3EAF0A3E9F02A
:104C1000900C1074FF75F0FF121ACDAFF0FEEF4E3E
:104C20007003024D61900C10E0FEA3E0FFEF7802EC
:104C3000C333CE33CED8F9FF900C0AE0FBA3E0FAE1
:104C4000A3E0F98F828E83121C02C004C005C00647
:104C5000C007900C10E0FEA3E0FFEF7802C333CE54
:104C600033CED8F9FF900C0DE0FBA3E0FAA3E0F9F6
:104C70008F828E83D007D006D005D004121C3290CC
:104C80000C10E0FEA3E0FFEF7802C333CE33CED8A2
:104C9000F9FF900C0DE0FBA3E0FAA3E0F9E92FF98E
:104CA000EA3EFA900C12EBF0A3EAF0A3E9F0900CC4
:104CB00012E0FBA3E0FAA3E0F9758203758300120A
:104CC0001964FF900C15EFF0900C12E0FBA3E0FAD2
:104CD000A3E0F912194BFF900C12E0FBA3E0FAA33A
:104CE000E0F9758203758300EF1219F8900C15E056
:104CF000FF900C12E0FBA3E0FAA3E0F9EF1219E633
:104D0000900C12E0FBA3E0FAA3E0F9758202758330
:104D100000121964FF900C15EFF0900C12E0FBA349
:104D2000E0FAA3E0F9758201758300121964FF901F
:104D30000C12E0FBA3E0FAA3E0F975820275830090
:104D4000EF1219F8900C15E0FF900C12E0FBA3E0B5
:104D5000FAA3E0F9758201758300EF1219F8024C8D
:014D60001042
:014D6100222F
:10926300900C69EBF0A3EAF0A3E9F0900C69E0FB42
:10927300A3E0FAA3E0F9C003C002C001900C6CE0C4
:10928300FBA3E0FAA3E0F9900C0DEBF0A3EAF0A343
:10929300E9F0900C6FE0FEA3E0FF900C10EEF0A35A
:0C92A300EFF0D001D002D003124C0522E5
:0BA5B600900CE47402F0D2B1C2B1229C
:057A9600900E68EFF006
:107A9B0012A5C1EFB401037F0222900CE47403F032
:107AAB007D017F12129980C2B012A5E4AE02AF0124
:107ABB00900E69EEF0A3EFF0900E68E0FF900E6968
:107ACB00E0FCA3E0FD8D828C83EFF0900E69E0FE6D
:107ADB00A3E0FF8F828E83A3E4F0900E69E0FEA3F8
:107AEB00E0FF8F828E83A3A3E4F07B017A0C79E510
:107AFB00C003C002C0017BFF7AA079BE900C76EB6D
:107B0B00F0A3EAF0A3E9F0D001D002D0037F037E0B
:067B1B000012871A7F0032
:017B21002241
:0B643E00900D29EBF0A3EAF0A3E9F0B9
:1064490012A5C1EFB401037F0222900CE47403F09A
:106459007D017F12129980D2B012A5E4AE02AF017C
:10646900900D2CEEF0A3EFF0900D29E0FBA3E0FADC
:10647900A3E0F912194BFF900D2CE0FCA3E0FD8D70
:10648900828C83EFF0900D29E0FBA3E0FAA3E0F9F9
:10649900758201758300121B0EFFAEF07F00EEFFBF
:1064A9007E00900D2CE0FCA3E0FD8D828C83A3EF90
:1064B900F0900D29E0FBA3E0FAA3E0F975820175DC
:1064C9008300121B0EFFAEF0EF54FFFF900D2CE07E
:1064D900FCA3E0FD8D828C83A3A3EFF07B017A0CF2
:1064E90079E5C003C002C0017BFF7AA079BE900C98
:1064F90076EBF0A3EAF0A3E9F0D001D002D0037F54
:08650900037E0012871A7F00D7
:016511002267
:10A0BE00C0D075D018900ED9EFF0900ED9E0FFEF0A
:10A0CE007008900CE47401F08006900CE47402F0B9
:03A0DE00D0D022BD
:108AE800900E6BEBF0A3EAF0A3E9F0900CE4E0FF42
:108AF800EFB403037F0322900CE4E0FFEFB4012EF0
:108B0800900CE7E0FF900E6BE0FBA3E0FAA3E0F91E
:108B1800758201758300EF1219F8900CE6E0FF905A
:108B28000E6BE0FBA3E0FAA3E0F9EF1219E67D0073
:0E8B38007F12129980120016900CE4E0FF22CA
:10A2FB00900CE4E0FFEFB403037F03227D007F1299
:0EA30B00129980C2B0120016900CE4E0FF22FE
:10548F0075FFDE75FFAD129EF0129822129B6C1203
:10549F00A33712008612972D12A571128F0112A237
:1054AF00DC12A5CC12A3AE12009612A5B612A5EB74
:1054BF001200061295AC12A14A12A007123DCC128F
:1054CF009F40129F90D2AF124AA6127F5F129B3855
:1054DF00123B087BFF7A78795A12894F900CA7EF0D
:1054EF00F07BFF7A93798A12894F900CAAEFF07BA9
:1054FF00FF7A9279FB12894F900CACEFF07BFF7A19
:10550F0080796312894F900CADEFF07BFF7A617950
:10551F00B712894F900CA8EFF07BFF7A31796012A8
:10552F00894F900CA9EFF07BFF7A6C79DA12894FD3
:10553F00900CABEFF0900CA8E0FF900CA9E0FD12DF
:10554F00A2BD12A61D7D0012976C900CA7E0FF7DE7
:10555F000012976C900CAAE0FF7D0012976C900CD4
:10556F00A8E0FF7D0012976C900CACE0FF7D00125D
:10557F00976C900CADE0FF7D0012976C900CABE038
:0E558F00FF7D0012976C75FF0712500080FB25
:01559D0022EB
:109B3800900EAC74E0F0E5EF30E1047F0080027F26
:109B480001900EADEFF07B017A0E79AC900C277482
:109B580001F0900C28E4F0900C29E4F07D037C00DF
:039B680012406345
:019B6B0022D7
:109EF00075840F43E10443E10275AD0075A500755B
:109F000090FF43E18043E20143E20443E21043E275
:089F10008043E3407584002248
:03001B00020019C7
:0100190032B4
:03002B0002001AB6
:01001A0032B3
:03003B000200219F
:0100210032AC
:0300430002002296
:0100220032AB
:03004B0002002987
:0100290032A4
:10A31900758400C2CAC2C953C8FE75CAFF75CBDBB2
:0EA3290053C9E775CCFF75CDFFC2ADD2CA2275
:10A33700758400C28C900CF4E4F0A3E4F043890127
:0EA34700758AFF758CDB538EF4D2A9D28C225E
:03000B0002A0E16F
:10A0E100C0E0C083C082C28D900CF5E004F0700620
:10A0F100900CF4E004F0758AFF758CDBD082D0837C
:03A10100D0E03279
:10A4D5007584004389205389EF758DD0538EEF53D2
:08A4E5008EF4D28E4388402260
:10A48A0075840253C8FB75C90853C8FD53E7FB75A9
:09A49A00CBFF75CAB843C80422C7
:0300830002002A4E
:01002A0032A3
:1098220075840F758C67900EAEE4F0A3E4F0900E91
:10983200AEE0FEA3E0FFC3EE648094815010900E70
:10984200AFE004F07006900EAEE004F080E04397C3
:0A98520001538A7F43A604758400C9
:01985C0022E9
:089FE000900CEAEEF0A3EFF093
:109FE8007B017A0C79EC900CEAE0FCA3E0FD12937B
:0E9FF800437B017A0C79EC128D61EFB401F31A
:01A006002237
:10934300900D2EEBF0A3EAF0A3E9F0900D31ECF0D1
:10935300A3EDF012A391900D2EE0FBA3E0FAA3E09E
:10936300F9EE8FF0121B46900D31E0FEA3E0FF9063
:109373000D2EE0FBA3E0FAA3E0F9758202758300EA
:07938300EE8FF0121B6522C2
:0B8D6100900D33EBF0A3EAF0A3E9F063
:108D6C0012A391900D36EEF0A3EFF0900D33E0FBD3
:108D7C00A3E0FAA3E0F9121AE3FFAEF0900D36E08F
:108D8C00FCA3E0FD128BA4900D33E0FBA3E0FAA34F
:108D9C00E0F9758202758300121B0EFDACF0C3EF77
:0A8DAC009DEE9C50037F00227F0122
:018DB600229A
:07A5D6007B017A0C79F022F1
:10A39100C2A9900CF4E0FEA3E0FF900EB0EEF0A392
:0CA3A100EFF0D2A9900EB0E0FEA3E0FFA8
:01A3AD00228D
:108BA400900DBCEEF0A3EFF0900DBEECF0A3EDF051
:108BB400900DBCE0FEA3E0FF900DBEE0FCA3E0FD41
:108BC400D3ED9FEC9E4018900DBCE0FEA3E0FF9017
:108BD4000DBEE0FCA3E0FDC3ED9FFFEC9EFE2290E2
:108BE4000DBCE0FEA3E0FFC3E49FFFE49EFE900DF6
:0D8BF400BEE0FCA3E0FDEF2DFFEE3CFE22F5
:109B6C00A2AF9206C2AF75840043911043910F755A
:109B7C00985012A48AC299C298D2ACD2BCA20692B6
:109B8C00AFC208900839E4F090089EE4F0900838D1
:039B9C007463F0FF
:019B9F0022A3
:03002300027CC19B
:107CC100C0E0C0F0C083C082C0D075D010C2ACE5A6
:107CD1009130E70353917FE59130E6035391BF3033
:107CE100980BC2987B017A0779EF1256AD30994A09
:107CF100C29990089EE0FF900839E0FEEE6F60386F
:107D010090089EE0FF743A2FF582E43408F583E091
:107D1100FF8F9990089EE0FF7E00EF2401FFEE3473
:107D210000FE7C007D64121A2CAF1590089EEFF0C6
:107D3100900838E004F08002C208D2ACD0D0D082E2
:077D4100D083D0F0D0E03246
:0300A30002003127
:01003100329C
:105F1C00900D38EBF0A3EAF0A3E9F0900D3BEDF017
:105F2C00900D3BE0FF900838E0FEEEC39F50037FDE
:105F3C000122A2AC9207C2AC900D3CE4F0900D3B58
:105F4C00E0FF900D3CE0FEEEC39F504F900D38E00B
:105F5C00FBA3E0FAA3E0F9900D3CE0FF8F82758380
:105F6C0000121964FF900839E0FE743A2EF582E4B1
:105F7C003408F583EFF0900839E0FF7E00EF240140
:105F8C00FFEE3400FE7C007D64121A2CAF059008E5
:105F9C0039EFF0900D3CE004F080A2900838E0FF5F
:105FAC00900D3BE0FEC3EF9EFF900838EFF0200809
:105FBC0038D20890089EE0FF743A2FF582E434083A
:105FCC00F583E0FF8F9990089EE0FF7E00EF24019F
:105FDC00FFEE3400FE7C007D64121A2CAF05900895
:0F5FEC009EEFF0900838E004F0A20792AC7F001F
:015FFB002283
:07A5DD007B017A0779EF22F0
:1066B70054090A4F4F5F5F6F6F7F7F0F0F1F1F2FA9
:0766C7002F3F3F878F979FD3
:10A3AE00C202C203758400759A4075F809759DFF47
:0DA3BE0043A6F843A70343F60143E601223E
:10871A00900C71EEF0A3EFF0900C73EBF0A3EAF07B
:10872A00A3E9F075840053E6FE900C73E0FBA3E026
:10873A00FAA3E0F9AE02AF019008A4EEF0A3EFF0BD
:10874A00900C71E0FEA3E0FF9008A3EFF0900C7686
:10875A00E0FBA3E0FAA3E0F99008A0EBF0A3EAF0AB
:10876A00A3E9F090089FE4F090089FE0FF04F074FA
:10877A00A62FF582E43408F583E0FF8F9B43E601D8
:03878A007F00224B
:0300330002525A1C
:10525A00C0E0C0F0C083C082C0D075D01820FF0360
:10526A00025317C2FF30030AE5A05407FFEF4407B1
:10527A00F5A090089FE0FF7E00EF24FFFFEE34FFC9
:10528A00FE9008A4E0FCA3E0FD8D828C83E5822FCA
:10529A00F582E5833EF583E59BF09008A3E0FF9055
:1052AA00089FE0FEEEC39F503E30032290091EE4A1
:1052BA00F090091EE0FFEFC39414500890091EE015
:1052CA0004F080EDE5A05407FFEF448FF5A09008A5
:1052DA009FE0FF04F074A62FF582E43408F583E01A
:1052EA00FF8F9B807D80269008A3E0FF90089FE0B7
:1052FA00FEEEB51F189008A0E0FBA3E0FAA3E0F9C0
:10530A0089828A837F007E00121D22805530FE1A10
:10531A00C2FE9008A0E0FBA3E0FAA3E0F989828A22
:10532A00837F027E00121D22803830FD1AC2FD9052
:10533A0008A0E0FBA3E0FAA3E0F989828A837F034D
:10534A007E00121D22801B30FC18C2FC9008A0E0CF
:10535A00FBA3E0FAA3E0F989828A837F047E001224
:0D536A001D22D0D0D082D083D0F0D0E03210
:0BA5C1003002037F0122D2027F002243
:03001600C2022201
:10998000900EB2EFF0900EB3EDF0900EB3E0FFEF5B
:10999000B4011B900EB2E0FF740A2FF582E4340983
:1099A000F583E0FFE5A05407FEEE4FF5A022E5A009
:0999B0005407FFEF4407F5A02263
:07A5E4007B017A0879A62231
:10A54100900EDAEFF0900EDAE0FFEF24FF92032293
:1066CE00490AB5010305070103050708480ABE007C
:0766DE000102030405060799
:0AA5CC0012A319129BA0129D2C226D
:109BA00075840075BA0075BC18900AC6E4F075BBE0
:109BB0000175D1077E007F127D007B017A0A799BB7
:109BC000121D5575E80043E88043E702D2AFC20A90
:049BD0007584002276
:109D2C0075840275BA0075BCF9900AC7E4F075BB6E
:109D3C00007E007F087D007B017A0A79AD121D55EB
:0F9D4C0075E80643E88043E710D2AF7584002224
:03007B00027B22E3
:107B2200C0E0C083C082C0D075D00853E7FDC2ED6B
:107B3200AFBF7E00900AC6E0FDED25E0249BF582F2
:107B4200E4340AF583EEF0A3EFF0900AC6E0FFEF0B
:107B520025E0249BF582E4340AF583C083C082E0E9
:107B6200FEA3E0FFEF7F00FED082D083EEF0A3EF12
:107B7200F0900AC6E0FFEF25E0249BF582E4340A88
:107B8200F583C083C082E0FEA3E0FFADBE7C00EEC1
:107B92004CFEEF4DFFD082D083EEF0A3EFF043E72F
:0C7BA20002D20AD0D0D082D083D0E032D2
:03009300029ACE00
:109ACE00C0E0C0F0C083C082C0D075D00853E7EFAD
:109ADE00C2ED900AC7E0FF74AD2FF582E4340AF5AB
:109AEE0083E5BEF0129EC543E710D0D0D082D0835E
:059AFE00D0F0D0E032C1
:059BD400900E6EEFF0A1
:109BD90053E7FD900E6EE0FFEF25E0249BF582E44C
:109BE900340AF583E0FEA3E0FF900E6FEEF0A3EFD9
:0C9BF900F043E702900E6FE0FEA3E0FFD7
:019C0500223C
:0597A900900E71EFF0CD
:1097AE0053E7EF900E71E0FF74AD2FF582E4340AAB
:1097BE00F583E0FF7E00900E72EEF0A3EFF043E72C
:1097CE0010900E72E0FEA3E0FFEFC4F8540FC868CD
:0797DE00FFEEC454F048FE49
:0197E5002261
:10A05300900AC6E004FFF0EFB40905900AC6E4F0E5
:10A06300900AC6E0FF74B52FF582E4340AF583E065
:04A07300FF8FBB227E
:109EC500C0D075D008900AC7E004FFF0EFB40805CC
:109ED500900AC7E4F0900AC7E0FF74BE2FF582E44C
:0B9EE500340AF583E0FF8FBBD0D022D1
:03001E00A20A2211
:05000E00A209920A2284
:06A5FF00900AC6E0FF22F5
:108F01007E007F627D007B017A097925121D557EE5
:108F1100007F037D007B017A097921121D557E00B6
:108F21007F027D007B017A097987121D557E097FB9
:108F31002690098AEEF0A3EFF0900924E4F090095D
:0F8F410089E4F075840043D10190091FE4F02208
:05785A00900EDBEFF0D1
:10785F00900EDBE0FFEF121CCB78B50078C70178F4
:10786F007802788A03000078E4127562EF70067F61
:10787F00031299F2227F021299F2221293D1EF642E
:10788F0004601D128F50EFB401077F001299F28030
:10789F00057F021299F27DBE7C007FFF126B64227E
:1078AF007F031299F222127DCFEF70067F0112999A
:1078BF00F2227F001299F22212985DEF6404600F9A
:1078CF007F021299F27DBE7C007FFF126B64227FD4
:0A78DF00011299F2227F021299F2C1
:0178E900227C
:1075620012A5C1EFB401037F02229009207404F036
:1075720012A5E4AE02AF01900E74EEF0A3EFF0900C
:107582000E74E0FEA3E0FF8F828E837433F0900EC0
:10759200767401F0900E76E0FFEFD3943050259090
:1075A2000E76E0FF900E74E0FCA3E0FD8D828C83EA
:1075B200E5822FF582E43583F583E4F0900E76E0E0
:1075C20004F080D07F0112A5417D017F11129980C4
:1075D200129F18C003C002C0017BFF7AA1790490F8
:1075E2000C76EBF0A3EAF0A3E9F0D001D002D003CD
:0975F2007F317E0012871A7F0030
:0175FB00226D
:107DCF0012A5C1EFB401037F02229009207404F0C1
:107DDF0012A5E4AE02AF01900EB4EEF0A3EFF09057
:107DEF000EB4E0FEA3E0FF8F828E837434F0900E0A
:107DFF00B4E0FEA3E0FF8F828E83A3E4F0900EB475
:107E0F00E0FEA3E0FF8F828E83A3A3E4F07F011235
:107E1F00A5417D017F111299807B017A097921C0DB
:107E2F0003C002C0017BFF7AA17904900C76EBF0BE
:107E3F00A3EAF0A3E9F0D001D002D0037F037E00C4
:057E4F0012871A7F00FC
:017E5400220B
:10A10400C0D075D018900EDCEFF0900EDCE0FFEFBD
:10A1140070089009207401F080069009207402F000
:03A12400D0D02276
:1093D100900920E0FFEFB404037F04227D007F1198
:1093E1001299807F0012A541900924E0FFEF75F0EA
:1093F10031A42426F582E43409F583AF82AE83904B
:10940100098AEEF0A3EFF090091F7401F012001623
:06941100900920E0FF229B
:10985D00900920E0FFEFB404037F04227D007F1107
:10986D001299807F0012A541900922E0FF9009878F
:10987D00EFF0900923E0FF900988EFF090091F7435
:0B988D0001F0120016900920E0FF22FD
:05956B00900E77EFF007
:1095700053E6FE90098AE0FEA3E0FF8F828E83C04F
:1095800083C082900E77E0FFD082D08375F002EF27
:10959000121CBFE0FEA3E0FF900E78EEF0A3EFF008
:0B95A00043E601900E78E0FEA3E0FF20
:0195AB00229D
:107A0800900CF6EFF0900CF7ECF0A3EDF0900CF979
:107A1800EBF0A3EAF0A3E9F053E6FE900CF6E0FFE2
:107A28007E00900CF7E0FCA3E0FDC3ED9FFFEC9E09
:107A3800FEEF2401FFEE3400FEEF25E0FFEE33FEFB
:107A4800C006C007900CF6E0FF7E02EF8EF0A4FFA0
:107A5800AEF090098AE0FCA3E0FDEF2DFFEE3CFEBE
:107A6800AA06A9077B01C003C002C001900CF9E077
:107A7800FBA3E0FAA3E0F9A801AC02AD03D001D062
:0E7A880002D003D007D00612192543E60122D2
:1098D200900CFCEBF0A3EAF0A3E9F053E6FE90094A
:1098E20087E0FF900CFCE0FBA3E0FAA3E0F9EF12A3
:1098F20019E6900988E0FF900CFFE0FBA3E0FAA3D1
:0A990200E0F9EF1219E643E6012236
:109F1800900924E0FFC374019FFF900924EFF0909B
:109F28000924E0FF7E31EF8EF0A4FFAEF074252FF8
:089F3800F974093EFA7B0122D5
:06A6050090091FE0FF2296
:108F5000900EB6E4F0900EB7E4F07B017A0E79B68D
:108F6000C003C002C0017B017A0E79B7900CFFEB01
:108F7000F0A3EAF0A3E9F0D001D002D0031298D216
:108F8000900EB6E0FFEF600B900989E0FFEFD394FD
:0E8F9000054009900989E004F07F01227F006E
:018F9E0022B0
:0A66E50042024B000042024D025336
:109F400090028A7437F090028AE0FFEF24FEFF90BF
:109F5000028CEFF07BFF7A2D79AF12894F90024F80
:089F6000EFF090028EE4F02204
:103B08007F0A7E00129FE0900C2EE4F0900C2EE0CD
:103B1800FFEFC394084003023D94900C2EE0FF9001
:103B2800028AE0FB7D007C00125377EF70EC900C6A
:103B38002EE0FF7E37EF8EF0A4FFAEF074902FF9E1
:103B480074023EFA7B01900C2EE0FF90028AE0FEA0
:103B5800900D64EEF0127EDAEF640460D1900C2EC2
:103B6800E0FF7E37EF8EF0A4FFAEF074902FF9746B
:103B7800023EFA7B0190028CE0FD128A25900C35FA
:103B8800EEF0A3EFF0900C2EE0FF75F037EFA424D1
:103B9800C5F582E5F03402F583E0FEA3E0FF900C62
:103BA80035E0FCA3E0FDEDB50713ECB5060F900C6E
:103BB80035E0FEA3E0FFEF4E6003023D6D900C2E52
:103BC800E0FF90028AE0FB7D007C01125377EF70E2
:103BD800EC900C2EE0FF7E37EF8EF0A4FFAEF07471
:103BE800902FF974023EFA7B01900C2EE0FF9002B0
:103BF8008AE0FE900D64EEF0127EDAEF640460D184
:103C0800900C2EE0FF7E37EF8EF0A4FFAEF074909C
:103C18002FF974023EFA7B0190028CE0FD128A258E
:103C2800900C35EEF0A3EFF0900C2EE0FF75F03716
:103C3800EFA424C5F582E5F03402F583E0FEA3E0A5
:103C4800FF900C35E0FCA3E0FDED6F7002EC6E60B8
:103C580003023D8B900C35E0FEA3E0FFEF4E7003AE
:103C6800023D8B90028AE0FF900C2FEFF0900C3110
:103C7800E4F0A3E4F0900C2EE0FF75F037EFA424F5
:103C880090F582E5F03402F583AF82AE83900C3371
:103C9800EEF0A3EFF0900C2FE0FFEFD39400500369
:103CA800023D4D900C2EE0FF12878DEF70F59002CB
:103CB80052E0FF129D89EF640460F3900C31E0FE3E
:103CC800A3E0FF7E00EF540FFFC374109FFF900C1A
:103CD80030EFF0900C2EE0FF900C31E0FCA3E0FDFB
:103CE800900C33E0FAA3E0FBA9037B01900C30E0D1
:103CF800FE900BF7EEF01247B9EF70D7900252E042
:103D0800FF129D89EF640460F3900C2FE0FF900C84
:103D180030E0FEC3EF9EFF900C2FEFF0900C30E0E8
:103D2800FF7E00900C32E02FF0900C31E03EF090D6
:103D38000C30E0FF7E00900C34E02FF0900C33E064
:103D48003EF0023C9D90028EE0FF900C2EE0FE7447
:103D580001A806088002C333D8FCFEEF4EFF90028C
:103D68008EEFF0801E90028EE0FF900C2EE0FE7425
:103D780001A806088002C333D8FCFEEF4EFF90026C
:103D88008EEFF0900C2EE004F0023B1490028EE0CF
:063D9800FFEF64FF602D47
:103D9E00900C3774E5F090028EE0FF900C38EFF047
:103DAE007B017A0C7937900C277401F0900C28E483
:0D3DBE00F0900C29E4F07D027C00124063BF
:013DCB0022D5
:1084C800900D3DEEF0A3EFF0900D3FEBF0A3EAF036
:1084D800A3E9F090028AE0FF7E00C006C007900D75
:1084E8003DE0FEA3E0FF7C007D37121A1A74902F3E
:1084F800F974023EFA7B01C003C002C001900D3F2F
:10850800E0FBA3E0FAA3E0F9A801AC02AD03D001B7
:10851800D002D003D007D006121925900D3DE0FEF9
:10852800A3E0FF7401A807088002C333D8FCFF90BA
:08853800028EE0FEEF5EFF225F
:1078EA00900D02EFF0900D03EDF0900D04EBF09087
:1078FA000D02E0FF900250EFF0900D03E0FF9002BE
:10790A0051EFF0900D04E0FF900252EFF090028CDC
:10791A00E0FF7E00900D05E0FBA3E0FAA3E0F9C0CA
:10792A0003C002C0017B017A027953A801AC02ADFF
:10793A0003D001D002D003121925900D05E0FBA354
:10794A00E0FAA3E0F990028CE0FD128A2590028801
:10795A00EEF0A3EFF0900448E4F090028DE4F0908A
:0F796A00028BE4F090028AE0FF90028FEFF02290
:052DAF009009F2EFF0B5
:102DB4009009F2E0FFEF121CCB2DDF002DF6012E5F
:102DC4000F022E73032F28042F48052FB7062FD781
:102DD4000730B508310F090000315A900252E0FF64
:102DE40012878DEF70067F011299F2227F001299EB
:102DF400F222900252E0FF129D89EF640460067F84
:102E0400021299F2227F011299F22290028FE0FFBE
:102E1400EFD39410401A90024BE0FEA3E0FF7E0033
:102E2400EF540FFFC374109FFF9009F3EFF0800A73
:102E340090028FE0FF9009F3EFF0900252E0FF90D0
:102E4400024BE0FCA3E0FD90024DE0FAA3E0FBA9F5
:102E5400037B019009F3E0FE900BF7EEF01247B903
:102E6400EF70067F031299F2227F021299F22290E8
:102E74000252E0FF129D89EF64047003022F227F47
:102E84000A7E00129FE09009F3E0FF7E0090024C5E
:102E9400E02FF090024BE03EF090028FE0FF9009AB
:102EA400F3E0FEC3EF9EFF90028FEFF09009F3E092
:102EB400FF7E0090024EE02FF090024DE03EF09035
:102EC400028FE0FFEFD3940040067F001299F222B4
:102ED40090028AE0FF7E0090024BE0FCA3E0FDC379
:102EE400ED9FFFEC9EFEEF4E701090024B7401F0CC
:102EF400A3E4F07F001299F2800D90024BE4F0A35A
:102F0400E4F07F041299F290028AE0FF90028FEFBE
:102F1400F07E027F5390024DEEF0A3EFF0227F0388
:102F24001299F222900252E0FF90028AE0FB7D00A7
:102F34007C00125377EF70067F051299F2227F040A
:102F44001299F222900252E0FF7B017A0979F490FF
:102F5400028AE0FE900D64EEF0127EDAEF64046003
:102F64004C7B017A0979F490028CE0FD128A259059
:102F74000A29E0FCA3E0FDEFB5050AEEB504067FDF
:102F8400061299F222900448E0FFEF601490028B3D
:102F9400E0FFEF4401FF90028BEFF07F061299F2FD
:102FA400229004487401F07F001299F2227F0512E6
:102FB40099F222900252E0FF90028AE0FB7D007CAD
:102FC40001125377EF70067F071299F2227F0612DF
:102FD40099F222900252E0FF7B017A0979F490027F
:102FE4008AE0FE900D64EEF0127EDAEF6404700362
:102FF4000230AF7B017A0979F490028CE0FD128AE9
:1030040025900A29E0FCA3E0FDEF6D7002EE6C70E0
:103014006990028AE0FF7E00C006C0077B017A0245
:103024007953C003C002C001900252E0FF7E37EF23
:103034008EF0A4FFAEF074902FF974023EFA7B0177
:10304400A801AC02AD03D001D002D003D007D00652
:10305400121925900A29E0FEA3E0FF900252E0FD38
:1030640075F037EDA424C5F582E5F03402F583EE5E
:10307400F0A3EFF07F081299F22290028DE0FFEFA7
:10308400601490028BE0FFEF4402FF90028BEFF09C
:103094007F081299F22290024B7401F0A3E4F0909D
:1030A400028D7401F07F001299F2227F071299F2C7
:0130B40022F9
:1030B500900A2B74C8F0900A2C7488F0900A2DE4BD
:1030C500F07B017A0A792B900250E0FF900C27EFF4
:1030D500F0900251E0FF900C28EFF0900C2974015C
:1030E500F07D037C00124063EF701990028BE0FFC6
:1030F500EF700B7F001299F27FFF1297E6227F098E
:093105001299F2227F081299F2DE
:01310E00229E
:10310F00900A2B74E6F0900252E0FF900A2CEFF039
:10311F0090028BE0FF900A2DEFF07B017A0A792B5A
:10312F00900C277401F0900C28E4F0900C29E4F037
:10313F007D037C00124063EF700B7F001299F27FCA
:0A314F00FF1297E6227F091299F2A1
:06315900227F001299F232
:01315F00224D
:06A60B0090024FE0FF2267
:1066EF0044058540C0000044048F41F0000042047F
:0866FF00880001420494000030
:104AA60090048DE4F090058AE4F0900486E4F0A387
:104AB600E4F090044BE4F0A37496F090048AE4F0DA
:104AC600A37496F0900583E4F0A37496F0900483A3
:104AD600E4F0A37496F0900482E4F0900582E4F08A
:104AE60090058BE4F0A3E4F0900488E0FCA3E0FDDD
:104AF600EC1216B6900585E0F8A3E0F9A3E0FAA358
:104B0600E0FB12150B1216EF900494EEF0A3EFF0F3
:104B1600900493E4F0900EDDE4F0900EDDE0FFEFFC
:104B2600C3940D507C900EDDE0FFEFC454F024B327
:104B3600F582E43404F583E4F0A3E4F0900EDDE0BE
:104B4600FFEFC454F024B1F582E43404F583E4F0B5
:104B5600A3E4F0900EDDE0FFEFC454F024B5F58237
:104B6600E43404F583E4F0A3E4F0900EDDE0FFEF17
:104B7600C454F024B7F582E43404F583E4F0A3E4E6
:104B8600F0900EDDE0FFEFC454F024B9F582E43472
:104B960004F583E4F0A3E4F0900EDDE004F0024BAC
:104BA600207E007F1A7D007B017A047997121D55BD
:104BB6007BFF7A72794712894F900485EFF07BFF6D
:104BC6007A8A798912894F90048EEFF07BFF7A38C2
:104BD600790F12894F900589EFF0900589E0FF7DE6
:104BE6000012976C900589E0FF7D107C27126B649C
:0E4BF60012A52E90044AE4F090044D7403F0D2
:014C0400228D
:10A35500900EDEEFF0900EDEE0FF90048DEFF090B2
:0EA36500058A7401F0900486E4F0A3E4F0226F
:10004E00900E7AEFF0900E7BECF0A3EDF0900E7B1D
:10005E00E0FEA3E0FF900E7AE0FDEDC454F024B56F
:0D006E00F582E43404F583EEF0A3EFF022F8
:10559E00900B73EFF0900B74EDF0900B75EBF0A396
:0555AE00EAF0A3E9F0A2
:1055B300900B73E0FF900B84EFF0900B85E4F09079
:1055C3000B74E0FF900B84E0FEEEC39F5045900BFD
:1055D30075E0FBA3E0FAA3E0F9900B85E0FF75F01B
:1055E30002EFA4F58285F083121B0EFFAEF0900B41
:1055F30084E0FDEDC454F024B5F582E43404F5836E
:10560300EEF0A3EFF0900B84E004F0900B85E00440
:10561300F080AC900B78E0FEA3E0FF90048AEEF0FC
:10562300A3EFF0900B7AE0FEA3E0FF90044BEEF0C3
:10563300A3EFF0900B7CE0FEA3E0FF900483EEF079
:10564300A3EFF0900B7EE0FEA3E0FF900583EEF066
:10565300A3EFF0900B80E0FEA3E0FFC3EF9401EE15
:10566300940050067E007F018008900B80E0FEA32B
:10567300E0FF900B80EEF0A3EFF0900B82E0FF9041
:10568300044DEFF0900488E0FCA3E0FD900B80E074
:10569300FEA3E0FF121A1A900494EEF0A3EFF09029
:0956A3000B83E0FF90044AEFF0D4
:0156AC0022DB
:0B8B4600900DC0EBF0A3EAF0A3E9F0F3
:108B510012446A900DC3E4F0900DC3E0FFEFC3949B
:108B61000D503F900DC3E0FFEFC454F024B3F582E4
:108B7100E43404F583E0FEA3E0FF900DC0E0FBA325
:108B8100E0FAA3E0F9900DC3E0FD75F002EDA4F564
:108B91008285F083EE8FF0121B65900DC3E004F027
:028BA10080B69C
:018BA30022AF
:10854000900CAEEFF0900CAFEDF0900CB0EBF0A310
:05855000EAF0A3E9F0D0
:10855500900CAEE0FF900CB3EFF0900CB4E4F0900B
:108565000CAFE0FF900CB3E0FEEEC39F5044900CBF
:10857500B0E0FBA3E0FAA3E0F9900CB4E0FF75F0DE
:1085850002EFA4F58285F083121B0EFFAEF0900C6E
:10859500B3E0FDED25E02497F582E43404F583EEA0
:1085A500F0A3EFF0900CB3E004F0900CB4E004F00D
:0285B50080AD97
:0185B70022A1
:109A9800900E7DEBF0A3EAF0A3E9F07B017A04795C
:109AA80097C003C002C001900E7DE0FBA3E0FAA3BB
:109AB800E0F9A801AC02AD03D001D002D0037E00CA
:069AC8007F1A121925228D
:10A2BD00900EB8EFF0900EB9EDF0900EB8E0FF9063
:0FA2CD000581EFF0900EB9E0FF90048CEFF022C6
:0561B700900EBAEFF0AC
:1061BC00900EBAE0FFEF121CCB61CC000000628B9A
:1061CC0090058AE0FFEF6401600302626990058A22
:1061DC00E4F090048DE0FFEF6401707812446A9053
:1061EC000EBBE4F0900EBBE0FFEFC394085055904B
:1061FC000EBBE0FFEFC454F024B3F582E43404F595
:10620C0083E0FEA3E0FF900EBBE0FDEDC454F02450
:10621C00B7F582E43404F583EEF0A3EFF0900EBBF7
:10622C00E0FF7E10EF8EF0A4FFAEF074BD2FF9747A
:10623C00043EFA7B017D007C00129343900EBBE080
:10624C0004F080A07FFF1297E690048CE0FF7D01A4
:10625C0012976C2212A52E7F001299F22290048DB7
:10626C00E0FFEFB4011312446A7FFF1297E690042B
:10627C008CE0FF7D0112976C227F001299F2227F35
:04628C00001299F271
:0162900022EB
:05316000900D08EFF0E6
:10316500900D08E0FFEF121CCB31780134B9020055
:103175000034C91275FC900D0AEEF0A3EFF0900D26
:1031850009E4F0900D09E0FFEFC3940D400302340C
:10319500A7900D09E0FFEFC3940840030232CC90DD
:1031A5000D09E0FFEFC454F024B5F582E43404F5CD
:1031B50083E0FEA3E0FF900D09E0FDEDC454F0248B
:1031C500B3F582E43404F583E0FCA3E0FDD3ED9F81
:1031D500EC9E50030232CC900D09E0FF7E10EF8E7D
:1031E500F0A4FFAEF074BD2FF974043EFA7B011212
:1031F5008D61EF640160030232CC900D09E0FF7E22
:1032050010EF8EF0A4FFAEF074BD2FF974043EFAF2
:103215007B01C003C002C001900488E0FEA3E0FF6B
:103225007C037DE8121A1A7C007D0A121A81AC060D
:10323500AD07D001D002D003129343900D09E0FFF2
:10324500EFC454F024B7F582E43404F583E0FEA31B
:10325500E0FF900494E0FCA3E0FDC3EF9DFFEE9C2E
:10326500FE900D0CEEF0A3EFF0900D09E0FFEFC41A
:1032750054F024B5F582E43404F583E0FEA3E0FFC1
:10328500900D0CE0FCA3E0FDD3ED9FEC9E400A9071
:103295000D0CE0FEA3E0FF8017900D09E0FFEFC4E1
:1032A50054F024B5F582E43404F583E0FEA3E0FF91
:1032B500900D09E0FDEDC454F024B7F582E4340423
:1032C500F583EEF0A3EFF0900D09E0FFEFC454F0A5
:1032D50024B5F582E43404F583E0FEA3E0FFEF4E68
:1032E50070030233EA900D09E0FFEFC454F024B3F4
:1032F500F582E43404F583E0FEA3E0FFC3EF94D246
:10330500EE940F40030233EA900D09E0FFEFC394FA
:1033150008400302339D900D09E0FFEFC454F024EB
:10332500B3F582E43404F583E0FEA3E0FF900D09D4
:10333500E0FDEDC454F024B7F582E43404F583E0F0
:10334500FCA3E0FDC3ED9FEC9E5041900D09E0FF0D
:10335500EFC454F024B3F582E43404F583E0FEA30E
:10336500E0FF900D09E0FDEDC454F024B5F582E4CD
:103375003404F583E0FCA3E0FDC3ED9FEC9E500C07
:10338500900D09E0FF7D01127E558063900D09E0E7
:10339500FF7D00127E558057900D09E0FFEFC45464
:1033A500F024B3F582E43404F583E0FEA3E0FF9056
:1033B5000D09E0FDEDC454F024B5F582E43404F5BF
:1033C50083E0FCA3E0FDC3ED9FEC9E500C900D093E
:1033D500E0FF7D01127E558016900D09E0FF7D000E
:1033E500127E55800A900D09E0FF7D00127E5590F2
:1033F5000D09E0FFEFC3940850361288E0EF7030F6
:10340500900D09E0FFEFC454F024B3F582E43404D1
:10341500F583E0FEA3E0FF900D0AE0FCA3E0FDC309
:10342500EF9DEE9C500A900D09E0FF7D00127E5540
:10343500900D09E0FFEFC454F024B3F582E43404A1
:10344500F583E0FEA3E0FFD3EF94D2EE940F502076
:10345500900D09E0FFEFC454F024B3F582E4340481
:10346500F583E0FEA3E0FFC3EF9464EE94005029DA
:1034750090044AE0FFEF6017900D09E0FFEFC39459
:1034850008500C900D09E0FF7D00127E55800A90D2
:103495000486E4F0A3E4F08009900D09E004F0024D
:1034A500318812A43B7F021299F27DAA7C007FFF2E
:1034B500126B64227FFF1297E6900581E0FF7D0085
:0934C50012976C227F011299F2AA
:0134CE0022DB
:10446A00900DC5E4F0900DC6E4F0900DC7E4F0128B
:10447A00A605EF70032280031270F7900482E0FF12
:10448A00EFC39404500C900482E004F0900DC674BB
:10449A0001F0900582E0FFEFC39428500C9005824A
:1044AA00E004F0900DC77401F0900DC4E4F0900D93
:1044BA00C4E0FFEFC3940D400302461C900DC4E014
:1044CA00FFEFC454F024B3F582E43404F583E0FE2C
:1044DA00A3E0FF900DC4E0FDED25E02468F582E439
:1044EA003404F583E0FCA3E0FDC3ED9FFFEC9EFEE0
:1044FA0012A5AAD3EF9400EE648094904003D3806F
:10450A0001C350030245C3900DC6E0FFEF7042900D
:10451A000DC4E0FFEFC454F024B1F582E43404F58D
:10452A0083C083C082E0FEA3E0FF900DC4E0FDEDEE
:10453A00C454F024B3F582E43404F583E0FCA3E028
:10454A00FDC3EF9DFFEE9CFED082D083EEF0A3EF79
:10455A00F0900DC4E0FFEF25E02468F582E434040E
:10456A00F583E0FEA3E0FF900DC4E0FDEDC454F036
:10457A0024B1F582E43404F583EE8FF0121AB79071
:10458A000482E0FFEFFD7C00900DC4E0FFEFC4540D
:10459A00F024B1F582E43404F583E0FEA3E0FF12CF
:1045AA001A2C900DC4E0FDEDC454F024B3F582E456
:1045BA003404F583EEF0A3EFF0900DC4E0FFEFC4EE
:1045CA0054F024B3F582E43404F583E0FEA3E0FF5B
:1045DA00900DC4E0FDED25E02468F582E43404F58D
:1045EA0083E0FCA3E0FDC3ED9FFFEC9EFE12A5AAAB
:1045FA00D3EF9464EE64809480400E900DC7E0FF80
:10460A00EF7006900DC57401F0900DC4E004F0023D
:02461A0044B8A2
:01461C00227B
:1070F7007F0012956B900468EEF0A3EFF07F01120A
:10710700956B90046AEEF0A3EFF07F0212956B90F7
:10711700046CEEF0A3EFF07F0312956B90046EEE14
:10712700F0A3EFF07F0412956B900470EEF0A3EFDD
:10713700F07F0512956B900472EEF0A3EFF07F06D7
:1071470012956B900474EEF0A3EFF07F0712956B26
:10715700900476EEF0A3EFF07F0812956B90047819
:10716700EEF0A3EFF07F0912956B90047AEEF0A38F
:10717700EFF07F0A12956B90047CEEF0A3EFF07F9F
:107187000B12956B90047EEEF0A3EFF07F1512952E
:0A7197006B900480EEF0A3EFF022ED
:0A7E5500900DC8EFF0900DC9EDF09C
:107E5F00900DCAE4F0A37401F0900DC9E0FFEF603C
:107E6F0032900486E0FCA3E0FD900DCAE0FEA3E093
:107E7F00FF900DC8E0FBEFA803088005C333CE3396
:107E8F00CED8F9FFEC4EFEED4FFF900486EEF0A337
:107E9F00EFF022900486E0FCA3E0FD900DCAE0FE17
:107EAF00A3E0FF900DC8E0FBEFA803088005C333E4
:107EBF00CE33CED8F9FFEFF4FFEEF4FEEC5EFEED1D
:0A7ECF005FFF900486EEF0A3EFF0D1
:017ED9002286
:10A43B00900486E0FEA3E0FF90058BEEF0A3EFF017
:0BA44B0090048EE0FF7D0012976C2251
:10A52E0090058BE4F0A3E4F090048EE0FF7D001222
:03A53E00976C22F5
:0B461D00900BB9EBF0A3EAF0A3E9F06A
:1046280012446A900BC2E4F0900BC2E0FFEFC3940F
:104638000D40030247B6900BC2E0FFEFC394085049
:104648002290044BE0FEA3E0FF900BC3EEF0A3EF33
:10465800F090048AE0FEA3E0FF900BC5EEF0A3EF14
:10466800F08020900583E0FEA3E0FF900BC3EEF0FE
:10467800A3EFF0900483E0FEA3E0FF900BC5EEF0FB
:10468800A3EFF0900BC2E0FFEFC454F024B5F5821D
:10469800E43404F583E0FEA3E0FF900BC3E0FCA341
:1046A800E0FDC3EF9DFFEE9CFE900BC2E0FDEDC464
:1046B80054F024B3F582E43404F583E0FCA3E0FD70
:1046C800C3ED9FEC9E4046900BC2E0FFEFC454F050
:1046D80024B5F582E43404F583E0FEA3E0FF900BF3
:1046E800C5E0FCA3E0FDEF2DFFEE3CFE900BC2E021
:1046F800FDEDC454F024B3F582E43404F583E0FC02
:10470800A3E0FDD3ED9FEC9E50030247AD900BC292
:10471800E0FF900BB9E0FBA3E0FAA3E0F9EF121970
:10472800E6900BC2E0FFEFC454F024B3F582E43402
:1047380004F583E0FEA3E0FF900BBCE0FBA3E0FAE6
:10474800A3E0F9EE8FF0121B46900BC2E0FFEFC416
:1047580054F024B5F582E43404F583E0FEA3E0FFC9
:10476800900BC3E0FCA3E0FDC3EF9DFFEE9CFE9021
:104778000BC2E0FDEDC454F024B3F582E43404F533
:1047880083E0FCA3E0FDC3ED9FEC9E50047F018015
:10479800027F02900BBFE0FBA3E0FAA3E0F9EF125F
:1047A80019E67F0022900BC2E004F00246307F0138
:0147B80022DE
:05724700900AE7EFF0E2
:10724C00900AE874E8F07B017A04794EC003C0021E
:10725C00C0017B017A0A79E9A801AC02AD03D00127
:10726C00D002D0037E007F1A1219257B017A0A798D
:10727C00E9C003C002C0017B017A0A79E9900C01D4
:10728C00EBF0A3EAF0A3E9F0900C04E4F0A3740D86
:10729C00F0D001D002D003125B87900449E0FF903C
:1072AC000B03EFF0900496E0FF900B04EFF07B01E2
:1072BC007A0A79E8900C277401F0900C28E4F0908D
:1072CC000C29E4F07D1D7C00124063EF70067FFFFB
:0C72DC001297E622900AE7E0FF1299F2F8
:0172E8002283
:058A8900900DCCEFF0A0
:108A8E00900DCCE0FFEF121CCB8AA1008ACF010023
:108A9E00008AE7900DCD7460F090058BE0FEA3E0A8
:108AAE00FF900DCEEEF0A3EFF07B017A0D79CD1293
:108ABE00643EEF70067F011299F2227F001299F246
:108ACE002212A2FBEF6403600B7F001299F27FFF6C
:098ADE001297E6227F011299F2C1
:018AE700226C
:1075FC00900DD17402F0900533E0FEA3E0FF900DE6
:10760C00D2EEF0A3EFF0900DD07409F0900DD0E015
:10761C00FFEFC3940C5067900DD1E0FF7E00EF2478
:10762C00FFFFEE34FFFE900DD1E0FD7C00121A2C12
:10763C00900DD2E0FCA3E0FD121A1AAA06AB07903B
:10764C000DD1E0FFEFFD7C00900DD0E0FFEFC454B6
:10765C00F024B3F582E43404F583E0FEA3E0FF12DA
:10766C001A2CEB2FFFEA3EFE900DD2EEF0A3EFF0BA
:10767C00900DD0E004F0900DD1E004F0808E900DD0
:09768C00D2E0FEA3E0FF124D6202
:0176950022D2
:084D6200900C79EEF0A3EFF0D4
:104D6A00900C7D121C8E00000000900C7BE4F0A3D6
:104D7A00E4F0900BE7121C8EC08000007F007E00DA
:104D8A007D207C411249407B007A00790078C1126B
:104D9A00150BC004C005C006C007900C79E0FCA33F
:104DAA00E0FDE41216B6A804A905AA06AB07D007C7
:104DBA00D006D005D00412150B900BE7121C827F87
:104DCA00A17EF87D2D7C401249407B487AE179EF3B
:104DDA00784212150B900C7D121C82900C7DE0FC1F
:104DEA00A3E0FDA3E0FEA3E0FFC004C005C006C027
:104DFA0007900BE7121C8E40000000D007D006D0A7
:104E0A0005D0041249407B237ADB79F9783E1215E2
:104E1A000BC004C005C006C007900C7DE0FCA3E0EF
:104E2A00FDA3E0FEA3E0FFC004C005C006C00790D2
:104E3A000BE7121C8E40400000D007D006D005D0E8
:104E4A00041249407B277AA07989783B12150BD046
:104E5A0003D002D001D000121416C004C005C00647
:104E6A00C0077F4A7E0C7DDA7C41900C7DE0F8A376
:104E7A00E0F9A3E0FAA3E0FB12150BA804A905AA1E
:104E8A0006AB07D007D006D005D0041214167B9AB9
:104E9A007A1D7982784512141A1216EF900C7BEE5D
:0C4EAA00F0A3EFF0900C7BE0FEA3E0FF13
:014EB60022D9
:1088E000900EBD7401F0900EBC7408F0900EBCE0C8
:1088F000FFEFC3940C5052900EBCE0FFEFC454F055
:1089000024B5F582E43404F583E0FEA3E0FF90048F
:1089100083E0FCA3E0FDEF2DFFEE3CFE900EBCE0FB
:10892000FDEDC454F024B3F582E43404F583E0FC97
:10893000A3E0FDD3ED9FEC9E4007900EBDE4F080D8
:0E89400008900EBCE004F080A3900EBDE0FF96
:01894E002206
:05380F00900DD4EFF064
:1038140090044974FFF0900DD4E0FFEF121CCB38F4
:10382400360038AB01391202397B033A9F04000099
:103834003B0712A605EF70067F001299F222127060
:10384400F7900DD5E4F0900DD5E0FFEFC394085048
:103854003D900DD5E0FFEF25E02468F582E43404C3
:10386400F583E0FEA3E0FF7C007D0A121A2C900D84
:10387400D5E0FDEDC454F024B9F582E43404F583B5
:10388400EE8FF0121AB7900DD5E004F080B89004D2
:1038940093E004FFF0EFC3940A40067F011299F20B
:1038A400227F001299F222900493E4F0900DD5E463
:1038B400F0900DD5E0FFEFC39408504D900DD5E086
:1038C400FFEFC454F024B9F582E43404F583E0FE38
:1038D400A3E0FF900DD5E0FDEDC454F024BBF582C8
:1038E400E43404F583EEF0A3EFF0900DD5E0FFEFA0
:1038F400C454F024B9F582E43404F583E4F0A3E479
:10390400F0900DD5E004F080A87F021299F21270B5
:10391400F7900DD5E4F0900DD5E0FFEFC394085077
:103924003D900DD5E0FFEF25E02468F582E43404F2
:10393400F583E0FEA3E0FF7C007D0A121A2C900DB3
:10394400D5E0FDEDC454F024B9F582E43404F583E4
:10395400EE8FF0121AB7900DD5E004F080B8900401
:1039640093E004FFF0EFC3940A40067F031299F238
:07397400227F021299F222EA
:10397B00900DD5E4F0900DD5E0FFEFC39408400314
:10398B00023A6E900DD5E0FFEFC454F024BBF582E4
:10399B00E43404F583E0FEA3E0FF900DD5E0FDEDEC
:1039AB00C454F024B9F582E43404F583E0FCA3E0BD
:1039BB00FDC3ED9FFFEC9EFE900DD6EEF0A3EFF056
:1039CB0090044DE0FF7E19EF8EF0A4FFAEF0C3E440
:1039DB009FFFE49EFE900DD6E0FCA3E0FDC3ED9FA0
:1039EB00EE6480F8EC648098402390044DE0FF7EF9
:1039FB0050EF8EF0A4FFAEF0900DD6E0FCA3E0FDEF
:103A0B00D3ED9FEE6480F8EC648098404D900DD51B
:103A1B00E0FF900449EFF0900DD6E0FEA3E0FF121B
:103A2B00A5AA90044DE0FD7C00121A81900DD6EEF4
:103A3B00F0A3EFF0900DD6E0FEA3E0FFD3EF94FFE1
:103A4B00EE6480948040047FFF8008900DD6E0FEEA
:103A5B00A3E0FF900496EFF08009900DD5E004F001
:103A6B00023980900449E0FFEFB4FF237F011299E4
:103A7B00F290044DE0FF7E007C037DE8121A1AEFF2
:103A8B00249CFDEE34FFFC7FFF126B642280057FCC
:043A9B00041299F286
:103A9F0012A52E7F0012A355900485E0FF12A3CB31
:103AAF00EF60067F041299F2227B017A047968C0D5
:103ABF0003C002C0017B017A04794EA801AC02ADAC
:103ACF0003D001D002D0037E007F1A121925900473
:103ADF0085E0FF7D0012976C7F011299F290044DE3
:103AEF00E0FF7E007C037DE8121A1AEF249CFDEEA6
:083AFF0034FFFC7FFF126B6431
:013B0700229B
:107F5F00900BCAE4F0A3E4F0900BC7E4F0900BD4BD
:107F6F00E4F012A1B3EF70FA12A077EF70FA900E4F
:107F7F00807404F0900E81E4F0A3E4F07B017A0E9C
:107F8F00798012643EEF70F412A2FBEFB401F99006
:107F9F000E807470F0900E81E4F0A3E4F07B017A10
:107FAF000E798012643EEF70F412A2FBEFB401F968
:107FBF00900E80742BF0900E81E4F0A3E4F07B011F
:107FCF007A0E798012643EEF70F412A2FBEFB401C7
:017FDF00F9A8
:017FE000227E
:10A1B300900E837410F0900E84E4F0A37401F07B8E
:10A1C300017A0E798312643EEFB402037F02227F89
:01A1D300008B
:01A1D4002268
:10A1D500900E867411F0900E87E4F0A37401F07B65
:10A1E500017A0E798612643EEFB402037F02227F64
:01A1F5000069
:01A1F6002246
:089C3700900D42EEF0A3EFF0E6
:109C3F00900D447401F0900D42E0FEA3E0FF900DF3
:109C4F0045EEF0A3EFF07B017A0D794412643EEFFD
:089C5F00B402037F02227F0022
:019C670022DA
:0D990C00900D0EEFF0900D0FECF0A3EDF0BC
:10991900900D0EE0FF900D11EFF0900D0FE0FEA3FA
:10992900E0FF900D12EEF0A3EFF07B017A0D7911B3
:0C99390012643EEFB402037F02227F00A4
:0199450022FF
:089C6800900D47EEF0A3EFF0B0
:109C7000900D497402F0900D47E0FEA3E0FF900DB7
:109C80004AEEF0A3EFF07B017A0D794912643EEFC2
:089C9000B402037F02227F00F1
:019C980022A9
:069B0300900CB5121C825B
:109B0900900CB97440F0900CB5E0FCA3E0FDA3E023
:109B1900FEA3E0FF900CBAEEF0A3EFF07B017A0C04
:0E9B290079B912643EEFB402037F02227F007E
:019B3700220B
:0EA59C007F01127A96EF70037F00227F022269
:10A1F700900E897403F0900E8AE4F0A37401F07B4B
:10A20700017A0E798912643EEFB402037F02227F3E
:01A217000046
:01A218002223
:10A25C00900E8C7403F0900E8DE4F0A3E4F07B016F
:10A26C007A0E798C12643EEFB402037F02227F00D7
:01A27C0022BF
:059E1300900DD8EFF0F6
:109E1800900DD97405F0900DD8E0FF7E00900DDA12
:109E2800EEF0A3EFF07B017A0D79D912643EEFB41E
:079E380002037F02227F00FC
:019E3F002200
:089C9900900D4CEEF0A3EFF07A
:109CA100900D4E7404F0900D4CE0FEA3E0FF900D7A
:109CB1004FEEF0A3EFF07B017A0D794E12643EEF87
:089CC100B402037F02227F00C0
:019CC9002278
:059E4000900DDCEFF0C5
:109E4500900DDD7470F0900DDCE0FF7E00900DDE6E
:109E5500EEF0A3EFF07B017A0D79DD12643EEFB4ED
:079E650002037F02227F00CF
:019E6C0022D3
:089CCA00900D51EEF0A3EFF044
:109CD200900D53740BF0900D51E0FEA3E0FF900D38
:109CE20054EEF0A3EFF07B017A0D795312643EEF4C
:089CF200B402037F02227F008F
:019CFA002247
:089CFB00900D56EEF0A3EFF00E
:109D0300900D58740CF0900D56E0FEA3E0FF900DFB
:109D130059EEF0A3EFF07B017A0D795812643EEF10
:089D2300B402037F02227F005D
:019D2B002215
:030026007F002236
:10A0770012A2FB900EDFEFF0900EDFE0FFEF64031C
:10A08700600F900EDFE0FFEFB401037F00227F0235
:03A09700227F0124
:01A09A0022A3
:0B994600900D5BEBF0A3EAF0A3E9F04A
:109951007B017A0D795E128AE8EF6403601E900D37
:109961005EE0FEA3E0FF7E00900D5BE0FBA3E0FA6A
:0E997100A3E0F9EE8FF0121B467F00227F016B
:01997F0022C5
:1087FF00900C16EEF0A3EFF0900C18ECF0A3EDF048
:10880F00900C1AEAF0A3EBF0900C16E0FEA3E0FF39
:10881F00900BC8EEF0A3EFF0900C18E0FEA3E0FF72
:10882F00900BCAEEF0A3EFF0900C1AE0FEA3E0FF5E
:10883F00900BCCEEF0A3EFF0900C1CE0FCA3E0FD4E
:10884F00A3E0FEA3E0FF900BCE121C82900C20E061
:10885F00FF900BD2EFF0900C21E0FF900BD3EFF0D5
:01886F0022E6
:0527C000900C39EFF060
:1027C500900C39E0FFEF121CCB283E00288B012826
:1027D5009D0228C90328DB04290705292E06295A45
:1027E5000729800829930929E20A29F50B2A230CD0
:1027F5002A360D2A6A0E2A7D0F2AC6102AD9112AD1
:10280500FF122B12132B38142B4B152B72162B85FD
:10281500172BC5182BD8192BEA1A2C231B2C351C62
:102825002C611D2C871E2CB41F2CC8202D0D212D8D
:0928350033222D5F2300002DA9C0
:10283E00900C4174C8F0900C427484F0900C43E4F8
:10284E00F07B017A0C7941900BD2E0FF900C27EFD0
:10285E00F0900BD3E0FF900C28EFF0900C29740150
:10286E00F07D037C00124063EF700C900BD474016A
:0D287E00F07F011299F2227F001299F222E0
:10288B0012A1D5EF70067F021299F2227F011299E5
:10289B00F22212A077900C3AEFF0900C3AE0FFEF97
:1028AB0064016014900C3AE0FFEF70067F031299FD
:1028BB00F2227F011299F2227F021299F22212A2C6
:1028CB005CEF70067F041299F2227F031299F222B9
:1028DB0012A077900C3AEFF0900C3AE0FFEF640106
:1028EB006014900C3AE0FFEF70067F051299F2220C
:1028FB007F031299F2227F041299F222900C3C74FE
:10290B002BF0900C3DE4F0A37401F07B017A0C7971
:10291B003C12643EEF70067F061299F2227F05127D
:10292B0099F22212A077900C3AEFF0900C3AE0FF5C
:10293B00EF64016014900C3AE0FFEF70067F071212
:10294B0099F2227F051299F2227F061299F22290B8
:10295B000C3C7404F0900C3DE4F0A3E4F07B017AA2
:10296B000C793C12643EEF70067F081299F2227FBD
:10297B00071299F22212A2FBEFB401067F0D1299F6
:10298B00F2227F081299F222900C3C7435F0900BD6
:10299B00C8E0FEA3E0FFE4FCFD7B107A0079007831
:1029AB0000121B92A804A905AA06AB077F557EA0AF
:1029BB007DFC7C011294E5900C3DEEF0A3EFF07BD7
:1029CB00017A0C793C12643EEF70067F0A1299F281
:1029DB00227F091299F22212A2FBEFB401067F0BA0
:1029EB001299F2227F0A1299F222900C3C7431F068
:1029FB00900BCCE0FEA3E0FF900C3DEEF0A3EFF0CC
:102A0B007B017A0C793C12643EEF70067F0C1299B5
:102A1B00F2227F0B1299F22212A2FBEFB401067F76
:102A2B00171299F2227F0C1299F222900C3C7438F7
:102A3B00F0900BCEE0FCA3E0FDA3E0FEA3E0FF9043
:102A4B000C3DEEF0A3EFF07B017A0C793C12643E67
:102A5B00EF70067F0E1299F2227F0D1299F222125D
:102A6B00A2FBEFB401067F0F1299F2227F0E12998F
:102A7B00F222900C3C7437F0900BCEE0FCA3E0FDFF
:102A8B00A3E0FEA3E0FFEF5400FFEE5400FEED5475
:102A9B00FFFDEC54FFFC7810121BEF900C3DEEF099
:102AAB00A3EFF07B017A0C793C12643EEF70067F4A
:102ABB00101299F2227F0F1299F22212A2FBEFB49D
:102ACB0001067F111299F2227F101299F222900CBB
:102ADB003C743AF0900C3DE4F0A3E4F07B017A0CEB
:102AEB00793C12643EEF70067F121299F2227F112D
:102AFB001299F22212A2FBEFB401067F131299F284
:102B0B00227F121299F222900C3C7439F0900C3DFA
:102B1B00E4F0A3E4F07B017A0C793C12643EEF7095
:102B2B00067F141299F2227F131299F22212A2FB42
:102B3B00EFB401067F151299F2227F141299F2223B
:102B4B00900C3C743BF0900C3DE4F0A37401F07BD3
:102B5B00017A0C793C12643EEF70067F161299F2E3
:102B6B00227F151299F22212A2FBEFB401067F0904
:102B7B001299F2227F161299F222900C3C7404F0F7
:102B8B00900BCCE0FEA3E0FFEF4E700C900C3D746D
:102B9B0003F0A3743BF0800A900C3D7403F0A37414
:102BAB001BF07B017A0C793C12643EEF70067F18A8
:102BBB001299F2227F171299F22212A2FBEFB401A3
:102BCB00067F191299F2227F181299F22212A1F79D
:102BDB00EF70067F1A1299F2227F191299F22212C4
:102BEB00A077900C3AEFF0900C3AE0FFEF640160A5
:102BFB0021900C3AE0FFEF70137F1B1299F2900BB0
:102C0B00CAE0FCA3E0FD7FFF126B64227F191299CF
:102C1B00F2227F1A1299F22212A25CEF70067F1C2D
:102C2B001299F2227F1B1299F22212A077900C3A82
:102C3B00EFF0900C3AE0FFEF64016014900C3AE077
:102C4B00FFEF70067F1D1299F2227F1B1299F22261
:102C5B007F1C1299F222900C3C7404F0900C3DE412
:102C6B00F0A3E4F07B017A0C793C12643EEF700622
:102C7B007F1E1299F2227F1D1299F22212A2FB9053
:102C8B000C3BEFF0900C3BE0FFEF64036015900CF6
:102C9B003BE0FFEFB401067F1F1299F2227F1D125A
:102CAB0099F2227F1E1299F2227F04127A96EF700C
:102CBB00067F201299F2227F1F1299F2227B017A52
:102CCB000C793F128AE8900C3BEFF0900C3BE0FF45
:102CDB00EF64036027900C3BE0FFEFB40118900CFE
:102CEB003FE0FEA3E0FFEF4E70067F211299F22228
:102CFB007F1D1299F2227F1F1299F2227F201299C7
:102D0B00F222900C3C742BF0900C3DE4F0A3E4F019
:102D1B007B017A0C793C12643EEF70067F2212998C
:102D2B00F2227F211299F22212A077900C3AEFF047
:102D3B00900C3AE0FFEF64016014900C3AE0FFEF67
:102D4B0070067F231299F2227F211299F2227F22A1
:042D5B001299F222B5
:102D5F00900C4174E4F0900BC7E0FF900C42EFF041
:102D6F007B017A0C7941900BD2E0FF900C27EFF0AA
:102D7F00900C28E4F0900C29E4F07D027C001240C6
:102D8F0063EF7010900BD4E4F07F001299F27FFF85
:0A2D9F001297E6227F231299F22218
:052DA9007F001299F209
:012DAE002202
:06A61100900BD4E0FF22D3
:06A61700900BC7E0FF22DA
:10A27D00900EBEEFF0900EBFEDF0900EBEE0FF9091
:10A28D000EBFE0FD1274C7EF70037F00227F022224
:059D5B00900EC0EFF0C6
:109D6000900EC0E0FF129F68900EC1EFF0900EC100
:109D7000E0FFEF6403600F900EC1E0FFEFB401035A
:089D80007F00227F02227F0117
:019D880022B8
:0599B900900DE0EFF04D
:1099BE00900DE17476F0900DE0E0FFEF600A900DEF
:1099CE00E2E4F0A3E4F08009900DE2E4F0A3740366
:1099DE00F07B017A0D79E112643EEFB402037F024F
:0399EE00227F00D5
:0199F1002253
:10A5510075840053D4F853D4E743D4807584002222
:109E6D00900EC2EEF0A3EFF0758400900EC2E0FEEE
:109E7D00A3E0FFEF54FFF5D2900EC2E0FEA3E0FF8A
:0C9E8D007F00EEFF7E008FD37584002262
:10A5610075840153D4F853D4E743D4807584002211
:109E9900900EC4EEF0A3EFF0758401900EC4E0FEBD
:109EA900A3E0FFEF54FFF5D2900EC4E0FEA3E0FF5C
:0C9EB9007F00EEFF7E008FD37584002236
:0C00960090098C7402F090098DE4F022B7
:0D636900900C81EFF0900C82ECF0A3EDF0B1
:1063760012A5C1EFB401037F022290098C7404F0C8
:10638600900C82E0FEA3E0FF900C86EFF0900C826A
:10639600E0FEA3E0FFEE5401FE7F00EF7803C33377
:1063A600CE33CED8F9FF900C85EFF0900C85E0FF48
:1063B600EF4403FF900C84EFF012A5E4AE02AF01A8
:1063C600900C87EEF0A3EFF0900C84E0FF900C8722
:1063D600E0FCA3E0FD8D828C83EFF0900C86E0FF5D
:1063E600900C87E0FCA3E0FD8D828C83A3EFF090F8
:1063F6000C87E0FEA3E0FF8F828E83A3A3E4F0C2A6
:10640600B0900C81E0FF7D011299807B017A0979B9
:106416008EC003C002C0017BFF7AA17927900C765B
:10642600EBF0A3EAF0A3E9F0D001D002D0037F039A
:076436007E0012871A7F00AF
:01643D00223C
:10537700900C44EFF0900C45ECF0A3EDF0900C4747
:02538700EBF049
:1053890012A5C1EFB401037F022290098C7404F0C5
:10539900900C45E0FEA3E0FF900C4AEFF0900C451D
:1053A900E0FEA3E0FFEE5401FE7F00EF7803C33374
:1053B900CE33CED8F9FF900C49EFF0900C49E0FFBD
:1053C900EF4403FF900C48EFF012A5E4AE02AF01E1
:1053D900900C4CEEF0A3EFF0900C48E0FF900C4CD1
:1053E900E0FCA3E0FD8D828C83EFF0900C4AE0FF96
:1053F900900C4CE0FCA3E0FD8D828C83A3EFF09030
:105409000C4BE4F0900C47E0FF900C4BE0FEEEC330
:105419009F502F900C4BE0FF7E00EF2402FFEE34EB
:1054290000FE900C4CE0FCA3E0FD8D828C83E582AC
:105439002FF582E5833EF583E4F0900C4BE004F010
:1054490080C2C2B0900C44E0FF7D01129980900C9B
:1054590047E0FF7E00EF2402FFEE3400FE7B017A75
:1054690009798EC003C002C0017BFF7AA179279018
:105479000C76EBF0A3EAF0A3E9F0D001D002D00357
:0554890012871A7F00EC
:01548E0022FB
:105D5800900C58EFF0900C59ECF0A3EDF0900C5B20
:025D6800EBF05E
:105D6A00900C58E0FF7D0012998090098C7404F021
:105D7A00900C59E0FEA3E0FF900C5EEFF0900C59F6
:105D8A00E0FEA3E0FFEE5401FE7F00EF7803C33389
:105D9A00CE33CED8F9FF900C5DEFF0900C5DE0FFAA
:105DAA00EF4402FF900C5CEFF012A5E4AE02AF01E3
:105DBA00900C5FEEF0A3EFF0900C5CE0FF900C5FAC
:105DCA00E0FCA3E0FD8D828C83EFF0900C5EE0FF97
:105DDA00900C5FE0FCA3E0FD8D828C83A3EFF09032
:105DEA000C5BE0FF900C5FE0FCA3E0FD8D828C83EE
:105DFA00A3A3EFF090098DE4F0900C58E0FF7D0129
:105E0A001299807B017A09798EC003C002C0017B96
:105E1A00FF7AA17927900C76EBF0A3EAF0A3E9F0D8
:0F5E2A00D001D002D0037F037E0012871A7F00C1
:015E39002246
:1047B900900BF1EFF0900BF2ECF0A3EDF0900BF40D
:0847C900EBF0A3EAF0A3E9F014
:1047D100900BF1E0FF7D0012998090098C7404F038
:1047E100900BF7E0FF7E00900BF2E0FCA3E0FDEF01
:1047F1002DFFEE3CFEEF24FFFFEE34FFFEEEC4F88A
:1048010054F0C868FCEFC4540F48FD900BF2E0FE71
:10481100A3E0FFEEC4F854F0C868FEEFC4540F489B
:10482100FFD3ED9FEC9E40037F0322900BF2E0FE4D
:10483100A3E0FF900BFAEFF0900BF2E0FEA3E0FF94
:10484100EE5401FE7F00EF7803C333CE33CED8F9A7
:10485100FF900BF9EFF0900BF9E0FFEF4402FF90AE
:104861000BF8EFF012A5E4AE02AF01900BFCEEF0F5
:10487100A3EFF0900BF8E0FF900BFCE0FCA3E0FD50
:104881008D828C83EFF0900BFAE0FF900BFCE0FC43
:10489100A3E0FD8D828C83A3EFF0900BFBE4F090FD
:1048A1000BF7E0FF900BFBE0FEEEC39F504A900B2D
:1048B100F4E0FBA3E0FAA3E0F9900BFBE0FF8F82A9
:1048C100758300121964FF900BFBE0FEEEFD7C0086
:1048D100ED2402FDEC3400FC900BFCE0FAA3E0FBBC
:1048E1008B828A83E5822DF582E5833CF583EFF0A7
:1048F100900BFBE004F080A790098DE4F0900BF1A0
:10490100E0FF7D01129980900BF7E0FF7E00EF241C
:1049110002FFEE3400FE7B017A09798EC003C002EA
:10492100C0017BFF7AA17927900C76EBF0A3EAF026
:0E493100A3E9F0D001D002D00312871A7F0054
:01493F002255
:05878D00900E8FEFF0DB
:1087920012A5C1EFB401037F022290098C7404F088
:1087A200D2B090098D7401F012A5E4AE02AF01902F
:1087B2000E90EEF0A3EFF0900E90E0FEA3E0FF8F9C
:1087C200828E837406F0900E8FE0FF7D01129980F5
:1087D2007B017A09798EC003C002C0017BFF7AA1B6
:1087E2007927900C76EBF0A3EAF0A3E9F0D001D060
:0C87F20002D0037F017E0012871A7F0076
:0187FE002258
:10A12700C0D075D018900EE0EFF0900EE0E0FFEF92
:10A13700700890098C7401F0800690098C7402F005
:03A14700D0D02253
:107EDA00900D60EFF0900D61EBF0A3EAF0A3E9F0EA
:107EEA0090098CE0FFEFB404037F042290098CE030
:107EFA00FFEF6401704C900D64E0FFEFB40116903F
:107F0A000990E0FF900D61E0FBA3E0FAA3E0F9EF2E
:107F1A001219E6802D900D64E0FF7E007B017A093C
:107F2A007990C003C002C001900D61E0FBA3E0FAA2
:107F3A00A3E0F9A801AC02AD03D001D002D003122C
:107F4A001925900D60E0FF7D0012998012001690AD
:057F5A00098CE0FF228C
:109D8900900EE1EFF090098CE0FFEFB404037F043B
:109D990022900EE1E0FF7D0012998090098DE0FF8D
:0E9DA900EF7005C2B012001690098CE0FF2288
:108A2500900CBCEBF0A3EAF0A3E9F0900CBFEDF0DD
:108A3500900CC1E4F0A3E4F0900CC0E4F0900CBFFE
:108A4500E0FF900CC0E0FEEEC39F502F900CBCE001
:108A5500FBA3E0FAA3E0F9900CC0E0FF8F827583D9
:108A650000121964FF7E00900CC2E02FF0900CC13B
:108A7500E03EF0900CC0E004F080C2900CC1E0FE36
:038A8500A3E0FF6C
:018A880022CB
:0FA571007BFF7A8C790112894F900DEBEFF0226E
:058C0100900DE4EFF00E
:108C0600900DE4E0FFEF121CCB8C19008C3F0100A5
:038C1600008C5B74
:108C1900900DE57406F0900DE6E4F0A3E4F07B0115
:108C29007A0D79E512643EEF70067F011299F222FE
:068C39007F001299F222F7
:108C3F0012A2FBEF6403600F7F001299F27DF47CA8
:0C8C4F00017FFF126B64227F011299F27A
:018C5B0022F6
:06A61D00900DEBE0FF22AE
:10A14A007BFF7AA2799D12894F900DE9EFF07BFF90
:10A15A007A94795D12894F900DE8EFF0900DEA74C8
:03A16A0001F022DF
:10A51900900DEAE0FFEF600C900DE9E0FF7D607CB3
:05A52900EA126B642240
:10A29D00900EE2EFF012A52E7F0012A355900DE85F
:10A2AD00E0FF7D0012976C75EF087FFF1297E62295
:109DB700900EE3EFF0900EE3E0FFEF6013900DEAF3
:109DC7007401F0900DE9E0FF7D607CEA126B64227C
:0E9DD700900DEAE4F0900DE9E0FF1297E6220D
:05945D00900EE4EFF0A9
:10946200900EE4E0FFEF121CCB947500948901008A
:1094720000949B7F00129529EF70067F011299F2EA
:10948200227F001299F22212A58EEF70067FFF1240
:0E94920097E6227F011299F2227F001299F2D2
:0194A00022A9
:10A4ED007584015388FC4388015388F343880443E2
:06A4FD0088807584002236
:10A503007584025388FC4388015388F343880443CA
:06A513008880758400221F
:1095AC0012A55112A56112A4ED12A503D288D28A7C
:1095BC007BFF7A6079DC12894F900C90EFF0900C65
:1095CC0089E4F0900C8AE4F0900C8BE4F0A3E4F0C6
:1095DC00900C8D7401F0900C8EE4F0900C8FE4F0F4
:0195EC00225C
:10941700900D65EEF0A3EFF0900D67ECF0A3EDF083
:10942700900D69EBF0900D65E0FEA3E0FF129E6DD5
:10943700900D65E0FEA3E0FF129E99900D67E0FE98
:10944700A3E0FF900C8BEEF0A3EFF0900D69E0FF27
:06945700900C8DEFF022E5
:1096EE00900EE5EFF0900EE5E0FFEF6026900C890E
:1096FE00E4F0900C8AE4F0900C8EE4F0900C8FE481
:10970E00F0C289C28B120036900C90E0FF7D0012E1
:0F971E00976C2212002E900C90E0FF1297E6221B
:0560DC00900E92EFF0B0
:1060E100900E92E0FFEF121CCB60F4006172010090
:1060F1000061B1900E93E4F012002E900C89E0FF44
:10610100EF7008900C8AE0FFEF604E900C89E0FF81
:10611100EF601F900C89E4F0900C8DE0FF900C8EE5
:10612100E0FEEEC39F400B900C8EE4F0900E937452
:1061310001F0900C8AE0FFEF601F900C8AE4F09070
:106141000C8DE0FF900C8FE0FEEEC39F400B900C96
:106151008FE4F0900E937401F0120036900E93E0EC
:10616100FFEF60077F011299F280067F001299F21A
:01617100220B
:10617200900E9474E7F07B017A0E7994900C277458
:1061820001F0900C28E4F0900C29E4F07D017C00F1
:10619200124063EF70137F001299F2900C8BE0FCB7
:0F61A200A3E0FD7FFF126B64227F011299F222AE
:0561B1007F001299F2CD
:0161B60022C6
:0300030002A4A3B1
:10A4A300C0E0C083C082900C897401F0900C8EE0F0
:09A4B30004F0D082D083D0E03225
:0300130002A4BC88
:10A4BC00C0E0C083C082900C8A7401F0900C8FE0D5
:09A4CC0004F0D082D083D0E0320C
:03002E00C2A82243
:03003600D2A8222B
:106707004506CF0203000003012400480757B0B134
:10671700B2B3B4B5B6B7480732B8B9BABBBCBDBE99
:10672700BF480725C0C1C2C3C4C5C6C74807A8D04C
:10673700D1D2D3D4D5D6D74106DE0041074D004389
:0967470006D51200014106DA003A
:05A02E00900EE6EFF0CA
:10A03300900EE6E0FFEFC3940540037F0022900EED
:0FA04300E6E0FF74CF2FF582E43406F583E0FFEB
:01A0520022EB
:103DCC0012A5F2AE02AF019007C3EEF0A3EFF09094
:103DDC0007C3E0FEA3E0FFAA06A9077B01128870C7
:103DEC007BFF7A8079E312894F9007A5EFF07BFF78
:103DFC007A9A792A12894F9007B6EFF07BFF7A7284
:103E0C0079E912894F9006EEEFF07BFF7A5F79FC2F
:103E1C0012894F90072FEFF07BFF7A687957128940
:103E2C004F900716EFF07BFF7A4E79B712894F90BF
:103E3C00077AEFF07BFF7A7F79E112894F9006F9D0
:103E4C00EFF07BFF7A65791212894F900779EFF0CA
:103E5C007BFF7A77793012894F9007D0EFF07BFF98
:103E6C007A6A79A712894F9006E6EFF07BFF7A34D5
:103E7C0079CF12894F900742EFF07BFF7A42798419
:103E8C0012894F9007A3EFF07BFF7A5979AD128915
:103E9C004F900756EFF07BFF7A6F79A112894F9004
:103EAC000741EFF07BFF7A8179E212894F90077717
:103EBC00EFF07BFF7A8F799F12894F900769EFF0B3
:103ECC007BFF7A82795E12894F90075FEFF07BFF60
:103EDC007A8F79EE12894F9007A4EFF07BFF7A90DE
:103EEC00793D12894F9006DBEFF07BFF7A90798C4D
:103EFC0012894F90074BEFF07BFF7A8279DA1289A7
:103F0C004F900743EFF07BFF7A9279AF12894F9075
:103F1C000746EFF07BFF7A8D79B712894F9007C96E
:103F2C00EFF07BFF7A8C795C12894F90077DEFF074
:103F3C007BFF7A9079DB12894F9007B2EFF07BFF11
:103F4C007A5779B412894F900740EFF07BFF7A7063
:103F5C00794C12894F900776EFF07BFF7A9A796152
:103F6C0012894F900778EFF07BFF7A5879B8128955
:103F7C004F900722EFF07BFF7A2779C012894F9080
:103F8C0006E9EFF07BFF7A8E796112894F90074E2C
:103F9C00EFF07BFF7A8979BB12894F9007B7EFF06E
:103FAC007BFF7A74792A12894F900724EFF07BFFFC
:103FBC007A9479A112894F9006FCEFF07BFF7A5E20
:103FCC00793A12894F900773EFF07BFF7A83795619
:103FDC0012894F900768EFF07BFF7A8379D21289B0
:103FEC004F9007B5EFF07BFF7A62799112894F9071
:103FFC0007C2EFF07BFF7A91792A12894F90072341
:10400C00EFF07BFF7A8E790D12894F90073AEFF023
:10401C007BFF7A91797912894F9006E7EFF07BFF5D
:10402C007A8E79B112894F9006E5EFF07BFF7A9189
:10403C0079C812894F90074CEFF07BFF7A6D799419
:10404C0012894F9007CFEFF07BFF7A73798B12892F
:07405C004F9006E8EFF0228F
:05806300900D6AEFF032
:108068009007C3E0FEA3E0FFAA06A9077B011296CA
:108078006F900D6BEEF0A3EFF0900D6BE0FEA3E0B8
:10808800FFEF64FF7003EE64FF60479007C3E0FEF4
:10809800A3E0FFAA06A9077B01900D6BE0FCA3E013
:1080A800FD127C3AAE02AF01900D6DEEF0A3EFF039
:1080B800900D6DE0FEA3E0FFAA06A9077B01120060
:1080C800A69007C3E0FEA3E0FFAA06A9077B01125A
:0A80D8008163900D6AE0FF1299F237
:0180E200227B
:0B00A600900C4EEBF0A3EAF0A3E9F091
:1000B100900C4EE0FBA3E0FAA3E0F912194BFF907C
:1000C1000C53EFF0900C4EE0FBA3E0FAA3E0F975BE
:1000D1008201758300121964FF900C54EFF0900CAB
:1000E1004EE0FBA3E0FAA3E0F975820375830012E9
:1000F1001964FF900C51EFF0900C4EE0FBA3E0FA75
:10010100A3E0F9758202758300121964FF900C5205
:10011100EFF0900C53E0FFEFB4010312A519900C1E
:1001210051E0FFEF121CCB01BF0101DE6403E46566
:1001310004036604226704B46804D36904F26A05FF
:10014100806B059F6C05BE6D05DD6E062E6F068EFC
:100151007006AD71075672079C7308EA7409097538
:100161000A17760A36770A55780A747C0AB27D0A2C
:10017100D1800B39810B88820BA7830BC6840CDDE0
:10018100850D48860D67870D86880F43890F948AF0
:100191000FF28B10118C106C8D0A938F10BD901182
:1001A1000E9111629211F597118198135899125A73
:1001B1009A12E49B13FE9C14129D00001412900CE1
:1001C10053E0FF900730EFF0900C52E0FF900731C1
:0D01D100EFF09006FCE0FF7D0012976C221D
:1001DE00900C4EE0FBA3E0FAA3E0F9E92404F9EA5F
:1001EE003400FAAE02AF01900C55EEF0A3EFF09092
:1001FE000C55E0FEA3E0FFAA06A9077B01C003C0D1
:10020E0002C001900C55E0FEA3E0FFAA06A9077BF1
:10021E0001900C01EBF0A3EAF0A3E9F0900C04E4DA
:10022E00F0A3740DF0D001D002D003125B87900CB6
:10023E0055E0FEA3E0FFEF241CFFEE3400FEAA06FD
:10024E00A9077B011286A6900C55E0FEA3E0FFEFF6
:10025E00241AFFEE3400FEAA06A9077B011286A619
:10026E00900C55E0FEA3E0FFEF2420FFEE3400FEDD
:10027E00AA06A9077B011286A6900C55E0FEA3E004
:10028E00FFEF241EFFEE3400FEAA06A9077B011223
:10029E0086A6900C55E0FEA3E0FFEF2422FFEE347D
:1002AE0000FEAA06A9077B011286A6900C55E0FE59
:1002BE00A3E0FFAA06A9077B01900C55E0FEA3E080
:1002CE00FF8F828E83E582241AF582E5833400F552
:1002DE0083E0FEA3E0FF900B78EEF0A3EFF0900C1E
:1002EE0055E0FEA3E0FF8F828E83E582241CF5820B
:1002FE00E5833400F583E0FEA3E0FF900B7AEEF089
:10030E00A3EFF0900C55E0FEA3E0FF8F828E83E505
:10031E0082241EF582E5833400F583E0FEA3E0FF20
:10032E00900B7CEEF0A3EFF0900C55E0FEA3E0FFF7
:10033E008F828E83E5822420F582E5833400F58357
:10034E00E0FEA3E0FF900B7EEEF0A3EFF0900C55D5
:10035E00E0FEA3E0FF8F828E83E5822422F582E504
:10036E00833400F583E0FEA3E0FF900B80EEF0A354
:10037E00EFF0900C55E0FEA3E0FF8F828E83E582B6
:10038E002424F582E5833400F583E0FF900B82EFA1
:10039E00F0900C55E0FEA3E0FF8F828E83E5822461
:1003AE0025F582E5833400F583E0FF900B83EFF0B3
:1003BE007D0D7F0012559E900C53E0FF900704EFC9
:1003CE00F0900C52E0FF900705EFF09006DBE0FF97
:0603DE007D0012976C2265
:1003E400900C53E0FF9007C7EFF0900C52E0FF90A1
:1003F40007C8EFF0900777E0FF7D0012976C22901A
:100404000C53E0FF9006E3EFF0900C52E0FF9006EF
:0E041400E4EFF09007A5E0FF7D0012976C2248
:10042200900C4EE0FBA3E0FAA3E0F9E92404F9EA18
:100432003400FAAE02AF01900C55EEF0A3EFF0904B
:100442000C55E0FEA3E0FFAA06A9077B01C003C08A
:1004520002C001900C55E0FEA3E0FFAA06A9077BAB
:1004620001900C01EBF0A3EAF0A3E9F0900C04E494
:10047200F0A3740DF0D001D002D003125B87900C70
:1004820055E0FEA3E0FFAA06A9077B017D0C7F00D1
:10049200128540900C53E0FF9007B0EFF0900C52A1
:1004A200E0FF9007B1EFF0900769E0FF7D0012973F
:0204B2006C22BA
:1004B400900C53E0FF90077BEFF0900C52E0FF901C
:1004C400077CEFF090075FE0FF7D0012976C2290AD
:1004D4000C53E0FF900766EFF0900C52E0FF90079A
:0E04E40067EFF0900743E0FF7D0012976C2257
:1004F200900C4EE0FBA3E0FAA3E0F9E92404F9EA48
:100502003400FAAE02AF01900C55EEF0A3EFF0907A
:100512000C55E0FEA3E0FFAA06A9077B01C003C0B9
:1005220002C001900C55E0FEA3E0FFAA06A9077BDA
:1005320001900C01EBF0A3EAF0A3E9F0900C04E4C3
:10054200F0A37402F0D001D002D003125B87900CAA
:1005520055E0FEA3E0FFAA06A9077B01128CB49026
:100562000C53E0FF9006EAEFF0900C52E0FF900689
:0E057200EBEFF09007B2E0FF7D0012976C22D5
:10058000900C53E0FF9007B3EFF0900C52E0FF9017
:1005900007B4EFF0900746E0FF7D0012976C2290C1
:1005A0000C53E0FF9006FAEFF0900C52E0FF90063B
:1005B000FBEFF09007C9E0FF7D0012976C22900CD2
:1005C00053E0FF9006DCEFF0900C52E0FF9006DD68
:0D05D000EFF090077DE0FF7D0012976C2298
:1005DD00900C4EE0FBA3E0FAA3E0F9E92404F9EA5C
:1005ED003400FAAE02AF01900C55EEF0A3EFF0908F
:1005FD000C53E0FF9007CCEFF0900C52E0FF90070A
:10060D00CDEFF0900C55E0FEA3E0FF8F828E83E0DE
:10061D00FF9007CEEFF0900779E0FF7D0012976C09
:01062D0022AA
:10062E00900C4EE0FBA3E0FAA3E0F9E92404F9EA0A
:10063E003400FAAE02AF01900C55EEF0A3EFF0903D
:10064E000C53E0FF900700EFF0900C52E0FF900784
:10065E0001EFF0900C55E0FEA3E0FF8F828E83E059
:10066E00FEA3E0FF900702EEF0A3EFF07B017A0706
:10067E0079021286A69007D0E0FF7D0012976C22B9
:10068E00900C53E0FF900719EFF0900C52E0FF90A2
:0F069E00071AEFF09006E6E0FF7D0012976C223E
:1006AD00900C4EE0FBA3E0FAA3E0F9E92404F9EA8B
:1006BD003400FAAE02AF01900C55EEF0A3EFF090BE
:1006CD000C53E0FF9006E1EFF0900C52E0FF900626
:1006DD00E2EFF0900C55E0FEA3E0FFAA06A9077B20
:1006ED00011286A6900C55E0FEA3E0FFEF2402FF59
:1006FD00EE3400FEAA06A9077B011286A6900C55C2
:10070D00E0FEA3E0FF8F828E83E0FEA3E0FF900C5E
