:10A23500900E44EBF0A3EAF0A3E9F0900E44E0FBA6
:10A24500A3E0FAA3E0F9758205758300121964FF8E
:01A2550022E6
:106E3E00900E47EBF0A3EAF0A3E9F0900E47E0FBCB
:106E4E00A3E0FAA3E0F9758203758300743B12196F
:106E5E00F8900E47E0FBA3E0FAA3E0F97582017506
:106E6E008300E41219F8900E47E0FBA3E0FAA3E0CA
:106E7E00F9758202758300E41219F8900E47E0FB53
:106E8E00A3E0FAA3E0F9758205758300E41219F800
:106E9E00900E47E0FBA3E0FAA3E0F9758204758338
:106EAE0000E41219F8900E47E0FBA3E0FAA3E0F914
:106EBE00E41219E6900E47E0FBA3E0FAA3E0F975A1
:106ECE00820A758300E41219F8900E47E0FBA3E0E6
:0F6EDE00FAA3E0F975820B758300E41219F8220C
:1056A700C0D075D010900E4AEBF0A3EAF0A3E9F052
:1056B700900E4AE0FBA3E0FAA3E0F9758202758336
:1056C70000121964FF900E4AE0FBA3E0FAA3E0F989
:1056D700758201758300121964FEEEB5171D900ED1
:1056E7004AE0FBA3E0FAA3E0F9758205758300128F
:1056F7001964FFEF60057F030257AB900E4AE0FB8A
:10570700A3E0FAA3E0F9758201758300121964FF1B
:105717007E00900E4AE0FBA3E0FAA3E0F9E9240D2E
:10572700F9EA3400FAE92FF9EA3EFAE5991219E69F
:10573700900E4AE0FBA3E0FAA3E0F97582037583B4
:1057470000121964FF900E4AE0FBA3E0FAA3E0F908
:10575700758201758300121964FEEEC39F5018907D
:105767000E4AE0FBA3E0FAA3E0F975820175830016
:1057770074011219B38015900E4AE0FBA3E0FAA357
:10578700E0F9758201758300E41219F8900E4AE07A
:10579700FBA3E0FAA3E0F975820575830074011293
:0757A70019B37F01D0D022ED
:0B5A9600900CD8EBF0A3EAF0A3E9F0BD
:105AA100900CD8E0FBA3E0FAA3E0F97582057583B9
:105AB10000121964FFEF70067F0322025B7EA2AC25
:105AC1009204C2AC900CD8E0FBA3E0FAA3E0F97514
:105AD1008202758300121964FF7E00900CD8E0FBEE
:105AE100A3E0FAA3E0F9E9240DF9EA3400FAE92F79
:105AF100F9EA3EFA12194BFF900CDBE0FBA3E0FA46
:105B0100A3E0F9EF1219E6900CD8E0FBA3E0FAA3A9
:105B1100E0F9758203758300121964FF900CD8E0D7
:105B2100FBA3E0FAA3E0F975820275830012196400
:105B3100FEEEC39F5018900CD8E0FBA3E0FAA3E05F
:105B4100F975820275830074011219B38015900CE6
:105B5100D8E0FBA3E0FAA3E0F9758202758300E4C3
:105B61001219F8900CD8E0FBA3E0FAA3E0F97582D2
:0F5B71000575830074FF1219B3A20492AC7F0173
:015B80002202
:10886A00900E4DEBF0A3EAF0A3E9F0900E4DE0FB79
:10887A00A3E0FAA3E0F97582037583007403121961
:10888A00F8900E4DE0FBA3E0FAA3E0F975820275B9
:10889A008300E41219F8900E4DE0FBA3E0FAA3E07E
:1088AA00F9758201758300E41219F8900E4DE0FB08
:1088BA00A3E0FAA3E0F9758204758300E41219F8BB
:1088CA00900E4DE0FBA3E0FAA3E0F9E41219E622C8
:108D0500900E50EBF0A3EAF0A3E9F0900E50E0FBD3
:108D1500A3E0FAA3E0F9758203758300121964FFD5
:108D2500900E50E0FBA3E0FAA3E0F9758204758389
:108D350000121964FEEEB507057EFF7FFF22900E37
:108D450050E0FBA3E0FAA3E0F975820275830012F7
:068D55001964FF7E0022FC
:107C3400900D1AEBF0A3EAF0A3E9F0900D1DECF01F
:107C4400A3EDF0900D1AE0FBA3E0FAA3E0F975822E
:107C540003758300121964FF7E00EF24FFFFEE34E6
:107C6400FFFE900D1DE0FCA3E0FDD3ED9FEE6480CC
:107C7400F8EC6480985010900D1DE0FEA3E0FFC363
:107C8400EE6480948050077B007A00790022900D86
:107C94001AE0FBA3E0FAA3E0F9E92406F9EA3400C8
:107CA400FA900D1DE0FEA3E0FF7C007D3C121A1A41
:077CB400E92FF9EA3EFA2274
:10862A00900E53EBF0A3EAF0A3E9F0900E53E0FBAF
:10863A00A3E0FAA3E0F9758203758300121964FFB7
:10864A00900E53E0FBA3E0FAA3E0F975820275836A
:10865A000074011219B3FEEEB50715900E53E0FB34
:10866A00A3E0FAA3E0F9758202758300E41219F80F
:10867A00900E53E0FBA3E0FAA3E0F9E41219E690A6
:10868A000E53E0FBA3E0FAA3E0F9758204758300B8
:06869A0074011219B32265
:10A09500900E56EBF0A3EAF0A3E9F0900E56E0FB24
:10A0A500A3E0FAA3E0F9758204758300121964FF31
:03A0B5007E002208
:10966900900E59EBF0A3EAF0A3E9F0900E59E0FB54
:10967900A3E0FAA3E0F9758204758300121964FF67
:10968900EF70057EFF7FFF22900E59E0FBA3E0FA01
:10969900A3E0F9758201758300121964FF7E002227
:10815D00900E5CEBF0A3EAF0A3E9F0900E5CE0FB6F
:10816D00A3E0FAA3E0F9758204758300121964FF88
:10817D00EF605B900E5CE0FBA3E0FAA3E0F9758283
:10818D0003758300121964FF900E5CE0FBA3E0FA07
:10819D00A3E0F975820175830074011219B3FEEE27
:1081AD00B50715900E5CE0FBA3E0FAA3E0F975822C
:1081BD0001758300E41219F8900E5CE0FBA3E0FA60
:0F81CD00A3E0F975820475830074FF1219B322C1
:1077C300900CDEEBF0A3EAF0A3E9F0900CE1ECF00F
:1077D300A3EDF0900CDEE0FBA3E0FAA3E0F91219AD
:1077E3004BFFEFC3943C5068900CE3E0FFC007905D
:1077F3000CDEE0FBA3E0FAA3E0F9E92406F9EA349E
:1078030000FA900CE1E0FEA3E0FF7C007D3C121A3D
:107813001AE92FF9EA3EFAC003C002C001900CDE58
:10782300E0FBA3E0FAA3E0F912194BFF7E00D001BD
:10783300D002D003E92FF9EA3EFAD007EF1219E696
:10784300900CDEE0FBA3E0FAA3E0F97401121991B6
:017853002212
:05000600C201C200224E
:0596A900900DB0EFF090
:1096AE00900DB17409F0900DB0E0FFEF600D900DCC
:1096BE00B2E4F0A37402F0D200800C900DB2E4F08C
:1096CE00A3E4F0C200C2017B017A0D79B1126438B5
:0996DE00EFB402037F02227F00B9
:0196E7002260
:05952300900DB4EFF013
:10952800900DB57409F0900DB4E0FFEF6010900D48
:10953800B6E4F0A37403F0300010D201800C900D53
:10954800B6E4F0A3E4F0C201C2007B017A0D79B55C
:0C955800126438EFB402037F02227F008F
:0195640022E4
:089C0000900D1FEEF0A3EFF040
:109C0800900D21740AF0900D1FE0FEA3E0FF900D67
:109C180022EEF0A3EFF07B017A0D7921126438EF80
:089C2800B402037F02227F0059
:019C30002211
:06A5F000A201E433FF228A
:0EA577007F41127A90EF70037F00227F022254
:0EA5850012A2D5EF640360037F00227F012243
:0B989200900D24EBF0A3EAF0A3E9F036
:10989D007B017A0D7927128AE2EF6403601E900D29
:1098AD0027E0FEA3E0FF7E00900D24E0FBA3E0FA8D
:0E98BD00A3E0F9EE8FF0121B467F00227F0120
:0198CB00227A
:0C008600900249E4F090024A74FFF0225E
:0B894900900DB8EBF0A3EAF0A3E9F0FA
:10895400900249E0FFEFC3944140037FFF2290025D
:1089640049E0FF900DBBEFF0900DB8E0FBA3E0FAF7
:10897400A3E0F9900DBBE0FF75F009EFA42400F526
:1089840082E5F03400F583EBF0A3EAF0A3E9F0907C
:108994000DBBE0FF75F009EFA42404F582E5F03483
:1089A40000F583E4F0900249E004F0900DBBE0FF91
:0189B40022A0
:10976600900EAAEFF0900EABEDF0900EAAE0FF750A
:10977600F009EFA42404F582E5F03400F5837402C1
:10978600F0900EABE0FF900EAAE0FE75F009EEA495
:0D9796002403F582E5F03400F583EFF022A6
:1097E000900ED4EFF0900ED4E0FFEFB4FF1790028C
:1097F0004AE0FF75F009EFA42404F582E5F0340097
:10980000F583E4F022900ED4E0FF75F009EFA42474
:0C98100004F582E5F03400F583E4F0225A
:1099EC00900ED5EFF0900ED5E0FF90024AE0FE7598
:1099FC00F009EEA42403F582E5F03400F583EFF0D2
:109A0C0090024AE0FF75F009EFA42404F582E5F01A
:089A1C003400F5837402F0220E
:106B5E00900E5FEFF0900E60ECF0A3EDF0900E5FF4
:106B6E00E0FFEF64FF705290024AE0FF75F009EF0C
:106B7E00A42404F582E5F03400F5837403F090024A
:106B8E004AE0FF7E09EF8EF0A4FFAEF074052FF9F8
:106B9E0074003EFA7B01C003C002C001900E60E09B
:106BAE00FEA3E0FF7C007D0A121A2CAC06AD07D0C6
:106BBE0001D002D00312933D22900E5FE0FF75F0DC
:106BCE0009EFA42404F582E5F03400F5837403F094
:106BDE00900E5FE0FF7E09EF8EF0A4FFAEF074051D
:106BEE002FF974003EFA7B01C003C002C001900E63
:106BFE0060E0FEA3E0FF7C007D0A121A2CAC06AD0D
:0B6C0E0007D001D002D00312933D22FA
:10500000900ED6E4F0900249E0FF900ED6E0FEEE5E
:10501000C39F400302512D900249E0FF90024AE0F5
:1050200004FEF0EEB5070590024AE4F090024AE073
:10503000FF75F009EFA42404F582E5F03400F58350
:10504000E0FFEF6402705190024AE0FF75F009EF53
:10505000A42404F582E5F03400F5837401F0900295
:105060004AE0FF75F009EFA42403F582E5F034006F
:10507000F583E0FF90024AE0FE75F009EEA42400FB
:10508000F582E5F03400F583E0FBA3E0FAA3E0F954
:1050900089828A83121D222290024AE0FF75F0095C
:1050A000EFA42404F582E5F03400F583E0FFEF641B
:1050B00003707190024AE0FF7E09EF8EF0A4FFAE0C
:1050C000F074052FF974003EFA7B01128D5BEF64DA
:1050D00001705190024AE0FF75F009EFA42404F535
:1050E00082E5F03400F5837401F090024AE0FF7528
:1050F000F009EFA42403F582E5F03400F583E0FF26
:1051000090024AE0FE75F009EEA42400F582E5F075
:105110003400F583E0FBA3E0FAA3E0F989828A83F7
:0D512000121D2222900ED6E004F002500570
:01512D00225F
:10A3C200900ED7EFF0900ED7E0FF75F009EFA424BE
:0CA3D20004F582E5F03400F583E0FF2282
:10A3DE00900ED8EFF0900ED8E0FF75F009EFA424A0
:0CA3EE0003F582E5F03400F583E0FF2267
:0B86A000900C99EBF0A3EAF0A3E9F0C6
:1086AB00900C99E0FBA3E0FAA3E0F9900C9CEBF0A3
:1086BB00A3EAF0A3E9F0900C9CE0FBA3E0FAA3E0A3
:1086CB00F9758201758300121964FF900C9FEFF00E
:1086DB00900C9CE0FBA3E0FAA3E0F912194BFF907E
:1086EB000C9CE0FBA3E0FAA3E0F975820175830013
:1086FB00EF1219F8900C9FE0FF900C9CE0FBA3E0AD
:08870B00FAA3E0F9EF1219E6F0
:018713002243
:10A44D00900E62EBF0A3EAF0A3E9F0900E62E0FB50
:0AA45D00A3E0FAA3E0F91286A022A2
:0B65DF00900CA0EBF0A3EAF0A3E9F0A1
:1065EA00900CA0E0FBA3E0FAA3E0F9900CA3EBF077
:1065FA00A3EAF0A3E9F0900CA3E0FBA3E0FAA3E07E
:10660A00F9758203758300121964FF900CA6EFF0E6
:10661A00900CA3E0FBA3E0FAA3E0F912194BFF9058
:10662A000CA3E0FBA3E0FAA3E0F9758203758300EB
:10663A00EF1219F8900CA6E0FF900CA3E0FBA3E080
:10664A00FAA3E0F9EF1219E6900CA3E0FBA3E0FA33
:10665A00A3E0F9758202758300121964FF900CA6F3
:10666A00EFF0900CA3E0FBA3E0FAA3E0F975820136
:10667A00758300121964FF900CA3E0FBA3E0FAA350
:10668A00E0F9758202758300EF1219F8900CA6E002
:10669A00FF900CA3E0FBA3E0FAA3E0F97582017571
:0666AA008300EF1219F855
:0166B00022C7
:10A46700900E65EBF0A3EAF0A3E9F0900E65E0FB30
:0AA47700A3E0FAA3E0F91265DF226A
:0B5B8100900BFEEBF0A3EAF0A3E9F0AC
:105B8C00900C0474FF75F0FF121ACDAFF0FEEF4EBF
:105B9C007003025C69900C04E0FEA3E0FFEF25E0CB
:105BAC00FFEE33FE900BFEE0FBA3E0FAA3E0F98FCF
:105BBC00828E83121B0EFDACF0900C04E0FEA3E071
:105BCC00FFEF25E0FFEE33FE900C01E0FBA3E0FAC3
:105BDC00A3E0F98F828E83EC8DF0121B65900C0480
:105BEC00E0FEA3E0FFEF25E0FFEE33FE900C01E0BA
:105BFC00FBA3E0FAA3E0F9E92FF9EA3EFA900C06D0
:105C0C00EBF0A3EAF0A3E9F0900C06E0FBA3E0FABA
:105C1C00A3E0F9758201758300121964FF900C09D9
:105C2C00EFF0900C06E0FBA3E0FAA3E0F912194B9D
:105C3C00FF900C06E0FBA3E0FAA3E0F97582017576
:105C4C008300EF1219F8900C09E0FF900C06E0FBB2
:0D5C5C00A3E0FAA3E0F9EF1219E6025B8C59
:015C69002218
:10921100900C61EBF0A3EAF0A3E9F0900C61E0FBA4
:10922100A3E0FAA3E0F9C003C002C001900C64E01E
:10923100FBA3E0FAA3E0F9900C01EBF0A3EAF0A3A1
:10924100E9F0900C67E0FEA3E0FF900C04EEF0A3C0
:0C925100EFF0D001D002D003125B8122AC
:0B4C0500900C0AEBF0A3EAF0A3E9F02A
:104C1000900C1074FF75F0FF121ACDAFF0FEEF4E3E
:104C20007003024D61900C10E0FEA3E0FFEF7802EC
:104C3000C333CE33CED8F9FF900C0AE0FBA3E0FAE1
:104C4000A3E0F98F828E83121C02C004C005C00647
:104C5000C007900C10E0FEA3E0FFEF7802C333CE54
:104C600033CED8F9FF900C0DE0FBA3E0FAA3E0F9F6
:104C70008F828E83D007D006D005D004121C3290CC
:104C80000C10E0FEA3E0FFEF7802C333CE33CED8A2
:104C9000F9FF900C0DE0FBA3E0FAA3E0F9E92FF98E
:104CA000EA3EFA900C12EBF0A3EAF0A3E9F0900CC4
:104CB00012E0FBA3E0FAA3E0F9758203758300120A
:104CC0001964FF900C15EFF0900C12E0FBA3E0FAD2
:104CD000A3E0F912194BFF900C12E0FBA3E0FAA33A
:104CE000E0F9758203758300EF1219F8900C15E056
:104CF000FF900C12E0FBA3E0FAA3E0F9EF1219E633
:104D0000900C12E0FBA3E0FAA3E0F9758202758330
:104D100000121964FF900C15EFF0900C12E0FBA349
:104D2000E0FAA3E0F9758201758300121964FF901F
:104D30000C12E0FBA3E0FAA3E0F975820275830090
:104D4000EF1219F8900C15E0FF900C12E0FBA3E0B5
:104D5000FAA3E0F9758201758300EF1219F8024C8D
:014D60001042
:014D6100222F
:10925D00900C69EBF0A3EAF0A3E9F0900C69E0FB48
:10926D00A3E0FAA3E0F9C003C002C001900C6CE0CA
:10927D00FBA3E0FAA3E0F9900C0DEBF0A3EAF0A349
:10928D00E9F0900C6FE0FEA3E0FF900C10EEF0A360
:0C929D00EFF0D001D002D003124C0522EB
:0BA5AD00900CE47402F0D2B1C2B122A5
:057A9000900E68EFF00C
:107A950012A5B8EFB401037F0222900CE47403F041
:107AA5007D017F1212997AC2B012A5DBAE02AF0139
:107AB500900E69EEF0A3EFF0900E68E0FF900E696E
:107AC500E0FCA3E0FD8D828C83EFF0900E69E0FE73
:107AD500A3E0FF8F828E83A3E4F0900E69E0FEA3FE
:107AE500E0FF8F828E83A3A3E4F07B017A0C79E516
:107AF500C003C002C0017BFF7AA079B8900C76EB79
:107B0500F0A3EAF0A3E9F0D001D002D0037F037E11
:067B1500001287147F003E
:017B1B002247
:0B643800900D29EBF0A3EAF0A3E9F0BF
:1064430012A5B8EFB401037F0222900CE47403F0A9
:106453007D017F1212997AD2B012A5DBAE02AF0191
:10646300900D2CEEF0A3EFF0900D29E0FBA3E0FAE2
:10647300A3E0F912194BFF900D2CE0FCA3E0FD8D76
:10648300828C83EFF0900D29E0FBA3E0FAA3E0F9FF
:10649300758201758300121B0EFFAEF07F00EEFFC5
:1064A3007E00900D2CE0FCA3E0FD8D828C83A3EF96
:1064B300F0900D29E0FBA3E0FAA3E0F975820175E2
:1064C3008300121B0EFFAEF0EF54FFFF900D2CE084
:1064D300FCA3E0FD8D828C83A3A3EFF07B017A0CF8
:1064E30079E5C003C002C0017BFF7AA079B8900CA4
:1064F30076EBF0A3EAF0A3E9F0D001D002D0037F5A
:08650300037E001287147F00E3
:01650B00226D
:10A0B800C0D075D018900ED9EFF0900ED9E0FFEF10
:10A0C8007008900CE47401F08006900CE47402F0BF
:03A0D800D0D022C3
:108AE200900E6BEBF0A3EAF0A3E9F0900CE4E0FF48
:108AF200EFB403037F0322900CE4E0FFEFB4012EF6
:108B0200900CE7E0FF900E6BE0FBA3E0FAA3E0F924
:108B1200758201758300EF1219F8900CE6E0FF9060
:108B22000E6BE0FBA3E0FAA3E0F9EF1219E67D0079
:0E8B32007F1212997A120016900CE4E0FF22D6
:10A2D500900CE4E0FFEFB403037F03227D007F12BF
:0EA2E50012997AC2B0120016900CE4E0FF222B
:10559B0075FFDE75FFAD129EEA12981C129B661208
:1055AB00A31112008612972712A568128EFB12A266
:1055BB00B612A5C312A38812009612A5AD12A5E2CE
:1055CB001200061295A612A14412A001123DCC1294
:1055DB009F3A129F8AD2AF124AA6127F59129B3260
:1055EB00123B087BFF7A787954128949900CA7EF0C
:1055FB00F07BFF7A937984128949900CAAEFF07BA8
:10560B00FF7A9279F5128949900CACEFF07BFF7A17
:10561B0080795D128949900CADEFF07BFF7A61794F
:10562B00B1128949900CA8EFF07BFF7A31796012A7
:10563B008949900CA9EFF07BFF7A6C79D4128949D8
:10564B00900CABEFF0900CA8E0FF900CA9E0FD12D2
:10565B00A29712A6147D00129766900CA7E0FF7D0F
:10566B0000129766900CAAE0FF7D00129766900CD3
:10567B00A8E0FF7D00129766900CACE0FF7D001256
:10568B009766900CADE0FF7D00129766900CABE037
:0B569B00FF7D0012976612500080FB9C
:0156A60022E1
:109B3200900EAC74E0F0E5EF30E1047F0080027F2C
:109B420001900EADEFF07B017A0E79AC900C277488
:109B520001F0900C28E4F0900C29E4F07D037C00E5
:039B62001240634B
:019B650022DD
:109EEA0075840F43E10443E10275AD0075A5007561
:109EFA0090FF43E18043E20143E20443E21043E27C
:089F0A008043E340758400224E
:03001B00020019C7
:0100190032B4
:03002B0002001AB6
:01001A0032B3
:03003B000200219F
:0100210032AC
:0300430002002296
:0100220032AB
:03004B0002002987
:0100290032A4
:10A2F300758400C2CAC2C953C8FE75CAFF75CBDBD9
:0EA3030053C9E775CCFF75CDFFC2ADD2CA229B
:10A31100758400C28C900CF4E4F0A3E4F04389014D
:0EA32100758AFF758CDB538EF4D2A9D28C2284
:03000B0002A0DB75
:10A0DB00C0E0C083C082C28D900CF5E004F0700626
:10A0EB00900CF4E004F0758AFF758CDBD082D08382
:03A0FB00D0E03280
:10A4CC007584004389205389EF758DD0538EEF53DB
:08A4DC008EF4D28E4388402269
:10A4810075840253C8FB75C90853C8FD53E7FB75B2
:09A49100CBFF75CAB843C80422D0
:0300830002002A4E
:01002A0032A3
:10981C0075840F758C67900EAEE4F0A3E4F0900E97
:10982C00AEE0FEA3E0FFC3EE648094815010900E76
:10983C00AFE004F07006900EAEE004F080E04397C9
:0A984C0001538A7F43A604758400CF
:0198560022EF
:089FDA00900CEAEEF0A3EFF099
:109FE2007B017A0C79EC900CEAE0FCA3E0FD129381
:0E9FF2003D7B017A0C79EC128D5BEFB401F32C
:01A00000223D
:10933D00900D2EEBF0A3EAF0A3E9F0900D31ECF0D7
:10934D00A3EDF012A36B900D2EE0FBA3E0FAA3E0CA
:10935D00F9EE8FF0121B46900D31E0FEA3E0FF9069
:10936D000D2EE0FBA3E0FAA3E0F9758202758300F0
:07937D00EE8FF0121B6522C8
:0B8D5B00900D33EBF0A3EAF0A3E9F069
:108D660012A36B900D36EEF0A3EFF0900D33E0FBFF
:108D7600A3E0FAA3E0F9121AE3FFAEF0900D36E095
:108D8600FCA3E0FD128B9E900D33E0FBA3E0FAA35B
:108D9600E0F9758202758300121B0EFDACF0C3EF7D
:0A8DA6009DEE9C50037F00227F0128
:018DB00022A0
:07A5CD007B017A0C79F022FA
:10A36B00C2A9900CF4E0FEA3E0FF900EB0EEF0A3B8
:0CA37B00EFF0D2A9900EB0E0FEA3E0FFCE
:01A3870022B3
:108B9E00900DBCEEF0A3EFF0900DBEECF0A3EDF057
:108BAE00900DBCE0FEA3E0FF900DBEE0FCA3E0FD47
:108BBE00D3ED9FEC9E4018900DBCE0FEA3E0FF901D
:108BCE000DBEE0FCA3E0FDC3ED9FFFEC9EFE2290E8
:108BDE000DBCE0FEA3E0FFC3E49FFFE49EFE900DFC
:0D8BEE00BEE0FCA3E0FDEF2DFFEE3CFE22FB
:109B6600A2AF9206C2AF75840043911043910F7560
:109B7600985012A481C299C298D2ACD2BCA20692C5
:109B8600AFC208900839E4F090089EE4F0900838D7
:039B96007463F005
:019B990022A9
:03002300027CBBA1
:107CBB00C0E0C0F0C083C082C0D075D010C2ACE5AC
:107CCB009130E70353917FE59130E6035391BF3039
:107CDB00980BC2987B017A0779EF1256A730994A15
:107CEB00C29990089EE0FF900839E0FEEE6F603875
:107CFB0090089EE0FF743A2FF582E43408F583E098
:107D0B00FF8F9990089EE0FF7E00EF2401FFEE3479
:107D1B0000FE7C007D64121A2CAF1590089EEFF0CC
:107D2B00900838E004F08002C208D2ACD0D0D082E8
:077D3B00D083D0F0D0E0324C
:0300A30002003127
:01003100329C
:105F1600900D38EBF0A3EAF0A3E9F0900D3BEDF01D
:105F2600900D3BE0FF900838E0FEEEC39F50037FE4
:105F36000122A2AC9207C2AC900D3CE4F0900D3B5E
:105F4600E0FF900D3CE0FEEEC39F504F900D38E011
:105F5600FBA3E0FAA3E0F9900D3CE0FF8F82758386
:105F660000121964FF900839E0FE743A2EF582E4B7
:105F76003408F583EFF0900839E0FF7E00EF240146
:105F8600FFEE3400FE7C007D64121A2CAF059008EB
:105F960039EFF0900D3CE004F080A2900838E0FF65
:105FA600900D3BE0FEC3EF9EFF900838EFF020080F
:105FB60038D20890089EE0FF743A2FF582E4340840
:105FC600F583E0FF8F9990089EE0FF7E00EF2401A5
:105FD600FFEE3400FE7C007D64121A2CAF0590089B
:0F5FE6009EEFF0900838E004F0A20792AC7F0025
:015FF5002289
:07A5D4007B017A0779EF22F9
:1066B10054090A4F4F5F5F6F6F7F7F0F0F1F1F2FAF
:0766C1002F3F3F878F979FD9
:10A38800C202C203758400759A4075F809759DFF6D
:0DA3980043A6F843A70343F60143E6012264
:10871400900C71EEF0A3EFF0900C73EBF0A3EAF081
:10872400A3E9F075840053E6FE900C73E0FBA3E02C
:10873400FAA3E0F9AE02AF019008A4EEF0A3EFF0C3
:10874400900C71E0FEA3E0FF9008A3EFF0900C768C
:10875400E0FBA3E0FAA3E0F99008A0EBF0A3EAF0B1
:10876400A3E9F090089FE4F090089FE0FF04F07400
:10877400A62FF582E43408F583E0FF8F9B43E601DE
:038784007F002251
:030033000252571F
:10525700C0E0C0F0C083C082C0D075D01820FF0363
:10526700025314C2FF30030AE5A05407FFEF4407B7
:10527700F5A090089FE0FF7E00EF24FFFFEE34FFCC
:10528700FE9008A4E0FCA3E0FD8D828C83E5822FCD
:10529700F582E5833EF583E59BF09008A3E0FF9058
:1052A700089FE0FEEEC39F503E30032290091EE4A4
:1052B700F090091EE0FFEFC39414500890091EE018
:1052C70004F080EDE5A05407FFEF448FF5A09008A8
:1052D7009FE0FF04F074A62FF582E43408F583E01D
:1052E700FF8F9B807D80269008A3E0FF90089FE0BA
:1052F700FEEEB51F189008A0E0FBA3E0FAA3E0F9C3
:1053070089828A837F007E00121D22805530FE1A13
:10531700C2FE9008A0E0FBA3E0FAA3E0F989828A25
:10532700837F027E00121D22803830FD1AC2FD9055
:1053370008A0E0FBA3E0FAA3E0F989828A837F0350
:105347007E00121D22801B30FC18C2FC9008A0E0D2
:10535700FBA3E0FAA3E0F989828A837F047E001227
:0D5367001D22D0D0D082D083D0F0D0E03213
:0BA5B8003002037F0122D2027F00224C
:03001600C2022201
:10997A00900EB2EFF0900EB3EDF0900EB3E0FFEF61
:10998A00B4011B900EB2E0FF740A2FF582E4340989
:10999A00F583E0FFE5A05407FEEE4FF5A022E5A00F
:0999AA005407FFEF4407F5A02269
:07A5DB007B017A0879A6223A
:10A53800900EDAEFF0900EDAE0FFEF24FF9203229C
:1066C800490AB5010305070103050708480ABE0082
:0766D800010203040506079F
:0AA5C30012A2F3129B9A129D2622A9
:109B9A0075840075BA0075BC18900AC6E4F075BBE6
:109BAA000175D1077E007F127D007B017A0A799BBD
:109BBA00121D5575E80043E88043E702D2AFC20A96
:049BCA00758400227C
:109D260075840275BA0075BCF9900AC7E4F075BB74
:109D3600007E007F087D007B017A0A79AD121D55F1
:0F9D460075E80643E88043E710D2AF758400222A
:03007B00027B1CE9
:107B1C00C0E0C083C082C0D075D00853E7FDC2ED71
:107B2C00AFBF7E00900AC6E0FDED25E0249BF582F8
:107B3C00E4340AF583EEF0A3EFF0900AC6E0FFEF11
:107B4C0025E0249BF582E4340AF583C083C082E0EF
:107B5C00FEA3E0FFEF7F00FED082D083EEF0A3EF18
:107B6C00F0900AC6E0FFEF25E0249BF582E4340A8E
:107B7C00F583C083C082E0FEA3E0FFADBE7C00EEC7
:107B8C004CFEEF4DFFD082D083EEF0A3EFF043E735
:0C7B9C0002D20AD0D0D082D083D0E032D8
:03009300029AC806
:109AC800C0E0C0F0C083C082C0D075D00853E7EFB3
:109AD800C2ED900AC7E0FF74AD2FF582E4340AF5B1
:109AE80083E5BEF0129EBF43E710D0D0D082D0836A
:059AF800D0F0D0E032C7
:059BCE00900E6EEFF0A7
:109BD30053E7FD900E6EE0FFEF25E0249BF582E452
:109BE300340AF583E0FEA3E0FF900E6FEEF0A3EFDF
:0C9BF300F043E702900E6FE0FEA3E0FFDD
:019BFF002243
:0597A300900E71EFF0D3
:1097A80053E7EF900E71E0FF74AD2FF582E4340AB1
:1097B800F583E0FF7E00900E72EEF0A3EFF043E732
:1097C80010900E72E0FEA3E0FFEFC4F8540FC868D3
:0797D800FFEEC454F048FE4F
:0197DF002267
:10A04D00900AC6E004FFF0EFB40905900AC6E4F0EB
:10A05D00900AC6E0FF74B52FF582E4340AF583E06B
:04A06D00FF8FBB2284
:109EBF00C0D075D008900AC7E004FFF0EFB40805D2
:109ECF00900AC7E4F0900AC7E0FF74BE2FF582E452
:0B9EDF00340AF583E0FF8FBBD0D022D7
:03001E00A20A2211
:05000E00A209920A2284
:06A5F600900AC6E0FF22FE
:108EFB007E007F627D007B017A097925121D557EEC
:108F0B00007F037D007B017A097921121D557E00BC
:108F1B007F027D007B017A097987121D557E097FBF
:108F2B002690098AEEF0A3EFF0900924E4F0900963
:0F8F3B0089E4F075840043D10190091FE4F0220E
:05785400900EDBEFF0D7
:10785900900EDBE0FFEF121CCB78AF0078C1017806
:107869007202788403000078DE12755CEF70067F7F
:10787900031299EC227F021299EC221293CBEF6446
:1078890004601D128F4AEFB401077F001299EC8042
:10789900057F021299EC7DBE7C007FFF126B5E2290
:1078A9007F031299EC22127DC9EF70067F011299AC
:1078B900EC227F001299EC22129857EF6404600FB2
:1078C9007F021299EC7DBE7C007FFF126B5E227FE6
:0A78D900011299EC227F021299ECD3
:0178E3002282
:10755C0012A5B8EFB401037F02229009207404F045
:10756C0012A5DBAE02AF01900E74EEF0A3EFF0901B
:10757C000E74E0FEA3E0FF8F828E837433F0900EC6
:10758C00767401F0900E76E0FFEFD3943050259096
:10759C000E76E0FF900E74E0FCA3E0FD8D828C83F0
:1075AC00E5822FF582E43583F583E4F0900E76E0E6
:1075BC0004F080D07F0112A5387D017F1112997AD9
:1075CC00129F12C003C002C0017BFF7AA079FE900B
:1075DC000C76EBF0A3EAF0A3E9F0D001D002D003D3
:0975EC007F317E001287147F003C
:0175F5002273
:107DC90012A5B8EFB401037F02229009207404F0D0
:107DD90012A5DBAE02AF01900EB4EEF0A3EFF09066
:107DE9000EB4E0FEA3E0FF8F828E837434F0900E10
:107DF900B4E0FEA3E0FF8F828E83A3E4F0900EB47B
:107E0900E0FEA3E0FF8F828E83A3A3E4F07F01123B
:107E1900A5387D017F1112997A7B017A097921C0F0
:107E290003C002C0017BFF7AA079FE900C76EBF0CB
:107E3900A3EAF0A3E9F0D001D002D0037F037E00CA
:057E49001287147F0008
:017E4E002211
:10A0FE00C0D075D018900EDCEFF0900EDCE0FFEFC4
:10A10E0070089009207401F080069009207402F006
:03A11E00D0D0227C
:1093CB00900920E0FFEFB404037F04227D007F119E
:1093DB0012997A7F0012A538900924E0FFEF75F0FF
:1093EB0031A42426F582E43409F583AF82AE839051
:1093FB00098AEEF0A3EFF090091F7401F01200162A
:06940B00900920E0FF22A1
:10985700900920E0FFEFB404037F04227D007F110D
:1098670012997A7F0012A538900922E0FF900987A4
:10987700EFF0900923E0FF900988EFF090091F743B
:0B98870001F0120016900920E0FF2203
:05956500900E77EFF00D
:10956A0053E6FE90098AE0FEA3E0FF8F828E83C055
:10957A0083C082900E77E0FFD082D08375F002EF2D
:10958A00121CBFE0FEA3E0FF900E78EEF0A3EFF00E
:0B959A0043E601900E78E0FEA3E0FF26
:0195A50022A3
:107A0200900CF6EFF0900CF7ECF0A3EDF0900CF97F
:107A1200EBF0A3EAF0A3E9F053E6FE900CF6E0FFE8
:107A22007E00900CF7E0FCA3E0FDC3ED9FFFEC9E0F
:107A3200FEEF2401FFEE3400FEEF25E0FFEE33FE01
:107A4200C006C007900CF6E0FF7E02EF8EF0A4FFA6
:107A5200AEF090098AE0FCA3E0FDEF2DFFEE3CFEC4
:107A6200AA06A9077B01C003C002C001900CF9E07D
:107A7200FBA3E0FAA3E0F9A801AC02AD03D001D068
:0E7A820002D003D007D00612192543E60122D8
:1098CC00900CFCEBF0A3EAF0A3E9F053E6FE900950
:1098DC0087E0FF900CFCE0FBA3E0FAA3E0F9EF12A9
:1098EC0019E6900988E0FF900CFFE0FBA3E0FAA3D7
:0A98FC00E0F9EF1219E643E601223D
:109F1200900924E0FFC374019FFF900924EFF090A1
:109F22000924E0FF7E31EF8EF0A4FFAEF074252FFE
:089F3200F974093EFA7B0122DB
:06A5FC0090091FE0FF22A0
:108F4A00900EB6E4F0900EB7E4F07B017A0E79B693
:108F5A00C003C002C0017B017A0E79B7900CFFEB07
:108F6A00F0A3EAF0A3E9F0D001D002D0031298CC22
:108F7A00900EB6E0FFEF600B900989E0FFEFD39403
:0E8F8A00054009900989E004F07F01227F0074
:018F980022B6
:0A66DF0042024B000042024D02533C
:109F3A0090028A7437F090028AE0FFEF24FEFF90C5
:109F4A00028CEFF07BFF7A2D79AF12894990024F8C
:089F5A00EFF090028EE4F0220A
:103B08007F0A7E00129FDA900C2EE4F0900C2EE0D3
:103B1800FFEFC394084003023D94900C2EE0FF9001
:103B2800028AE0FB7D007C00125374EF70EC900C6D
:103B38002EE0FF7E37EF8EF0A4FFAEF074902FF9E1
:103B480074023EFA7B01900C2EE0FF90028AE0FEA0
:103B5800900D64EEF0127ED4EF640460D1900C2EC8
:103B6800E0FF7E37EF8EF0A4FFAEF074902FF9746B
:103B7800023EFA7B0190028CE0FD128A1F900C3500
:103B8800EEF0A3EFF0900C2EE0FF75F037EFA424D1
:103B9800C5F582E5F03402F583E0FEA3E0FF900C62
:103BA80035E0FCA3E0FDEDB50713ECB5060F900C6E
:103BB80035E0FEA3E0FFEF4E6003023D6D900C2E52
:103BC800E0FF90028AE0FB7D007C01125374EF70E5
:103BD800EC900C2EE0FF7E37EF8EF0A4FFAEF07471
:103BE800902FF974023EFA7B01900C2EE0FF9002B0
:103BF8008AE0FE900D64EEF0127ED4EF640460D18A
:103C0800900C2EE0FF7E37EF8EF0A4FFAEF074909C
:103C18002FF974023EFA7B0190028CE0FD128A1F94
:103C2800900C35EEF0A3EFF0900C2EE0FF75F03716
:103C3800EFA424C5F582E5F03402F583E0FEA3E0A5
:103C4800FF900C35E0FCA3E0FDED6F7002EC6E60B8
:103C580003023D8B900C35E0FEA3E0FFEF4E7003AE
:103C6800023D8B90028AE0FF900C2FEFF0900C3110
:103C7800E4F0A3E4F0900C2EE0FF75F037EFA424F5
:103C880090F582E5F03402F583AF82AE83900C3371
:103C9800EEF0A3EFF0900C2FE0FFEFD39400500369
:103CA800023D4D900C2EE0FF128787EF70F59002D1
:103CB80052E0FF129D83EF640460F3900C31E0FE44
:103CC800A3E0FF7E00EF540FFFC374109FFF900C1A
:103CD80030EFF0900C2EE0FF900C31E0FCA3E0FDFB
:103CE800900C33E0FAA3E0FBA9037B01900C30E0D1
:103CF800FE900BF7EEF01247B9EF70D7900252E042
:103D0800FF129D83EF640460F3900C2FE0FF900C8A
:103D180030E0FEC3EF9EFF900C2FEFF0900C30E0E8
:103D2800FF7E00900C32E02FF0900C31E03EF090D6
:103D38000C30E0FF7E00900C34E02FF0900C33E064
:103D48003EF0023C9D90028EE0FF900C2EE0FE7447
:103D580001A806088002C333D8FCFEEF4EFF90028C
:103D68008EEFF0801E90028EE0FF900C2EE0FE7425
:103D780001A806088002C333D8FCFEEF4EFF90026C
:103D88008EEFF0900C2EE004F0023B1490028EE0CF
:063D9800FFEF64FF602D47
:103D9E00900C3774E5F090028EE0FF900C38EFF047
:103DAE007B017A0C7937900C277401F0900C28E483
:0D3DBE00F0900C29E4F07D027C00124063BF
:013DCB0022D5
:1084C200900D3DEEF0A3EFF0900D3FEBF0A3EAF03C
:1084D200A3E9F090028AE0FF7E00C006C007900D7B
:1084E2003DE0FEA3E0FF7C007D37121A1A74902F44
:1084F200F974023EFA7B01C003C002C001900D3F35
:10850200E0FBA3E0FAA3E0F9A801AC02AD03D001BD
:10851200D002D003D007D006121925900D3DE0FEFF
:10852200A3E0FF7401A807088002C333D8FCFF90C0
:08853200028EE0FEEF5EFF2265
:1078E400900D02EFF0900D03EDF0900D04EBF0908D
:1078F4000D02E0FF900250EFF0900D03E0FF9002C4
:1079040051EFF0900D04E0FF900252EFF090028CE2
:10791400E0FF7E00900D05E0FBA3E0FAA3E0F9C0D0
:1079240003C002C0017B017A027953A801AC02AD05
:1079340003D001D002D003121925900D05E0FBA35A
:10794400E0FAA3E0F990028CE0FD128A1F9002880D
:10795400EEF0A3EFF0900448E4F090028DE4F09090
:0F796400028BE4F090028AE0FF90028FEFF02296
:052DAF009009F2EFF0B5
:102DB4009009F2E0FFEF121CCB2DDF002DF6012E5F
:102DC4000F022E73032F28042F48052FB7062FD781
:102DD4000730B508310F090000315A900252E0FF64
:102DE400128787EF70067F011299EC227F001299F7
:102DF400EC22900252E0FF129D83EF640460067F90
:102E0400021299EC227F011299EC2290028FE0FFCA
:102E1400EFD39410401A90024BE0FEA3E0FF7E0033
:102E2400EF540FFFC374109FFF9009F3EFF0800A73
:102E340090028FE0FF9009F3EFF0900252E0FF90D0
:102E4400024BE0FCA3E0FD90024DE0FAA3E0FBA9F5
:102E5400037B019009F3E0FE900BF7EEF01247B903
:102E6400EF70067F031299EC227F021299EC2290F4
:102E74000252E0FF129D83EF64047003022F227F4D
:102E84000A7E00129FDA9009F3E0FF7E0090024C64
:102E9400E02FF090024BE03EF090028FE0FF9009AB
:102EA400F3E0FEC3EF9EFF90028FEFF09009F3E092
:102EB400FF7E0090024EE02FF090024DE03EF09035
:102EC400028FE0FFEFD3940040067F001299EC22BA
:102ED40090028AE0FF7E0090024BE0FCA3E0FDC379
:102EE400ED9FFFEC9EFEEF4E701090024B7401F0CC
:102EF400A3E4F07F001299EC800D90024BE4F0A360
:102F0400E4F07F041299EC90028AE0FF90028FEFC4
:102F1400F07E027F5390024DEEF0A3EFF0227F0388
:102F24001299EC22900252E0FF90028AE0FB7D00AD
:102F34007C00125374EF70067F051299EC227F0413
:102F44001299EC22900252E0FF7B017A0979F49005
:102F5400028AE0FE900D64EEF0127ED4EF64046009
:102F64004C7B017A0979F490028CE0FD128A1F905F
:102F74000A29E0FCA3E0FDEFB5050AEEB504067FDF
:102F8400061299EC22900448E0FFEF601490028B43
:102F9400E0FFEF4401FF90028BEFF07F061299EC03
:102FA400229004487401F07F001299EC227F0512EC
:102FB40099EC22900252E0FF90028AE0FB7D007CB3
:102FC40001125374EF70067F071299EC227F0612E8
:102FD40099EC22900252E0FF7B017A0979F4900285
:102FE4008AE0FE900D64EEF0127ED4EF6404700368
:102FF4000230AF7B017A0979F490028CE0FD128AE9
:103004001F900A29E0FCA3E0FDEF6D7002EE6C70E6
:103014006990028AE0FF7E00C006C0077B017A0245
:103024007953C003C002C001900252E0FF7E37EF23
:103034008EF0A4FFAEF074902FF974023EFA7B0177
:10304400A801AC02AD03D001D002D003D007D00652
:10305400121925900A29E0FEA3E0FF900252E0FD38
:1030640075F037EDA424C5F582E5F03402F583EE5E
:10307400F0A3EFF07F081299EC2290028DE0FFEFAD
:10308400601490028BE0FFEF4402FF90028BEFF09C
:103094007F081299EC2290024B7401F0A3E4F090A3
:1030A400028D7401F07F001299EC227F071299ECD3
:0130B40022F9
:1030B500900A2B74C8F0900A2C7488F0900A2DE4BD
:1030C500F07B017A0A792B900250E0FF900C27EFF4
:1030D500F0900251E0FF900C28EFF0900C2974015C
:1030E500F07D037C00124063EF701990028BE0FFC6
:1030F500EF700B7F001299EC7FFF1297E0227F099A
:093105001299EC227F081299ECEA
:01310E00229E
:10310F00900A2B74E6F0900252E0FF900A2CEFF039
:10311F0090028BE0FF900A2DEFF07B017A0A792B5A
:10312F00900C277401F0900C28E4F0900C29E4F037
:10313F007D037C00124063EF700B7F001299EC7FD0
:0A314F00FF1297E0227F091299ECAD
:06315900227F001299EC38
:01315F00224D
:06A6020090024FE0FF2270
:1066E90044058540C0000044048F41F00000420485
:0866F900880001420494000036
:104AA60090048DE4F090058AE4F0900486E4F0A387
:104AB600E4F090044BE4F0A37496F090048AE4F0DA
:104AC600A37496F0900583E4F0A37496F0900483A3
:104AD600E4F0A37496F0900482E4F0900582E4F08A
:104AE60090058BE4F0A3E4F0900488E0FCA3E0FDDD
:104AF600EC1216B6900585E0F8A3E0F9A3E0FAA358
:104B0600E0FB12150B1216EF900494EEF0A3EFF0F3
:104B1600900493E4F0900EDDE4F0900EDDE0FFEFFC
:104B2600C3940D507C900EDDE0FFEFC454F024B327
:104B3600F582E43404F583E4F0A3E4F0900EDDE0BE
:104B4600FFEFC454F024B1F582E43404F583E4F0B5
:104B5600A3E4F0900EDDE0FFEFC454F024B5F58237
:104B6600E43404F583E4F0A3E4F0900EDDE0FFEF17
:104B7600C454F024B7F582E43404F583E4F0A3E4E6
:104B8600F0900EDDE0FFEFC454F024B9F582E43472
:104B960004F583E4F0A3E4F0900EDDE004F0024BAC
:104BA600207E007F1A7D007B017A047997121D55BD
:104BB6007BFF7A727941128949900485EFF07BFF79
:104BC6007A8A798312894990048EEFF07BFF7A38CE
:104BD600790F128949900589EFF0900589E0FF7DEC
:104BE60000129766900589E0FF7D107C27126B5EA8
:0E4BF60012A52590044AE4F090044D7403F0DB
:014C0400228D
:10A32F00900EDEEFF0900EDEE0FF90048DEFF090D8
:0EA33F00058A7401F0900486E4F0A3E4F02295
:10004E00900E7AEFF0900E7BECF0A3EDF0900E7B1D
:10005E00E0FEA3E0FF900E7AE0FDEDC454F024B56F
:0D006E00F582E43404F583EEF0A3EFF022F8
:10548C00900B73EFF0900B74EDF0900B75EBF0A3A9
:05549C00EAF0A3E9F0B5
:1054A100900B73E0FF900B84EFF0900B85E4F0908C
:1054B1000B74E0FF900B84E0FEEEC39F5045900B10
:1054C10075E0FBA3E0FAA3E0F9900B85E0FF75F02E
:1054D10002EFA4F58285F083121B0EFFAEF0900B54
:1054E10084E0FDEDC454F024B5F582E43404F58381
:1054F100EEF0A3EFF0900B84E004F0900B85E00454
:10550100F080AC900B78E0FEA3E0FF90048AEEF00F
:10551100A3EFF0900B7AE0FEA3E0FF90044BEEF0D6
:10552100A3EFF0900B7CE0FEA3E0FF900483EEF08C
:10553100A3EFF0900B7EE0FEA3E0FF900583EEF079
:10554100A3EFF0900B80E0FEA3E0FFC3EF9401EE28
:10555100940050067E007F018008900B80E0FEA33E
:10556100E0FF900B80EEF0A3EFF0900B82E0FF9054
:10557100044DEFF0900488E0FCA3E0FD900B80E087
:10558100FEA3E0FF121A1A900494EEF0A3EFF0903C
:095591000B83E0FF90044AEFF0E7
:01559A0022EE
:0B8B4000900DC0EBF0A3EAF0A3E9F0F9
:108B4B0012446A900DC3E4F0900DC3E0FFEFC394A1
:108B5B000D503F900DC3E0FFEFC454F024B3F582EA
:108B6B00E43404F583E0FEA3E0FF900DC0E0FBA32B
:108B7B00E0FAA3E0F9900DC3E0FD75F002EDA4F56A
:108B8B008285F083EE8FF0121B65900DC3E004F02D
:028B9B0080B6A2
:018B9D0022B5
:10853A00900CAEEFF0900CAFEDF0900CB0EBF0A316
:05854A00EAF0A3E9F0D6
:10854F00900CAEE0FF900CB3EFF0900CB4E4F09011
:10855F000CAFE0FF900CB3E0FEEEC39F5044900CC5
:10856F00B0E0FBA3E0FAA3E0F9900CB4E0FF75F0E4
:10857F0002EFA4F58285F083121B0EFFAEF0900C74
:10858F00B3E0FDED25E02497F582E43404F583EEA6
:10859F00F0A3EFF0900CB3E004F0900CB4E004F013
:0285AF0080AD9D
:0185B10022A7
:109A9200900E7DEBF0A3EAF0A3E9F07B017A047962
:109AA20097C003C002C001900E7DE0FBA3E0FAA3C1
:109AB200E0F9A801AC02AD03D001D002D0037E00D0
:069AC2007F1A1219252293
:10A29700900EB8EFF0900EB9EDF0900EB8E0FF9089
:0FA2A7000581EFF0900EB9E0FF90048CEFF022EC
:0561B100900EBAEFF0B2
:1061B600900EBAE0FFEF121CCB61C60000006285AC
:1061C60090058AE0FFEF6401600302626390058A2E
:1061D600E4F090048DE0FFEF6401707812446A9059
:1061E6000EBBE4F0900EBBE0FFEFC3940850559051
:1061F6000EBBE0FFEFC454F024B3F582E43404F59B
:1062060083E0FEA3E0FF900EBBE0FDEDC454F02456
:10621600B7F582E43404F583EEF0A3EFF0900EBBFD
:10622600E0FF7E10EF8EF0A4FFAEF074BD2FF97480
:10623600043EFA7B017D007C0012933D900EBBE08C
:1062460004F080A07FFF1297E090048CE0FF7D01B0
:106256001297662212A5257F001299EC2290048DD2
:10626600E0FFEFB4011312446A7FFF1297E0900437
:106276008CE0FF7D01129766227F001299EC227F47
:04628600001299EC7D
:01628A0022F1
:05316000900D08EFF0E6
:10316500900D08E0FFEF121CCB31780134B9020055
:103175000034C91275F6900D0AEEF0A3EFF0900D2C
:1031850009E4F0900D09E0FFEFC3940D400302340C
:10319500A7900D09E0FFEFC3940840030232CC90DD
:1031A5000D09E0FFEFC454F024B5F582E43404F5CD
:1031B50083E0FEA3E0FF900D09E0FDEDC454F0248B
:1031C500B3F582E43404F583E0FCA3E0FDD3ED9F81
:1031D500EC9E50030232CC900D09E0FF7E10EF8E7D
:1031E500F0A4FFAEF074BD2FF974043EFA7B011212
:1031F5008D5BEF640160030232CC900D09E0FF7E28
:1032050010EF8EF0A4FFAEF074BD2FF974043EFAF2
:103215007B01C003C002C001900488E0FEA3E0FF6B
:103225007C037DE8121A1A7C007D0A121A81AC060D
:10323500AD07D001D002D00312933D900D09E0FFF8
:10324500EFC454F024B7F582E43404F583E0FEA31B
:10325500E0FF900494E0FCA3E0FDC3EF9DFFEE9C2E
:10326500FE900D0CEEF0A3EFF0900D09E0FFEFC41A
:1032750054F024B5F582E43404F583E0FEA3E0FFC1
:10328500900D0CE0FCA3E0FDD3ED9FEC9E400A9071
:103295000D0CE0FEA3E0FF8017900D09E0FFEFC4E1
:1032A50054F024B5F582E43404F583E0FEA3E0FF91
:1032B500900D09E0FDEDC454F024B7F582E4340423
:1032C500F583EEF0A3EFF0900D09E0FFEFC454F0A5
:1032D50024B5F582E43404F583E0FEA3E0FFEF4E68
:1032E50070030233EA900D09E0FFEFC454F024B3F4
:1032F500F582E43404F583E0FEA3E0FFC3EF94D246
:10330500EE940F40030233EA900D09E0FFEFC394FA
:1033150008400302339D900D09E0FFEFC454F024EB
:10332500B3F582E43404F583E0FEA3E0FF900D09D4
:10333500E0FDEDC454F024B7F582E43404F583E0F0
:10334500FCA3E0FDC3ED9FEC9E5041900D09E0FF0D
:10335500EFC454F024B3F582E43404F583E0FEA30E
:10336500E0FF900D09E0FDEDC454F024B5F582E4CD
:103375003404F583E0FCA3E0FDC3ED9FEC9E500C07
:10338500900D09E0FF7D01127E4F8063900D09E0ED
:10339500FF7D00127E4F8057900D09E0FFEFC4546A
:1033A500F024B3F582E43404F583E0FEA3E0FF9056
:1033B5000D09E0FDEDC454F024B5F582E43404F5BF
:1033C50083E0FCA3E0FDC3ED9FEC9E500C900D093E
:1033D500E0FF7D01127E4F8016900D09E0FF7D0014
:1033E500127E4F800A900D09E0FF7D00127E4F90FE
:1033F5000D09E0FFEFC3940850361288DAEF7030FC
:10340500900D09E0FFEFC454F024B3F582E43404D1
:10341500F583E0FEA3E0FF900D0AE0FCA3E0FDC309
:10342500EF9DEE9C500A900D09E0FF7D00127E4F46
:10343500900D09E0FFEFC454F024B3F582E43404A1
:10344500F583E0FEA3E0FFD3EF94D2EE940F502076
:10345500900D09E0FFEFC454F024B3F582E4340481
:10346500F583E0FEA3E0FFC3EF9464EE94005029DA
:1034750090044AE0FFEF6017900D09E0FFEFC39459
:1034850008500C900D09E0FF7D00127E4F800A90D8
:103495000486E4F0A3E4F08009900D09E004F0024D
:1034A500318812A4327F021299EC7DAA7C007FFF3D
:1034B500126B5E227FFF1297E0900581E0FF7D0091
:0934C500129766227F011299ECB6
:0134CE0022DB
:10446A00900DC5E4F0900DC6E4F0900DC7E4F0128B
:10447A00A5FCEF70032280031270F1900482E0FF22
:10448A00EFC39404500C900482E004F0900DC674BB
:10449A0001F0900582E0FFEFC39428500C9005824A
:1044AA00E004F0900DC77401F0900DC4E4F0900D93
:1044BA00C4E0FFEFC3940D400302461C900DC4E014
:1044CA00FFEFC454F024B3F582E43404F583E0FE2C
:1044DA00A3E0FF900DC4E0FDED25E02468F582E439
:1044EA003404F583E0FCA3E0FDC3ED9FFFEC9EFEE0
:1044FA0012A5A1D3EF9400EE648094904003D38078
:10450A0001C350030245C3900DC6E0FFEF7042900D
:10451A000DC4E0FFEFC454F024B1F582E43404F58D
:10452A0083C083C082E0FEA3E0FF900DC4E0FDEDEE
:10453A00C454F024B3F582E43404F583E0FCA3E028
:10454A00FDC3EF9DFFEE9CFED082D083EEF0A3EF79
:10455A00F0900DC4E0FFEF25E02468F582E434040E
:10456A00F583E0FEA3E0FF900DC4E0FDEDC454F036
:10457A0024B1F582E43404F583EE8FF0121AB79071
:10458A000482E0FFEFFD7C00900DC4E0FFEFC4540D
:10459A00F024B1F582E43404F583E0FEA3E0FF12CF
:1045AA001A2C900DC4E0FDEDC454F024B3F582E456
:1045BA003404F583EEF0A3EFF0900DC4E0FFEFC4EE
:1045CA0054F024B3F582E43404F583E0FEA3E0FF5B
:1045DA00900DC4E0FDED25E02468F582E43404F58D
:1045EA0083E0FCA3E0FDC3ED9FFFEC9EFE12A5A1B4
:1045FA00D3EF9464EE64809480400E900DC7E0FF80
:10460A00EF7006900DC57401F0900DC4E004F0023D
:02461A0044B8A2
:01461C00227B
:1070F1007F00129565900468EEF0A3EFF07F011216
:10710100956590046AEEF0A3EFF07F021295659009
:10711100046CEEF0A3EFF07F0312956590046EEE20
:10712100F0A3EFF07F04129565900470EEF0A3EFE9
:10713100F07F05129565900472EEF0A3EFF07F06E3
:10714100129565900474EEF0A3EFF07F0712956538
:10715100900476EEF0A3EFF07F0812956590047825
:10716100EEF0A3EFF07F0912956590047AEEF0A39B
:10717100EFF07F0A12956590047CEEF0A3EFF07FAB
:107181000B12956590047EEEF0A3EFF07F1512953A
:0A71910065900480EEF0A3EFF022F9
:0A7E4F00900DC8EFF0900DC9EDF0A2
:107E5900900DCAE4F0A37401F0900DC9E0FFEF6042
:107E690032900486E0FCA3E0FD900DCAE0FEA3E099
:107E7900FF900DC8E0FBEFA803088005C333CE339C
:107E8900CED8F9FFEC4EFEED4FFF900486EEF0A33D
:107E9900EFF022900486E0FCA3E0FD900DCAE0FE1D
:107EA900A3E0FF900DC8E0FBEFA803088005C333EA
:107EB900CE33CED8F9FFEFF4FFEEF4FEEC5EFEED23
:0A7EC9005FFF900486EEF0A3EFF0D7
:017ED300228C
:10A43200900486E0FEA3E0FF90058BEEF0A3EFF020
:0BA4420090048EE0FF7D001297662260
:10A5250090058BE4F0A3E4F090048EE0FF7D00122B
:03A5350097662204
:0B461D00900BB9EBF0A3EAF0A3E9F06A
:1046280012446A900BC2E4F0900BC2E0FFEFC3940F
:104638000D40030247B6900BC2E0FFEFC394085049
:104648002290044BE0FEA3E0FF900BC3EEF0A3EF33
:10465800F090048AE0FEA3E0FF900BC5EEF0A3EF14
:10466800F08020900583E0FEA3E0FF900BC3EEF0FE
:10467800A3EFF0900483E0FEA3E0FF900BC5EEF0FB
:10468800A3EFF0900BC2E0FFEFC454F024B5F5821D
:10469800E43404F583E0FEA3E0FF900BC3E0FCA341
:1046A800E0FDC3EF9DFFEE9CFE900BC2E0FDEDC464
:1046B80054F024B3F582E43404F583E0FCA3E0FD70
:1046C800C3ED9FEC9E4046900BC2E0FFEFC454F050
:1046D80024B5F582E43404F583E0FEA3E0FF900BF3
:1046E800C5E0FCA3E0FDEF2DFFEE3CFE900BC2E021
:1046F800FDEDC454F024B3F582E43404F583E0FC02
:10470800A3E0FDD3ED9FEC9E50030247AD900BC292
:10471800E0FF900BB9E0FBA3E0FAA3E0F9EF121970
:10472800E6900BC2E0FFEFC454F024B3F582E43402
:1047380004F583E0FEA3E0FF900BBCE0FBA3E0FAE6
:10474800A3E0F9EE8FF0121B46900BC2E0FFEFC416
:1047580054F024B5F582E43404F583E0FEA3E0FFC9
:10476800900BC3E0FCA3E0FDC3EF9DFFEE9CFE9021
:104778000BC2E0FDEDC454F024B3F582E43404F533
:1047880083E0FCA3E0FDC3ED9FEC9E50047F018015
:10479800027F02900BBFE0FBA3E0FAA3E0F9EF125F
:1047A80019E67F0022900BC2E004F00246307F0138
:0147B80022DE
:05724100900AE7EFF0E8
:10724600900AE874E8F07B017A04794EC003C00224
:10725600C0017B017A0A79E9A801AC02AD03D0012D
:10726600D002D0037E007F1A1219257B017A0A7993
:10727600E9C003C002C0017B017A0A79E9900C01DA
:10728600EBF0A3EAF0A3E9F0900C04E4F0A3740D8C
:10729600F0D001D002D003125B81900449E0FF9048
:1072A6000B03EFF0900496E0FF900B04EFF07B01E8
:1072B6007A0A79E8900C277401F0900C28E4F09093
:1072C6000C29E4F07D1D7C00124063EF70067FFF01
:0C72D6001297E022900AE7E0FF1299EC0A
:0172E2002289
:058A8300900DCCEFF0A6
:108A8800900DCCE0FFEF121CCB8A9B008AC9010035
:108A9800008AE1900DCD7460F090058BE0FEA3E0B4
:108AA800FF900DCEEEF0A3EFF07B017A0D79CD1299
:108AB8006438EF70067F011299EC227F001299EC5E
:108AC8002212A2D5EF6403600B7F001299EC7FFF9E
:098AD8001297E0227F011299ECD3
:018AE1002272
:1075F600900DD17402F0900533E0FEA3E0FF900DEC
:10760600D2EEF0A3EFF0900DD07409F0900DD0E01B
:10761600FFEFC3940C5067900DD1E0FF7E00EF247E
:10762600FFFFEE34FFFE900DD1E0FD7C00121A2C18
:10763600900DD2E0FCA3E0FD121A1AAA06AB079041
:107646000DD1E0FFEFFD7C00900DD0E0FFEFC454BC
:10765600F024B3F582E43404F583E0FEA3E0FF12E0
:107666001A2CEB2FFFEA3EFE900DD2EEF0A3EFF0C0
:10767600900DD0E004F0900DD1E004F0808E900DD6
:09768600D2E0FEA3E0FF124D6208
:01768F0022D8
:084D6200900C79EEF0A3EFF0D4
:104D6A00900C7D121C8E00000000900C7BE4F0A3D6
:104D7A00E4F0900BE7121C8EC08000007F007E00DA
:104D8A007D207C411249407B007A00790078C1126B
:104D9A00150BC004C005C006C007900C79E0FCA33F
:104DAA00E0FDE41216B6A804A905AA06AB07D007C7
:104DBA00D006D005D00412150B900BE7121C827F87
:104DCA00A17EF87D2D7C401249407B487AE179EF3B
:104DDA00784212150B900C7D121C82900C7DE0FC1F
:104DEA00A3E0FDA3E0FEA3E0FFC004C005C006C027
:104DFA0007900BE7121C8E40000000D007D006D0A7
:104E0A0005D0041249407B237ADB79F9783E1215E2
:104E1A000BC004C005C006C007900C7DE0FCA3E0EF
:104E2A00FDA3E0FEA3E0FFC004C005C006C00790D2
:104E3A000BE7121C8E40400000D007D006D005D0E8
:104E4A00041249407B277AA07989783B12150BD046
:104E5A0003D002D001D000121416C004C005C00647
:104E6A00C0077F4A7E0C7DDA7C41900C7DE0F8A376
:104E7A00E0F9A3E0FAA3E0FB12150BA804A905AA1E
:104E8A0006AB07D007D006D005D0041214167B9AB9
:104E9A007A1D7982784512141A1216EF900C7BEE5D
:0C4EAA00F0A3EFF0900C7BE0FEA3E0FF13
:014EB60022D9
:1088DA00900EBD7401F0900EBC7408F0900EBCE0CE
:1088EA00FFEFC3940C5052900EBCE0FFEFC454F05B
:1088FA0024B5F582E43404F583E0FEA3E0FF900496
:10890A0083E0FCA3E0FDEF2DFFEE3CFE900EBCE001
:10891A00FDEDC454F024B3F582E43404F583E0FC9D
:10892A00A3E0FDD3ED9FEC9E4007900EBDE4F080DE
:0E893A0008900EBCE004F080A3900EBDE0FF9C
:01894800220C
:05380F00900DD4EFF064
:1038140090044974FFF0900DD4E0FFEF121CCB38F4
:10382400360038AB01391202397B033A9F04000099
:103834003B0712A5FCEF70067F001299EC22127070
:10384400F1900DD5E4F0900DD5E0FFEFC39408504E
:103854003D900DD5E0FFEF25E02468F582E43404C3
:10386400F583E0FEA3E0FF7C007D0A121A2C900D84
:10387400D5E0FDEDC454F024B9F582E43404F583B5
:10388400EE8FF0121AB7900DD5E004F080B89004D2
:1038940093E004FFF0EFC3940A40067F011299EC11
:1038A400227F001299EC22900493E4F0900DD5E469
:1038B400F0900DD5E0FFEFC39408504D900DD5E086
:1038C400FFEFC454F024B9F582E43404F583E0FE38
:1038D400A3E0FF900DD5E0FDEDC454F024BBF582C8
:1038E400E43404F583EEF0A3EFF0900DD5E0FFEFA0
:1038F400C454F024B9F582E43404F583E4F0A3E479
:10390400F0900DD5E004F080A87F021299EC1270BB
:10391400F1900DD5E4F0900DD5E0FFEFC39408507D
:103924003D900DD5E0FFEF25E02468F582E43404F2
:10393400F583E0FEA3E0FF7C007D0A121A2C900DB3
:10394400D5E0FDEDC454F024B9F582E43404F583E4
:10395400EE8FF0121AB7900DD5E004F080B8900401
:1039640093E004FFF0EFC3940A40067F031299EC3E
:07397400227F021299EC22F0
:10397B00900DD5E4F0900DD5E0FFEFC39408400314
:10398B00023A6E900DD5E0FFEFC454F024BBF582E4
:10399B00E43404F583E0FEA3E0FF900DD5E0FDEDEC
:1039AB00C454F024B9F582E43404F583E0FCA3E0BD
:1039BB00FDC3ED9FFFEC9EFE900DD6EEF0A3EFF056
:1039CB0090044DE0FF7E19EF8EF0A4FFAEF0C3E440
:1039DB009FFFE49EFE900DD6E0FCA3E0FDC3ED9FA0
:1039EB00EE6480F8EC648098402390044DE0FF7EF9
:1039FB0050EF8EF0A4FFAEF0900DD6E0FCA3E0FDEF
:103A0B00D3ED9FEE6480F8EC648098404D900DD51B
:103A1B00E0FF900449EFF0900DD6E0FEA3E0FF121B
:103A2B00A5A190044DE0FD7C00121A81900DD6EEFD
:103A3B00F0A3EFF0900DD6E0FEA3E0FFD3EF94FFE1
:103A4B00EE6480948040047FFF8008900DD6E0FEEA
:103A5B00A3E0FF900496EFF08009900DD5E004F001
:103A6B00023980900449E0FFEFB4FF237F011299E4
:103A7B00EC90044DE0FF7E007C037DE8121A1AEFF8
:103A8B00249CFDEE34FFFC7FFF126B5E2280057FD2
:043A9B00041299EC8C
:103A9F0012A5257F0012A32F900485E0FF12A3C269
:103AAF00EF60067F041299EC227B017A047968C0DB
:103ABF0003C002C0017B017A04794EA801AC02ADAC
:103ACF0003D001D002D0037E007F1A121925900473
:103ADF0085E0FF7D001297667F011299EC90044DEF
:103AEF00E0FF7E007C037DE8121A1AEF249CFDEEA6
:083AFF0034FFFC7FFF126B5E37
:013B0700229B
:107F5900900BCAE4F0A3E4F0900BC7E4F0900BD4C3
:107F6900E4F012A1ADEF70FA12A071EF70FA900E61
:107F7900807404F0900E81E4F0A3E4F07B017A0EA2
:107F89007980126438EF70F412A2D5EFB401F99038
:107F99000E807470F0900E81E4F0A3E4F07B017A16
:107FA9000E7980126438EF70F412A2D5EFB401F99A
:107FB900900E80742BF0900E81E4F0A3E4F07B0125
:107FC9007A0E7980126438EF70F412A2D5EFB401F9
:017FD900F9AE
:017FDA002284
:10A1AD00900E837410F0900E84E4F0A37401F07B94
:10A1BD00017A0E7983126438EFB402037F02227F95
:01A1CD000091
:01A1CE00226E
:10A1CF00900E867411F0900E87E4F0A37401F07B6B
:10A1DF00017A0E7986126438EFB402037F02227F70
:01A1EF00006F
:01A1F000224C
:089C3100900D42EEF0A3EFF0EC
:109C3900900D447401F0900D42E0FEA3E0FF900DF9
:109C490045EEF0A3EFF07B017A0D7944126438EF09
:089C5900B402037F02227F0028
:019C610022E0
:0D990600900D0EEFF0900D0FECF0A3EDF0C2
:10991300900D0EE0FF900D11EFF0900D0FE0FEA300
:10992300E0FF900D12EEF0A3EFF07B017A0D7911B9
:0C993300126438EFB402037F02227F00B0
:01993F002205
:089C6200900D47EEF0A3EFF0B6
:109C6A00900D497402F0900D47E0FEA3E0FF900DBD
:109C7A004AEEF0A3EFF07B017A0D7949126438EFCE
:089C8A00B402037F02227F00F7
:019C920022AF
:069AFD00900CB5121C8262
:109B0300900CB97440F0900CB5E0FCA3E0FDA3E029
:109B1300FEA3E0FF900CBAEEF0A3EFF07B017A0C0A
:0E9B230079B9126438EFB402037F02227F008A
:019B31002211
:0EA593007F01127A90EF70037F00227F022278
:10A1F100900E897403F0900E8AE4F0A37401F07B51
:10A20100017A0E7989126438EFB402037F02227F4A
:01A21100004C
:01A212002229
:10A25600900E8C7403F0900E8DE4F0A3E4F07B0175
:10A266007A0E798C126438EFB402037F02227F00E3
:01A2760022C5
:059E0D00900DD8EFF0FC
:109E1200900DD97405F0900DD8E0FF7E00900DDA18
:109E2200EEF0A3EFF07B017A0D79D9126438EFB42A
:079E320002037F02227F0002
:019E39002206
:089C9300900D4CEEF0A3EFF080
:109C9B00900D4E7404F0900D4CE0FEA3E0FF900D80
:109CAB004FEEF0A3EFF07B017A0D794E126438EF93
:089CBB00B402037F02227F00C6
:019CC300227E
:059E3A00900DDCEFF0CB
:109E3F00900DDD7470F0900DDCE0FF7E00900DDE74
:109E4F00EEF0A3EFF07B017A0D79DD126438EFB4F9
:079E5F0002037F02227F00D5
:019E660022D9
:089CC400900D51EEF0A3EFF04A
:109CCC00900D53740BF0900D51E0FEA3E0FF900D3E
:109CDC0054EEF0A3EFF07B017A0D7953126438EF58
:089CEC00B402037F02227F0095
:019CF400224D
:089CF500900D56EEF0A3EFF014
:109CFD00900D58740CF0900D56E0FEA3E0FF900D02
:109D0D0059EEF0A3EFF07B017A0D7958126438EF1C
:089D1D00B402037F02227F0063
:019D2500221B
:030026007F002236
:10A0710012A2D5900EDFEFF0900EDFE0FFEF640348
:10A08100600F900EDFE0FFEFB401037F00227F023B
:03A09100227F012A
:01A0940022A9
:0B994000900D5BEBF0A3EAF0A3E9F050
:10994B007B017A0D795E128AE2EF6403601E900D43
:10995B005EE0FEA3E0FF7E00900D5BE0FBA3E0FA70
:0E996B00A3E0F9EE8FF0121B467F00227F0171
:0199790022CB
:1087F900900C16EEF0A3EFF0900C18ECF0A3EDF04E
:10880900900C1AEAF0A3EBF0900C16E0FEA3E0FF3F
:10881900900BC8EEF0A3EFF0900C18E0FEA3E0FF78
:10882900900BCAEEF0A3EFF0900C1AE0FEA3E0FF64
:10883900900BCCEEF0A3EFF0900C1CE0FCA3E0FD54
:10884900A3E0FEA3E0FF900BCE121C82900C20E067
:10885900FF900BD2EFF0900C21E0FF900BD3EFF0DB
:0188690022EC
:0527C000900C39EFF060
:1027C500900C39E0FFEF121CCB283E00288B012826
:1027D5009D0228C90328DB04290705292E06295A45
:1027E5000729800829930929E20A29F50B2A230CD0
:1027F5002A360D2A6A0E2A7D0F2AC6102AD9112AD1
:10280500FF122B12132B38142B4B152B72162B85FD
:10281500172BC5182BD8192BEA1A2C231B2C351C62
:102825002C611D2C871E2CB41F2CC8202D0D212D8D
:0928350033222D5F2300002DA9C0
:10283E00900C4174C8F0900C427484F0900C43E4F8
:10284E00F07B017A0C7941900BD2E0FF900C27EFD0
:10285E00F0900BD3E0FF900C28EFF0900C29740150
:10286E00F07D037C00124063EF700C900BD474016A
:0D287E00F07F011299EC227F001299EC22EC
:10288B0012A1CFEF70067F021299EC227F011299F1
:10289B00EC2212A071900C3AEFF0900C3AE0FFEFA3
:1028AB0064016014900C3AE0FFEF70067F031299FD
:1028BB00EC227F011299EC227F021299EC2212A2D8
:1028CB0056EF70067F041299EC227F031299EC22CB
:1028DB0012A071900C3AEFF0900C3AE0FFEF64010C
:1028EB006014900C3AE0FFEF70067F051299EC2212
:1028FB007F031299EC227F041299EC22900C3C740A
:10290B002BF0900C3DE4F0A37401F07B017A0C7971
:10291B003C126438EF70067F061299EC227F051289
:10292B0099EC2212A071900C3AEFF0900C3AE0FF68
:10293B00EF64016014900C3AE0FFEF70067F071212
:10294B0099EC227F051299EC227F061299EC2290CA
:10295B000C3C7404F0900C3DE4F0A3E4F07B017AA2
:10296B000C793C126438EF70067F081299EC227FC9
:10297B00071299EC2212A2D5EFB401067F0D129922
:10298B00EC227F081299EC22900C3C7435F0900BE2
:10299B00C8E0FEA3E0FFE4FCFD7B107A0079007831
:1029AB0000121B92A804A905AA06AB077F557EA0AF
:1029BB007DFC7C011294DF900C3DEEF0A3EFF07BDD
:1029CB00017A0C793C126438EF70067F0A1299EC8D
:1029DB00227F091299EC2212A2D5EFB401067F0BCC
:1029EB001299EC227F0A1299EC22900C3C7431F074
:1029FB00900BCCE0FEA3E0FF900C3DEEF0A3EFF0CC
:102A0B007B017A0C793C126438EF70067F0C1299BB
:102A1B00EC227F0B1299EC2212A2D5EFB401067FA8
:102A2B00171299EC227F0C1299EC22900C3C743803
:102A3B00F0900BCEE0FCA3E0FDA3E0FEA3E0FF9043
:102A4B000C3DEEF0A3EFF07B017A0C793C1264386D
:102A5B00EF70067F0E1299EC227F0D1299EC221269
:102A6B00A2D5EFB401067F0F1299EC227F0E1299BB
:102A7B00EC22900C3C7437F0900BCEE0FCA3E0FD05
:102A8B00A3E0FEA3E0FFEF5400FFEE5400FEED5475
:102A9B00FFFDEC54FFFC7810121BEF900C3DEEF099
:102AAB00A3EFF07B017A0C793C126438EF70067F50
:102ABB00101299EC227F0F1299EC2212A2D5EFB4CF
:102ACB0001067F111299EC227F101299EC22900CC7
:102ADB003C743AF0900C3DE4F0A3E4F07B017A0CEB
:102AEB00793C126438EF70067F121299EC227F1139
:102AFB001299EC2212A2D5EFB401067F131299ECB6
:102B0B00227F121299EC22900C3C7439F0900C3D00
:102B1B00E4F0A3E4F07B017A0C793C126438EF709B
:102B2B00067F141299EC227F131299EC2212A2D574
:102B3B00EFB401067F151299EC227F141299EC2247
:102B4B00900C3C743BF0900C3DE4F0A37401F07BD3
:102B5B00017A0C793C126438EF70067F161299ECEF
:102B6B00227F151299EC2212A2D5EFB401067F0930
:102B7B001299EC227F161299EC22900C3C7404F003
:102B8B00900BCCE0FEA3E0FFEF4E700C900C3D746D
:102B9B0003F0A3743BF0800A900C3D7403F0A37414
:102BAB001BF07B017A0C793C126438EF70067F18AE
:102BBB001299EC227F171299EC2212A2D5EFB401D5
:102BCB00067F191299EC227F181299EC2212A1F1AF
:102BDB00EF70067F1A1299EC227F191299EC2212D0
:102BEB00A071900C3AEFF0900C3AE0FFEF640160AB
:102BFB0021900C3AE0FFEF70137F1B1299EC900BB6
:102C0B00CAE0FCA3E0FD7FFF126B5E227F191299D5
:102C1B00EC227F1A1299EC2212A256EF70067F1C3F
:102C2B001299EC227F1B1299EC2212A071900C3A94
:102C3B00EFF0900C3AE0FFEF64016014900C3AE077
:102C4B00FFEF70067F1D1299EC227F1B1299EC226D
:102C5B007F1C1299EC22900C3C7404F0900C3DE418
:102C6B00F0A3E4F07B017A0C793C126438EF700628
:102C7B007F1E1299EC227F1D1299EC2212A2D59085
:102C8B000C3BEFF0900C3BE0FFEF64036015900CF6
:102C9B003BE0FFEFB401067F1F1299EC227F1D1260
:102CAB0099EC227F1E1299EC227F04127A90EF701E
:102CBB00067F201299EC227F1F1299EC227B017A5E
:102CCB000C793F128AE2900C3BEFF0900C3BE0FF4B
:102CDB00EF64036027900C3BE0FFEFB40118900CFE
:102CEB003FE0FEA3E0FFEF4E70067F211299EC222E
:102CFB007F1D1299EC227F1F1299EC227F201299D3
:102D0B00EC22900C3C742BF0900C3DE4F0A3E4F01F
:102D1B007B017A0C793C126438EF70067F22129992
:102D2B00EC227F211299EC2212A071900C3AEFF059
:102D3B00900C3AE0FFEF64016014900C3AE0FFEF67
:102D4B0070067F231299EC227F211299EC227F22AD
:042D5B001299EC22BB
:102D5F00900C4174E4F0900BC7E0FF900C42EFF041
:102D6F007B017A0C7941900BD2E0FF900C27EFF0AA
:102D7F00900C28E4F0900C29E4F07D027C001240C6
:102D8F0063EF7010900BD4E4F07F001299EC7FFF8B
:0A2D9F001297E0227F231299EC2224
:052DA9007F001299EC0F
:012DAE002202
:06A60800900BD4E0FF22DC
:06A60E00900BC7E0FF22E3
:10A27700900EBEEFF0900EBFEDF0900EBEE0FF9097
:10A287000EBFE0FD1274C1EF70037F00227F022230
:059D5500900EC0EFF0CC
:109D5A00900EC0E0FF129F62900EC1EFF0900EC10C
:109D6A00E0FFEF6403600F900EC1E0FFEFB4010360
:089D7A007F00227F02227F011D
:019D820022BE
:0599B300900DE0EFF053
:1099B800900DE17476F0900DE0E0FFEF600A900DF5
:1099C800E2E4F0A3E4F08009900DE2E4F0A374036C
:1099D800F07B017A0D79E1126438EFB402037F025B
:0399E800227F00DB
:0199EB002259
:10A5480075840053D4F853D4E743D480758400222B
:109E6700900EC2EEF0A3EFF0758400900EC2E0FEF4
:109E7700A3E0FFEF54FFF5D2900EC2E0FEA3E0FF90
:0C9E87007F00EEFF7E008FD37584002268
:10A5580075840153D4F853D4E743D480758400221A
:109E9300900EC4EEF0A3EFF0758401900EC4E0FEC3
:109EA300A3E0FFEF54FFF5D2900EC4E0FEA3E0FF62
:0C9EB3007F00EEFF7E008FD3758400223C
:0C00960090098C7402F090098DE4F022B7
:0D636300900C81EFF0900C82ECF0A3EDF0B7
:1063700012A5B8EFB401037F022290098C7404F0D7
:10638000900C82E0FEA3E0FF900C86EFF0900C8270
:10639000E0FEA3E0FFEE5401FE7F00EF7803C3337D
:1063A000CE33CED8F9FF900C85EFF0900C85E0FF4E
:1063B000EF4403FF900C84EFF012A5DBAE02AF01B7
:1063C000900C87EEF0A3EFF0900C84E0FF900C8728
:1063D000E0FCA3E0FD8D828C83EFF0900C86E0FF63
:1063E000900C87E0FCA3E0FD8D828C83A3EFF090FE
:1063F0000C87E0FEA3E0FF8F828E83A3A3E4F0C2AC
:10640000B0900C81E0FF7D0112997A7B017A0979C5
:106410008EC003C002C0017BFF7AA17921900C7667
:10642000EBF0A3EAF0A3E9F0D001D002D0037F03A0
:076430007E001287147F00BB
:016437002242
:10537400900C44EFF0900C45ECF0A3EDF0900C474A
:02538400EBF04C
:1053860012A5B8EFB401037F022290098C7404F0D1
:10539600900C45E0FEA3E0FF900C4AEFF0900C4520
:1053A600E0FEA3E0FFEE5401FE7F00EF7803C33377
:1053B600CE33CED8F9FF900C49EFF0900C49E0FFC0
:1053C600EF4403FF900C48EFF012A5DBAE02AF01ED
:1053D600900C4CEEF0A3EFF0900C48E0FF900C4CD4
:1053E600E0FCA3E0FD8D828C83EFF0900C4AE0FF99
:1053F600900C4CE0FCA3E0FD8D828C83A3EFF09033
:105406000C4BE4F0900C47E0FF900C4BE0FEEEC333
:105416009F502F900C4BE0FF7E00EF2402FFEE34EE
:1054260000FE900C4CE0FCA3E0FD8D828C83E582AF
:105436002FF582E5833EF583E4F0900C4BE004F013
:1054460080C2C2B0900C44E0FF7D0112997A900CA4
:1054560047E0FF7E00EF2402FFEE3400FE7B017A78
:1054660009798EC003C002C0017BFF7AA179219021
:105476000C76EBF0A3EAF0A3E9F0D001D002D0035A
:055486001287147F00F5
:01548B0022FE
:105D5200900C58EFF0900C59ECF0A3EDF0900C5B26
:025D6200EBF064
:105D6400900C58E0FF7D0012997A90098C7404F02D
:105D7400900C59E0FEA3E0FF900C5EEFF0900C59FC
:105D8400E0FEA3E0FFEE5401FE7F00EF7803C3338F
:105D9400CE33CED8F9FF900C5DEFF0900C5DE0FFB0
:105DA400EF4402FF900C5CEFF012A5DBAE02AF01F2
:105DB400900C5FEEF0A3EFF0900C5CE0FF900C5FB2
:105DC400E0FCA3E0FD8D828C83EFF0900C5EE0FF9D
:105DD400900C5FE0FCA3E0FD8D828C83A3EFF09038
:105DE4000C5BE0FF900C5FE0FCA3E0FD8D828C83F4
:105DF400A3A3EFF090098DE4F0900C58E0FF7D012F
:105E040012997A7B017A09798EC003C002C0017BA2
:105E1400FF7AA17921900C76EBF0A3EAF0A3E9F0E4
:0F5E2400D001D002D0037F037E001287147F00CD
:015E3300224C
:1047B900900BF1EFF0900BF2ECF0A3EDF0900BF40D
:0847C900EBF0A3EAF0A3E9F014
:1047D100900BF1E0FF7D0012997A90098C7404F03E
:1047E100900BF7E0FF7E00900BF2E0FCA3E0FDEF01
:1047F1002DFFEE3CFEEF24FFFFEE34FFFEEEC4F88A
:1048010054F0C868FCEFC4540F48FD900BF2E0FE71
:10481100A3E0FFEEC4F854F0C868FEEFC4540F489B
:10482100FFD3ED9FEC9E40037F0322900BF2E0FE4D
:10483100A3E0FF900BFAEFF0900BF2E0FEA3E0FF94
:10484100EE5401FE7F00EF7803C333CE33CED8F9A7
:10485100FF900BF9EFF0900BF9E0FFEF4402FF90AE
:104861000BF8EFF012A5DBAE02AF01900BFCEEF0FE
:10487100A3EFF0900BF8E0FF900BFCE0FCA3E0FD50
:104881008D828C83EFF0900BFAE0FF900BFCE0FC43
:10489100A3E0FD8D828C83A3EFF0900BFBE4F090FD
:1048A1000BF7E0FF900BFBE0FEEEC39F504A900B2D
:1048B100F4E0FBA3E0FAA3E0F9900BFBE0FF8F82A9
:1048C100758300121964FF900BFBE0FEEEFD7C0086
:1048D100ED2402FDEC3400FC900BFCE0FAA3E0FBBC
:1048E1008B828A83E5822DF582E5833CF583EFF0A7
:1048F100900BFBE004F080A790098DE4F0900BF1A0
:10490100E0FF7D0112997A900BF7E0FF7E00EF2422
:1049110002FFEE3400FE7B017A09798EC003C002EA
:10492100C0017BFF7AA17921900C76EBF0A3EAF02C
:0E493100A3E9F0D001D002D0031287147F005A
:01493F002255
:05878700900E8FEFF0E1
:10878C0012A5B8EFB401037F022290098C7404F097
:10879C00D2B090098D7401F012A5DBAE02AF01903E
:1087AC000E90EEF0A3EFF0900E90E0FEA3E0FF8FA2
:1087BC00828E837406F0900E8FE0FF7D0112997A01
:1087CC007B017A09798EC003C002C0017BFF7AA1BC
:1087DC007921900C76EBF0A3EAF0A3E9F0D001D06C
:0C87EC0002D0037F017E001287147F0082
:0187F800225E
:10A12100C0D075D018900EE0EFF0900EE0E0FFEF98
:10A13100700890098C7401F0800690098C7402F00B
:03A14100D0D02259
:107ED400900D60EFF0900D61EBF0A3EAF0A3E9F0F0
:107EE40090098CE0FFEFB404037F042290098CE036
:107EF400FFEF6401704C900D64E0FFEFB401169045
:107F04000990E0FF900D61E0FBA3E0FAA3E0F9EF34
:107F14001219E6802D900D64E0FF7E007B017A0942
:107F24007990C003C002C001900D61E0FBA3E0FAA8
:107F3400A3E0F9A801AC02AD03D001D002D0031232
:107F44001925900D60E0FF7D0012997A12001690B9
:057F5400098CE0FF2292
:109D8300900EE1EFF090098CE0FFEFB404037F0441
:109D930022900EE1E0FF7D0012997A90098DE0FF99
:0E9DA300EF7005C2B012001690098CE0FF228E
:108A1F00900CBCEBF0A3EAF0A3E9F0900CBFEDF0E3
:108A2F00900CC1E4F0A3E4F0900CC0E4F0900CBF04
:108A3F00E0FF900CC0E0FEEEC39F502F900CBCE007
:108A4F00FBA3E0FAA3E0F9900CC0E0FF8F827583DF
:108A5F0000121964FF7E00900CC2E02FF0900CC141
:108A6F00E03EF0900CC0E004F080C2900CC1E0FE3C
:038A7F00A3E0FF72
:018A820022D1
:0FA568007BFF7A8B79FB128949900DEBEFF02284
:058BFB00900DE4EFF015
:108C0000900DE4E0FFEF121CCB8C13008C390100B7
:038C1000008C5580
:108C1300900DE57406F0900DE6E4F0A3E4F07B011B
:108C23007A0D79E5126438EF70067F011299EC2210
:068C33007F001299EC2203
:108C390012A2D5EF6403600F7F001299EC7DF47CDA
:0C8C4900017FFF126B5E227F011299EC8C
:018C550022FC
:06A61400900DEBE0FF22B7
:10A144007BFF7AA379A5128949900DE9EFF07BFF93
:10A154007A947957128949900DE8EFF0900DEA74DA
:03A1640001F022E5
:10A51000900DEAE0FFEF600C900DE9E0FF7D607CBC
:05A52000EA126B5E224F
:10A3A500900EE2EFF012A5257F0012A32F900DE885
:0DA3B500E0FF7D001297667FFF1297E02207
:109DB100900EE3EFF0900EE3E0FFEF6013900DEAF9
:109DC1007401F0900DE9E0FF7D607CEA126B5E2288
:0E9DD100900DEAE4F0900DE9E0FF1297E02219
:05945700900EE4EFF0AF
:10945C00900EE4E0FFEF121CCB946F00948301009C
:10946C000094957F00129523EF70067F011299EC02
:10947C00227F001299EC2212A585EF70067FFF1255
:0E948C0097E0227F011299EC227F001299ECEA
:01949A0022AF
:10A4E4007584015388FC4388015388F343880443EB
:06A4F4008880758400223F
:10A4FA007584025388FC4388015388F343880443D4
:06A50A0088807584002228
:1095A60012A54812A55812A4E412A4FAD288D28AA7
:1095B6007BFF7A6079D6128949900C90EFF0900C77
:1095C60089E4F0900C8AE4F0900C8BE4F0A3E4F0CC
:1095D600900C8D7401F0900C8EE4F0900C8FE4F0FA
:0195E6002262
:10941100900D65EEF0A3EFF0900D67ECF0A3EDF089
:10942100900D69EBF0900D65E0FEA3E0FF129E67E1
:10943100900D65E0FEA3E0FF129E93900D67E0FEA4
:10944100A3E0FF900C8BEEF0A3EFF0900D69E0FF2D
:06945100900C8DEFF022EB
:1096E800900EE5EFF0900EE5E0FFEF6026900C8914
:1096F800E4F0900C8AE4F0900C8EE4F0900C8FE487
:10970800F0C289C28B120036900C90E0FF7D0012E7
:0F97180097662212002E900C90E0FF1297E0222D
:0560D600900E92EFF0B6
:1060DB00900E92E0FFEF121CCB60EE00616C0100A2
:1060EB000061AB900E93E4F012002E900C89E0FF50
:1060FB00EF7008900C8AE0FFEF604E900C89E0FF88
:10610B00EF601F900C89E4F0900C8DE0FF900C8EEB
:10611B00E0FEEEC39F400B900C8EE4F0900E937458
:10612B0001F0900C8AE0FFEF601F900C8AE4F09076
:10613B000C8DE0FF900C8FE0FEEEC39F400B900C9C
:10614B008FE4F0900E937401F0120036900E93E0F2
:10615B00FFEF60077F011299EC80067F001299EC2C
:01616B002211
:10616C00900E9474E7F07B017A0E7994900C27745E
:10617C0001F0900C28E4F0900C29E4F07D017C00F7
:10618C00124063EF70137F001299EC900C8BE0FCC3
:0F619C00A3E0FD7FFF126B5E227F011299EC22C0
:0561AB007F001299ECD9
:0161B00022CC
:0300030002A49ABA
:10A49A00C0E0C083C082900C897401F0900C8EE0F9
:09A4AA0004F0D082D083D0E0322E
:0300130002A4B391
:10A4B300C0E0C083C082900C8A7401F0900C8FE0DE
:09A4C30004F0D082D083D0E03215
:03002E00C2A82243
:03003600D2A8222B
:106701004506CF0203000003012400480757B0B13A
:10671100B2B3B4B5B6B7480732B8B9BABBBCBDBE9F
:10672100BF480725C0C1C2C3C4C5C6C74807A8D052
:10673100D1D2D3D4D5D6D74106DE0041074D00438F
:0967410006D51200014106DA0040
:05A02800900EE6EFF0D0
:10A02D00900EE6E0FFEFC3940540037F0022900EF3
:0FA03D00E6E0FF74CF2FF582E43406F583E0FFF1
:01A04C0022F1
:103DCC0012A5E9AE02AF019007C3EEF0A3EFF0909D
:103DDC0007C3E0FEA3E0FFAA06A9077B0112886ACD
:103DEC007BFF7A8079DD1289499007A5EFF07BFF84
:103DFC007A9A79241289499007B6EFF07BFF7A7290
:103E0C0079E31289499006EEEFF07BFF7A5F79F641
:103E1C0012894990072FEFF07BFF7A68795112894C
:103E2C0049900716EFF07BFF7A4E79B712894990CB
:103E3C00077AEFF07BFF7A7F79DB1289499006F9DC
:103E4C00EFF07BFF7A65790C128949900779EFF0D6
:103E5C007BFF7A77792A1289499007D0EFF07BFFA4
:103E6C007A6A79A11289499006E6EFF07BFF7A34E1
:103E7C0079CF128949900742EFF07BFF7A4279841F
:103E8C001289499007A3EFF07BFF7A5979A7128921
:103E9C0049900756EFF07BFF7A6F799B1289499016
:103EAC000741EFF07BFF7A8179DC12894990077723
:103EBC00EFF07BFF7A8F7999128949900769EFF0BF
:103ECC007BFF7A82795812894990075FEFF07BFF6C
:103EDC007A8F79E81289499007A4EFF07BFF7A90EA
:103EEC0079371289499006DBEFF07BFF7A9079865F
:103EFC0012894990074BEFF07BFF7A8279D41289B3
:103F0C0049900743EFF07BFF7A9279A91289499087
:103F1C000746EFF07BFF7A8D79B11289499007C97A
:103F2C00EFF07BFF7A8C795612894990077DEFF080
:103F3C007BFF7A9079D51289499007B2EFF07BFF1D
:103F4C007A5779AE128949900740EFF07BFF7A706F
:103F5C007946128949900776EFF07BFF7A9A795B64
:103F6C00128949900778EFF07BFF7A5879B2128961
:103F7C0049900722EFF07BFF7A2779C0128949908C
:103F8C0006E9EFF07BFF7A8E795B12894990074E38
:103F9C00EFF07BFF7A8979B51289499007B7EFF07A
:103FAC007BFF7A747924128949900724EFF07BFF08
:103FBC007A94799B1289499006FCEFF07BFF7A5E2C
:103FCC007934128949900773EFF07BFF7A8379502B
:103FDC00128949900768EFF07BFF7A8379CC1289BC
:103FEC00499007B5EFF07BFF7A62798B1289499083
:103FFC0007C2EFF07BFF7A9179241289499007234D
:10400C00EFF07BFF7A8E790712894990073AEFF02F
:10401C007BFF7A9179731289499006E7EFF07BFF69
:10402C007A8E79AB1289499006E5EFF07BFF7A9195
:10403C0079C212894990074CEFF07BFF7A6D798E2B
:10404C001289499007CFEFF07BFF7A73798512893B
:07405C00499006E8EFF02295
:05805D00900D6AEFF038
:108062009007C3E0FEA3E0FFAA06A9077B011296D0
:1080720069900D6BEEF0A3EFF0900D6BE0FEA3E0C4
:10808200FFEF64FF7003EE64FF60479007C3E0FEFA
:10809200A3E0FFAA06A9077B01900D6BE0FCA3E019
:1080A200FD127C34AE02AF01900D6DEEF0A3EFF045
:1080B200900D6DE0FEA3E0FFAA06A9077B01120066
:1080C200A69007C3E0FEA3E0FFAA06A9077B011260
:0A80D200815D900D6AE0FF1299EC49
:0180DC002281
:0B00A600900C4EEBF0A3EAF0A3E9F091
:1000B100900C4EE0FBA3E0FAA3E0F912194BFF907C
:1000C1000C53EFF0900C4EE0FBA3E0FAA3E0F975BE
:1000D1008201758300121964FF900C54EFF0900CAB
:1000E1004EE0FBA3E0FAA3E0F975820375830012E9
:1000F1001964FF900C51EFF0900C4EE0FBA3E0FA75
:10010100A3E0F9758202758300121964FF900C5205
:10011100EFF0900C53E0FFEFB4010312A510900C27
:1001210051E0FFEF121CCB01BF0101DE6403E46566
:1001310004036604226704B46804D36904F26A05FF
:10014100806B059F6C05BE6D05DD6E062E6F068EFC
:100151007006AD71075672079C7308EA7409097538
:100161000A17760A36770A55780A747C0AB27D0A2C
:10017100D1800B39810B88820BA7830BC6840CDDE0
:10018100850D48860D67870D86880F43890F948AF0
:100191000FF28B10118C106C8D0A938F10BD901182
:1001A1000E9111629211F597118198135899125A73
:1001B1009A12E49B13FE9C14129D00001412900CE1
:1001C10053E0FF900730EFF0900C52E0FF900731C1
:0D01D100EFF09006FCE0FF7D001297662223
:1001DE00900C4EE0FBA3E0FAA3E0F9E92404F9EA5F
:1001EE003400FAAE02AF01900C55EEF0A3EFF09092
:1001FE000C55E0FEA3E0FFAA06A9077B01C003C0D1
:10020E0002C001900C55E0FEA3E0FFAA06A9077BF1
:10021E0001900C01EBF0A3EAF0A3E9F0900C04E4DA
:10022E00F0A3740DF0D001D002D003125B81900CBC
:10023E0055E0FEA3E0FFEF241CFFEE3400FEAA06FD
:10024E00A9077B011286A0900C55E0FEA3E0FFEFFC
:10025E00241AFFEE3400FEAA06A9077B011286A01F
:10026E00900C55E0FEA3E0FFEF2420FFEE3400FEDD
:10027E00AA06A9077B011286A0900C55E0FEA3E00A
:10028E00FFEF241EFFEE3400FEAA06A9077B011223
:10029E0086A0900C55E0FEA3E0FFEF2422FFEE3483
:1002AE0000FEAA06A9077B011286A0900C55E0FE5F
:1002BE00A3E0FFAA06A9077B01900C55E0FEA3E080
:1002CE00FF8F828E83E582241AF582E5833400F552
:1002DE0083E0FEA3E0FF900B78EEF0A3EFF0900C1E
:1002EE0055E0FEA3E0FF8F828E83E582241CF5820B
:1002FE00E5833400F583E0FEA3E0FF900B7AEEF089
:10030E00A3EFF0900C55E0FEA3E0FF8F828E83E505
:10031E0082241EF582E5833400F583E0FEA3E0FF20
:10032E00900B7CEEF0A3EFF0900C55E0FEA3E0FFF7
:10033E008F828E83E5822420F582E5833400F58357
:10034E00E0FEA3E0FF900B7EEEF0A3EFF0900C55D5
:10035E00E0FEA3E0FF8F828E83E5822422F582E504
:10036E00833400F583E0FEA3E0FF900B80EEF0A354
:10037E00EFF0900C55E0FEA3E0FF8F828E83E582B6
:10038E002424F582E5833400F583E0FF900B82EFA1
:10039E00F0900C55E0FEA3E0FF8F828E83E5822461
:1003AE0025F582E5833400F583E0FF900B83EFF0B3
:1003BE007D0D7F0012548C900C53E0FF900704EFDC
:1003CE00F0900C52E0FF900705EFF09006DBE0FF97
:0603DE007D00129766226B
:1003E400900C53E0FF9007C7EFF0900C52E0FF90A1
:1003F40007C8EFF0900777E0FF7D00129766229020
:100404000C53E0FF9006E3EFF0900C52E0FF9006EF
:0E041400E4EFF09007A5E0FF7D00129766224E
:10042200900C4EE0FBA3E0FAA3E0F9E92404F9EA18
:100432003400FAAE02AF01900C55EEF0A3EFF0904B
:100442000C55E0FEA3E0FFAA06A9077B01C003C08A
:1004520002C001900C55E0FEA3E0FFAA06A9077BAB
:1004620001900C01EBF0A3EAF0A3E9F0900C04E494
:10047200F0A3740DF0D001D002D003125B81900C76
:1004820055E0FEA3E0FFAA06A9077B017D0C7F00D1
:1004920012853A900C53E0FF9007B0EFF0900C52A7
:1004A200E0FF9007B1EFF0900769E0FF7D0012973F
:0204B2006622C0
:1004B400900C53E0FF90077BEFF0900C52E0FF901C
:1004C400077CEFF090075FE0FF7D001297662290B3
:1004D4000C53E0FF900766EFF0900C52E0FF90079A
:0E04E40067EFF0900743E0FF7D00129766225D
:1004F200900C4EE0FBA3E0FAA3E0F9E92404F9EA48
:100502003400FAAE02AF01900C55EEF0A3EFF0907A
:100512000C55E0FEA3E0FFAA06A9077B01C003C0B9
:1005220002C001900C55E0FEA3E0FFAA06A9077BDA
:1005320001900C01EBF0A3EAF0A3E9F0900C04E4C3
:10054200F0A37402F0D001D002D003125B81900CB0
:1005520055E0FEA3E0FFAA06A9077B01128CAE902C
:100562000C53E0FF9006EAEFF0900C52E0FF900689
:0E057200EBEFF09007B2E0FF7D0012976622DB
:10058000900C53E0FF9007B3EFF0900C52E0FF9017
:1005900007B4EFF0900746E0FF7D001297662290C7
:1005A0000C53E0FF9006FAEFF0900C52E0FF90063B
:1005B000FBEFF09007C9E0FF7D0012976622900CD8
:1005C00053E0FF9006DCEFF0900C52E0FF9006DD68
:0D05D000EFF090077DE0FF7D00129766229E
:1005DD00900C4EE0FBA3E0FAA3E0F9E92404F9EA5C
:1005ED003400FAAE02AF01900C55EEF0A3EFF0908F
:1005FD000C53E0FF9007CCEFF0900C52E0FF90070A
:10060D00CDEFF0900C55E0FEA3E0FF8F828E83E0DE
:10061D00FF9007CEEFF0900779E0FF7D001297660F
:01062D0022AA
:10062E00900C4EE0FBA3E0FAA3E0F9E92404F9EA0A
:10063E003400FAAE02AF01900C55EEF0A3EFF0903D
:10064E000C53E0FF900700EFF0900C52E0FF900784
:10065E0001EFF0900C55E0FEA3E0FF8F828E83E059
:10066E00FEA3E0FF900702EEF0A3EFF07B017A0706
:10067E0079021286A09007D0E0FF7D0012976622C5
:10068E00900C53E0FF900719EFF0900C52E0FF90A2
:0F069E00071AEFF09006E6E0FF7D001297662244
:1006AD00900C4EE0FBA3E0FAA3E0F9E92404F9EA8B
:1006BD003400FAAE02AF01900C55EEF0A3EFF090BE
:1006CD000C53E0FF9006E1EFF0900C52E0FF900626
:1006DD00E2EFF0900C55E0FEA3E0FFAA06A9077B20
:1006ED00011286A0900C55E0FEA3E0FFEF2402FF5F
:1006FD00EE3400FEAA06A9077B011286A0900C55C8
:10070D00E0FEA3E0FF8F828E83E0FEA3E0FF900C5E
