:10A25800900E45EBF0A3EAF0A3E9F0900E45E0FB81
:10A26800A3E0FAA3E0F9758205758300121964FF6B
:01A2780022C3
:106E5300900E48EBF0A3EAF0A3E9F0900E48E0FBB4
:106E6300A3E0FAA3E0F9758203758300743B12195A
:106E7300F8900E48E0FBA3E0FAA3E0F975820175F0
:106E83008300E41219F8900E48E0FBA3E0FAA3E0B4
:106E9300F9758202758300E41219F8900E48E0FB3D
:106EA300A3E0FAA3E0F9758205758300E41219F8EB
:106EB300900E48E0FBA3E0FAA3E0F9758204758322
:106EC30000E41219F8900E48E0FBA3E0FAA3E0F9FE
:106ED300E41219E6900E48E0FBA3E0FAA3E0F9758B
:106EE300820A758300E41219F8900E48E0FBA3E0D0
:0F6EF300FAA3E0F975820B758300E41219F822F7
:1056BC00C0D075D010900E4BEBF0A3EAF0A3E9F03C
:1056CC00900E4BE0FBA3E0FAA3E0F9758202758320
:1056DC0000121964FF900E4BE0FBA3E0FAA3E0F973
:1056EC00758201758300121964FEEEB5171D900EBC
:1056FC004BE0FBA3E0FAA3E0F97582057583001279
:10570C001964FFEF60057F030257C0900E4BE0FB5E
:10571C00A3E0FAA3E0F9758201758300121964FF06
:10572C007E00900E4BE0FBA3E0FAA3E0F9E9240D18
:10573C00F9EA3400FAE92FF9EA3EFAE5991219E68A
:10574C00900E4BE0FBA3E0FAA3E0F975820375839E
:10575C0000121964FF900E4BE0FBA3E0FAA3E0F9F2
:10576C00758201758300121964FEEEC39F50189068
:10577C000E4BE0FBA3E0FAA3E0F975820175830000
:10578C0074011219B38015900E4BE0FBA3E0FAA341
:10579C00E0F9758201758300E41219F8900E4BE064
:1057AC00FBA3E0FAA3E0F97582057583007401127E
:0757BC0019B37F01D0D022D8
:0B5AAB00900CD9EBF0A3EAF0A3E9F0A7
:105AB600900CD9E0FBA3E0FAA3E0F97582057583A3
:105AC60000121964FFEF70067F0322025B93A2ACFB
:105AD6009204C2AC900CD9E0FBA3E0FAA3E0F975FE
:105AE6008202758300121964FF7E00900CD9E0FBD8
:105AF600A3E0FAA3E0F9E9240DF9EA3400FAE92F64
:105B0600F9EA3EFA12194BFF900CDCE0FBA3E0FA2F
:105B1600A3E0F9EF1219E6900CD9E0FBA3E0FAA393
:105B2600E0F9758203758300121964FF900CD9E0C1
:105B3600FBA3E0FAA3E0F9758202758300121964EB
:105B4600FEEEC39F5018900CD9E0FBA3E0FAA3E049
:105B5600F975820275830074011219B38015900CD1
:105B6600D9E0FBA3E0FAA3E0F9758202758300E4AD
:105B76001219F8900CD9E0FBA3E0FAA3E0F97582BC
:0F5B86000575830074FF1219B3A20492AC7F015E
:015B950022ED
:10887F00900E4EEBF0A3EAF0A3E9F0900E4EE0FB62
:10888F00A3E0FAA3E0F9758203758300740312194C
:10889F00F8900E4EE0FBA3E0FAA3E0F975820275A3
:1088AF008300E41219F8900E4EE0FBA3E0FAA3E068
:1088BF00F9758201758300E41219F8900E4EE0FBF2
:1088CF00A3E0FAA3E0F9758204758300E41219F8A6
:1088DF00900E4EE0FBA3E0FAA3E0F9E41219E622B2
:108D2800900E51EBF0A3EAF0A3E9F0900E51E0FBAE
:108D3800A3E0FAA3E0F9758203758300121964FFB2
:108D4800900E51E0FBA3E0FAA3E0F9758204758365
:108D580000121964FEEEB507057EFF7FFF22900E14
:108D680051E0FBA3E0FAA3E0F975820275830012D3
:068D78001964FF7E0022D9
:107C4900900D1BEBF0A3EAF0A3E9F0900D1EECF008
:107C5900A3EDF0900D1BE0FBA3E0FAA3E0F9758218
:107C690003758300121964FF7E00EF24FFFFEE34D1
:107C7900FFFE900D1EE0FCA3E0FDD3ED9FEE6480B6
:107C8900F8EC6480985010900D1EE0FEA3E0FFC34D
:107C9900EE6480948050077B007A00790022900D71
:107CA9001BE0FBA3E0FAA3E0F9E92406F9EA3400B2
:107CB900FA900D1EE0FEA3E0FF7C007D3C121A1A2B
:077CC900E92FF9EA3EFA225F
:10863F00900E54EBF0A3EAF0A3E9F0900E54E0FB98
:10864F00A3E0FAA3E0F9758203758300121964FFA2
:10865F00900E54E0FBA3E0FAA3E0F9758202758354
:10866F000074011219B3FEEEB50715900E54E0FB1E
:10867F00A3E0FAA3E0F9758202758300E41219F8FA
:10868F00900E54E0FBA3E0FAA3E0F9E41219E69090
:10869F000E54E0FBA3E0FAA3E0F9758204758300A2
:0686AF0074011219B32250
:10A0B800900E57EBF0A3EAF0A3E9F0900E57E0FBFF
:10A0C800A3E0FAA3E0F9758204758300121964FF0E
:03A0D8007E0022E5
:10968C00900E5AEBF0A3EAF0A3E9F0900E5AE0FB2F
:10969C00A3E0FAA3E0F9758204758300121964FF44
:1096AC00EF70057EFF7FFF22900E5AE0FBA3E0FADD
:1096BC00A3E0F9758201758300121964FF7E002204
:10817200900E5DEBF0A3EAF0A3E9F0900E5DE0FB58
:10818200A3E0FAA3E0F9758204758300121964FF73
:10819200EF605B900E5DE0FBA3E0FAA3E0F975826D
:1081A20003758300121964FF900E5DE0FBA3E0FAF1
:1081B200A3E0F975820175830074011219B3FEEE12
:1081C200B50715900E5DE0FBA3E0FAA3E0F9758216
:1081D20001758300E41219F8900E5DE0FBA3E0FA4A
:0F81E200A3E0F975820475830074FF1219B322AC
:1077D800900CDFEBF0A3EAF0A3E9F0900CE2ECF0F8
:1077E800A3EDF0900CDFE0FBA3E0FAA3E0F9121997
:1077F8004BFFEFC3943C5068900CE4E0FFC0079047
:107808000CDFE0FBA3E0FAA3E0F9E92406F9EA3487
:1078180000FA900CE2E0FEA3E0FF7C007D3C121A27
:107828001AE92FF9EA3EFAC003C002C001900CDF42
:10783800E0FBA3E0FAA3E0F912194BFF7E00D001A8
:10784800D002D003E92FF9EA3EFAD007EF1219E681
:10785800900CDFE0FBA3E0FAA3E0F97401121991A0
:0178680022FD
:05000600C201C200224E
:0596CC00900DB1EFF06C
:1096D100900DB27409F0900DB1E0FFEF600D900DA7
:1096E100B3E4F0A37402F0D200800C900DB3E4F067
:1096F100A3E4F0C200C2017B017A0D79B212644D7C
:09970100EFB402037F02227F0095
:01970A00223C
:05954600900DB5EFF0EF
:10954B00900DB67409F0900DB5E0FFEF6010900D23
:10955B00B7E4F0A37403F0300010D201800C900D2F
:10956B00B7E4F0A3E4F0C201C2007B017A0D79B637
:0C957B0012644DEFB402037F02227F0057
:0195870022C1
:089C2300900D20EEF0A3EFF01C
:109C2B00900D22740AF0900D20E0FEA3E0FF900D42
:109C3B0023EEF0A3EFF07B017A0D792212644DEF46
:089C4B00B402037F02227F0036
:019C530022EE
:06A60E00A201E433FF226B
:0EA595007F41127AA5EF70037F00227F022221
:0EA5A30012A318EF640360037F00227F0122E1
:0B98B500900D25EBF0A3EAF0A3E9F012
:1098C0007B017A0D7928128B05EF6403601E900DE1
:1098D00028E0FEA3E0FF7E00900D25E0FBA3E0FA68
:0E98E000A3E0F9EE8FF0121B467F00227F01FD
:0198EE002257
:0C008600900249E4F090024A74FFF0225E
:0B89CB00900DB9EBF0A3EAF0A3E9F077
:1089D600900249E0FFEFC3944140037FFF229002DB
:1089E60049E0FF900DBCEFF0900DB9E0FBA3E0FA73
:1089F600A3E0F9900DBCE0FF75F009EFA42400F5A3
:108A060082E5F03400F583EBF0A3EAF0A3E9F090F9
:108A16000DBCE0FF75F009EFA42404F582E5F034FF
:108A260000F583E4F0900249E004F0900DBCE0FF0D
:018A3600221D
:10978900900EABEFF0900EACEDF0900EABE0FF75E4
:10979900F009EFA42404F582E5F03400F58374029E
:1097A900F0900EACE0FF900EABE0FE75F009EEA470
:0D97B9002403F582E5F03400F583EFF02283
:10980300900ED5EFF0900ED5E0FFEFB4FF17900266
:109813004AE0FF75F009EFA42404F582E5F0340073
:10982300F583E4F022900ED5E0FF75F009EFA42450
:0C98330004F582E5F03400F583E4F02237
:109A0F00900ED6EFF0900ED6E0FF90024AE0FE7572
:109A1F00F009EEA42403F582E5F03400F583EFF0AE
:109A2F0090024AE0FF75F009EFA42404F582E5F0F7
:089A3F003400F5837402F022EB
:106B7300900E60EFF0900E61ECF0A3EDF0900E60DC
:106B8300E0FFEF64FF705290024AE0FF75F009EFF7
:106B9300A42404F582E5F03400F5837403F0900235
:106BA3004AE0FF7E09EF8EF0A4FFAEF074052FF9E3
:106BB30074003EFA7B01C003C002C001900E61E085
:106BC300FEA3E0FF7C007D0A121A2CAC06AD07D0B1
:106BD30001D002D00312936022900E60E0FF75F0A3
:106BE30009EFA42404F582E5F03400F5837403F07F
:106BF300900E60E0FF7E09EF8EF0A4FFAEF0740507
:106C03002FF974003EFA7B01C003C002C001900E4D
:106C130061E0FEA3E0FF7C007D0A121A2CAC06ADF6
:0B6C230007D001D002D00312936022C2
:10500F00900ED7E4F0900249E0FF900ED7E0FEEE4D
:10501F00C39F400302513F75FFA5900249E0FF90E7
:10502F00024AE004FEF0EEB5070590024AE4F09064
:10503F00024AE0FF75F009EFA42404F582E5F0348D
:10504F0000F583E0FFEF6402705190024AE0FF75B4
:10505F00F009EFA42404F582E5F03400F583740120
:10506F00F090024AE0FF75F009EFA42403F582E502
:10507F00F03400F583E0FF90024AE0FE75F009EE90
:10508F00A42400F582E5F03400F583E0FBA3E0FAF9
:10509F00A3E0F989828A83121D222290024AE0FF3F
:1050AF0075F009EFA42404F582E5F03400F583E0F0
:1050BF00FFEF6403707190024AE0FF7E09EF8EF0FC
:1050CF00A4FFAEF074052FF974003EFA7B01128D28
:1050DF007EEF6401705190024AE0FF75F009EFA472
:1050EF002404F582E5F03400F5837401F090024A50
:1050FF00E0FF75F009EFA42403F582E5F03400F525
:10510F0083E0FF90024AE0FE75F009EEA42400F55B
:10511F0082E5F03400F583E0FBA3E0FAA3E0F98920
:10512F00828A83121D2222900ED7E004F0025014BF
:01513F00224D
:10A3E800900ED8EFF0900ED8E0FF75F009EFA42496
:0CA3F80004F582E5F03400F583E0FF225C
:10A40400900ED9EFF0900ED9E0FF75F009EFA42477
:0CA4140003F582E5F03400F583E0FF2240
:0B86B500900C9AEBF0A3EAF0A3E9F0B0
:1086C000900C9AE0FBA3E0FAA3E0F9900C9DEBF08C
:1086D000A3EAF0A3E9F0900C9DE0FBA3E0FAA3E08D
:1086E000F9758201758300121964FF900CA0EFF0F8
:1086F000900C9DE0FBA3E0FAA3E0F912194BFF9068
:108700000C9DE0FBA3E0FAA3E0F9758201758300FC
:10871000EF1219F8900CA0E0FF900C9DE0FBA3E095
:08872000FAA3E0F9EF1219E6DB
:01872800222E
:10A45800900E63EBF0A3EAF0A3E9F0900E63E0FB43
:0AA46800A3E0FAA3E0F91286B52282
:0B65F400900CA1EBF0A3EAF0A3E9F08B
:1065FF00900CA1E0FBA3E0FAA3E0F9900CA4EBF060
:10660F00A3EAF0A3E9F0900CA4E0FBA3E0FAA3E067
:10661F00F9758203758300121964FF900CA7EFF0D0
:10662F00900CA4E0FBA3E0FAA3E0F912194BFF9042
:10663F000CA4E0FBA3E0FAA3E0F9758203758300D5
:10664F00EF1219F8900CA7E0FF900CA4E0FBA3E069
:10665F00FAA3E0F9EF1219E6900CA4E0FBA3E0FA1D
:10666F00A3E0F9758202758300121964FF900CA7DD
:10667F00EFF0900CA4E0FBA3E0FAA3E0F975820120
:10668F00758300121964FF900CA4E0FBA3E0FAA33A
:10669F00E0F9758202758300EF1219F8900CA7E0EC
:1066AF00FF900CA4E0FBA3E0FAA3E0F9758201755B
:0666BF008300EF1219F840
:0166C50022B2
:10A47200900E66EBF0A3EAF0A3E9F0900E66E0FB23
:0AA48200A3E0FAA3E0F91265F4224A
:0B5B9600900BFFEBF0A3EAF0A3E9F096
:105BA100900C0574FF75F0FF121ACDAFF0FEEF4EA9
:105BB1007003025C7E900C05E0FEA3E0FFEF25E0A0
:105BC100FFEE33FE900BFFE0FBA3E0FAA3E0F98FB9
:105BD100828E83121B0EFDACF0900C05E0FEA3E05B
:105BE100FFEF25E0FFEE33FE900C02E0FBA3E0FAAD
:105BF100A3E0F98F828E83EC8DF0121B65900C056A
:105C0100E0FEA3E0FFEF25E0FFEE33FE900C02E0A3
:105C1100FBA3E0FAA3E0F9E92FF9EA3EFA900C07B9
:105C2100EBF0A3EAF0A3E9F0900C07E0FBA3E0FAA4
:105C3100A3E0F9758201758300121964FF900C0AC3
:105C4100EFF0900C07E0FBA3E0FAA3E0F912194B87
:105C5100FF900C07E0FBA3E0FAA3E0F97582017560
:105C61008300EF1219F8900C0AE0FF900C07E0FB9B
:0D5C7100A3E0FAA3E0F9EF1219E6025BA12F
:015C7E002203
:10923400900C62EBF0A3EAF0A3E9F0900C62E0FB7F
:10924400A3E0FAA3E0F9C003C002C001900C65E0FA
:10925400FBA3E0FAA3E0F9900C02EBF0A3EAF0A37D
:10926400E9F0900C68E0FEA3E0FF900C05EEF0A39B
:0C927400EFF0D001D002D003125B962274
:0B4C1400900C0BEBF0A3EAF0A3E9F01A
:104C1F00900C1174FF75F0FF121ACDAFF0FEEF4E2E
:104C2F007003024D70900C11E0FEA3E0FFEF7802CD
:104C3F00C333CE33CED8F9FF900C0BE0FBA3E0FAD1
:104C4F00A3E0F98F828E83121C02C004C005C00638
:104C5F00C007900C11E0FEA3E0FFEF7802C333CE44
:104C6F0033CED8F9FF900C0EE0FBA3E0FAA3E0F9E6
:104C7F008F828E83D007D006D005D004121C3290BD
:104C8F000C11E0FEA3E0FFEF7802C333CE33CED892
:104C9F00F9FF900C0EE0FBA3E0FAA3E0F9E92FF97E
:104CAF00EA3EFA900C13EBF0A3EAF0A3E9F0900CB4
:104CBF0013E0FBA3E0FAA3E0F975820375830012FA
:104CCF001964FF900C16EFF0900C13E0FBA3E0FAC1
:104CDF00A3E0F912194BFF900C13E0FBA3E0FAA32A
:104CEF00E0F9758203758300EF1219F8900C16E046
:104CFF00FF900C13E0FBA3E0FAA3E0F9EF1219E623
:104D0F00900C13E0FBA3E0FAA3E0F9758202758320
:104D1F0000121964FF900C16EFF0900C13E0FBA338
:104D2F00E0FAA3E0F9758201758300121964FF9010
:104D3F000C13E0FBA3E0FAA3E0F975820275830080
:104D4F00EF1219F8900C16E0FF900C13E0FBA3E0A4
:104D5F00FAA3E0F9758201758300EF1219F8024C7E
:014D6F001F24
:014D70002220
:10928000900C6AEBF0A3EAF0A3E9F0900C6AE0FB23
:10929000A3E0FAA3E0F9C003C002C001900C6DE0A6
:1092A000FBA3E0FAA3E0F9900C0EEBF0A3EAF0A325
:1092B000E9F0900C70E0FEA3E0FF900C11EEF0A33B
:0C92C000EFF0D001D002D003124C1422B9
:0BA5CB00900CE57402F0D2B1C2B12286
:057AA500900E69EFF0F6
:107AAA0012A5D6EFB401037F0222900CE57403F00D
:107ABA007D017F1212999DC2B012A5F9AE02AF01E3
:107ACA00900E6AEEF0A3EFF0900E69E0FF900E6A56
:107ADA00E0FCA3E0FD8D828C83EFF0900E6AE0FE5D
:107AEA00A3E0FF8F828E83A3E4F0900E6AE0FEA3E8
:107AFA00E0FF8F828E83A3A3E4F07B017A0C79E600
:107B0A00C003C002C0017BFF7AA079DB900C77EB3F
:107B1A00F0A3EAF0A3E9F0D001D002D0037F037EFC
:067B2A00001287297F0014
:017B30002232
:0B644D00900D2AEBF0A3EAF0A3E9F0A9
:1064580012A5D6EFB401037F0222900CE57403F075
:106468007D017F1212999DD2B012A5F9AE02AF013B
:10647800900D2DEEF0A3EFF0900D2AE0FBA3E0FACB
:10648800A3E0F912194BFF900D2DE0FCA3E0FD8D60
:10649800828C83EFF0900D2AE0FBA3E0FAA3E0F9E9
:1064A800758201758300121B0EFFAEF07F00EEFFB0
:1064B8007E00900D2DE0FCA3E0FD8D828C83A3EF80
:1064C800F0900D2AE0FBA3E0FAA3E0F975820175CC
:1064D8008300121B0EFFAEF0EF54FFFF900D2DE06E
:1064E800FCA3E0FD8D828C83A3A3EFF07B017A0CE3
:1064F80079E6C003C002C0017BFF7AA079DB900C6B
:1065080077EBF0A3EAF0A3E9F0D001D002D0037F43
:08651800037E001287297F00B9
:016520002258
:10A0DB00C0D075D018900EDAEFF0900EDAE0FFEFEB
:10A0EB007008900CE57401F08006900CE57402F09A
:03A0FB00D0D022A0
:108B0500900E6CEBF0A3EAF0A3E9F0900CE5E0FF22
:108B1500EFB403037F0322900CE5E0FFEFB4012ED1
:108B2500900CE8E0FF900E6CE0FBA3E0FAA3E0F9FF
:108B3500758201758300EF1219F8900CE7E0FF903C
:108B45000E6CE0FBA3E0FAA3E0F9EF1219E67D0055
:0E8B55007F1212999D120016900CE5E0FF228F
:10A31800900CE5E0FFEFB403037F03227D007F127A
:0EA3280012999DC2B0120016900CE5E0FF22C3
:10549E0075FFDE75FFAD129F0D12983F129B89129C
:1054AE00A35412008612974A12A586128F1E12A2BC
:1054BE00F912A5E112A3CB12009612A5CB12A600EB
:1054CE001200061295C912A16712A024123DCC1229
:1054DE009F5D129FADD2AF124940127F6E129B5547
:1054EE00123B087BFF7A7879691289CB900CA8EF72
:1054FE00F07BFF7A9379A71289CB900CABEFF07B00
:10550E00FF7A9379181289CB900CADEFF07BFF7A6E
:10551E008079721289CB900CAEEFF07BFF7A6179B5
:10552E00C61289CB900CA9EFF07BFF7A317960120D
:10553E0089CB900CAAEFF07BFF7A6C79E91289CBBC
:10554E00900CACEFF0900CA9E0FF900CAAE0FD12CD
:10555E00A2DA12A6327D00129789900CA8E0FF7D88
:10556E0000129789900CABE0FF7D00129789900C8A
:10557E00A9E0FF7D00129789900CADE0FF7D00122F
:10558E009789900CAEE0FF7D00129789900CACE0ED
:0E559E00FF7D0012978975FF0712500F80FBEA
:0155AC0022DC
:109B5500900EAD74E0F0E5EF30E1047F0080027F08
:109B650001900EAEEFF07B017A0E79AD900C287462
:109B750001F0900C29E4F0900C2AE4F07D037C00C0
:039B850012406328
:019B880022BA
:109F0D0075840F43E10443E10275AD0075A500753D
:109F1D0090FF43E18043E20143E20443E21043E258
:089F2D008043E340758400222B
:03001B00020019C7
:0100190032B4
:03002B0002001AB6
:01001A0032B3
:03003B000200219F
:0100210032AC
:0300430002002296
:0100220032AB
:03004B0002002987
:0100290032A4
:10A33600758400C2CAC2C953C8FE75CAFF75CBDB95
:0EA3460053C9E775CCFF75CDFFC2ADD2CA2258
:10A35400758400C28C900CF5E4F0A3E4F043890109
:0EA36400758AFF758CDB538EF4D2A9D28C2241
:03000B0002A0FE52
:10A0FE00C0E0C083C082C28D900CF6E004F0700602
:10A10E00900CF5E004F0758AFF758CDBD082D0835D
:03A11E00D0E0325C
:10A4D7007584004389205389EF758DD0538EEF53D0
:08A4E7008EF4D28E438840225E
:10A48C0075840253C8FB75C90853C8FD53E7FB75A7
:09A49C00CBFF75CAB843C80422C5
:0300830002002A4E
:01002A0032A3
:10983F0075840F758C67900EAFE4F0A3E4F0900E73
:10984F00AFE0FEA3E0FFC3EE648094815010900E52
:10985F00B0E004F07006900EAFE004F080E04397A4
:0A986F0001538A7F43A604758400AC
:0198790022CC
:089FFD00900CEBEEF0A3EFF075
:10A005007B017A0C79ED900CEBE0FCA3E0FD12935B
:0EA01500607B017A0C79ED128D7EEFB401F3C1
:01A02300221A
:10936000900D2FEBF0A3EAF0A3E9F0900D32ECF0B2
:10937000A3EDF012A3AE900D2FE0FBA3E0FAA3E063
:10938000F9EE8FF0121B46900D32E0FEA3E0FF9045
:109390000D2FE0FBA3E0FAA3E0F9758202758300CC
:0793A000EE8FF0121B6522A5
:0B8D7E00900D34EBF0A3EAF0A3E9F045
:108D890012A3AE900D37EEF0A3EFF0900D34E0FB97
:108D9900A3E0FAA3E0F9121AE3FFAEF0900D37E071
:108DA900FCA3E0FD128BC1900D34E0FBA3E0FAA314
:108DB900E0F9758202758300121B0EFDACF0C3EF5A
:0A8DC9009DEE9C50037F00227F0105
:018DD300227D
:07A5EB007B017A0C79F122DB
:10A3AE00C2A9900CF5E0FEA3E0FF900EB1EEF0A373
:0CA3BE00EFF0D2A9900EB1E0FEA3E0FF8A
:01A3CA002270
:108BC100900DBDEEF0A3EFF0900DBFECF0A3EDF032
:108BD100900DBDE0FEA3E0FF900DBFE0FCA3E0FD22
:108BE100D3ED9FEC9E4018900DBDE0FEA3E0FF90F9
:108BF1000DBFE0FCA3E0FDC3ED9FFFEC9EFE2290C4
:108C01000DBDE0FEA3E0FFC3E49FFFE49EFE900DD7
:0D8C1100BFE0FCA3E0FDEF2DFFEE3CFE22D6
:109B8900A2AF9206C2AF75840043911043910F753D
:109B9900985012A48CC299C298D2ACD2BCA2069297
:109BA900AFC20890083AE4F090089FE4F0900839B1
:039BB9007463F0E2
:019BBC002286
:03002300027CD08C
:107CD000C0E0C0F0C083C082C0D075D010C2ACE597
:107CE0009130E70353917FE59130E6035391BF3024
:107CF000980BC2987B017A0779F01256BC30994AEA
:107D0000C29990089FE0FF90083AE0FEEE6F60385D
:107D100090089FE0FF743B2FF582E43408F583E080
:107D2000FF8F9990089FE0FF7E00EF2401FFEE3463
:107D300000FE7C007D64121A2CAF1590089FEFF0B6
:107D4000900839E004F08002C208D2ACD0D0D082D2
:077D5000D083D0F0D0E03237
:0300A30002003127
:01003100329C
:105F2B00900D39EBF0A3EAF0A3E9F0900D3CEDF006
:105F3B00900D3CE0FF900839E0FEEEC39F50037FCD
:105F4B000122A2AC9207C2AC900D3DE4F0900D3C47
:105F5B00E0FF900D3DE0FEEEC39F504F900D39E0FA
:105F6B00FBA3E0FAA3E0F9900D3DE0FF8F82758370
:105F7B0000121964FF90083AE0FE743B2EF582E4A0
:105F8B003408F583EFF090083AE0FF7E00EF240130
:105F9B00FFEE3400FE7C007D64121A2CAF059008D6
:105FAB003AEFF0900D3DE004F080A2900839E0FF4D
:105FBB00900D3CE0FEC3EF9EFF900839EFF02008F8
:105FCB0038D20890089FE0FF743B2FF582E4340829
:105FDB00F583E0FF8F9990089FE0FF7E00EF24018F
:105FEB00FFEE3400FE7C007D64121A2CAF05900886
:0F5FFB009FEFF0900839E004F0A20792AC7F000E
:01600A002273
:07A5F2007B017A0779F022DA
:1066C60054090B4F4F5F5F6F6F7F7F0F0F1F1F2F99
:0766D6002F3F3F878F979FC4
:10A3CB00C202C203758400759A4075F809759DFF2A
:0DA3DB0043A6F843A70343F60143E6012221
:10872900900C72EEF0A3EFF0900C74EBF0A3EAF06A
:10873900A3E9F075840053E6FE900C74E0FBA3E016
:10874900FAA3E0F9AE02AF019008A5EEF0A3EFF0AD
:10875900900C72E0FEA3E0FF9008A4EFF0900C7774
:10876900E0FBA3E0FAA3E0F99008A1EBF0A3EAF09B
:10877900A3E9F09008A0E4F09008A0E0FF04F074E9
:10878900A72FF582E43408F583E0FF8F9B43E601C8
:038799007F00223C
:030033000252690D
:10526900C0E0C0F0C083C082C0D075D01820FF0351
:10527900025326C2FF30030AE5A05407FFEF440793
:10528900F5A09008A0E0FF7E00EF24FFFFEE34FFB9
:10529900FE9008A5E0FCA3E0FD8D828C83E5822FBA
:1052A900F582E5833EF583E59BF09008A4E0FF9045
:1052B90008A0E0FEEEC39F503E30032290091FE490
:1052C900F090091FE0FFEFC39414500890091FE004
:1052D90004F080EDE5A05407FFEF448FF5A0900896
:1052E900A0E0FF04F074A72FF582E43408F583E009
:1052F900FF8F9B807D80269008A4E0FF9008A0E0A6
:10530900FEEEB51F189008A1E0FBA3E0FAA3E0F9AF
:1053190089828A837F007E00121D22805530FE1A01
:10532900C2FE9008A1E0FBA3E0FAA3E0F989828A12
:10533900837F027E00121D22803830FD1AC2FD9043
:1053490008A1E0FBA3E0FAA3E0F989828A837F033D
:105359007E00121D22801B30FC18C2FC9008A1E0BF
:10536900FBA3E0FAA3E0F989828A837F047E001215
:0D5379001D22D0D0D082D083D0F0D0E03201
:0BA5D6003002037F0122D2027F00222E
:03001600C2022201
:10999D00900EB3EFF0900EB4EDF0900EB4E0FFEF3B
:1099AD00B4011B900EB3E0FF740B2FF582E4340964
:1099BD00F583E0FFE5A05407FEEE4FF5A022E5A0EC
:0999CD005407FFEF4407F5A02246
:07A5F9007B017A0879A7221B
:10A54700900EDBEFF0900EDBE0FFEF24FF9203228B
:1066DD00490AB6010305070103050708480ABF006B
:0766ED00010203040506078A
:0AA5E10012A336129BBD129D492201
:109BBD0075840075BA0075BC18900AC7E4F075BBC2
:109BCD000175D1077E007F127D007B017A0A799C99
:109BDD00121D5575E80043E88043E702D2AFC20A73
:049BED007584002259
:109D490075840275BA0075BCF9900AC8E4F075BB50
:109D5900007E007F087D007B017A0A79AE121D55CD
:0F9D690075E80643E88043E710D2AF7584002207
:03007B00027B31D4
:107B3100C0E0C083C082C0D075D00853E7FDC2ED5C
:107B4100AFBF7E00900AC7E0FDED25E0249CF582E1
:107B5100E4340AF583EEF0A3EFF0900AC7E0FFEFFB
:107B610025E0249CF582E4340AF583C083C082E0D9
:107B7100FEA3E0FFEF7F00FED082D083EEF0A3EF03
:107B8100F0900AC7E0FFEF25E0249CF582E4340A77
:107B9100F583C083C082E0FEA3E0FFADBE7C00EEB2
:107BA1004CFEEF4DFFD082D083EEF0A3EFF043E720
:0C7BB10002D20AD0D0D082D083D0E032C3
:03009300029AEBE3
:109AEB00C0E0C0F0C083C082C0D075D00853E7EF90
:109AFB00C2ED900AC8E0FF74AE2FF582E4340AF58C
:109B0B0083E5BEF0129EE243E710D0D0D082D08323
:059B1B00D0F0D0E032A3
:059BF100900E6FEFF083
:109BF60053E7FD900E6FE0FFEF25E0249CF582E42D
:109C0600340AF583E0FEA3E0FF900E70EEF0A3EFBA
:0C9C1600F043E702900E70E0FEA3E0FFB8
:019C2200221F
:0597C600900E72EFF0AF
:1097CB0053E7EF900E72E0FF74AE2FF582E4340A8C
:1097DB00F583E0FF7E00900E73EEF0A3EFF043E70E
:1097EB0010900E73E0FEA3E0FFEFC4F8540FC868AF
:0797FB00FFEEC454F048FE2C
:019802002243
:10A07000900AC7E004FFF0EFB40905900AC7E4F0C6
:10A08000900AC7E0FF74B62FF582E4340AF583E046
:04A09000FF8FBB2261
:109EE200C0D075D008900AC8E004FFF0EFB40805AE
:109EF200900AC8E4F0900AC8E0FF74BF2FF582E42C
:0B9F0200340AF583E0FF8FBBD0D022B3
:03001E00A20A2211
:05000E00A209920A2284
:06A61400900AC7E0FF22DE
:108F1E007E007F627D007B017A097926121D557EC7
:108F2E00007F037D007B017A097922121D557E0098
:108F3E007F027D007B017A097988121D557E097F9B
:108F4E002790098BEEF0A3EFF0900925E4F090093D
:0F8F5E008AE4F075840043D101900920E4F022E9
:05786900900EDCEFF0C1
:10786E00900EDCE0FFEF121CCB78C40078D60178C6
:10787E008702789903000078F3127571EF70067F16
:10788E0003129A0F227F02129A0F221293EEEF64C6
:10789E0004601D128F6DEFB401077F00129A0F80E6
:1078AE00057F02129A0F7DBE7C007FFF126B732242
:1078BE007F03129A0F22127DDEEF70067F01129A5D
:1078CE000F227F00129A0F2212987AEF6404600F33
:1078DE007F02129A0F7DBE7C007FFF126B73227F98
:0A78EE0001129A0F227F02129A0F76
:0178F800226D
:1075710012A5D6EFB401037F02229009217404F011
:1075810012A5F9AE02AF01900E75EEF0A3EFF090E7
:107591000E75E0FEA3E0FF8F828E837433F0900EB0
:1075A100777401F0900E77E0FFEFD394305025907F
:1075B1000E77E0FF900E75E0FCA3E0FD8D828C83D9
:1075C100E5822FF582E43583F583E4F0900E77E0D0
:1075D10004F080D07F0112A5477D017F1112999D92
:1075E100129F35C003C002C0017BFF7AA1792190AF
:1075F1000C77EBF0A3EAF0A3E9F0D001D002D003BD
:097601007F317E001287297F0011
:01760A00225D
:107DDE0012A5D6EFB401037F02229009217404F09C
:107DEE0012A5F9AE02AF01900EB5EEF0A3EFF09032
:107DFE000EB5E0FEA3E0FF8F828E837434F0900EFA
:107E0E00B5E0FEA3E0FF8F828E83A3E4F0900EB563
:107E1E00E0FEA3E0FF8F828E83A3A3E4F07F011226
:107E2E00A5477D017F1112999D7B017A097922C0A8
:107E3E0003C002C0017BFF7AA17921900C77EBF091
:107E4E00A3EAF0A3E9F0D001D002D0037F037E00B5
:057E5E001287297F00DE
:017E630022FC
:10A12100C0D075D018900EDDEFF0900EDDE0FFEF9E
:10A1310070089009217401F080069009217402F0E1
:03A14100D0D02259
:1093EE00900921E0FFEFB404037F04227D007F117A
:1093FE0012999D7F0012A547900925E0FFEF75F0A9
:10940E0031A42427F582E43409F583AF82AE83902C
:10941E00098BEEF0A3EFF09009207401F012001604
:06942E00900921E0FF227D
:10987A00900921E0FFEFB404037F04227D007F11E9
:10988A0012999D7F0012A547900923E0FF9009884D
:10989A00EFF0900924E0FF900989EFF09009207415
:0B98AA0001F0120016900921E0FF22DF
:05958800900E78EFF0E9
:10958D0053E6FE90098BE0FEA3E0FF8F828E83C031
:10959D0083C082900E78E0FFD082D08375F002EF09
:1095AD00121CBFE0FEA3E0FF900E79EEF0A3EFF0EA
:0B95BD0043E601900E79E0FEA3E0FF02
:0195C8002280
:107A1700900CF7EFF0900CF8ECF0A3EDF0900CFA67
:107A2700EBF0A3EAF0A3E9F053E6FE900CF7E0FFD2
:107A37007E00900CF8E0FCA3E0FDC3ED9FFFEC9EF9
:107A4700FEEF2401FFEE3400FEEF25E0FFEE33FEEC
:107A5700C006C007900CF7E0FF7E02EF8EF0A4FF90
:107A6700AEF090098BE0FCA3E0FDEF2DFFEE3CFEAE
:107A7700AA06A9077B01C003C002C001900CFAE067
:107A8700FBA3E0FAA3E0F9A801AC02AD03D001D053
:0E7A970002D003D007D00612192543E60122C3
:1098EF00900CFDEBF0A3EAF0A3E9F053E6FE90092C
:1098FF0088E0FF900CFDE0FBA3E0FAA3E0F9EF1284
:10990F0019E6900989E0FF900D00E0FBA3E0FAA3B0
:0A991F00E0F9EF1219E643E6012219
:109F3500900925E0FFC374019FFF900925EFF0907C
:109F45000925E0FF7E31EF8EF0A4FFAEF074262FD9
:089F5500F974093EFA7B0122B8
:06A61A00900920E0FF2280
:108F6D00900EB7E4F0900EB8E4F07B017A0E79B76D
:108F7D00C003C002C0017B017A0E79B8900D00EBE1
:108F8D00F0A3EAF0A3E9F0D001D002D0031298EFDC
:108F9D00900EB7E0FFEF600B90098AE0FFEFD394DE
:0E8FAD0005400990098AE004F07F01227F0050
:018FBB002293
:0A66F40042024B000042024D025327
:109F5D0090028A7437F090028AE0FFEF24FEFF90A2
:109F6D00028CEFF07BFF7A2D79AF1289CB90024FE7
:089F7D00EFF090028EE4F022E7
:103B08007F0A7E00129FFD900C2FE4F0900C2FE0AE
:103B1800FFEFC394084003023D94900C2FE0FF9000
:103B2800028AE0FB7D007C00125386EF70EC900C5B
:103B38002FE0FF7E37EF8EF0A4FFAEF074902FF9E0
:103B480074023EFA7B01900C2FE0FF90028AE0FE9F
:103B5800900D65EEF0127EE9EF640460D1900C2FB1
:103B6800E0FF7E37EF8EF0A4FFAEF074902FF9746B
:103B7800023EFA7B0190028CE0FD128AA1900C367D
:103B8800EEF0A3EFF0900C2FE0FF75F037EFA424D0
:103B9800C5F582E5F03402F583E0FEA3E0FF900C62
:103BA80036E0FCA3E0FDEDB50713ECB5060F900C6D
:103BB80036E0FEA3E0FFEF4E6003023D6D900C2F50
:103BC800E0FF90028AE0FB7D007C01125386EF70D3
:103BD800EC900C2FE0FF7E37EF8EF0A4FFAEF07470
:103BE800902FF974023EFA7B01900C2FE0FF9002AF
:103BF8008AE0FE900D65EEF0127EE9EF640460D174
:103C0800900C2FE0FF7E37EF8EF0A4FFAEF074909B
:103C18002FF974023EFA7B0190028CE0FD128AA112
:103C2800900C36EEF0A3EFF0900C2FE0FF75F03714
:103C3800EFA424C5F582E5F03402F583E0FEA3E0A5
:103C4800FF900C36E0FCA3E0FDED6F7002EC6E60B7
:103C580003023D8B900C36E0FEA3E0FFEF4E7003AD
:103C6800023D8B90028AE0FF900C30EFF0900C320E
:103C7800E4F0A3E4F0900C2FE0FF75F037EFA424F4
:103C880090F582E5F03402F583AF82AE83900C3470
:103C9800EEF0A3EFF0900C30E0FFEFD39400500368
:103CA800023D4D900C2FE0FF12879CEF70F59002BB
:103CB80052E0FF129DA6EF640460F3900C32E0FE20
:103CC800A3E0FF7E00EF540FFFC374109FFF900C1A
:103CD80031EFF0900C2FE0FF900C32E0FCA3E0FDF8
:103CE800900C34E0FAA3E0FBA9037B01900C31E0CF
:103CF800FE900BF8EEF01247B9EF70D7900252E041
:103D0800FF129DA6EF640460F3900C30E0FF900C66
:103D180031E0FEC3EF9EFF900C30EFF0900C31E0E5
:103D2800FF7E00900C33E02FF0900C32E03EF090D4
:103D38000C31E0FF7E00900C35E02FF0900C34E061
:103D48003EF0023C9D90028EE0FF900C2FE0FE7446
:103D580001A806088002C333D8FCFEEF4EFF90028C
:103D68008EEFF0801E90028EE0FF900C2FE0FE7424
:103D780001A806088002C333D8FCFEEF4EFF90026C
:103D88008EEFF0900C2FE004F0023B1490028EE0CE
:063D9800FFEF64FF602D47
:103D9E00900C3874E5F090028EE0FF900C39EFF045
:103DAE007B017A0C7938900C287401F0900C29E480
:0D3DBE00F0900C2AE4F07D027C00124063BE
:013DCB0022D5
:1084D700900D3EEEF0A3EFF0900D40EBF0A3EAF025
:1084E700A3E9F090028AE0FF7E00C006C007900D66
:1084F7003EE0FEA3E0FF7C007D37121A1A74902F2E
:10850700F974023EFA7B01C003C002C001900D401E
:10851700E0FBA3E0FAA3E0F9A801AC02AD03D001A8
:10852700D002D003D007D006121925900D3EE0FEE9
:10853700A3E0FF7401A807088002C333D8FCFF90AB
:08854700028EE0FEEF5EFF2250
:1078F900900D03EFF0900D04EDF0900D05EBF09075
:107909000D03E0FF900250EFF0900D04E0FF9002AC
:1079190051EFF0900D05E0FF900252EFF090028CCC
:10792900E0FF7E00900D06E0FBA3E0FAA3E0F9C0BA
:1079390003C002C0017B017A027953A801AC02ADF0
:1079490003D001D002D003121925900D06E0FBA344
:10795900E0FAA3E0F990028CE0FD128AA190028876
:10796900EEF0A3EFF0900448E4F090028DE4F0907B
:0F797900028BE4F090028AE0FF90028FEFF02281
:052DAF009009F3EFF0B4
:102DB4009009F3E0FFEF121CCB2DDF002DF6012E5E
:102DC4000F022E73032F28042F48052FB7062FD781
:102DD4000730B508310F090000315A900252E0FF64
:102DE40012879CEF70067F01129A0F227F00129ABD
:102DF4000F22900252E0FF129DA6EF640460067F4A
:102E040002129A0F227F01129A0F2290028FE0FF82
:102E1400EFD39410401A90024BE0FEA3E0FF7E0033
:102E2400EF540FFFC374109FFF9009F4EFF0800A72
:102E340090028FE0FF9009F4EFF0900252E0FF90CF
:102E4400024BE0FCA3E0FD90024DE0FAA3E0FBA9F5
:102E5400037B019009F4E0FE900BF8EEF01247B901
:102E6400EF70067F03129A0F227F02129A0F2290AC
:102E74000252E0FF129DA6EF64047003022F227F2A
:102E84000A7E00129FFD9009F4E0FF7E0090024C40
:102E9400E02FF090024BE03EF090028FE0FF9009AB
:102EA400F4E0FEC3EF9EFF90028FEFF09009F4E090
:102EB400FF7E0090024EE02FF090024DE03EF09035
:102EC400028FE0FFEFD3940040067F00129A0F2296
:102ED40090028AE0FF7E0090024BE0FCA3E0FDC379
:102EE400ED9FFFEC9EFEEF4E701090024B7401F0CC
:102EF400A3E4F07F00129A0F800D90024BE4F0A33C
:102F0400E4F07F04129A0F90028AE0FF90028FEFA0
:102F1400F07E027F5390024DEEF0A3EFF0227F0388
:102F2400129A0F22900252E0FF90028AE0FB7D0089
:102F34007C00125386EF70067F05129A0F227F04DD
:102F4400129A0F22900252E0FF7B017A0979F590E0
:102F5400028AE0FE900D65EEF0127EE9EF640460F3
:102F64004C7B017A0979F590028CE0FD128AA190DC
:102F74000A2AE0FCA3E0FDEFB5050AEEB504067FDE
:102F840006129A0F22900448E0FFEF601490028B1F
:102F9400E0FFEF4401FF90028BEFF07F06129A0FDF
:102FA400229004487401F07F00129A0F227F0512C8
:102FB4009A0F22900252E0FF90028AE0FB7D007C8F
:102FC40001125386EF70067F07129A0F227F0612B2
:102FD4009A0F22900252E0FF7B017A0979F5900260
:102FE4008AE0FE900D65EEF0127EE9EF6404700352
:102FF4000230AF7B017A0979F590028CE0FD128AE8
:10300400A1900A2AE0FCA3E0FDEF6D7002EE6C7063
:103014006990028AE0FF7E00C006C0077B017A0245
:103024007953C003C002C001900252E0FF7E37EF23
:103034008EF0A4FFAEF074902FF974023EFA7B0177
:10304400A801AC02AD03D001D002D003D007D00652
:10305400121925900A2AE0FEA3E0FF900252E0FD37
:1030640075F037EDA424C5F582E5F03402F583EE5E
:10307400F0A3EFF07F08129A0F2290028DE0FFEF89
:10308400601490028BE0FFEF4402FF90028BEFF09C
:103094007F08129A0F2290024B7401F0A3E4F0907F
:1030A400028D7401F07F00129A0F227F07129A0F8B
:0130B40022F9
:1030B500900A2C74C8F0900A2D7488F0900A2EE4BA
:1030C500F07B017A0A792C900250E0FF900C28EFF2
:1030D500F0900251E0FF900C29EFF0900C2A74015A
:1030E500F07D037C00124063EF701990028BE0FFC6
:1030F500EF700B7F00129A0F7FFF129803227F0952
:09310500129A0F227F08129A0FA2
:01310E00229E
:10310F00900A2C74E6F0900252E0FF900A2DEFF037
:10311F0090028BE0FF900A2EEFF07B017A0A792C58
:10312F00900C287401F0900C29E4F0900C2AE4F034
:10313F007D037C00124063EF700B7F00129A0F7FAC
:0A314F00FF129803227F09129A0F65
:06315900227F00129A0F14
:01315F00224D
:06A6200090024FE0FF2252
:1066FE0044058640C0000044048F41F0000042046F
:08670E00880001420494000020
:1049400090048DE4F090058BE4F0900486E4F0A3ED
:10495000E4F090044BE4F0A37496F090048AE4F041
:10496000A37496F0900584E4F0A37496F090048309
:10497000E4F0A37496F0900482E4F0900583E4F0F0
:1049800090058CE4F0A3E4F0900497E4F0900488A0
:10499000E0FCA3E0FDEC1216B6900586E0F8A3E07B
:1049A000F9A3E0FAA3E0FB12150B1216EF900494A2
:1049B000EEF0A3EFF0900493E4F0900EDEE4F090BC
:1049C0000EDEE0FFEFC3940D507C900EDEE0FFEFB3
:1049D000C454F024B4F582E43404F583E4F0A3E491
:1049E000F0900EDEE0FFEFC454F024B2F582E43420
:1049F00004F583E4F0A3E4F0900EDEE0FFEFC4548E
:104A0000F024B6F582E43404F583E4F0A3E4F090F6
:104A10000EDEE0FFEFC454F024B8F582E43404F570
:104A200083E4F0A3E4F0900EDEE0FFEFC454F02442
:104A3000BAF582E43404F583E4F0A3E4F0900EDEEA
:104A4000E004F00249BF7E007F1A7D007B017A04FA
:104A50007998121D557BFF7A7279561289CB900492
:104A600085EFF07BFF7A89795E1289CB90048EEF17
:104A7000F07BFF7A38790F1289CB90058AEFF0909E
:104A8000048EE0FF7D0012978990058AE0FF7D008B
:104A900012978990058AE0FF7D107C27126B7312B4
:0D4AA000A57790044AE4F090044D7403F0F3
:014AAD0022E6
:10A37200900EDFEFF0900EDFE0FF90048DEFF09093
:0EA38200058B7401F0900486E4F0A3E4F02251
:10004E00900E7BEFF0900E7CECF0A3EDF0900E7C1A
:10005E00E0FEA3E0FF900E7BE0FDEDC454F024B66D
:0D006E00F582E43404F583EEF0A3EFF022F8
:1055AD00900B74EFF0900B75EDF0900B76EBF0A384
:0555BD00EAF0A3E9F093
:1055C200900B74E0FF900B85EFF0900B86E4F09067
:1055D2000B75E0FF900B85E0FEEEC39F5045900BEC
:1055E20076E0FBA3E0FAA3E0F9900B86E0FF75F00A
:1055F20002EFA4F58285F083121B0EFFAEF0900B32
:1056020085E0FDEDC454F024B6F582E43404F5835C
:10561200EEF0A3EFF0900B85E004F0900B86E0042F
:10562200F080AC900B79E0FEA3E0FF90048AEEF0EC
:10563200A3EFF0900B7BE0FEA3E0FF90044BEEF0B3
:10564200A3EFF0900B7DE0FEA3E0FF900483EEF069
:10565200A3EFF0900B7FE0FEA3E0FF900584EEF055
:10566200A3EFF0900B81E0FEA3E0FFC3EF9401EE05
:10567200940050067E007F018008900B81E0FEA31B
:10568200E0FF900B81EEF0A3EFF0900B83E0FF9030
:10569200044DEFF0900488E0FCA3E0FD900B81E064
:1056A200FEA3E0FF121A1A900494EEF0A3EFF0901A
:0956B2000B84E0FF90044AEFF0C4
:0156BB0022CC
:0B8B6300900DC1EBF0A3EAF0A3E9F0D5
:108B6E0012446A900DC4E4F0900DC4E0FFEFC3947C
:108B7E000D503F900DC4E0FFEFC454F024B4F582C5
:108B8E00E43404F583E0FEA3E0FF900DC1E0FBA307
:108B9E00E0FAA3E0F9900DC4E0FD75F002EDA4F546
:108BAE008285F083EE8FF0121B65900DC4E004F009
:028BBE0080B67F
:018BC0002292
:10854F00900CAFEFF0900CB0EDF0900CB1EBF0A3FE
:05855F00EAF0A3E9F0C1
:10856400900CAFE0FF900CB4EFF0900CB5E4F090F9
:108574000CB0E0FF900CB4E0FEEEC39F5044900CAE
:10858400B1E0FBA3E0FAA3E0F9900CB5E0FF75F0CD
:1085940002EFA4F58285F083121B0EFFAEF0900C5F
:1085A400B4E0FDED25E02498F582E43404F583EE8F
:1085B400F0A3EFF0900CB4E004F0900CB5E004F0FC
:0285C40080AD88
:0185C6002292
:109AB500900E7EEBF0A3EAF0A3E9F07B017A04793E
:109AC50098C003C002C001900E7EE0FBA3E0FAA39C
:109AD500E0F9A801AC02AD03D001D002D0037E00AD
:069AE5007F1A1219252270
:10A2DA00900EB9EFF0900EBAEDF0900EB9E0FF9043
:0FA2EA000582EFF0900EBAE0FF90048CEFF022A7
:0561C600900EBBEFF09C
:1061CB00900EBBE0FFEF121CCB61DB000000629A6C
:1061DB0090058BE0FFEF6401600302627890058B02
:1061EB00E4F090048DE0FFEF6401707812446A9044
:1061FB000EBCE4F0900EBCE0FFEFC394085055903A
:10620B000EBCE0FFEFC454F024B4F582E43404F583
:10621B0083E0FEA3E0FF900EBCE0FDEDC454F02440
:10622B00B8F582E43404F583EEF0A3EFF0900EBCE6
:10623B00E0FF7E10EF8EF0A4FFAEF074BE2FF9746A
:10624B00043EFA7B017D007C00129360900EBCE053
:10625B0004F080A07FFF12980390048CE0FF7D0177
:10626B001297892212A5777F00129A0F2290048D24
:10627B00E0FFEFB4011312446A7FFF1298039004FE
:10628B008CE0FF7D01129789227F00129A0F227FEB
:04629B0000129A0F44
:01629F0022DC
:05316000900D09EFF0E5
:10316500900D09E0FFEF121CCB31780134B9020054
:103175000034C912760B900D0BEEF0A3EFF0900D15
:103185000AE4F0900D0AE0FFEFC3940D400302340A
:10319500A7900D0AE0FFEFC3940840030232CC90DC
:1031A5000D0AE0FFEFC454F024B6F582E43404F5CB
:1031B50083E0FEA3E0FF900D0AE0FDEDC454F0248A
:1031C500B4F582E43404F583E0FCA3E0FDD3ED9F80
:1031D500EC9E50030232CC900D0AE0FF7E10EF8E7C
:1031E500F0A4FFAEF074BE2FF974043EFA7B011211
:1031F5008D7EEF640160030232CC900D0AE0FF7E04
:1032050010EF8EF0A4FFAEF074BE2FF974043EFAF1
:103215007B01C003C002C001900488E0FEA3E0FF6B
:103225007C037DE8121A1A7C007D0A121A81AC060D
:10323500AD07D001D002D003129360900D0AE0FFD4
:10324500EFC454F024B8F582E43404F583E0FEA31A
:10325500E0FF900494E0FCA3E0FDC3EF9DFFEE9C2E
:10326500FE900D0DEEF0A3EFF0900D0AE0FFEFC418
:1032750054F024B6F582E43404F583E0FEA3E0FFC0
:10328500900D0DE0FCA3E0FDD3ED9FEC9E400A9070
:103295000D0DE0FEA3E0FF8017900D0AE0FFEFC4DF
:1032A50054F024B6F582E43404F583E0FEA3E0FF90
:1032B500900D0AE0FDEDC454F024B8F582E4340421
:1032C500F583EEF0A3EFF0900D0AE0FFEFC454F0A4
:1032D50024B6F582E43404F583E0FEA3E0FFEF4E67
:1032E50070030233EA900D0AE0FFEFC454F024B4F2
:1032F500F582E43404F583E0FEA3E0FFC3EF94D246
:10330500EE940F40030233EA900D0AE0FFEFC394F9
:1033150008400302339D900D0AE0FFEFC454F024EA
:10332500B4F582E43404F583E0FEA3E0FF900D0AD2
:10333500E0FDEDC454F024B8F582E43404F583E0EF
:10334500FCA3E0FDC3ED9FEC9E5041900D0AE0FF0C
:10335500EFC454F024B4F582E43404F583E0FEA30D
:10336500E0FF900D0AE0FDEDC454F024B6F582E4CB
:103375003404F583E0FCA3E0FDC3ED9FEC9E500C07
:10338500900D0AE0FF7D01127E648063900D0AE0D6
:10339500FF7D00127E648057900D0AE0FFEFC45454
:1033A500F024B4F582E43404F583E0FEA3E0FF9055
:1033B5000D0AE0FDEDC454F024B6F582E43404F5BD
:1033C50083E0FCA3E0FDC3ED9FEC9E500C900D0A3D
:1033D500E0FF7D01127E648016900D0AE0FF7D00FE
:1033E500127E64800A900D0AE0FF7D00127E6490D3
:1033F5000D0AE0FFEFC3940850361288EFEF7030E6
:10340500900D0AE0FFEFC454F024B4F582E43404CF
:10341500F583E0FEA3E0FF900D0BE0FCA3E0FDC308
:10342500EF9DEE9C500A900D0AE0FF7D00127E6430
:10343500900D0AE0FFEFC454F024B4F582E434049F
:10344500F583E0FEA3E0FFD3EF94D2EE940F502076
:10345500900D0AE0FFEFC454F024B4F582E434047F
:10346500F583E0FEA3E0FFC3EF9464EE94005029DA
:1034750090044AE0FFEF6017900D0AE0FFEFC39458
:1034850008500C900D0AE0FF7D00127E64800A90C2
:103495000486E4F0A3E4F08009900D0AE004F0024C
:1034A500318812A4EF7F02129A0F7DAA7C007FFF5C
:1034B500126B73227FFF129803900582E0FF7D0057
:0934C500129789227F01129A0F6F
:0134CE0022DB
:10446A00900DC6E4F0900DC7E4F0900DC8E4F01288
:10447A00A61AEF7003228003127106900482E0FFED
:10448A00EFC39404500C900482E004F0900DC774BA
:10449A0001F0900583E0FFEFC39428500C90058348
:1044AA00E004F0900DC87401F0900DC5E4F0900D91
:1044BA00C5E0FFEFC3940D400302461C900DC5E012
:1044CA00FFEFC454F024B4F582E43404F583E0FE2B
:1044DA00A3E0FF900DC5E0FDED25E02468F582E438
:1044EA003404F583E0FCA3E0FDC3ED9FFFEC9EFEE0
:1044FA0012A5BFD3EF9400EE648094904003D3805A
:10450A0001C350030245C3900DC7E0FFEF7042900C
:10451A000DC5E0FFEFC454F024B2F582E43404F58B
:10452A0083C083C082E0FEA3E0FF900DC5E0FDEDED
:10453A00C454F024B4F582E43404F583E0FCA3E027
:10454A00FDC3EF9DFFEE9CFED082D083EEF0A3EF79
:10455A00F0900DC5E0FFEF25E02468F582E434040D
:10456A00F583E0FEA3E0FF900DC5E0FDEDC454F035
:10457A0024B2F582E43404F583EE8FF0121AB79070
:10458A000482E0FFEFFD7C00900DC5E0FFEFC4540C
:10459A00F024B2F582E43404F583E0FEA3E0FF12CE
:1045AA001A2C900DC5E0FDEDC454F024B4F582E454
:1045BA003404F583EEF0A3EFF0900DC5E0FFEFC4ED
:1045CA0054F024B4F582E43404F583E0FEA3E0FF5A
:1045DA00900DC5E0FDED25E02468F582E43404F58C
:1045EA0083E0FCA3E0FDC3ED9FFFEC9EFE12A5BF96
:1045FA00D3EF9464EE64809480400E900DC8E0FF7F
:10460A00EF7006900DC67401F0900DC5E004F0023B
:02461A0044B8A2
:01461C00227B
:107106007F00129588900468EEF0A3EFF07F0112DD
:10711600958890046AEEF0A3EFF07F0212958890AE
:10712600046CEEF0A3EFF07F0312958890046EEEE8
:10713600F0A3EFF07F04129588900470EEF0A3EFB1
:10714600F07F05129588900472EEF0A3EFF07F06AB
:10715600129588900474EEF0A3EFF07F07129588DD
:10716600900476EEF0A3EFF07F08129588900478ED
:10717600EEF0A3EFF07F0912958890047AEEF0A363
:10718600EFF07F0A12958890047CEEF0A3EFF07F73
:107196000B12958890047EEEF0A3EFF07F15129502
:0A71A60088900480EEF0A3EFF022C1
:0A7E6400900DC9EFF0900DCAEDF08B
:107E6E00900DCBE4F0A37401F0900DCAE0FFEF602B
:107E7E0032900486E0FCA3E0FD900DCBE0FEA3E083
:107E8E00FF900DC9E0FBEFA803088005C333CE3386
:107E9E00CED8F9FFEC4EFEED4FFF900486EEF0A328
:107EAE00EFF022900486E0FCA3E0FD900DCBE0FE07
:107EBE00A3E0FF900DC9E0FBEFA803088005C333D4
:107ECE00CE33CED8F9FFEFF4FFEEF4FEEC5EFEED0E
:0A7EDE005FFF900486EEF0A3EFF0C2
:017EE8002277
:10A4EF00900486E0FEA3E0FF90058CEEF0A3EFF062
:07A4FF009004977401F022A4
:0FA5770090058CE4F0A3E4F09004977401F022B7
:0B461D00900BBAEBF0A3EAF0A3E9F069
:1046280012446A900BC3E4F0900BC3E0FFEFC3940D
:104638000D40030247B6900BC3E0FFEFC394085048
:104648002290044BE0FEA3E0FF900BC4EEF0A3EF32
:10465800F090048AE0FEA3E0FF900BC6EEF0A3EF13
:10466800F08020900584E0FEA3E0FF900BC4EEF0FC
:10467800A3EFF0900483E0FEA3E0FF900BC6EEF0FA
:10468800A3EFF0900BC3E0FFEFC454F024B6F5821B
:10469800E43404F583E0FEA3E0FF900BC4E0FCA340
:1046A800E0FDC3EF9DFFEE9CFE900BC3E0FDEDC463
:1046B80054F024B4F582E43404F583E0FCA3E0FD6F
:1046C800C3ED9FEC9E4046900BC3E0FFEFC454F04F
:1046D80024B6F582E43404F583E0FEA3E0FF900BF2
:1046E800C6E0FCA3E0FDEF2DFFEE3CFE900BC3E01F
:1046F800FDEDC454F024B4F582E43404F583E0FC01
:10470800A3E0FDD3ED9FEC9E50030247AD900BC391
:10471800E0FF900BBAE0FBA3E0FAA3E0F9EF12196F
:10472800E6900BC3E0FFEFC454F024B4F582E43400
:1047380004F583E0FEA3E0FF900BBDE0FBA3E0FAE5
:10474800A3E0F9EE8FF0121B46900BC3E0FFEFC415
:1047580054F024B6F582E43404F583E0FEA3E0FFC8
:10476800900BC4E0FCA3E0FDC3EF9DFFEE9CFE9020
:104778000BC3E0FDEDC454F024B4F582E43404F531
:1047880083E0FCA3E0FDC3ED9FEC9E50047F018015
:10479800027F02900BC0E0FBA3E0FAA3E0F9EF125E
:1047A80019E67F0022900BC3E004F00246307F0137
:0147B80022DE
:05725600900AE8EFF0D2
:10725B00900AE974E8F07B017A04794EC003C0020E
:10726B00C0017B017A0A79EAA801AC02AD03D00117
:10727B00D002D0037E007F1A1219257B017A0A797E
:10728B00EAC003C002C0017B017A0A79EA900C02C2
:10729B00EBF0A3EAF0A3E9F0900C05E4F0A3740D76
:1072AB00F0D001D002D003125B96900449E0FF901E
:1072BB000B04EFF0900496E0FF900B05EFF07B01D1
:1072CB007A0A79E9900C287401F0900C29E4F0907B
:1072DB000C2AE4F07D1D7C00124063EF70067FFFEB
:0C72EB0012980322900AE8E0FF129A0FAC
:0172F7002274
:05895E00900DCDEFF0CB
:10896300900DCDE0FFEF121CCB89760089B1010099
:108973000089C5900497E0FFEF602D900DCE7460E1
:10898300F090058CE0FEA3E0FF900DCFEEF0A3EF97
:10899300F07B017A0D79CE12644DEF700B90049742
:1089A300E4F07F01129A0F227F00129A0F2212A382
:1089B30018EF640360067F00129A0F227F01129A58
:0789C3000F227F00129A0F42
:0189CA00228A
:10760B00900DD27402F0900534E0FEA3E0FF900DD4
:10761B00D3EEF0A3EFF0900DD17409F0900DD1E003
:10762B00FFEFC3940C5067900DD2E0FF7E00EF2468
:10763B00FFFFEE34FFFE900DD2E0FD7C00121A2C02
:10764B00900DD3E0FCA3E0FD121A1AAA06AB07902B
:10765B000DD2E0FFEFFD7C00900DD1E0FFEFC454A5
:10766B00F024B4F582E43404F583E0FEA3E0FF12CA
:10767B001A2CEB2FFFEA3EFE900DD3EEF0A3EFF0AA
:10768B00900DD1E004F0900DD2E004F0808E900DBF
:09769B00D3E0FEA3E0FF124D71E3
:0176A40022C3
:084D7100900C7AEEF0A3EFF0C4
:104D7900900C7E121C8E00000000900C7CE4F0A3C5
:104D8900E4F0900BE8121C8EC08000007F007E00CA
:104D99007D207C41124AAE7B007A00790078C112ED
:104DA900150BC004C005C006C007900C7AE0FCA32F
:104DB900E0FDE41216B6A804A905AA06AB07D007B8
:104DC900D006D005D00412150B900BE8121C827F77
:104DD900A17EF87D2D7C40124AAE7B487AE179EFBD
:104DE900784212150B900C7E121C82900C7EE0FC0E
:104DF900A3E0FDA3E0FEA3E0FFC004C005C006C018
:104E090007900BE8121C8E40000000D007D006D096
:104E190005D004124AAE7B237ADB79F9783E121564
:104E29000BC004C005C006C007900C7EE0FCA3E0DF
:104E3900FDA3E0FEA3E0FFC004C005C006C00790C3
:104E49000BE8121C8E40400000D007D006D005D0D8
:104E590004124AAE7B277AA07989783B12150BD0C8
:104E690003D002D001D000121416C004C005C00638
:104E7900C0077F4A7E0C7DDA7C41900C7EE0F8A366
:104E8900E0F9A3E0FAA3E0FB12150BA804A905AA0F
:104E990006AB07D007D006D005D0041214167B9AAA
:104EA9007A1D7982784512141A1216EF900C7CEE4D
:0C4EB900F0A3EFF0900C7CE0FEA3E0FF03
:014EC50022CA
:1088EF00900EBE7401F0900EBD7408F0900EBDE0B6
:1088FF00FFEFC3940C5052900EBDE0FFEFC454F045
:10890F0024B6F582E43404F583E0FEA3E0FF90047F
:10891F0083E0FCA3E0FDEF2DFFEE3CFE900EBDE0EB
:10892F00FDEDC454F024B4F582E43404F583E0FC87
:10893F00A3E0FDD3ED9FEC9E4007900EBEE4F080C8
:0E894F0008900EBDE004F080A3900EBEE0FF85
:01895D0022F7
:05380F00900DD5EFF063
:1038140090044974FFF0900DD5E0FFEF121CCB38F3
:10382400360038AB01391202397B033A9F04000099
:103834003B0712A61AEF70067F00129A0F2212712C
:1038440006900DD6E4F0900DD6E0FFEFC394085037
:103854003D900DD6E0FFEF25E02468F582E43404C2
:10386400F583E0FEA3E0FF7C007D0A121A2C900D84
:10387400D6E0FDEDC454F024BAF582E43404F583B3
:10388400EE8FF0121AB7900DD6E004F080B89004D1
:1038940093E004FFF0EFC3940A40067F01129A0FED
:1038A400227F00129A0F22900493E4F0900DD6E444
:1038B400F0900DD6E0FFEFC39408504D900DD6E084
:1038C400FFEFC454F024BAF582E43404F583E0FE37
:1038D400A3E0FF900DD6E0FDEDC454F024BCF582C6
:1038E400E43404F583EEF0A3EFF0900DD6E0FFEF9F
:1038F400C454F024BAF582E43404F583E4F0A3E478
:10390400F0900DD6E004F080A87F02129A0F127195
:1039140006900DD6E4F0900DD6E0FFEFC394085066
:103924003D900DD6E0FFEF25E02468F582E43404F1
:10393400F583E0FEA3E0FF7C007D0A121A2C900DB3
:10394400D6E0FDEDC454F024BAF582E43404F583E2
:10395400EE8FF0121AB7900DD6E004F080B8900400
:1039640093E004FFF0EFC3940A40067F03129A0F1A
:07397400227F02129A0F22CC
:10397B00900DD6E4F0900DD6E0FFEFC39408400312
:10398B00023A6E900DD6E0FFEFC454F024BCF582E2
:10399B00E43404F583E0FEA3E0FF900DD6E0FDEDEB
:1039AB00C454F024BAF582E43404F583E0FCA3E0BC
:1039BB00FDC3ED9FFFEC9EFE900DD7EEF0A3EFF055
:1039CB0090044DE0FF7E19EF8EF0A4FFAEF0C3E440
:1039DB009FFFE49EFE900DD7E0FCA3E0FDC3ED9F9F
:1039EB00EE6480F8EC648098402390044DE0FF7EF9
:1039FB0050EF8EF0A4FFAEF0900DD7E0FCA3E0FDEE
:103A0B00D3ED9FEE6480F8EC648098404D900DD61A
:103A1B00E0FF900449EFF0900DD7E0FEA3E0FF121A
:103A2B00A5BF90044DE0FD7C00121A81900DD7EEDE
:103A3B00F0A3EFF0900DD7E0FEA3E0FFD3EF94FFE0
:103A4B00EE6480948040047FFF8008900DD7E0FEE9
:103A5B00A3E0FF900496EFF08009900DD6E004F000
:103A6B00023980900449E0FFEFB4FF237F01129AE3
:103A7B000F90044DE0FF7E007C037DE8121A1AEFD5
:103A8B00249CFDEE34FFFC7FFF126B732280057FBD
:043A9B0004129A0F68
:103A9F0012A5777F0012A372900485E0FF12A3E8AE
:103AAF00EF60067F04129A0F227B017A047968C0B7
:103ABF0003C002C0017B017A04794EA801AC02ADAC
:103ACF0003D001D002D0037E007F1A121925900473
:103ADF0085E0FF7D001297897F01129A0F90044DA8
:103AEF00E0FF7E007C037DE8121A1AEF249CFDEEA6
:083AFF0034FFFC7FFF126B7322
:013B0700229B
:107F6E00900BCBE4F0A3E4F0900BC8E4F0900BD5AB
:107F7E00E4F012A1D0EF70FA12A094EF70FA900E06
:107F8E00817404F0900E82E4F0A3E4F07B017A0E8B
:107F9E00798112644DEF70F412A318EFB401F990C9
:107FAE000E817470F0900E82E4F0A3E4F07B017AFF
:107FBE000E798112644DEF70F412A318EFB401F92B
:107FCE00900E81742BF0900E82E4F0A3E4F07B010E
:107FDE007A0E798112644DEF70F412A318EFB4018A
:017FEE00F999
:017FEF00226F
:10A1D000900E847410F0900E85E4F0A37401F07B6F
:10A1E000017A0E798412644DEFB402037F02227F5C
:01A1F000006E
:01A1F100224B
:10A1F200900E877411F0900E88E4F0A37401F07B46
:10A20200017A0E798712644DEFB402037F02227F36
:01A21200004B
:01A213002228
:089C5400900D43EEF0A3EFF0C8
:109C5C00900D457401F0900D43E0FEA3E0FF900DD4
:109C6C0046EEF0A3EFF07B017A0D794512644DEFCF
:089C7C00B402037F02227F0005
:019C840022BD
:0D992900900D0FEFF0900D10ECF0A3EDF09D
:10993600900D0FE0FF900D12EFF0900D10E0FEA3DA
:10994600E0FF900D13EEF0A3EFF07B017A0D791294
:0C99560012644DEFB402037F02227F0078
:0199620022E2
:089C8500900D48EEF0A3EFF092
:109C8D00900D4A7402F0900D48E0FEA3E0FF900D98
:109C9D004BEEF0A3EFF07B017A0D794A12644DEF94
:089CAD00B402037F02227F00D4
:019CB500228C
:069B2000900CB6121C823D
:109B2600900CBA7440F0900CB6E0FCA3E0FDA3E004
:109B3600FEA3E0FF900CBBEEF0A3EFF07B017A0CE6
:0E9B460079BA12644DEFB402037F02227F0051
:019B540022EE
:0EA5B1007F01127AA5EF70037F00227F022245
:10A21400900E8A7403F0900E8BE4F0A37401F07B2B
:10A22400017A0E798A12644DEFB402037F02227F11
:01A234000029
:01A235002206
:10A27900900E8D7403F0900E8EE4F0A3E4F07B0150
:10A289007A0E798D12644DEFB402037F02227F00AA
:01A2990022A2
:059E3000900DD9EFF0D8
:109E3500900DDA7405F0900DD9E0FF7E00900DDBF2
:109E4500EEF0A3EFF07B017A0D79DA12644DEFB4F1
:079E550002037F02227F00DF
:019E5C0022E3
:089CB600900D4DEEF0A3EFF05C
:109CBE00900D4F7404F0900D4DE0FEA3E0FF900D5B
:109CCE0050EEF0A3EFF07B017A0D794F12644DEF59
:089CDE00B402037F02227F00A3
:019CE600225B
:059E5D00900DDDEFF0A7
:109E6200900DDE7470F0900DDDE0FF7E00900DDF4E
:109E7200EEF0A3EFF07B017A0D79DE12644DEFB4C0
:079E820002037F02227F00B2
:019E890022B6
:089CE700900D52EEF0A3EFF026
:109CEF00900D54740BF0900D52E0FEA3E0FF900D19
:109CFF0055EEF0A3EFF07B017A0D795412644DEF1E
:089D0F00B402037F02227F0071
:019D17002229
:089D1800900D57EEF0A3EFF0EF
:109D2000900D59740CF0900D57E0FEA3E0FF900DDC
:109D30005AEEF0A3EFF07B017A0D795912644DEFE2
:089D4000B402037F02227F0040
:019D480022F8
:030026007F002236
:10A0940012A318900EE0EFF0900EE0E0FFEF6403DF
:10A0A400600F900EE0E0FFEFB401037F00227F0217
:03A0B400227F0107
:01A0B7002286
:0B996300900D5CEBF0A3EAF0A3E9F02C
:10996E007B017A0D795F128B05EF6403601E900DFB
:10997E005FE0FEA3E0FF7E00900D5CE0FBA3E0FA4B
:0E998E00A3E0F9EE8FF0121B467F00227F014E
:01999C0022A8
:10880E00900C17EEF0A3EFF0900C19ECF0A3EDF036
:10881E00900C1BEAF0A3EBF0900C17E0FEA3E0FF28
:10882E00900BC9EEF0A3EFF0900C19E0FEA3E0FF61
:10883E00900BCBEEF0A3EFF0900C1BE0FEA3E0FF4D
:10884E00900BCDEEF0A3EFF0900C1DE0FCA3E0FD3D
:10885E00A3E0FEA3E0FF900BCF121C82900C21E050
:10886E00FF900BD3EFF0900C22E0FF900BD4EFF0C3
:01887E0022D7
:0527C000900C3AEFF05F
:1027C500900C3AE0FFEF121CCB283E00288B012825
:1027D5009D0228C90328DB04290705292E06295A45
:1027E5000729800829930929E20A29F50B2A230CD0
:1027F5002A360D2A6A0E2A7D0F2AC6102AD9112AD1
:10280500FF122B12132B38142B4B152B72162B85FD
:10281500172BC5182BD8192BEA1A2C231B2C351C62
:102825002C611D2C871E2CB41F2CC8202D0D212D8D
:0928350033222D5F2300002DA9C0
:10283E00900C4274C8F0900C437484F0900C44E4F5
:10284E00F07B017A0C7942900BD3E0FF900C28EFCD
:10285E00F0900BD4E0FF900C29EFF0900C2A74014D
:10286E00F07D037C00124063EF700C900BD5740169
:0D287E00F07F01129A0F227F00129A0F22A4
:10288B0012A1F2EF70067F02129A0F227F01129AA9
:10289B000F2212A094900C3BEFF0900C3BE0FFEF5B
:1028AB0064016014900C3BE0FFEF70067F03129AFB
:1028BB000F227F01129A0F227F02129A0F2212A26D
:1028CB0079EF70067F04129A0F227F03129A0F2260
:1028DB0012A094900C3BEFF0900C3BE0FFEF6401E7
:1028EB006014900C3BE0FFEF70067F05129A0F22ED
:1028FB007F03129A0F227F04129A0F22900C3D74C1
:10290B002BF0900C3EE4F0A37401F07B017A0C7970
:10291B003D12644DEF70067F06129A0F227F05124F
:10292B009A0F2212A094900C3BEFF0900C3BE0FF1F
:10293B00EF64016014900C3BE0FFEF70067F071211
:10294B009A0F227F05129A0F227F06129A0F22905E
:10295B000C3D7404F0900C3EE4F0A3E4F07B017AA0
:10296B000C793D12644DEF70067F08129A0F227F8F
:10297B0007129A0F2212A318EFB401067F0D129AB9
:10298B000F227F08129A0F22900C3D7435F0900B9A
:10299B00C9E0FEA3E0FFE4FCFD7B107A0079007830
:1029AB0000121B92A804A905AA06AB077F557EA0AF
:1029BB007DFC7C01129502900C3EEEF0A3EFF07BB8
:1029CB00017A0C793D12644DEF70067F0A129A0F53
:1029DB00227F09129A0F2212A318EFB401067F0B64
:1029EB00129A0F227F0A129A0F22900C3D7431F02B
:1029FB00900BCDE0FEA3E0FF900C3EEEF0A3EFF0CA
:102A0B007B017A0C793D12644DEF70067F0C129AA4
:102A1B000F227F0B129A0F2212A318EFB401067F1D
:102A2B0017129A0F227F0C129A0F22900C3D7438BA
:102A3B00F0900BCFE0FCA3E0FDA3E0FEA3E0FF9042
:102A4B000C3EEEF0A3EFF07B017A0C793D12644D56
:102A5B00EF70067F0E129A0F227F0D129A0F221221
:102A6B00A318EFB401067F0F129A0F227F0E129A52
:102A7B000F22900C3D7437F0900BCFE0FCA3E0FDE0
:102A8B00A3E0FEA3E0FFEF5400FFEE5400FEED5475
:102A9B00FFFDEC54FFFC7810121BEF900C3EEEF098
:102AAB00A3EFF07B017A0C793D12644DEF70067F3A
:102ABB0010129A0F227F0F129A0F2212A318EFB443
:102ACB0001067F11129A0F227F10129A0F22900C7F
:102ADB003D743AF0900C3EE4F0A3E4F07B017A0CE9
:102AEB00793D12644DEF70067F12129A0F227F11FF
:102AFB00129A0F2212A318EFB401067F13129A0F2A
:102B0B00227F12129A0F22900C3D7439F0900C3EDA
:102B1B00E4F0A3E4F07B017A0C793D12644DEF7085
:102B2B00067F14129A0F227F13129A0F2212A318E8
:102B3B00EFB401067F15129A0F227F14129A0F22FF
:102B4B00900C3D743BF0900C3EE4F0A37401F07BD1
:102B5B00017A0C793D12644DEF70067F16129A0FB5
:102B6B00227F15129A0F2212A318EFB401067F09C8
:102B7B00129A0F227F16129A0F22900C3D7404F0BA
:102B8B00900BCDE0FEA3E0FFEF4E700C900C3E746B
:102B9B0003F0A3743BF0800A900C3E7403F0A37413
:102BAB001BF07B017A0C793D12644DEF70067F1898
:102BBB00129A0F227F17129A0F2212A318EFB40149
:102BCB00067F19129A0F227F18129A0F2212A21443
:102BDB00EF70067F1A129A0F227F19129A0F221288
:102BEB00A094900C3BEFF0900C3BE0FFEF64016086
:102BFB0021900C3BE0FFEF70137F1B129A0F900B91
:102C0B00CBE0FCA3E0FD7FFF126B73227F19129ABE
:102C1B000F227F1A129A0F2212A279EF70067F1CD5
:102C2B00129A0F227F1B129A0F2212A094900C3B28
:102C3B00EFF0900C3BE0FFEF64016014900C3BE075
:102C4B00FFEF70067F1D129A0F227F1B129A0F2225
:102C5B007F1C129A0F22900C3D7404F0900C3EE4F2
:102C6B00F0A3E4F07B017A0C793D12644DEF700612
:102C7B007F1E129A0F227F1D129A0F2212A31890F9
:102C8B000C3CEFF0900C3CE0FFEF64036015900CF4
:102C9B003CE0FFEFB401067F1F129A0F227F1D123B
:102CAB009A0F227F1E129A0F227F04127AA5EF70C1
:102CBB00067F20129A0F227F1F129A0F227B017A16
:102CCB000C7940128B05900C3CEFF0900C3CE0FF24
:102CDB00EF64036027900C3CE0FFEFB40118900CFD
:102CEB0040E0FEA3E0FFEF4E70067F21129A0F2209
:102CFB007F1D129A0F227F1F129A0F227F20129A8A
:102D0B000F22900C3D742BF0900C3EE4F0A3E4F0FA
:102D1B007B017A0C793D12644DEF70067F22129A7B
:102D2B000F227F21129A0F2212A094900C3BEFF0EE
:102D3B00900C3BE0FFEF64016014900C3BE0FFEF65
:102D4B0070067F23129A0F227F21129A0F227F2265
:042D5B00129A0F2297
:102D5F00900C4274E4F0900BC8E0FF900C43EFF03E
:102D6F007B017A0C7942900BD3E0FF900C28EFF0A7
:102D7F00900C29E4F0900C2AE4F07D027C001240C4
:102D8F0063EF7010900BD5E4F07F00129A0F7FFF66
:0A2D9F00129803227F23129A0F22DC
:052DA9007F00129A0FEB
:012DAE002202
:06A62600900BD5E0FF22BD
:06A62C00900BC8E0FF22C4
:10A29A00900EBFEFF0900EC0EDF0900EBFE0FF9071
:10A2AA000EC0E0FD1274D6EF70037F00227F0222F7
:059D7800900EC1EFF0A8
:109D7D00900EC1E0FF129F85900EC2EFF0900EC2C3
:109D8D00E0FFEF6403600F900EC2E0FFEFB401033C
:089D9D007F00227F02227F01FA
:019DA500229B
:0599D600900DE1EFF02F
:1099DB00900DE27476F0900DE1E0FFEF600A900DD0
:1099EB00E3E4F0A3E4F08009900DE3E4F0A3740347
:1099FB00F07B017A0D79E212644DEFB402037F0222
:039A0B00227F00B7
:019A0E002235
:10A5570075840053D4F853D4E743D480758400221C
:109E8A00900EC3EEF0A3EFF0758400900EC3E0FECF
:109E9A00A3E0FFEF54FFF5D2900EC3E0FEA3E0FF6C
:0C9EAA007F00EEFF7E008FD37584002245
:10A5670075840153D4F853D4E743D480758400220B
:109EB600900EC5EEF0A3EFF0758401900EC5E0FE9E
:109EC600A3E0FFEF54FFF5D2900EC5E0FEA3E0FF3E
:0C9ED6007F00EEFF7E008FD37584002219
:0C00960090098D7402F090098EE4F022B5
:0D637800900C82EFF0900C83ECF0A3EDF0A0
:1063850012A5D6EFB401037F022290098D7404F0A3
:10639500900C83E0FEA3E0FF900C87EFF0900C8358
:1063A500E0FEA3E0FFEE5401FE7F00EF7803C33368
:1063B500CE33CED8F9FF900C86EFF0900C86E0FF37
:1063C500EF4403FF900C85EFF012A5F9AE02AF0183
:1063D500900C88EEF0A3EFF0900C85E0FF900C8810
:1063E500E0FCA3E0FD8D828C83EFF0900C87E0FF4D
:1063F500900C88E0FCA3E0FD8D828C83A3EFF090E8
:106405000C88E0FEA3E0FF8F828E83A3A3E4F0C295
:10641500B0900C82E0FF7D0112999D7B017A09798C
:106425008FC003C002C0017BFF7AA17944900C772D
:10643500EBF0A3EAF0A3E9F0D001D002D0037F038B
:076445007E001287297F0091
:01644C00222D
:10538600900C45EFF0900C46ECF0A3EDF0900C4835
:02539600EBF03A
:1053980012A5D6EFB401037F022290098D7404F0A0
:1053A800900C46E0FEA3E0FF900C4BEFF0900C460B
:1053B800E0FEA3E0FFEE5401FE7F00EF7803C33365
:1053C800CE33CED8F9FF900C4AEFF0900C4AE0FFAC
:1053D800EF4403FF900C49EFF012A5F9AE02AF01BC
:1053E800900C4DEEF0A3EFF0900C49E0FF900C4DBF
:1053F800E0FCA3E0FD8D828C83EFF0900C4BE0FF86
:10540800900C4DE0FCA3E0FD8D828C83A3EFF0901F
:105418000C4CE4F0900C48E0FF900C4CE0FEEEC31E
:105428009F502F900C4CE0FF7E00EF2402FFEE34DB
:1054380000FE900C4DE0FCA3E0FD8D828C83E5829C
:105448002FF582E5833EF583E4F0900C4CE004F000
:1054580080C2C2B0900C45E0FF7D0112999D900C6E
:1054680048E0FF7E00EF2402FFEE3400FE7B017A65
:1054780009798FC003C002C0017BFF7AA1794490EB
:105488000C77EBF0A3EAF0A3E9F0D001D002D00347
:055498001287297F00CE
:01549D0022EC
:105D6700900C59EFF0900C5AECF0A3EDF0900C5C0E
:025D7700EBF04F
:105D7900900C59E0FF7D0012999D90098D7404F0F3
:105D8900900C5AE0FEA3E0FF900C5FEFF0900C5AE4
:105D9900E0FEA3E0FFEE5401FE7F00EF7803C3337A
:105DA900CE33CED8F9FF900C5EEFF0900C5EE0FF99
:105DB900EF4402FF900C5DEFF012A5F9AE02AF01BE
:105DC900900C60EEF0A3EFF0900C5DE0FF900C609A
:105DD900E0FCA3E0FD8D828C83EFF0900C5FE0FF87
:105DE900900C60E0FCA3E0FD8D828C83A3EFF09022
:105DF9000C5CE0FF900C60E0FCA3E0FD8D828C83DD
:105E0900A3A3EFF090098EE4F0900C59E0FF7D0117
:105E190012999D7B017A09798FC003C002C0017B69
:105E2900FF7AA17944900C77EBF0A3EAF0A3E9F0AB
:0F5E3900D001D002D0037F037E001287297F00A3
:015E48002237
:1047B900900BF2EFF0900BF3ECF0A3EDF0900BF50A
:0847C900EBF0A3EAF0A3E9F014
:1047D100900BF2E0FF7D0012999D90098D7404F019
:1047E100900BF8E0FF7E00900BF3E0FCA3E0FDEFFF
:1047F1002DFFEE3CFEEF24FFFFEE34FFFEEEC4F88A
:1048010054F0C868FCEFC4540F48FD900BF3E0FE70
:10481100A3E0FFEEC4F854F0C868FEEFC4540F489B
:10482100FFD3ED9FEC9E40037F0322900BF3E0FE4C
:10483100A3E0FF900BFBEFF0900BF3E0FEA3E0FF92
:10484100EE5401FE7F00EF7803C333CE33CED8F9A7
:10485100FF900BFAEFF0900BFAE0FFEF4402FF90AC
:104861000BF9EFF012A5F9AE02AF01900BFDEEF0DE
:10487100A3EFF0900BF9E0FF900BFDE0FCA3E0FD4E
:104881008D828C83EFF0900BFBE0FF900BFDE0FC41
:10489100A3E0FD8D828C83A3EFF0900BFCE4F090FC
:1048A1000BF8E0FF900BFCE0FEEEC39F504A900B2B
:1048B100F5E0FBA3E0FAA3E0F9900BFCE0FF8F82A7
:1048C100758300121964FF900BFCE0FEEEFD7C0085
:1048D100ED2402FDEC3400FC900BFDE0FAA3E0FBBB
:1048E1008B828A83E5822DF582E5833CF583EFF0A7
:1048F100900BFCE004F080A790098EE4F0900BF29D
:10490100E0FF7D0112999D900BF8E0FF7E00EF24FE
:1049110002FFEE3400FE7B017A09798FC003C002E9
:10492100C0017BFF7AA17944900C77EBF0A3EAF008
:0E493100A3E9F0D001D002D0031287297F0045
:01493F002255
:05879C00900E90EFF0CB
:1087A10012A5D6EFB401037F022290098D7404F063
:1087B100D2B090098E7401F012A5F9AE02AF01900A
:1087C1000E91EEF0A3EFF0900E91E0FEA3E0FF8F8B
:1087D100828E837406F0900E90E0FF7D0112999DC8
:1087E1007B017A09798FC003C002C0017BFF7AA1A6
:1087F1007944900C77EBF0A3EAF0A3E9F0D001D033
:0C88010002D0037F017E001287297F0057
:01880D002248
:10A14400C0D075D018900EE1EFF0900EE1E0FFEF73
:10A15400700890098D7401F0800690098D7402F0E6
:03A16400D0D02236
:107EE900900D61EFF0900D62EBF0A3EAF0A3E9F0D9
:107EF90090098DE0FFEFB404037F042290098DE01F
:107F0900FFEF6401704C900D65E0FFEFB40116902E
:107F19000991E0FF900D62E0FBA3E0FAA3E0F9EF1D
:107F29001219E6802D900D65E0FF7E007B017A092C
:107F39007991C003C002C001900D62E0FBA3E0FA91
:107F4900A3E0F9A801AC02AD03D001D002D003121D
:107F59001925900D61E0FF7D0012999D1200169080
:057F6900098DE0FF227C
:109DA600900EE2EFF090098DE0FFEFB404037F041C
:109DB60022900EE2E0FF7D0012999D90098EE0FF51
:0E9DC600EF7005C2B012001690098DE0FF226A
:108AA100900CBDEBF0A3EAF0A3E9F0900CC0EDF05F
:108AB100900CC2E4F0A3E4F0900CC1E4F0900CC07F
:108AC100E0FF900CC1E0FEEEC39F502F900CBDE083
:108AD100FBA3E0FAA3E0F9900CC1E0FF8F8275835C
:108AE10000121964FF7E00900CC3E02FF0900CC2BD
:108AF100E03EF0900CC1E004F080C2900CC2E0FEB8
:038B0100A3E0FFEF
:018B0400224E
:0FA586007BFF7A8C791E1289CB900DECEFF022BF
:058C1E00900DE5EFF0F0
:108C2300900DE5E0FFEF121CCB8C36008C5C01004D
:038C3300008C783A
:108C3600900DE67406F0900DE7E4F0A3E4F07B01F6
:108C46007A0D79E612644DEF70067F01129A0F22B3
:068C56007F00129A0F22BC
:108C5C0012A318EF6403600F7F00129A0F7DF47C4F
:0C8C6C00017FFF126B73227F01129A0F30
:018C780022D9
:06A63200900DECE0FF2298
:10A167007BFF7AA279BA1289CB900DEAEFF07BFFD9
:10A177007A94797A1289CB900DE9EFF0900DEB7410
:03A1870001F022C2
:10A53200900DEBE0FFEF600C900DEAE0FF7D607C98
:05A54200EA126B732218
:10A2BA00900EE3EFF012A5777F0012A372900DE9DA
:10A2CA00E0FF7D0012978975EF087FFF129803223D
:109DD400900EE4EFF0900EE4E0FFEF6013900DEBD3
:109DE4007401F0900DEAE0FF7D607CEA126B73224F
:0E9DF400900DEBE4F0900DEAE0FF12980322D0
:05947A00900EE5EFF08B
:10947F00900EE5E0FFEF121CCB94920094A6010032
:10948F000094B87F00129546EF70067F01129A0F75
:10949F00227F00129A0F2212A5A3EF70067FFF12F0
:0E94AF009803227F01129A0F227F00129A0F5B
:0194BD00228C
:10A506007584015388FC4388015388F343880443C8
:06A516008880758400221C
:10A51C007584025388FC4388015388F343880443B1
:06A52C0088807584002206
:1095C90012A55712A56712A50612A51CD288D28A20
:1095D9007BFF7A6079EB1289CB900C91EFF0900CBC
:1095E9008AE4F0900C8BE4F0900C8CE4F0A3E4F0A6
:1095F900900C8E7401F0900C8FE4F0900C90E4F0D4
:01960900223E
:10943400900D66EEF0A3EFF0900D68ECF0A3EDF064
:10944400900D6AEBF0900D66E0FEA3E0FF129E8A99
:10945400900D66E0FEA3E0FF129EB6900D68E0FE5C
:10946400A3E0FF900C8CEEF0A3EFF0900D6AE0FF08
:06947400900C8EEFF022C7
:10970B00900EE6EFF0900EE6E0FFEF6026900C8AED
:10971B00E4F0900C8BE4F0900C8FE4F0900C90E460
:10972B00F0C289C28B120036900C91E0FF7D0012C3
:0F973B0097892212002E900C91E0FF12980322C2
:0560EB00900E93EFF0A0
:1060F000900E93E0FFEF121CCB6103006181010061
:106100000061C0900E94E4F012002E900C8AE0FF23
:10611000EF7008900C8BE0FFEF604E900C8AE0FF70
:10612000EF601F900C8AE4F0900C8EE0FF900C8FD3
:10613000E0FEEEC39F400B900C8FE4F0900E947441
:1061400001F0900C8BE0FFEF601F900C8BE4F0905F
:106150000C8EE0FF900C90E0FEEEC39F400B900C85
:1061600090E4F0900E947401F0120036900E94E0DA
:10617000FFEF60077F01129A0F80067F00129A0FCF
:0161800022FC
:10618100900E9574E7F07B017A0E7995900C287446
:1061910001F0900C29E4F0900C2AE4F07D017C00E0
:1061A100124063EF70137F00129A0F900C8CE0FC89
:0F61B100A3E0FD7FFF126B73227F01129A0F2272
:0561C0007F00129A0FA0
:0161C50022B7
:0300030002A4A5AF
:10A4A500C0E0C083C082900C8A7401F0900C8FE0EC
:09A4B50004F0D082D083D0E03223
:0300130002A4BE86
:10A4BE00C0E0C083C082900C8B7401F0900C90E0D1
:09A4CE0004F0D082D083D0E0320A
:03002E00C2A82243
:03003600D2A8222B
:106716004506D00203000003012400480758B0B123
:10672600B2B3B4B5B6B7480733B8B9BABBBCBDBE89
:10673600BF480726C0C1C2C3C4C5C6C74807A9D03B
:10674600D1D2D3D4D5D6D74106DF0041074E004378
:0967560006D61200014106DB0029
:05A04B00900EE7EFF0AC
:10A05000900EE7E0FFEFC3940540037F0022900ECF
:0FA06000E7E0FF74D02FF582E43406F583E0FFCC
:01A06F0022CE
:103DCC0012A607AE02AF019007C4EEF0A3EFF0907D
:103DDC0007C4E0FEA3E0FFAA06A9077B0112887FB7
:103DEC007BFF7A8079F21289CB9007A6EFF07BFFEC
:103DFC007A9A79471289CB9007B7EFF07BFF7A72EA
:103E0C0079F81289CB9006EFEFF07BFF7A60790B93
:103E1C001289CB900730EFF07BFF7A6879661289B4
:103E2C00CB900717EFF07BFF7A4E79C61289CB90B7
:103E3C00077BEFF07BFF7A7F79F01289CB9006FA43
:103E4C00EFF07BFF7A6579211289CB90077AEFF03E
:103E5C007BFF7A77793F1289CB9007D1EFF07BFF0C
:103E6C007A6A79B61289CB9006E7EFF07BFF7A3449
:103E7C0079CF1289CB900743EFF07BFF7A4279849C
:103E8C001289CB9007A4EFF07BFF7A5979BC128989
:103E9C00CB900757EFF07BFF7A6F79B01289CB90FC
:103EAC000742EFF07BFF7A8179F11289CB9007788A
:103EBC00EFF07BFF7A8F79BC1289CB90076AEFF019
:103ECC007BFF7A82796D1289CB900760EFF07BFFD4
:103EDC007A90790B1289CB9007A5EFF07BFF7A9043
:103EEC00795A1289CB9006DCEFF07BFF7A9079A996
:103EFC001289CB90074CEFF07BFF7A8279E912891B
:103F0C00CB900744EFF07BFF7A9279CC1289CB905F
:103F1C000747EFF07BFF7A8D79D41289CB9007CAD3
:103F2C00EFF07BFF7A8C79791289CB90077EEFF0DA
:103F3C007BFF7A9079F81289CB9007B3EFF07BFF77
:103F4C007A5779C31289CB900741EFF07BFF7A70D7
:103F5C00795B1289CB900777EFF07BFF7A9A797EA9
:103F6C001289CB900779EFF07BFF7A5879C71289C9
:103F7C00CB900723EFF07BFF7A2779C01289CB9087
:103F8C0006EAEFF07BFF7A8E797E1289CB90074F91
:103F9C00EFF07BFF7A8A79371289CB9007B8EFF074
:103FAC007BFF7A7479391289CB900725EFF07BFF70
:103FBC007A9479BE1289CB9006FDEFF07BFF7A5E86
:103FCC0079491289CB900774EFF07BFF7A8379657E
:103FDC001289CB900769EFF07BFF7A8379E1128924
:103FEC00CB9007B6EFF07BFF7A6279A01289CB9069
:103FFC0007C3EFF07BFF7A9179471289CB900724A6
:10400C00EFF07BFF7A8E792A1289CB90073BEFF089
:10401C007BFF7A9179961289CB9006E8EFF07BFFC3
:10402C007A8E79CE1289CB9006E6EFF07BFF7A91EF
:10403C0079E51289CB90074DEFF07BFF7A6D79A370
:10404C001289CB9007D0EFF07BFF7A73799A1289A3
:07405C00CB9006E9EFF02212
:05807200900D6BEFF022
:108077009007C4E0FEA3E0FFAA06A9077B011296BA
:108087008C900D6CEEF0A3EFF0900D6CE0FEA3E08A
:10809700FFEF64FF7003EE64FF60479007C4E0FEE4
:1080A700A3E0FFAA06A9077B01900D6CE0FCA3E003
:1080B700FD127C49AE02AF01900D6EEEF0A3EFF01A
:1080C700900D6EE0FEA3E0FFAA06A9077B01120050
:1080D700A69007C4E0FEA3E0FFAA06A9077B01124A
:0A80E7008172900D6BE0FF129A0FFA
:0180F100226C
:0B00A600900C4FEBF0A3EAF0A3E9F090
:1000B100900C4FE0FBA3E0FAA3E0F912194BFF907B
:1000C1000C54EFF0900C4FE0FBA3E0FAA3E0F975BC
:1000D1008201758300121964FF900C55EFF0900CAA
:1000E1004FE0FBA3E0FAA3E0F975820375830012E8
:1000F1001964FF900C52EFF0900C4FE0FBA3E0FA73
:10010100A3E0F9758202758300121964FF900C5304
:10011100EFF0900C54E0FFEFB4010312A532900C04
:1001210052E0FFEF121CCB01BF0101DE6403E46565
:1001310004036604226704B46804D36904F26A05FF
:10014100806B059F6C05BE6D05DD6E062E6F068EFC
:100151007006AD71075672079C7308EA7409097538
:100161000A17760A36770A55780A747C0AB27D0A2C
:10017100D1800B39810B88820BA7830BC6840CDDE0
:10018100850D48860D67870D86880F43890F948AF0
:100191000FF28B10118C106C8D0A938F10BD901182
:1001A1000E9111629211F597118198135899125A73
:1001B1009A12E49B13FE9C14129D00001412900CE1
:1001C10054E0FF900731EFF0900C53E0FF900732BD
:0D01D100EFF09006FDE0FF7D0012978922FF
:1001DE00900C4FE0FBA3E0FAA3E0F9E92404F9EA5E
:1001EE003400FAAE02AF01900C56EEF0A3EFF09091
:1001FE000C56E0FEA3E0FFAA06A9077B01C003C0D0
:10020E0002C001900C56E0FEA3E0FFAA06A9077BF0
:10021E0001900C02EBF0A3EAF0A3E9F0900C05E4D8
:10022E00F0A3740DF0D001D002D003125B96900CA7
:10023E0056E0FEA3E0FFEF241CFFEE3400FEAA06FC
:10024E00A9077B011286B5900C56E0FEA3E0FFEFE6
:10025E00241AFFEE3400FEAA06A9077B011286B50A
:10026E00900C56E0FEA3E0FFEF2420FFEE3400FEDC
:10027E00AA06A9077B011286B5900C56E0FEA3E0F4
:10028E00FFEF241EFFEE3400FEAA06A9077B011223
:10029E0086B5900C56E0FEA3E0FFEF2422FFEE346D
:1002AE0000FEAA06A9077B011286B5900C56E0FE49
:1002BE00A3E0FFAA06A9077B01900C56E0FEA3E07F
:1002CE00FF8F828E83E582241AF582E5833400F552
:1002DE0083E0FEA3E0FF900B79EEF0A3EFF0900C1D
:1002EE0056E0FEA3E0FF8F828E83E582241CF5820A
:1002FE00E5833400F583E0FEA3E0FF900B7BEEF088
:10030E00A3EFF0900C56E0FEA3E0FF8F828E83E504
:10031E0082241EF582E5833400F583E0FEA3E0FF20
:10032E00900B7DEEF0A3EFF0900C56E0FEA3E0FFF5
:10033E008F828E83E5822420F582E5833400F58357
:10034E00E0FEA3E0FF900B7FEEF0A3EFF0900C56D3
:10035E00E0FEA3E0FF8F828E83E5822422F582E504
:10036E00833400F583E0FEA3E0FF900B81EEF0A353
:10037E00EFF0900C56E0FEA3E0FF8F828E83E582B5
:10038E002424F582E5833400F583E0FF900B83EFA0
:10039E00F0900C56E0FEA3E0FF8F828E83E5822460
:1003AE0025F582E5833400F583E0FF900B84EFF0B2
:1003BE007D0D7F001255AD900C54E0FF900705EFB8
:1003CE00F0900C53E0FF900706EFF09006DCE0FF94
:0603DE007D001297892248
:1003E400900C54E0FF9007C8EFF0900C53E0FF909E
:1003F40007C9EFF0900778E0FF7D001297892290FB
:100404000C54E0FF9006E4EFF0900C53E0FF9006EC
:0E041400E5EFF09007A6E0FF7D001297892229
:10042200900C4FE0FBA3E0FAA3E0F9E92404F9EA17
:100432003400FAAE02AF01900C56EEF0A3EFF0904A
:100442000C56E0FEA3E0FFAA06A9077B01C003C089
:1004520002C001900C56E0FEA3E0FFAA06A9077BAA
:1004620001900C02EBF0A3EAF0A3E9F0900C05E492
:10047200F0A3740DF0D001D002D003125B96900C61
:1004820056E0FEA3E0FFAA06A9077B017D0C7F00D0
:1004920012854F900C54E0FF9007B1EFF0900C538F
:1004A200E0FF9007B2EFF090076AE0FF7D0012973D
:0204B20089229D
:1004B400900C54E0FF90077CEFF0900C53E0FF9019
:1004C400077DEFF0900760E0FF7D0012978922908E
:1004D4000C54E0FF900767EFF0900C53E0FF900797
:0E04E40068EFF0900744E0FF7D001297892238
:1004F200900C4FE0FBA3E0FAA3E0F9E92404F9EA47
:100502003400FAAE02AF01900C56EEF0A3EFF09079
:100512000C56E0FEA3E0FFAA06A9077B01C003C0B8
:1005220002C001900C56E0FEA3E0FFAA06A9077BD9
:1005320001900C02EBF0A3EAF0A3E9F0900C05E4C1
:10054200F0A37402F0D001D002D003125B96900C9B
:1005520056E0FEA3E0FFAA06A9077B01128CD19008
:100562000C54E0FF9006EBEFF0900C53E0FF900686
:0E057200ECEFF09007B3E0FF7D0012978922B6
:10058000900C54E0FF9007B4EFF0900C53E0FF9014
:1005900007B5EFF0900747E0FF7D001297892290A2
:1005A0000C54E0FF9006FBEFF0900C53E0FF900638
:1005B000FCEFF09007CAE0FF7D0012978922900CB3
:1005C00054E0FF9006DDEFF0900C53E0FF9006DE64
:0D05D000EFF090077EE0FF7D00129789227A
:1005DD00900C4FE0FBA3E0FAA3E0F9E92404F9EA5B
:1005ED003400FAAE02AF01900C56EEF0A3EFF0908E
:1005FD000C54E0FF9007CDEFF0900C53E0FF900707
:10060D00CEEFF0900C56E0FEA3E0FF8F828E83E0DC
:10061D00FF9007CFEFF090077AE0FF7D00129789EA
:01062D0022AA
:10062E00900C4FE0FBA3E0FAA3E0F9E92404F9EA09
:10063E003400FAAE02AF01900C56EEF0A3EFF0903C
:10064E000C54E0FF900701EFF0900C53E0FF900781
:10065E0002EFF0900C56E0FEA3E0FF8F828E83E057
:10066E00FEA3E0FF900703EEF0A3EFF07B017A0705
:10067E0079031286B59007D1E0FF7D00129789228B
:10068E00900C54E0FF90071AEFF0900C53E0FF909F
:0F069E00071BEFF09006E7E0FF7D00129789221F
:1006AD00900C4FE0FBA3E0FAA3E0F9E92404F9EA8A
:1006BD003400FAAE02AF01900C56EEF0A3EFF090BD
:1006CD000C54E0FF9006E2EFF0900C53E0FF900623
:1006DD00E3EFF0900C56E0FEA3E0FFAA06A9077B1E
:1006ED00011286B5900C56E0FEA3E0FFEF2402FF49
:1006FD00EE3400FEAA06A9077B011286B5900C56B2
