:09AB7F00000102030405060708A9
:10A1F10075840075BA0075BC18900D94E4F075BBB8
:10A201000075D1077E007F127D007B017A0D799563
:10A21100121A3175E80C12A6EC43E88043E702D22A
:02A22100AF226A
:03007B00027BD82D
:107BD800C0E0C0F0C083C082C0D075D00853E7FDB4
:107BE800C2EDAFBF7E00900D94E0FDED25E0249539
:107BF800F582E4340DF583EEF0A3EFF0900D94E0F8
:107C0800FFEF25E02495F582E4340DF583C083C0A9
:107C180082E0FEA3E0FFEF7F00FED082D083EEF08B
:107C2800A3EFF0900D94E0FFEF25E02495F582E4B2
:107C3800340DF583C083C082E0FEA3E0FFADBE7CB7
:107C480000EE4CFEEF4DFFD082D083EEF0A3EFF0B4
:107C580012A51E43E702D0D0D082D083D0F0D0E066
:017C680032E9
:10824F00900F38EFF0900F39EDF0900F3AEBF0A35D
:10825F00EAF0A3E9F053E7FD900F38E0FF7E0090BE
:10826F000F39E0FD7C00C3ED9FFFEC9EFEEF240174
:10827F00FFEE3400FEEF25E0FFEE33FEC006C00731
:10828F00900F38E0FF7E02EF8EF0A4FFAEF07495F2
:10829F002FF9740D3EFA7B01C003C002C001900F8D
:1082AF003AE0FBA3E0FAA3E0F9A801AC02AD03D0DA
:1082BF0001D002D003D007D0061214DB43E702220D
:10A51E00C0D075D008900D94E004FFF0EFB409059B
:10A52E00900D94E4F0900D94E0FFEF90AB7F93FFCD
:05A53E008FBBD0D0220C
:086EC400450BF1000402060178
:10A54300C200C201758400759A4075F809759DFFB4
:10A5530075840F43A60743E10243E34043F60143F7
:03A56300E60122EC
:10870B00900E88EEF0A3EFF0900E8AEBF0A3EAF058
:10871B00A3E9F075840053E6FE900E8AE0FBA3E01C
:10872B00FAA3E0F9AE02AF01900B8BEEF0A3EFF0E2
:10873B00900E88E0FEA3E0FF900B8AEFF0900E8D79
:10874B00E0FBA3E0FAA3E0F9900B87EBF0A3EAF0D0
:10875B00A3E9F0900B86E4F0900B86E0FF04F07435
:10876B008D2FF582E4340BF583E0FF8F9B43E601FD
:03877B007F00225A
:03003300025E0268
:105E0200C0E0C0F0C083C082C0D075D01820FF03AC
:105E1200025EB1C2FF30010375A0FD900B86E0FF68
:105E22007E00EF24FFFFEE34FFFE900B8BE0FCA31D
:105E3200E0FD8D828C83E5822FF582E5833EF5833A
:105E4200E59BF0900B8AE0FF900B86E0FEEEC39F8D
:105E5200503730011B900BF6E4F0900BF6E0FFEFA9
:105E6200C394145008900BF6E004F080ED75A0F88E
:105E7200900B86E0FF04F0748D2FF582E4340BF56D
:105E820083E0FF8F9B807D8026900B8AE0FF900B42
:105E920086E0FEEEB51F18900B87E0FBA3E0FAA3A5
:105EA200E0F989828A837F007E00121A2F805530A2
:105EB200FE1AC2FE900B87E0FBA3E0FAA3E0F98989
:105EC200828A837F027E00121A2F803830FD1AC226
:105ED200FD900B87E0FBA3E0FAA3E0F989828A83B5
:105EE2007F037E00121A2F801B30FC18C2FC900B1D
:105EF20087E0FBA3E0FAA3E0F989828A837F047E2C
:0F5F020000121A2FD0D0D082D083D0F0D0E0324E
:0BAB60003000037F0122D2007F0022A2
:03000600C2002213
:10A2B50090106FEFF0901070EDF0901070E0FFEFE0
:10A2C500B4011790106FE0FF74F12FF582E4340BA1
:0EA2D500F583E0FFEF44F8F5A02275A0FD220E
:07ABCD007B017A0B798D2258
:10A99C009010A5EFF09010A5E0FFEF24FF9201229C
:109E6300A2AF9204C2AF75840043911043910F7562
:109E7300985012A823C299C298D2ACD2BCA2049221
:109E8300AF75840F43E10443E340900000E4F09096
:0F9E93000101E4F0900102E4F090010374FFF08C
:019EA200229D
:10A1220053E7BF7584017598105398FC43F74012AA
:10A13200A86E75840F43E30443E3409001A7E4F063
:10A142009002A8E4F09002A9E4F09002AA74FFF051
:04A1520043E740227D
:03002300027CFA62
:0D7CFA00C0E0C0F0C083C082C0D075D010C3
:107D0700C2ACE59130E70353917FE59130E6035329
:107D170091BF309816C2989010A6E599F07B017A2A
:107D27000179049010A6E0FD125CF0309946C299E3
:107D3700900102E0FF900101E0FEEE6F60319001DB
:107D470002E0FF74012FF582E43400F583E0FF8F32
:107D570099900102E0FF7E00EF2401FFEE3400FE60
:107D67007E00900102EFF0900103E004F08005909F
:067D77000000E4F0D2ACB4
:0B7D7D00D0D0D082D083D0F0D0E03214
:0300A30002834E87
:10834E00C0E0C0F0C083C082C0D075D01053E7BF6C
:10835E00E59830E00E5398FE7B017A0279ABAD9929
:10836E00125CF0E59830E1475398FD9002A9E0FFCA
:10837E009002A8E0FEEE6F60319002A9E0FF74A8B3
:10838E002FF582E43401F583E0FF8F999002A9E086
:10839E00FF7E00EF2401FFEE3400FE7E009002A966
:1083AE00EFF09002AAE004F080059001A7E4F043FC
:0D83BE00E740D0D0D082D083D0F0D0E032A4
:109C4100900F3DEBF0A3EAF0A3E9F0900F40EDF0A7
:109C5100900F41E0FFEF7014900F3DE0FBA3E0FA9D
:109C6100A3E0F9900F40E0FD1242E922900F41E09C
:109C7100FFEFB40113900F3DE0FBA3E0FAA3E0F97D
:099C8100900F40E0FD1244C022E6
:1042E900900E49EBF0A3EAF0A3E9F0900E4CEDF043
:1042F9007B017A007900900E4FEBF0A3EAF0A3E975
:10430900F0758400900E4FE0FBA3E0FAA3E0F97585
:10431900820375830112151AFF900E4CE0FEEFC35C
:104329009E50037F0122900E4DE4F0900E4CE0FF69
:10433900900E4DE0FEEEC39F4003024400A2ACE4A0
:1043490033FF900E4EEFF0C2AC900E49E0FBA3E0B4
:10435900FAA3E0F9900E4DE0FF8F827583001215E4
:104369001AFF900E4FE0FBA3E0FAA3E0F975820172
:1043790075830112151AFEEEFD7C00900E4FE0FBCD
:10438900A3E0FAA3E0F9E92401F9EA3400FAE92DF6
:10439900F9EA3CFAEF12159C900E4FE0FBA3E0FA04
:1043A900A3E0F975820175830112151AFF7E00EFEA
:1043B9002401FFEE3400FE7E00900E4FE0FBA3E0E7
:1043C900FAA3E0F9758201758301EF1215AE900E1B
:1043D9004FE0FBA3E0FAA3E0F9758203758301744A
:1043E900FF121569900E4EE0FFEF24FF92AC900E7C
:1043F9004DE004F0024334A2ACE433FF900E4EEFDB
:10440900F0C2AC900E4FE0FBA3E0FAA3E0F912155D
:1044190001FFEF60030244B3900E4FE0FBA3E0FA03
:10442900A3E0F9740112159C900E4FE0FBA3E0FA8A
:10443900A3E0F975820275830112151AFF7E0090B7
:104449000E4FE0FBA3E0FAA3E0F9E92401F9EA340D
:1044590000FAE92FF9EA3EFA121501FF8F99900E39
:104469004FE0FBA3E0FAA3E0F9758202758301121C
:10447900151AFF7E00EF2401FFEE3400FE7E009046
:104489000E4FE0FBA3E0FAA3E0F975820275830100
:10449900EF1215AE900E4FE0FBA3E0FAA3E0F97519
:1044A90082037583017401121569900E4EE0FFEFC6
:0644B90024FF92AC7F001D
:0144BF0022DA
:1044C000900E52EBF0A3EAF0A3E9F0900E55EDF058
:1044D0007B017A0179A7900E58EBF0A3EAF0A3E9EB
:1044E000F0758401900E58E0FBA3E0FAA3E0F975A3
:1044F000820375830112151AFF900E55E0FEEFC37B
:104500009E50037F0122900E56E4F0900E55E0FF7E
:10451000900E56E0FEEEC39F40030245D6E5E754F9
:1045200040FF900E57EFF053E7BF900E52E0FBA311
:10453000E0FAA3E0F9900E56E0FF8F827583001237
:10454000151AFF900E58E0FBA3E0FAA3E0F975827C
:104550000175830112151AFEEEFD7C00900E58E0E5
:10456000FBA3E0FAA3E0F9E92401F9EA3400FAE94F
:104570002DF9EA3CFAEF12159C900E58E0FBA3E0EF
:10458000FAA3E0F975820175830112151AFF7E0006
:10459000EF2401FFEE3400FE7E00900E58E0FBA3F6
:1045A000E0FAA3E0F9758201758301EF1215AE9070
:1045B0000E58E0FBA3E0FAA3E0F9758203758301CE
:1045C00074FF121569900E57E0FFEF42E7900E5608
:1045D000E004F002450BE5E75440FF900E57EFF082
:1045E00053E7BF900E58E0FBA3E0FAA3E0F91215E1
:1045F00001FFEF600302468A900E58E0FBA3E0FA49
:10460000A3E0F9740112159C900E58E0FBA3E0FAA8
:10461000A3E0F975820275830112151AFF7E0090DE
:104620000E58E0FBA3E0FAA3E0F9E92401F9EA342B
:1046300000FAE92FF9EA3EFA121501FF8F99900E60
:1046400058E0FBA3E0FAA3E0F9758202758301123A
:10465000151AFF7E00EF2401FFEE3400FE7E00906D
:104660000E58E0FBA3E0FAA3E0F97582027583011E
:10467000EF1215AE900E58E0FBA3E0FAA3E0F97537
:1046800082037583017401121569900E57E0FFEFE4
:0446900042E77F007E
:014694002203
:10A6CE009010A7EFF09010A7E0FF7E007C017DA711
:0EA6DE001215D074042FF974013EFA7B01228C
:10A96600A2ACE433FF9010A8EFF0C2AC9010A8E0C0
:01A97600FFE1
:01A9770022BD
:10A94000E5E75440FF9010A9EFF053E7BF9010A93E
:02A95000E0FF26
:01A9520022E2
:10A97800A2ACE433FF9010AAEFF0D2AC9010AAE09A
:01A98800FFCF
:01A9890022AB
:10A95300E5E75440FF9010ABEFF043E7409010ABB6
:02A96300E0FF13
:01A9650022CF
:0CAB30009005FAE4F09005FB74FFF022A1
:0B89B500900F88EBF0A3EAF0A3E9F0BC
:1089C0009005FAE0FFEFC3944C40037FFF2290052F
:1089D000FAE0FF900F8BEFF0900F88E0FBA3E0FA36
:1089E000A3E0F9900F8BE0FF75F009EFA4244EF59A
:1089F00082E5F03403F583EBF0A3EAF0A3E9F0900D
:108A00000F8BE0FF75F009EFA42452F582E5F034F6
:108A100003F583E4F09005FAE004F0900F8BE0FF9B
:018A20002233
:109F6100901071EFF0901072EDF0901071E0FF75AC
:109F7100F009EFA42452F582E5F03403F58374026D
:109F8100F0901072E0FF901071E0FE75F009EEA400
:0D9F91002451F582E5F03403F583EFF02252
:109F9E009010ACEFF09010ACE0FFEFB4FF1790050F
:109FAE00FBE0FF75F009EFA42452F582E5F03403CF
:109FBE00F583E4F0229010ACE0FF75F009EFA424D5
:0C9FCE0052F582E5F03403F583E4F02244
:109FDA009010ADEFF09010ADE0FF9005FBE0FE753C
:109FEA00F009EEA42451F582E5F03403F583EFF08D
:109FFA009005FBE0FF75F009EFA42452F582E5F025
:08A00A003403F5837402F02217
:1071F300901018EFF0901019ECF0A3EDF090101828
:10720300E0FFEF64FF70529005FBE0FF75F009EFBC
:10721300A42452F582E5F03403F5837403F090055A
:10722300FBE0FF7E09EF8EF0A4FFAEF074532FF95D
:1072330074033EFA7B01C003C002C001901019E041
:10724300FEA3E0FF7C007D0A1215E2AC06AD07D079
:1072530001D002D003129C8A22901018E0FF75F02F
:1072630009EFA42452F582E5F03403F5837403F0A7
:10727300901018E0FF7E09EF8EF0A4FFAEF0745378
:107283002FF974033EFA7B01C003C002C0019010C2
:1072930019E0FEA3E0FF7C007D0A1215E2AC06AD07
:0B72A30007D001D002D003129C8A2209
:105649009010AEE4F09005FAE0FF9010AEE0FEEEA7
:10565900C39F40030257749005FAE0FF9005FBE0F1
:1056690004FEF0EEB507059005FBE4F09005FBE0BC
:10567900FF75F009EFA42452F582E5F03403F583B0
:10568900E0FFEF640270519005FBE0FF75F009EF50
:10569900A42452F582E5F03403F5837401F09005F2
:1056A900FBE0FF75F009EFA42451F582E5F034031E
:1056B900F583E0FF9005FBE0FE75F009EEA4244EAA
:1056C900F582E5F03403F583E0FBA3E0FAA3E0F902
:1056D90089828A83121A2F229005FBE0FF75F0094F
:1056E900EFA42452F582E5F03403F583E0FFEF647B
:1056F90003706F9005FBE0FF7E09EF8EF0A4FFAE0B
:10570900F074532FF974033EFA7B01129749EF6045
:10571900519005FBE0FF75F009EFA42452F582E5ED
:10572900F03403F5837401F09005FBE0FF75F0098F
:10573900EFA42451F582E5F03403F583E0FF9005E9
:10574900FBE0FE75F009EEA4244EF582E5F0340382
:10575900F583E0FBA3E0FAA3E0F989828A83121AB0
:0B5769002F229010AEE004F002564E1C
:015774002212
:10A780009010AFEFF09010AFE0FF75F009EFA42448
:0CA7900052F582E5F03403F583E0FF226F
:1074D30090101BEBF0A3EAF0A3E9F090101BE0FB84
:1074E300A3E0FAA3E0F9758203758300749512157E
:1074F300AE90101BE0FBA3E0FAA3E0F975820175DF
:107503008300E41215AE90101BE0FBA3E0FAA3E0A6
:10751300F9758202758300E41215AE90101BE0FB2F
:10752300A3E0FAA3E0F9758205758300E41215AEB2
:1075330090101BE0FBA3E0FAA3E0F97582047583C6
:1075430000E41215AE90101BE0FBA3E0FAA3E0F9F0
:10755300E412159C90101BE0FBA3E0FAA3E0F9757D
:10756300820A758300E41215AE90101BE0FBA3E0C2
:0F757300FAA3E0F975820B758300E41215AE22BE
:105CF000C0D075D010900F8CEBF0A3EAF0A3E9F0C0
:105D0000900F8FEDF0900F8CE0FBA3E0FAA3E0F989
:105D100075820275830012151AFF900F8CE0FBA3A9
:105D2000E0FAA3E0F975820175830012151AFEEE00
:105D3000B5171D900F8CE0FBA3E0FAA3E0F9758284
:105D40000575830012151AFFEF60057F03025DFFE2
:105D5000900F8FE0FF900F8CE0FBA3E0FAA3E0F937
:105D600075820175830012151AFEEEFD7C00900FFE
:105D70008CE0FBA3E0FAA3E0F9E9240DF9EA340092
:105D8000FAE92DF9EA3CFAEF12159C900F8CE0FB32
:105D9000A3E0FAA3E0F975820375830012151AFFD8
:105DA000900F8CE0FBA3E0FAA3E0F9758201758304
:105DB0000012151AFEEEC39F5018900F8CE0FBA343
:105DC000E0FAA3E0F9758201758300740112156988
:105DD0008015900F8CE0FBA3E0FAA3E0F975820137
:105DE000758300E41215AE900F8CE0FBA3E0FAA3DC
:105DF000E0F975820575830074011215697F01D081
:025E0000D022AE
:0B5BDD00900E90EBF0A3EAF0A3E9F0BB
:105BE800900E90E0FBA3E0FAA3E0F97582057583B7
:105BF8000012151AFFEF70067F0322025CED900E6B
:105C080096E0FFEF700A12A966900E97EFF08008F1
:105C180012A940900E97EFF0900E90E0FBA3E0FAE7
:105C2800A3E0F975820275830012151AFF7E0090B1
:105C38000E90E0FBA3E0FAA3E0F9E9240DF9EA34B9
:105C480000FAE92FF9EA3EFA121501FF900E93E0E7
:105C5800FBA3E0FAA3E0F9EF12159C900E90E0FB8D
:105C6800A3E0FAA3E0F975820375830012151AFF01
:105C7800900E90E0FBA3E0FAA3E0F9758202758329
:105C88000012151AFEEEC39F5018900E90E0FBA369
:105C9800E0FAA3E0F97582027583007401121569B0
:105CA8008015900E90E0FBA3E0FAA3E0F97582025C
:105CB800758300E41215AE900E90E0FBA3E0FAA302
:105CC800E0F975820575830074FF121569900E97C7
:105CD800E0FFEF6010900E96E0FFEF700512A978D4
:075CE800800312A9537F01A4
:015CEF002292
:1089450090101EEBF0A3EAF0A3E9F090101EE0FBF7
:10895500A3E0FAA3E0F9758203758300740212158A
:10896500AE90101EE0FBA3E0FAA3E0F97582027554
:108975008300E41215AE90101EE0FBA3E0FAA3E01D
:10898500F9758201758300E41215AE90101EE0FBA7
:10899500A3E0FAA3E0F9758204758300E41215AE2D
:1089A50090101EE0FBA3E0FAA3E0F9E412159C2267
:1096F300901021EBF0A3EAF0A3E9F0901021E0FB36
:10970300A3E0FAA3E0F975820375830012151AFF2B
:10971300901021E0FBA3E0FAA3E0F97582047583BE
:109723000012151AFEEEB507057EFF7FFF2290108B
:1097330021E0FBA3E0FAA3E0F9758202758300122E
:06974300151AFF7E002252
:107F2B00900F42EBF0A3EAF0A3E9F0900F45ECF0D1
:107F3B00A3EDF0900F42E0FBA3E0FAA3E0F975820A
:107F4B000375830012151AFF7E00EF24FFFFEE343A
:107F5B00FFFE900F45E0FCA3E0FDD3ED9FEE6480A8
:107F6B00F8EC6480985010900F45E0FEA3E0FFC33F
:107F7B00EE6480948050077B007A00790022900F8A
:107F8B0042E0FBA3E0FAA3E0F9E92406F9EA3400A6
:107F9B00FA900F45E0FEA3E0FF7C007D461215D062
:077FAB00E92FF9EA3EFA227A
:10853600901024EBF0A3EAF0A3E9F0901024E0FBFE
:10854600A3E0FAA3E0F975820375830012151AFFFA
:10855600901024E0FBA3E0FAA3E0F975820275838C
:10856600007401121569FEEEB50715901024E0FBA4
:10857600A3E0FAA3E0F9758202758300E41215AE52
:10858600901024E0FBA3E0FAA3E0F9E412159C9016
:108596001024E0FBA3E0FAA3E0F9758204758300DA
:0685A600740112156922A8
:109EA300901027EBF0A3EAF0A3E9F0901027E0FB72
:109EB300A3E0FAA3E0F975820475830012151AFF73
:109EC300EF70057EFF7FFF22901027E0FBA3E0FAEF
:109ED300A3E0F975820175830012151AFF7E002233
:1082CF0090102AEBF0A3EAF0A3E9F090102AE0FB5C
:1082DF00A3E0FAA3E0F975820475830012151AFF63
:1082EF00EF605B90102AE0FBA3E0FAA3E0F9758240
:1082FF000375830012151AFF90102AE0FBA3E0FA12
:10830F00A3E0F97582017583007401121569FEEE01
:10831F00B5071590102AE0FBA3E0FAA3E0F97582E8
:10832F0001758300E41215AE90102AE0FBA3E0FA6A
:0F833F00A3E0F975820475830074FF121569229B
:107C6900900EF6EBF0A3EAF0A3E9F0900EF9ECF030
:107C7900A3EDF0900EF6E0FBA3E0FAA3E0F91215EC
:107C890001FFEFC394465068900EFBE0FFC00790D8
:107C99000EF6E0FBA3E0FAA3E0F9E92406F9EA34D9
:107CA90000FA900EF9E0FEA3E0FF7C007D46121574
:107CB900D0E92FF9EA3EFAC003C002C001900EF6DE
:107CC900E0FBA3E0FAA3E0F9121501FF7E00D00161
:107CD900D002D003E92FF9EA3EFAD007EF12159C3A
:107CE900900EF6E0FBA3E0FAA3E0F9740112154740
:017CF9002268
:1098F4009005FC7497F09005FD7497F07F0012A614
:10990400CEAE02AF019007C2EEF0A3EFF07F0112DA
:10991400A6CEAE02AF01900856EEF0A3EFF090078A
:10992400C2E0FEA3E0FFAA06A9077B011274D3904C
:109934000856E0FEA3E0FFAA06A9077B011274D330
:019944002200
:102B5700900DA7EBF0A3EAF0A3E9F0900DAAECF033
:032B6700A3EDF0EB
:102B6A00900DB3E4F0900DB0E0FFEF701F7E057F8B
:102B7A00FE900DB5EEF0A3EFF07B017A0579FC909B
:102B8A000DB7EBF0A3EAF0A3E9F0801D7E077F29D9
:102B9A00900DB5EEF0A3EFF07B017A0579FD900D6B
:102BAA00B7EBF0A3EAF0A3E9F0900DAFE0FFEF6016
:102BBA000C900DAEE0FF900DB4EFF08014900DB7BD
:102BCA00E0FBA3E0FAA3E0F9121501FF900DB4EFC0
:102BDA00F0900DAAE0FEA3E0FFD3EF9446EE940036
:102BEA0040037F0122900DB5E0FEA3E0FF8F828EA5
:102BFA00837455F0900DB5E0FEA3E0FF8F828E83BB
:102C0A00A37433F0900DB17406F0900DADE0FF900F
:102C1A000DB1E0FE04F0900DB5E0FCA3E0FD8D825D
:102C2A008C83E5822EF582E43583F583EFF0900DEF
:102C3A00ADE0FFEFB45520900DB1E0FF04F0900D28
:102C4A00B5E0FCA3E0FD8D828C83E5822FF582E45A
:102C5A003583F58374AAF0900DACE0FF900DB1E0D6
:102C6A00FE04F0900DB5E0FCA3E0FD8D828C83E5B7
:102C7A00822EF582E43583F583EFF0900DACE0FF08
:102C8A00EFB45520900DB1E0FF04F0900DB5E0FCD3
:102C9A00A3E0FD8D828C83E5822FF582E43583F5EE
:102CAA008374AAF0900DB4E0FF900DB1E0FE04F039
:102CBA00900DB5E0FCA3E0FD8D828C83E5822EF5B4
:102CCA0082E43583F583EFF0900DB4E0FFEFB4555D
:102CDA0020900DB1E0FF04F0900DB5E0FCA3E0FDFB
:102CEA008D828C83E5822FF582E43583F58374AA7D
:102CFA00F0900DAFE0FFEF7024900DB7E0FBA3E07A
:102D0A00FAA3E0F97401121547FFEF7010900DB79E
:102D1A00E0FBA3E0FAA3E0F9749712159C900DB2B8
:102D2A00E4F0900DB2E0FF7E00900DAAE0FCA3E073
:102D3A00FDC3EF9DEE9C4003022DC3900DA7E0FB5F
:102D4A00A3E0FAA3E0F9900DB2E0FF8F8275830049
:102D5A0012151AFF900DB1E0FE04F0900DB5E0FCDB
:102D6A00A3E0FD8D828C83E5822EF582E43583F51E
:102D7A0083EFF0900DA7E0FBA3E0FAA3E0F9900D32
:102D8A00B2E0FF8F8275830012151AFFEFB4552047
:102D9A00900DB1E0FF04F0900DB5E0FCA3E0FD8DCD
:102DAA00828C83E5822FF582E43583F58374AAF059
:102DBA00900DB2E004F0022D2C900DB1E0FFEF244B
:102DCA00FAFFEF54FFFF900DB5E0FCA3E0FD8D8202
:102DDA008C83A3A3EFF0900DB5E0FEA3E0FF8F82F2
:102DEA008E83A3A3A3E4F0900DB1E0FF7E00EF244D
:102DFA00FAFFEE34FFFE7F00EEFF7E00900DB5E095
:102E0A00FCA3E0FD8D828C83E5822404F582E583B0
:102E1A003400F583EFF0900DB5E0FEA3E0FF8F825A
:102E2A008E83E5822405F582E5833400F583E4F098
:102E3A00900DB27406F0900DB1E0FF900DB2E0FE75
:102E4A00EEC39F502B900DB2E0FF900DB5E0FCA3AE
:102E5A00E0FD8D828C83E5822FF582E43583F5834C
:102E6A00E0FF900DB3E02FF0900DB2E004F080C6C1
:102E7A00900DB3E0FF900DB1E0FE04F0900DB5E0C7
:102E8A00FCA3E0FD8D828C83E5822EF582E43583F6
:102E9A00F583EFF0900DB5E0FEA3E0FFAA06A907BF
:102EAA007B01900DB1E0FD900DB0E0FFEF70047F63
:102EBA000080027F01900F41EFF0129C41EF600306
:052ECA007F02227F00E1
:012ECF0022E0
:0572AE00901073EFF0E9
:1072B3007B017A0679971296F3EF64FF7003EE640D
:1072C300FF60439007C2E0FEA3E0FFAA06A9077B85
:1072D30001C003C002C0017B017A107974900E9340
:1072E300EBF0A3EAF0A3E9F0900E96E4F0D001D01E
:1072F30002D003125BDDEFB4010C901074E0FF7D4C
:1073030000121B1180BD7B017A0779C41296F3EF3B
:1073130064FF7003EE64FF6044900856E0FEA3E050
:10732300FFAA06A9077B01C003C002C0017B017A43
:10733300107974900E93EBF0A3EAF0A3E9F0900EAA
:10734300967401F0D001D002D003125BDDEFB401DB
:107353000C901074E0FF7D01121B1180BC90107320
:05736300E0FF129FDABB
:017368002202
:0A1B1100900E17EFF0900E18EDF0A3
:101B1B00900E18E0FFEF701E9007C2E0FEA3E0FFEF
:101B2B00900E1DEEF0A3EFF07E067F97900E1FEE4A
:101B3B00F0A3EFF0801C900856E0FEA3E0FF900EA0
:101B4B001DEEF0A3EFF07E077FC4900E1FEEF0A307
:101B5B00EFF0900E1FE0FEA3E0FFAA06A9077B01A2
:101B6B001296F3900E19EEF0A3EFF0900E19E0FE23
:101B7B00A3E0FFEF64FF7003EE64FF70030222D853
:101B8B00900E1FE0FEA3E0FFAA06A9077B01900EB3
:101B9B0019E0FCA3E0FD127F2BAE02AF01900E1BF0
:101BAB00EEF0A3EFF0900E1BE0FEA3E0FFEF4E7004
:101BBB00030222D8900E1DE0FEA3E0FF8F828E83DE
:101BCB00E5822404F582E5833400F583E0FFEF1210
:101BDB001A051BF9001C22011C62021D04031DD3F4
:101BEB00041F680821410A20780B000022D8900EB0
:101BFB0017E0FFEF645560030222D8900E1DE0FE44
:101C0B00A3E0FF8F828E83E5822404F582E5833483
:101C1B0000F5837401F022900E17E0FFEFB4331C34
:101C2B00900E1DE0FEA3E0FF8F828E83E5822404DD
:101C3B00F582E5833400F5837402F022900E1DE0EB
:101C4B00FEA3E0FF8F828E83E5822404F582E58379
:101C5B003400F583E4F022900E17E0FF900E1DE0A8
:101C6B00FCA3E0FD8D828C83E5822407F582E5835E
:101C7B003400F583EFF0900E17E0FFEFB455047FBF
:101C8B000180027F00900E1DE0FCA3E0FD8D828C95
:101C9B0083E582240CF582E5833400F583EFF09025
:101CAB000E1DE0FEA3E0FF8F828E83E5822404F5F8
:101CBB0082E5833400F5837403F0900E1DE0FEA3E0
:101CCB00E0FF8F828E83E5822406F582E583340064
:101CDB00F5837404F0900E1FE0FEA3E0FFAA06A9A3
:101CEB00077B01900E19E0FCA3E0FD900E17E0FFBF
:101CFB00900EFBEFF0127C6922900E17E0FFEF7055
:101D0B0035900E1DE0FEA3E0FF8F828E83E58224CB
:101D1B0006F582E5833400F583E0FF900E1DE0FCB1
:101D2B00A3E0FD8D828C83E5822404F582E5833468
:101D3B0000F583EFF022900E1DE0FEA3E0FF8F82F3
:101D4B008E83E582240CF582E5833400F583E0FF76
:101D5B00EF6040900E17E0FFEFB4331C900E1DE0C8
:101D6B00FEA3E0FF8F828E83E5822404F582E58358
:101D7B003400F5837402F022900E1DE0FEA3E0FF09
:101D8B008F828E83E5822404F582E5833400F5830C
:101D9B00E4F022900E1DE0FEA3E0FF8F828E83E520
:101DAB00822404F582E5833400F583E4F0900E1D64
:101DBB00E0FEA3E0FF8F828E83E582240CF582E5A3
:101DCB00833400F583E4F022900E17E0FFEFB45557
:101DDB00047F0180027F00900E1DE0FCA3E0FD8DCF
:101DEB00828C83E582240CF582E5833400F583EF46
:101DFB00F0900E1DE0FEA3E0FF8F828E83E5822420
:101E0B0007F582E5833400F583E0FF900E17E0FEC3
:101E1B007E00EE4FFF900E1DE0FCA3E0FD8D828C4B
:101E2B0083E5822407F582E5833400F583EFF09098
:101E3B000E1FE0FEA3E0FFAA06A9077B01900E1977
:101E4B00E0FCA3E0FD900E17E0FF900EFBEFF0120D
:101E5B007C69900E1DE0FEA3E0FF8F828E83E582EE
:101E6B002407F582E5833400F583E0FFEFD394007C
:101E7B005003021F28900E1DE0FEA3E0FF8F828E01
:101E8B0083E5822407F582E5833400F583E0FFEFD9
:101E9B00D394464003021F28900E1DE0FEA3E0FFE3
:101EAB008F828E83E5822408F582E5833400F583E7
:101EBB00E4F0900E1DE0FEA3E0FF8F828E83E5829F
:101ECB002409F582E5833400F583E4F0900E1DE0E0
:101EDB00FEA3E0FF8F828E83E582240AF582E583E1
:101EEB003400F583E4F0900E1DE0FEA3E0FF8F823B
:101EFB008E83E5822406F582E5833400F58374082E
:101F0B00F0900E1DE0FEA3E0FF8F828E83E582240E
:101F1B0004F582E5833400F5837403F022900E17E9
:101F2B00E0FFEFB4551C900E1DE0FEA3E0FF8F8287
:101F3B008E83E5822404F582E5833400F5837401F6
:101F4B00F022900E1DE0FEA3E0FF8F828E83E582D0
:101F5B002404F582E5833400F583E4F022900E1718
:101F6B00E0FFEFB45536900E1DE0FEA3E0FF8F822D
:101F7B008E83E5822404F582E5833400F583740AAD
:101F8B00F0900E1DE0FEA3E0FF8F828E83E582248E
:101F9B0006F582E5833400F5837408F0900E1FE09C
:101FAB00FEA3E0FFAA06A9077B01900E19E0FCA394
:101FBB00E0FD900E17E0FF900EFBEFF0127C6990A6
:101FCB000E17E0FF900E1DE0FCA3E0FD8D828C83CD
:101FDB00E582240AF582E5833400F583E02FF09047
:101FEB000E1DE0FEA3E0FF8F828E83E5822409F5B0
:101FFB0082E5833400F583E004F0900E1DE0FEA330
:10200B00E0FF8F828E83E5822408F582E58334001E
:10201B00F583E004F0900E1DE0FEA3E0FF8F828EAF
:10202B0083E5822407F582E5833400F583E0FF9096
:10203B000E1DE0FCA3E0FD8D828C83E5822408F568
:10204B0082E5833400F583E0FEEEC39F500302224A
:10205B00D8900E1DE0FEA3E0FF8F828E83E58224D5
:10206B0004F582E5833400F583740BF022900E1D8A
:10207B00E0FEA3E0FF8F828E83E582240AF582E5E2
:10208B00833400F583E0FFEF54FFFF900E17E0FE63
:10209B00EF6E601D900E1DE0FEA3E0FF8F828E831E
:1020AB00E582240BF582E5833400F583E004F080B0
:1020BB006A900E1DE0FEA3E0FF8F828E83E58224E3
:1020CB0009F582E5833400F583E0FF900E1BE0FCFD
:1020DB00A3E0FD8D828C83EFF0900E1DE0FEA3E05C
:1020EB00FF8F828E83E5822409F582E5833400F528
:1020FB0083E0FF7E007F00EEFF7E00900E1BE0FC76
:10210B00A3E0FD8D828C83A3EFF0900E1FE0FEA366
:10211B00E0FFAA06A9077B01128536900E1DE0FE93
:10212B00A3E0FF8F828E83E5822404F582E583345E
:10213B0000F583E4F022900E17E0FFEF64AA600332
:10214B00022289900E1DE0FEA3E0FF8F828E83E5B5
:10215B00822408F582E5833400F583E0FF7E00EFEF
:10216B002401FFEE3400FE900E1DE0FCA3E0FD8D7C
:10217B00828C83E5822407F582E5833400F583E0C6
:10218B00FD7C00C3EF9DEC6480F8EE648098401DED
:10219B00900E1DE0FEA3E0FF8F828E83E582240468
:1021AB00F582E5833400F583740BF08034900E1DBB
:1021BB00E0FEA3E0FF8F828E83E5822406F582E5A5
:1021CB00833400F583E0FF900E1DE0FCA3E0FD8D52
:1021DB00828C83E5822404F582E5833400F583EF5A
:1021EB00F0900E1DE0FEA3E0FF8F828E83E582242C
:1021FB0006F582E5833400F583E0FFEF6408604168
:10220B00900E1DE0FEA3E0FF8F828E83E5822406F5
:10221B00F582E5833400F583E0FFEF6406602290DE
:10222B000E1DE0FEA3E0FF8F828E83E5822406F570
:10223B0082E5833400F583E0FFEF6407600302223D
:10224B00C9900E1DE0FEA3E0FF8F828E83E58224F2
:10225B0008F582E5833400F583E004F0900E17E077
:10226B00FF900E1DE0FCA3E0FD8D828C83E58224A4
:10227B000AF582E5833400F583E02FF08040900E61
:10228B0017E0FFEFB4331D900E1DE0FEA3E0FF8FB0
:10229B00828E83E5822404F582E5833400F5837412
:1022AB0002F0801A900E1DE0FEA3E0FF8F828E835A
:1022BB00E5822404F582E5833400F583E4F0900E87
:0D22CB001DE0FEA3E0FF8F828E83E004F093
:0122D80022E3
:10A7D4009010B0EFF09010B0E0FFEF70077B017ABB
:0BA7E400067997227B017A0779C422D6
:1099E5007E007F627D007B017A0B79FC121A317E45
:1099F500007F037D007B017A0B79F8121A317E0B0B
:109A05007FFD900C60EEF0A3EFF0900BF8E0FFEF18
:109A150004FF7E00900C5EEEF0A3EFF0900BFBE4EC
:0D9A2500F0900C62E4F075840043D1012242
:107134009010B1EFF0900C62E0FFEFC3940A40218D
:10714400900C62E0FFEFC3941450169010B1E0FF6E
:10715400EFB4020D9010B1E4F0900C62741EF08054
:1071640011900C62E0FFEFC3940A5006900C62E0A9
:1071740004F09010B1E0FFEF121A0571BE0071D057
:1071840001718F0271A103000071ED127975EF7026
:10719400067F03129FDA227F02129FDA22129EE3F5
:1071A400EF6404600F7F02129FDA7DBE7C007FFFD4
:1071B4001271F3227F03129FDA221280C0EF70064D
:1071C4007F01129FDA227F00129FDA22129EE3EFE0
:1071D4006404600F7F02129FDA7DBE7C007FFF1281
:0F71E40071F3227F01129FDA227F02129FDA22BB
:1079750012AB60EFB401037F0222900BF77404F0A1
:1079850012ABCDAE02AF0190102DEEF0A3EFF0904B
:10799500102DE0FEA3E0FF8F828E837433F09010EC
:1079A5002F7401F090102FE0FFEFD3943050259005
:1079B500102FE0FF90102DE0FCA3E0FD8D828C835D
:1079C500E5822FF582E43583F583E4F090102FE00E
:1079D50004F080D07F0112A99C7D017F0012A2B521
:1079E50012A3BEC003C002C0017BFF7AA5796690D1
:1079F5000E8DEBF0A3EAF0A3E9F0D001D002D0039D
:097A05007F317E0012870B7F0027
:017A0E002255
:1080C00012AB60EFB401037F0222900BF77404F04F
:1080D00012ABCDAE02AF01901075EEF0A3EFF090B1
:1080E0001075E0FEA3E0FF8F828E837434F0901051
:1080F00075E0FEA3E0FF8F828E83A3E4F0901075FD
:10810000E0FEA3E0FF8F828E83A3A3E4F07F011241
:10811000A99C7D017F0012A2B57B017A0B79F8C082
:1081200003C002C0017BFF7AA57966900E8DEBF04B
:10813000A3EAF0A3E9F0D001D002D0037F037E00D0
:0581400012870B7F0017
:018145002217
:10A56600C0D075D0189010B2EFF09010B2E0FFEFA7
:10A576007008900BF77401F08006900BF77402F0E8
:03A58600D0D02210
:109EE300900BF7E0FFEFB404037F04227D007F00B3
:109EF30012A2B57F0012A99C900BFBE0FFEF75F057
:109F030031A424FDF582E4340BF583AF82AE839054
:109F13000C60EEF0A3EFF0120006900BF7E0FF22C7
:059DA000901030EFF00F
:109DA50053E6FE900C60E0FEA3E0FF8F828E83C039
:109DB50083C082901030E0FFD082D08375F002EF2F
:109DC5001219F9E0FEA3E0FF901031EEF0A3EFF0D9
:0B9DD50043E601901031E0FEA3E0FF28
:019DE0002260
:107EA100900F47EFF0900F48EDF0900F49EBF0A3E2
:107EB100EAF0A3E9F053E6FE900F47E0FF7E009061
:107EC1000F48E0FD7C00C3ED9FFFEC9EFEEF240117
:107ED100FFEE3400FEEF25E0FFEE33FEC006C007E3
:107EE100900F47E0FF7E02EF8EF0A4FFAEF0900C02
:107EF10060E0FCA3E0FDEF2DFFEE3CFEAA06A90722
:107F01007B01C003C002C001900F49E0FBA3E0FA6E
:107F1100A3E0F9A801AC02AD03D001D002D003D097
:0A7F210007D0061214DB43E601222C
:10A15600900EFCEBF0A3EAF0A3E9F0900BF9E0FF18
:10A16600900EFCE0FBA3E0FAA3E0F9EF12159C9039
:10A176000BFAE0FF900EFFE0FBA3E0FAA3E0F9EF95
:04A1860012159C22F0
:10A3BE00900BFBE0FFC374019FFF900BFBEFF0903F
:10A3CE000BFBE0FF7E31EF8EF0A4FFAEF074FC2F9E
:08A3DE00F9740B3EFA7B012229
:0B869700900EB0EBF0A3EAF0A3E9F0B6
:1086A200900EB0E0FBA3E0FAA3E0F9900EB3EBF07A
:1086B200A3EAF0A3E9F0900EB3E0FBA3E0FAA3E093
:1086C200F975820175830012151AFF900EB6EFF04C
:1086D200900EB3E0FBA3E0FAA3E0F9121501FF90BC
:1086E2000EB3E0FBA3E0FAA3E0F975820175830003
:1086F200EF1215AE900EB6E0FF900EB3E0FBA3E0D2
:08870200FAA3E0F9EF12159C47
:01870A00224C
:0B6FA000900EB7EBF0A3EAF0A3E9F0BD
:106FAB00900EB7E0FBA3E0FAA3E0F9900EBAEBF07A
:106FBB00A3EAF0A3E9F0900EBAE0FBA3E0FAA3E09A
:106FCB00F975820375830012151AFF900EBDEFF051
:106FDB00900EBAE0FBA3E0FAA3E0F9121501FF90C3
:106FEB000EBAE0FBA3E0FAA3E0F975820375830008
:106FFB00EF1215AE900EBDE0FF900EBAE0FBA3E0D2
:10700B00FAA3E0F9EF12159C900EBAE0FBA3E0FA9D
:10701B00A3E0F975820275830012151AFF900EBD5D
:10702B00EFF0900EBAE0FBA3E0FAA3E0F975820152
:10703B0075830012151AFF900EBAE0FBA3E0FAA3BA
:10704B00E0F9758202758300EF1215AE900EBDE06C
:10705B00FF900EBAE0FBA3E0FAA3E0F9758201758D
:06706B008300EF1215AED8
:0170710022FC
:0B6B2A00900DE7EBF0A3EAF0A3E9F008
:106B3500900DED74FF75F0FF12164DAFF0FEEF4EA0
:106B45007003026C12900DEDE0FEA3E0FFEF25E06F
:106B5500FFEE33FE900DE7E0FBA3E0FAA3E0F98F2B
:106B6500828E8312168EFDACF0900DEDE0FEA3E053
:106B7500FFEF25E0FFEE33FE900DEAE0FBA3E0FA20
:106B8500A3E0F98F828E83EC8DF0121732900DED14
:106B9500E0FEA3E0FFEF25E0FFEE33FE900DEAE017
:106BA500FBA3E0FAA3E0F9E92FF9EA3EFA900DEF2D
:106BB500EBF0A3EAF0A3E9F0900DEFE0FBA3E0FA18
:106BC500A3E0F975820175830012151AFF900DF285
:106BD500EFF0900DEFE0FBA3E0FAA3E0F912150149
:106BE500FF900DEFE0FBA3E0FAA3E0F975820175D4
:106BF5008300EF1215AE900DF2E0FF900DEFE0FB74
:0D6C0500A3E0FAA3E0F9EF12159C026B3535
:016C1200225F
:0B523A00900DF3EBF0A3EAF0A3E9F005
:10524500900DF974FF75F0FF12164DAFF0FEEF4E9D
:105255007003025396900DF9E0FEA3E0FFEF78028C
:10526500C333CE33CED8F9FF900DF3E0FBA3E0FABC
:10527500A3E0F98F828E831218C0C004C005C00652
:10528500C007900DF9E0FEA3E0FFEF7802C333CE2F
:1052950033CED8F9FF900DF6E0FBA3E0FAA3E0F9D1
:1052A5008F828E83D007D006D005D00412190A90BC
:1052B5000DF9E0FEA3E0FFEF7802C333CE33CED87D
:1052C500F9FF900DF6E0FBA3E0FAA3E0F9E92FF969
:1052D500EA3EFA900DFBEBF0A3EAF0A3E9F0900D9E
:1052E500FBE0FBA3E0FAA3E0F975820375830012E6
:1052F500151AFF900DFEEFF0900DFBE0FBA3E0FA11
:10530500A3E0F9121501FF900DFBE0FBA3E0FAA362
:10531500E0F9758203758300EF1215AE900DFEE07E
:10532500FF900DFBE0FBA3E0FAA3E0F9EF12159C5B
:10533500900DFBE0FBA3E0FAA3E0F975820275830B
:105345000012151AFF900DFEEFF0900DFBE0FBA388
:10535500E0FAA3E0F975820175830012151AFF9032
:105365000DFBE0FBA3E0FAA3E0F97582027583006B
:10537500EF1215AE900DFEE0FF900DFBE0FBA3E0F4
:10538500FAA3E0F9758201758300EF1215AE02529A
:0153950045D2
:0153960022F4
:10A6EC00758400C2CAC2C953C8FE75CAFF75CBDBDC
:0EA6FC0053C9E775CCFF75CDFFC2ADD2CA229F
:10A2E300758400C28C900E29E4F0A3E4F0900E2153
:10A2F300E4F0A3E4F0900E27E4F0A3E4F043890133
:0EA30300758AFF758CDB538EF4D2A9D28C22A2
:03000B00028B5510
:108B5500C0E0C083C082C0D075D008C28D900E2AF7
:108B6500E004F07006900E29E004F0900E28E00471
:108B7500F07006900E27E004F0900E27E0FEA3E0CB
:108B8500FFC3EF9464EE94004016900E27E4F0A323
:108B9500E4F0900E22E004F07006900E21E004F05F
:0F8BA500758AFF758CDBD0D0D082D083D0E032C0
:10A86E007584004389205389EF758DD0538EEF5335
:08A87E008EF4D28E43884022C3
:10A8230075840253C8FB75C90853C8FD53E7FB750C
:09A83300CBFF75CAB843C804222A
:109DE10075840F758C67901077E4F0A3E4F0901000
:109DF10077E0FEA3E0FFC3EE6480948150109010E1
:109E010078E004F07006901077E004F080E043976A
:109E110001538A7F43A54043E34043E280758400B8
:019E2100221E
:08A48600900F02EEF0A3EFF0CD
:10A48E007B017A0F7904900F02E0FCA3E0FD129C91
:0DA49E008A7B017A0F7904129749EF60F470
:01A4AB00228E
:109C8A00900F4CEBF0A3EAF0A3E9F0900F4FECF041
:109C9A00A3EDF012A746900F4CE0FBA3E0FAA3E075
:109CAA00F9EE8FF0121713900F4FE0FEA3E0FF902A
:109CBA000F4CE0FBA3E0FAA3E0F97582027583007A
:079CCA00EE8FF012173222A9
:109CD100900F51EBF0A3EAF0A3E9F0900F54ECF0F0
:109CE100A3EDF012A763900F51E0FBA3E0FAA3E00C
:109CF100F9EE8FF0121713900F54E0FEA3E0FF90DE
:109D01000F51E0FBA3E0FAA3E0F97582027583002D
:079D1100EE8FF01217322261
:0B974900900F56EBF0A3EAF0A3E9F04C
:1097540012A746900F59EEF0A3EFF0900F56E0FBDE
:10976400A3E0FAA3E0F9121663FFAEF0900F59E0FC
:10977400FCA3E0FD128C72900F56E0FBA3E0FAA369
:10978400E0F975820275830012168EFDACF0C3EF0A
:0A9794009DEE9C50037F00227F0130
:01979E0022A8
:0B979F00900F5BEBF0A3EAF0A3E9F0F1
:1097AA0012A763900F5EEEF0A3EFF0900F5BE0FB61
:1097BA00A3E0FAA3E0F9121663FFAEF0900F5EE0A1
:1097CA00FCA3E0FD128C72900F5BE0FBA3E0FAA30E
:1097DA00E0F975820275830012168EFDACF0C3EFB4
:0A97EA009DEE9C50037F00227F01DA
:0197F4002252
:10A74600C2A9900E29E0FEA3E0FF901079EEF0A3D7
:0CA75600EFF0D2A9901079E0FEA3E0FF24
:01A7620022D4
:10A76300C2A9900E21E0FEA3E0FF90107BEEF0A3C0
:0CA77300EFF0D2A990107BE0FEA3E0FF05
:01A77F0022B7
:108C7200900F90EEF0A3EFF0900F92ECF0A3EDF0D6
:108C8200900F90E0FEA3E0FF900F92E0FCA3E0FDC6
:108C9200D3ED9FEC9E4018900F90E0FEA3E0FF9072
:108CA2000F92E0FCA3E0FDC3ED9FFFEC9EFE22903D
:108CB2000F90E0FEA3E0FFC3E49FFFE49EFE900F4F
:0D8CC20092E0FCA3E0FDEF2DFFEE3CFE2252
:1075820075FFDE75FFAD129DE1129E6312A12212FC
:10759200A2E312A83C12A85512AB3C12AB4812ABA4
:1075A2003012A5AC1299E512A1F112AB1612AB235F
:1075B20012A5431298F412322A12A3E612A79C12C1
:1075C200763012A8B412814612A728123E9512886C
:1075D20062125AC612ABDBD2AF7BFF7A71793412D8
:1075E20089B5901033EFF07BFF7A7279AE1289B5CC
:1075F200901034EFF07BFF7A69794C1289B59010C4
:1076020035EFF0901033E0FF7D00129F619010344F
:10761200E0FF7D00129F61901035E0FF7D00129F18
:0D762200617D017F1412539712564980FBC1
:01762F002238
:0CAB3C00C2A875840F43E34043E20422EA
:0CAB4800C2AA75840F43E34043E21022D0
:03000300020009EF
:0100090032C4
:0300130002000ADE
:01000A0032C3
:06ABD4009010B3E004F054
:01ABDA002258
:03001B0002A9AC8B
:10A9AC00C0E0C083C08212ABD4D082D083D0E0325E
:03002B0002A9BC6B
:10A9BC00C0E0C083C08212ABD4D082D083D0E0324E
:0300430002A9CC43
:10A9CC00C0E0C083C08212ABD4D082D083D0E0323E
:03004B0002A9DC2B
:10A9DC00C0E0C083C08212ABD4D082D083D0E0322E
:0300530002A9EC13
:10A9EC00C0E0C083C08212ABD4D082D083D0E0321E
:03005B0002A9FCFB
:10A9FC00C0E0C083C08212ABD4D082D083D0E0320E
:0300630002AA0CE2
:10AA0C00C0E0C083C08212ABD4D082D083D0E032FD
:03006B0002AA1CCA
:10AA1C00C0E0C083C08212ABD4D082D083D0E032ED
:0300830002AA2CA2
:10AA2C00C0E0C083C08212ABD4D082D083D0E032DD
:03008B0002AA3C8A
:10AA3C00C0E0C083C08212ABD4D082D083D0E032CD
:0300930002AA4C72
:10AA4C00C0E0C083C08212ABD4D082D083D0E032BD
:03009B0002AA5C5A
:10AA5C00C0E0C083C08212ABD4D082D083D0E032AD
:0300AB0002AA6C3A
:10AA6C00C0E0C083C08212ABD4D082D083D0E0329D
:10322A007F0012A7D4AE02AF01900B83EEF0A3EF9A
:10323A00F07F0112A7D4AE02AF01900AFEEEF0A30E
:10324A00EFF0900B83E0FEA3E0FFAA06A9077B013B
:10325A00128945900AFEE0FEA3E0FFAA06A9077BB1
:10326A00011289457BFF7A9979961289B5900B826A
:10327A00EFF07BFF7A9979451289B5900B85EFF0CB
:10328A00900B85E0FF7D00129F617BFF7A70797257
:10329A001289B5900B27EFF07BFF7A73796912894F
:1032AA00B5900AEAEFF0900B27E0FF7D00129F61CC
:1032BA00900AEAE0FF7D00129F617BFF7A8D792CEC
:1032CA001289B5900AD8EFF0900B19E4F0900B121E
:1032DA00E4F0900B37E4F0A3E4F0900B66E4F0A37B
:1032EA00E4F0900B237407F0A37408F07BFF7A785C
:1032FA0079D41289B5900B42EFF07BFF7A8D79E091
:10330A001289B5900B63EFF07BFF7A8E793A1289B6
:10331A00B5900AE9EFF07BFF7A8E79941289B5901D
:10332A000B4CEFF07BFF7A8D79861289B5900AF7FC
:10333A00EFF07BFF7A94798E1289B5900AF5EFF057
:10334A007BFF7A7A79A81289B5900B7BEFF07BFF25
:10335A007A9479E61289B5900B3EEFF07BFF7A8E6C
:10336A0079EE1289B5900AE4EFF07BFF7A8F7948FB
:10337A001289B5900B76EFF07BFF7A7A790F128972
:10338A00B5900B11EFF07BFF7A87797E1289B590A1
:10339A000AECEFF07BFF7A8F79A21289B5900AF2D4
:1033AA00EFF07BFF7A8F79FC1289B5900ADBEFF098
:1033BA007BFF7A9579EE1289B5900B04EFF07BFFCB
:1033CA007A95793E1289B5900B5FEFF07BFF7A7F91
:1033DA0079B21289B5900B6EEFF07BFF7A9079562D
:1033EA001289B5900B07EFF07BFF7A9079B01289BA
:1033FA00B5900B22EFF07BFF7A7D79881289B59020
:10340A000B32EFF07BFF7A7D79881289B5900B3207
:10341A00EFF07BFF7A91790A1289B5900B00EFF0F1
:10342A007BFF7A9179641289B5900B16EFF07BFFD6
:10343A007A8379CB1289B5900B29EFF07BFF7A8AD0
:10344A0079F21289B5900B2CEFF07BFF7A667959E5
:10345A001289B5900B7CEFF07BFF7A9179BE1289C5
:10346A00B5900B46EFF07BFF7A9679451289B590B5
:10347A000AFBEFF07BFF7A96799C1289B5900AEBEA
:10348A00EFF07BFF7A7779881289B5900B01EFF01C
:10349A007BFF7A8679221289B5900B5EEFF07BFF6B
:1034AA007A9279181289B5900AF8EFF07BFF7A922E
:1034BA0079721289B5900B49EFF07BFF7A7B7940DC
:1034CA001289B5900B28EFF07BFF7A80793912893F
:1034DA00B5900AEFEFF07BFF7A8A798D1289B59061
:1034EA000B3DEFF07BFF7A6079201289B5900B2FA4
:1034FA00EFF07BFF7A9279CC1289B5900B45EFF009
:10350A007BFF7A8B79B41289B5900B62EFF07BFF5F
:10351A007A9579961289B5900B51EFF07BFF7A93E1
:10352A0079261289B5900B75EFF07BFF7A9379DAD9
:10353A001289B5900B15EFF07BFF7A937980128987
:10354A00B5900B0EEFF07BFF7A6879541289B5902B
:10355A000AF6EFF0900AF6E0FF7D00129F617BFF0A
:0D356A007A9479341289B5900B3FEFF0226E
:05694C00900F60EFF068
:10695100900B83E0FEA3E0FFAA06A9077B01129E2C
:10696100A3900F61EEF0A3EFF0900F61E0FEA3E0C2
:10697100FFEF64FF7003EE64FF6047900B83E0FE5E
:10698100A3E0FFAA06A9077B01900F61E0FCA3E049
:10699100FD127F2BAE02AF01900F63EEF0A3EFF07B
:1069A100900F63E0FEA3E0FFAA06A9077B01120096
:1069B100AE900B83E0FEA3E0FFAA06A9077B0112BC
:1069C10082CF900AFEE0FEA3E0FFAA06A9077B01A1
:1069D100129EA3900F61EEF0A3EFF0900F61E0FE25
:1069E100A3E0FFEF64FF7003EE64FF6047900AFECF
:1069F100E0FEA3E0FFAA06A9077B01900F61E0FC7E
:106A0100A3E0FD127F2BAE02AF01900F63EEF0A366
:106A1100EFF0900F63E0FEA3E0FFAA06A9077B0158
:106A2100124DAC900AFEE0FEA3E0FFAA06A9077B87
:0C6A3100011282CF900F60E0FF129FDA8C
:016A3D002236
:10645000900EBEEBF0A3EAF0A3E9F0900EC1EDF0D0
:10646000900EBEE0FBA3E0FAA3E0F9121501FF7E57
:1064700000900EC2EEF0A3EFF0900EC2E0FCA3E09D
:10648000FD900EBEE0FBA3E0FAA3E0F97582017572
:10649000830012151AFF7E00EF7F00FEEC4EFEED2A
:1064A0004FFF900EC2EEF0A3EFF0900EC1E0FFEFB1
:1064B000B404047F0180027F00900EC4EFF0900EC0
:1064C000BEE0FBA3E0FAA3E0F9E92405F9EA340011
:1064D000FAC003C002C001900EC2E0FEA3E0FFEFCD
:1064E00024FDFDEE34FFFC900EBEE0FBA3E0FAA31A
:1064F000E0F975820375830012151AFF900DACEF59
:10650000F0900EBEE0FBA3E0FAA3E0F975820275FD
:10651000830012151AFF900DADEFF0900EBEE0FB58
:10652000A3E0FAA3E0F975820475830012151AFF3F
:10653000900DAEEFF0900DAF7401F0900EC4E0FF3F
:10654000900DB0EFF0D001D002D003122B57EF60C6
:04655000030264BE20
:016554002224
:0B00AE00900E2BEBF0A3EAF0A3E9F0AA
:1000B900900E2BE0FBA3E0FAA3E0F97582027583A9
:1000C9000012151AFF900E30EFF0900E2BE0FBA3F3
:1000D900E0FAA3E0F975820375830012151AFF90FF
:1000E9000E31EFF0900E2BE0FBA3E0FAA3E0F975D7
:1000F900820575830012151AFF900E2EEFF0900EEF
:100109002BE0FBA3E0FAA3E0F975820475830012E2
:10011900151AFF900E2FEFF0900E31E0FFEFB404A7
:1001290014900E2BE0FBA3E0FAA3E0F9900E31E066
:10013900FD12645022900B127401F07B017A0A7946
:10014900E57D707C17129C8A900E2EE0FFEF121A43
:100159000501E80109926409E1650AC7660973673F
:1001690004BD6803F16A044F6B049E6C06C46D07F5
:10017900136E08946F08F170095471020776034CE5
:1001890077030E7804FB7C054A7D06A57E036B7F09
:10019900038F8003B3810B24840C738804DC8A0CDD
:1001A900C48B032D8D0E788E0EE48F0B62900BF9A4
:1001B900910B439208B3930D159508D2960D8F971D
:1001C9000265980AE6990F03A10821A20F22A3103C
:1001D90007A40B05A50845A603D2FA000010AD90A7
:1001E9000E30E0FF900AF3EFF0900E2FE0FF900A37
:0E01F900F4EFF0900B82E0FF7D00129F612278
:10020700900E2BE0FBA3E0FAA3E0F9E92406F9EA54
:100217003400FAAE02AF01900E32EEF0A3EFF09089
:100227000E30E0FF900B80EFF0900E2FE0FF900B69
:1002370081EFF0900E32E0FEA3E0FF8F828E83E025
:10024700FF900E32E0FCA3E0FD8D828C83A3E0FDDE
:0E025700125397900B63E0FF7D00129F61220F
:10026500900E2BE0FBA3E0FAA3E0F9E92406F9EAF6
:100275003400FAAE02AF01900E32EEF0A3EFF0902B
:100285000E30E0FF900B17EFF0900E2FE0FF900B74
:1002950018EFF0900E32E0FEA3E0FFAA06A9077B57
:1002A50001128697900E32E0FEA3E0FFEF2402FFD5
:1002B500EE3400FEAA06A9077B01128697900E323E
:1002C500E0FEA3E0FF8F828E83E0FEA3E0FF900EA9
:1002D50032E0FCA3E0FD8D828C83A3A3E0FCA3E0C8
:1002E500FD900E32E0FAA3E0FB8B828A83E582243F
:1002F50004F582E5833400F583E0FB1287F0900A6C
:09030500F7E0FF7D00129F612268
:10030E00900E30E0FF900B13EFF0900E2FE0FF9069
:10031E000B14EFF0900AF5E0FF7D00129F61229022
:10032E000E30E0FF900AEDEFF0900E2FE0FF900AF6
:10033E00EEEFF0900B7BE0FF7D00129F6122900E9E
:10034E0030E0FF900B64EFF0900E2FE0FF900B6506
:10035E00EFF0900B3EE0FF7D00129F6122900E3079
:10036E00E0FF900B02EFF0900E2FE0FF900B03EFEB
:10037E00F07F01128CCF900AE4E0FF7D00129F61A6
:10038E0022900E30E0FF900ADEEFF0900E2FE0FF8D
:10039E00900ADFEFF07F00128CCF900B76E0FF7D9E
:1003AE0000129F6122900E30E0FF900B35EFF0901F
:1003BE000E2FE0FF900B36EFF0900B11E0FF7D005B
:1003CE00129F6122900E30E0FF900B0AEFF0900E1C
:1003DE002FE0FF900B0BEFF0900AECE0FF7D001288
:0303EE009F6122EA
:1003F100900E2BE0FBA3E0FAA3E0F9E92406F9EA69
:100401003400FAAE02AF01900E32EEF0A3EFF0909D
:100411000E30E0FF900B0FEFF0900E2FE0FF900BEE
:1004210010EFF0900E32E0FEA3E0FF8F828E83E0AA
:10043100FF900E32E0FCA3E0FD8D828C83A3E0FDF2
:0E04410012A652900AF2E0FF7D00129F612287
:10044F00900E2BE0FBA3E0FAA3E0F9E92406F9EA0A
:10045F003400FAAE02AF01900E32EEF0A3EFF0903F
:10046F000E30E0FF900AFCEFF0900E2FE0FF900AA5
:10047F00FDEFF0900E32E0FEA3E0FF8F828E83E05F
:0F048F00FF12A40E900ADBE0FF7D00129F612296
:10049E00900E30E0FF900B30EFF0900E2FE0FF90BB
:1004AE000B31EFF0900B04E0FF7D00129F61229064
:1004BE000E30E0FF900B79EFF0900E2FE0FF900BD7
:1004CE007AEFF0900B5FE0FF7D00129F6122900E9D
:1004DE0030E0FF900AD9EFF0900E2FE0FF900ADA8D
:0D04EE00EFF0900B6EE0FF7D00129F612289
:1004FB00900E2BE0FBA3E0FAA3E0F9E92406F9EA5E
:10050B003400FAAE02AF01900E32EEF0A3EFF09092
:10051B000E30E0FF900B33EFF0900E2FE0FF900BBF
:10052B0034EFF0900E32E0FEA3E0FF8F828E83E07B
:0F053B00FF12A4F8900B07E0FF7D00129F6122D2
:10054A00900E2BE0FBA3E0FAA3E0F9E92406F9EA0E
:10055A003400FAAE02AF01900E32EEF0A3EFF09043
:10056A000E30E0FF900B40EFF0900E2FE0FF900B63
:10057A0041EFF0900E32E0FEA3E0FFEF2406FFEE1B
:10058A003400FEAA06A9077B01C003C002C001907D
:10059A000E32E0FEA3E0FFEF2406FFEE3400FEAACF
:1005AA0006A9077B01900DEAEBF0A3EAF0A3E9F0B4
:1005BA00900DEDE4F0A3740FF0D001D002D0031235
:1005CA006B2A900E32E0FEA3E0FFEF240CFFEE341C
:1005DA0000FEAA06A9077B01C003C002C001900E53
:1005EA0032E0FEA3E0FFEF2418FFEE3400FEAA0675
:1005FA00A9077B01900DDBEBF0A3EAF0A3E9F090E9
:10060A000E32E0FEA3E0FF8F828E83E5822406F598
:10061A0082E5833400F583E0FEA3E0FF900DDEEE71
:10062A00F0A3EFF0900E32E0FEA3E0FF8F828E83FC
:10063A00E5822408F582E5833400F583E0FEA3E031
:10064A00FF900DE0EEF0A3EFF0900E32E0FEA3E093
:10065A00FF8F828E83E582240AF582E5833400F5D2
:10066A0083E0FEA3E0FF900DE2EEF0A3EFF0900E20
:10067A0032E0FEA3E0FFAA06A9077B01900DE4EB96
:10068A00F0A3EAF0A3E9F0D001D002D0031259AEE8
:0B069A00900B22E0FF7D00129F612208
:1006A500900E30E0FF900B5CEFF0900E2FE0FF9086
:0F06B5000B5DEFF0900B32E0FF7D00129F612292
:1006C400900E2BE0FBA3E0FAA3E0F9E92406F9EA93
:1006D4003400FAAE02AF01900E32EEF0A3EFF090C8
:1006E4000E30E0FF900B2AEFF0900E2FE0FF900BFE
:1006F4002BEFF0900E32E0FEA3E0FF8F828E83E0BA
:0F070400FF12A18A900B00E0FF7D00129F61227F
:10071300900E2BE0FBA3E0FAA3E0F9E92406F9EA43
:100723003400FAAE02AF01900E32EEF0A3EFF09078
:100733000E30E0FF900B3BEFF0900E2FE0FF900B9D
:100743003CEFF0900E32E0FEA3E0FFAA06A9077B80
:1007530001128697900E32E0FEA3E0FFEF2402FF22
:10076300EE3400FEAA06A9077B01128697900E328B
:10077300E0FEA3E0FFEF2406FFEE3400FEAA06A985
:10078300077B01128697900E32E0FEA3E0FF8F8273
:100793008E83E0FEA3E0FFC006C007900E32E0FEAA
:1007A300A3E0FF8F828E83A3A3E0FCA3E0FD900E62
:1007B30032E0FEA3E0FF8F828E83E5822404F5827C
:1007C300E5833400F583E0FB900E32E0FEA3E0FF07
:1007D3008F828E83E5822405F582E5833400F583D9
:1007E300E0FF900F31EFF0D007D006129BF7900E89
:1007F30032E0FEA3E0FF8F828E83E5822406F5823A
:10080300E5833400F583E0FEA3E0FF900B23EEF0D5
:0E081300A3EFF0900B16E0FF7D00129F612214
:10082100900E30E0FF900B05EFF0900E2FE0FF905F
:100831000B06EFF07F0012AABC900AE9E0FF7D00F1
:04084100129F61227F
:10084500900E2BE0FBA3E0FAA3E0F9E92406F9EA10
:100855003400FAAE02AF01900E32EEF0A3EFF09045
:100865000E32E0FEA3E0FF8F828E83E0FF12AA7CAA
:10087500900E30E0FF900B71EFF0900E2FE0FF909F
:0F0885000B72EFF0900B4CE0FF7D00129F612291
:10089400900E30E0FF900B47EFF0900E2FE0FF90AA
:1008A4000B48EFF0900B29E0FF7D00129F6122902E
:1008B4000E30E0FF900B4AEFF0900E2FE0FF900B0C
:1008C4004BEFF0900B2CE0FF7D00129F6122900E05
:1008D40030E0FF900AF0EFF0900E2FE0FF900AF165
:0D08E400EFF0900B7CE0FF7D00129F612281
:1008F100900E2BE0FBA3E0FAA3E0F9E92406F9EA64
:100901003400FAAE02AF01900E32EEF0A3EFF09098
:100911000E30E0FF900B6CEFF0900E2FE0FF900B8C
:100921006DEFF0900E32E0FEA3E0FFAA06A9077B6F
:1009310001128697900E32E0FEA3E0FF8F828E8334
:10094100E0FEA3E0FF12A012900B46E0FF7D001233
:030951009F612281
:10095400900E30E0FF900B25EFF0900E2FE0FF900B
:100964000B26EFF0900AFBE0FF7D00129F612290BE
:100974000E30E0FF900B08EFF0900E2FE0FF900B8D
:0E09840009EFF0900AEBE0FF7D00129F612268
:10099200900E2BE0FBA3E0FAA3E0F9E92406F9EAC2
:1009A2003400FAAE02AF01900E32EEF0A3EFF090F7
:1009B2000E32E0FEA3E0FF8F828E83E0FF129B6186
:1009C200900E30E0FF900B1EEFF0900E2FE0FF90A4
:0F09D2000B1FEFF0900AF8E0FF7D00129F6122EB
:1009E100900E2BE0FBA3E0FAA3E0F9E92406F9EA73
:1009F1003400FAAE02AF01900E32EEF0A3EFF090A8
:100A01000E32E0FEA3E0FFAA06A9077B011286973A
:100A1100900E32E0FEA3E0FFEF2403FFEE3400FE70
:100A2100AA06A9077B01128697900E32E0FEA3E089
:100A3100FFEF2405FFEE3400FEAA06A9077B011291
:100A41008697900E32E0FEA3E0FF8F828E83E0FE58
:100A5100A3E0FFC006C007900E32E0FEA3E0FF8FC7
:100A6100828E83A3A3E0FD900E32E0FEA3E0FF8F10
:100A7100828E83A3A3A3E0FAA3E0FB900E32E0FEF3
:100A8100A3E0FF8F828E83E5822405F582E583341E
:100A910000F583E0FEA3E0FF900EDFEEF0A3EFF0A0
:100AA100D007D006125F11900E30E0FF900B6FEF70
:100AB100F0900E2FE0FF900B70EFF0900B49E0FFEC
:060AC1007D00129F61227E
:100AC700900E30E0FF900B43EFF0900E2FE0FF9079
:100AD7000B44EFF0900B28E0FF7D00129F612290FE
:100AE7000E30E0FF900B0CEFF0900E2FE0FF900B15
:100AF7000DEFF0900AEFE0FF7D00129F6122900E4C
:100B070030E0FF900B60EFF0900E2FE0FF900B614D
:100B1700EFF0900B3DE0FF7D00129F6122900E30B9
:100B2700E0FF900B2DEFF0900E2FE0FF900B2EEFD4
:100B3700F0900B01E0FF7D00129F6122900E30E0E4
:100B4700FF900B77EFF0900E2FE0FF900B78EFF010
:0B0B5700900B5EE0FF7D00129F61220A
:100B6200900E2BE0FBA3E0FAA3E0F9E92406F9EAF0
:100B72003400FAAE02AF01900E32EEF0A3EFF09025
:100B82000E34E4F0900E30E0FF900B52EFF0900E36
:100B92002FE0FF900B53EFF0900E32E0FEA3E0FF48
:100BA2008F828E83E0FF900B54EFF0900E32E0FEC6
:100BB200A3E0FF8F828E83A3E0FF900B55EFF090AE
:100BC2000B567401F0900B2FE0FF12A780900E34A9
:100BD200EFF0900E34E0FFEF640270030210AD906C
:100BE2000E34E0FFEF640370030210AD900B2FE0B0
:070BF200FF7D00129F61224C
:100BF900900E2BE0FBA3E0FAA3E0F9E92406F9EA59
:100C09003400FAAE02AF01900E32EEF0A3EFF0908D
:100C19000E30E0FF900B6AEFF0900E2FE0FF900B83
:100C29006BEFF0900E32E0FEA3E0FFEF2401FFEE40
:100C39003400FEAA06A9077B01128697900E32E0BE
:100C4900FEA3E0FF8F828E83E0FF900E32E0FCA3CB
:100C5900E0FD8D828C83A3E0FCA3E0FD12A0EC9063
:0A0C69000B45E0FF7D00129F6122A1
:100C7300900E3274C8F0900E337488F0900E34E402
:100C8300F07B017A0E7932900E30E0FF900DACEFDD
:100C9300F0900DAD7403F0900E2FE0FF900DAEEFCA
:100CA300F0900DAF7401F0900DB0E4F07D037C0083
:100CB300122B57EF70CB7F0F7E0012A48675EF02C5
:010CC300220E
:100CC400900E2BE0FBA3E0FAA3E0F9E92406F9EA8D
:100CD4003400FAAE02AF01900E32EEF0A3EFF090C2
:100CE4000E30E0FF900AF9EFF0900E2FE0FF900A2B
:100CF400FAEFF0900E32E0FEA3E0FF8F828E83E0E5
:100D0400FF900B19EFF0900AD8E0FF7D00129F616D
:010D140022BC
:100D1500900E2BE0FBA3E0FAA3E0F9E92406F9EA3B
:100D25003400FAAE02AF01900E32EEF0A3EFF09070
:100D35000E30E0FF900ADCEFF0900E2FE0FF900AF6
:100D4500DDEFF0900E32E0FEA3E0FFEF2401FFEEB1
:100D55003400FEAA06A9077B01128697900E32E0A1
:100D6500FEA3E0FF8F828E83E0FF900E32E0FCA3AE
:100D7500E0FD8D828C83A3E0FCA3E0FD12A33F90F0
:0A0D85000B75E0FF7D00129F612254
:100D8F00900E2BE0FBA3E0FAA3E0F9E92406F9EAC1
:100D9F003400FAAE02AF01900E32EEF0A3EFF090F6
:100DAF000E30E0FF900B39EFF0900E2FE0FF900B1D
:100DBF003AEFF0900E32E0FEA3E0FFEF2401FFEEDA
:100DCF003400FEAA06A9077B01128697900E32E027
:100DDF00FEA3E0FFEF2403FFEE3400FEAA06A907EF
:100DEF007B01128697900E32E0FEA3E0FFEF240501
:100DFF00FFEE3400FEAA06A9077B01128697900E1C
:100E0F0032E0FEA3E0FF8F828E83E0FFC007900EDB
:100E1F0032E0FEA3E0FF8F828E83A3E0FCA3E0FD10
:100E2F00900E32E0FEA3E0FF8F828E83A3A3A3E098
:100E3F00FAA3E0FB900E32E0FEA3E0FF8F828E83D9
:100E4F00E5822405F582E5833400F583E0FEA3E017
:100E5F00FF900ED8EEF0A3EFF0D00712741F900B97
:090E6F0015E0FF7D00129F6122D5
:100E7800900E2BE0FBA3E0FAA3E0F9E92406F9EAD7
:100E88003400FAAE02AF01900E32EEF0A3EFF0900C
:100E98000E34E4F0900E30E0FF900B7DEFF0900EF2
:100EA8002FE0FF900B7EEFF0900E32E0FEA3E0FF04
:100EB800AA06A9077B01126A3E900E34EFF0900E45
:100EC80034E0FFEF60047F0080027F01900B7FEF2A
:0C0ED800F0900B62E0FF7D00129F612291
:100EE400900E30E0FF900B73EFF0900E2FE0FF9028
:100EF4000B74EFF0900B51E0FF7D00129F61229084
:100F04000E30E0FF900B68EFF0900E2FE0FF900B97
:0E0F140069EFF0900B42E0FF7D00129F61221A
:100F2200900E2BE0FBA3E0FAA3E0F9E92406F9EA2C
:100F32003400FAAE02AF01900E32EEF0A3EFF09061
:100F42000E32E0FEA3E0FFEF2403FFEE3400FEAA20
:100F520006A9077B01128697900E32E0FEA3E0FFFE
:100F6200EF2405FFEE3400FEAA06A9077B011286D4
:100F720097900E30E0FF900B20EFF0900E2FE0FFE5
:100F8200900B21EFF0900E32E0FEA3E0FF8F828EF5
:100F920083E0FFC007900E32E0FEA3E0FF8F828E57
:100FA20083A3E0FD900E32E0FEA3E0FF8F828E83EA
:100FB200A3A3E0FB900E32E0FEA3E0FF8F828E83BC
:100FC200A3A3A3E0FEA3E0FF900E82EEF0A3EFF056
:100FD200900E32E0FEA3E0FF8F828E83E58224052D
:100FE200F582E5833400F583E0FEA3E0FF900E84F2
:100FF200EEF0A3EFF0D007126DE4900B0EE0FF7D50
:0510020000129F6122B5
:10100700900E2BE0FBA3E0FAA3E0F9E92406F9EA46
:101017003400FAAE02AF01900E32EEF0A3EFF0907B
:101027000E30E0FF900B4DEFF0900E2FE0FF900B8E
:101037004EEFF0900E32E0FEA3E0FF8F828E83E04A
:10104700FF900B4FEFF0900E32E0FEA3E0FF8F8290
:101057008E83A3E0FF900B50EFF0900B50E0FFEF73
:10106700121A05107701108302108F03000010A3D6
:10107700900B4FE0FD7F0A1253978020900B4FE0B3
:10108700FD7F0D1253978014900B4FE0FD7F0A12DE
:101097005397900B4FE0FD7F0D125397900B3FE056
:0610A700FF7D00129F61B5
:0110AD002220
:0B4DAC00900E5BEBF0A3EAF0A3E9F02F
:104DB700900E5BE0FBA3E0FAA3E0F975820275832E
:104DC7000012151AFF900E60EFF0900E5BE0FBA348
:104DD700E0FAA3E0F975820375830012151AFF90B4
:104DE7000E61EFF0900E5BE0FBA3E0FAA3E0F9752C
:104DF700820575830012151AFF900E5EEFF0900E74
:104E07005BE0FBA3E0FAA3E0F97582047583001267
:104E1700151AFF900E5FEFF0900E61E0FFEFB401FF
:104E270014900E5BE0FBA3E0FAA3E0F9900E61E0BB
:104E3700FD12645022900E5EE0FFEF121A054EA598
:0B4E4700CA4EF0CC4E52D800004F5F66
:104E5200900E5BE0FBA3E0FAA3E0F9E92406F9EA8D
:104E62003400FAAE02AF01900E62EEF0A3EFF090C2
:104E72000E62E0FEA3E0FFEF2401FFEE3400FEAA83
:104E820006A9077B01128697900E62E0FEA3E0FF5F
:104E92008F828E83A3E0FEA3E0FF900B37EEF0A398
:034EA200EFF0220C
:104EA500900E5BE0FBA3E0FAA3E0F9E92406F9EA3A
:104EB5003400FAAE02AF01900E62EEF0A3EFF0906F
:104EC5000E62E0FEA3E0FF8F828E83E0FF900E620C
:104ED500E0FCA3E0FD8D828C83E5822404F582E568
:0B4EE500833400F583E0FD12A671226B
:104EF000900E5BE0FBA3E0FAA3E0F9E92406F9EAEF
:104F00003400FAAE02AF01900E62EEF0A3EFF09023
:104F10000E62E0FEA3E0FFAA06A9077B01C003C062
:104F200002C001900E62E0FEA3E0FFAA06A9077B83
:104F300001900DEAEBF0A3EAF0A3E9F0900DEDE4A7
:104F4000F0A37406F0D001D002D003126B2A900EA9
:0F4F500062E0FEA3E0FFAA06A9077B011297F516
:014F5F00222F
:0599960090107DEFF0D0
:10999B0090107E7401F07B017A10797E900AF3E0CF
:1099AB00FF900DACEFF0900DAD7403F0900AF4E066
:1099BB00FF900DAEEFF0900DAF7401F0900DB0E491
:1099CB00F07D017C00122B57EF70067FFF129F9EDC
:0999DB002290107DE0FF129FDADA
:0199E4002260
:058D2C00900F94EFF030
:108D3100900F9574C8F0900F96748BF0900F97E494
:108D4100F07B017A0F7995900AF9E0FF900DACEF75
:108D5100F0900DAD7403F0900AFAE0FF900DAEEFC4
:108D6100F0900DAF7401F0900DB0E4F07D037C0044
:108D7100122B57EF70067FFF129F9E22900F94E0F7
:048D8100FF129FDA64
:018D850022CB
:058D8600900F98EFF0D2
:108D8B00900F9974C8F0900F9A7498F0900F9BE421
:108D9B00F07B017A0F7999900B17E0FF900DACEFF8
:108DAB00F0900DAD7403F0900B18E0FF900DAEEF4B
:108DBB00F0900DAF7401F0900DB0E4F07D037C00EA
:108DCB00122B57EF70067FFF129F9E22900F98E099
:048DDB00FF129FDA0A
:018DDF002271
:058DE000900F9CEFF074
:108DE500900F9D74C8F0900F9E7476F0900F9FE4DD
:108DF500F07B017A0F799D900B80E0FF900DACEF31
:108E0500F0900DAD7403F0900B81E0FF900DAEEF87
:108E1500F0900DAF7401F0900DB0E4F07D037C008F
:108E2500122B57EF70067FFF129F9E22900F9CE03A
:048E3500FF129FDAAF
:018E39002216
:058E3A00900FA0EFF015
:108E3F00900FA174C8F0900FA274A2F0900FA3E44A
:108E4F00F07B017A0F79A1900B05E0FF900DACEF4D
:108E5F00F0900DAD7403F0900B06E0FF900DAEEFA8
:108E6F00F0900DAF7401F0900DB0E4F07D037C0035
:108E7F00122B57EF70067FFF129F9E22900FA0E0DC
:048E8F00FF129FDA55
:018E930022BC
:058E9400900FA4EFF0B7
:108E9900900FA574C8F0900FA674A6F0900FA7E4E0
:108EA900F07B017A0F79A5900B71E0FF900DACEF83
:108EB900F0900DAD7403F0900B72E0FF900DAEEFE2
:108EC900F0900DAF7401F0900DB0E4F07D037C00DB
:108ED900122B57EF70067FFF129F9E22900FA4E07E
:048EE900FF129FDAFB
:018EED002262
:05948E00900F65EFF0F6
:10949300900F6674DAF07B017A0F796712623B7B77
:1094A300017A0F7966900B13E0FF900DACEFF0900B
:1094B3000DAD7403F0900B14E0FF900DAEEFF09040
:1094C3000DAF7401F0900DB0E4F07D047C00122B1D
:1094D30057EF70067FFF129F9E22900F65E0FF12E9
:0294E3009FDA0E
:0194E5002264
:057AA800900CC5EFF099
:107AAD00900CC674EFF07B017A0C79C77D087F00CE
:107ABD0012824F7B017A0C79D77D177F00127EA140
:107ACD007B017A0C79C7C003C002C0017B017A0C1F
:107ADD0079C7900DEAEBF0A3EAF0A3E9F0900DED74
:107AED00E4F0A37420F0D001D002D003126B2A7BF6
:107AFD00017A0C79C6900AEDE0FF900DACEFF09095
:107B0D000DAD7403F0900AEEE0FF900DAEEFF09026
:107B1D000DAF7401F0900DB0E4F07D417C00122B9F
:107B2D0057EF70067FFF129F9E22900CC5E0FF124B
:027B3D009FDACD
:017B3F002223
:0594E600900E98EFF06C
:1094EB00900E9974D9F07B017A0E799A12A0807B39
:1094FB00017A0E7999900B64E0FF900DACEFF09030
:10950B000DAD7403F0900B65E0FF900DAEEFF09096
:10951B000DAF7401F0900DB0E4F07D077C00122BC1
:10952B0057EF70067FFF129F9E22900E98E0FF125E
:02953B009FDAB5
:01953D00220B
:058EEE00900FA8EFF059
:108EF300900FA974C8F0900FAA747FF0900FABE4A1
:108F0300F07B017A0F79A9900B02E0FF900DACEF93
:108F1300F0900DAD7403F0900B03E0FF900DAEEFF6
:108F2300F0900DAF7401F0900DB0E4F07D037C0080
:108F3300122B57EF70067FFF129F9E22900FA8E01F
:048F4300FF129FDAA0
:018F47002207
:058F4800900FACEFF0FA
:108F4D00900FAD74C8F0900FAE7480F0900FAFE439
:108F5D00F07B017A0F79AD900ADEE0FF900DACEF5A
:108F6D00F0900DAD7403F0900ADFE0FF900DAEEFC1
:108F7D00F0900DAF7401F0900DB0E4F07D037C0026
:108F8D00122B57EF70067FFF129F9E22900FACE0C1
:048F9D00FF129FDA46
:018FA10022AD
:057A0F00900E64EFF091
:107A1400900E6674DFF0900E65E4F0900E65E0FF62
:107A2400EFC39403503A900E65E0FF12A89D900EA8
:107A340065E0FE74672EF582E4340EF583EFF09072
:107A44000E65E0FF12A886900E65E0FE746A2EF5BE
:107A540082E4340EF583EFF0900E65E004F080BB11
:107A64007B017A0E7966900B35E0FF900DACEFF058
:107A7400900DAD7403F0900B36E0FF900DAEEFF077
:107A8400900DAF7401F0900DB0E4F07D077C00120E
:107A94002B57EF70067FFF129F9E22900E64E0FF2B
:037AA400129FDA54
:017AA70022BC
:05877E00900F08EFF070
:10878300900F09E4F0900F0A74FBF07F06124A2A57
:10879300900F0BEFF07F07124A2A900F0CEFF07F38
:1087A30005124A2A900F0DEFF07B017A0F790A9098
:1087B3000B0AE0FF900DACEFF0900DAD7403F09059
:1087C3000B0BE0FF900DAEEFF0900DAF7401F09046
:1087D3000DB0E4F07D047C00122B57EF70067FFF91
:0C87E300129F9E22900F08E0FF129FDA08
:0187EF002267
:058FA200900FB0EFF09C
:108FA700900FB174C8F0900FB2746AF0900FB3E4E9
:108FB700F07B017A0F79B1900B0FE0FF900DACEFCA
:108FC700F0900DAD7403F0900B10E0FF900DAEEF35
:108FD700F0900DAF7401F0900DB0E4F07D037C00CC
:108FE700122B57EF70067FFF129F9E22900FB0E063
:048FF700FF129FDAEC
:018FFB002253
:058FFC00900FB4EFF03E
:10900100900FB574C8F0900FB6746BF0900FB7E481
:10901100F07B017A0F79B5900AFCE0FF900DACEF7F
:10902100F0900DAD7403F0900AFDE0FF900DAEEFEE
:10903100F0900DAF7401F0900DB0E4F07D037C0071
:10904100122B57EF70067FFF129F9E22900FB4E004
:04905100FF129FDA91
:0190550022F8
:0595EE00901036EFF0C3
:1095F30090103774CFF012ABF4901038EFF07B017A
:109603007A107937900B30E0FF900DACEFF0900DAE
:10961300AD7403F0900B31E0FF900DAEEFF0900DC1
:10962300AF7401F0900DB0E4F07D027C00122B5773
:10963300EF70067FFF129F9E22901036E0FF129F6D
:01964300DA4C
:019644002203
:05953E00900DFFEFF0AD
:10954300900E0074EBF07B017A0E7901129ACB7BBB
:10955300017A0E7900900B79E0FF900DACEFF0905B
:109563000DAD7403F0900B7AE0FF900DAEEFF09029
:109573000DAF7401F0900DB0E4F07D0B7C00122B65
:1095830057EF70067FFF129F9E22900DFFE0FF12A0
:029593009FDA5D
:0195950022B3
:057FB200900D07EFF047
:107FB700900D0874ECF07B017A0D79091254F07B6F
:107FC700017A0D7909C003C002C0017B017A0D79DE
:107FD70009900DF6EBF0A3EAF0A3E9F0900DF9E4B0
:107FE700F0A3740AF0D001D002D00312523A7B01F9
:107FF7007A0D7908900AD9E0FF900DACEFF0900D5B
:10800700AD7403F0900ADAE0FF900DAEEFF0900D3B
:10801700AF7401F0900DB0E4F07D297C00122B576E
:10802700EF70067FFF129F9E22900D07E0FF129FC1
:01803700DA6E
:018038002225
:05905600900FB8EFF0DF
:10905B00900FB974C8F0900FBA747CF0900FBBE40A
:10906B00F07B017A0F79B9900B33E0FF900DACEFE9
:10907B00F0900DAD7403F0900B34E0FF900DAEEF5C
:10908B00F0900DAF7401F0900DB0E4F07D037C0017
:10909B00122B57EF70067FFF129F9E22900FB8E0A6
:0490AB00FF129FDA37
:0190AF00229E
:0590B000900FBCEFF081
:1090B500900FBD74C8F0900FBE747DF0900FBFE4A3
:1090C500F07B017A0F79BD900B40E0FF900DACEF7E
:1090D500F0900DAD7403F0900B41E0FF900DAEEFF5
:1090E500F0900DAF7401F0900DB0E4F07D037C00BD
:1090F500122B57EF70067FFF129F9E22900FBCE048
:04910500FF129FDADC
:019109002243
:057D8800900DBAEFF0C0
:107D8D00900DBB74DDF012AC00900DBCEFF07B01DB
:107D9D007A0D79BD12984A782876007828E6FFEF9B
:107DAD00C39406501F7828E6FF7E02EF8EF0A4FFE5
:107DBD00AEF074BD2FF9740D3EFA7B0112869778E3
:107DCD00280680D77B017A0D79BB900B5CE0FF9084
:107DDD000DACEFF0900DAD7403F0900B5DE0FF90E6
:107DED000DAEEFF0900DAF7401F0900DB0E4F07D9D
:107DFD000E7C00122B57EF70067FFF129F9E229074
:077E0D000DBAE0FF129FDA3D
:017E1400224B
:05910A00900FC0EFF022
:10910F00900FC174C8F0900FC2746DF0900FC3E44C
:10911F00F07B017A0F79C1900B2AE0FF900DACEF35
:10912F00F0900DAD7403F0900B2BE0FF900DAEEFB0
:10913F00F0900DAF7401F0900DB0E4F07D037C0062
:10914F00122B57EF70067FFF129F9E22900FC0E0E9
:04915F00FF129FDA82
:0191630022E9
:05916400900FC4EFF0C4
:10916900900FC574C8F0900FC6746EF0900FC7E4E5
:10917900F07B017A0F79C5900B3BE0FF900DACEFC6
:10918900F0900DAD7403F0900B3CE0FF900DAEEF45
:10919900F0900DAF7401F0900DB0E4F07D037C0008
:1091A900122B57EF70067FFF129F9E22900FC4E08B
:0491B900FF129FDA28
:0191BD00228F
:0583CB00900F0EEFF021
:1083D000900F13E4F0900F0F74D0F012ABE8900FF1
:1083E00010EFF012A4AC900F11EFF012A5F1900F66
:1083F00012EFF0900F12E0FFEF6006900F13E00411
:10840000F07B017A0F790F900B47E0FF900DACEFF6
:10841000F0900DAD7403F0900B48E0FF900DAEEFBF
:10842000F0900DAF7401F0900DB0E4F07D047C008D
:10843000122B57EF70067FFF129F9E22900F0EE0C7
:04844000FF129FDAAE
:018444002215
:058AF200900FC8EFF039
:108AF700900FC974F2F012AACC900FCAEEF0A3EF50
:108B0700F07B017A0F79CA1286977B017A0F79C9B0
:108B1700900B4AE0FF900DACEFF0900DAD7403F0B1
:108B2700900B4BE0FF900DAEEFF0900DAF7401F09E
:108B3700900DB0E4F07D037C00122B57EF70067F99
:0D8B4700FF129F9E22900FC8E0FF129FDAE0
:018B540022FE
:05665900900D66EFF05A
:10665E00900D6774F4F012AACC900D68EEF0A3EFD3
:10666E00F07B017A0D796812869712AADB900D6A7B
:10667E00EEF0A3EFF07B017A0D796A12869712ABDA
:10668E0088900D6CEEF0A3EFF07B017A0D796C1211
:10669E00869712AB91900D6EEEF0A3EFF07B017A20
:1066AE000D796E12869712AB9A900D70EEF0A3EFE5
:1066BE00F07B017A0D797012869712ABA3900D7252
:1066CE00EEF0A3EFF07B017A0D797212869712AA83
:1066DE00EA900D7412197E7B017A0D7974126FA0F7
:1066EE0012AAF9900D7812197E7B017A0D79781223
:1066FE006FA012ABAC900D7CEEF0A3EFF07B017AA5
:10670E000D797C1286977B017A0D7967900AF0E0FD
:10671E00FF900DACEFF0900DAD7403F0900AF1E028
:10672E00FF900DAEEFF0900DAF7401F0900DB0E450
:10673E00F07D177C00122B57EF70067FFF129F9E85
:09674E0022900D66E0FF129FDAB3
:01675700221F
:0591BE00900FCCEFF062
:1091C300900FCD74C8F0900FCE7470F0900FCFE471
:1091D300F07B017A0F79CD900B6CE0FF900DACEF33
:1091E300F0900DAD7403F0900B6DE0FF900DAEEFBA
:1091F300F0900DAF7401F0900DB0E4F07D037C00AE
:10920300122B57EF70067FFF129F9E22900FCCE028
:04921300FF129FDACD
:019217002234
:05964500901039EFF068
:10964A0090103A74D3F012ABFA90103BEFF07B0112
:10965A007A10793A900B25E0FF900DACEFF0900D5F
:10966A00AD7403F0900B26E0FF900DAEEFF0900D75
:10967A00AF7401F0900DB0E4F07D027C00122B571C
:10968A00EF70067FFF129F9E22901039E0FF129F13
:01969A00DAF5
:01969B0022AC
:05969C0090103CEFF00E
:1096A10090103D74E8F012AC1290103EEFF07B0187
:1096B1007A10793D900B08E0FF900DACEFF0900D22
:1096C100AD7403F0900B09E0FF900DAEEFF0900D3B
:1096D100AF7401F0900DB0E4F07D027C00122B57C5
:1096E100EF70067FFF129F9E2290103CE0FF129FB9
:0196F100DA9E
:0196F2002255
:05778800900EA0EFF0DF
:10778D00900EA174E5F0900EA2741EF0900EA374ED
:10779D001FF07D007F0A128C13EF5401FF900EA491
:1077AD00EFF07D007F0A128C13EF7803CEC313CE5A
:1077BD0013D8F9FF900EA5EFF07D017F0A128C13FF
:1077CD00EF5401FF900EA6EFF07D017F0A128C138E
:1077DD00EF7803CEC313CE13D8F9FF900EA7EFF0B9
:1077ED007B017A0E79A1900B2DE0FF900DACEFF09F
:1077FD00900DAD7403F0900B2EE0FF900DAEEFF0F9
:10780D00900DAF7401F0900DB0E4F07D077C001287
:10781D002B57EF70067FFF129F9E22900EA0E0FF68
:03782D00129FDACD
:017830002235
:05862200900FD0EFF005
:10862700900FD174F1F07B017A0F79D2C003C002A9
:10863700C0017B017A0F79D3900EFFEBF0A3EAF02C
:10864700A3E9F0D001D002D00312A1567B017A0F23
:1086570079D1900B77E0FF900DACEFF0900DAD74F2
:1086670003F0900B78E0FF900DAEEFF0900DAF7434
:1086770001F0900DB0E4F07D037C00122B57EF70F2
:0F868700067FFF129F9E22900FD0E0FF129FDA16
:0186960022C1
:05921800900FD4EFF0FF
:10921D00900FD574C8F0900FD67464F0900FD7E40A
:10922D00F07B017A0F79D5900B1EE0FF900DACEF1E
:10923D00F0900DAD7403F0900B1FE0FF900DAEEFAD
:10924D00F0900DAF7401F0900DB0E4F07D037C0053
:10925D00122B57EF70067FFF129F9E22900FD4E0C6
:04926D00FF129FDA73
:0192710022DA
:05927200900FD8EFF0A1
:10927700900FD974C8F0900FDA7465F0900FDBE4A3
:10928700F07B017A0F79D9900B6FE0FF900DACEF6F
:10929700F0900DAD7403F0900B70E0FF900DAEEF02
:1092A700F0900DAF7401F0900DB0E4F07D037C00F9
:1092B700122B57EF70067FFF129F9E22900FD8E068
:0492C700FF129FDA19
:0192CB002280
:057B4000900EC5EFF0FE
:107B45007B017A0E79C7C003C002C0017B017A0EA2
:107B550079C9900E79EBF0A3EAF0A3E9F07B017AFD
:107B65000E79CB900E7CEBF0A3EAF0A3E9F0D001FF
:107B7500D002D00312989F900EC674C9F07B017A8B
:107B85000E79C71286977B017A0E79C91286977B83
:107B9500017A0E79C6900B43E0FF900DACEFF090A3
:107BA5000DAD7403F0900B44E0FF900DAEEFF09037
:107BB5000DAF7401F0900DB0E4F07D067C00122B42
:107BC50057EF70067FFF129F9E22900EC5E0FF12B1
:027BD5009FDA35
:017BD700228B
:05803900900F14EFF0B0
:10803E007B017A0F7916C003C002C0017B017A0F53
:10804E007918900F23EBF0A3EAF0A3E9F0D001D05A
:10805E0002D003129F23900F1574F5F07B017A0F57
:10806E0079161286977B017A0F79181286977B0103
:10807E007A0F7915900B0CE0FF900DACEFF0900D90
:10808E00AD7403F0900B0DE0FF900DAEEFF0900D80
:10809E00AF7401F0900DB0E4F07D057C00122B570B
:1080AE00EF70067FFF129F9E22900F14E0FF129F2B
:0180BE00DAE7
:0180BF00229E
:058A8D00900FDCEFF08A
:108A9200900FDD74FCF07F14129DA0900FDEEEF0BB
:108AA200A3EFF07B017A0F79DE1286977B017A0FB2
:108AB20079DD900B60E0FF900DACEFF0900DAD749E
:108AC20003F0900B61E0FF900DAEEFF0900DAF74EC
:108AD20001F0900DB0E4F07D037C00122B57EF7093
:0F8AE200067FFF129F9E22900FDCE0FF129FDAAB
:018AF1002262
:05602000900FE0EFF01D
:10602500900FE0E0FFEF121A05603E00607E016010
:10603500B10260D20300006128900B56E0FFEFB477
:106045000112900B577401F0900B56E4F07D007F20
:1060550010125397900B54E0FFEF6017900B55E02B
:10606500FF128445EF70067F01129FDA227F00122E
:106075009FDA227F03129FDA2212A7B8EFB4030634
:106085007F01129FDA22900B57E0FFEF600B7F0331
:10609500129FDA900B57E4F0227B017A0B79587D39
:1060A500647C00129C8A7F02129FDA227B017A0BA4
:1060B5007958129749EF7009900B56E0FFEFB4013C
:0D60C500067F00129FDA227F02129FDA226E
:1060D200900B54E0FD7F10125397900FE174C8F0BB
:1060E200900FE27490F0900FE3E4F07B017A0F7965
:1060F200E1900B52E0FF900DACEFF0900DAD740308
:10610200F0900B53E0FF900DAEEFF0900DAF7401E5
:10611200F0900DB0E4F07D037C00122B57EF600B82
:066122007F03129FDA2248
:056128007F00129FDA68
:01612D00224F
:057072009010B4EFF0E6
:107077009010B4E0FFEF121A05708A0070B7010094
:107087000071337F19129D18EF70087F1A129D182F
:10709700EF60177B017A0B791A900B23E0FCA3E0D2
:1070A700FD129CD17F01129FDA227F00129FDA2204
:1070B7007F19129D18EF70087F1A129D18EF6067ED
:1070C700900B66E0FEA3E0FF900B37E0FCA3E0FD2A
:1070D700C3ED9FFFEC9EFE12A223C3EF9405EE942F
:1070E70000502E7B017A0B791A12979FEF601C7D57
:1070F700007F1A1253977D007F191253977F011251
:10710700AABC12ABBD7F00129FDA227F01129FDA61
:1071170022900B37E0FEA3E0FF900B66EEF0A3EFA3
:0C712700F07F00129FDA227F00129FDA36
:017133002239
:0573690090103FEFF061
:10736E0090103FE0FFEF121A0573840073A00174B2
:10737E0007020000741E7F19129D18EF70087F1A05
:10738E00129D18EF60067F01129FDA227F00129F76
:10739E00DA227F19129D18EF70087F1A129D18EFCE
:1073AE0060519010407499F09010417480F07B0100
:1073BE007A107940900DAC7404F0900DAD7403F01A
:1073CE00900DAEE4F0900DAFE4F0900DB07401F0BE
:1073DE007D027C00122B57EF70137B017A0A79E045
:1073EE007D647C00129C8A7F02129FDA227F01123A
:1073FE009FDA227F00129FDA227B017A0A79E0124D
:10740E009749EF60067F00129FDA227F02129FDA01
:01741E00224B
:0592CC00900FE4EFF03B
:1092D100900FE574C8F0900FE67491F0900FE7E4F9
:1092E100F07B017A0F79E5900B6AE0FF900DACEF0E
:1092F100F0900DAD7403F0900B6BE0FF900DAEEFAD
:10930100F0900DAF7401F0900DB0E4F07D037C009E
:10931100122B57EF70067FFF129F9E22900FE4E001
:04932100FF129FDABE
:019325002225
:058BB400900FE8EFF056
:108BB900900FE974C8F0900FEA748EF0900B7FE083
:108BC900FF900FEBEFF07B017A0F79E9900B7DE0D5
:108BD900FF900DACEFF0900DAD7403F0900B7EE0BB
:108BE900FF900DAEEFF0900DAF7401F0900DB0E471
:108BF900F07D037C00122B57EF70067FFF129F9EBA
:098C090022900FE8E0FF129FDA4F
:018C1200223F
:05959600900F1AEFF038
:10959B00900F1B74F0F07B017A0F791C129B167BDA
:1095AB00017A0F791B900B73E0FF900DACEFF090ED
:1095BB000DAD7403F0900B74E0FF900DAEEFF090D7
:1095CB000DAF7401F0900DB0E4F07D057C00122B13
:1095DB0057EF70067FFF129F9E22900F1AE0FF122B
:0295EB009FDA05
:0195ED00225B
:05932600900FECEFF0D8
:10932B00900FED74C8F0900FEE7495F0900FEFE482
:10933B00F07B017A0F79ED900ADCE0FF900DACEF3A
:10934B00F0900DAD7403F0900ADDE0FF900DAEEFE1
:10935B00F0900DAF7401F0900DB0E4F07D037C0044
:10936B00122B57EF70067FFF129F9E22900FECE09F
:04937B00FF129FDA64
:01937F0022CB
:05938000900FF0EFF07A
:10938500900FF174C8F0900FF274A3F0900FF3E40E
:10939500F07B017A0F79F1900B20E0FF900DACEF97
:1093A500F0900DAD7403F0900B21E0FF900DAEEF42
:1093B500F0900DAF7401F0900DB0E4F07D037C00EA
:1093C500122B57EF70067FFF129F9E22900FF0E041
:0493D500FF129FDA0A
:0193D9002271
:0593DA00900FF4EFF01C
:1093DF00900FF574C8F0900FF67497F0900FF7E4B4
:1093EF00F07B017A0F79F5900B39E0FF900DACEF20
:1093FF00F0900DAD7403F0900B3AE0FF900DAEEFCF
:10940F00F0900DAF7401F0900DB0E4F07D037C008F
:10941F00122B57EF70067FFF129F9E22900FF4E0E2
:04942F00FF129FDAAF
:019433002216
:05943400900FF8EFF0BD
:10943900900FF974C8F0900FFA74A4F0900FFBE440
:10944900F07B017A0F79F9900B4DE0FF900DACEFAD
:10945900F0900DAD7403F0900B4EE0FF900DAEEF60
:10946900F0900DAF7401F0900DB0E4F07D037C0035
:10947900122B57EF70067FFF129F9E22900FF8E084
:04948900FF129FDA55
:01948D0022BC
:109945009010B5EFF09010B5E4F07F00129FDA7D2E
:10995500F47C017FFF1271F3900B19E0FFEF70307B
:10996500900B12E0FFEF7001227B017A0A79E51274
:109975009749EF601B7D007F1A1253977D007F1971
:109985001253977F0012A18A7F0012A4F812ABBD73
:0199950022AF
:0578D400900D4CEFF0E7
:1078D900900D4D74F7F07B017A0D794E7D037F0091
:1078E90012824F7B017A0D79567D0012612E7B0140
:1078F9007A0D795E7D0112612E7B017A0D794EC078
:1079090003C002C0017B017A0D794E900DEAEBF0BC
:10791900A3EAF0A3E9F0900DEDE4F0A3740CF0D024
:1079290001D002D003126B2A7B017A0D794D900B9D
:1079390068E0FF900DACEFF0900DAD7403F0900B83
:1079490069E0FF900DAEEFF0900DAF7401F0900D6E
:10795900B0E4F07D197C00122B57EF70067FFF12FF
:0B7969009F9E22900D4CE0FF129FDA61
:0179740022F0
:10A2230090107FEEF0A3EFF090107FE0FEA3E0FF2D
:10A23300C3EE64809480501190107FE0FEA3E0FF92
:10A24300C3E49FFFE49EFE800890107FE0FEA3E03E
