:10875200900C70EBF0A3EAF0A3E9F0900C70E0FB50
:10876200A3E0FAA3E0F9758205758300121C86FF67
:0187720022E4
:10570400900C73EBF0A3EAF0A3E9F0900C73E0FBC8
:10571400A3E0FAA3E0F9758203758300743B121DBC
:105724001A900C73E0FBA3E0FAA3E0F9758201750B
:105734008300E4121D1A900C73E0FBA3E0FAA3E0CB
:10574400F9758202758300E4121D1A900C73E0FB54
:10575400A3E0FAA3E0F9758205758300E4121D1A2B
:10576400900C73E0FBA3E0FAA3E0F975820475835F
:1057740000E4121D1A900C73E0FBA3E0FAA3E0F915
:10578400E4121D08900C73E0FBA3E0FAA3E0F975A2
:10579400820A758300E4121D1A900C73E0FBA3E0E7
:0F57A400FAA3E0F975820B758300E4121D1A2237
:10457100C0D075D010900C76EBF0A3EAF0A3E9F06F
:10458100900C76E0FBA3E0FAA3E0F9758202758353
:1045910000121C86FF900C76E0FBA3E0FAA3E0F981
:1045A100758201758300121C86FEEEB5171D900CF5
:1045B10076E0FBA3E0FAA3E0F975820575830012AA
:1045C1001C86FFEF60057F03024675900C76E0FBC9
:1045D100A3E0FAA3E0F9758201758300121C86FF3E
:1045E1007E00900C76E0FBA3E0FAA3E0F9E9240D4C
:1045F100F9EA3400FAE92FF9EA3EFAE599121D08C1
:10460100900C76E0FBA3E0FAA3E0F97582037583D1
:1046110000121C86FF900C76E0FBA3E0FAA3E0F900
:10462100758201758300121C86FEEEC39F5018909F
:104631000C76E0FBA3E0FAA3E0F975820175830033
:104641007401121CD58015900C76E0FBA3E0FAA34F
:10465100E0F9758201758300E4121D1A900C76E071
:10466100FBA3E0FAA3E0F9758205758300740112DA
:074671001CD57F01D0D0220F
:0B476700900AF5EBF0A3EAF0A3E9F0E4
:10477200900AF5E0FBA3E0FAA3E0F97582057583E0
:1047820000121C86FFEF70067F032202484FA2AC84
:104792009204C2AC900AF5E0FBA3E0FAA3E0F9753B
:1047A2008202758300121C86FF7E00900AF5E0FBF0
:1047B200A3E0FAA3E0F9E9240DF9EA3400FAE92FBB
:1047C200F9EA3EFA121C6DFF900AF8E0FBA3E0FA48
:1047D200A3E0F9EF121D08900AF5E0FBA3E0FAA3AB
:1047E200E0F9758203758300121C86FF900AF5E0DA
:1047F200FBA3E0FAA3E0F9758202758300121C861E
:10480200FEEEC39F5018900AF5E0FBA3E0FAA3E086
:10481200F97582027583007401121CD58015900A05
:10482200F5E0FBA3E0FAA3E0F9758202758300E4E8
:10483200121D1A900AF5E0FBA3E0FAA3E0F97582D3
:0F4842000575830074FF121CD5A20492AC7F0190
:014851002244
:106D3B00900C79EBF0A3EAF0A3E9F0900C79E0FB6F
:106D4B00A3E0FAA3E0F97582037583007403121DA7
:106D5B001A900C79E0FBA3E0FAA3E0F975820275B7
:106D6B008300E4121D1A900C79E0FBA3E0FAA3E078
:106D7B00F9758201758300E4121D1A900C79E0FB02
:106D8B00A3E0FAA3E0F9758204758300E4121D1ADF
:106D9B00900C79E0FBA3E0FAA3E0F9E4121D0822C2
:10742D00900C7CEBF0A3EAF0A3E9F0900C7CE0FB70
:10743D00A3E0FAA3E0F9758203758300121C86FFA1
:10744D00900C7CE0FBA3E0FAA3E0F9758204758350
:10745D0000121C86FEEEB507057EFF7FFF22900C05
:10746D007CE0FBA3E0FAA3E0F975820275830012BC
:06747D001C86FF7E0022C8
:10627800900B25EBF0A3EAF0A3E9F0900B28ECF0E3
:10628800A3EDF0900B25E0FBA3E0FAA3E0F97582FB
:1062980003758300121C86FF7E00EF24FFFFEE3497
:1062A800FFFE900B28E0FCA3E0FDD3ED9FEE648099
:1062B800F8EC6480985010900B28E0FEA3E0FFC330
:1062C800EE6480948050077B007A00790022900B5E
:1062D80025E0FBA3E0FAA3E0F9E92406F9EA340093
:1062E800FA900B28E0FEA3E0FF7C007D3C121D3CE9
:0762F800E92FF9EA3EFA224A
:106B6900900C7FEBF0A3EAF0A3E9F0900C7FE0FB37
:106B7900A3E0FAA3E0F9758203758300121C86FF6E
:106B8900900C7FE0FBA3E0FAA3E0F975820275831C
:106B9900007401121CD5FEEEB50715900C7FE0FBC1
:106BA900A3E0FAA3E0F9758202758300E4121D1AC5
:106BB900900C7FE0FBA3E0FAA3E0F9E4121D089032
:106BC9000C7FE0FBA3E0FAA3E0F97582047583006A
:066BD9007401121CD5221C
:10859000900C82EBF0A3EAF0A3E9F0900C82E0FBF0
:1085A000A3E0FAA3E0F9758204758300121C86FF2C
:0385B0007E002228
:107D8800900C85EBF0A3EAF0A3E9F0900C85E0FBFA
:107D9800A3E0FAA3E0F9758204758300121C86FF3C
:107DA800EF70057EFF7FFF22900C85E0FBA3E0FAD1
:107DB800A3E0F9758201758300121C86FF7E0022FC
:10671700900C88EBF0A3EAF0A3E9F0900C88E0FB7B
:10672700A3E0FAA3E0F9758204758300121C86FFC3
:10673700EF605B900C88E0FBA3E0FAA3E0F97582B9
:1067470003758300121C86FF900C88E0FBA3E0FA18
:10675700A3E0F97582017583007401121CD5FEEE62
:10676700B50715900C88E0FBA3E0FAA3E0F9758262
:1067770001758300E4121D1A900C88E0FBA3E0FA70
:0F678700A3E0F975820475830074FF121CD522FC
:105E0500900AFBEBF0A3EAF0A3E9F0900AFEECF0B0
:105E1500A3EDF0900AFBE0FBA3E0FAA3E0F9121C66
:105E25006DFFEFC3943C5068900B00E0FFC00790F6
:105E35000AFBE0FBA3E0FAA3E0F9E92406F9EA345A
:105E450000FA900AFEE0FEA3E0FF7C007D3C121DF7
:105E55003CE92FF9EA3EFAC003C002C001900AFBF3
:105E6500E0FBA3E0FAA3E0F9121C6DFF7E00D00170
:105E7500D002D003E92FF9EA3EFAD007EF121D0848
:105E8500900AFBE0FBA3E0FAA3E0F97401121CB34E
:015E950022EA
:05000600C201C200224E
:057DC800900BE8EFF054
:107DCD00900BE97409F0900BE8E0FFEF600D900B5C
:107DDD00EAE4F0A37402F0D200800C900BEAE4F018
:107DED00A3E4F0C200C2017B017A0B79E9124F477F
:097DFD00EFB402037F02227F00B3
:017E06002259
:057C4100900BECEFF0D8
:107C4600900BED7409F0900BECE0FFEF6010900BD9
:107C5600EEE4F0A37403F0300010D201800C900B18
:107C6600EEE4F0A3E4F0C201C2007B017A0B79EDE9
:0C7C7600124F47EFB402037F02227F0090
:017C820022DF
:0880E400900B2AEEF0A3EFF06F
:1080EC00900B2C740AF0900B2AE0FEA3E0FF900B8F
:1080FC002DEEF0A3EFF07B017A0B792C124F47EFAA
:08810C00B402037F02227F0090
:018114002248
:068A3100A201E433FF2264
:0E8970007F41126160EF70037F00227F0222C0
:0E897E001287F4EF640360037F00227F012262
:0B7EFC00900B2FEBF0A3EAF0A3E9F0DD
:107F07007B017A0B7932127155EF6403601E900B77
:107F170032E0FEA3E0FF7E00900B2FE0FBA3E0FA28
:0E7F2700A3E0F9EE8FF0121E327F00227F01E0
:017F35002229
:0C89B5009003EDE4F09003EE74FFF0225C
:0B6EF600900BF0EBF0A3EAF0A3E9F032
:106F01009003EDE0FFEFC3943740037FFF2290032E
:106F1100EDE0FF900BF3EFF0900BF0E0FBA3E0FA54
:106F2100A3E0F9900BF3E0FF75F009EFA424FEF55F
:106F310082E5F03401F583EBF0A3EAF0A3E9F090E8
:106F41000BF3E0FF75F009EFA42402F582E5F034BC
:106F510002F583E4F09003EDE004F0900BF3E0FF21
:016F6100220D
:107E4600900CD6EFF0900CD7EDF0900CD6E0FF75C5
:107E5600F009EFA42402F582E5F03402F5837402FA
:107E6600F0900CD7E0FF900CD6E0FE75F009EEA47A
:0D7E76002401F582E5F03402F583EFF022DF
:107EC000900CF4EFF0900CF4E0FFEFB4FF17900388
:107ED000EEE0FF75F009EFA42402F582E5F034022C
:107EE000F583E4F022900CF4E0FF75F009EFA42490
:0C7EF00002F582E5F03402F583E4F02294
:107FA900900CF5EFF0900CF5E0FF9003EEE0FE7514
:107FB900F009EEA42401F582E5F03402F583EFF02F
:107FC9009003EEE0FF75F009EFA42402F582E5F0D5
:087FD9003402F5837402F0226A
:10559900900C8BEFF0900C8CECF0A3EDF0900C8B51
:1055A900E0FFEF64FF70529003EEE0FF75F009EF42
:1055B900A42402F582E5F03402F5837403F0900324
:1055C900EEE0FF7E09EF8EF0A4FFAEF074032FF931
:1055D90074023EFA7B01C003C002C001900C8CE04A
:1055E900FEA3E0FF7C007D0A121D4EAC06AD07D07C
:1055F90001D002D003127A1622900C8BE0FF75F0CD
:1056090009EFA42402F582E5F03402F5837403F06E
:10561900900C8BE0FF7E09EF8EF0A4FFAEF07403CF
:105629002FF974023EFA7B01C003C002C001900C3D
:105639008CE0FEA3E0FF7C007D0A121D4EAC06AD96
:0B56490007D001D002D003127A162215
:10432B00900CF6E4F09003EDE0FF900CF6E0FEEE5F
:10433B00C39F40030244589003EDE0FF9003EEE06F
:10434B0004FEF0EEB507059003EEE4F09003EEE00B
:10435B00FF75F009EFA42402F582E5F03402F58332
:10436B00E0FFEF640270519003EEE0FF75F009EF90
:10437B00A42402F582E5F03402F5837401F0900376
:10438B00EEE0FF75F009EFA42401F582E5F03402AD
:10439B00F583E0FF9003EEE0FE75F009EEA424FE3A
:1043AB00F582E5F03401F583E0FBA3E0FAA3E0F935
:1043BB0089828A83122025229003EEE0FF75F00993
:1043CB00EFA42402F582E5F03402F583E0FFEF64FD
:1043DB000370719003EEE0FF7E09EF8EF0A4FFAE49
:1043EB00F074032FF974023EFA7B01127483EF64AD
:1043FB000170519003EEE0FF75F009EFA42402F574
:10440B0082E5F03402F5837401F09003EEE0FF7562
:10441B00F009EFA42401F582E5F03402F583E0FF07
:10442B009003EEE0FE75F009EEA424FEF582E5F0B4
:10443B003401F583E0FBA3E0FAA3E0F989828A83D8
:0D444B0012202522900CF6E004F002433010
:014458002241
:10883000900CF7EFF0900CF7E0FF75F009EFA4242F
:0C88400002F582E5F03402F583E0FF222F
:10884C00900CF8EFF0900CF8E0FF75F009EFA42411
:0C885C0001F582E5F03402F583E0FF2214
:0B6C5500900ACBEBF0A3EAF0A3E9F0FB
:106C6000900ACBE0FBA3E0FAA3E0F9900ACEEBF0A8
:106C7000A3EAF0A3E9F0900ACEE0FBA3E0FAA3E0D8
:106C8000F9758201758300121C86FF900AD1EFF01E
:106C9000900ACEE0FBA3E0FAA3E0F9121C6DFF908E
:106CA0000ACEE0FBA3E0FAA3E0F975820175830048
:106CB000EF121D1A900AD1E0FF900ACEE0FBA3E08C
:086CC000FAA3E0F9EF121D0830
:016CC80022A9
:10888300900C8EEBF0A3EAF0A3E9F0900C8EE0FBE2
:0A889300A3E0FAA3E0F9126C5522ED
:0B51C100900AD2EBF0A3EAF0A3E9F0A3
:1051CC00900AD2E0FBA3E0FAA3E0F9900AD5EBF049
:1051DC00A3EAF0A3E9F0900AD5E0FBA3E0FAA3E080
:1051EC00F9758203758300121C86FF900AD8EFF0C4
:1051FC00900AD5E0FBA3E0FAA3E0F9121C6DFF9036
:10520C000AD5E0FBA3E0FAA3E0F9758203758300ED
:10521C00EF121D1A900AD8E0FF900AD5E0FBA3E02C
:10522C00FAA3E0F9EF121D08900AD5E0FBA3E0FA0F
:10523C00A3E0F9758202758300121C86FF900AD8D0
:10524C00EFF0900AD5E0FBA3E0FAA3E0F975820138
:10525C00758300121C86FF900AD5E0FBA3E0FAA32D
:10526C00E0F9758202758300EF121D1A900AD8E0DE
:10527C00FF900AD5E0FBA3E0FAA3E0F97582017573
:06528C008300EF121D1A61
:0152920022F9
:10889D00900C91EBF0A3EAF0A3E9F0900C91E0FBC2
:0A88AD00A3E0FAA3E0F91251C12282
:0B485200900A19EBF0A3EAF0A3E9F0D4
:10485D00900A1F74FF75F0FF121DB9AFF0FEEF4EF9
:10486D00700302493A900A1FE0FEA3E0FFEF25E036
:10487D00FFEE33FE900A19E0FBA3E0FAA3E0F98FF7
:10488D00828E83121DFAFDACF0900A1FE0FEA3E0AC
:10489D00FFEF25E0FFEE33FE900A1CE0FBA3E0FAEC
:1048AD00A3E0F98F828E83EC8DF0121E51900A1FBA
:1048BD00E0FEA3E0FFEF25E0FFEE33FE900A1CE0E3
:1048CD00FBA3E0FAA3E0F9E92FF9EA3EFA900A21F9
:1048DD00EBF0A3EAF0A3E9F0900A21E0FBA3E0FAE4
:1048ED00A3E0F9758201758300121C86FF900A24DE
:1048FD00EFF0900A21E0FBA3E0FAA3E0F9121C6DA2
:10490D00FF900A21E0FBA3E0FAA3E0F9758201759F
:10491D008300EF121D1A900A24E0FF900A21E0FB9C
:0D492D00A3E0FAA3E0F9EF121D0802485DB7
:01493A00225A
:1078EA00900AA3EBF0A3EAF0A3E9F0900AA3E0FB65
:1078FA00A3E0FAA3E0F9C003C002C001900AA6E01F
:10790A00FBA3E0FAA3E0F9900A1CEBF0A3EAF0A3C8
:10791A00E9F0900AA9E0FEA3E0FF900A1FEEF0A3A7
:0C792A00EFF0D001D002D003124852222E
:0B3F5400900A25EBF0A3EAF0A3E9F0CF
:103F5F00900A2B74FF75F0FF121DB9AFF0FEEF4EF4
:103F6F0070030240B0900A2BE0FEA3E0FFEF78024F
:103F7F00C333CE33CED8F9FF900A25E0FBA3E0FA86
:103F8F00A3E0F98F828E83121F9BC004C005C00669
:103F9F00C007900A2BE0FEA3E0FFEF7802C333CEF9
:103FAF0033CED8F9FF900A28E0FBA3E0FAA3E0F99B
:103FBF008F828E83D007D006D005D004121FCB90EE
:103FCF000A2BE0FEA3E0FFEF7802C333CE33CED847
:103FDF00F9FF900A28E0FBA3E0FAA3E0F9E92FF933
:103FEF00EA3EFA900A2DEBF0A3EAF0A3E9F0900A6B
:103FFF002DE0FBA3E0FAA3E0F975820375830012AD
:10400F001C86FF900A30EFF0900A2DE0FBA3E0FA38
:10401F00A3E0F9121C6DFF900A2DE0FBA3E0FAA3B9
:10402F00E0F9758203758300EF121D1A900A30E0D4
:10403F00FF900A2DE0FBA3E0FAA3E0F9EF121D08B1
:10404F00900A2DE0FBA3E0FAA3E0F97582027583D5
:10405F0000121C86FF900A30EFF0900A2DE0FBA3B0
:10406F00E0FAA3E0F9758201758300121C86FF90B8
:10407F000A2DE0FBA3E0FAA3E0F975820275830035
:10408F00EF121D1A900A30E0FF900A2DE0FBA3E01B
:10409F00FAA3E0F9758201758300EF121D1A023F32
:0140AF005FB1
:0140B00022ED
:10793600900AABEBF0A3EAF0A3E9F0900AABE0FB08
:10794600A3E0FAA3E0F9C003C002C001900AAEE0CA
:10795600FBA3E0FAA3E0F9900A28EBF0A3EAF0A370
:10796600E9F0900AB1E0FEA3E0FF900A2BEEF0A347
:0C797600EFF0D001D002D003123F5422E9
:0789F900900B017402F02253
:05616000900C94EFF02B
:1061650012898CEFB401037F0222900B017403F0B6
:106175007D017F12127210C296128A0EAE02AF0115
:10618500900C95EEF0A3EFF0900C94E0FF900C9539
:10619500E0FCA3E0FD8D828C83EFF0900C95E0FE92
:1061A500A3E0FF8F828E83A3E4F0900C95E0FEA31D
:1061B500E0FF8F828E83A3A3E4F07B017A0B790243
:1061C500C003C002C0017BFF7A8579B3900AB8EBA2
:1061D500F0A3EAF0A3E9F0D001D002D0037F037E5B
:0661E50000126DAB7F000B
:0161EB002291
:0B4F4700900B34EBF0A3EAF0A3E9F0BC
:104F520012898CEFB401037F0222900B017403F0DB
:104F62007D017F12127210D296128A0EAE02AF012A
:104F7200900B37EEF0A3EFF0900B34E0FBA3E0FAD6
:104F8200A3E0F9121C6DFF900B37E0FCA3E0FD8D4E
:104F9200828C83EFF0900B34E0FBA3E0FAA3E0F9FC
:104FA200758201758300121DFAFFAEF07F00EEFFDD
:104FB2007E00900B37E0FCA3E0FD8D828C83A3EF93
:104FC200F0900B34E0FBA3E0FAA3E0F975820175DF
:104FD2008300121DFAFFAEF0EF54FFFF900B37E093
:104FE200FCA3E0FD8D828C83A3A3EFF07B017A0BFF
:104FF2007902C003C002C0017BFF7A8579B3900AAF
:10500200B8EBF0A3EAF0A3E9F0D001D002D0037F1D
:08501200037E00126DAB7F006C
:01501A002273
:1085B300C0D075D018900CF9EFF0900CF9E0FFEFF4
:1085C3007008900B017401F08006900B017402F0A7
:0385D300D0D022E3
:10715500900C97EBF0A3EAF0A3E9F0900B01E0FFA8
:10716500EFB403037F0322900B01E0FFEFB4012E80
:10717500900B04E0FF900C97E0FBA3E0FAA3E0F985
:10718500758201758300EF121D1A900B03E0FF90C5
:107195000C97E0FBA3E0FAA3E0F9EF121D087D00D0
:0E71A5007F1212721012000E900B01E0FF22FA
:1087F400900B01E0FFEFB403037F03227D007F129F
:0E880400127210C29612000E900B01E0FF22BD
:10501B0075FFDE75FFAD127E83127CC51288681298
:10502B0089CD1289B512896112762312829D128560
:10503B00F91289C11289F9128A23120006127A5DBC
:10504B001286621284D5122FCC12845ED2AF125309
:10505B005C1260D2128017122D087BFF7A54791DD7
:10506B00126EF6900B39EFF07BFF7A7979CE126ED8
:10507B00F6900B3CEFF07BFF7A667917126EF69089
:10508B000B3DEFF07BFF7A737925126EF6900B3A9E
:10509B00EFF07BFF7A327947126EF6900B3BEFF015
:1050AB00900B3AE0FF900B3BE0FD1287D5128A4F35
:1050BB007D00127E46900B39E0FF7D00127E4690FC
:1050CB000B3AE0FF7D00127E46900B3CE0FF7D002B
:1050DB00127E46900B3DE0FF7D00127E4612432B65
:0250EB0080FB48
:0150ED0022A0
:10801700900CD874E0F0E5EF30E1047F0080027F38
:1080270001900CD9EFF07B017A0C79D8900A36745D
:1080370001F0900A37E4F0900A38E4F07D037C0001
:0380470012347D73
:01804A002213
:03001B00020011CF
:0100110032BC
:03002B00020012BE
:0100120032BB
:03003B00020019A7
:0100190032B4
:0300430002001A9E
:01001A0032B3
:03004B000200218F
:0100210032AC
:1088B700C2CAC2C9C2C875CAFF75CBDB538EDF7582
:0A88C700CCFF75CDFFC2ADD2CA226E
:10886800C28C900B11E4F0A3E4F0438901758AFFF0
:0B887800758CDB538EF7D2A9D28C2246
:03000B000285D695
:1085D600C0E0C083C082C28D900B12E004F070062A
:1085E600900B11E004F0758AFF758CDBD082D08386
:0385F600D0E032A0
:1089180053C9FB53C9FD43C901538EBF53E7FB43FA
:03892800C904225D
:03008300028548AB
:10854800C0E0C0F0C083C082C0D075D00853C9FB5A
:1085580053C97F12726D43C904D0D0D082D083D062
:04856800F0D0E0323D
:107E830075B167900CDAE4F0A3E4F0900CDAE0FE4D
:107E9300A3E0FFC3EE648094815010900CDBE004F8
:107EA300F07006900CDAE004F080E0E5B130E7FB17
:0C7EB30075B28843A50443E34043E2801D
:017EBF0022A0
:0884AE00900B07EEF0A3EFF0C4
:1084B6007B017A0B7909900B07E0FCA3E0FD127AA9
:0E84C600167B017A0B7909127483EFB401F36F
:0184D4002285
:107A1600900B3EEBF0A3EAF0A3E9F0900B41ECF0FB
:107A2600A3EDF0120086900B3EE0FBA3E0FAA3E084
:107A3600F9EE8FF0121E32900B41E0FEA3E0FF90AC
:107A46000B3EE0FBA3E0FAA3E0F975820275830022
:077A5600EE8FF0121E512219
:0B748300900B43EBF0A3EAF0A3E9F04C
:10748E00120086900B46EEF0A3EFF0900B43E0FB5C
:10749E00A3E0FAA3E0F9121DCFFFAEF0900B46E089
:1074AE00FCA3E0FD1271B3900B43E0FBA3E0FAA343
:1074BE00E0F9758202758300121DFAFDACF0C3EF80
:0A74CE009DEE9C50037FFF227F011A
:0174D8002291
:078A00007B017A0B790D22C6
:10008600C2A9900B11E0FEA3E0FF900CDCEEF0A3FA
:0C009600EFF0D2A9900CDCE0FEA3E0FF2C
:0100A200223B
:1071B300900BF4EEF0A3EFF0900BF6ECF0A3EDF0F0
:1071C300900BF4E0FEA3E0FF900BF6E0FCA3E0FDE0
:1071D300D3ED9FEC9E4018900BF4E0FEA3E0FF90EC
:1071E3000BF6E0FCA3E0FDC3ED9FFFEC9EFE2290B7
:1071F3000BF4E0FEA3E0FFC3E49FFFE49EFE900BCD
:0D720300F6E0FCA3E0FDEF2DFFEE3CFE22C7
:107CC500A2AF9206C2AF759850438920758DB8430F
:107CD5008E10D28EC299C298D29CD2AC43884043B2
:107CE5008780D2BCA20692AF43E10443E340C208B9
:107CF500900655E4F09006BAE4F09006547463F0EB
:017D0500225B
:0D89A80053E7BF53F1EF43E30443E34022E4
:03002300026AF27C
:106AF200C0E0C0F0C083C082C0D075D010C2AC303C
:106B0200980BC2987B017A06790B12457130994A2B
:106B1200C2999006BAE0FF900655E0FEEE6F60382B
:106B22009006BAE0FF74562FF582E43406F583E04E
:106B3200FF8F999006BAE0FF7E00EF2401FFEE344A
:106B420000FE7C007D64121D4EAF159006BAEFF078
:106B5200900654E004F08002C208D2ACD0D0D082B9
:076B6200D083D0F0D0E03237
:0300A30002002236
:0100220032AB
:104AFF00900B48EBF0A3EAF0A3E9F0900B4BEDF02D
:104B0F00900B4BE0FF900654E0FEEEC39F50037FE7
:104B1F000122A2AC9207C2AC900B4CE4F0900B4B6D
:104B2F00E0FF900B4CE0FEEEC39F504F900B48E020
:104B3F00FBA3E0FAA3E0F9900B4CE0FF8F827583A3
:104B4F0000121C86FF900655E0FE74562EF582E487
:104B5F003406F583EFF0900655E0FF7E00EF240159
:104B6F00FFEE3400FE7C007D64121D4EAF059006F3
:104B7F0055EFF0900B4CE004F080A2900654E0FF4C
:104B8F00900B4BE0FEC3EF9EFF900654EFF0200812
:104B9F0038D2089006BAE0FF74562FF582E4340637
:104BAF00F583E0FF8F999006BAE0FF7E00EF2401B6
:104BBF00FFEE3400FE7C007D64121D4EAF059006A3
:0F4BCF00BAEFF0900654E004F0A20792AC7F001A
:014BDE0022B4
:078A07007B017A06790B22C6
:107030005306BC000000000000000000000000003B
:107040000000008080805306CF08090A0B0C0D0E4B
:0C7050000F000102030405060700010206
:1085F900C202C203759A07759DFF75F80343A580EA
:1086090043A60F43A54043E10243E34043F6014338
:03861900E6012255
:106DAB00900AB3EEF0A3EFF0900AB5EBF0A3EAF084
:106DBB00A3E9F053E6FE900AB5E0FBA3E0FAA3E0EB
:106DCB00F9AE02AF019006E6EEF0A3EFF0900AB336
:106DDB00E0FEA3E0FF9006E5EFF0900AB8E0FBA31E
:106DEB00E0FAA3E0F99006E2EBF0A3EAF0A3E9F0F6
:106DFB009006BBE4F09006BBE0FF04F074E82FF5BF
:106E0B0082E43406F583E0FF8F9B43E6017F00228B
:030033000241FA8D
:1041FA00C0E0C0F0C083C082C0D075D01820FF03D1
:10420A000242CBC2FF300314E590547FFFEF448093
:10421A00F590E5A054F0FFEF4403F5A09006BBE04B
:10422A00FF7E00EF24FFFFEE34FFFE9006E6E0FC7F
:10423A00A3E0FD8D828C83E5822FF582E5833EF52E
:10424A0083E59BF09006E5E0FF9006BBE0FEEEC337
:10425A009F504830032C90074CE4F090074CE0FF45
:10426A00EFC39414500890074CE004F080EDE590F9
:10427A00547FFFEF4480F590E5A054F0FFEF44012E
:10428A00F5A09006BBE0FF04F074E82FF582E43451
:10429A0006F583E0FF8F9B807D80269006E5E0FF90
:1042AA009006BBE0FEEEB51F189006E2E0FBA3E025
:1042BA00FAA3E0F989828A837F007E001220258092
:1042CA005530FE1AC2FE9006E2E0FBA3E0FAA3E034
:1042DA00F989828A837F027E00122025803830FD88
:1042EA001AC2FD9006E2E0FBA3E0FAA3E0F9898294
:1042FA008A837F037E00122025801B30FC18C2FCB3
:10430A009006E2E0FBA3E0FAA3E0F989828A837FC0
:10431A00047E00122025D0D0D082D083D0F0D0E005
:01432A003260
:0E898C0020020330FB037F0122D2027F002273
:03000E00C2022209
:10721000900CDEEFF0900CDFEDF0900CDFE0FFEF74
:10722000B40135900CDEE0FF74BC2FF582E4340627
:10723000F583E0FFE590547FFEEE4FF590900CDE75
:10724000E0FF74CF2FF582E43406F583E0FFE5A07C
:1072500054F0FEEE4FF5A022E590547FFFEF4480FE
:0D726000F590E5A054F0FFEF4403F5A022E7
:078A0E007B017A0679E822E2
:10895100900CFAEFF0900CFAE0FFEF24FF92032263
:0C705C0049095200010203040506070860
:10829D0075BA0075BC3890095BE4F075BB0075D1FB
:1082AD00077E007F127D007B017A09795C122054D4
:0F82BD0075E80C1288B743E88043E702D2AF227E
:03007B00025E968C
:105E9600C0E0C0F0C083C082C0D075D00853E7FD13
:105EA600C2EDAFBF7E0090095BE0FDED25E0245C0E
:105EB600F582E43409F583EEF0A3EFF090095BE098
:105EC600FFEF25E0245CF582E43409F583C083C046
:105ED60082E0FEA3E0FFEF7F00FED082D083EEF0EB
:105EE600A3EFF090095BE0FFEF25E0245CF582E488
:105EF6003409F583C083C082E0FEA3E0FFADBE7C1B
:105F060000EE4CFEEF4DFFD082D083EEF0A3EFF013
:105F160012840B43E702D0D0D082D083D0F0D0E0F9
:015F26003248
:0580B200900C9AEFF0B4
:1080B70053E7FD900C9AE0FFEF25E0245CF582E49E
:1080C7003409F583E0FEA3E0FF900C9BEEF0A3EFED
:0C80D700F043E702900C9BE0FEA3E0FFEA
:0180E300227A
:10659700900B4DEFF0900B4EEDF0900B4FEBF0A3FF
:1065A700EAF0A3E9F053E7FD900B4DE0FF7E009082
:1065B7000B4EE0FD7C00C3ED9FFFEC9EFEEF240138
:1065C700FFEE3400FEEF25E0FFEE33FEC006C00706
:1065D700900B4DE0FF7E02EF8EF0A4FFAEF0745CEF
:1065E7002FF974093EFA7B01C003C002C001900B6A
:1065F7004FE0FBA3E0FAA3E0F9A801AC02AD03D09A
:1066070001D002D003D007D006121C4743E702226D
:10840B00C0D075D00890095BE004FFF0EFB409050C
:10841B0090095BE4F090095BE0FF74522FF582E466
:0B842B003409F583E0FF8FBBD0D022A6
:078A15007B017A09795C2264
:107623007E007F627D007B017A0779DC1220547E25
:10763300007F037D007B017A0779D81220547E07EF
:107643007FDD900840EEF0A3EFF09007D8E0FFEF66
:1076530004FF7E0090083EEEF0A3EFF09007DBE41A
:0F766300F0900842E4F043D1019007D6E4F02202
:10541D00900CFBEFF0900842E0FFEFC3940A40219F
:10542D00900842E0FFEFC394145016900CFBE0FF80
:10543D00EFB4020D900CFBE4F0900842741EF08066
:10544D0011900842E0FFEFC3940A5006900842E025
:10545D0004F0900CFBE0FFEF121FFB54A70054B9B2
:10546D0001547802548A03000054D6125B9FEF70EA
:10547D00067F03127FA9227F02127FA922127AA42E
:10548D00EF6404600F7F02127FA97DBE7C007FFF59
:10549D00125599227F03127FA9221262FFEF700627
:1054AD007F01127FA9227F00127FA922127AA4EF19
:1054BD006404600F7F02127FA97DBE7C007FFF1206
:0F54CD005599227F01127FA9227F02127FA92207
:105B9F0012898CEFB401037F02229007D77404F0AF
:105BAF00128A0EAE02AF01900C9DEEF0A3EFF090B3
:105BBF000C9DE0FEA3E0FF8F828E837433F0900C78
:105BCF009F7401F0900C9FE0FFEFD394305025901D
:105BDF000C9FE0FF900C9DE0FCA3E0FD8D828C8379
:105BEF00E5822FF582E43583F583E4F0900C9FE096
:105BFF0004F080D07F011289517D017F1112721044
:105C0F00128436C003C002C0017BFF7A86791C90D4
:105C1F000AB8EBF0A3EAF0A3E9F0D001D002D00369
:095C2F007F317E00126DAB7F0095
:015C38002249
:1062FF0012898CEFB401037F02229007D77404F048
:10630F00128A0EAE02AF01900CE0EEF0A3EFF09008
:10631F000CE0E0FEA3E0FF8F828E837434F0900CCC
:10632F00E0E0FEA3E0FF8F828E83A3E4F0900CE009
:10633F00E0FEA3E0FF8F828E83A3A3E4F07F011220
:10634F0089517D017F111272107B017A0779D8C0B4
:10635F0003C002C0017BFF7A86791C900AB8EBF06C
:10636F00A3EAF0A3E9F0D001D002D0037F037E00AF
:05637F00126DAB7F0070
:0163840022F6
:10861C00C0D075D018900CFCEFF0900CFCE0FFEF84
:10862C0070089007D77401F080069007D77402F099
:03863C00D0D02279
:107AA4009007D7E0FFEFB404037F04227D007F1129
:107AB4001272107F001289519007DBE0FFEF75F01E
:107AC40031A424DDF582E43407F583AF82AE8390DC
:107AD4000840EEF0A3EFF09007D67401F012000E08
:067AE4009007D7E0FF222D
:057D0600900CA0EFF05D
:107D0B0053E6FE900840E0FEA3E0FF8F828E83C017
:107D1B0083C082900CA0E0FFD082D08375F002EF7D
:107D2B00121FEFE0FEA3E0FF900CA1EEF0A3EFF02B
:0B7D3B0043E601900CA1E0FEA3E0FF76
:017D4600221A
:105FB600900B13EFF0900B14ECF0A3EDF0900B1692
:105FC600EBF0A3EAF0A3E9F053E6FE900B13E0FF33
:105FD6007E00900B14E0FCA3E0FDC3ED9FFFEC9E5A
:105FE600FEEF2401FFEE3400FEEF25E0FFEE33FE68
:105FF600C006C007900B13E0FF7E02EF8EF0A4FFF1
:10600600AEF0900840E0FCA3E0FDEF2DFFEE3CFE75
:10601600AA06A9077B01C003C002C001900B16E0C7
:10602600FBA3E0FAA3E0F9A801AC02AD03D001D0CE
:0E60360002D003D007D006121C4743E6012219
:10804B00900B19EBF0A3EAF0A3E9F09007D9E0FF4E
:10805B00900B19E0FBA3E0FAA3E0F9EF121D0890D7
:10806B0007DAE0FF900B1CE0FBA3E0FAA3E0F9EFCB
:04807B00121D0822A8
:108436009007DBE0FFC374019FFF9007DBEFF0902E
:1084460007DBE0FF7E31EF8EF0A4FFAEF074DC2F89
:08845600F974073EFA7B0122D4
:068A37009007D6E0FF22CB
:0A7068004200000000420002000890
:10845E0090003F7437F090003FE0FFEF24FEFF9056
:10846E000041EFF07BFF7A297957126EF6900004E7
:08847E00EFF0900043E4F0224E
:102D08007F0A7E001284AE900A3DE4F0900A3DE00E
:102D1800FFEFC394084003022F94900A3DE0FF9010
:102D2800003FE0FB7D007C00124459EF70EC900AF4
:102D38003DE0FF7E37EF8EF0A4FFAEF074452FF92B
:102D480074003EFA7B01900A3DE0FF90003FE0FEF0
:102D5800900B92EEF0126490EF640460D1900A3DFB
:102D6800E0FF7E37EF8EF0A4FFAEF074452FF974C4
:102D7800003EFA7B01900041E0FD126FCC900A44BE
:102D8800EEF0A3EFF0900A3DE0FF75F037EFA424D2
:102D98007AF582E5F03400F583E0FEA3E0FF900ABF
:102DA80044E0FCA3E0FDEDB50713ECB5060F900A6F
:102DB80044E0FEA3E0FFEF4E6003022F6D900A3D52
:102DC800E0FF90003FE0FB7D007C01124459EF706A
:102DD800EC900A3DE0FF7E37EF8EF0A4FFAEF07472
:102DE800452FF974003EFA7B01900A3DE0FF900000
:102DF8003FE0FE900B92EEF0126490EF640460D115
:102E0800900A3DE0FF7E37EF8EF0A4FFAEF07445E8
:102E18002FF974003EFA7B01900041E0FD126FCC5F
:102E2800900A44EEF0A3EFF0900A3DE0FF75F0370A
:102E3800EFA4247AF582E5F03400F583E0FEA3E000
:102E4800FF900A44E0FCA3E0FDED6F7002EC6E60B9
:102E580003022F8B900A44E0FEA3E0FFEF4E7003BD
:102E6800022F8B90003FE0FF900A3EEFF0900A405F
:102E7800E4F0A3E4F0900A3DE0FF75F037EFA424F6
:102E880045F582E5F03400F583AF82AE83900A42BF
:102E9800EEF0A3EFF0900A3EE0FFEFD3940050036A
:102EA800022F4D900A3DE0FF126CC9EF70F59000BB
:102EB80007E0FF128328EF640460F3900A40E0FE05
:102EC800A3E0FF7E00EF540FFFC374109FFF900A2A
:102ED8003FEFF0900A3DE0FF900A40E0FCA3E0FDE0
:102EE800900A42E0FAA3E0FBA9037B01900A3FE0C5
:102EF800FE900A12EEF0123C4CEF70D7900007E0FB
:102F0800FF128328EF640460F3900A3EE0FF900A02
:102F18003FE0FEC3EF9EFF900A3EEFF0900A3FE0CD
:102F2800FF7E00900A41E02FF0900A40E03EF090CA
:102F38000A3FE0FF7E00900A43E02FF0900A42E04B
:102F48003EF0022E9D900043E0FF900A3DE0FE74A3
:102F580001A806088002C333D8FCFEEF4EFF90009C
:102F680043EFF0801E900043E0FF900A3DE0FE74BE
:102F780001A806088002C333D8FCFEEF4EFF90007C
:102F880043EFF0900A3DE004F0022D14900043E076
:062F9800FFEF64FF602D55
:102F9E00900A4674E5F0900043E0FF900A47EFF088
:102FAE007B017A0A7946900A367401F0900A37E46A
:0D2FBE00F0900A38E4F07D027C0012347DB2
:012FCB0022E3
:106A0200900B52EEF0A3EFF0900B54EBF0A3EAF0F0
:106A1200A3E9F090003FE0FF7E00C006C007900BA4
:106A220052E0FEA3E0FF7C007D37121D3C74452F2F
:106A3200F974003EFA7B01C003C002C001900B54FE
:106A4200E0FBA3E0FAA3E0F9A801AC02AD03D00198
:106A5200D002D003D007D006121C47900B52E0FEA2
:106A6200A3E0FF7401A807088002C333D8FCFF909B
:086A72000043E0FEEF5EFF228D
:105F2700900B1FEFF0900B20EDF0900B21EBF09012
:105F37000B1FE0FF900005EFF0900B20E0FF9000B3
:105F470006EFF0900B21E0FF900007EFF090004183
:105F5700E0FF7E00900B22E0FBA3E0FAA3E0F9C08C
:105F670003C002C0017B017A007908A801AC02AD29
:105F770003D001D002D003121C47900B22E0FBA3F1
:105F8700E0FAA3E0F9900041E0FD126FCC90003DEC
:105F9700EEF0A3EFF09001FDE4F0900042E4F09002
:0F5FA7000040E4F090003FE0FF900044EFF02254
:052957009008A9EFF05B
:10295C009008A9E0FFEF121FFB298700299E01298F
:10296C00B7022A1B032AD0042AF0052B5F062B7F03
:10297C00072C5D082CB70900002D02900007E0FF22
:10298C00126CC9EF70067F01127FA9227F00127FA3
:10299C00A922900007E0FF128328EF640460067FF1
:1029AC0002127FA9227F01127FA922900044E0FF2E
:1029BC00EFD39410401A900000E0FEA3E0FF7E00DD
:1029CC00EF540FFFC374109FFF9008AAEFF0800A1A
:1029DC00900044E0FF9008AAEFF0900007E0FF9011
:1029EC000000E0FCA3E0FD900002E0FAA3E0FBA9EC
:1029FC00037B019008AAE0FE900A12EEF0123C4C08
:102A0C00EF70067F03127FA9227F02127FA922900A
:102A1C000007E0FF128328EF64047003022ACA7FC8
:102A2C000A7E001284AE9008AAE0FF7E009000019E
:102A3C00E02FF0900000E03EF0900044E0FF9008A2
:102A4C00AAE0FEC3EF9EFF900044EFF09008AAE0CE
:102A5C00FF7E00900003E02FF0900002E03EF0902B
:102A6C000044E0FFEFD3940040067F00127FA922C0
:102A7C0090003FE0FF7E00900000E0FCA3E0FDC36F
:102A8C00ED9FFFEC9EFEEF4E70109000007401F075
:102A9C00A3E4F07F00127FA9800D900000E4F0A366
:102AAC00E4F07F04127FA990003FE0FF900044EF18
:102ABC00F07E007F08900002EEF0A3EFF0227F037F
:102ACC00127FA922900007E0FF90003FE0FB7D0001
:102ADC007C00124459EF70067F05127FA9227F04F7
:102AEC00127FA922900007E0FF7B017A0879AB9056
:102AFC00003FE0FE900B92EEF0126490EF640460E5
:102B0C004C7B017A0879AB900041E0FD126FCC90C0
:102B1C0008E0E0FCA3E0FDEFB5050AEEB504067F86
:102B2C0006127FA9229001FDE0FFEF601490004097
:102B3C00E0FFEF4401FF900040EFF07F06127FA909
:102B4C00229001FD7401F07F00127FA9227F0512F3
:102B5C007FA922900007E0FF90003FE0FB7D007C06
:102B6C0001124459EF70067F07127FA9227F0612CB
:102B7C007FA922900007E0FF7B017A0879AB9000D7
:102B8C003FE0FE900B92EEF0126490EF6404700341
:102B9C00022C577B017A0879AB900041E0FD126F53
:102BAC00CC9008E0E0FCA3E0FDEF6D7002EE6C70E1
:102BBC006990003FE0FF7E00C006C0077B017A00F1
:102BCC007908C003C002C001900007E0FF7E37EF18
:102BDC008EF0A4FFAEF074452FF974003EFA7B0121
:102BEC00A801AC02AD03D001D002D003D007D006AF
:102BFC00121C479008E0E0FEA3E0FF900007E0FD08
:102C0C0075F037EDA4247AF582E5F03400F583EE07
:102C1C00F0A3EFF07F08127FA922900042E0FFEFB3
:102C2C006014900040E0FFEF4402FF900040EFF092
:102C3C007F08127FA9229000007401F0A3E4F090A9
:102C4C0000427401F07F00127FA9227F07127FA936
:012C5C002255
:102C5D009008E274C8F09008E37488F09008E4E4FA
:102C6D00F07B017A0879E2900005E0FF900A36EFDB
:102C7D00F0900006E0FF900A37EFF0900A387401EB
:102C8D00F07D037C0012347DEF7019900040E0FF61
:102C9D00EF700B7F00127FA97FFF127EC0227F098C
:0A2CAD00127FA9227F08127FA922DE
:102CB7009008E274E6F0900007E0FF9008E3EFF079
:102CC700900040E0FF9008E4EFF07B017A0879E29A
:102CD700900A367401F0900A37E4F0900A38E4F06D
:102CE7007D037C0012347DEF700B7F00127FA97F7C
:0B2CF700FF127EC0227F09127FA9227D
:052D02007F00127FA913
:012D070022A9
:068A3D00900004E0FF229E
:10535C0090076FE4F09007D5E4F090076DE4F090BF
:10536C000770E4F0A3E4F0900769E4F0A3E4F09094
:10537C00074DE4F0A37496F090076BE4F0A37496D9
:10538C00F0128A1C9007D4E4F0900767E4F09007C1
:10539C00D3E4F0900CFDE4F0900CFDE0FFEFC3942F
:1053AC000C5050900CFDE0FFEF75F006A4248CF52A
:1053BC0082E43407F583E4F0A3E4F0900CFDE0FF05
:1053CC00EF75F006A4248AF582E43407F583E4F043
:1053DC00A3E4F0900CFDE0FFEF75F006A4248EF52D
:1053EC0082E43407F583E4F0A3E4F0900CFDE004D0
:1053FC00F080A57E007F187D007B017A0779721200
:10540C0020547BFF7A607944126EF6900768EFF0B7
:01541C00226D
:107B3000900CA3EFF0900CA4ECF0A3EDF0900CA34C
:107B4000E0FF90076FEFF0900CA3E0FFEFB40106A9
:107B500090076D7401F0900CA4E0FEA3E0FF900785
:107B600070EEF0A3EFF09007D57401F0900769E490
:057B7000F0A3E4F02287
:1082CC00900CA6EFF0900CA7ECF0A3EDF0900CA79F
:1082DC00E0FEA3E0FF900CA6E0FDED75F006A424F3
:0E82EC008EF582E43407F583EEF0A3EFF02266
:105C3900900A48EFF0900A49EDF0900A4AEBF0A378
:055C4900EAF0A3E9F000
:105C4E00900A48E0FF900A51EFF0900A52E4F0906B
:105C5E000A49E0FF900A51E0FEEEC39F5046900ABB
:105C6E004AE0FBA3E0FAA3E0F9900A52E0FF75F0D8
:105C7E0002EFA4F58285F083121DFAFFAEF0900AB2
:105C8E0051E0FDED75F006A4248EF582E43407F59F
:105C9E0083EEF0A3EFF0900A51E004F0900A52E088
:105CAE0004F080AB900A4DE0FEA3E0FF90076BEE90
:105CBE00F0A3EFF0900A4FE0FEA3E0FF90074DEE49
:045CCE00F0A3EFF060
:015CD20022AF
:0B70F600900BF8EBF0A3EAF0A3E9F028
:1071010012369E900BFBE4F0900BFBE0FFEFC39473
:107111000C5040900BFBE0FFEF75F006A4248CF5BA
:1071210082E43407F583E0FEA3E0FF900BF8E0FB77
:10713100A3E0FAA3E0F9900BFBE0FD75F002EDA4EA
:10714100F58285F083EE8FF0121E51900BFBE00467
:03715100F080B516
:017154002218
:106A7A00900AD9EFF0900ADAEDF0900ADBEBF0A376
:056A8A00EAF0A3E9F0B1
:106A8F00900AD9E0FF900ADEEFF0900ADFE4F09071
:106A9F000ADAE0FF900ADEE0FEEEC39F5044900A50
:106AAF00DBE0FBA3E0FAA3E0F9900ADFE0FF75F06B
:106ABF0002EFA4F58285F083121DFAFFAEF0900A63
:106ACF00DEE0FDED25E02472F582E43407F583EE78
:106ADF00F0A3EFF0900ADEE004F0900ADFE004F09C
:026AEF0080AD78
:016AF1002282
:107FE100900CA9EBF0A3EAF0A3E9F07B017A077901
:107FF10072C003C002C001900CA9E0FBA3E0FAA388
:10800100E0F9A801AC02AD03D001D002D0037E009B
:068011007F18121C47223B
:1087D500900CE2EFF0900CE3EDF0900CE2E0FF90EE
:0F87E50007D2EFF0900CE3E0FF90076EEFF02269
:10732500900CFEEFF0900CFEE0FFEF121FFB733A9E
:10733500000000737890076FE0FFEF70179007D596
:10734500E0FFEFB4010E128A1C9007D5E4F07F0030
:10735500127FA92290076FE0FFEFB401107FFF12A3
:107365007EC090076EE0FF7D01127E46227F0012EF
:097375007FA9227F00127FA922EA
:05324700900CACEFF05B
:10324C00900CADE4F0900CACE0FFEF121FFB32647D
:10325C00013467020000347712369E900CAEE4F015
:10326C00900CAEE0FFEFC394084003023338900C8F
:10327C00AEE0FF74017E00A807088005C333CE338F
:10328C00CED8F9FF900770E0FCA3E0FDEE5CFEEFFA
:10329C005DFFEF4E700302332F900CAEE0FFEF7525
:1032AC00F006A4248EF582E43407F583E0FEA3E057
:1032BC00FFEF4E6064900CAEE0FFEF75F006A424B7
:1032CC008CF582E43407F583E0FEA3E0FF900CAEAE
:1032DC00E0FDED75F006A4248EF582E43407F58349
:1032EC00E0FCA3E0FDC3ED9FEC9E502D900CAEE0F6
:1032FC00FFEF75F006A4248CF582E43407F583E027
:10330C00FEA3E0FFC3EF94D2EE940F500C900CAEE2
:10331C00E0FF7D0112640B800A900CAEE0FF7D0093
:10332C0012640B900CAEE004F002326C7D007F084E
:10333C0012640B7D007F0912640B7D007F0A1264FE
:10334C000B7D007F0B12640B900CAE7408F0900C8C
:10335C00AEE0FFEFD3940B400302341A900CAEE0B6
:10336C00FF74017E00A807088005C333CE33CED886
:10337C00F9FF900770E0FCA3E0FDEE5CFEEF5DFF53
:10338C00EF4E7003023411900CAEE0FFEF75F006B7
:10339C00A4248EF582E43407F583E0FEA3E0FFEF6E
:1033AC004E6062900CAEE0FFEF75F006A4248CF535
:1033BC0082E43407F583E0FEA3E0FF900CAEE0FD61
:1033CC00ED75F006A4248EF582E43407F583E0FC59
:1033DC00A3E0FDC3ED9FEC9E502B900CAEE0FFEFF5
:1033EC0075F006A4248CF582E43407F583E0FEA383
:1033FC00E0FFC3EF94D2EE940F500A900CAEE0FFB6
:10340C007D0112640B900CAEE004F002335A90076D
:10341C006DE0FFEF602E900769E0FEA3E0FFEE5435
:10342C000FFE7F00EFB4001CEEB40F18900769E09C
:10343C00FEA3E0FFEE540FFE7F00900769EEF0A3B1
:10344C00EFF0800590076DE4F012807F7F02127F11
:10345C00A97DAA7C007FFF125599227FFF127EC0A6
:10346C009007D2E0FF7D00127E46227F01127FA9D9
:01347C00222D
:10369E00900987E4F0900988E4F0900989E4F0122B
:1036AE008A37EF70030238A57B017A09796E7D0B9C
:1036BE007C007F00125FB6900767E0FFEFC39404B3
:1036CE00500C900767E004F09009887401F09007A1
:1036DE00D3E0FFEFC39428500C9007D3E004F09092
:1036EE0009897401F0900986E4F0900986E0FFEFF5
:1036FE00C3940C4003023863900986E0FFEF75F027
:10370E0006A4248CF582E43407F583E0FEA3E0FFE3
:10371E00900986E0FDED25E0246EF582E43409F58E
:10372E0083E0FCA3E0FDC3ED9FFFEC9EFE1289D962
:10373E00D3EF9400EE648094904003D38001C35085
:10374E0003023809900988E0FFEF7044900986E083
:10375E00FFEF75F006A4248AF582E43407F583C0E2
:10376E0083C082E0FEA3E0FF900986E0FDED75F0D8
:10377E0006A4248CF582E43407F583E0FCA3E0FD77
:10378E00C3EF9DFFEE9CFED082D083EEF0A3EFF050
:10379E00900986E0FFEF25E0246EF582E43409F50A
:1037AE0083E0FEA3E0FF900986E0FDED75F006A430
:1037BE00248AF582E43407F583EE8FF0121DA39070
:1037CE000767E0FFEFFD7C00900986E0FFEF75F0E4
:1037DE0006A4248AF582E43407F583E0FEA3E0FF15
:1037EE00121D4E900986E0FDED75F006A4248CF5B1
:1037FE0082E43407F583EEF0A3EFF0900986E0FF44
:10380E00EF75F006A4248CF582E43407F583E0FE10
:10381E00A3E0FF900986E0FDED25E0246EF582E43D
:10382E003409F583E0FCA3E0FDC3ED9FFFEC9EFEA3
:10383E001289D9D3EF9464EE64809480400E90097F
:10384E0089E0FFEF70069009877401F0900986E019
:10385E0004F00236F8900987E0FFEF603A900768AF
:10386E00E0FF128830EF702F7B017A09796EC0036A
:10387E00C002C0017B017A07794FA801AC02AD03EB
:10388E00D001D002D0037E007F18121C479007682B
:07389E00E0FF7D00127E46F1
:0138A5002200
:0A640B00900BFCEFF0900BFDEDF09C
:10641500900BFEE4F0A37401F0900BFDE0FFEF603C
:1064250032900769E0FCA3E0FD900BFEE0FEA3E0DF
:10643500FF900BFCE0FBEFA803088005C333CE33C8
:10644500CED8F9FFEC4EFEED4FFF900769EEF0A3B5
:10645500EFF022900769E0FCA3E0FD900BFEE0FE63
:10646500A3E0FF900BFCE0FBEFA803088005C33316
:10647500CE33CED8F9FFEFF4FFEEF4FEEC5EFEED81
:0A6485005FFF900769EEF0A3EFF04F
:01648F0022EA
:10807F00900769E0FEA3E0FFEF54FFF5B0900769AA
:10808F00E0FEA3E0FFEE540FFE7F00EEC4F854F0C5
:10809F00C868FEEFC4540F48FFE5A0540FFEEE4F23
:0380AF00F5A02217
:078A1C0075B00053A00F220A
:0B3DD300900A5EEBF0A3EAF0A3E9F019
:103DDE0012369E900A67E4F0900A67E0FFEFC394F4
:103DEE000C4003023F51900A67E0FF74017E00A869
:103DFE0007088005C333CE33CED8F9FF900770E0A5
:103E0E00FCA3E0FDEE5CFEEF5DFFEF4E7003023FA4
:103E1E0048900A67E0FFEF75F006A4248EF582E461
:103E2E003407F583E0FEA3E0FF90074DE0FCA3E02E
:103E3E00FDC3EF9DFFEE9CFE900A67E0FDED75F071
:103E4E0006A4248CF582E43407F583E0FCA3E0FDA0
:103E5E00C3ED9FEC9E4048900A67E0FFEF75F006B9
:103E6E00A4248EF582E43407F583E0FEA3E0FF90F0
:103E7E00076BE0FCA3E0FDEF2DFFEE3CFE900A6722
:103E8E00E0FDED75F006A4248CF582E43407F5838D
:103E9E00E0FCA3E0FDD3ED9FEC9E5003023F489063
:103EAE000A67E0FF900A5EE0FBA3E0FAA3E0F9EFF9
:103EBE00121D08900A67E0FFEF75F006A4248CF53A
:103ECE0082E43407F583E0FEA3E0FF900A61E0FB95
:103EDE00A3E0FAA3E0F9EE8FF0121E32900A67E02B
:103EEE00FFEF75F006A4248EF582E43407F583E027
:103EFE00FEA3E0FF90074DE0FCA3E0FDC3EF9DFFA6
:103F0E00EE9CFE900A67E0FDED75F006A4248CF59C
:103F1E0082E43407F583E0FCA3E0FDC3ED9FEC9E45
:103F2E0050047F0180027F02900A64E0FBA3E0FA56
:103F3E00A3E0F9EF121D087F0022900A67E004F05B
:053F4E00023DE67F01C9
:013F5300224B
:0560440090098AEFF055
:1060490090098B74E8F07B017A07794FC003C0028D
:10605900C0017B017A09798CA801AC02AD03D0019A
:10606900D002D0037E007F18121C477B017A097980
:106079008CC003C002C0017B017A09798C900A1C8B
:10608900EBF0A3EAF0A3E9F0900A1FE4F0A3740C83
:10609900F0D001D002D0031248527B017A09798BE2
:1060A900900A367401F0900A37E4F0900A38E4F067
:1060B9007D197C0012347DEF70067FFF127EC022AD
:0860C90090098AE0FF127FA993
:0160D10022AC
:0B7072004809E42021222324252627C2
:1060D2009009DBE4F0A3E4F09009D8E4F09009E33E
:1060E200E4F01286A8EF70FA12856CEF70FA12874C
:1060F2000EEF70FA12856CEF70FA900CAF7404F028
:10610200900CB0E4F0A3E4F07B017A0C79AF124F6B
:1061120047EF70F41287F4EFB401F9900CAF74708A
:10612200F0900CB0E4F0A3E4F07B017A0C79AF12AA
:106132004F47EF70F41287F4EFB401F9900CAF748B
:106142000EF0900CB0E4F0A3E4F07B017A0C79AF8E
:0D615200124F47EF70F41287F4EFB401F91B
:01615F00221D
:1086A800900CB27410F0900CB3E4F0A37401F07B5A
:1086B800017A0C79B2124F47EFB402037F02227F8E
:0186C80000B1
:0186C900228E
:1086CA00900CB57411F0900CB6E4F0A37401F07B31
:1086DA00017A0C79B5124F47EFB402037F02227F69
:0186EA00008F
:0186EB00226C
:08811500900B57EEF0A3EFF010
:10811D00900B597401F0900B57E0FEA3E0FF900B0C
:10812D005AEEF0A3EFF07B017A0B7959124F47EF1E
:08813D00B402037F02227F005F
:018145002217
:08814600900B5CEEF0A3EFF0DA
:10814E00900B5E7402F0900B5CE0FEA3E0FF900BD0
:10815E005FEEF0A3EFF07B017A0B795E124F47EFE3
:08816E00B402037F02227F002E
:0181760022E6
:08817700900B61EEF0A3EFF0A4
:10817F00900B637440F0900B61E0FEA3E0FF900B57
:10818F0064EEF0A3EFF07B017A0B7963124F47EFA8
:08819F00B402037F02227F00FD
:0181A70022B5
:0E899A007F01126160EF70037F00227F0222D6
:1086EC00900CB87403F0900CB9E4F0A37401F07B17
:1086FC00017A0C79B8124F47EFB402037F02227F44
:01870C00006C
:01870D002249
:10877300900CBB7403F0900CBCE4F0A3E4F07B0119
:108783007A0C79BB124F47EFB402037F02227F00BA
:0187930022C3
:05004E00900C00EFF032
:10005300900C017405F0900C00E0FF7E00900C0200
:10006300EEF0A3EFF07B017A0C7901124F47EFB466
:0700730002037F02227F005F
:01007A002263
:10870E00900CBE7407F0900CBFE4F0A374FFF07BE6
:10871E00017A0C79BE124F47EFB402037F02227F1B
:01872E00004A
:01872F002227
:0A709300900B66EFF0900B67EDF034
:10709D00900B687408F0900B67E0FF7E00900B6911
:1070AD00EEF0A3EFF0900B69E0FEA3E0FFEF7F00A1
:1070BD00FE900B69EEF0A3EFF0900B69E0FEA3E0FC
:1070CD00FF900B66E0FD7C00EE4CFEEF4DFF900B4C
:1070DD0069EEF0A3EFF07B017A0B7968124F47EF61
:0870ED00B402037F02227F00C0
:0170F5002278
:05838400900C04EFF075
:10838900900C057475F0900C04E0FF7E00900C06CB
:10839900EEF0A3EFF07B017A0C7905124F47EFB4A9
:0783A90002037F02227F00A6
:0183B00022AA
:0881A800900B6BEEF0A3EFF069
:1081B000900B6D7404F0900B6BE0FEA3E0FF900B4E
:1081C0006EEEF0A3EFF07B017A0B796D124F47EF63
:0881D000B402037F02227F00CC
:0181D8002284
:0583B100900C08EFF044
:1083B600900C097470F0900C08E0FF7E00900C0A97
:1083C600EEF0A3EFF07B017A0C7909124F47EFB478
:0783D60002037F02227F0079
:0183DD00227D
:0583DE00900C0CEFF013
:1083E300900C0D740EF0900C0CE0FF7E00900C0EC0
:1083F300EEF0A3EFF07B017A0C790D124F47EFB447
:0784030002037F02227F004B
:01840A00224F
:0A7C8300900B70EFF0900B71EDF024
:107C8D00900B70E0FF74E42FF582E43409F583E086
:107C9D00FF900B72EFF0900B71E0FF7E00900B7375
:107CAD00EEF0A3EFF07B017A0B7972124F47EFB430
:077CBD0002037F02227F0099
:017CC400229D
:0881D900900B75EEF0A3EFF02E
:1081E100900B77740BF0900B75E0FEA3E0FF900B02
:1081F10078EEF0A3EFF07B017A0B7977124F47EF1E
:08820100B402037F02227F009A
:018209002252
:08820A00900B7AEEF0A3EFF0F7
:10821200900B7C740CF0900B7AE0FEA3E0FF900BC5
:108222007DEEF0A3EFF07B017A0B797C124F47EFE2
:08823200B402037F02227F0069
:01823A002221
:0100260022B7
:08823B00900B7FEEF0A3EFF0C1
:10824300900B817450F0900B7FE0FEA3E0FF900B46
:1082530082EEF0A3EFF07B017A0B7981124F47EFA7
:08826300B402037F02227F0038
:01826B0022F0
:08826C00900B84EEF0A3EFF08B
:10827400900B867451F0900B84E0FEA3E0FF900B0A
:1082840087EEF0A3EFF07B017A0B7986124F47EF6C
:08829400B402037F02227F0007
:01829C0022BF
:10856C001287F4900CFFEFF0900CFFE0FFEF640328
:10857C00600F900CFFE0FFEFB401037F00227F023D
:03858C00227F014A
:01858F0022C9
:0B7F3600900B89EBF0A3EAF0A3E9F048
:107F41007B017A0B798C127155EF6403601E900BE3
:107F51008CE0FEA3E0FF7E00900B89E0FBA3E0FA3A
:0E7F6100A3E0F9EE8FF0121E327F00227F01A6
:017F6F0022EF
:106E8900900A68EEF0A3EFF0900A6AECF0A3EDF037
:106E9900900A6CEAF0A3EBF0900A68E0FEA3E0FF29
:106EA9009009D9EEF0A3EFF0900A6AE0FEA3E0FFA3
:106EB9009009DBEEF0A3EFF0900A6CE0FEA3E0FF8F
:106EC9009009DDEEF0A3EFF0900A6EE0FEA3E0FF7B
:106ED9009009DFEEF0A3EFF0900A70E0FF9009E16E
:0D6EE900EFF0900A71E0FF9009E2EFF02257
:0520D800900A53EFF037
:1020DD00900A53E0FFEF121FFB21380021850121EB
:1020ED00970221C30321D504220105222706223A96
:1020FD0007228908229C0922CA0A22DD0B230B0C18
:10210D00231E0D23460E23590F236B1023A41123D9
:10211D00B61223E213240814243515244916248EEF
:0B212D001724A01824D2190000251C64
:10213800900A5B74C8F0900A5C7484F0900A5DE4BD
:10214800F07B017A0A795B9009E1E0FF900A36EFAB
:10215800F09009E2E0FF900A37EFF0900A38740136
:10216800F07D037C0012347DEF700C9009E374015C
:0D217800F07F01127FA9227F00127FA922B3
:102185001286A8EF70067F02127FA9227F01127FB7
:10219500A92212856C900A54EFF0900A54E0FFEFE3
:1021A50064016014900A54E0FFEF70067F03127F0C
:1021B500A9227F01127FA9227F02127FA9221287FD
:1021C50073EF70067F04127FA9227F03127FA92275
:1021D50012856C900A54EFF0900A54E0FFEF640109
:1021E5006014900A54E0FFEF70067F05127FA92264
:1021F5007F03127FA9227F04127FA922900A5674B9
:1022050004F0900A57E4F0A3E4F07B017A0A7956CA
:10221500124F47EF70067F06127FA9227F05127FB6
:10222500A9221287F4EFB401067F0B127FA9227F42
:1022350006127FA922900A567435F09009D9E0FE5E
:10224500A3E0FFE4FCFD7B107A0079007800121E04
:102255007EA804A905AA06AB077F557EA07DFC7C58
:1022650001127BFD900A57EEF0A3EFF07B017A0A8D
:102275007956124F47EF70067F08127FA9227F0714
:10228500127FA9221287F4EFB401067F09127FA9F4
:10229500227F08127FA922900A567431F09009DD39
:1022A500E0FEA3E0FF900A57EEF0A3EFF07B017A82
:1022B5000A7956124F47EF70067F0A127FA9227FCF
:1022C50009127FA9221287F4EFB401067F0D127F50
:1022D500A9227F0A127FA922900A567436F0900926
:1022E500DFE0FEA3E0FF900A57EEF0A3EFF07B01DD
:1022F5007A0A7956124F47EF70067F0C127FA92292
:102305007F0B127FA9221287F4EFB401067F071213
:102315007FA9227F0C127FA922900A567404F0909F
:102325000A577403F0A3743BF07B017A0A795612BD
:102335004F47EF70067F0E127FA9227F0D127FA9EE
:10234500221287F4EFB401067F0F127FA9227F0EB8
:10235500127FA9221286ECEF70067F10127FA92248
:102365007F0F127FA92212856C900A54EFF0900A14
:1023750054E0FFEF64016021900A54E0FFEF701311
:102385007F11127FA99009DBE0FCA3E0FD7FFF121E
:102395005599227F0F127FA9227F10127FA9221241
:1023A5008773EF70067F12127FA9227F11127FA912
:1023B5002212856C900A54EFF0900A54E0FFEF6406
:1023C500016014900A54E0FFEF70067F13127FA995
:1023D500227F11127FA9227F12127FA922900A560D
:1023E5007404F0900A57E4F0A3E4F07B017A0A79CB
:1023F50056124F47EF70067F14127FA9227F1312E2
:102405007FA9221287F4900A55EFF0900A55E0FF54
:10241500EF64036015900A55E0FFEFB401067F15E0
:10242500127FA9227F13127FA9227F14127FA9226E
:102435007F04126160EF70067F16127FA9227F1557
:10244500127FA9227B017A0A7959127155900A5592
:10245500EFF0900A55E0FFEF64036027900A55E01E
:10246500FFEFB40118900A59E0FEA3E0FFEF4E70AC
:10247500067F17127FA9227F13127FA9227F1512CB
:102485007FA9227F16127FA9221286A8EF70067FE8
:1024950018127FA9227F17127FA92212856C900A34
:1024A50054EFF0900A54E0FFEF6401601A900A546B
:1024B500E0FFEF700C9009D8E004F07F19127FA9B6
:0D24C500227F17127FA9227F18127FA92203
:1024D200900A5B74E4F09009D8E0FF900A5CEFF098
:1024E2007B017A0A795B9009E1E0FF900A36EFF00E
:1024F200900A37E4F0900A38E4F07D027C0012344E
:102502007DEF70109009E3E4F07F00127FA97FFF56
:0A251200127EC0227F19127FA92259
:05251C007F00127FA901
:012521002297
:068A43009009E3E0FF22B0
:068A49009009D8E0FF22B5
:1087B500900CE4EFF0900CE5EDF0900CE4E0FF9008
:1087C5000CE5E0FD126385EF70037F00227F022236
:0582FA00900CE6EFF01E
:1082FF00900CE6E0FF128486900CE7EFF0900CE70D
:10830F00E0FFEF6403600F900CE7E0FFEFB40103B1
:08831F007F00227F02227F0192
:018327002233
:10881200900CC1EBF0A3EAF0A3E9F0900CC1E0FBED
:0E882200A3E0FAA3E0F97D077F00126597221C
:057F7000900C10EFF081
:107F7500900C117476F0900C10E0FFEF600A900CF5
:107F850012E4F0A3E4F08009900C12E4F0A374036A
:107F9500F07B017A0C7911124F47EFB402037F028F
:037FA500227F0038
:017FA80022B6
:0A89E50053D4F853D4E743D48022A2
:1084FC00900CE8EEF0A3EFF0900CE8E0FEA3E0FFA8
:10850C00EF54FFF5D2900CE8E0FEA3E0FF7F00EE05
:06851C00FF7E008FD32258
:0A89EF0053D7F853D7E743D780228F
:10852200900CEAEEF0A3EFF0900CEAE0FEA3E0FF7D
:10853200EF54FFF5D5900CEAE0FEA3E0FF7F00EEDA
:06854200FF7E008FD6222F
:0C89C1009008437402F0900844E4F02297
:0D4E7200900ABBEFF0900ABCECF0A3EDF04D
:104E7F0012898CEFB401037F02229008437404F06F
:104E8F00900ABCE0FEA3E0FF900AC0EFF0900ABCCE
:104E9F00E0FEA3E0FFEE5401FE7F00EF7803C33383
:104EAF00CE33CED8F9FF900ABFEFF0900ABFE0FFE4
:104EBF00EF4403FF900ABEEFF0128A0EAE02AF016D
:104ECF00900AC1EEF0A3EFF0900ABEE0FF900AC186
:104EDF00E0FCA3E0FD8D828C83EFF0900AC0E0FF31
:104EEF00900AC1E0FCA3E0FD8D828C83A3EFF090CC
:104EFF000AC1E0FEA3E0FF8F828E83A3A3E4F0C27A
:104F0F0096900ABBE0FF7D011272107B017A08793F
:104F1F0045C003C002C0017BFF7A86793F900AB873
:104F2F00EBF0A3EAF0A3E9F0D001D002D0037F03A6
:074F3F007E00126DAB7F0044
:014F46002248
:10445900900A72EFF0900A73ECF0A3EDF0900A75F0
:02446900EBF076
:10446B0012898CEFB401037F02229008437404F08D
:10447B00900A73E0FEA3E0FF900A78EFF0900A73C6
:10448B00E0FEA3E0FFEE5401FE7F00EF7803C333A1
:10449B00CE33CED8F9FF900A77EFF0900A77E0FF92
:1044AB00EF4403FF900A76EFF0128A0EAE02AF01D3
:1044BB00900A7AEEF0A3EFF0900A76E0FF900A7A7A
:1044CB00E0FCA3E0FD8D828C83EFF0900A78E0FF97
:1044DB00900A7AE0FCA3E0FD8D828C83A3EFF09031
:1044EB000A79E4F0900A75E0FF900A79E0FEEEC3DA
:1044FB009F502F900A79E0FF7E00EF2402FFEE34ED
:10450B0000FE900A7AE0FCA3E0FD8D828C83E582AD
:10451B002FF582E5833EF583E4F0900A79E004F011
:10452B0080C2C296900A72E0FF7D01127210900A4F
:10453B0075E0FF7E00EF2402FFEE3400FE7B017A74
:10454B00087945C003C002C0017BFF7A86793F9092
:10455B000AB8EBF0A3EAF0A3E9F0D001D002D00344
:05456B00126DAB7F00A2
:014570002228
:10493B00900A9AEFF0900A9BECF0A3EDF0900A9D91
:02494B00EBF08F
:10494D00900A9AE0FF7D001272109008437404F0F3
:10495D00900A9BE0FEA3E0FF900AA0EFF0900A9B67
:10496D00E0FEA3E0FFEE5401FE7F00EF7803C333BA
:10497D00CE33CED8F9FF900A9FEFF0900A9FE0FF5B
:10498D00EF4402FF900A9EEFF0128A0EAE02AF01C5
:10499D00900AA1EEF0A3EFF0900A9EE0FF900AA11D
:1049AD00E0FCA3E0FD8D828C83EFF0900AA0E0FF88
:1049BD00900AA1E0FCA3E0FD8D828C83A3EFF09023
:1049CD000A9DE0FF900AA1E0FCA3E0FD8D828C839F
:1049DD00A3A3EFF0900844E4F0900A9AE0FF7D0164
:1049ED001272107B017A087945C003C002C0017BA9
:1049FD00FF7A86793F900AB8EBF0A3EAF0A3E9F0CD
:0F4A0D00D001D002D0037F037E00126DAB7F007B
:014A1C002277
:103C4C00900A0CEFF0900A0DECF0A3EDF0900A0F37
:083C5C00EBF0A3EAF0A3E9F08C
:103C6400900A0CE0FF7D001272109008437404F077
:103C7400900A12E0FF7E00900A0DE0FCA3E0FDEF45
:103C84002DFFEE3CFEEF24FFFFEE34FFFEEEC4F802
:103C940054F0C868FCEFC4540F48FD900A0DE0FED0
:103CA400A3E0FFEEC4F854F0C868FEEFC4540F4814
:103CB400FFD3ED9FEC9E40037F0322900A0DE0FEAC
:103CC400A3E0FF900A15EFF0900A0DE0FEA3E0FFD9
:103CD400EE5401FE7F00EF7803C333CE33CED8F920
:103CE400FF900A14EFF0900A14E0FFEF4402FF90F3
:103CF4000A13EFF0128A0EAE02AF01900A17EEF02B
:103D0400A3EFF0900A13E0FF900A17E0FCA3E0FD94
:103D14008D828C83EFF0900A15E0FF900A17E0FC87
:103D2400A3E0FD8D828C83A3EFF0900A16E4F0905B
:103D34000A12E0FF900A16E0FEEEC39F504A900A72
:103D44000FE0FBA3E0FAA3E0F9900A16E0FF8F82EC
:103D5400758300121C86FF900A16E0FEEEFD7C00BF
:103D6400ED2402FDEC3400FC900A17E0FAA3E0FB1A
:103D74008B828A83E5822DF582E5833CF583EFF01F
:103D8400900A16E004F080A7900844E4F0900A0C2E
:103D9400E0FF7D01127210900A12E0FF7E00EF2412
:103DA40002FFEE3400FE7B017A087945C003C002AD
:103DB400C0017BFF7A86793F900AB8EBF0A3EAF062
:0E3DC400A3E9F0D001D002D003126DAB7F0056
:013DD20022CE
:056CC900900CC4EFF087
:106CCE0012898CEFB401037F02229008437404F002
:106CDE00D2969008447401F0128A0EAE02AF019063
:106CEE000CC5EEF0A3EFF0900CC5E0FEA3E0FF8F15
:106CFE00828E837406F0900CC4E0FF7D0112721038
:106D0E007B017A087945C003C002C0017BFF7A86F9
:106D1E00793F900AB8EBF0A3EAF0A3E9F0D001D0E6
:0C6D2E0002D0037F017E00126DAB7F00DD
:016D3A002236
:10863F00C0D075D018900D00EFF0900D00E0FFEF57
:10864F0070089008437401F080069008437402F09C
:03865F00D0D02256
:10649000900B8EEFF0900B8FEBF0A3EAF0A3E9F0F6
:1064A000900843E0FFEFB404037F0422900843E028
:1064B000FFEF6401704C900B92E0FFEFB401169077
:1064C0000847E0FF900B8FE0FBA3E0FAA3E0F9EFB1
:1064D000121D08802D900B92E0FF7E007B017A0850
:1064E0007947C003C002C001900B8FE0FBA3E0FA24
:1064F000A3E0F9A801AC02AD03D001D002D0031291
:106500001C47900B8EE0FF7D0012721012000E905F
:056510000843E0FF223A
:10832800900D01EFF0900843E0FFEFB404037F04E1
:1083380022900D01E0FF7D00127210900844E0FFCA
:0E834800EF7005C29612000E900843E0FF226F
:106FCC00900AE0EBF0A3EAF0A3E9F0900AE3EDF00D
:106FDC00900AE5E4F0A3E4F0900AE4E4F0900AE30C
:106FEC00E0FF900AE4E0FEEEC39F502F900AE0E031
:106FFC00FBA3E0FAA3E0F9900AE4E0FF8F8275832B
:10700C0000121C86FF7E00900AE6E02FF0900AE545
:10701C00E03EF0900AE4E004F080C2900AE5E0FE65
:03702C00A3E0FFDF
:01702F00223E
:0F8961007BFF7A7279CA126EF6900C1BEFF02230
:0572CA00900C14EFF030
:1072CF00900C14E0FFEF121FFB72E2007308010035
:0372DF0000732415
:1072E200900C157406F0900C16E4F0A3E4F07B0108
:1072F2007A0C7915124F47EF70067F01127FA9228F
:067302007F00127FA922AA
:107308001287F4EF6403600F7F00127FA97DF47C7D
:0C731800017FFF125599227F01127FA90E
:017324002246
:068A4F00900C1BE0FF2269
:108662007BFF7A877994126EF6900C19EFF07BFFFC
:108672007A7B7975126EF6900C18EFF0900C1A74E2
:0386820001F022E2
:10890300900C1AE0FFEF600C900C19E0FF7D607C87
:05891300EA1255992253
:10879400900D02EFF0128A1C7DFF7CFF7F00127B9C
:1087A40030900C18E0FF7D00127E467FFF127EC0E1
:0187B40022A2
:10835600900D03EFF0900D03E0FFEF6013900C1A01
:108366007401F0900C19E0FF7D607CEA12559922A9
:0E837600900C1AE4F0900C19E0FF127EC02269
:057B7500900D04EFF08B
:107B7A00900D04E0FFEF121FFB7B8D007BA101003B
:107B8A00007BB37F00127C41EF70067F01127FA950
:107B9A00227F00127FA92212897EEF70067FFF12D0
:0E7BAA007EC0227F01127FA9227F00127FA9D8
:017BB80022AA
:10892B00539EFC439E01539EF3439E04439E804300
:03893B00E18022B6
:10893E00539FFC439F01539FF3439F04439F8043E8
:03894E00E2012221
:107A5D001289E51289EF12892B12893ED288D28ABA
:107A6D0043E20443E2107BFF7A4C79BF126EF6902D
:107A7D000ACAEFF0900AC3E4F0900AC4E4F0900A49
:107A8D00C5E4F0A3E4F0900AC77401F0900AC8E4CD
:077A9D00F0900AC9E4F02299
:107AEA00900B93EEF0A3EFF0900B95ECF0A3EDF072
:107AFA00900B97EBF0900B93E0FEA3E0FF1284FC4F
:107B0A00900B93E0FEA3E0FF128522900B95E0FE16
:107B1A00A3E0FF900AC5EEF0A3EFF0900B97E0FF09
:067B2A00900AC7EFF022F3
:107E0700900D05EFF0900D05E0FFEF6026900AC397
:107E1700E4F0900AC4E4F0900AC8E4F0900AC9E4D8
:107E2700F0C289C28B12001E900ACAE0FF7D0012C1
:0F7E37007E4622120016900ACAE0FF127EC02279
:054CBF00900CC7EFF0AE
:104CC400900CC7E0FFEF121FFB4CD7004D550100BD
:104CD400004D94900CC8E4F0120016900AC3E0FF53
:104CE400EF7008900AC4E0FFEF604E900AC3E0FF43
:104CF400EF601F900AC3E4F0900AC7E0FF900AC86F
:104D0400E0FEEEC39F400B900AC8E4F0900CC87418
:104D140001F0900AC4E0FFEF601F900AC4E4F09031
:104D24000AC7E0FF900AC9E0FEEEC39F400B900A59
:104D3400C9E4F0900CC87401F012001E900CC8E095
:104D4400FFEF60077F01127FA980067F00127FA911
:014D5400223C
:104D5500900CC974E7F07B017A0C79C9900A367416
:104D650001F0900A37E4F0900A38E4F07D017C0008
:104D750012347DEF70137F00127FA9900AC5E0FC05
:0F4D8500A3E0FD7FFF125599227F01127FA92223
:054D94007F00127FA961
:014D990022F7
:030003000288D19F
:1088D100C0E0C083C082900AC37401F0900AC8E06E
:0988E10004F0D082D083D0E03213
:030013000288EA76
:1088EA00C0E0C083C082900AC47401F0900AC9E053
:0988FA0004F0D082D083D0E032FA
:03001600C2A8225B
:03001E00D2A82243
:0C707D0041053800410591004105340038
:102FCC00128A2AAE02AF019005E1EEF0A3EFF09069
:102FDC0005E1E0FEA3E0FFAA06A9077B01126D3B09
:102FEC007BFF7A667997126EF69005CBEFF07BFF3C
:102FFC007A5C79D3126EF69005D4EFF07BFF7A5A97
:10300C007960126EF6900545EFF07BFF7A4B79DF15
:10301C00126EF690057BEFF07BFF7A527993126E6D
:10302C00F690056DEFF07BFF7A4079B1126EF69059
:10303C0005B5EFF07BFF7A657915126EF6900550A9
:10304C00EFF07BFF7A5079EE126EF69005B4EFF04C
:10305C007BFF7A5D796C126EF69005ECEFF07BFFDE
:10306C007A5479DC126EF690053EEFF07BFF7A25F0
:10307C007922126EF6900586EFF07BFF7A3879A6EE
:10308C00126EF69005C9EFF07BFF7A467978126ED6
:10309C00F690059AEFF07BFF7A58795F126EF690F6
:1030AC000585EFF07BFF7A677996126EF69005B383
:1030BC00EFF07BFF7A767972126EF69005A5EFF041
:1030CC007BFF7A687912126EF690059BEFF07BFF0E
:1030DC007A7679C1126EF69005CAEFF07BFF7A779B
:1030EC007910126EF6900535EFF07BFF7A77795FE9
:1030FC00126EF690058FEFF07BFF7A68798E126E68
:10310C00F6900587EFF07BFF7A797982126EF69054
:10311C00058AEFF07BFF7A7479D9126EF69005E789
:10312C00EFF07BFF7A73797E126EF69005B8EFF0B4
:10313C007BFF7A7779AE126EF69005D0EFF07BFFBD
:10314C007A59790A126EF6900584EFF07BFF7A5962
:10315C0079B5126EF69005B2EFF07BFF7A3A798969
:10316C00126EF6900576EFF07BFF7A2079D8126E0E
:10317C00F6900540EFF07BFF7A757983126EF6902E
:10318C000592EFF07BFF7A6F7962126EF69005D59F
:10319C00EFF07BFF7A5B7902126EF6900578EFF018
:1031AC007BFF7A7B79B9126EF6900553EFF07BFFBB
:1031BC007A4A791D126EF69005AFEFF07BFF7A69B3
:1031CC00790A126EF69005A4EFF07BFF7A69798686
:1031DC00126EF69005D3EFF07BFF7A4D799A126E52
:1031EC00F69005E0EFF07BFF7A7779FD126EF690A2
:1031FC000577EFF07BFF7A75792F126EF690057ECE
:10320C00EFF07BFF7A78794C126EF690053FEFF079
:10321C007BFF7A7579D3126EF690053DEFF07BFF4C
:10322C007A78799B126EF6900590EFF07BFF7A56C8
:0B323C007954126EF69005EBEFF022C3
:05661700900B98EFF06C
:10661C009005E1E0FEA3E0FFAA06A9077B01127D2D
:10662C0088900B99EEF0A3EFF0900B99E0FEA3E0AD
:10663C00FFEF64FF7003EE64FF60479005E1E0FE3E
:10664C00A3E0FFAA06A9077B01900B99E0FCA3E04D
:10665C00FD126278AE02AF01900B9BEEF0A3EFF04F
:10666C00900B9BE0FEA3E0FFAA06A9077B0112009A
:10667C00A69005E1E0FEA3E0FFAA06A9077B0112A4
:0A668C006717900B98E0FF127FA93A
:0166960022E1
:0B00A600900A7CEBF0A3EAF0A3E9F065
:1000B100900A7CE0FBA3E0FAA3E0F9121C6DFF902B
:1000C1000A81EFF0900A7CE0FBA3E0FAA3E0F97566
:1000D1008201758300121C86FF900A82EFF0900A5C
:1000E1007CE0FBA3E0FAA3E0F975820375830012BB
:1000F1001C86FF900A7FEFF0900A7CE0FBA3E0FAF8
:10010100A3E0F9758202758300121C86FF900A80B4
:10011100EFF0900A81E0FFEFB40103128903900A26
:100121007FE0FFEF121FFB01B30101D26402E06522
:1001310002FF66031E6703B06803CF6903EE6A041A
:100141007C6B049B6C04BA6D04D96E052A6F058A19
:100151007005A971065272069873079B7407BA75E8
:1001610008C87608E77709067809257C09637D09BF
:10017100828009FC810A4B820A6A830A89840B9472
:10018100850BFF860C1E870C3D880DFA890E4B8A64
:100191000EA98B0EC88C0F238D09448F0F749010FC
:1001A10039970FC598119C99109E9A11289B0000B0
:1001B1001241900A81E0FF90057CEFF0900A80E007
:1001C100FF90057DEFF0900553E0FF7D00127E4624
:0101D100220B
:1001D200900A7CE0FBA3E0FAA3E0F9E92404F9EA3F
:1001E2003400FAAE02AF01900A83EEF0A3EFF09072
:1001F2000A83E0FEA3E0FFAA06A9077B01C003C0B1
:1002020002C001900A83E0FEA3E0FFAA06A9077BD1
:1002120001900A1CEBF0A3EAF0A3E9F0900A1FE4B4
:10022200F0A3740CF0D001D002D003124852900A0D
:1002320083E0FEA3E0FFEF241AFFEE3400FEAA06DD
:10024200A9077B01126C55900A83E0FEA3E0FFEF41
:100252002418FFEE3400FEAA06A9077B01126C5592
:10026200900A83E0FEA3E0FFAA06A9077B01900A99
:1002720083E0FEA3E0FF8F828E83E5822418F5825D
:10028200E5833400F583E0FEA3E0FF900A4DEEF033
:10029200A3EFF0900A83E0FEA3E0FF8F828E83E556
:1002A20082241AF582E5833400F583E0FEA3E0FFA1
:1002B200900A4FEEF0A3EFF07D0C7F00125C3990B4
:1002C2000A81E0FF90055BEFF0900A80E0FF900565
:0E02D2005CEFF0900535E0FF7D00127E4622C5
:1002E000900A81E0FF9005E5EFF0900A80E0FF9032
:1002F00005E6EFF09005B3E0FF7D00127E46229008
:100300000A81E0FF90053BEFF0900A80E0FF900546
:0E0310003CEFF09005CBE0FF7D00127E462210
:10031E00900A7CE0FBA3E0FAA3E0F9E92404F9EAF1
:10032E003400FAAE02AF01900A83EEF0A3EFF09024
:10033E000A83E0FEA3E0FFAA06A9077B01C003C063
:10034E0002C001900A83E0FEA3E0FFAA06A9077B84
:10035E0001900A1CEBF0A3EAF0A3E9F0900A1FE467
:10036E00F0A3740CF0D001D002D003124852900AC0
:10037E0083E0FEA3E0FFAA06A9077B017D0C7F00A8
:10038E00126A7A900A81E0FF9005CEEFF0900A8013
:10039E00E0FF9005CFEFF09005A5E0FF7D00127E07
:0203AE004622E5
:1003B000900A81E0FF9005B6EFF0900A80E0FF9090
:1003C00005B7EFF090059BE0FF7D00127E4622907E
:1003D0000A81E0FF9005A2EFF0900A80E0FF90050F
:0E03E000A3EFF0900587E0FF7D00127E46221D
:1003EE00900A7CE0FBA3E0FAA3E0F9E92404F9EA21
:1003FE003400FAAE02AF01900A83EEF0A3EFF09054
:10040E000A83E0FEA3E0FFAA06A9077B01C003C092
:10041E0002C001900A83E0FEA3E0FFAA06A9077BB3
:10042E0001900A1CEBF0A3EAF0A3E9F0900A1FE496
:10043E00F0A37402F0D001D002D003124852900AF9
:10044E0083E0FEA3E0FFAA06A9077B011273D690F4
:10045E000A81E0FF900541EFF0900A80E0FF9005E1
:0E046E0042EFF09005D0E0FF7D00127E4622A6
:10047C00900A81E0FF9005D1EFF0900A80E0FF90A8
:10048C0005D2EFF090058AE0FF7D00127E462290A7
:10049C000A81E0FF900551EFF0900A80E0FF900593
:1004AC0052EFF09005E7E0FF7D00127E4622900AA5
:1004BC0081E0FF900536EFF0900A80E0FF90053761
:0D04CC00EFF09005B8E0FF7D00127E4622A3
:1004D900900A7CE0FBA3E0FAA3E0F9E92404F9EA35
:1004E9003400FAAE02AF01900A83EEF0A3EFF09068
:1004F9000A81E0FF9005E8EFF0900A80E0FF90059F
:10050900E9EFF0900A83E0FEA3E0FF8F828E83E09B
:10051900FF9005EAEFF09005B4E0FF7D00127E46FA
:0105290022AF
:10052A00900A7CE0FBA3E0FAA3E0F9E92404F9EAE3
:10053A003400FAAE02AF01900A83EEF0A3EFF09016
:10054A000A81E0FF900557EFF0900A80E0FF9005DE
:10055A0058EFF0900A83E0FEA3E0FF8F828E83E0DB
:10056A00FEA3E0FF900559EEF0A3EFF07B017A05B8
:10057A007959126C559005ECE0FF7D00127E4622F7
:10058A00900A81E0FF900570EFF0900A80E0FF90FA
:0F059A000571EFF090053EE0FF7D00127E4622D6
:1005A900900A7CE0FBA3E0FAA3E0F9E92404F9EA64
:1005B9003400FAAE02AF01900A83EEF0A3EFF09097
:1005C9000A81E0FF900539EFF0900A80E0FF90057D
:1005D9003AEFF0900A83E0FEA3E0FFAA06A9077BA1
:1005E90001126C55900A83E0FEA3E0FFEF2402FF9D
:1005F900EE3400FEAA06A9077B01126C55900A8306
:10060900E0FEA3E0FF8F828E83E0FEA3E0FF900A65
:1006190083E0FCA3E0FD8D828C83A3A3E0FCA3E02F
:10062900FD900A83E0FAA3E0FB8B828A83E58224AA
:1006390004F582E5833400F583E0FB127AEA90053C
:09064900CAE0FF7D00127E46228A
:10065200900A8374C8F0900A847472F0900A85E458
:10066200F07B017A0A7983900A81E0FF900A36EFE3
:10067200F0900A80E0FF900A37EFF0900A38740198
:10068200F07D037C0012347DEF70D67F0F7E001266
:0606920084AE75EF0222A8
:10069800900A7CE0FBA3E0FAA3E0F9E92404F9EA74
:1006A8003400FAAE02AF01900A83EEF0A3EFF090A7
:1006B8000A81E0FF9005B9EFF0900A80E0FF90050D
:1006C800BAEFF0900A83E0FEA3E0FF8F828E83E00A
:1006D800FF9005BBEFF0900A83E0FEA3E0FF8F8256
:1006E8008E83A3E0FF9005BCEFF0900A83E0FEA3A1
:1006F800E0FF8F828E83A3A3E0FF9005BDEFF0900B
:100708000A83E0FEA3E0FF8F828E83A3A3A3E0FF0A
:100718009005BEEFF0900A83E0FEA3E0FF8F828E83
:1007280083E5822404F582E5833400F583E0FF90B5
:1007380005BFEFF0900A83E0FEA3E0FF8F828E836F
:10074800E5822405F582E5833400F583E0FF900512
:10075800C0EFF0900A83E0FEA3E0FFEF2406FFEE6F
:100768003400FEAA06A9077B01C003C002C0017BB2
:10077800017A0579C1A801AC02AD03D001D002D03D
:10078800037E007F08121C47900586E0FF7D00125B
:030798007E462278
:10079B00900A81E0FF90059EEFF0900A80E0FF90B9
:0F07AB00059FEFF0900584E0FF7D00127E46224F
:1007BA00900A7CE0FBA3E0FAA3E0F9E92404F9EA51
:1007CA003400FAAE02AF01900A83EEF0A3EFF09084
:1007DA000A81E0FF900561EFF0900A80E0FF900542
:1007EA0062EFF0900A83E0FEA3E0FF8F828E83E03F
:1007FA00FEA3E0FF900563EEF0A3EFF07B017A051C
:10080A007963126C55900A83E0FEA3E0FF8F828E13
:10081A0083A3A3E0FEA3E0FF900565EEF0A3EFF04B
:10082A007B017A057965126C55900A83E0FEA3E094
:10083A00FF8F828E83E5822404F582E5833400F5F6
:10084A0083E0FEA3E0FF900567EEF0A3EFF07B01E3
:10085A007A057967126C55900A83E0FEA3E0FF8F50
:10086A00828E83E5822406F582E5833400F583E0EF
:10087A00FEA3E0FF900569EEF0A3EFF07B017A0595
:10088A007969126C55900A83E0FEA3E0FF8F828E8D
:10089A0083E5822408F582E5833400F583E0FEA32C
:1008AA00E0FF90056BEEF0A3EFF07B017A05796B20
:0E08BA00126C559005C9E0FF7D00127E4622AB
:1008C800900A81E0FF9005B0EFF0900A80E0FF9079
:1008D80005B1EFF090059AE0FF7D00127E46229068
:1008E8000A81E0FF9005A0EFF0900A80E0FF9005F4
:1008F800A1EFF0900585E0FF7D00127E4622900A68
:1009080081E0FF900579EFF0900A80E0FF90057A8A
:10091800EFF0900550E0FF7D00127E4622900A819C
:10092800E0FF9005AAEFF0900A80E0FF9005ABEF9A
:10093800F0900592E0FF7D00127E4622900A81E049
:10094800FF90054BEFF0900A80E0FF90054CEFF028
:100958009005D5E0FF7D00127E4622900A81E0FFD7
:1009680090058DEFF0900A80E0FF90058EEFF090F3
:0A0978000578E0FF7D00127E4622A4
:10098200900A7CE0FBA3E0FAA3E0F9E92404F9EA87
:100992003400FAAE02AF01900A83EEF0A3EFF090BA
:1009A2000A83E0FEA3E0FFEF2401FFEE3400FEAA7B
:1009B20006A9077B01126C55900A83E0FEA3E0FFB3
:1009C2008F828E83E0FF900A83E0FCA3E0FD8D829C
:1009D2008C83A3E0FCA3E0FD127B30900A81E0FF50
:1009E2009005A6EFF0900A80E0FF9005A7EFF09047
:0A09F200058FE0FF7D00127E462213
:1009FC00900A7CE0FBA3E0FAA3E0F9E92404F9EA0D
:100A0C003400FAAE02AF01900A83EEF0A3EFF0903F
:100A1C000A83E0FEA3E0FF8F828E83E0FF127E0745
:100A2C00900A81E0FF9005A8EFF0900A80E0FF901B
:0F0A3C0005A9EFF0900590E0FF7D00127E4622A5
:100A4B00900A81E0FF9005E3EFF0900A80E0FF90C1
:100A5B0005E4EFF09005B2E0FF7D00127E46229098
:100A6B000A81E0FF900588EFF0900A80E0FF900587
:0E0A7B0089EFF0900576E0FF7D00127E4622A6
:100A8900900A7CE0FBA3E0FAA3E0F9E92404F9EA7F
:100A99003400FAAE02AF01900A83EEF0A3EFF090B2
:100AA9000A83E0FEA3E0FFAA06A9077B01126C55A1
:100AB900900A83E0FEA3E0FFEF2402FFEE3400FE7C
:100AC900AA06A9077B01126C55900A83E0FEA3E0F0
:100AD900FFEF2404FFEE3400FEAA06A9077B0112EA
:100AE9006C55900A83E0FEA3E0FFEF2406FFEE3485
:100AF90000FEAA06A9077B01126C55900A83E0FE45
:100B0900A3E0FF8F828E83E0FEA3E0FFC006C0074B
:100B1900900A83E0FEA3E0FF8F828E83A3A3E0FC0B
:100B2900A3E0FD900A83E0FEA3E0FF8F828E83E5B8
:100B3900822404F582E5833400F583E0FAA3E0FB1F
:100B4900900A83E0FEA3E0FF8F828E83E58224066C
:100B5900F582E5833400F583E0FEA3E0FF900A6E99
:100B6900EEF0A3EFF0900A81E0FF900A70EFF090A9
:100B79000A80E0FF900A71EFF0D007D006126E8963
:0B0B8900900540E0FF7D00127E462238
:100B9400900A7CE0FBA3E0FAA3E0F9E92404F9EA73
:100BA4003400FAAE02AF01900A83EEF0A3EFF090A6
:100BB4000A81E0FF9005D6EFF0900A80E0FF9005EF
:100BC400D7EFF0900A83E0FEA3E0FFAA06A9077B13
:100BD40001C003C002C0017B017A0579D8A801AC29
:100BE40002AD03D001D002D0037E007F08121C475F
:0B0BF4009005AFE0FF7D00127E46225E
:100BFF00900A81E0FF9005CCEFF0900A80E0FF9023
:100C0F0005CDEFF09005A4E0FF7D00127E46229007
:100C1F000A81E0FF900543EFF0900A80E0FF900516
:0E0C2F0044EFF09005D3E0FF7D00127E4622D8
:100C3D00900A7CE0FBA3E0FAA3E0F9E92404F9EAC9
:100C4D003400FAAE02AF01900A83EEF0A3EFF0127A
:100C5D008A3D128830EF6003020DDB900A83E0FEBF
:100C6D00A3E0FFEF2401FFEE3400FEAA06A9077BE7
:100C7D0001126C55900A83E0FEA3E0FFEF2403FF01
:100C8D00EE3400FEAA06A9077B01126C55900A836B
:100C9D00E0FEA3E0FFEF2405FFEE3400FEAA06A957
:100CAD00077B011251C1900A83E0FEA3E0FFEF2400
:100CBD0009FFEE3400FEAA06A9077B011251C1906F
:100CCD000A83E0FEA3E0FFEF240DFFEE3400FEAA41
:100CDD0006A9077B011251C1900A83E0FEA3E0FF34
:100CED00EF2411FFEE3400FEAA06A9077B01125175
:100CFD00C1900A83E0FEA3E0FFEF2415FFEE340060
:100D0D00FEAA06A9077B011251C1900A83E0FEA33A
:100D1D00E0FFEF2419FFEE3400FEAA06A9077B01C0
:100D2D001251C1900A83E0FEA3E0FFEF241DFFEEF8
:100D3D003400FEAA06A9077B011251C1900A83E077
:100D4D00FEA3E0FFEF2421FFEE3400FEAA06A90763
:100D5D007B011251C1900A83E0FEA3E0FFEF242531
:100D6D00FFEE3400FEAA06A9077B011251C1900ABD
:100D7D0083E0FEA3E0FFEF2429FFEE3400FEAA0678
:100D8D00A9077B011251C1900A81E0FF900A80E012
:100D9D00FD900A83E0FAA3E0FB8B828A83E0FBC01F
:100DAD0003900A83E0FAA3E0FBEB2401FBEA340095
:100DBD00FAA9037B01900B22EBF0A3EAF0A3E9F073
:100DCD00D003125F27128A3D7D00127E4622900AC3
:100DDD0081E0FF90056EEFF0900A80E0FF90056FC7
:0D0DED00EFF090053DE0FF7D00127E4622F4
:100DFA00900A7CE0FBA3E0FAA3E0F9E92404F9EA0B
:100E0A003400FAAE02AF01900A83EEF0A3EFF0903D
:100E1A000A81E0FF90054DEFF0900A80E0FF90050F
:100E2A004EEFF0900A83E0FEA3E0FF8F828E83E00C
:100E3A00FF90054FEFF09005E0E0FF7D00127E463F
:010E4A002285
:100E4B00900A7CE0FBA3E0FAA3E0F9E92404F9EAB9
:100E5B003400FAAE02AF01900A83EEF0A3EFF090EC
:100E6B000A83E0FEA3E0FF8F828E83E0FF900A836C
:100E7B00E0FCA3E0FD8D828C83A3E0FD1257B390C1
:100E8B000A81E0FF90058BEFF0900A80E0FF900560
:0E0E9B008CEFF0900577E0FF7D00127E46227E
:100EA900900A81E0FF90059CEFF0900A80E0FF90A6
:0F0EB900059DEFF090057EE0FF7D00127E462242
:100EC800900A7CE0FBA3E0FAA3E0F9E92404F9EA3C
:100ED8003400FAAE02AF01900A83EEF0A3EFF0906F
:100EE8000A81E0FF900574EFF0900A80E0FF90051A
:100EF80075EFF0900A83E0FEA3E0FF8F828E83E017
:100F0800FFEF70077F0112835680057F001283561A
:0B0F180090053FE0FF7D00127E4622A6
:100F2300900A7CE0FBA3E0FAA3E0F9E92404F9EAE0
:100F33003400FAAE02AF01900A83EEF0A3EFF09013
:100F43000A83E0FEA3E0FF8F828E83E0FF900556C5
:100F5300EFF0900A81E0FF900554EFF0900A80E0F3
:100F6300FF900555EFF09005EBE0FF7D00127E4604
:010F7300225B
:100F7400900A7CE0FBA3E0FAA3E0F9E92404F9EA8F
:100F84003400FAAE02AF01900A83EEF0A3EFF090C2
:100F94000A83E0FEA3E0FF8F828E83E0FF9005AE1C
:100FA400EFF0900A81E0FF9005ACEFF0900A80E04A
:100FB400FF9005ADEFF0900599E0FF7D00127E46AD
:010FC400220A
:100FC500900A7CE0FBA3E0FAA3E0F9E92404F9EA3E
:100FD5003400FAAE02AF01900A83EEF0A3EFF09071
:100FE5000A81E0FF900549EFF0900A80E0FF900547
:100FF5004AEFF0900A83E0FEA3E0FF8F828E83E044
:10100500FF900546EFF0900A83E0FEA3E0FF8F8294
:101015008E83A3E0FEA3E0FF900547EEF0A3EFF07B
:101025007B017A057947126C559005D4E0FF7D0068
:04103500127E4622BF
:10103900900A7CE0FBA3E0FAA3E0F9E92404F9EAC9
:101049003400FAAE02AF01900A83EEF0A3EFF090FC
:101059000A81E0FF90055DEFF0900A80E0FF9005BE
:101069005EEFF0900A83E0FEA3E0FF8F828E83E0BB
:10107900FF90055FEFF0900A83E0FEA3E0FF8F8207
:101089008E83A3E0FF900560EFF0900545E0FF7DBA
:0510990000127E46225A
:10109E00900A7CE0FBA3E0FAA3E0F9E92404F9EA64
:1010AE003400FAAE02AF01900A83EEF0A3EFF09097
:1010BE000A81E0FF900593EFF0900A80E0FF900523
:1010CE0094EFF0900A83E0FEA3E0FF8F828E83E020
:1010DE00FF900595EFF0900A83E0FEA3E0FF8F826C
:1010EE008E83A3E0FEA3E0FF900596EEF0A3EFF053
:1010FE007B017A057996126C55900A83E0FEA3E087
:10110E00FF8F828E83A3A3A3E0FF900598EFF0904C
:0A111E00057BE0FF7D00127E4622F3
:10112800900A7CE0FBA3E0FAA3E0F9E92404F9EAD9
:101138003400FAAE02AF01900A83EEF0A3EFF0900C
:101148000A81E0FF90057FEFF0900A80E0FF9005AC
:1011580080EFF0900A83E0FEA3E0FF8F828E83E0A9
:10116800FF900581EFF0900A83E0FEA3E0FF8F82F5
:101178008E83A3E0FEA3E0FF900582EEF0A3EFF0DC
:101188007B017A057982126C5590056DE0FF7D0030
:04119800127E46225B
