:10072E0058000238393A3B3C3D3E3F28292A2B2CB3
:0B073E002D2E2F3435363724252627BA
:1005DF0075BC6075F10FE4F5F275F30FF5F490004B
:1005EF001AF075BB3875D103FE7F30FD7B017A00A1
:1005FF00791B12022343E80C12076143E88043E79B
:04060F0002D2AF2242
:03007B000202DBA3
:1002DB00C0E0C0F0C083C082C0D075D00853E7FD2A
:1002EB00C2ED12000EEFC313FF90001AE06F6058BF
:1002FB00AFBFE025E0241BF582E43400F583E4F086
:10030B00A3EFF090001AE025E0241BF582E4340003
:10031B00F583C083C082E0A3E0D082D083F0A3E456
:10032B00F090001AE025E0241BF582E43400F583FD
:10033B00C083C082E0FEA3E0FFADBEEEEF4DFFD069
:10034B0082D083EEF0A3EFF01206F143E702D0D098
:09035B00D082D083D0F0D0E03252
:05004E00900082EFF0BC
:1000530053E7FDE025E0241BF582E43400F583E05B
:10006300FEA3E0FF900083EEF0A3EFF043E70290DE
:070073000083E0FEA3E0FFA3
:01007A002263
:0A061300C0D075D018900085EFF0FC
:10061D0053E7FDE025E0241BF582E43400F583E08B
:10062D00FEA3E0FF900086EEF0A3EFF043E702900B
:07063D000086E0FEA3E0FFD0
:03064400D0D022F1
:1003E800900057EFF0A3ECF0A3EDF0A3EBF0A3EA35
:1003F800F0A3E9F053E7FD900057E0FFA3E0FCA36A
:10040800E0C39FFFEC9400FEEF2401FFE43EFEEF03
:1004180025E0FFEE33FEC006C007900057E075F0F8
:1004280002A4241BF9740035F0FA7B01C003C00252
:1004380090005AE0FBA3E0FAA3E0F8AC02AD03D0C9
:0E04480002D003D007D00612014E43E7022275
:1006F100C0D090001AE004F0B41802E4F090001A9F
:10070100E02402F582E43400F583E0F5BBD0D02289
:070003007B017A00791B224A
:0805020090005DEEF0A3EFF0A4
:10050A0090005DE0FEA3E0FF900000EEF0A3EFF0A4
:10051A00900000E090005FF0900001E0900060F031
:10052A00E0900000F090005FE0900001F090000081
:10053A00E0FEA3E0FF900061EEF0A3EFF09000610F
:05054A00E0FEA3E0FF4C
:01054F002289
:1006470075FFDE75FFAD1206761205DF120003AFE8
:1006570001900088EAF0A3EFF0900088E0FEA3E0A5
:0F066700AA06F97B017D307C0012045680FE222A
:03001B0002000AD6
:01000A0032C3
:03002B00020025AB
:0100250032A8
:03003B000200269A
:0100260032A7
:0300430002002791
:0100270032A6
:03004B0002002888
:0100280032A5
:10045600900079EBF0A3EAF0A3E9F0A3ECF0A3EDAA
:10046600F090004E7401F0A3F0900079E0A3E0FA5A
:10047600A3E0FF900053EAF0A3EFF090007CE0FECB
:10048600A3E0FF900050EEF0A3EFF0900050E0A341
:10049600E090004DF0759A07759DFF75F80143A62B
:0A04A6000243E30143E601D2AF2256
:0300330002036461
:10036400C0E0C083C082C0D075D01830FF5EC2AF79
:10037400900052E59BF0E064336004E0B4342D90C7
:10038400004DE4F0900052E0B43310A3E0FEA3E08B
:10039400FF90004BEEF0A3EFF08011900052E0B418
:1003A400340A90004B7400F0A3744EF090004DE0BA
:1003B400FF90004BE0FCA3E02FF582E43CF583E0E2
:1003C400F59B90004DE004F0C2FFD2AF30FE02C2B4
:1003D400FE30FD02C2FD30FC02C2FCD0D0D082D07F
:0403E40083D0E032B0
:0D000E00C0D075D00890004DE0FFD0D0228A
:10076100C2CAC2C9C2C875CA6675CBFC75CCFF7551
:05077100CDFFD2CA22F9
:10074A00C28CE490006DF0A3F0438901758AFF75AD
:07075A008CDBD2A9D28C2236
:03000B000206CE1C
:1006CE00C0E0C083C082C28D90006EE004F0700660
:1006DE0090006DE004F0758AFF758CDBD082D083BC
:0306EE00D0E03227
:1006760075B167E4900079F0A3F0900079E0FEA3ED
:10068600E0C3EE64809481500DE004F070069000A3
:0E06960079E004F080E4E5B130E7FB75B2884E
:0106A4002233
:0806A500900063EEF0A3EFF0FA
:1006AD007B017A007965900063E0FCA3E0FD120503
:1006BD009B7B017A0079651204B0EFB401F37F01E1
:0106CD00220A
:10059B0090006FEBF0A3EAF0A3E9F0A3ECF0A3ED6E
:1005AB00F012071190006FE0FBA3E0FAA3E0F9EE65
:1005BB008FF01201D7900072E0FEA3E0FF90006F66
:1005CB00E0FBA3E0FAA3E0F9900002EE8FF012013A
:0405DB00F67F012284
:0B04B000900074EBF0A3EAF0A3E9F069
:1004BB00120711900077EEF0A3EFF0900074E0FBC1
:1004CB00A3E0FAA3E0F9120174FFAEF0900077E01D
:1004DB00FCA3E0FD120550900074E0FBA3E0FAA32F
:1004EB00E0F990000212019FFDC3EF9DEE95F050D5
:0604FB00037FFF227F01D8
:0105010022D7
:07001E007B017A00796922E1
:10071100C2A990006DE0FEA3E0FF90008AEEF0A375
:0C072100EFF0D2A990008AE0FEA3E0FFF8
:01072D0022A9
:1005500090007EEEF0A3EFF0A3ECF0A3EDF090009E
:100560007EE0FEA3E0FFA3E0FCA3E0D39FEC9E406F
:100570001090007EE0A3E0A3E0A3E09FFFEC9EFECE
:100580002290007EE0FEA3E0FFC3E49FFFE49EFE16
:0B059000A3E0FCA3E02FFFEE3CFE22E6
:0300000002024FAA
:0C024F00787FE4F6D8FD75811F0202964E
:10007E00E709F608DFFA8046E709F208DFFA803E64
:10008E0088828C83E709F0A3DFFA8032E309F60851
:10009E00DFFA8078E309F208DFFA807088828C83B9
:1000AE00E309F0A3DFFA806489828A83E0A3F6086D
:1000BE00DFFA805889828A83E0A3F208DFFA804C47
:1000CE0080D280FA80C680D4806980F2803380101E
:1000DE0080A680EA809A80A880DA80E280CA803387
:1000EE0089828A83ECFAE493A3C8C582C8CCC583FF
:1000FE00CCF0A3C8C582C8CCC583CCDFE9DEE780CF
:10010E000D89828A83E493A3F608DFF9ECFAA9F04D
:10011E00EDFB2289828A83ECFAE0A3C8C582C8CCA3
:10012E00C583CCF0A3C8C582C8CCC583CCDFEADEBC
:10013E00E880DB89828A83E493A3F208DFF980CC1E
:10014E0088F0EF60010E4E60C388F0ED2402B40417
:10015E000050B9F582EB2402B4040050AF232345BE
:06016E0082239000CE7315
:10017400BB010A89828A83E0F5F0A3E02250068756
:10018400F009E71922BBFE07E3F5F009E319228918
:0B019400828A83E493F5F0740193224B
:10019F00BB0110E58229F582E5833AF583E0F5F09E
:1001AF00A3E0225009E92582F886F008E622BBFE7B
:1001BF000AE92582F8E2F5F008E222E5832AF583C1
:0801CF00E993F5F0A3E9932286
:1001D700BB010A89828A83F0E5F0A3F0225006F773
:0F01E70009A7F01922BBFE06F3E5F009F3192270
:1001F600F8BB0111E58229F582E5833AF583E8F03B
:10020600E5F0A3F0225009E92582C8F608A6F022F7
:0D021600BBFE09E92582C8F2E5F008F222DE
:10022300EF4E6012EF60010EEDBB010B89828A83F2
:10023300F0A3DFFCDEFA2289F05007F709DFFCA9FF
:0C024300F022BBFEFCF309DFFCA9F02256
:10025B00020647E493A3F8E493A34003F68001F26C
:10026B0008DFF48029E493A3F85407240CC8C333A4
:10027B00C4540F4420C8834004F456800146F6DF73
:10028B00E4800B010204081020408090072EE47ECE
:10029B00019360BCA3FF543F30E509541FFEE49368
:1002AB00A360010ECF54C025E060A840B8E493A32F
:1002BB00FAE493A3F8E493A3C8C582C8CAC583CA5A
:1002CB00F0A3C8C582C8CAC583CADFE9DEE780BE12
:0107490000AF
:00000001FF
